:020000040000FA
:20000000007800205D380000EF380000FB660000F7380000FB380000FF380000ED3800006D
:20002000ED380000ED380000ED3800000339000007390000ED3800000B3900000F39000024
:2000400013390000173900001B3900001F39000023390000273900002B3900002F390000D0
:2000600033390000373900003B3900003F39000043390000473900004B3900004F390000B0
:2000800053390000573900005B3900005F39000063390000673900006B390000ED38000013
:2000A0006F39000073390000773900007B3900007F39000083390000ED380000873900002F
:2000C000ED3800007D490100ED3800008F390000ED380000ED380000ED380000933900000C
:2000E000ED38000097390000ED380000ED3800009B3900009F390000A3390000A739000059
:20010000E7380100AF390000B3390000B7390000BB390000ED380000ED380000ED38000098
:20012000ED380000BF390000C3390000C7390000CB390000CF390000D3390000D73900007E
:20014000ED380000ED380000ED380000ED380000ED380000ED380000ED380000ED38000077
:20016000ED380000ED380000ED380000ED380000ED380000ED380000DB390000DF39000075
:20018000E3390000E7390000EB390000EF390000F3390000F7390000FB390000FF3900000F
:2001A000033A0000073A0000ED380000ED3800000B3A00000F3A0000133A0000173A00004B
:2001C0001B3A0000ED380000ED3800001F3A0000233A0000273A00002B3A00002F3A00009B
:2001E000333A0000373A00003B3A00003F3A0000433A0000473A00004B3A00004F3A000027
:20020000533A0000573A00005B3A00005F3A0000633A0000673A00006B3A00006F3A000006
:20022000733A0000773A00007B3A0000ED380000ED380000ED380000ED380000ED380000F2
:20024000ED380000ED380000ED380000ED380000ED380000ED380000ED380000ED38000076
:20026000ED380000ED380000ED380000ED380000ED380000ED380000ED380000ED38000056
:20028000ED380000ED380000ED380000ED380000ED380000ED380000ED380000ED38000036
:2002A000ED380000ED380000ED380000ED3800007F3A0000833A0000ED380000873A00004E
:2002C0008B3A00008F3A0000933A0000ED380000ED380000ED380000ED380000ED3800000A
:2002E000973A0000ED380000ED380000ED380000ED380000ED380000ED380000ED3800002A
:20030000ED380000ED380000ED380000ED3800009B3A0000ED380000ED380000ED38000005
:1C032000ED380000ED380000ED380000ED380000ED380000ED3800009F3A00000A
:20040000A8BFFF1F146A0100146E010001000000A8C3FF1F146E0100D870010001000000FE
:200420000084FF1FA8BFFF1F0100000008ED00E00600000000000000200000000B0000008E
:200440001B00000000000000000000000000000016157E2BA6D2AE288815F7AB3C4FCF09BD
:2004600023222120272625242B2A29282F2E2D2CFFFFFFFFFFFFFFFFFFFFFFFFFFFFFFFF14
:2004800012AB00012D67000037670000496700004B680000982F8A4291443771CFFBC0B5BA
:2004A000A5DBB5E95BC25639F111F159A4823F92D55E1CAB98AA07D8015B8312BE8531248B
:2004C000C37D0C55745DBE72FEB1DE80A706DC9B74F19BC1C1699BE48647BEEFC69DC10F32
:2004E000CCA10C246F2CE92DAA84744ADCA9B05CDA88F97652513E986DC631A8C82703B039
:20050000C77F59BFF30BE0C64791A7D55163CA0667292914850AB72738211B2EFC6D2C4D43
:20052000130D385354730A65BB0A6A762EC9C281852C7292A1E8BFA24B661AA8708B4BC2E1
:20054000A3516CC719E892D1240699D685350EF470A06A1016C1A419086C371E4C774827A2
:20056000B5BCB034B30C1C394AAAD84E4FCA9C5BF36F2E68EE828F746F63A5781478C884B6
:200580000802C78CFAFFBE90EB6C50A4F7A3F9BEF27871C60000000000000000000000007A
:2005A00000000000000000000000000000000000000000000000000000000000000000003B
:2005C000000000000000000000000000000000006E676953676F72506E676953676F7249D0
:2005E0000102000101020001010200010001000100010001000101020001020300010102DD
:2006000000010001000102020102020202020102010101000102030001030000140600009E
:2006200002000000FC050000020200001406000002000000FC05000001020000FE05000090
:20064000020000000006000009F11000010000000E060000315C00007C431800010000000E
:200660000E060000AD5B00000044010012060000104401001206000001100210010100006F
:200680000D0600000200000004060000638B0000738B000010030200E00500000200000053
:2006A000E20500007B4800000000000011030200E405000002000000E6050000C549000096
:2006C0000000000022030200E805000002000000EA050000894A0000000000002703010017
:2006E0000606000002000000EC050000694C0000000000002E010100070600000100000008
:2007000008060000CB4B0000AB500000310301000906000002000000EE0500001B4D000019
:20072000D1500000340301000A06000002000000F0050000FB4D00000000000036030100D7
:200740000B06000002000000F2050000FB4E0000A3510000370301000C0600000200000003
:20076000F4050000DF4F0000C15100003E030200F605000002000000F80500002B50000088
:200780000000000021F10200020600005987000025F10200020600006D8700002AF102002C
:2007A00002060000818700002BF10200020600009587000086F1020002060000AD85000034
:2007C0008AF1020002060000A98700008CF1020002060000C5870000A1F1020002060000F5
:2007E000F9870000A5F102000206000043880000AAF10200020600005F880000ABF10200E4
:20080000020600007B8800007C430200020600009988000020ED020002060000B58800008F
:20082000A0ED0200020600007D890000F1F1020002060000DD8900000502000001000000C1
:200840000F06000001000000100600000100000011060000838600000000000000FF080044
:20086000010000000F06000001000000100600000100000011060000E986000000000000C4
:2008800012020001010000000F06000001000000100600000100000011060000ED8600008B
:2008A0000000000000000020FFFF002000E00100FFBF0700342143780000030200800300BC
:2008C000030000000100000000800300000004000080030000000000060000000100000003
:2008E0000080070000400000008007000000000000000000000000000000000000000000AA
:200900000000000000000000000000000000000000000000000000000000000000000000D7
:200920000000000000000000000000000000000000000000000000000000000000000000B7
:20094000000000000000000000000000000000000000000000000000000000000000000097
:20096000000000000000000000000000000000000000000000000000000000000000000077
:20098000000000000000000000000000000000000000000000000000000000000000000057
:2009A000000000000000000000000000000000008734124334214378000003010080030090
:2009C000070000000000000000E001000020000000E001000001000003000000000000002A
:2009E000008003000000040000800300000000000600000000000000008007000040000020
:200A000000800700000000000000000000000000000000000000000000000000000000004F
:200A20000000000000000000000000000000000000000000000000000000000000000000B6
:200A4000000000000000000000000000000000000000000000000000000000000000000096
:200A6000000000000000000000000000000000000000000000000000000000000000000076
:200A8000000000000000000000000000000000000000000000000000000000000000000056
:200AA000000000000000000000000000000000008734124300000000010000000000000025
:200AC000000000000100000000010100000000003C08000006000000B40A0000000000000B
:200AE0007D08000009000000B80A00000000E803CC2A00CC0000E803FF7E00FF0000E803A7
:200B0000CC2B00CC0000E803FF7E00FFA00F000002000000C38B000002000000C58B00005A
:200B20000000000002000000C78B0000BC0A00000000020000000000CC0A0000C40A0000F5
:200B400001000000CC0A00000C0B000005000000020000000100881332000000C80A000000
:200B6000EC0A0000A00B000005000000020000000100881332000000C80A0000FC0A000027
:200B8000AC0B00000000000000000000F13F010000000000654001008F4001009F3F010018
:200BA000000AE8038403AA2A00AA0000000AE8038403AA2B00AA0000353139303735000005
:200BC000660852993220204166085277392020416414339001202041FFFFFFFFFFFFFFFF63
:200BE000FFFFFFFFFFFFFFFF8803000000000000000000000000000000000000B5A4000019
:200C000037A50000B5A20000ADA30000FDAB000000000000000000000000000000000000A9
:200C20000000000000000000B5A4000037A50000CDA6000000000000000000001FA7000046
:200C40006BA700003FA800000000000000000000000000000000000000000000000000009B
:200C60000000000000000000B5A4000037A50000CDA60000E3AE000001020300B79E0000E0
:200C800005A100000000000000000000000000002FA200003D9F000085A1000000000000DB
:200CA000000000000000000097A20000C19F0000C19F00000000000000000000000000003B
:200CC000C19F0000C39F0000C39F0000000000000000000000000000C39F0000E59F00000A
:200CE000E59F0000000000000000000000000000E59F000069A0000069A0000000000000DA
:200D0000000000000000000069A00000000000000000000000000000000000870000000043
:200D20000000000000000000000000000000000000000000000000000000000000000000B3
:200D4000963007772C610EEEBA51099919C46D078FF46A7035A563E9A395649E3288DB0E68
:200D6000A4B8DC791EE9D5E088D9D2972B4CB609BD7CB17E072DB8E7911DBF906410B71D86
:200D8000F220B06A4871B9F3DE41BE847DD4DA1AEBE4DD6D51B5D4F4C785D38356986C1326
:200DA000C0A86B647AF962FDECC9658A4F5C0114D96C0663633D0FFAF50D088DC8206E3B47
:200DC0005E10694CE44160D5727167A2D1E4033C47D4044BFD850DD26BB50AA5FAA8B53590
:200DE0006C98B242D6C9BBDB40F9BCACE36CD832755CDF45CF0DD6DC593DD1ABAC30D9265C
:200E00003A00DE518051D7C81661D0BFB5F4B42123C4B3569995BACF0FA5BDB89EB8022825
:200E20000888055FB2D90CC624E90BB1877C6F2F114C6858AB1D61C13D2D66B69041DC7647
:200E40000671DB01BC20D2982A10D5EF8985B1711FB5B606A5E4BF9F33D4B8E8A2C90778C3
:200E600034F9000F8EA8099618980EE1BB0D6A7F2D3D6D08976C6491015C63E6F4516B6B79
:200E800062616C1CD83065854E0062F2ED95066C7BA5011BC1F4088257C40FF5C6D9B06531
:200EA00050E9B712EAB8BE8B7C88B9FCDF1DDD62492DDA15F37CD38C654CD4FB5861B24DE6
:200EC000CE51B53A7400BCA3E230BBD441A5DF4AD795D83D6DC4D1A4FBF4D6D36AE96943C3
:200EE000FCD96E34468867ADD0B860DA732D0444E51D03335F4C0AAAC97C0DDD3C71055027
:200F0000AA41022710100BBE86200CC925B56857B3856F2009D466B99FE461CE0EF9DE5E08
:200F200098C9D9292298D0B0B4A8D7C7173DB359810DB42E3B5CBDB7AD6CBAC02083B8ED64
:200F4000B6B3BF9A0CE2B6039AD2B1743947D5EAAF77D29D1526DB048316DC73120B63E35E
:200F6000843B64943E6A6D0DA85A6A7A0BCF0EE49DFF099327AE000AB19E077D44930FF026
:200F8000D2A3088768F2011EFEC206695D5762F7CB67658071366C19E7066B6E761BD4FE2C
:200FA000E02BD3895A7ADA10CC4ADD676FDFB9F9F9EFBE8E43BEB717D58EB060E8A3D6D605
:200FC0007E93D1A1C4C2D83852F2DF4FF167BBD16757BCA6DD06B53F4B36B248DA2B0DD846
:200FE0004C1B0AAFF64A0336607A0441C3EF60DF55DF67A8EF8E6E3179BE69468CB361CB98
:201000001A8366BCA0D26F2536E2685295770CCC03470BBBB91602222F260555BE3BBAC52B
:20102000280BBDB2925AB42B046AB35CA7FFD7C231CFD0B58B9ED92C1DAEDE5BB0C2649B5F
:2010400026F263EC9CA36A750A936D02A906099C3F360EEB8567077213570005824ABF9549
:20106000147AB8E2AE2BB17B381BB60C9B8ED2920DBED5E5B7EFDC7C21DFDB0BD4D2D38639
:2010800042E2D4F1F8B3DD686E83DA1FCD16BE815B26B9F6E177B06F7747B718E65A088867
:2010A000706A0FFFCA3B06665C0B0111FF9E658F69AE62F8D3FF6B6145CF6C1678E20AA024
:2010C000EED20DD75483044EC2B30339612667A7F71660D04D476949DB776E3E4A6AD1AE49
:2010E000DC5AD6D9660BDF40F03BD83753AEBCA9C59EBBDE7FCFB247E9FFB5301CF2BDBD43
:201100008AC2BACA3093B353A6A3B4240536D0BA9306D7CD2957DE54BF67D9232E7A66B37E
:20112000B84A61C4021B685D942B6F2A37BE0BB4A18E0CC31BDF055A8DEF022D0000000098
:2011400000000000020000003C0000000200000001000E0001000303000000002CB2FF1F3D
:20116000000000000000000000000000000000000000000000000000010000003800000036
:20118000020000000200FE07020003030000000030B2FF1F0000000000000000000000003E
:2011A00000000000000000000000000000000000000000000000000000000000000000002F
:2011C00000000000000000000000000000000000000000000000000000000000000000000F
:2011E0000000000000000000000000000000000000000000000000000000000000000000EF
:201200000000000000000000000000000000000000002110422063308440A550C660E77072
:20122000088129914AA16BB18CC1ADD1CEE1EFF13112100273325222B5529442F772D6621E
:20124000399318837BB35AA3BDD39CC3FFF3DEE36224433420040114E664C774A4448554DE
:201260006AA54BB528850995EEE5CFF5ACC58DD55336722611163006D776F6669556B4469E
:201280005BB77AA719973887DFF7FEE79DD7BCC7C448E5588668A77840086118022823385E
:2012A000CCC9EDD98EE9AFF9488969990AA92BB9F55AD44AB77A966A711A500A333A122A1E
:2012C000FDDBDCCBBFFB9EEB799B588B3BBB1AABA66C877CE44CC55C222C033C600C411CDE
:2012E000AEED8FFDECCDCDDD2AAD0BBD688D499D977EB66ED55EF44E133E322E511E700E9E
:201300009FFFBEEFDDDFFCCF1BBF3AAF599F788F8891A981CAB1EBA10CD12DC14EF16FE195
:201320008010A100C230E3200450254046706760B9839893FBA3DAB33DC31CD37FE35EF31D
:20134000B1029012F322D2323542145277625672EAB5CBA5A89589856EF54FE52CD50DC5DD
:20136000E234C324A01481046674476424540544DBA7FAB79987B8975FE77EF71DC73CD79D
:20138000D326F2369106B01657667676154634564CD96DC90EF92FE9C899E9898AB9ABA95D
:2013A0004458654806782768C018E1088238A3287DCB5CDB3FEB1EFBF98BD89BBBAB9ABB1D
:2013C000754A545A376A167AF10AD01AB32A923A2EFD0FED6CDD4DCDAABD8BADE89DC98DDD
:2013E000267C076C645C454CA23C832CE01CC10C1FEF3EFF5DCF7CDF9BAFBABFD98FF89F9D
:20140000176E367E554E745E932EB23ED10EF01E0100000002000000040000000800000071
:20142000100000002000000040000000800000001B00000036000000637C777BF26B6FC509
:201440003001672BFED7AB76CA82C97DFA5947F0ADD4A2AF9CA472C0B7FD9326363FF7CCCE
:2014600034A5E5F171D8311504C723C31896059A071280E2EB27B27509832C1A1B6E5AA027
:20148000523BD6B329E32F8453D100ED20FCB15B6ACBBE394A4C58CFD0EFAAFB434D3385A9
:2014A00045F9027F503C9FA851A3408F929D38F5BCB6DA2110FFF3D2CD0C13EC5F97441711
:2014C000C4A77E3D645D197360814FDC222A908846EEB814DE5E0BDBE0323A0A4906245CE2
:2014E000C2D3AC629195E479E7C8376D8DD54EA96C56F4EA657AAE08BA78252E1CA6B4C624
:20150000E8DD741F4BBD8B8A703EB5664803F60E613557B986C11D9EE1F8981169D98E94B0
:201520009B1E87E9CE5528DF8CA1890DBFE6426841992D0FB054BB16F4A750514165537EA8
:2015400017A4C31A275E963AAB6BCB3B9D45F11FFA58ABACE303934B30FA5520766DF6ADFE
:20156000CC769188024C25F5E5D7FC4F2ACBD7C53544802662A38FB5B15A49DEBA1B672515
:20158000EA0E9845FEC0E15D2F7502C34CF012814697A38DD3F9C66B8F5FE703929C951588
:2015A0006D7AEBBF5259DA95BE832DD47421D358E0692949C9C8448EC2896A758E7978F4C3
:2015C000583E6B99B971DD27E14FB6BE88AD17F020AC66C9CE3AB47DDF4A18631A3182E5D9
:2015E00051336097537F45626477E0B16BAE84BB81A01CFE082B94F94868587045FD198FD6
:20160000DE6C87947BF8B75273D323AB4B02E2721F8F57E355AB2A66EB2807B2B5C2032F47
:20162000C57B9A863708A5D32887F230BFA5B223036ABA0216825CEDCF1C2B8A79B492A779
:2016400007F2F0F369E2A14EDAF4CD6505BED50634621FD1A6FE8AC42E539D34F355A0A282
:201660008AE13205F6EB75A483EC390B60EFAA40719F065E6E1051BD218AF93EDD063D964A
:201680003E05AEDDE6BD464D548DB591C45D057106D46F045015FF6098FB2419BDE997D694
:2016A0004043CC89D99E7767E842BDB0898B8807195B38E7C8EEDB797C0A47A1420FE97C02
:2016C000841EC9F800000000808683092BED48321170AC1E5A724E6C0EFFFBFD8538560F8B
:2016E000AED51E3D2D3927360FD9640A5CA621685B54D19B362E3A240A67B10C57E70F937D
:20170000EE96D2B49B919E1BC0C54F80DC20A261774B695A121A161C93BA0AE2A02AE5C0FC
:2017200022E0433C1B171D12090D0B0E8BC7ADF2B6A8B92D1EA9C814F119855775074CAF63
:2017400099DDBBEE7F60FDA301269FF772F5BC5C663BC544FB7E345B4329768B23C6DCCB00
:20176000EDFC68B6E4F163B831DCCAD76385104297224013C61120844A247D85BB3DF8D2D1
:20178000F93211AE29A16DC79E2F4B1DB230F3DC8652EC0DC1E3D077B3166C2B70B999A9F4
:2017A0009448FA11E9642247FC8CC4A8F03F1AA07D2CD8563390EF22494EC78738D1C1D97C
:2017C000CAA2FE8CD40B3698F581CFA67ADE28A5B78E26DAADBFA43F3A9DE42C78920D5074
:2017E0005FCC9B6A7E4662548D13C2F6D8B8E89039F75E2EC3AFF5825D80BE9FD0937C69B8
:20180000D52DA96F2512B3CFAC993BC8187DA7109C636EE83BBB7BDB267809CD5918F46E79
:201820009AB701EC4F9AA883956E65E6FFE67EAABCCF082115E8E6EFE79BD9BA6F36CE4AA3
:201840009F09D4EAB07CD629A4B2AF313F23312AA59430C6A266C0354EBC377482CAA6FC35
:2018600090D0B0E0A7D8153304984AF1ECDAF741CD500E7F91F62F174DD68D76EFB04D4310
:20188000AA4D54CC9604DFE4D1B5E39E6A881B4C2C1FB8C165517F465EEA049D8C355D012D
:2018A000877473FA0B412EFB671D5AB3DBD25292105633E9D647136DD7618C9AA10C7A374E
:2018C000F8148E59133C89EBA927EECE61C935B71CE5EDE147B13C7AD2DF599CF2733F5594
:2018E00014CE7918C737BF73F7CDEA53FDAA5B5F3D6F14DF44DB8678AFF381CA68C43EB917
:2019000024342C38A3405FC21DC37216E2250CBC3C498B280D9541FFA80171390CB3DE08BE
:20192000B4E49CD856C19064CB84617B32B670D56C5C7448B85742D0A75051F465537E41E0
:20194000A4C31A175E963A276BCB3BAB45F11F9D58ABACFA03934BE3FA5520306DF6AD76FA
:20196000769188CC4C25F502D7FC4FE5CBD7C52A44802635A38FB5625A49DEB11B6725BA11
:201980000E9845EAC0E15DFE7502C32FF012814C97A38D46F9C66BD35FE7038F9C95159284
:2019A0007AEBBF6D59DA9552832DD4BE21D35874692949E0C8448EC9896A75C27978F48EBF
:2019C0003E6B995871DD27B94FB6BEE1AD17F088AC66C9203AB47DCE4A1863DF3182E51AD5
:2019E000336097517F45625377E0B164AE84BB6BA01CFE812B94F90868587048FD198F45D2
:201A00006C8794DEF8B7527BD323AB7302E2724B8F57E31FAB2A66552807B2EBC2032FB543
:201A20007B9A86C508A5D33787F23028A5B223BF6ABA0203825CED161C2B8ACFB492A77975
:201A4000F2F0F307E2A14E69F4CD65DABED50605621FD134FE8AC4A6539D342E55A0A2F37E
:201A6000E132058AEB75A4F6EC390B83EFAA40609F065E711051BD6E8AF93E21063D96DD46
:201A800005AEDD3EBD464DE68DB591545D0571C4D46F040615FF6050FB241998E997D6BD90
:201AA00043CC89409E7767D942BDB0E88B8807895B38E719EEDB79C80A47A17C0FE97C42FE
:201AC0001EC9F8840000000086830980ED48322B70AC1E11724E6C5AFFFBFD0E38560F8587
:201AE000D51E3DAE3927362DD9640A0FA621685C54D19B5B2E3A243667B10C0AE70F935779
:201B000096D2B4EE919E1B9BC54F80C020A261DC4B695A771A161C12BA0AE2932AE5C0A0F8
:201B2000E0433C22171D121B0D0B0E09C7ADF28BA8B92DB6A9C8141E198557F1074CAF755F
:201B4000DDBBEE9960FDA37F269FF701F5BC5C723BC544667E345BFB29768B43C6DCCB23FC
:201B6000FC68B6EDF163B8E4DCCAD7318510426322401397112084C6247D854A3DF8D2BBCD
:201B80003211AEF9A16DC7292F4B1D9E30F3DCB252EC0D86E3D077C1166C2BB3B999A970F0
:201BA00048FA1194642247E98CC4A8FC3F1AA0F02CD8567D90EF22334EC78749D1C1D93878
:201BC000A2FE8CCA0B3698D481CFA6F5DE28A57A8E26DAB7BFA43FAD9DE42C3A920D507870
:201BE000CC9B6A5F4662547E13C2F68DB8E890D8F75E2E39AFF582C380BE9F5D937C69D0B4
:201C00002DA96FD512B3CF25993BC8AC7DA71018636EE89CBB7BDB3B7809CD2618F46E5975
:201C2000B701EC9A9AA8834F6E65E695E67EAAFFCF0821BCE8E6EF159BD9BAE736CE4A6F9F
:201C400009D4EA9F7CD629B0B2AF31A423312A3F9430C6A566C035A2BC37744ECAA6FC8231
:201C6000D0B0E090D81533A7984AF104DAF741EC500E7FCDF62F1791D68D764DB04D43EF0C
:201C80004D54CCAA04DFE496B5E39ED1881B4C6A1FB8C12C517F4665EA049D5E355D018C29
:201CA0007473FA87412EFB0B1D5AB367D25292DB5633E91047136DD6618C9AD70C7A37A14A
:201CC000148E59F83C89EB1327EECEA9C935B761E5EDE11CB13C7A47DF599CD2733F55F290
:201CE000CE79181437BF73C7CDEA53F7AA5B5FFD6F14DF3DDB867844F381CAAFC43EB96813
:201D0000342C3824405FC2A3C372161D250CBCE2498B283C9541FF0D017139A8B3DE080CBA
:201D2000E49CD8B4C190645684617BCBB670D5325C74486C5742D0B85051F4A7537E4165DC
:201D4000C31A17A4963A275ECB3BAB6BF11F9D45ABACFA58934BE303552030FAF6AD766DF6
:201D60009188CC7625F5024CFC4FE5D7D7C52ACB802635448FB562A349DEB15A6725BA1B0D
:201D80009845EA0EE15DFEC002C32F7512814CF0A38D4697C66BD3F9E7038F5F9515929C80
:201DA000EBBF6D7ADA9552592DD4BE83D35874212949E069448EC9C86A75C28978F48E79BB
:201DC0006B99583EDD27B971B6BEE14F17F088AD66C920ACB47DCE3A1863DF4A82E51A31D1
:201DE000609751334562537FE0B1647784BB6BAE1CFE81A094F9082B58704868198F45FDCE
:201E00008794DE6CB7527BF823AB73D3E2724B0257E31F8F2A6655AB07B2EB28032FB5C23F
:201E20009A86C57BA5D33708F2302887B223BFA5BA02036A5CED16822B8ACF1C92A779B471
:201E4000F0F307F2A14E69E2CD65DAF4D50605BE1FD134628AC4A6FE9D342E53A0A2F3557A
:201E600032058AE175A4F6EB390B83ECAA4060EF065E719F51BD6E10F93E218A3D96DD0642
:201E8000AEDD3E05464DE6BDB591548D0571C45D6F0406D4FF605015241998FB97D6BDE98C
:201EA000CC8940437767D99EBDB0E8428807898B38E7195BDB79C8EE47A17C0AE97C420FFA
:201EC000C9F8841E000000008309808648322BEDAC1E11704E6C5A72FBFD0EFF560F853883
:201EE0001E3DAED527362D39640A0FD921685CA6D19B5B543A24362EB10C0A670F9357E775
:201F0000D2B4EE969E1B9B914F80C0C5A261DC20695A774B161C121A0AE293BAE5C0A02AF4
:201F2000433C22E01D121B170B0E090DADF28BC7B92DB6A8C8141EA98557F1194CAF75075B
:201F4000BBEE99DDFDA37F609FF70126BC5C72F5C544663B345BFB7E768B4329DCCB23C6F8
:201F600068B6EDFC63B8E4F1CAD731DC10426385401397222084C6117D854A24F8D2BB3DC9
:201F800011AEF9326DC729A14B1D9E2FF3DCB230EC0D8652D077C1E36C2BB31699A970B9EC
:201FA000FA1194482247E964C4A8FC8C1AA0F03FD8567D2CEF223390C787494EC1D938D174
:201FC000FE8CCAA23698D40BCFA6F58128A57ADE26DAB78EA43FADBFE42C3A9D0D5078926C
:201FE0009B6A5FCC62547E46C2F68D13E890D8B85E2E39F7F582C3AFBE9F5D807C69D093B0
:20200000A96FD52DB3CF25123BC8AC99A710187D6EE89C637BDB3BBB09CD2678F46E591871
:2020200001EC9AB7A8834F9A65E6956E7EAAFFE60821BCCFE6EF15E8D9BAE79BCE4A6F369B
:20204000D4EA9F09D629B07CAF31A4B2312A3F2330C6A594C035A26637744EBCA6FC82CA2D
:20206000B0E090D01533A7D84AF10498F741ECDA0E7FCD502F1791F68D764DD64D43EFB008
:2020800054CCAA4DDFE49604E39ED1B51B4C6A88B8C12C1F7F466551049D5EEA5D018C3525
:2020A00073FA87742EFB0B415AB3671D5292DBD233E91056136DD6478C9AD7617A37A10C46
:2020C0008E59F81489EB133CEECEA92735B761C9EDE11CE53C7A47B1599CD2DF3F55F2738C
:2020E000791814CEBF73C737EA53F7CD5B5FFDAA14DF3D6F867844DB81CAAFF33EB968C40F
:202100002C3824345FC2A34072161DC30CBCE2258B283C4941FF0D957139A801DE080CB3B6
:202120009CD8B4E4906456C1617BCB8470D532B674486C5C42D0B85751F4A7507E416553D8
:202140001A17A4C33A275E963BAB6BCB1F9D45F1ACFA58AB4BE303932030FA55AD766DF6F2
:2021600088CC7691F5024C254FE5D7FCC52ACBD726354480B562A38FDEB15A4925BA1B6709
:2021800045EA0E985DFEC0E1C32F7502814CF0128D4697A36BD3F9C6038F5FE715929C957C
:2021A000BF6D7AEB955259DAD4BE832D587421D349E069298EC9C84475C2896AF48E7978B7
:2021C00099583E6B27B971DDBEE14FB6F088AD17C920AC667DCE3AB463DF4A18E51A3182CD
:2021E0009751336062537F45B16477E0BB6BAE84FE81A01CF9082B94704868588F45FD19CA
:2022000094DE6C87527BF8B7AB73D323724B02E2E31F8F576655AB2AB2EB28072FB5C2033B
:2022200086C57B9AD33708A5302887F223BFA5B202036ABAED16825C8ACF1C2BA779B4926D
:20224000F307F2F04E69E2A165DAF4CD0605BED5D134621FC4A6FE8A342E539DA2F355A076
:20226000058AE132A4F6EB750B83EC394060EFAA5E719F06BD6E10513E218AF996DD063D3E
:20228000DD3E05AE4DE6BD4691548DB571C45D050406D46F605015FF1998FB24D6BDE99788
:2022A000894043CC67D99E77B0E842BD07898B88E7195B3879C8EEDBA17C0A477C420FE9F6
:2022C000F8841EC90000000009808683322BED481E1170AC6C5A724EFD0EFFFB0F8538567F
:2022E0003DAED51E362D39270A0FD964685CA6219B5B54D124362E3A0C0A67B19357E70F71
:20230000B4EE96D21B9B919E80C0C54F61DC20A25A774B691C121A16E293BA0AC0A02AE5F0
:202320003C22E043121B171D0E090D0BF28BC7AD2DB6A8B9141EA9C857F11985AF75074C57
:20234000EE99DDBBA37F60FDF701269F5C72F5BC44663BC55BFB7E348B432976CB23C6DCF4
:20236000B6EDFC68B8E4F163D731DCCA426385101397224084C61120854A247DD2BB3DF8C5
:20238000AEF93211C729A16D1D9E2F4BDCB230F30D8652EC77C1E3D02BB3166CA970B999E8
:2023A000119448FA47E96422A8FC8CC4A0F03F1A567D2CD8223390EF87494EC7D938D1C170
:2023C0008CCAA2FE98D40B36A6F581CFA57ADE28DAB78E263FADBFA42C3A9DE45078920D68
:2023E0006A5FCC9B547E4662F68D13C290D8B8E82E39F75E82C3AFF59F5D80BE69D0937CAC
:202400006FD52DA9CF2512B3C8AC993B10187DA7E89C636EDB3BBB7BCD2678096E5918F46D
:20242000EC9AB701834F9AA8E6956E65AAFFE67E21BCCF08EF15E8E6BAE79BD94A6F36CE97
:20244000EA9F09D429B07CD631A4B2AF2A3F2331C6A5943035A266C0744EBC37FC82CAA629
:20246000E090D0B033A7D815F104984A41ECDAF77FCD500E1791F62F764DD68D43EFB04D04
:20248000CCAA4D54E49604DF9ED1B5E34C6A881BC12C1FB84665517F9D5EEA04018C355D21
:2024A000FA877473FB0B412EB3671D5A92DBD252E91056336DD647139AD7618C37A10C7A42
:2024C00059F8148EEB133C89CEA927EEB761C935E11CE5ED7A47B13C9CD2DF5955F2733F88
:2024E0001814CE7973C737BF53F7CDEA5FFDAA5BDF3D6F147844DB86CAAFF381B968C43E0B
:202500003824342CC2A3405F161DC372BCE2250C283C498BFF0D954139A80171080CB3DEB2
:20252000D8B4E49C6456C1907BCB8461D532B670486C5C74D0B857426363A5C67C7C84F8E2
:20254000777799EE7B7B8DF6F2F20DFF6B6BBDD66F6FB1DEC5C55491303050600101030241
:202560006767A9CE2B2B7D56FEFE19E7D7D762B5ABABE64D76769AECCACA458F82829D1F09
:20258000C9C940897D7D87FAFAFA15EF5959EBB24747C98EF0F00BFBADADEC41D4D467B30A
:2025A000A2A2FD5FAFAFEA459C9CBF23A4A4F753727296E4C0C05B9BB7B7C275FDFD1CE1D2
:2025C0009393AE3D26266A4C36365A6C3F3F417EF7F702F5CCCC4F8334345C68A5A5F4516F
:2025E000E5E534D1F1F108F9717193E2D8D873AB3131536215153F2A04040C08C7C75295C9
:2026000023236546C3C35E9D181828309696A13705050F0A9A9AB52F0707090E12123624DE
:2026200080809B1BE2E23DDFEBEB26CD2727694EB2B2CD7F75759FEA09091B1283839E1D13
:202640002C2C74581A1A2E341B1B2D366E6EB2DC5A5AEEB4A0A0FB5B5252F6A43B3B4D765A
:20266000D6D661B7B3B3CE7D29297B52E3E33EDD2F2F715E848497135353F5A6D1D168B902
:2026800000000000EDED2CC120206040FCFC1FE3B1B1C8795B5BEDB66A6ABED4CBCB468DCE
:2026A000BEBED96739394B724A4ADE944C4CD4985858E8B0CFCF4A85D0D06BBBEFEF2AC5DD
:2026C000AAAAE54FFBFB16ED4343C5864D4DD79A33335566858594114545CF8AF9F910E9FF
:2026E000020206047F7F81FE5050F0A03C3C44789F9FBA25A8A8E34B5151F3A2A3A3FE5D78
:202700004040C0808F8F8A059292AD3F9D9DBC2138384870F5F504F1BCBCDF63B6B6C177C0
:20272000DADA75AF2121634210103020FFFF1AE5F3F30EFDD2D26DBFCDCD4C810C0C141801
:2027400013133526ECEC2FC35F5FE1BE9797A2354444CC881717392EC4C45793A7A7F25554
:202760007E7E82FC3D3D477A6464ACC85D5DE7BA19192B32737395E66060A0C0818198194A
:202780004F4FD19EDCDC7FA3222266442A2A7E549090AB3B8888830B4646CA8CEEEE29C7EC
:2027A000B8B8D36B14143C28DEDE79A75E5EE2BC0B0B1D16DBDB76ADE0E03BDB3232566493
:2027C0003A3A4E740A0A1E144949DB9206060A0C24246C485C5CE4B8C2C25D9FD3D36EBDBB
:2027E000ACACEF436262A6C49191A8399595A431E4E437D379798BF2E7E732D5C8C8438BAB
:202800003737596E6D6DB7DA8D8D8C01D5D564B14E4ED29CA9A9E0496C6CB4D85656FAAC77
:20282000F4F407F3EAEA25CF6565AFCA7A7A8EF4AEAEE94708081810BABAD56F787888F051
:2028400025256F4A2E2E725C1C1C2438A6A6F157B4B4C773C6C65197E8E823CBDDDD7CA178
:2028600074749CE81F1F213E4B4BDD96BDBDDC618B8B860D8A8A850F707090E03E3E427CB4
:20288000B5B5C4716666AACC4848D89003030506F6F601F70E0E121C6161A3C235355F6AC6
:2028A0005757F9AEB9B9D06986869117C1C158991D1D273A9E9EB927E1E138D9F8F813EB79
:2028C0009898B32B111133226969BBD2D9D970A98E8E89079494A7339B9BB62D1E1E223CE8
:2028E00087879215E9E920C9CECE49875555FFAA28287850DFDF7AA58C8C8F03A1A1F85977
:20290000898980090D0D171ABFBFDA65E6E631D74242C6846868B8D04141C3829999B02948
:202920002D2D775A0F0F111EB0B0CB7B5454FCA8BBBBD66D16163A2C63A5C6637C84F87C3D
:202940007799EE777B8DF67BF20DFFF26BBDD66B6FB1DE6FC55491C530506030010302013D
:2029600067A9CE672B7D562BFE19E7FED762B5D7ABE64DAB769AEC76CA458FCA829D1F8205
:20298000C94089C97D87FA7DFA15EFFA59EBB25947C98E47F00BFBF0ADEC41ADD467B3D406
:2029A000A2FD5FA2AFEA45AF9CBF239CA4F753A47296E472C05B9BC0B7C275B7FD1CE1FDCE
:2029C00093AE3D93266A4C26365A6C363F417E3FF702F5F7CC4F83CC345C6834A5F451A56B
:2029E000E534D1E5F108F9F17193E271D873ABD831536231153F2A15040C0804C75295C7C5
:202A000023654623C35E9DC31828301896A13796050F0A059AB52F9A07090E0712362412DA
:202A2000809B1B80E23DDFE2EB26CDEB27694E27B2CD7FB2759FEA75091B1209839E1D830F
:202A40002C74582C1A2E341A1B2D361B6EB2DC6E5AEEB45AA0FB5BA052F6A4523B4D763B56
:202A6000D661B7D6B3CE7DB3297B5229E33EDDE32F715E2F8497138453F5A653D168B9D1FE
:202A800000000000ED2CC1ED20604020FC1FE3FCB1C879B15BEDB65B6ABED46ACB468DCBCA
:202AA000BED967BE394B72394ADE944A4CD4984C58E8B058CF4A85CFD06BBBD0EF2AC5EFD9
:202AC000AAE54FAAFB16EDFB43C586434DD79A4D335566338594118545CF8A45F910E9F9FB
:202AE000020604027F81FE7F50F0A0503C44783C9FBA259FA8E34BA851F3A251A3FE5DA374
:202B000040C080408F8A058F92AD3F929DBC219D38487038F504F1F5BCDF63BCB6C177B6BC
:202B2000DA75AFDA2163422110302010FF1AE5FFF30EFDF3D26DBFD2CD4C81CD0C14180CFD
:202B400013352613EC2FC3EC5FE1BE5F97A2359744CC884417392E17C45793C4A7F255A750
:202B60007E82FC7E3D477A3D64ACC8645DE7BA5D192B32197395E67360A0C0608198198146
:202B80004FD19E4FDC7FA3DC226644222A7E542A90AB3B9088830B8846CA8C46EE29C7EEE8
:202BA000B8D36BB8143C2814DE79A7DE5EE2BC5E0B1D160BDB76ADDBE03BDBE0325664328F
:202BC0003A4E743A0A1E140A49DB9249060A0C06246C48245CE4B85CC25D9FC2D36EBDD3B7
:202BE000ACEF43AC62A6C46291A8399195A43195E437D3E4798BF279E732D5E7C8438BC8A7
:202C000037596E376DB7DA6D8D8C018DD564B1D54ED29C4EA9E049A96CB4D86C56FAAC5673
:202C2000F407F3F4EA25CFEA65AFCA657A8EF47AAEE947AE08181008BAD56FBA7888F0784D
:202C4000256F4A252E725C2E1C24381CA6F157A6B4C773B4C65197C6E823CBE8DD7CA1DD74
:202C6000749CE8741F213E1F4BDD964BBDDC61BD8B860D8B8A850F8A7090E0703E427C3EB0
:202C8000B5C471B566AACC6648D8904803050603F601F7F60E121C0E61A3C261355F6A35C2
:202CA00057F9AE57B9D069B986911786C15899C11D273A1D9EB9279EE138D9E1F813EBF875
:202CC00098B32B981133221169BBD269D970A9D98E89078E94A733949BB62D9B1E223C1EE4
:202CE00087921587E920C9E9CE4987CE55FFAA5528785028DF7AA5DF8C8F038CA1F859A173
:202D0000898009890D171A0DBFDA65BFE631D7E642C6844268B8D06841C3824199B0299944
:202D20002D775A2D0F111E0FB0CB7BB054FCA854BBD66DBB163A2C16A5C6636384F87C7C39
:202D400099EE77778DF67B7B0DFFF2F2BDD66B6BB1DE6F6F5491C5C5506030300302010139
:202D6000A9CE67677D562B2B19E7FEFE62B5D7D7E64DABAB9AEC7676458FCACA9D1F828201
:202D80004089C9C987FA7D7D15EFFAFAEBB25959C98E47470BFBF0F0EC41ADAD67B3D4D402
:202DA000FD5FA2A2EA45AFAFBF239C9CF753A4A496E472725B9BC0C0C275B7B71CE1FDFDCA
:202DC000AE3D93936A4C26265A6C3636417E3F3F02F5F7F74F83CCCC5C683434F451A5A567
:202DE00034D1E5E508F9F1F193E2717173ABD8D8536231313F2A15150C0804045295C7C7C1
:202E0000654623235E9DC3C328301818A13796960F0A0505B52F9A9A090E070736241212D6
:202E20009B1B80803DDFE2E226CDEBEB694E2727CD7FB2B29FEA75751B1209099E1D83830B
:202E400074582C2C2E341A1A2D361B1BB2DC6E6EEEB45A5AFB5BA0A0F6A452524D763B3B52
:202E600061B7D6D6CE7DB3B37B5229293EDDE3E3715E2F2F97138484F5A6535368B9D1D1FA
:202E8000000000002CC1EDED604020201FE3FCFCC879B1B1EDB65B5BBED46A6A468DCBCBC6
:202EA000D967BEBE4B723939DE944A4AD4984C4CE8B058584A85CFCF6BBBD0D02AC5EFEFD5
:202EC000E54FAAAA16EDFBFBC5864343D79A4D4D5566333394118585CF8A454510E9F9F9F7
:202EE0000604020281FE7F7FF0A0505044783C3CBA259F9FE34BA8A8F3A25151FE5DA3A370
:202F0000C08040408A058F8FAD3F9292BC219D9D4870383804F1F5F5DF63BCBCC177B6B6B8
:202F200075AFDADA63422121302010101AE5FFFF0EFDF3F36DBFD2D24C81CDCD14180C0CF9
:202F4000352613132FC3ECECE1BE5F5FA2359797CC884444392E17175793C4C4F255A7A74C
:202F600082FC7E7E477A3D3DACC86464E7BA5D5D2B32191995E67373A0C060609819818142
:202F8000D19E4F4F7FA3DCDC664422227E542A2AAB3B9090830B8888CA8C464629C7EEEEE4
:202FA000D36BB8B83C28141479A7DEDEE2BC5E5E1D160B0B76ADDBDB3BDBE0E0566432328B
:202FC0004E743A3A1E140A0ADB9249490A0C06066C482424E4B85C5C5D9FC2C26EBDD3D3B3
:202FE000EF43ACACA6C46262A8399191A431959537D3E4E48BF2797932D5E7E7438BC8C8A3
:20300000596E3737B7DA6D6D8C018D8D64B1D5D5D29C4E4EE049A9A9B4D86C6CFAAC56566F
:2030200007F3F4F425CFEAEAAFCA65658EF47A7AE947AEAE18100808D56FBABA88F0787849
:203040006F4A2525725C2E2E24381C1CF157A6A6C773B4B45197C6C623CBE8E87CA1DDDD70
:203060009CE87474213E1F1FDD964B4BDC61BDBD860D8B8B850F8A8A90E07070427C3E3EAC
:20308000C471B5B5AACC6666D89048480506030301F7F6F6121C0E0EA3C261615F6A3535BE
:2030A000F9AE5757D069B9B9911786865899C1C1273A1D1DB9279E9E38D9E1E113EBF8F871
:2030C000B32B989833221111BBD2696970A9D9D989078E8EA7339494B62D9B9B223C1E1EE0
:2030E0009215878720C9E9E94987CECEFFAA5555785028287AA5DFDF8F038C8CF859A1A16F
:2031000080098989171A0D0DDA65BFBF31D7E6E6C6844242B8D06868C3824141B029999940
:20312000775A2D2D111E0F0FCB7BB0B0FCA85454D66DBBBB3A2C1616C66363A5F87C7C8435
:20314000EE777799F67B7B8DFFF2F20DD66B6BBDDE6F6FB191C5C554603030500201010335
:20316000CE6767A9562B2B7DE7FEFE19B5D7D7624DABABE6EC76769A8FCACA451F82829DFD
:2031800089C9C940FA7D7D87EFFAFA15B25959EB8E4747C9FBF0F00B41ADADECB3D4D467FE
:2031A0005FA2A2FD45AFAFEA239C9CBF53A4A4F7E47272969BC0C05B75B7B7C2E1FDFD1CC6
:2031C0003D9393AE4C26266A6C36365A7E3F3F41F5F7F70283CCCC4F6834345C51A5A5F463
:2031E000D1E5E534F9F1F108E2717193ABD8D873623131532A15153F0804040C95C7C752BD
:20320000462323659DC3C35E30181828379696A10A05050F2F9A9AB50E07070924121236D2
:203220001B80809BDFE2E23DCDEBEB264E2727697FB2B2CDEA75759F1209091B1D83839E07
:20324000582C2C74341A1A2E361B1B2DDC6E6EB2B45A5AEE5BA0A0FBA45252F6763B3B4D4E
:20326000B7D6D6617DB3B3CE5229297BDDE3E33E5E2F2F7113848497A65353F5B9D1D168F6
:2032800000000000C1EDED2C40202060E3FCFC1F79B1B1C8B65B5BEDD46A6ABE8DCBCB46C2
:2032A00067BEBED97239394B944A4ADE984C4CD4B05858E885CFCF4ABBD0D06BC5EFEF2AD1
:2032C0004FAAAAE5EDFBFB16864343C59A4D4DD766333355118585948A4545CFE9F9F910F3
:2032E00004020206FE7F7F81A05050F0783C3C44259F9FBA4BA8A8E3A25151F35DA3A3FE6C
:20330000804040C0058F8F8A3F9292AD219D9DBC70383848F1F5F50463BCBCDF77B6B6C1B4
:20332000AFDADA754221216320101030E5FFFF1AFDF3F30EBFD2D26D81CDCD4C180C0C14F5
:2033400026131335C3ECEC2FBE5F5FE1359797A2884444CC2E17173993C4C45755A7A7F248
:20336000FC7E7E827A3D3D47C86464ACBA5D5DE73219192BE6737395C06060A0198181983E
:203380009E4F4FD1A3DCDC7F44222266542A2A7E3B9090AB0B8888838C4646CAC7EEEE29E0
:2033A0006BB8B8D32814143CA7DEDE79BC5E5EE2160B0B1DADDBDB76DBE0E03B6432325687
:2033C000743A3A4E140A0A1E924949DB0C06060A4824246CB85C5CE49FC2C25DBDD3D36EAF
:2033E00043ACACEFC46262A6399191A8319595A4D3E4E437F279798BD5E7E7328BC8C8439F
:203400006E373759DA6D6DB7018D8D8CB1D5D5649C4E4ED249A9A9E0D86C6CB4AC5656FA6B
:20342000F3F4F407CFEAEA25CA6565AFF47A7A8E47AEAEE9100808186FBABAD5F078788845
:203440004A25256F5C2E2E72381C1C2457A6A6F173B4B4C797C6C651CBE8E823A1DDDD7C6C
:20346000E874749C3E1F1F21964B4BDD61BDBDDC0D8B8B860F8A8A85E07070907C3E3E42A8
:2034800071B5B5C4CC6666AA904848D806030305F7F6F6011C0E0E12C26161A36A35355FBA
:2034A000AE5757F969B9B9D01786869199C1C1583A1D1D27279E9EB9D9E1E138EBF8F8136D
:2034C0002B9898B322111133D26969BBA9D9D970078E8E89339494A72D9B9BB63C1E1E22DC
:2034E00015878792C9E9E92087CECE49AA5555FF50282878A5DFDF7A038C8C8F59A1A1F86B
:20350000098989801A0D0D1765BFBFDAD7E6E631844242C6D06868B8824141C3299999B03C
:203520005A2D2D771E0F0F117BB0B0CBA85454FC6DBBBBD62C16163A52096AD53036A538F9
:20354000BF40A39E81F3D7FB7CE339829B2FFF87348E4344C4DEE9CB547B9432A6C2233D7F
:20356000EE4C950B42FAC34E082EA16628D924B2765BA2496D8BD12572F8F6648668981606
:20358000D4A45CCC5D65B6926C704850FDEDB9DA5E154657A78D9D8490D8AB008CBCD30AF3
:2035A000F7E45805B8B34506D02C1E8FCA3F0F02C1AFBD0301138A6B3A9111414F67DCEA88
:2035C00097F2CFCEF0B4E67396AC7422E7AD3585E2F937E81C75DF6E47F11A711D29C58973
:2035E0006FB7620EAA18BE1BFC563E4BC6D279209ADBC0FE78CD5AF41FDDA8338807C7316A
:20360000B11210592780EC5F60517FA919B54A0D2DE57A9F93C99CEFA0E03B4DAE2AF5B0F7
:20362000C8EBBB3C83539961172B047EBA77D626E169146355210C7D6DC700006FC70000F5
:2036400029C8000045C90000E1C8000099C80000B3C80000BFC800000200000070360000B7
:203660000000000000020000001000000010000000011000000000020008000000B545F221
:20368000D030C0F201000AF0ABFC00200AF0BFFC0AF092FC0028FBD10AF080FC00F01CF80B
:2036A000002010F0F4FC40F20B4000210DF00BF901214FF482600DF006F949F64041002038
:2036C0000FF0BFFC00200FF05DFC00F0B4FA00F02FFB02F0C4F8FAE700B545F62010C0F29F
:2036E000010010F09EFC45F62C10C0F2010011F04DF9002011F0F8FC00200DF04FF945F609
:20370000A400C0F201000FF0E3FB45F67400C0F201000EF0EFFC00BD14490C684FF0010359
:203720001C401349134A521A521E06DD4FF05A304FF05A3309C1083AFCDA0F490F4A521A21
:20374000521E06DD4FF05A304FF05A3309C1083AFCDA0B490B4A521A521E06DD4FF05A306E
:203760004FF05A3309C1083AFCDA704700F007400080FF1F0084FF1F007400200078002041
:203780000084FF1F007400204FF20002C4F207021168C9074CBF0120002070472DE9F0445B
:2037A000FFF7F2FF022500232CE040F20042C0F2000202EB0311CA68022A01D1012820D159
:2037C000FAB191E850042746AAEB060202F00304111B8A08002104E056F80CA0013147F840
:2037E0000CA04FEA810C9142F6D3664407EB0C02002104E016F801C002F801C00131A1426D
:20380000F8D30133AB42D0D30125002348F20040C1F6FF701DE04BF6A871C1F6FF710A1A8E
:2038200002F00304111B8A08002104E04FF0000C40F806C001318E009142F7D3821900216A
:2038400004E04FF0000C02F801C00131A142F8D30133AB42DFD3BDE8F084704772B60021B2
:20386000002200230024002500260027B846B946BA46BB46BC46FFF74FFF074885460748C0
:20388000804707488047074880470748804762B6FFF7F4FEFEE700BF007800209D3700000F
:2038A000AD380000A33A00005B38000010B511F0EAFB40F20001C0F2000140F23C30C0F2D2
:2038C0000000401A8408002004E051F820C043F820C0013048F20003C1F6FF73A042F4D37A
:2038E0004EF60850CEF20000036010BDFEE7FFF7FDBFFFF7FBBFFFF7F9BFFFF7F7BFFFF7A5
:20390000F5BFFFF7F3BFFFF7F1BFFFF7EFBFFFF7EDBFFFF7EBBFFFF7E9BFFFF7E7BFFFF78F
:20392000E5BFFFF7E3BFFFF7E1BFFFF7DFBFFFF7DDBFFFF7DBBFFFF7D9BFFFF7D7BFFFF7EF
:20394000D5BFFFF7D3BFFFF7D1BFFFF7CFBFFFF7CDBFFFF7CBBFFFF7C9BFFFF7C7BFFFF74F
:20396000C5BFFFF7C3BFFFF7C1BFFFF7BFBFFFF7BDBFFFF7BBBFFFF7B9BFFFF7B7BFFFF7AF
:20398000B5BFFFF7B3BFFFF7B1BFFFF7AFBFFFF7ADBFFFF7ABBFFFF7A9BFFFF7A7BFFFF70F
:2039A000A5BFFFF7A3BFFFF7A1BFFFF79FBFFFF79DBFFFF79BBFFFF799BFFFF797BFFFF76F
:2039C00095BFFFF793BFFFF791BFFFF78FBFFFF78DBFFFF78BBFFFF789BFFFF787BFFFF7CF
:2039E00085BFFFF783BFFFF781BFFFF77FBFFFF77DBFFFF77BBFFFF779BFFFF777BFFFF72F
:203A000075BFFFF773BFFFF771BFFFF76FBFFFF76DBFFFF76BBFFFF769BFFFF767BFFFF78E
:203A200065BFFFF763BFFFF761BFFFF75FBFFFF75DBFFFF75BBFFFF759BFFFF757BFFFF7EE
:203A400055BFFFF753BFFFF751BFFFF74FBFFFF74DBFFFF74BBFFFF749BFFFF747BFFFF74E
:203A600045BFFFF743BFFFF741BFFFF73FBFFFF73DBFFFF73BBFFFF739BFFFF737BFFFF7AE
:203A800035BFFFF733BFFFF731BFFFF72FBFFFF72DBFFFF72BBFFFF729BFFFF727BFFFF70E
:203AA00025BF4EF68851CEF20001086840F47000086040F20001C4F20101086840F080209D
:203AC00008604BF2316001F5B42108604CF27820086051F8040F20F00100086046F6AC1072
:203AE000C0F2010011F08DBB7047FFF7FDBF704770470020704700207047002070477047B7
:203B00007047002070470020704700207047002070470020704700207047002070470020ED
:203B20007047002070470020704700207047E0B50D461646002109E048F20443C1F6FF7351
:203B40004FF0000C01F1807103F802C04CF2A832C1F6FF7213680A0E9A42EDD34CF2AC37EA
:203B6000C1F6FF7739460DF0D7FA32462846396A00F077FA0020E0BD704748F2244CC1F60C
:203B8000FF7CACF80400BCF806008CF800208CF801108CF802300130ACF8060000207047A7
:203BA00048F2244CC1F6FF7CACF80400BCF806008CF800208CF801108CF802300130ACF803
:203BC00006000020704748F2244CC1F6FF7CACF80400BCF806008CF800208CF801108CF80D
:203BE00002300130ACF806000020704770470020704770470020704770477047704710B4DC
:203C000048F22C44C1F6FF7422687F2A02D3012222710022530048F2344CC1F6FF7C23F896
:203C20000C0048F23450C1F6FF708154501C2060002010BC704700B504F0FBFB01F037FC6D
:203C400000F01DFB00F0A1F804F0F4FB00BDF0B501F0C2FE07464AF23876C1F6FF763068E2
:203C600042F23411C7F64301884225D1002425460DE0062809D1481B17F8100018B101201A
:203C800002F00BFC08B9062417E00135EDB2B079854212D2A900481B06EBC000007B03283D
:203CA000E7D1481B17F8100020B1204602F0F5FB0028EAD1032400E001242046F0BD00B5DA
:203CC00001F08AFE90F83C00012802D1FFF7BFFF00BD012000BD0AF0CAB900B501F0A5FE96
:203CE000012809D100F029FC00F0ECFA02F073FE00F0E0FA0028FBD104F0FEFB48F2B85185
:203D0000C1F6FF710868012802D100F025FC03E0042808BF00F03FFC02F02EFE012818BFE0
:203D200000BD02F058FE00F0CDFA00F0F6F800BDFFF7D3BF04F025BC704730B50AF046F9FA
:203D400041F20005C4F20605062804D00024204685E8110015E040F2D050C0F200002946F8
:203D6000082200F095F908B101240AE040F2D850C0F200002946082200F08AF9040018BFE0
:203D80000224204630BD0120704730B548F2B454C1F6FF7400F039F8FFF7CFFF051E1BD08E
:203DA000022000F08DFA41F20000C4F206000822002100F063F900202060012D05D148F206
:203DC000B850C1F6FF7005601BE0042048F2B851C1F6FF71086014E0FFF7D5FF01280CD19B
:203DE000FFF76DFF054604F05BFB284302D10520206030BD0020206003E02068002818BFF2
:203E000030BDBDE8304004F0C3BAF0B501F0E4FD054601F0E6FD044601F0E8FD064601F03C
:203E2000EAFD074640F6B401C0F200014AF23870C1F6FF704FF4807200F013F94FF20041F3
:203E4000C0F207012846502200F00BF905F14C022846502100F094F810B9284600F0B5F861
:203E60004FF60041C0F2070120460C2200F0F9F804F1080220460C2100F082F810B9204662
:203E800000F0CAF830464FF4A2724FF4FF2100F0E8F806F5A07230464FF4A27100F070F83F
:203EA00010B9304600F0C2F8384618224FF4FD2100F0D7F8284600F00DF8204600F016F87A
:203EC000BDE8F04000F000B849F67400C1F6FF7004F03ABC10B501780446002002F0D7FA37
:203EE0000120A179BDE8104002F0D1BA006842F21071022838BF0021002000F0C0BA00B577
:203F000001F079FD007B49F69C01C1F6FF71022814BF5520AA20087000BD10B548F2B45444
:203F2000C1F6FF7400F060FA2068002808BF10BD0138206018BF10BD40F6B402C0F20002CC
:203F4000906842F20802C0F205021168884218BF10BDBDE8104000F000B810B5044604F0EB
:203F60008EFA2046BDE8104000F000B804F0C2BA002048F2B451C1F6FF71086004F008BAA2
:203F800030B584B01546002400948DF804400290081F80B20390684603F051FF01208DF817
:203FA0000400684603F04BFF02208DF80400684603F045FF2968009A8A4218BF204602D17B
:203FC000481C18BF012004B030BD30B5C16C0546B1F1FF3F0CBF01240024002C0CBFFF217C
:203FE0000021502200F04AF800210BE0C1EB810205F8124003EBC200037B15EB42000131D0
:20400000C9B2C3704AF23873C1F6FF7398798142ECD385F83C4030BD00B50C22002100F075
:204020002DF80021084600F02AFA00BD10B504464FF4A272002100F021F840F6D831C0F29A
:20404000000104F59470102200F00BF84CF23441C1F6FF7120464FF49272BDE8104000F0D1
:2040600000B808E0002814BF0029704711F8013B013A00F8013B002AF4D1704705E000285E
:2040800008BF704700F8011B013A002AF7D170470346012012B120B40EE020BC0020704708
:2040A000002B18BF0029F8D093F800C00D78AC45F3D101330131013A002AF1D120BC704768
:2040C0000188C3788078C3EA0162090A02EB014101EB00207047020E0A70C870020C4A7085
:2040E000020A8A707047020E0A70C870020C4A70020A8A7070470022134601E008320133F2
:20410000A1F1010C634504D210F803C0BCF1000FF4D0802101E00132490810F803C011EA6B
:204120000C0F01D10029F6D11046704730B400231C4606E00D5D10F804C085EA0C052B4322
:2041400001349442F6D3184630BC704710B403460020044605E011F804C0185D0134A0EB2C
:204160000C00944201D20028F5D010BC7047F0B403460020044613E00D5D1E5D00280CBFF8
:2041800001270027AE428CBF4FF0010C4FF0000CB5428CBFACF101056546013417FB050022
:2041A0009442E9D3F0BC704799B10346002007E013F800C0BCF1000F01D00120704701300F
:2041C000A1F1010C6045F3D3C81810F8010C801A70471046704710B4C1B103460024204679
:2041E00004E013F800C0013044EA0C04A1F1010C6045F6D360420443E4B2E409C81810F840
:20420000010C101A61420843404200E0104610BC7047002301E0D05401338B42FBD3704790
:20422000002304E010F803C002F803C001338B42F8D3704710B4002306E0CC5C10F803C0AC
:2042400084EA0C04CC5401339342F6D310BC704710B4002305E0D41A044414F8014CCC54F0
:2042600001339342F7D310BC70470022134603E001338B42FCD301328242FAD3704710B57A
:2042800048F2BC54C1F6FF74022000F0A7F8002000F0C7F800F0B4FA04F5E670A06004F148
:2042A0003C00E06100F075F800F090F8BDE8104000F0C9BA48F2BC51C1F6FF71486970476E
:2042C00000F08CB800B500F0B0FA00F0E3F900BD10B448F2BC54C1F6FF74D4F800C00346C5
:2042E0000020BCF1000F11D1CC2B18BFFF2B0DD1B1F5006F08D84FF0010C44F808CB04F8DE
:20430000043C2181146002E0032000E0012010BC704710B548F2BC54C1F6FF742268012AD0
:2043200018BF10BD31B92179884203D1BDE8104000F063B900F04AF8BDE8104000F029B8BE
:2043400010B548F2BC54C1F6FF74636902460020022B04BF237E9A4205D104F11C020A6030
:204360000121616110BD00F031F800F012F8012010BD00290BD148F2BC51C1F6FF710A7E90
:20438000904201BF91F82D0000284861704700F000B810B548F2BC54C1F6FF740020A0624A
:2043A000606184F82C00012084F82D0000F0D4F900F0B6F994F8CC09012803D1BDE810401B
:2043C00000F08EB9BDE8104000F0A9B8002048F2BC51C1F6FF71086000F002B948F6887188
:2043E000C1F6FF710870704748F68871C1F6FF71087870472DE91001002213460BE010F83D
:2044000003C048F68878C1F6FF7898F80040644508BF01225B1C8B42F1D31046BDE81001F6
:20442000704748F68871C1F6FF710871704748F68871C1F6FF710879704748F69072C1F6AA
:20444000FF7252F82010002914BF0020012070472DE91001002213460BE010F803C048F6E7
:204460008878C1F6FF7898F80440644508BF01225B1C8B42F1D31046BDE81001704748F69E
:204480009072C1F6FF7242F82010704748F68871C1F6FF714880704700B5012048F2BC51D7
:2044A000C1F6FF7181F82D0000F086F9FFF78EFF00BD10B548F2BC54C1F6FF74E16978285D
:2044C0001CBF012284F82D207F220A70A268127888704A700320A08400F06EF994F82D005D
:2044E000012818BF10BDBDE81040FFF76FBF10B5041E12D1CC2908D0FF290AD1112A1FBF23
:20450000122A312A7E2A7F2A03D01046FFF7D1FF03E0FFF75BFFFFF73CFF204610BD10B469
:2045200048F2BC54C1F6FF7494F8CC0901281CBF41F28830E08510BC7047012000F006B800
:2045400048F2BC51C1F6FF718863704748F2BC51C1F6FF710886704700B548F2B853C1F6E7
:20456000FF73186A50210170186A02214170196A00208870196A3222CA70196A01220A7142
:20458000196AF4224A71186006211985FFF784FFFFF7C5FF00BD002048F2B851C1F6FF7110
:2045A0000860FFF7BCBF48F2BC50C1F6FF70704748F2BC51C1F6FF710868704748F2D0510F
:2045C000C1F6FF710A68100006BF01220A6001207047002048F2BC51C1F6FF71486170471A
:2045E000002048F28871C1F6FF714FF0FF320A54401CB0F5006FF4D3704710B548F2BC5476
:20460000C1F6FF74022020603220FFF79FFF00F08FF800F065F8012084F82C00002084F8BF
:204620002D0010BD30B540F29460C0F20000002148F2BC54C1F6FF74A2680378127893424A
:204640000DD12179CC2903D14178C90705D40AE0FF2908D14178890705D5A06205E018307A
:20466000491C0A29E4D3A06A68B105695DB181784068FFF7BFFE08B97F2205E004F11401A7
:204680002046A84730BD112200202179BDE83040FFF72DBF10B581B048F2BC54C1F6FF748A
:2046A0006069D8B994F82C00012805D1002084F82C00FFF7B7FF11E094F82D0070B90DF1A4
:2046C000030001F0B7F8012808D1A06A43692BB104F1140221469DF80300984701B010BD3C
:2046E000002048F2BC51C1F6FF71C885704748F2EA51C1F6FF710888401E38BF7047088068
:20470000000418BF704710B5FFF7D9FA044603F0C7FE204308BFFFF7DEFABDE810407047D3
:204720006FF0FE0048F2BC51C1F6FF714863704748F2BC51C1F6FF710020486341F2883028
:204740008863704748F2F050C1F6FF7001680029A4BF491C01607047002048F2BC51C1F687
:20476000FF710886704710B548F2BC54C1F6FF74208E0021401E38BF10BD2086000402BFEF
:20478000606900280121606B00280EDBA26B90420BD2012918BF10BD7820FFF78AFE41F257
:2047A0008830BDE81040FFF7D1BE1020FFF781FEBDE81040FFF7B4BF48F2BC52C1F6FF7254
:2047C000022002F11C015061AA20107602F0A8BB00B501F006F948F69072C1F6FF721168CB
:2047E000002908BF00BD491E116018BF00BD0168022938BF00BD0021016001F086F800BDAA
:20480000002048F68871C1F6FF714880704748F68A71C1F6FF710888401E38BF7047088017
:20482000000418BF7047FFF756BA00B572B6FFF7CFFFFFF75CFFFFF796FFFFF783FFFFF7F5
:20484000E6FF62B600BD48F6A870C1F6FF70012148F69472C1F6FF7241710021017140F817
:20486000101B00F80A1C40F8041C11700A4680E8060040F8081C017270472DE9F04C064634
:20488000806840780C464FF0010B4FF0000A55465746010648BFD34600F07F02504640F2FA
:2048A0001863C0F200030101C95C8A4205D103EB001715464FF0010A02E001300228EED357
:2048C0000220318A00F0BFFC012818BFBDE8F08C504612223179FFF70AFE012818BFBDE818
:2048E000F08C79787868FFF785FD7E223179FFF7FEFD012818BFBDE8F08C0220318A00F0CA
:2049000098FC012818BFBDE8F08C397AF86800F0A4FC012818BFBDE8F08C002048F69471BB
:20492000C1F6FF710870FFF77CFDFFF75DFD07462846FFF753FD01F063F8BBF1010F2CD113
:20494000A06850210170B168A0684978022D417010D1A06800268670A0683221C17000F02A
:20496000CFFD48F6A870C1F6FF7086600671C660867107E0012D05D1A06800218170A06868
:204980003221C170A06880F804B0A068F421417106202082FFF780FD03E0FFF717FDFFF772
:2049A000F8FC022F08BF012D04D13220BDE8F04CFFF76CBD022D18BFBDE8F08CBDE8F04CAE
:2049C000FFF7D6BA2DE9F04C0646806840780F4600254FF0010B2C46010648BFAB4600F0ED
:2049E0007F0A40F23860C0F2000001788A450DD10446012541784068FFF7FCFC7E22317983
:204A0000FFF775FD012818BFBDE8F08C0220318A00F019FC012818BFBDE8F08C2846122268
:204A20003179FFF764FD012818BFBDE8F08C00F02DFC012818BFBDE8F08C0220318A00F04D
:204A4000F8FB012818BFBDE8F08C217AE06800F004FC012818BFBDE8F08CBBF1010F0AD1B7
:204A6000B86851210170B86880F801A002203882FFF712FD03E0FFF7A9FCFFF78AFC2320DC
:204A8000BDE8F04CFFF702BD2DE9F04C90B00E46018A824600242746032000F0D4FB0128AB
:204AA00004BFBAF8101011F0010F05D1132220469AF80410FFF71BFDBAF8101001394A08CD
:204AC00093B20F2A06D311F0010F03D11320FFF7F0FC77E0012875D1204622461EE0DAF821
:204AE00008C00CEB420191F802C0497825460CEB012140F2847BC0F2000BC5EB850C4FEABC
:204B00008C0C3BF80CE071451CD101A9B80BDC4407F5803741F800C0012001329A42DED321
:204B20003F0C01284ED12546BD4217D201A951F825008178406800F090FB0135ADB201289D
:204B4000F2D03FE001350F2DD3D30128E5D0312220469AF80410FFF7CAFCE1E700F096FB1A
:204B6000012808BF254624D02CE001A951F82500816899B1B16802882144120A4A70B16898
:204B8000028821448A708268B068204403300DF102019047BDF802100C4498B90234A4B2C7
:204BA000B4F5C87F03D31420FFF783FC0AE00135ADB2BD42D9D3B06862210170601C308222
:204BC000FFF76AFC10B0BDE8F08C70B505468068417880780026344600EB0122314640F238
:204BE0004863C0F200030801C05A824203D103EB0114012602E001310229F0D30420298A97
:204C000000F021FB012818BF70BD304631222979FFF76DFC012818BF70BD298A6088033096
:204C200080B200F006FB012818BF70BD2179A06800F013FB012818BF70BD00F027FB01281C
:204C400018BF70BDE26852B16188A868033090470B2808BF222003D0002808BF70BD722043
:204C6000BDE87040FFF725BC2DE9F0440546806846788A4640F27860C0F2000001780027A1
:204C80003C468E4219BF81788E42044601270220298A00F0D8FA012818BFBDE8F084384681
:204CA00012222979FFF723FC012818BFBDE8F084207900F0EDFA07462078864218D10220C8
:204CC000298A00F0B6FA012818BFBDE8F0843846FFF7B3FB002804D13720BDE8F044FFF723
:204CE000E8BB524629462046BDE8F04400F0DBBAA078864218BFBDE8F084E078298A023039
:204D000000F097FA012818BFBDE8F084524629462046BDE8F04400F0FEBAF0B50E46816829
:204D200004468878C97800273D4601EB0022384640F63803C0F2000300EBC001890033F82C
:204D400001C0624502D1CD18012702E001300328EED30420218A00F076FA012829D138463C
:204D600031222179FFF7C3FB012822D12979A868FFF740FB31222179FFF7B9FB012818D1EA
:204D8000297B286900F069FA012812D1A068297D4278A86900F06BFA18B912222179FFF71C
:204DA000A6FB012805D1218A6888043080B200F040FAA1688A78FF2A03D1C978002904D1E1
:204DC00006E0022A04BFC97806291CBF0128F0BDB06871210170A168B06849784170A16826
:204DE000B06889788170A168B068C978C170EA6931462046BDE8F04010472DE9F04F82B033
:204E00008946018A0446052000F01DFA48F6A87BC1F6FF7B002501288BF824506AD1A068A8
:204E2000B0F801804FEA182640F2686AC0F2000A1AF835005FFA88F1814204D10AEBC500A7
:204E40004078864209D00135022DEDD3312200202179FFF74CFB01284CD10B20218A00F07E
:204E6000E8F9012846D1A0680330FFF729F9FEF763FF0746A0680730FFF722F90146384605
:204E800000F0EFFB052808BF312017D007460AEBC5008178406800F0E0F901282AD1022F46
:204EA00006D0DBF8080018B99BF80600012801D1222003E0082F06D14FF0700002B0BDE8A3
:204EC000F04FFFF7F6BA5FFA88F040B9442E11D14946204602B0BDE8F04F00F07EBA1028E4
:204EE00008BF442E06D14946204602B0BDE8F04F00F0A1BA02B0BDE8F08F2DE9F04C8B46D3
:204F0000018A824648F6A874C1F6FF740320257900F099F9012818BFBDE8F08CDAF808007C
:204F20004778BAF81000861E00F072FDA179012901D1012F34D1BD4217D1002818BF032891
:204F400013D0E068B04210D1DBF8080076210170DAF80810DBF80800497841700220ABF874
:204F60001000BDE8F04CFFF797BA3146206800F033FC022808BF242003D0052805D14FF091
:204F80007100BDE8F04CFFF794BA17B9A079012806D0FF2D0EBF00250135EDB2BD4204D0CD
:204FA0007320BDE8F04CFFF784BABAF81000861E00F028F9A06801280BD1DAF80800314674
:204FC000023000F0A0FB94F8240010B9206830442060E6600020A0712571BDE8F08C10B52C
:204FE000044600F015FD02281AD10120218A00F020F9012818BF10BD00F005FC01000FD1DC
:2050000048F6A872C1F6FF729060107103F006FD00F0F8F84FF4FA60BDE81040FFF790BAF7
:205020002420BDE81040FFF744BAF0B5054680680E46417800240127090648BF274640F25D
:205040001362C0F200024078117810F07F00884208BF01240220298A00F0F5F8012818BFFF
:20506000F0BD204612222979FFF741FA012818BFF0BD0220298A00F0DCF8012818BFF0BD23
:20508000012F0CD1B0687E210170A968B0684978417002203082BDE8F040FFF7FDB9FFF7F5
:2050A00095F9BDE8F040FFF774B970B990686E2303708B6890685B784370896890688978EA
:2050C000817003201082FFF7E7B97220FFF7F1B9F0B5074688680E468178C078154600EBB5
:2050E0000124002040F63802C0F2000200EBC0018900535A9C4213D18818036A1BB12A465A
:20510000314638469847102140F21222E7B9A01A0DD04FF6EE42904224D1A868017121E02E
:2051200001300328DED3A868012101711AE0012048F6A872C1F6FF721076A8680171A8680B
:20514000477101F01DFA0DE0A01A07D04FF6EE41884207D1A8681121017103E0A8680171E2
:20516000A8684771A86871210170B168A86849784170B168A86889788170B168A868C97834
:2051800040F21222A41AC17005D04FF6EE40844203D1052000E006202882BDE8F040FFF738
:2051A0007BB950B9906876230370896890684978417002201082FFF76FB97220FFF779B9C7
:2051C00010B581B000218DF802108DF80310A0B914460DF1020000F060F9A068772101707C
:2051E000A0689DF802104170A0689DF80310817003202082FFF750F902E07220FFF759F9EE
:2052000001B010BD00B57820FFF753F941F28830FFF79CF907E001F0AFFB012808BF03F0A6
:20522000B8F903F0ABF9FFF7BEF941690029F2D100BD10B50124814203D000241320FFF759
:2052400038F9204610BD10B50124814203D200241320FFF72EF9204610BD10B5FFF7F8F816
:20526000041E02D13320FFF724F9204610BD10B400231C4605E010F804C0624508BF012314
:2052800001348C42F7D3184610BC70470120704740F27863C0F200031A7990424FF0FF0023
:2052A00008BF002070472DE9F04C06468B46924648F69477C1F6FF77FFF7B9F834790546F4
:2052C0002046FFF7E5FFF81CAC4204D100217278FEF7D4FE06E001213970317872697970C7
:2052E00071789047DAF8080067210170DBF80810DAF80800497841707278DAF80800F91C0B
:205300000230FEF7AEFE70780230AAF81000BDE8F04CFFF7C1B82DE9F04C06468B46924657
:2053200048F69475C1F6FF7500F05BFB04463079FFF7AEFF074628440021817068783178CB
:20534000884204BF2878012842D100202870FEF7B1FF0028FBD1D6F818C07378F178DBF8C6
:205360000800EA1C0230E047002854F8270019D120B1002044F8270000F0C7FA3079FFF79D
:2053800050F8DAF8080067210170DBF80810DAF80800497841700220AAF81000BDE8F04C06
:2053A000FFF77AB8013044F82700022804D23520BDE8F04CFFF77DB800F0A7FA42F210718A
:2053C0003846FFF75CF83620BDE8F04CFFF771B82420BDE8F04CFFF76CB8F0B507460D462B
:2053E00048F6A874C1F6FF7400260120A071A060B868267626710330FEF762FE2060FEF781
:205400009BFC2060B8680730FEF75AFE0146206800F0F7F8A86874210170A868202141700B
:20542000A86808218170A868C67004202882BDE8F040FFF731B8F0B507460D4602F070F9DA
:2054400048F6A874C1F6FF7400260121B868267684F82410A1712671A1600330FEF730FE14
:205460002060FEF769FC2060B8680730FEF728FE0146206800F0C5F8A86874210170A868BE
:2054800020214170A86808218170A868C67004202882BDE8F040FEF7FFBF10B5044600F055
:2054A00098FF000A207000F094FF607010BD10B548F6D074C1F6FF7404F180010020012271
:2054C00084F8E80684F8802001EB1062002300F180709370020E0A2AF6D32046802219466D
:2054E000FEF7CCFD00F00CF840F28040C0F2000041684CF20C40C1F6FF70BDE810400847B9
:2055000030B549F25004C1F6FF740025C4F8605601F036F8C4F86456C4F86C56C4F87456BD
:20552000C4F8705630BD10B549F25004C1F6FF7421780020012908BF00F016FD0321C4F8F1
:2055400064160021617010BD30B549F25004C1F6FF74217805460020012908BF00F004FD8E
:2055600094F86816A561022909D240B9013184F86816A56160700321C4F8641630BDFFF7DD
:20558000BFFF022030BD70B506464AF23873C1F6FF739879864231D2002449F2D460C1F697
:2055A000FF7003F10C02C6EB8601C9000B44DB89D0F840C09C4500D3F3B949F25005C6EB5D
:2055C000860300F8134000EB430380F83C40505CC1F6FF75D8704FF0FF30988000F0D0FF6E
:2055E0002E737019214684706C700120C5F86406304600F04CFF02E0012400E006242046DA
:2056000070BD70B5024649F25004C1F6FF742061237861610020054684F868067BB90123AC
:20562000C4F86036237FA4F1080C0133DBB203EB83064CF836200CEBC60251600DE0207FFF
:2056400000EB800004EBC0000262456200F0B4FC217F4B1C0121C4F860162377C4F864561A
:2056600070BDF0B5064649F25005C1F6FF7595F868060F46002418B185F86846FFF740FFB4
:20568000D5F86006002818BF03282ED1287880BB4EF20000C2F20000864224BFF043B84207
:2056A00025D34FF20000C2F2000086421FD8B8194FF20001C2F2000188429CBF781EB0F516
:2056C000805F14D24EF20000C2F20000864208BFFFF716FF2A7FA2B102EB820205EBC20157
:2056E00011E90600501886420BD2022407E0052405E03946304600F0DDFB041E01D0FFF7DC
:20570000FFFE2046F0BD2DE9F04C86B0054649F25007C1F6FF7778690024401A78613878FF
:2057200000284ED148F6A87AC1F6FF7A9AF824000E46012808BF87F86A463DD002F0DCFE90
:2057400032462946DAF8000000F009FF041E09D1012087F86A0632462946DAF8000000F0E3
:20576000E0FE044602F0C8FE32E002F0C5FE802E8FBF4FF0800BB346012087F86A066A4603
:205780005946284601F0DAFF049A0099DAF8000000F0E5FE041E06D1049A0099DAF8000054
:2057A00000F0BFFE04460499DAF80000A6EB0B065D440844CAF80000002ED3D0002CD4D091
:2057C000D0E7BD61C7F86C160220C7F864067C70204606B0BDE8F08C30B549F25005C1F613
:2057E000FF75D5F86026012A03D00224FFF788FE07E02A690024824202D16869884200D2A0
:205800000524204630BD30B549F25005C1F6FF75D5F86006022808D100240320C5F86006CC
:20582000C5F8644600F052FD02E00224FFF768FE204630BD10B449F25004C1F6FF74D4F8C2
:20584000641639B96178072904D0017000206070012002E000210170084610BC704710B573
:2058600049F25004C1F6FF74D4F8640601380CD305D0022806D308D100F043FD04E000F06C
:20588000C3FA01E000F067FC607060780A281CBF0020C4F8640610BD49F2C062C1F6FF72CA
:2058A00082E80300704710B584B000208DF8040049F2D464C1F6FF7402944C200390684642
:2058C00002F0BDFA01208DF80400684602F0B7FA02208DF80400684602F0B1FA00984FF255
:2058E0000042C0F207024FF4DC73E0644CF20C40C1F6FF7000F10C0181E81C0003F077F840
:20590000003818BF012004B010BD30B584B000208DF8040049F2D464C1F6FF7404F150052D
:20592000029508200390684602F089FA01208DF80400684602F083FA02208DF804006846D2
:2059400002F07DFA00984FF60042C0F207020C23A0654CF20C40C1F6FF7000F10C0181E8B9
:205960002C0003F044F8003818BF012004B030BD30B584B000208DF8040049F2D464C1F60F
:20598000FF7404F15C0502954FF4A0700390684602F055FA01208DF80400684602F04FFA3F
:2059A00002208DF80400684602F049FA00984FF4FF224FF4A273C4F89C014CF20C40C1F66B
:2059C000FF7000F10C0181E82C0003F010F8003818BF012004B030BD49F2D460C1F6FF7064
:2059E000704749F22470C1F6FF70704749F23070C1F6FF70704749F67400C1F6FF707047FC
:205A0000002049F25001C1F6FF71C1F86006704749F25001C1F6FF71D1F86006704749F209
:205A20005001C1F6FF710878704710B449F25004C1F6FF74D4F86406012803BF60780A280F
:205A40000120002010BC704749F22471C1F6FF7151F82000704749F2D461C1F6FF71486C20
:205A6000704749F2D461C1F6FF71086C7047014600200870704749F25001C1F6FF714878A4
:205A8000704749F2B060C1F6FF700168032904BF00210160704749F25002C1F6FF72117F08
:205AA00001EBC10200EB820202EB810050F8240C010A01F47F4101EB106100F47F4201EB24
:205AC000022101EB0060704749F25002C1F6FF72117F01EBC10200EB8200A0F1200252F842
:205AE0002100010A01F47F4101EB106100F47F4201EB022101EB0060704770B5ADF52C7D31
:205B0000B1F5927F4ED1064649F2D465C1F6FF75D5F8800144F64A31C5F2480188423FD0E8
:205B2000314668464FF49272FEF79BFAFFF76AFB49A802F084FA314649A84FF4827202F022
:205B4000BDFA06F5827149A82022FEF7A1FA012824D149F25004C1F6FF74314605F15C003D
:205B60004FF49272FEF77DFA694605F15C004FF49272FEF776FA05F15C004FF4807102F04D
:205B800040F944F64A30C5F24800C5F88001FFF7EFFE002818BF0120607004E00D2002E015
:205BA0000B2000E001200DF52C7D70BD18293DD110B584B049F2D464C1F6FF74014604F5BC
:205BC000D0701822FEF74DFA04F5D07002F0BCFD00208DF8040002944C200390684602F04D
:205BE0002EF901208DF80400684602F028F902208DF80400684602F022F900984FF2004292
:205C0000C0F207024FF4DC73E0644CF20C40C1F6FF7000F10C0181E81C0002F0E8FE0038B0
:205C200018BF012004B0BDE8104070470020704710292ED130B549F2D465C1F6FF75D5F8AC
:205C4000941144F64A32C5F2480291421DD049F25004C1F6FF74014605F5C2701022FEF7D5
:205C600000FA44F64A30C5F24800C5F89401FFF7C9FAFFF77DFE18B96070BDE8304070478E
:205C800001206070BDE8304070470B20BDE8304070470120704749F25001C1F6FF71087B42
:205CA0007047F0B449F2500CC1F6FF7C9CF81C5003460020002D41D0D3F800C04FEA1C2613
:205CC00006F47F4606EB1C660CF47F4706EB072606EB0C6605EB850C03EBCC0353F8244C52
:205CE00053F8203C270A07F47F4707EB146704F47F4C07EB0C2707EB04641F0A07F47F4772
:205D000007EB136703F47F4C07EB0C2707EB0363A5F1010CB44511D883B14EF20005C2F226
:205D20000005AC420AD303EB040C4FF20006C2F20006B44502D80C6013600120F0BC70475E
:205D4000B0B4034613E0002818BF002911D031F8045B11F802CC11F8017C2C062D0A043A0E
:205D600004EB054404EB0C243C4443F8044B002AE9D1B0BC704700204AF23871C1F6FF718F
:205D80008A79904208D2C0EB800201EBC201097B032918BF0130EFD1C0B270474AF23870F3
:205DA000C1F6FF70016842F23412C7F6430291420BD1D0F8FC1043F28742C4F2123291428A
:205DC00003D1807901380A2801D30120704700B500F0E1FB28B900F010FC002808BF00F0A2
:205DE0005CFC5DF804EB704749F25001C1F6FF71087B08448078704749F2D461C1F6FF7188
:205E000081F83C000020704770B549F25005C1F6FF75D5F87006D5F874164CF20C46C1F635
:205E2000FF76B1F5001FF060304625D8316140F28042C0F20002D16888473089C0B9297B4D
:205E4000A81C01224254297B49F2D462C1F6FF72C1EB810102EB4101C978072906D14FF0A4
:205E60000A012A7B012301398354FAD1002400E00124FFF745FB1BE00A244FF40011316104
:205E800040F28042C0F20002D1688847308960B9D5F87406A0F50010C5F87406D5F870061A
:205EA00000F50010C5F8700602E0FFF729FB0124204670BD2DE9F04D81B007468A46002530
:205EC000A8462E4633E03019807801282DD1C6EB86000BEBC0004069FDF72EFF217F28293D
:205EE00023D2FA43524528BF87421ED3C6EB86020BEBC20292691044874216D20AEB070346
:205F0000834298BF924510D8BAF1000F0DD026734FF0010849B101EB810004EBC00111E91D
:205F200006005018874238BF08250136F6B24AF2387BC1F6FF7B9BF8060049F25004C1F628
:205F4000FF748642BFD3B8F1010F01D0052507E035B9207B2044807800280CBF08250025AF
:205F6000284601B0BDE8F08D70B548F6D075C1F6FF75D5F8FC060024E0B1D5F8F8164CF270
:205F80000C46C1F6FF76C0F180022844F160FF21FEF774F8756180203061C5F8FC4640F2DA
:205FA0008040C0F200000169304688473089002818BF0124204670BD70B548F6D075C1F6F1
:205FC000FF75D5F8FC06002438B3D5F8F826D5F8901081EA020333F07F030DD1091A8A1A5D
:205FE0002844FF21FEF74AF8D5F89000D5F8F816401AC5F8FC061DE0FFF7B6FF044600F0AB
:2060000052FAD5F8900010F07F00C5F8FC068022FF212846FEF732F80CE000F044FAD5F863
:20602000900010F07F00C5F8FC068022FF212846FEF724F8204670BD70B5002448F6D075F2
:20604000C1F6FF75D5F8EC26002A00F08280D5F8FC36D5F89810581903EB020CBCF1800FFD
:2060600064D3C3F18002FDF7FCFFD5F8FC36D5F89810D5F89020C91A8031C5F89810D5F80D
:20608000EC164CF20C46C1F6FF7619448039C5F8EC16D01A06F10C02802182E8230040F21E
:2060A0008040C0F20000016930468847D5F89010D5F8FC26C5F8FC46891A80313289C5F898
:2060C0009010C5F8F8160AB1012442E0D5F89400A8B995F8EA06012804BFD5F8EC06002841
:2060E0000DD100F08BF801460129F06802D100F0CAF8A3E795F89C1000F08DF89EE700F054
:206100007DF801460129F06803D1316900F0CDF994E795F89C100139C9B200F07CF800F060
:20612000C2F93169F06800F0C0F987E7FDF799FFD5F89010D5F8FC36D5F8EC26C5F8EC46D5
:20614000C81AC5F8F8061344C5F8FC361144C5F89010204670BD2DE9F04C86B048F6A87A2F
:20616000C1F6FF7A9AF8240049F25005C1F6FF75012831D10024D5F818B0D5F86C6685F87E
:206180006A4625E002F0B8F9802E8FBF80273746012085F86A066A463946584601F0CEFAF3
:2061A000049A0099DAF8000000F0D9F9041E0DD100980499A861C5F86C16FFF73DFF049AC7
:2061C000DAF8001004461144CAF80010BB44F61B2EB1002CD6D002E0FFF72EFF044602F06A
:2061E0008BF92CB9686928B90220C5F8600601E0FFF786F9204606B0BDE8F08C49F2500021
:20620000C1F6FF70818B481EC0B2B0EB112F0CBF0120002070472DE9F04449F25006C1F644
:20622000FF76747F0F4606F1200504EB840405EBC4040CCC9918091A01F0B2FE01F0B8FE62
:20624000717F01317177202201462046FDF709FF747F14E001F09EFE04EB840105EBC10AA6
:20626000BAE8030001F09CFE01F0A2FE014650462022FDF7F6FE717F013171770134BC4219
:20628000E8D3BDE8F08430B549F25004C1F6FF74217F0139C9B201EB810104EBC10555F8C7
:2062A000202F6968904226BF1144091A104601F077FE01F07DFE617F0131617720220146F4
:2062C00005F10800BDE83040FDF7CBBE30B549F25004C1F6FF74207F04F120010138C0B230
:2062E00000EB800001EBC00501F062FE617F013161772022014605F10800BDE83040FDF7B7
:20630000B0BE30B549F25005C1F6FF7500F019F800F065F80121287B297049F2D464C1F699
:20632000FF74C0EB800004F8101000F052F8297BC1EB810104EB41018880FFF7E1F800206F
:2063400030BDF0B5ADF5006D49F25004C1F6FF7468464FF4007107F0DAFA207B4AF244712A
:20636000C1F6FF71C0EB800001EBC00085682069401BC40AE4B2C0F30A06002002F024FCF5
:2063800000270DE005EBC7214FF40062FDF769FE684600231A464FF4006102F022FC0137F4
:2063A0006846A742EED3324605EBC421FDF759FE3146684600231A4602F013FC00F003F859
:2063C0000DF5006DF0BD49F2D061C1F6FF710880704749F2D061C1F6FF71088870472DE9DF
:2063E000F04CADF5006D49F25005C1F6FF7568464FF4007107F08BFA286910F8021C10F8FA
:20640000012C42EA012A297B4AF24472C1F6FF72C1EB810102EBC1018E68801B0238C40AC4
:20642000E4B2C0F30A07012002F0CEFB4FF0000B0EE006EBCB214FF40062FDF712FE6846BA
:2064400000231A464FF4006102F0CBFB0BF1010B6846A345EDD33A4606EBC421FDF701FEB6
:206460003946684600231A4602F0BBFB2969B1F5E02F8CBF0122002250450CBF012100214A
:20648000104600F004F80DF5006DBDE8F08C49F2D262C1F6FF721154704749F2D261C1F652
:2064A000FF71085C704701F075BD034649F2500CC1F6FF7C9CF81C00421ED2B202EB820217
:2064C0000CEBC200006A83422EBF18461944091A01F066BD30B449F25004C1F6FF74227FB7
:2064E00002EB820204EBC20313E905000A44217B43F8042C4AF24475C1F6FF75C1EB8101D3
:2065000005EBC1058118EA68AB681A44914205D905200021C4F86416607000E0002030BC80
:20652000704770B549F25004C1F6FF7415460646FDF797FD29463046FFF7B7FF21696069B3
:206540002944216130B994F86A06012804BF0220C4F860060020C4F86406607070BD30B50F
:206560000D4614461146FFF7B5FF002818BF30BD49F25003C1F6FF739D61C3F86C4630BD72
:2065800049F25001C1F6FF7100208883C1F87C06C1F87806704770B4012000214AF23873A7
:2065A000C1F6FF739A79914225D2002240F6AC05C0F20005C1EB810003EBC0002E684469F7
:2065C0000C30B44213D3C0686FEA040C84450ED36D68AC420BD80444013CAC4207D8AC1BA9
:2065E0000134A04203D810B100200131D6E7012001320A2ADAD370BC7047F0B4A8B00020A5
:2066000001460CE0C1EB810302EBC303D3F814C00DEB0112C2F808C09B690131D3604AF293
:206620003872C1F6FF7293799942EBD3024617E00131C9B210E00DEB12550DEB0114AF6884
:20664000A668B74207D9AE60D4F80CC0EE68C5F80CC0A760E66001319942ECD302F18072D0
:206660005C1E110EA142E3D3024610E00DEB125C0DEB0116DCF80C30DCF80810D6F818C099
:206680000B44634501D9012004E002F18072110EA142EBD328B0F0BC704720B4012000222D
:2066A00022E0C2EB8203DB00194411F80CCFBCF1070F18D140F6C00CC0F2000C6344D1F8AE
:2066C00008C09D68AC450ED1D1F80CC0DD68AC4509D1D1F810C01D69AC4504D149695B691D
:2066E000994208BF002001324AF23871C1F6FF718B799A42D5D320BC7047FEE700B5EFF302
:2067000010804CF22841C1F6FF710028086018BF00BD72B600BD00B54CF22841C1F6FF718F
:206720000868002818BF00BD62B600BD01214160002101817047416809B9022102E00021AA
:2067400041610161018170472DE9F04C82B08346D0F80CA000694FF6FF76C0F20306A6EBCC
:206760000A020AEB9203DBF8042001931AB90220ABF8080066E000EB0A01491E4FF480658D
:20678000002718B90420ABF808005BE06A46504600F0C5F8012803D10720ABF8080051E004
:2067A000CAF30900AAEB0004DBF810005044A0F1010B72B64AF23871C1F6FF7148694CF243
:2067C000200AC1F6FF7AA04231D115E0DAF80C0029460AEB00022046904707F180773A0ECE
:2067E00046F26761C6F2666151FB02F189100A2000FB11212C4419B940F202300AF057F8FC
:20680000B442E3D9DAF818000AEB00014FF48020884712E0DAF80C0029460AEB0002204698
:2068200090472C443FB90198844204D9012740F202300AF03CF85C45ECD940F202300AF05F
:2068400036F862B602B0BDE8F08C2DE9F04C86B0D0F80CB00669054606EB0B00441E68692A
:2068600002AA40F2704CC0F2000C0190BCE80B000BC2DCF800001BF00F0F106001D008204D
:2068800049E010276A462146584600F048F8040018BF07203FD115E072B601994CF220008C
:2068A000C1F6FF70621801694318394604EB0B0098475FFA80FA62B6BAF1000F01D00B207A
:2068C00029E03C443819B042E6D92889002823D1B44221D2321B08E0DDF804C00E1902ABD5
:2068E0001CF8066000F180705E54010E9142F3D372B64CF22000C1F6FF70016902AA4318C6
:20690000394604EB0B0098475FFA80FA62B6BAF1000F01D00F20288106B0BDE8F08C0223D5
:20692000136088429CBFA0F56030B0F5902F07D2A1F56030B0F5902F02D2002010607047B8
:206940000120704700B545F6A400C0F201000CF0BFFA00200CF016FB49F6404100200CF05A
:2069600070FB00BD00B500200CF0A0FB00200CF0E4FA0CF0D0FA00BD10B449F68C04C1F6BC
:20698000FF742078012806BF00212170002010BC7047012049F68C01C1F6FF710870704766
:2069A00000200CF031BB10B549F69404C1F6FF74606000F065F80120206010BD00B500F0E9
:2069C0002FF800F0CEF9002000BD00B500F028F800F082F800BD00F04BB800F0C9B810B5E7
:2069E0000C4600F031F82146BDE8104000F0D2B810B50C4600F028F82146BDE8104000F0E3
