:2000000000FE002001040000D905010087780000DD050100E1050100E5050100000000002A
:20002000000000000000000000000000F7050100E905010000000000ED050100F1050100EA
:20004000F3050100F3050100F3050100F3050100F3050100F3050100F3050100F3050100D8
:20006000F3050100F3050100F3050100F3050100F3050100F3050100F3050100F3050100B8
:20008000F3050100F3050100F3050100F3050100F3050100F3050100F3050100F305010098
:2000A000F3050100F3050100F3050100F3050100F3050100F3050100F3050100F305010078
:2000C000F3050100F3050100F3050100F3050100F3050100F3050100F3050100F305010058
:2000E000F3050100F3050100F3050100F3050100F3050100F3050100F3050100F305010038
:20010000F3050100F3050100F3050100F3050100F3050100F3050100F3050100F305010017
:20012000F3050100F3050100F3050100F3050100F3050100F3050100F3050100F3050100F7
:20014000F3050100F3050100F3050100F3050100F3050100F3050100F3050100F3050100D7
:20016000F3050100F3050100F3050100F3050100F3050100F3050100F3050100F3050100B7
:20018000F3050100F3050100F3050100F3050100F3050100F3050100F3050100F305010097
:2001A000F3050100F3050100F3050100F3050100F3050100F3050100F3050100F305010077
:2001C000F3050100F3050100F3050100F3050100F3050100F3050100F3050100F305010057
:2001E000F3050100F3050100F3050100F3050100F3050100F3050100F3050100F305010037
:20020000F3050100F3050100F3050100F3050100F3050100F3050100F3050100F305010016
:20022000F3050100F3050100F3050100F3050100F3050100F3050100F3050100F3050100F6
:20024000F3050100F3050100F3050100F3050100F3050100F3050100F3050100F3050100D6
:20026000F3050100F3050100F3050100F3050100F3050100F3050100F3050100F3050100B6
:20028000F3050100F3050100F3050100F3050100F3050100F3050100F3050100F305010096
:2002A000F3050100F3050100F3050100F3050100F3050100F3050100F3050100F305010076
:2002C000F3050100F3050100F3050100F3050100F3050100F3050100F3050100F305010056
:2002E000F3050100F3050100F3050100F3050100F3050100F3050100F3050100F305010036
:20030000F3050100F3050100F3050100F3050100F3050100F3050100F3050100F305010015
:20032000F3050100F3050100F3050100F3050100F3050100F3050100F3050100F3050100F5
:20034000F3050100F3050100F3050100F3050100F3050100F3050100F3050100F3050100D5
:20036000F3050100F3050100F3050100F3050100F3050100FFFFFFFFFFFFFFFFFFFFFFFFAC
:20038000FFFFFFFFFFFFFFFFFFFFFFFFFFFFFFFFFFFFFFFFFFFFFFFFFFFFFFFFFFFFFFFF7D
:2003A000FFFFFFFFFFFFFFFFFFFFFFFFFFFFFFFFFFFFFFFFFFFFFFFFFFFFFFFFFFFFFFFF5D
:2003C000FFFFFFFFFFFFFFFFFFFFFFFFFFFFFFFFFFFFFFFFFFFFFFFFFFFFFFFFFFFFFFFF3D
:2003E000FFFFFFFFFFFFFFFFFFFFFFFFFFFFFFFFFFFFFFFFFFFFFFFFFFFFFFFFFFFFFFFF1D
:2004000072B6002000210022002300240025002600271F481F4901601F4880F30888FFE718
:200420001E4801680F22120511430160BFF34F8FBFF36F8FFFE71A48002809D019491A4AA1
:20044000521A013A04DD0020002309C1083AFCDAFFE7134800280BD0144802C8013907DB69
:2004600038C82A1BFAD040CC40C3043AFBDCF5E7FFE70F4802C8013907DB18C8E21AFAD0A4
:20048000002520C3043AFCDCF5E762B608F006FF08ED00E00000002000FE002088ED00E0E5
:2004A000010000000000002000FE0020BCC90100F0C901007820704770B405460C462A463D
:2004C000002C0BD955B105E0134601324FF0000C83F800C0002CA4F10104F5D170BC7047A0
:2004E0002DE9F00404460D461646002E0CD95CB155B12F46A446002304E017F803A00CF8B7
:2005000003A00133B342F8D3BDE8F00470472DE9F04D83B005460E4694464FF0000ABCF1FF
:20052000800304D0403B05D0402B06D008E00A232B6006E00C232B6003E00E232B6000E014
:2005400000BF05F108036B6000241FE04FEA840B06EB0B0E0EF1010E9EF800E016F80B700E
:2005600047EA0E2706EB0B0E0EF1020E9EF800E047EA0E4706EB0B0E0EF1030E9EF800E070
:2005800047EA0E6743F80B70671CBCB2B4EB6C1FDCDB2F680A3F05D0023F49D0022F00F0FD
:2005A000998014E1002440E045F6E468C0F20108D3F800B058F8247087EA0B07D3F80CB03E
:2005C00045F60C78C0F20108CBF3072B18F80BB08BEA0707D3F80CB0CBF3074B18F80BB001
:2005E00087EA0B27D3F80CB04FEA1B6B18F80BB087EA0B4B1F7B18F807708BEA07671F61FC
:200600001F69D3F804B087EA0B075F615F69D3F808B087EA0B079F619F69D3F80CB087EAC2
:200620000B07DF61671CBCB210330A2CBCD3CEE000244CE045F6E468C0F20108D3F800B0B4
:2006400058F8247087EA0B07D3F814B045F60C78C0F20108CBF3072B18F80BB08BEA0707EC
:20066000D3F814B0CBF3074B18F80BB087EA0B27D3F814B04FEA1B6B18F80BB087EA0B4B8D
:200680001F7D18F807708BEA07679F619F69D3F804B087EA0B07DF61DF69D3F808B087EACE
:2006A0000B071F621F6AD3F80CB087EA0B075F625F6AD3F810B087EA0B079F629F6AD3F8A7
:2006C00014B087EA0B07DF62671CBCB21833082CB0D37CE0002477E045F6E468C0F2010886
:2006E000D3F800B058F8247087EA0B07D3F81CB045F60C78C0F20108CBF3072B18F80BB04C
:200700008BEA0707D3F81CB0CBF3074B18F80BB087EA0B27D3F81CB04FEA1B6B18F80BB020
:2007200087EA0B4B1F7F18F807708BEA07671F621F6AD3F804B087EA0B075F625F6AD3F889
:2007400008B087EA0B079F629F6AD3F80CB087EA0B07DF6293F82C7045F60C78C0F2010868
:20076000D3F810B018F8077087EA0B07D3F82CB0CBF3072B18F80BB087EA0B27D3F82CB038
:20078000CBF3074B18F80BB087EA0B47D3F82CB04FEA1B6B18F80BB087EA0B671F631F6B9B
:2007A000D3F814B087EA0B075F635F6BD3F818B087EA0B079F639F6BD3F81CB087EA0B075F
:2007C000DF63671CBCB22033072C85D300BF5746384603B0BDE8F08D2DE9F04D8BB007467E
:2007E0000C4615464FF0000A7B68009394F802C02388C3EA0C4394F803C043EA0C63019319
:20080000009E331D0093019B36687340019394F806C0A388C3EA0C4394F807C043EA0C636E
:200820000293009E331D0093029B36687340029394F80AC02389C3EA0C4394F80BC043EA9D
:200840000C630393009E331D0093039B36687340039394F80EC0A389C3EA0C4394F80FC0B0
:2008600043EA0C630493009E331D0093049B3668734004933B685B105E1EBAE1DDF800C083
:200880000CF104030093019BDCF800C047F60C48C0F201081B069B0D58F8033083EA0C037D
:2008A000DDF808C047F60C0BC0F2010BCCF3072C5BF82CC08CEA030C039B47F20C4BC0F2F3
:2008C000010BC3F307435BF8233083EA0C03DDF810C047F20C0BC0F2010B4FEA1C6C5BF823
:2008E0002CC08CEA030CCDF814C0DDF800C00DF108080CF10403009398E808481B069B0D1B
:2009000047F60C48C0F20108DCF800C058F8033083EA0C03CBF3072C47F60C0BC0F2010BF5
:200920005BF82CC047F20C4BC0F2010B8CEA030CCEF307435BF8233083EA0C03DDF804C0DF
:2009400047F20C0BC0F2010B4FEA1C6C5BF82CC08CEA030CCDF818C0DDF800C00CF10403CE
:200960000093039BDCF800C047F60C48C0F201081B069B0D58F8033083EA0C03DDF810C0F9
:2009800047F60C0BC0F2010BCCF3072C5BF82CC08CEA030C019B47F20C4BC0F2010BC3F3EF
:2009A00007435BF8233083EA0C03DDF808C047F20C0BC0F2010B4FEA1C6C5BF82CC08CEAAA
:2009C000030CCDF81CC0DDF800C00CF104030093049BDCF800C047F60C48C0F201081B069B
:2009E0009B0D58F8033083EA0C03DDF804C047F60C0BC0F2010BCCF3072C5BF82CC08CEAFE
:200A0000030C029B47F20C4BC0F2010BC3F307435BF8233083EA0C03DDF80CC047F20C0BC9
:200A2000C0F2010B4FEA1C6C5BF82CC08CEA030CCDF820C000BFDDF800C00CF104030093E3
:200A4000059BDCF800C047F60C48C0F201081B069B0D58F8033083EA0C03DDF818C047F664
:200A60000C0BC0F2010BCCF3072C5BF82CC08CEA030C079B47F20C4BC0F2010BC3F30743FB
:200A80005BF8233083EA0C03DDF820C047F20C0BC0F2010B4FEA1C6C5BF82CC08CEA030CEC
:200AA000CDF804C0DDF800C00DF118080CF10403009398E808481B069B0D47F60C48C0F287
:200AC0000108DCF800C058F8033083EA0C03CBF3072C47F60C0BC0F2010B5BF82CC047F2FF
:200AE0000C4BC0F2010B8CEA030CCEF307435BF8233083EA0C03DDF814C047F20C0BC0F284
:200B0000010B4FEA1C6C5BF82CC08CEA030CCDF808C0DDF800C00CF104030093079BDCF815
:200B200000C047F60C48C0F201081B069B0D58F8033083EA0C03DDF820C047F60C0BC0F226
:200B4000010BCCF3072C5BF82CC08CEA030C059B47F20C4BC0F2010BC3F307435BF823303F
:200B600083EA0C03DDF818C047F20C0BC0F2010B4FEA1C6C5BF82CC08CEA030CCDF80CC028
:200B8000DDF800C00CF104030093089BDCF800C047F60C48C0F201081B069B0D58F803305A
:200BA00083EA0C03DDF814C047F60C0BC0F2010BCCF3072C5BF82CC08CEA030C069B47F26E
:200BC0000C4BC0F2010BC3F307435BF8233083EA0C03DDF81CC047F20C0BC0F2010B4FEAE6
:200BE0001C6C5BF82CC08CEA030CCDF810C000BF013E002E3FF742AEDDF800C00CF1040329
:200C00000093019BDCF800C047F60C48C0F201081B069B0D58F8033083EA0C03DDF808C060
:200C200047F60C0BC0F2010BCCF3072C5BF82CC08CEA030C039B47F20C4BC0F2010BC3F34A
:200C400007435BF8233083EA0C03DDF810C047F20C0BC0F2010B4FEA1C6C5BF82CC08CEAFF
:200C6000030CCDF814C0DDF800C00DF108080CF10403009398E808481B069B0D47F60C4868
:200C8000C0F20108DCF800C058F8033083EA0C03CBF3072C47F60C0BC0F2010B5BF82CC0C4
:200CA00047F20C4BC0F2010B8CEA030CCEF307435BF8233083EA0C03DDF804C047F20C0B4B
:200CC000C0F2010B4FEA1C6C5BF82CC08CEA030CCDF818C0DDF800C00CF104030093039B6A
:200CE000DCF800C047F60C48C0F201081B069B0D58F8033083EA0C03DDF810C047F60C0B53
:200D0000C0F2010BCCF3072C5BF82CC08CEA030C019B47F20C4BC0F2010BC3F307435BF822
:200D2000233083EA0C03DDF808C047F20C0BC0F2010B4FEA1C6C5BF82CC08CEA030CCDF8EF
:200D40001CC0DDF800C00CF104030093049BDCF800C047F60C48C0F201081B069B0D58F8F3
:200D6000033083EA0C03DDF804C047F60C0BC0F2010BCCF3072C5BF82CC08CEA030C029BC6
:200D800047F20C4BC0F2010BC3F307435BF8233083EA0C03DDF80CC047F20C0BC0F2010B34
:200DA0004FEA1C6C5BF82CC08CEA030CCDF820C000BFDDF800C00CF1040300939DF8143045
:200DC00045F60C78C0F20108DCF800C018F8033083EA0C03DDF818C0CCF3072C18F80CC0CB
:200DE00083EA0C23DDF81CC0CCF3074C18F80CC083EA0C43DDF820C04FEA1C6C18F80CC0AA
:200E000083EA0C630193DDF800C00CF1040300939DF8183045F60C78C0F20108DCF800C04B
:200E200018F8033083EA0C03DDF81CC0CCF3072C18F80CC083EA0C23DDF820C0CCF3074C11
:200E400018F80CC083EA0C43DDF814C04FEA1C6C18F80CC083EA0C630293DDF800C00CF1B1
:200E6000040300939DF81C3045F60C78C0F20108DCF800C018F8033083EA0C03DDF820C075
:200E8000CCF3072C18F80CC083EA0C23DDF814C0CCF3074C18F80CC083EA0C43DDF818C0E8
:200EA0004FEA1C6C18F80CC083EA0C630393DDF800C00CF1040300939DF8203045F60C7853
:200EC000C0F20108DCF800C018F8033083EA0C03DDF814C0CCF3072C18F80CC083EA0C23F1
:200EE000DDF818C0CCF3074C18F80CC083EA0C43DDF81CC04FEA1C6C18F80CC083EA0C6371
:200F00000493019B2B70019BC3F307236B70019BC3F30743AB70019B1B0EEB70029B2B719C
:200F2000029BC3F307236B71029BC3F30743AB71029B1B0EEB71039B2B72039BC3F30723C4
:200F40006B72039BC3F30743AB72039B1B0EEB72049B2B73049BC3F307236B73049BC3F3E6
:200F60000743AB73049B1B0EEB7301A80421FFF7A3FA02A80421FFF79FFA03A80421FFF75E
:200F80009BFA04A80421FFF797FA05A80421FFF793FA06A80421FFF78FFA07A80421FFF7F3
:200FA0008BFA08A80421FFF787FA68460421FFF783FA534618460BB0BDE8F08D2DE9F04DF3
:200FC0008BB007460C4615464FF0000A7B68009394F802C02388C3EA0C4394F803C043EAAC
:200FE0000C630193009E331D0093019B36687340019394F806C0A388C3EA0C4394F807C020
:2010000043EA0C630293009E331D0093029B36687340029394F80AC02389C3EA0C4394F811
:201020000BC043EA0C630393009E331D0093039B36687340039394F80EC0A389C3EA0C432B
:2010400094F80FC043EA0C630493009E331D0093049B3668734004933B685B105E1EBAE1D5
:20106000DDF800C00CF104030093019BDCF800C046F60C48C0F201081B069B0D58F803307D
:2010800083EA0C03DDF810C046F60C0BC0F2010BCCF3072C5BF82CC08CEA030C039B46F292
:2010A0000C4BC0F2010BC3F307435BF8233083EA0C03DDF808C046F20C0BC0F2010B4FEA16
:2010C0001C6C5BF82CC08CEA030CCDF814C0DDF800C00CF104030093029BDCF800C046F692
:2010E0000C48C0F201081B069B0D58F8033083EA0C03DDF804C046F60C0BC0F2010BCCF3B0
:20110000072C5BF82CC08CEA030C049B46F20C4BC0F2010BC3F307435BF8233083EA0C03CA
:20112000DDF80CC046F20C0BC0F2010B4FEA1C6C5BF82CC08CEA030CCDF818C0DDF800C04A
:201140000CF104030093039BDCF800C046F60C48C0F201081B069B0D58F8033083EA0C03B3
:20116000DDF808C046F60C0BC0F2010BCCF3072C5BF82CC08CEA030C019B46F20C4BC0F22E
:20118000010BC3F307435BF8233083EA0C03DDF810C046F20C0BC0F2010B4FEA1C6C5BF85B
:2011A0002CC08CEA030CCDF81CC0DDF800C00CF104030093049BDCF800C046F60C48C0F27C
:2011C00001081B069B0D58F8033083EA0C03DDF80CC046F60C0BC0F2010BCCF3072C5BF847
:2011E0002CC08CEA030C029B46F20C4BC0F2010BC3F307435BF8233083EA0C03DDF804C0D9
:2012000046F20C0BC0F2010B4FEA1C6C5BF82CC08CEA030CCDF820C000BFDDF800C00CF146
:2012200004030093059BDCF800C046F60C48C0F201081B069B0D58F8033083EA0C03DDF8F8
:2012400020C046F60C0BC0F2010BCCF3072C5BF82CC08CEA030C079B46F20C4BC0F2010BF8
:20126000C3F307435BF8233083EA0C03DDF818C046F20C0BC0F2010B4FEA1C6C5BF82CC092
:201280008CEA030CCDF804C0DDF800C00CF104030093069BDCF800C046F60C48C0F2010894
:2012A0001B069B0D58F8033083EA0C03DDF814C046F60C0BC0F2010BCCF3072C5BF82CC07B
:2012C0008CEA030C089B46F20C4BC0F2010BC3F307435BF8233083EA0C03DDF81CC046F28E
:2012E0000C0BC0F2010B4FEA1C6C5BF82CC08CEA030CCDF808C0DDF800C00CF104030093DB
:20130000079BDCF800C046F60C48C0F201081B069B0D58F8033083EA0C03DDF818C046F69B
:201320000C0BC0F2010BCCF3072C5BF82CC08CEA030C059B46F20C4BC0F2010BC3F3074335
:201340005BF8233083EA0C03DDF820C046F20C0BC0F2010B4FEA1C6C5BF82CC08CEA030C24
:20136000CDF80CC0DDF800C00CF104030093089BDCF800C046F60C48C0F201081B069B0D65
:2013800058F8033083EA0C03DDF81CC046F60C0BC0F2010BCCF3072C5BF82CC08CEA030CD6
:2013A000069B46F20C4BC0F2010BC3F307435BF8233083EA0C03DDF814C046F20C0BC0F273
:2013C000010B4FEA1C6C5BF82CC08CEA030CCDF810C000BF013E002E3FF742AEDDF800C000
:2013E0000CF104030093019BDCF800C046F60C48C0F201081B069B0D58F8033083EA0C0313
:20140000DDF810C046F60C0BC0F2010BCCF3072C5BF82CC08CEA030C039B46F20C4BC0F281
:20142000010BC3F307435BF8233083EA0C03DDF808C046F20C0BC0F2010B4FEA1C6C5BF8C0
:201440002CC08CEA030CCDF814C0DDF800C00CF104030093029BDCF800C046F60C48C0F2E3
:2014600001081B069B0D58F8033083EA0C03DDF804C046F60C0BC0F2010BCCF3072C5BF8AC
:201480002CC08CEA030C049B46F20C4BC0F2010BC3F307435BF8233083EA0C03DDF80CC02C
:2014A00046F20C0BC0F2010B4FEA1C6C5BF82CC08CEA030CCDF818C0DDF800C00CF1040364
:2014C0000093039BDCF800C046F60C48C0F201081B069B0D58F8033083EA0C03DDF808C097
:2014E00046F60C0BC0F2010BCCF3072C5BF82CC08CEA030C019B46F20C4BC0F2010BC3F386
:2015000007435BF8233083EA0C03DDF810C046F20C0BC0F2010B4FEA1C6C5BF82CC08CEA37
:20152000030CCDF81CC0DDF800C00CF104030093049BDCF800C046F60C48C0F201081B0630
:201540009B0D58F8033083EA0C03DDF80CC046F60C0BC0F2010BCCF3072C5BF82CC08CEA8B
:20156000030C029B46F20C4BC0F2010BC3F307435BF8233083EA0C03DDF804C046F20C0B68
:20158000C0F2010B4FEA1C6C5BF82CC08CEA030CCDF820C000BFDDF800C00CF10403009378
:2015A0009DF8143048F20C08C0F20108DCF800C018F8033083EA0C03DDF820C0CCF3072C4F
:2015C00018F80CC083EA0C23DDF81CC0CCF3074C18F80CC083EA0C43DDF818C04FEA1C6CCA
:2015E00018F80CC083EA0C630193DDF800C00CF1040300939DF8183048F20C08C0F201088D
:20160000DCF800C018F8033083EA0C03DDF814C0CCF3072C18F80CC083EA0C23DDF820C0AF
:20162000CCF3074C18F80CC083EA0C43DDF81CC04FEA1C6C18F80CC083EA0C630293DDF86C
:2016400000C00CF1040300939DF81C3048F20C08C0F20108DCF800C018F8033083EA0C03F6
:20166000DDF818C0CCF3072C18F80CC083EA0C23DDF814C0CCF3074C18F80CC083EA0C4300
:20168000DDF820C04FEA1C6C18F80CC083EA0C630393DDF800C00CF1040300939DF8203075
:2016A00048F20C08C0F20108DCF800C018F8033083EA0C03DDF81CC0CCF3072C18F80CC04F
:2016C00083EA0C23DDF818C0CCF3074C18F80CC083EA0C43DDF814C04FEA1C6C18F80CC0D1
:2016E00083EA0C630493019B2B70019BC3F307236B70019BC3F30743AB70019B1B0EEB7012
:20170000029B2B71029BC3F307236B71029BC3F30743AB71029B1B0EEB71039B2B72039B83
:20172000C3F307236B72039BC3F30743AB72039B1B0EEB72049B2B73049BC3F307236B7373
:20174000049BC3F30743AB73049B1B0EEB7301A80421FEF7B1FE02A80421FEF7ADFE03A81A
:201760000421FEF7A9FE04A80421FEF7A5FE05A80421FEF7A1FE06A80421FEF79DFE07A8C7
:201780000421FEF799FE08A80421FEF795FE68460421FEF791FE534618460BB0BDE8F08D10
:2017A0002DE9F04D86B016469B4601908DF803100E9F0F9D4FF0010A9DF803C0BCF1000F83
:2017C0002CD128E0394602A81022FEF789FE2A4639460198FFF7F2FB8446E246002408E0C4
:2017E0001BF804C017F804E08CEA0E0C05F804C00134102CF4DB02A958461022FEF770FEB0
:20180000103710354FF0000C102E03D3A6F1100C5FFA8CFC6646002ED4D826E023E0002496
:2018200008E01BF804C017F804E08CEA0E0C05F804C00134102CF4DB2A4629460198FEF7F8
:20184000CBFF8446E246294658461022FEF748FE103710354FF0000C102E03D3A6F1100CB4
:201860005FFA8CFC6646002ED9D8D446604606B0BDE8F08D00B500F0C6FA04F08BFF01F090
:20188000EDFF00F0F4F800F0D5FA00BD70B541F69075C2F20005002405F099FA0646286862
:2018A00042F23411C7F64301884233D100212DE0C1EB810005F10C0202EBC0000078032831
:2018C00007D1C1EB810006EB40000078E0B9032421E0C1EB810005F10C0202EBC000007843
:2018E000062807D1C1EB810006EB4000007858B9062410E0C1EB810005F10C0202EBC00003
:201900000078082800D100BF481CC1B2A8798142CED300E00124204670BD30B5002405F09D
:2019200056FA054695F83C00012803D1FFF7AEFF044600E00124204630BD00B54EF200000C
:20194000C2F200004FF48052002103F0EFFB11F009F800BD2DE9004105F064FA012809D154
:2019600002F023F901F0A4FF06F0D0F901F090FF0028FBD100F051FB40F23C71C2F20001C2
:201980000868012802D102F02BF908E040F23C71C2F200010868042801D102F043F906F0B7
:2019A0007EF901280CD140F2D851C2F2000108680130086006F0AAF901F07AFF00F031F974
:2019C000BDE8008100B5FFF7C5FF00BD10B40446214600BF084610BC70472DE9F0484FF61D
:2019E0000066C2F200060024002510F09BFF0746B346022F05D000200146CBE90001002458
:201A000018E0314648F21E10C0F20100082203F09EFB04460CB101250CE0314648F2261086
:201A2000C0F20100082203F092FB04460CB1022500E000252846BDE8F0882DE9F001002163
:201A400046F66714C7F2534446F27215C5F274354FF60078C0F20408D8E90067AF4202D1F9
:201A6000A64200D101210846BDE8F00170472DE9704140F2D455C2F20005002400F035F8D4
:201A8000FFF7ABFF0446E4B1022001F00BFF4FF60060C2F200000822002103F047FB0020B1
:201AA0002860012C06D1012040F23C71C2F20001086014E0042040F23C71C2F20001086069
:201AC0000DE0FFF7BAFF012809D100F0ABFA06461EB14FF47A70286001E0002028602868E9
:201AE00008B90AF0D6FCBDE8708110B584B04AF20004C0F2011405F06AF9009005F06CF981
:201B0000019005F06EF9029005F070F9039048F68C31C0F2010141F69070C2F200004FF478
:201B2000807203F0EAFA21465022009803F0E5FA0098502100F14C0200F0B4F810B9009854
:201B400000F0DCF800BF04F150010C22019803F0D4FA01980C2100F1080200F0A3F810B91F
:201B6000019800F0FCF800BF04F15C014FF4A272029803F0C2FA02984FF4A27100F5A07240
:201B800000F090F810B9029800F0F5F800BF04F5D0711C22039803F0B0FA03981C2100F155
:201BA000180200F07FF810B9039800F0FFF800BF019800F00CF800F002F804B010BD00B5ED
:201BC00041F67470C2F2000009F0C2FF00BD2DE97041064600240EE056F82420002142F2B3
:201BE0001078022A28BF41460D462946204601F06EFF611CCCB2002CEED0BDE8708130B5DD
:201C000042F2A804C2F2000405F0F0F80546287C022802D1AA20207001E05520207020788B
:201C200030BD2DE9304140F2D454C2F2000401F0E7FE05462068002818D92068013820601B
:201C4000206898B948F68C31C0F201014FF60878C0F204088868D8F80010884206D148F6CA
:201C60008C31C0F20101886800F002F8BDE8308110B5044600F07DF9204600F001F810BD32
:201C800010B50446204600F0C3F910BD2DE90041002040F2D451C2F2000108600AF0F9FB7D
:201CA000BDE80081F0B584B005460E4614460023009300238DF804300295331F9BB20393CE
:201CC00068460AF022F901238DF8043068460AF01CF902238DF8043068460AF016F9009F73
:201CE000D4F800C00023674505D1D4F800C0BCF1FF3F18BF0123184604B0F0BD2DE97041BB
:201D00000446E16CB1F1FF3F0CBF01250025FF21002D18BF00212046502203F007FA002104
:201D200012E0C1EB810204EB42021570C1EB810241F69C7CC2F2000C04EB42030CEBC2029D
:201D40001278DA704A1CD1B241F69073C2F200039A799142E5D384F83C50BDE8708110B5D4
:201D6000044620460C22002103F0E0F90021084601F0ADFE10BD10B5044620464FF4A272F4
:201D8000002103F0D3F948F6FA71C0F2010104F59470102203F0B1F940F2A441C2F200016E
:201DA00020464FF4927203F0A8F910BD30B585B0044648F20C11C0F201016A4601F11203EF
:201DC00031F802CB8B4222F802CBF9D120461C22002103F0ABF96946201D122203F08DF99A
:201DE00005B030BD00B510F09DFD18B110F09AFD052807D1A2494FF4FC720020002309C1E4
:201E0000083AFCDA00BD00B510F0EBFC002010F056FD002010F06BFD002010F0D3FA002049
:201E200010F0F3FF002010F046FF05F021FF01F0D5FC00BD10B5002448F6C840C0F20100D5
:201E400005F048FFFFF7DBFE0446AA2C06D148F68450C0F2010006F0B1FA05E048F668503F
:201E6000C0F2010006F0AAFA002005F03FFF10BD30B444F20001C4F206014FF0B6420124C1
:201E8000002308E048F2A060C0F20100834201D900206CE05B1CC86910F4803FF2D0C868E2
:201EA00010F0004F00D0CA60C8684FF0010C6CF31240C860C86840F00040C860C86810F08C
:201EC000004F00D0CA60C8684FF0010C6CF30B20C860C86840F00040C860C86810F0004F44
:201EE00000D0CA60C8684FF0010C6CF30710C860C86840F00040C860C86810F0004F00D0B7
:201F0000CA60C8684FF0030C6CF30300C860C86840F00040C860886A10F0004F00D08A62CA
:201F2000886A6FF300008862886A6FF359608862886A40F000408862486910F0004F00D050
:201F40004A61886910F0004F00D08A6148696FF30000486188696FF341008861486940F0C1
:201F600000404861886940F000408861204630BC704700B50AF0A7FA05F087FE10F0D7FA8A
:201F80000021B52010F0E4FE0021342010F0E0FEFFF76EFF72B600BDF0B44FF6F076C0F2CD
:201FA000040600253246331D1078D1789478C1EA00605178240200EB01402118B1F5002F19
:201FC00001D3012022E006F10804207891F800C0604501D0012019E01878D9789F78C1EAF3
:201FE000006059783F0200EB01403918B1F5002F01D301200AE006F10904207891F800C059
:20200000604501D0012001E000252846F0BC704710B504466168884710BD00B50AF063FAD2
:2020200000BD00002DE9F04B83B0012446F66165C6F6671546F25346C4F26E564FF61078E8
:20204000C0F20408D8F80070D7E90023019202934FF60C78C0F20408D8E900010090DDF8C9
:2020600000B0DDF80480DDF80890B14504D1A84502D1D847C0B20446204603B0BDE8F08B4B
:2020800000FE002070B505460E4600BF00BF002404F0C2FB0246144670BD70B505460E4678
:2020A00000BFAA68101D04F0CAFB0246144634B902F04BFE4FF4FA6001F07CFD08E0022C82
:2020C00003D1312001F028FD02E0222001F024FD00BF70BD2DE9F04D82B08346019100BF04
:2020E000062704F074FE02460092DBF80820101D03F04EF8024615462846FFF767FC024660
:202100001546DBF8082002F1080003F041F80246164600243FE0C4EB840241F69C73C2F22C
:20212000000303EBC2029068FFF750FC0246924655452ED3EA43B2422BD3C4EB840241F66A
:202140009C73C2F2000303EBC202D268524495421FD2C4EB840241F69C7CC2F2000C0CEB34
:20216000C202D26873195244934212D8C4EB840241F69C73C2F2000303EBC202D26896428A
:2021800007D8002E05D9204604F07FFB0246174608E0621CD4B241F69073C2F200039A79EB
:2021A0009442B8D33A1C05D0023A023A50D9022A52D055E0C4EB840241F6D453C2F2000325
:2021C00003EB4202D278072A25D100240BE0C4EB840241F6D453C2F2000303EB42020023AE
:2021E0001370621CD4B241F69073C2F200039A799442ECD348F68431C0F201010868FFF7B2
:20220000E5FB0246154648F6843CC0F2010C9CE84800F21A561C3146284604F011FD02F05B
:2022200094FD4EF6602001F0C5FC41F22C12C2F20002566141F22C12C2F20002156101F02B
:2022400027FB0028FBD104F006FD60B102270AE0222001F061FC06E0312001F05DFC02E05A
:20226000722001F059FC02B0BDE8F08D30B504460D462946204601F0D4FA0022104630BD37
:202280002DE9F04C84B006460F4692469B46002448F22E15C0F20105D5F800E0EC46CCF862
:2022A00000E0D5F804E0CCF804E0D5F808E0CCF808E0ED68CCF80C5004F093FD8446654616
:2022C0006B465A46514605F5947001F074F93A463146684602F03BFF012800D0012400BF0C
:2022E000204604B0BDE8F08C30B404460D4630BC704710B4044610BC704730B404460D466D
:2023000030BC704710B404464FF0FF31216010BC70472DE9F00404460D461646002310E083
:20232000D4F800A0EF5C48F2401CC0F2010C87EA0A073F06BF0D5CF8077087EA1A272760FA
:202340000133B342ECD3BDE8F004704710B404462168C943216000BF10BC704700002DE9C9
:20236000F04D83B083468A46002640F2E052C2F200021568FEF79EF8024617463C2F44D9DF
:20238000B42F42D200243EE004EB840205EB820252885A4535D104EB840205EB82025268F9
:2023A0000192EA68013A03D307D0022A0AD00EE0019A42F0004201920AE0019A42F0404281
:2023C000019205E0019A42F08042019200E000BFDAF808208DF80220DAF80020029204EBAE
:2023E000840205EB82021288ADF80020694604EB840205EB8202107A0BF0E2FA02461646E7
:2024000003E0621CD4B2002CBED03246104603B0BDE8F08D2DE97041064640F2E051C2F24E
:2024200000010D6800241AE004EB840105EB81010988B14211D104EB840105EB8101096964
:2024400051B104EB840105EB81010A6904EB840105EB81014888904703E0611CCCB2002C8A
:20246000E2D0BDE870812DE9700105460C460122D5F810C06E680CEA06030CEA0406B34266
:202480002ED1EB68052B2AD80FF20408D8E803F003080D151A22B4F1004F00D300221FE0A7
:2024A000B4F1404F00D300221AE0B4F1004F03D3B4F1404F00D2002212E0B4F1004F00D24F
:2024C00000220DE0B4F1004F03D2B4F5806F00D3002205E0B4F1804F00D2002200E000BFAB
:2024E00000BF1046BDE87001704700002DE9F04D82468B4640F2DC52C2F200021568012654
:20250000FDF7D8FF024617463C2F2ED9B42F2CD2002428E0DAF80010C4EB840205EBC20003
:20252000FFF7A1FF024616469AF80430C4EB840205EBC202127A9A4213D196B9C4EB8402E2
:2025400005EBC20252695AB1C4EB840205EBC20253695946C4EB840205EBC202508898471D
:2025600003E0621CD4B2022CD4D3BDE8F08D000010B4044600BF10BC7047000000002DE917
:20258000F04D81B004460D461E46ADF80220376805F1080B0BEB041CDCF804A0D6F808B049
:2025A000BDF8028005F1080E0EEB041CACF8008005F1080E0EEB041CD6F808E0CCF80CE010
:2025C0005A463946504602F098FD01B0BDE8F08D00000000F0B504460D4616462378ABB94F
:2025E00033462A462146A078FFF7C9FF63780BB901236370A378013313F00103A370A3789B
:2026000094F803C0634501D101232370F0BD2DE9F04481B005460C4600228DF8022000228A
:202620008DF8032022681278022A0AD1226852783E2A06D122689278802A02D101F0A7FAA1
:202640003EE00DF103030DF102022146284600F042FA0246164640F21C67C2F20007BA4641
:20266000FF2E2DD09DF8022002F0F002003A06D0103A04D0103A1DD0102A1BD01FE02246A4
:20268000294640F2E450C2F20000FFF7A3FFDAF82420052A0DD106EB8602920048F2D0538E
:2026A000C0F201030B21D05A01F02FF9384600F0DFF905E02146284600F006F800E000BF68
:2026C00001B0BDE8F08400002DE9F04D84B082460C4600228DF8062000228DF807200DF1F6
:2026E00007030DF106022146504600F0F4F9024617469DF80750FF2F00F014819DF80620F1
:2027000002F0F002003A08D0103A2CD0103A00F08C80102A00F0A48003E19DF80660A368FF
:202720006A1C9A1AB2421DD3E6B107EB870248F2D053C0F2010303EB8202A3681269934289
:2027400010D80095F3B2224607EB870C48F2D050C0F2010000EB8C0140F21C60C2F2000083
:2027600000F070FADEE0A268082A5DD3BAF1000F5AD107EB870248F2D053C0F2010303EB74
:202780008202A368126993424ED822689DF806302A44013212781B071B0D9E18AA1CD5B267
:2027A000E6B9D4F800C005EB0C0203321CF805301278C2EA036205EB0C0301331B7842EAE5
:2027C000034205EB0C0302331B781B0243EA02062A1DD5B2B6F5805F00D20026A268082A0F
:2027E00006D19DF80720C2F1080292B296421BD3A268082A07D9A2689DF80730D21A013A66
:2028000092B2964210D300953346224607EB870C48F2D050C0F2010000EB8C0140F21C608B
:20282000C2F2000000F070FA7CE040F21C63C2F200035A6A052A12D1BAF1000F0FD12B46E5
:20284000224607EB870C48F2D050C0F2010000EB8C0140F21C60C2F2000000F0BCFA61E0BD
:2028600040F21C63C2F200035A6D062A58D1A268032A55D3BAF1000F52D19DF8062012F0D7
:202880000F0F10D12B462246C7EB870048F2F85CC0F2010C0CEBC00140F21C60C2F20000C0
:2028A00000F062FB3CE09DF8062012F00F02012A1DD1062240F21C63C2F200035A6540F247
:2028C0001C63C2F20003DA6DFF2A29D84FF47A7000F003FD40F21C62C2F20002908640F286
:2028E0001C63C2F20003DA6D0132DA6518E09DF8062012F00F02022A12D1C7EB8702D20007
:2029000048F2F853C0F201030121D05A01F02FF840F21C61C2F2000101F1300000F0C0F8EA
:2029200000E000BF04B0BDE8F08D2DE9F0410746FF2540F21C64C2F20004002614E0C6EB35
:20294000860148F2F852C0F2010202EBC1014988B94207D1616D083902D00439032901D841
:20296000354603E0711CCEB2002EE8D0FF2D35D0616D0F2931D80FF20808D8E801F0C046FE
:202980002E2E2E2E2E2E2E2E092E2E2E19092219C5EB8501C90048F2F852C0F20102885ABD
:2029A000002100F0E4FF04F1300000F079F85BE0062161654FF47A7000F08FFC0146A1865F
:2029C00052E094F8311084F85810962000F085FC0146A1860921616546E045E0384600F0D6
:2029E00033FC01460D46FF2D3ED0616A022908D1052161624FF47A7000F06FFC0146A1802C
:202A000032E0616A042911D105EB8501890048F2D052C0F20102885A012100F076FF40F21F
:202A20001C60C2F2000000F023F81DE0616A112909D101F008F9E16A4FF448724A60204635
:202A400000F016F810E005EB8501890048F2D052C0F20102885A012100F057FF40F21C6080
:202A6000C2F2000000F004F800BFBDE8F081000010B40446002121700021A1800021A160BD
:202A80000021A181002121610021A1820021A17700212184002161840021616210BC7047A0
:202AA00010B40446002121700021A1800021A1600021A181002121610021A1820021A1778F
:202AC0000021218400216162002184F828100021E16210BC70472DE9F04F83B08A4693465F
:202AE0001F4648F2D05CC0F2010CADF80A00FF260125002448E0BDF80A8004EB840E0CEB4F
:202B00008E0EBEF802E0C6453AD104EB840E0CEB8E0EDEF804E0BEF1010F0ED14FF0000EB2
:202B200087F800E0DAF800E097F8008018F80EE08BF800E02646002522E004EB840E0CEB09
:202B40008E0EDEF804E0BEF1000F19D1DAF8008004EB840E0CEB8E0E9EF808E098F8008083
:202B6000C6450DD14FF0010E87F800E0DAF800E097F8008018F80EE08BF800E0264600250C
:202B800004F1010E5FFA8EF4022C01D2012DB2D0FF2E52D1012500244CE0BDF80A80C4EBF1
:202BA000840E48F2F859C0F2010909EBCE0EBEF804E0F0453AD104EB840E0CEB8E0EDEF8A8
:202BC00004E0BEF1010F0ED14FF0000E87F800E0DAF800E097F8008018F80EE08BF800E0A5
:202BE0002646002522E004EB840E0CEB8E0EDEF804E0BEF1000F19D1DAF8008004EB840EF9
:202C00000CEB8E0E9EF808E098F80080C6450DD14FF0010E87F800E0DAF800E097F800803C
:202C200018F80EE08BF800E02646002504F1010E5FFA8EF40CB9012DAFD000BF304603B069
:202C4000BDE8F08F2DE9F04F82B00E4693461F4601909DF82CC00CF1010C5FFA8CFA019D9E
:202C6000022F14D1DBF8004014F80A403E2C0ED1DBF80040544401342478802C07D1B6F8DE
:202C800002C0BCF1010F02D100F081FF39E06C6A013C02D329D0042C32D1D5F824C0BCF1E7
:202CA000050F09D10B21308800F02FFE40F21C60C2F20000FFF7DCFE00240DE0DBF800E02F
:202CC00004EB0A0818F80EE005F1160C0CF804E004F1010C5FFA8CF4BC42EFD3AF772F61A4
:202CE0003046019900F0A2F90BE00121308800F00CFE40F21C60C2F20000FFF7B9FE00E08B
:202D000000BF02B0BDE8F08F2DE9F04D81B007460E46924600933C46656A013D02D34BD00F
:202D2000042D54D1D4F824C0BCF1050F09D10B21308800F0EAFD40F21C60C2F20000FFF7DF
:202D400097FE9AF808509DF824C0A5EB0C05A57700250FE0DAF800B09DF8248005EB080EE9
:202D60001BF80EB004F1160C0CF805B005F1010C5FFA8CF594F81EC06545EBD3DDF800C06E
:202D8000C4F810C04FF0010C84F800C0DAF808C0C4F828C0002000F0A0FA8446A4F804C00D
:202DA0003946304600F069F98446E3465A463946304600F0ADF90BE00121308800F0A5FD57
:202DC00040F21C60C2F20000FFF752FE00E000BF01B0BDE8F08D2DE9F04F86B08A46164622
:202DE0009B4605904FF0000C8DF801C0059CD4F810C0A78AACEB070CCDF804C0356815F881
:202E00000B5005F00F0C8DF803C04FF0010C8DF802C0D6F808C0A76ABC450CD2DDF804C04D
:202E20000CF10105D6F808C0ADB2AC4503D24FF0000C8DF802C09DF802C0BCF1010F40F0FE
:202E4000908094F800C09DF80380E0450BD00521BAF8000000F059FD40F21C60C2F200007E
:202E6000FFF706FE7DE0257801352570257815F00F052570A56ADDF804C0013DA5EB0B05C2
:202E8000ADB2AC4508D8DDF804C05FFA8CF74FF0010C8DF801C004E0A56A013DA5EB0B052A
:202EA000EFB2002518E0D4F808C0B4F80CE0D6F800800BEB0809A944DCF800C099F8018040
:202EC0000CF80E80B4F80CC00CF1010CA4F80CC005F1010C5FFA8CF5BD42E4D3B4F814C063
:202EE000BC44A4F814C0B4F820C00CF1010CA4F820C09DF801C0BCF1010F1AD14FF00B0CFC
:202F0000C4F824C0BAF800C0A4F822C0DDF81480D8F854C0BCF1000F23D10021BAF8000051
:202F200000F0F3FC40F21C60C2F20000FFF7A0FD17E0D4F828C0D6F808E0F4450AD0012127
:202F4000BAF8000000F0E1FC40F21C60C2F20000FFF78EFD4FF47A7000F0BFF98446A4F8D4
:202F600004C006B0BDE8F08F2DE9F04C81B0834615461F46009107F1020C5FFA8CF607F13D
:202F8000010C5FFA8CFA0BF13004D5F800C01CF80AC0A4F802C0B4F802C0BCF1000F03D14E
:202FA0004FF6FF7CA4F802C0D5F800C01CF806C0BCF17F0F06D9D5F800C01CF806C0BCF15E
:202FC000F10F06D3D5F800C01CF806C0BCF1F90F04D94FF07F0C84F801C015E0D5F800C096
:202FE0001CF806C0BCF17F0F04D94FF0010C84F801C009E0D5F800C01CF8060000F06DF970
:2030000000F1010C84F801C094F801C084F828C0962000F062F98446A4F804C04FF0090C45
:20302000C4F824C000BF01B0BDE8F08CF0B505460E4634462146284600F038F80246174607
:2030400087B90B2262622A886284726DA2B90021288800F05AFC40F21C60C2F20000FFF7FE
:2030600007FD09E00121608C00F04FFC40F21C60C2F20000FFF7FCFCF0BDF0B507460E46D7
:2030800034462146384600F011F80246154615B90122626207E0012D03D13046FFF7E8FC47
:2030A00001E0032262622A461046F0BDF0B506460C460125A2683AB904F10802216930882C
:2030C00000F0FCFB02461546A268DAB1A268A38992689A4216D90025002210E0A36804F19F
:2030E000160CA7891B681CF802C003F807C0A38A0133A382A3890133A381531CDAB2A37F3C
:203100009A42EBD32B461846F0BD0000000000002DE9F04F86B007468B4615464FF0000A4C
:203120005E4601AB039300230593002410E0C4EB840348F2F85CC0F2010C0CEBC303B7F8EB
:203140000AC05B889C4501D1A24603E0631CDCB2002CECD07B68012B13D07B688BB9DDF861
:203160000CC0DDF814E0CAEB8A0348F2F859C0F2010909EBC3031B7C0CF80E30059B0133CA
:203180000593F5B9039BDDF814C04FF0300E03F80CE0059B01330593039BDDF814C04FF04C
:2031A000000E03F80CE0059B01330593039BDDF814C04FF0000E03F80CE0059B01330593C7
:2031C00016E0022D0AD1039BDDF814C04FF0310E03F80CE0059B0133059309E0039BDDF87B
:2031E00014C04FF0320E03F80CE0059B0133059303A800F01AF803A97889FFF7B0F84FF4EE
:203200007A7000F06AF80346B38015B90223736208E0032D02D10423736203E0022D01D163
:203220001123736206B0BDE8F08F10B4044606E02168A26800238B54A1680131A160A168DD
:203240000829F5D310BC7047F0B40546FF23FF22002110E0C1EB810448F2F85CC0F2010C31
:203260000CEBC4046488A54201D10A4605E001F1010C5FFA8CF10029ECD0FF2A28D00021B9
:2032800024E001EB810448F2D05CC0F2010C0CEB84046489A54215D101EB810C48F2D05682
:2032A000C0F20106C2EB820406EB8C0648F2F85CC0F2010C0CEBC4047688A488A64201D1AF
:2032C0000B4605E001F1010C5FFA8CF10229D8D300BF1846F0BC7047000010B40446611C02
:2032E00089B2084610BC7047F0B404460D46164600230DE05F1901373F78802FEF5C2CBFC9
:203300004FF0010C4FF0000C0CEB4707F7540133A4F1010C6345EDDBA4F1010C0CEB06079A
:20332000AC449CF800C04FEA4C0C87F800C0F0BC70472DE9F00C05460E4617469C46002402
:2033400008E017F804A016F804B08AEA0B0A0CF804A00134AC42F4DBBDE8F00C70472DE97F
:20336000F044D8B007460C461646012548F21063C0F20103D3F800C0CDF830C1D3F804C03D
:20338000CDF834C1D3F808C0CDF838C1DB684F9350A81022002101F0C9FE48A810220021B7
:2033A00001F0C4FE02A84FF48C72002101F0BEFE394602A88022FDF7AAF803461D4654AD93
:2033C00050AB8DE8280048AB02A810220121FEF7E7F903461D469DF85031802B05D22246E3
:2033E00054A91020FFF780FF0AE0224654A91020FFF77AFF23464CAA21461020FFF799FFB9
:203400002378802B05D2324621461020FFF76CFF0AE0324621461020FFF766FF33464CAA5C
:2034200031461020FFF785FF2B46184658B0BDE8F084F0B406460C461546002315E0AB42D9
:2034400004D216F803C004F803C00AE0AB4204D14FF0800C04F803C003E04FF0000C04F8A6
:2034600003C003F1010C5FFA8CF3102BE7D3F0BC70472DE9F04DDDB007468A469B460292E6
:203480004DA81022002101F051FE07F10F0C4FEA1C1515B90125002605E017F00F0F01D131
:2034A000012600E0002646B1659A51AB681E0AEB00111020FFF73DFF0DE007F00F024DA914
:2034C0006B1E0AEB0310FFF7B4FF51AB4DA91020669AFFF72EFF002409E00DF5B27C4FF0F1
:2034E000000E0CF804E004F1010C5FFA8CF4102CF3D3002426E055AB0AEB041259A9102092
:20350000FFF717FF49A81022002101F00FFE03A84FF48C72002101F009FE594603A880226C
:20352000FCF7F5FF0DF5B27E0DF5AA7C8DE8005049AB03A810220121FEF732F904F1010C70
:203540005FFA8CF4A5F1010C6445D4D355AB51AA59A91020FFF7EDFE49A81022002101F05C
:20356000E5FD03A84FF48C72002101F0DFFD594603A88022FCF7CBFF0DF5B27E0DF5AA7C8C
:203580008DE8005049AB03A810220121FEF708F900240BE00DF5B27CDDF808801CF804C009
:2035A00008F804C004F1010C5FFA8CF4102CF1D35DB0BDE8F08D2DE9F04C8AB005460E4612
:2035C00017469A46002448F2206CC0F2010CDCF800E0CDF818E0DCF804E0CDF81CE0DCF847
:2035E00008E0CDF820E0DCF80CC0CDF824C048F2306CC0F2010CDCF800E0CDF808E0DCF80B
:2036000004E0CDF80CE0DCF808E0CDF810E0DCF80CC0CDF814C002AA06A92846FFF79FFE0F
:203620000DF1080E0DF1180C8DE800502B46524631463846FFF71DFF00BF20460AB0BDE8FB
:20364000F08C2DE9F04D81B006460F4694469A46BAF1010F02D14FF6FF7400E0644600251A
:2036600013E016F805E08EEA242B4FEA0B6B4FEADB5B48F2406EC0F2010E3BF80EB08BEA70
:20368000042B1FFA8BFB5C460135BD42E9D300BF00BF204601B0BDE8F08D70B4044642F270
:2036A0000001C4F20301012294B30B69D4F80CC06CF300030B610B69D4F808C06CF382031F
:2036C0000B610B6913F0010F06D1CB68D4F804C06CF30F03CB6001E06368CB60636923B942
:2036E0000B6943F0C0030B6105E00B694FF0020C6CF387130B610B69D4F810C06CF3051362
:203700000B610B6943F002030B6123688B60002200BF104670BC704700B548F64800C0F2A8
:203720000100FFF7BAFF002000BD2DE9F04D83B084460E46964642F20005C4F203050293F0
:203740000024BEF1010F07D12F6947F002072F61DDF80880C5F808802F696FF341072F61D2
:203760001DE004EB0C0701373F781CF804A04AEA072704EB0C0A0AF1020A9AF800A047EAD2
:203780000A4704EB0C0A0AF1030A9AF800A04FEA0A6A4AEA070BC5F808B00434043E042E85
:2037A000DFD205E01CF804A085F808A0013E0134002EF7D82F69BF06BF0F0FB1012F04D135
:2037C000D5F808801FFA88FA03E0D5F808804FEA184A00BF504603B0BDE8F08D00B5002027
:2037E0000CF042FE00BD30B404460D4625646A6AA260AA6AE260EA6A22612A6B62616A6B96
:20380000A261AA6BE261EA6B226205F1400262626A6CA26205F14802E262EA6C226330BC53
:203820007047F0B506460F4640F27435C2F2000540F2BC64C2F2000429462046FFF7D3FF50
:2038400007206063214600200CF032FE05463A463046216A01F051FC2846F0BD10B540F2AF
:203860004074C2F20004022000F0BFF8002000F0EDF800F03DFB04F5E670A06004F13C0076
:20388000E06100F088F800F0A4F800F057FB10BD4DF8048D40F24071C2F2000148695DF868
:2038A000048B704710B50446204600F09EF810BD00B500F037FB00F044FA00BDF0B4054649
:2038C0000E46174640F24074C2F200040023D4F800C0BCF1000F13D1CC2D01D0FF2D0FD174
:2038E000B6F5006F0AD84FF0010CC4F800C0A580266104F1080CC7F800C002E0032300E0E8
:20390000012300BF1846F0BC704770B505460E4640F24074C2F20004206801280AD12EB92E
:20392000A088854202D100F0A7F903E000F051F800F031F870BDF0B506460F4640F24075A6
:20394000C2F2000500246A69022A08D12A8B964205D105F11C023A6001226A6104E000F0DF
:2039600038F800F018F8012422461046F0BD70B505460E4640F24074C2F2000446B9228B79
:20398000954205D194F82D2012B90022626101E000F001F870BD30B540F24074C2F2000477
:2039A00025460020A06200206061002084F82C00012084F82D0000F036FA00F00EFA94F863
:2039C000CC09012802D100F0E5F901E000F0DFF830BD2DE90041002040F24071C2F20001A4
:2039E000086000F03BF9BDE800812DE91001044641F20C11C2F200010C70BDE810017047B6
:203A00004DF8048D41F20C11C2F2000108785DF8048B70472DE9F00104460D4600230022C7
:203A20000DE041F20C1CA75CC2F2000C9CF800C0BC4500D1012302F1010C5FFA8CF2AA426E
:203A4000EFD300BF1846BDE8F00170472DE91001044641F20C11C2F200010C71BDE8100191
:203A600070474DF8048D41F20C11C2F2000108795DF8048B704710B40446012141F214130E
:203A8000C2F2000353F82420002A00D9002100BF084610BC70472DE9F00104460D46002365
:203AA00000220DE041F20C1CA75CC2F2000C9CF804C0BC4500D1012302F1010C5FFA8CF2B4
:203AC000AA42EFD300BF1846BDE8F001704730B404460D46A20041F21413C2F200039D50AD
:203AE00030BC70472DE91001044641F20C11C2F200014C80BDE8100170472DE900410120FC
:203B000040F24071C2F2000181F82D0000F0BDF9FFF75FFFBDE8008170B5064640F24074F0
:203B2000C2F20004E569782E02D0012184F82D107F212970A16809786970AE70032161628B
:203B400000F0A3F994F82D10012901D1FFF741FF70BD70B505460E461446ADB9CC2E0BD058
:203B6000FF2E0DD1112C0BD0122C09D0312C07D07E2C05D07F2C03D02046FFF7CDFF03E0CF
:203B8000FFF727FFFFF707FF2B46184670BD10B440F24074C2F2000494F8CC09012802D053
:203BA00041F28830E08510BC704700B5012000F00CF800BD2DE91001044640F24071C2F2A3
:203BC00000018C63BDE8100170472DE91001044640F24071C2F200010C86BDE81001704780
:203BE00030B540F23C75C2F2000505F12004206850210170206802214170206800218170CA
:203C000020683221C1702068012101712068F42141710620A06000202860FFF76EFFFFF706
:203C2000B6FF30BD2DE90041002040F23C71C2F200010860FFF7ABFFBDE8008140F24070C7
:203C4000C2F2000070474DF8048D002040F24071C2F2000148615DF8048B7047002007E020
:203C600040F60C11C2F20001FF220A54411C88B2B0F5006FF4D3704710B540F24074C2F235
:203C80000004022020603220FFF79FFF00F0B1F800F080F8012084F82C00002084F82D0005
:203CA00010BD2DE9F04C40F24074C2F20004002548F6C806C0F20106002715E0A068317890
:203CC000007881420DD1A088CC2802D17078C00705D4A088FF2803D17078800700D5A662E5
:203CE00004E01836781CC7B20A2FE7D3A06AF8B1A06A0069E0B1A06A81784068FFF78AFEB2
:203D00008246A06A017AC068FFF7C5FE8346BAF1000F01D17F250CE0BBF1000F01D13325AB
:203D200007E0A06A026904F114012046904700E0112525B12A460020A188FFF70AFFBDE897
:203D4000F08C30B581B040F24074C2F200046069F0B994F82C00012805D1002084F82C0042
:203D6000FFF79FFF14E094F82D0088B90DF1030002F02AFF0546012D0AD1A06A406938B1B5
:203D8000A06A04F11402214643699DF80300984701B030BD4DF8048D002040F24071C2F259
:203DA0000001C8855DF8048B704730B540F24074C2F20004E08D78B12146C88D0138C885BF
:203DC000E08D48B9FDF7A9FD0446FEF7E5F8054614B90DB9FDF7B1FD30BD4DF8048D6FF01D
:203DE000FE0040F24071C2F2000148635DF8048B704710B440F24074C2F2000400206063A2
:203E000041F28830A06310BC704710B440F24074C2F20004606B002803DB2146486B0130B3
:203E2000486310BC70474DF8048D002040F24071C2F2000108865DF8048B704730B540F286
:203E40004074C2F200040025208EE8B1208E01382086208E10B9606900B90125606B0028EB
:203E60000DDB606BA16B884209D2012D0CD17820FFF752FE41F28830FFF7A7FE04E010205B
:203E8000FFF74AFEFFF7A9FF30BD10B540F24074C2F2000402206061AA20208304F11C0194
:203EA000208B04F097FA00BF10BD70B541F21415C2F2000502F090FF0646002415E055F8D9
:203EC000240000280FD9A10068580138685055F8240040B956F82400022804D3A0000021BE
:203EE000315002F0F6FE601CC4B2002CE7D070BD4DF8048D002041F20C11C2F20001488096
:203F00005DF8048B704710B541F20E14C2F20004208830B1208801382080208808B9FDF7CD
:203F20000CFD10BD00B5FFF7C0FFFFF73EFFFFF785FFFFF76AFFFFF7E6FF00BD4DF8048DC7
:203F400041F22C10C2F20000012141710021017100210160002181710021C160002141F2AC
:203F60001812C2F200021170002101610021416100218160002101765DF8048B70472DE94F
:203F8000F04F82B007460D4601228DF8002000228DF8012000264FF0000BBA68527812F022
:203FA000800202D000228DF80020BA68527812F07F028DF802204FF0000A1CE048F6B81382
:203FC000C0F2010303EB0A129DF80230127893420DD14FEA0A1248F6B813C0F2010302EB1C
:203FE000030B9DF8026001228DF8012006E00AF101025FFA82FABAF1020FDFD30220396908
:2040000000F0C7FE02461446012C07D11222B9889DF80100FFF79DFD02461446012C0ED1FB
:204020009BF80110DBF80400FFF7F4FC0246144620467E22B988FFF78CFD02461446012CE8
:2040400005D10220396900F097FE02461446012C07D19BF80810DBF80C0000F0A7FE024633
:204060001446012C65D1002241F21813C2F200031A700020FFF7EAFCFFF7C2FC02468DF845
:2040800003203046FFF7B1FC02F0B5FE9DF80020012A3CD1AA6850231370BB68AA685B7842
:2040A0005370022E20D1AA6800239370AA683223D37002F09AFB002241F22C13C2F2000368
:2040C0009A60002241F22C13C2F200031A71002241F22C13C2F20003DA60002241F22C13F7
:2040E000C2F200039A7107E0012E05D1AA6800239370AA683223D370AA6801231371AA6864
:20410000F423537106222A61FFF7F7FC03E0FFF760FCFFF740FC9DF80320022A05D1012ED8
:2041200003D13220FFF7DEFC03E0022E01D1FDF7ADFD02B0BDE8F08F2DE9F04D82B007465E
:2041400001914FF0000A01244FF0010B0026BA68527812F0800201D04FF0000BBA68527877
:2041600012F07F028DF80320002515E048F6D813C0F2010303EB05129DF8033012789342EF
:2041800008D12A0148F6D813C0F20103D6184FF0010A03E06A1CD5B2002DE7D0BAF1010F75
:2041A0000CD171787068FFF735FC0246144620467E22B988FFF7CDFC02461446012C05D1ED
:2041C0000220396900F0E5FD02461446012C06D150461222B988FFF7BCFC02461446012C1B
:2041E00003D100F009FE02461446012C05D10220396900F0C1FD02461446012C05D1317A8D
:20420000F06800F0D3FD02461446012C18D1BBF1010F0ED1019B9A6851231370019B9A6800
:204220009DF803305370019B02221A61FFF765FC03E0FFF7CEFBFFF7AEFB2320FFF752FC99
:2042400002B0BDE8F08D2DE9F04F92B007460391002600228DF80320002202924FF0000B22
:204260000320396900F095FD02461446012C09D13A69D20706D413220020B988FFF769FC07
:20428000024614463A69013A520802923A69013A52080E2A07D33A69013AD20703D41320A5
:2042A000FFF73AFC0024012C4AD100244FF0000A43E0BA68013202EB4A0212781202ADF805
:2042C0000620BA68BDF80630023202EB4A0212781A44ADF80620002521E0C5EB850248F6F0
:2042E000E813C0F2010303EB8202BDF806301288934213D14FEA8B030DF1100CC5EB850245
:2043000048F6E81EC0F2010E0EEB82024CF803200BF101021FFA82FB012402E001350E2DA7
:20432000DBD3012C07D031220020B988FFF711FC0246144604E00AF1010A029A9245B8D38A
:20434000012C11D100250DE0012C09D104AB53F825209178506800F029FD0246144600E09D
:2043600002E001355D45EFD3012C03D100F044FD02461446012C4CD100253AE004AB53F86A
:20438000252092682AB3039B9A680DF1100C3244531C5CF82520128812121A70039B9A68E1
:2043A0000DF1100C3244931C5CF8252012881A70039804AB53F82520836801A93344D81C27
:2043C0009268904702468DF80320BDF80420324496B29DF803200AB100240CE0B21C96B2EC
:2043E000B6F5C87F04D31420FFF796FB002402E001355D45C2D3012C0BD19DF8032042B90A
:20440000039B9A6862231370039B721C1A61FFF774FB12B0BDE8F08F2DE9F04E82B007462F
:20442000019100BF00228DF803200025BA6852784FEA022ABA68927852441FFA82FA00266E
:2044400014E048F6AC23C0F2010303EB06121288924509D1320148F6AC23C0F20103D51871
:2044600001228DF8032003E0721CD6B2022EE8D30420396900F08DFC02461446012C07D1A7
:204480003122B9889DF80300FFF763FB02461446012C06D139696A88D01C00F06DFC0246D5
:2044A0001446012C05D12979A86800F07FFC02461446012C03D100F09FFC02461446012C85
:2044C00018D1EA683AB1EB686988BA68D01C98470246934601E04FF0010BBBF10B0F03D19E
:2044E0002220FFF719FB05E0BBF1000F02D07220FFF712FB02B0BDE8F08E2DE9F04F82B00D
:204500000746019100228DF801200025BA6892F801B0002623E0C6EBC60248F69023C0F22D
:20452000010303EB8202127893450AD0C6EBC60248F69023C0F2010303EB82029278934555
:204540000BD1C6EBC602920048F69023C0F20103D51801228DF8012003E0721CD6B2002EF0
:20456000D9D00220396900F014FC02461446012C07D11222B9889DF80100FFF7EAFA0246FA
:204580001446012C3BD1287900F03EFC02468DF803202A7893451FD14FF0020A50463969E0
:2045A00000F0EAFB02461446012C0DD19DF80300FFF761FA02468DF802209DF802201AB917
:2045C0003720FFF7A9FA0024012C18D139462846019A00F033FC12E0AA7893450FD1EA78DC
:2045E00002F1020A5046396900F0C6FB02461446012C04D139462846019A00F064FC02B0A5
:20460000BDE8F08F2DE9F04F81B005468A4600228DF802200026AA6892784FEA022BAA6852
:20462000D2785A441FFA82FB002718E007EBC70248F6CC23C0F2010303EB8202128893455B
:204640000BD107EBC702920048F6CC23C0F20103D61801228DF8022003E07A1CD7B2032F62
:20466000E4D30420296900F094FB02461446012C07D13122A9889DF80200FFF76AFA0246EA
:204680001446012C0CD13179B068FFF7C3F90246144620463122A988FFF75BFA02461446C9
:2046A000012C05D1317B306900F080FB02461446012C13D1AA6852788DF803209DF8032058
:2046C000317DB06900F082FB0246144634B912220020A988FFF73DFA02461446012C06D1BF
:2046E00029697288101D00F047FB02461446AA689278FF2A02D1AA68D2783AB1AA689278B2
:20470000022A04D1AA68D278062A00D10124012C16D1DAF8082071231370AB68DAF80820E4
:204720005B785370AB68DAF808209B789370AB68DAF80820DB78D37051462846F2699047E6
:2047400001B0BDE8F08F2DE9F04F84B00646039148F6383AC0F2010A0520316900F019FBEB
:2047600002461446002241F22C13C2F2000383F8242000228DF80320012C2DD1B26892F8F4
:2047800001B0B26892788DF80120002518E00AEBC5021278934511D10AEBC5029DF80130FF
:2047A000527893420AD101228DF80320EA0048F63833C0F2010303EB020A03E06A1CD5B281
:2047C000022DE4D39DF8032032B931220020B188FFF7BFF902461446012C05D10B2031698C
:2047E00000F0CAFA02461446012C4CD1B268D01C00F0CEFC024617463846FDF7E7F802461B
:204800001746B268D01D00F0C3FC024602923846029902F0D6F802468DF802209DF802202A
:20482000052A04D13120FFF777F900242BE048F63830C0F2010000EBC5029178506800F0D2
:20484000B5FA012801D000241DE09DF80220022A0CD041F22C13C2F200039A6832B941F286
:204860002C13C2F200039A79012A04D12220FFF753F9002407E09DF80220082A03D1702053
:20488000FFF74AF90024012C16D1BBF1000F08D19DF80120442A04D13046039900F08BFB92
:2048A0000AE0BBF1100F07D19DF80120442A03D13046039900F0B4FB00BF04B0BDE8F08F2B
:2048C0002DE9F04D83B0834641F22C15C2F2000502914FF0000A2E790320DBF8101000F0D3
:2048E00058FA02461446012C33D1DBF8082052788DF80320DBF81020971E02F088FA0246B2
:204900000192AA79012A08D19DF80320012A04D07320FFF701F900241BE09DF803209642F4
:2049200017D1019AAAB1019A032A12D0EA68BA420FD1029B9A6876231370029B9A68DBF894
:2049400008305B785370029B02221A61FFF7D5F80024012C14D13946286802F003F902460F
:204960009246BAF1020F04D12420FFF7D5F8002406E0BAF1050F03D17120FFF7CDF80024BA
:20498000012C09D19DF8032032B9AA79012A03D17320FFF7C1F80024012C0DD1FF2E01D1DB
:2049A000002601E0721CD6B29DF80320964203D07320FFF7B1F80024012C21D1DBF81020FF
:2049C000971E00F0C2F9AA68012A13D1DBF808203946901C02F058F80246924695F82420FD
:2049E00012B92A683A442A60BAF1000F02D10022AA712E71012C03D1EF600022AA712E71BD
:204A000003B0BDE8F08D2DE9F04106460F46012402F0FDF9022806D10120316900F0ACF97B
:204A20000246144603E02420FFF776F80024012C1ED102F0B1F802461546B5B9002241F208
:204A40002C13C2F200039A60002241F22C13C2F200031A7100210846FDF714FB00F075F9C0
:204A60004FF4FA60FFF7A6F802E02420FFF754F800BFBDE8F0812DE9F04D81B005468B4628
:204A800000274FF0010AAA68527812F0800201D04FF0000AAA68527812F07F028DF8032024
:204AA00000260DE048F6C302C0F2010232449DF803301278934201D1012703E0721CD6B29B
:204AC000002EEFD00220296900F063F902461446012C06D138461222A988FFF73AF80246F0
:204AE0001446012C05D10220296900F045F902461446012C15D1BAF1010F0ED1DBF808202D
:204B00007E231370AB68DBF808205B7853700222CBF81020FEF7F1FF03E0FEF75AFFFEF7AB
:204B20003AFF00BF01B0BDE8F08DF0B506460D4614468EB9A3684FF06E0C83F800C0AF68AF
:204B4000A3687F785F70AF68A368BF789F7003232361FEF7D2FF02E07220FEF7DDFFF0BDBA
:204B60002DE9F04D82B083460E4614464FF0000AB36893F802C0DB7803EB0C239FB20025A2
:204B800018E005EBC50348F6CC2CC0F2010C0CEB83031B889F420BD105EBC50348F6CC2CA5
:204BA000C0F2010C0CEB830301934FF0010A03E06B1CDDB2032DE4D3BAF1010F4CD1DDF84E
:204BC00004C0DCF820302BB10198036A2246314658469847BBF1000F24D140F21228B7EBF1
:204BE000080304D04FF6EE48434514D019E0012341F22C1CC2F2000C8CF81830A3684FF081
:204C0000100C83F804C0A3684FF0000C83F805C002F027FE25E0A3684FF0100C83F804C0E2
:204C20001FE01EE040F21228B7EB080304D04FF6EE48434509D00EE0A3684FF0100C83F8DF
:204C400004C0A36883F805B00BE0A3684FF0110C83F804C005E004E0A3684FF0010C83F829
:204C600004C0A3684FF0710C83F800C0D6F808C0A3689CF801C083F801C0D6F808C0A3689B
:204C80009CF802C083F802C0D6F808C0A3689CF803C083F803C040F21228B7EB080304D05E
:204CA0004FF6EE48434503D005E00623236103E00523236100E000BFFEF71FFF02B0BDE8F4
:204CC000F08DF0B505460E4614466DB9A3684FF0760C83F800C0B768A3687F785F70022377
:204CE0002361FEF70AFF02E07220FEF715FFF0BD2DE9F04181B005460E46144648F6483CD5
:204D0000C0F2010CBCF80030ADF80230BDB90DF1020000F0BFF9A3684FF0770C83F800C0F3
:204D2000A3689DF802C083F801C0A3689DF803C083F802C003232361FEF7DFFE02E0722045
:204D4000FEF7EAFE01B0BDE8F08100B57820FEF7E3FE41F28830FEF738FF07E002F09FFFFE
:204D6000012801D106F096FE06F08FFEFEF766FF40690028F2D100BD70B505460E46012497
:204D8000AE4203D000241320FEF7C6FE2246104670BD70B505460E460124AE4203D2002483
:204DA0001320FEF7B9FE2246104670BD70B505460E4631462846FEF76EFE0246144614B9B0
:204DC0003320FEF7A9FE2246104670BDF0B405460E4617460024002308E015F803C06745AE
:204DE00000D1012403F1010C5FFA8CF3B342F4D300BF2046F0BC704710B5012414B92220A7
:204E0000FEF78AFE012010BD30B40446FF2200210EE0C1EBC10348F6902CC0F2010C0CEBA9
:204E200083031B799C4201D10A4603E04B1CD9B20029EED000BF104630BC70472DE9F04C92
:204E400081B004468B46164641F21815C2F200054FF0010AFEF705FE03461F462079FFF712
:204E6000D3FF03468DF803302379BB4205D1E81C0021627800F05AF907E001232B7023786D
:204E80006B70E81C636961789847BAF1010F16D1B3684FF0670C83F800C0DBF808C0B3684F
:204EA0009CF801C083F801C06278B368E91C981C00F023F9637802333361FEF71EFE00BF33
:204EC00001B0BDE8F08C2DE9F04D82B005468B46924641F21817C2F2000701F07DFF0346B4
:204EE0001E462879FFF790FF03461C463B1902334FF0000C83F800C07B7895F800C0634586
:204F000053D13B78012B50D100233B70FEF7C0FC0028FBD1D5F818806B78E978DBF808C0B6
:204F2000FA1C0CF10200C04703468DF803309DF8033003BB56F8243033B1A3004FF0000C5A
:204F400046F803C001F0C5FE2879FEF77FFDDAF808304FF0670C83F800C0DBF808C0DAF826
:204F600008309CF801C083F801C00223CAF81030FEF7C3FD1CE04FEA840C56F80C30013309
:204F800046F80C3056F82430022B03D23520FEF7C3FD0DE001F09DFE42F210712046FEF760
:204FA00096FD3620FEF7B8FD02E02420FEF7B4FD02B0BDE8F08DF0B506460D4641F22C1407
:204FC000C2F20004002222760122A271002222710122A260B268D01C00F0DAF802462260BD
:204FE0002068FCF7F3FC02462260B268D01D00F0CFF8024617463946206801F09BFCAA6879
:2050000074231370AA6820235370AA6808239370AA680023D37004222A61FEF76EFDF0BDE8
:20502000F0B506460D4641F22C14C2F2000403F0AFFE00222276012284F824200122A2718E
:20504000002222710122A260B268D01C00F0A0F8024622602068FCF7B9FC02462260B2680A
:20506000D01D00F095F8024617463946206801F061FCAA6874231370AA6820235370AA6876
:2050800008239370AA680023D37004222A61FEF734FDF0BD10B5044602F02FFBC0F30721E0
:2050A000217002F02AFB0146617010BDF0B405460E4617469C4600BF00BF00BF00BF0024C1
:2050C0002046F0BC7047F0B405460E4617469C4600BF00BF00BF00BF00242046F0BC70479C
:2050E000F0B405460E4617469C4600BF00BF00BF00BF00242046F0BC70472DE9F0040646EF
:205100000F46944633463C4665460AE03BB134B194F800A083F800A00133013400E002E08D
:20512000013D002DF2D8BDE8F0047047F0B405460E4617462B463C4605E013B11E700133EC
:2051400000E002E0013C002CF7D8F0BC70472DE9F04C84468A4617460123644655463E46BC
:205160000FB9002310E00DE04CB145B194F800B095F800E0F34502D10134013501E0002351
:2051800002E0013E002EEFD800BF1846BDE8F08C10B4044622781106627812041144A2789D
:2051A00012021144E278114400BF084610BC70472DE9F04C064641F25C14C2F2000404F159
:2051C000480704F1380A04F1340B012536B90423002211461520FFF769FF0025606B0228B3
:2051E00002D0606B032806D10623002211461520FFF769FF0025012D46D12660002116E0D4
:20520000C1EB8102231D03EB820201239360C1EB8102231D03EB820200231360C1EB8102F0
:20522000231D03EB8202002353604A1C91B2226812889142E4D3002084F84500002084F812
:205240004400002020640020E0630020A0630020A4F848000020E064022020650020E0656C
:2052600000202066002060650020A065002084F86A000020A4F86800002020670020E06647
:205280001420606603206063BDE8F08C10B4044600BF10BC70472DE9F04D83B08A469B4686
:2052A00041F25C14C2F20004ADF80A0001920127BDF80A0000F00DFA0546616B31B901234E
:2052C000022200211520FFF7F1FE54E0019830B90423022200211520FFF7E8FE4BE04FF6CC
:2052E000FF718D4206D102231A4600211520FFF7DDFE40E021684968C5EB850001EB400130
:2053000049888A4506D30323022200211520FFF7CDFE30E0BBF1000F0AD023685B68C5EB10
:20532000850003EB40035B880BEB0A01994206DD0523022200211520FFF7B8FE1BE0616B00
:20534000022912D0616B03290FD0A4F84850C4F85CA0C4F860B0019860650121E1640221C9
:20536000216502216163002705E00623022200211520FFF7A8FE384603B0BDE8F08D2DE90C
:20538000F04C82460F4641F29014C2F2000404F1140B0125504600F09CF90646206830B913
:2053A0000123032200211520FFF780FE28E037B90423032200211520FFF778FE20E04FF68F
:2053C000FF70864206D10223032200211520FFF76DFE15E0206802280CD02068032809D0AF
:2053E000A6820220A0610220E061676202202060002505E00623032200211520FFF763FE8F
:205400002846BDE8F08C2DE9004141F29011C2F20001086828B90123042200211520FFF736
:2054200045FEBDE800814DF8048D41F29011C2F2000108685DF8048B704730B541F29015DC
:20544000C2F200050124286830B90123062200211520FFF72BFE00E0EC69204630BD2DE996
:20546000F044074641F29014C2F2000404F1140A0025384600F02DF90646206830B901236F
:20548000072200211520FFF711FE01254FF6FF70864206D10223072200211520FFF706FE71
:2054A00001252068022802D02068032806D10623072200211520FFF706FE01253DB9A682D2
:2054C0000320A0610220E0610220206000BF2846BDE8F0842DE9F044074641F25C14C2F26F
:2054E000000404F1480A0025384600F0F2F80646606B30B90123092200211520FFF7D6FD76
:2055000001254FF6FF70864207D020684068C6EB860100EB4100007930B9022309220021AB
:205520001520FFF7C3FD0125606B022802D0606B032806D10623092200211520FFF7C3FD66
:20554000012545B9A4F848600420E064022020650220606300BF2846BDE8F0842DE97041E2
:2055600041F29014C2F2000404F114062068002841D0E06902283ED1A06904280BDD0CF031
:20558000D1F80546022D36D015B900F038F832E000F060F82FE0A069042815D80FF204083C
:2055A000D8E800F00306090C0F0000F0D8F80CE000F03AF909E000F068F906E000F091F9A5
:2055C00003E000F0BEF900E000BFE069022812D0E06940B92068032802D1012020600AE0FA
:2055E0000120206007E02068032802D10020206001E001202060BDE870810000000070B5C0
:2056000041F29014C2F20004012504F11406A069142808D10020E0612068032801D125603D
:2056200017E0256015E000F0A5F8E061E06930B92068032801D125600BE0256009E0E0694D
:20564000022806D02068032802D10020206000E0256070BD2DE9304141F29014C2F200047C
:2056600004F11405E069032831D0A06914282DD80FF20408D8E800F02A2A2A2A2A1515158F
:205680001E15101E1E0B1E1E1E1E1E1E1E00002000F08AFEE0611AE0002000F051FCE0613D
:2056A00015E0A068603060600CF03CF8E061012020600CE00CF036F8E0612068032802D1AE
:2056C0000020206001E00120206000E000BFBDE830812DE9F004064641F25C1CC2F2000CF2
:2056E0000022DCF800000088441E4FF6FF7A16E0A11A01EBD17040101318DCF80000406837
:20570000C3EB830149000D5AAE4201D25C1E06E0AE4201D95A1C02E01FFA83FA01E0A24207
:20572000E6DD5046BDE8F004704730B541F29414C2F20004607B48F65431C0F20101C00036
:205740000D5804F13C01284620220BF0FDFF08B1012100E002210A206061084630BD10B542
:2057600041F29414C2F2000400206073FFF7DDFFA06110BD2DE91041012441F2A411C2F2DB
:205780000001486813284BD80FF20408D8E800F048484848480A0E12161A1E23272B303484
:2057A000383C404400F04BFB04463AE000F098FB044636E000F0B2FB044632E000F0CFF8C4
:2057C00004462EE000F0DDF804462AE0012000F0B7FB044625E000F04AFC044621E000F0D5
:2057E000AFFD04461DE0012000F0DEFD044618E000F09AF9044614E000F0C6F9044610E0DE
:2058000000F0C1FA04460CE000F0FBFA044608E000F0DAFA044604E000F021FA044600E069
:2058200000BF2046BDE81081F0B541F26014C2F2000404F14407B4F84400C0EB800004EBBF
:2058400080008568B4F84400C0EB80008000065965B9E26D216DA06D30440BF075FF10B135
:205860000120E0640EE00220E0640BE0012D02D10520E06406E0022D02D10420E06401E0E9
:205880000120E0641420A064F0BD30B541F25C14C2F2000404F148052168B4F8480049680E
:2058A000C0EB800001EB40000079012810D1B4F84800211DC0EB800001EB80008068022833
:2058C00003D100F0BCFA20650AE00120206507E000F092F82065E06C0E2801D00520E06497
:2058E00030BD30B541F26014C2F2000404F14405B4F84400C0EB800004EB8000806801289E
:2059000004D11420A0640020E06419E004F17000552100F0E5FCB4F84400C0EB800004EB67
:205920008000406804F17001103010220BF079FE10B90220E06401E00120E0640820A06454
:2059400030BD10B541F2A414C2F2000400F054F8A06060680E2801D00920606010BD10B46D
:2059600041F26014C2F20004B4F844000121C0EB800004EB800081601420A064002010BC17
:205980007047F0B441F25C14C2F2000404F1480304F13805211D2668B4F848007668C0EB96
:2059A000800006EB40004288A06B801AA063E06B3030E063B4F848004FF0020CC0EB80006A
:2059C00001EB8000C0F808C0B4F84800D4F838C0C0EB800001EB8000C0F800C0B4F8480020
:2059E000E66B203EC0EB800001EB800046601420E0640020F0BC70472DE9F04481B041F212
:205A00005C14C2F2000404F1380A2168B4F848004968C0EB800001EB40004688A16BE26B7B
:205A200006F16000891A884203D900F027F8054620E0A06B871B04F1740000902568B4F88D
:205A400048C06D68CCEB8C0005EB400003793A463146CCEB8C0005EB4000008800F035FD66
:205A600004F174011022E06B0BF0DBFD08B1012500E00225284601B0BDE8F08470B541F2F6
:205A80009414C2F2000404F110066069E06200202086207B013084F8320094F83200022868
:205AA00002D1002084F8320094F8320048F65431C0F2010101EBC0000068606394F832007B
:205AC00048F65431C0F2010101EBC001606B49680844A063606B2030606300F003F80546C3
:205AE000284670BD70B541F2A414C2F2000494F8220048F65431C0F20101C0000D5894F86D
:205B0000220048F65431C0F2010101EBC0004668314628460BF027FD08B9022100E00121A8
:205B20000E206060084670BD2DE9F04441F29414C2F2000404F1100A94F8320048F654318F
:205B4000C0F20101C0000D5894F8320048F65431C0F2010101EBC0004668A76804F13C039A
:205B600032462946781C00F0ADFA04F13C01284610220BF056FD08B9022100E001210F20DE
:205B800060610846BDE8F0842DE9F04D84B041F25C15C2F20005B5F8684014E0C4EB84007D
:205BA000291D01EB8000866829684968C4EB840001EB400007791EB1012F02D1022E00D151
:205BC00005E0601C84B2286800888442E6D3A5F8684028680088844203D100F0B3F882463D
:205BE00039E029684968C4EB840001EB4000B0F802B029684968C4EB84004000405AADF89D
:205C00000A00286FA0EB0B00019005F1740000903B465946019ABDF80A0000F056FC05F110
:205C200074011022E86E0BF0FCFC10B14FF0010A01E04FF0020A16B91020E86406E0B5F85F
:205C400068000130A5F868000F20E86401982867E86E3030E866504604B0BDE8F08D2DE97D
:205C6000F04D83B041F25C14C2F2000404F1040A94F86A0048F65431C0F20101C0000E58C3
:205C800094F86A0048F65431C0F2010101EBC000406837182036002532E021684968C5EB7D
:205CA000850001EB400000798DF80300C5EB85000AEB8000806850B1C5EB85000AEB8000F5
:205CC000806802281AD19DF80300012816D121684968C5EB850001EB4000B0F802B0A7EB98
:205CE0000B073036C5EB85000AEB80000760C5EB8500A6F120010AEB80004160681C85B25D
:205D0000206800888542C8D3206C0130206494F86A0084F84400A763E663606EE064E06C69
:205D2000022803D1FFF7B1FD216D07E0E06C042803D1FFF706FE216D00E00121084603B075
:205D4000BDE8F08D30B541F2A414C2F2000494F8220048F65431C0F20101C0000D5804F15A
:205D60002C00AA2100F0BCFA04F12C0105F1100010220BF056FC08B9022100E001211320C6
:205D80006060084630BD70B541F25C14C2F20004B4F8685021684968C5EB850001EB400089
:205DA0004688324604F17401C5EB8500231D03EB800000680BF0C8FC08B1012100E002214B
:205DC0001120E064084670BD30B541F2A414C2F20004254604F12C00AA2100F081FA606ABF
:205DE00004F12C01203810220BF01BFC08B1012100E00221208C013020840F206060084649
:205E000030BDF0B541F25C14C2F2000404F14807B4F8685021684968C5EB850001EB400052
:205E20004688324604F17401206F0BF0FAFB08B9022100E001211220E0640846F0BD2DE9C6
:205E4000F04441F25C14C2F2000404F14807251D04F1380A2168B4F848004968C0EB80009D
:205E600001EB400046882168B4F848004968C0EB800001EB40000079F0B9A06B801BA063D8
:205E8000E06B3030E063B4F848000221C0EB800005EB80008160B4F84800A16BC0EB800056
:205EA00005EB80000160B4F84800E16B2039C0EB800005EB80004160B4F84800A16D3246C2
:205EC000C0EB800005EB800000680BF0AAFB08B9022100E001210620E0640846BDE8F08468
:205EE00010B541F26014C2F2000404F17000AA2100F0F6F9B4F8440004F170011022C0EB3C
:205F0000800004EB800040680BF08BFB08B9022100E001210720A064084610BD10B441F246
:205F20006014C2F20004B4F844000021C0EB800004EB800081601420A064002010BC7047CE
:205F40002DE9F04483B0074641F29414C2F20004A246012F26D104F13C0302AA01A968469D
:205F600000F010F90646EEB9607B48F65431C0F2010101EBC00001990068814212D1607BB4
:205F800048F65431C0F2010101EBC00002994068814207D10098A168884203D90098A06021
:205FA000607B2073607B01306073607B022803D100F009F8054602E0FFF7B7FB054628463C
:205FC00003B0BDE8F084F0B541F29414C2F20004A06818B900F02EF8054616E0207B48F6B4
:205FE0005431C0F20101C0000E58207B48F65431C0F2010101EBC000476806F120006060FE
:20600000B819206000F003F805462846F0BD10B541F29414C2F2000404F13C01302260683A
:206020000BF092FB08B1012100E002210D206061084610BD2DE9304148F65430C0F20100F5
:20604000046848F65430C0F201004568294620460BF089FA08B9022100E001210B2041F21B
:20606000A412C2F2000250600846BDE830812DE9F04141F2A414C2F2000404F12C0548F612
:206080005430C0F20100066848F65430C0F2010047682B463A463146012000F013F805F1BD
:2060A0001000AA2100F01CF92946304620220BF0B8FA08B9022100E001210C20606008460C
:2060C000BDE8F0812DE9F04F85B082468B4696460493049CDDF8108008F12008CDF80480A5
:2060E0000BEB0A0CF444CDF808C0002507E0EE002AFA06F6665505F1010C5FFA8CF5042DEC
:20610000F5D3043400BF002607E0F7002BFA07F7A75506F1010C5FFA8CF6042EF5D304348C
:2061200000BF002709E04FEAC70C2EFA0CFC04F807C007F1010C5FFA8CF7042FF3D304347F
:2061400000BF4FF0000C0BE0DDF808804FEACC0928FA09F804F80C800CF101085FFA88FC51
:20616000BCF1040FF0D3043400BF04E04FF0FF0884F800800134DDF804804445F6D305B0EA
:20618000BDE8F08F2DE9F04F88B004900591069207934FF0010CCDF804C04FF0000C8DF84D
:2061A00003C0079CDDF81C8008F11008CDF80880DDF810C04FF00009CCF8009000250FE055
:2061C000675D4FEAC50C07FA0CF7DDF810C0DCF800603E43CCF8006005F1010C5FFA8CF592
:2061E000042DEDD3043400BFDDF814C04FF00009CCF80090002610E0DDF8148014F806C021
:20620000F7000CFA07FCD8F8007047EA0C07C8F8007006F1010C5FFA8CF6042EECD30434C2
:2062200000BFDDF818C04FF00009CCF80090002711E0DDF8188014F807A04FEAC70C0AFA0E
:206240000CFAD8F800C04CEA0A0CC8F800C007F1010C5FFA8CF7042FEBD3043400BF4FF0D4
:20626000000B4FF0000A0BE014F80AE04FEACA0C0EFA0CFC4BEA0C0B0AF1010C5FFA8CFA97
:20628000BAF1040FF0D3043400BFDDF81480D8F800C0DDF81080D8F800E0DDF81880F444D3
:2062A000D8F800E0E644DE4514D12046029900F067F878B90DF10302AA21029800F022F809
:2062C00040B99DF803C0BCF1010F03D14FF0000CCDF804C0DDF804C0604608B0BDE8F08FED
:2062E00070B404460D46224604F110031570013204E04FF0FF0C82F800C001329A42F8D373
:2063000070BC7047F0B504460E46174623789E4202D02378FF2B0FD123789E4202D1012396
:206320003B7001E000233B7004F11001601C00F027F803461D4600E001252B461846F0BD44
:206340002DE9100141F29414C2F200042346002020730120A06048F65430C0F20100016868
:2063600048F65430C0F20100426801F12000606050182060142060610020BDE810017047C2
:2063800070B404460D460023224607E092F800C0BCF1FF0F01D0012302E00132AA42F5D307
:2063A00000BF184670BC70472DE9F04D85B041F25C14C2F2000404F1040B8DF807004FF02B
:2063C000000A04F1740100910DF1060303AA02A80DF10A0100F0ECF80746032F02D09DF897
:2063E0000700F0B994F8440048F654321346C0F20102C0F2010302EBC00203EBC0014E6881
:2064000011680E44E16B3031B14203D31421E164002556E0E16B3031E163FFF7F8FD05463F
:206420004FE0042F03D11421E164002549E0BDF80800FFF74EF906464FF6FF718E4223D0A0
:20644000A16BBDF80A20891A039A8A421CD8E16B039A60318A4217D322685268C6EB8601A5
:2064600002EB4101BDF80A20498891420CD122685268C6EB860102EB41019DF806200979A5
:20648000914201D14FF0010ABAF1010F13D1C6EB86010BEB81018F60039AC6EB86010BEB04
:2064A00081010A60E26BC6EB86010BEB810110324A600399A163E16B3031E163FFF7A7FDDC
:2064C0000546284605B0BDE8F08D2DE9F04F84B083468E4603928DF803300D9C04F1300CDF
:2064E000CDF804C0DDF80C800EEB0B0C08EB0C059DF803C0BCF1010F03D1013545F0004505
:2065000001E025F00045002607E0F7004BFA07F7A75506F1010C5FFA8CF6022EF5D30234F0
:2065200000BF002709E04FEAC70C4EFA0CFC04F807C007F1010C5FFA8CF7022FF3D302345F
:2065400000BF4FF0000C0BE0DDF80C804FEACC0A28FA0AFA04F80CA00CF1010A5FFA8AFC21
:20656000BCF1040FF0D3043400BF4FF0000A0DE04FEACA08CDF80880DDF8088025FA08F897
:2065800004F80A800AF101085FFA88FABAF1040FEED3043400BF04E04FF0FF0884F80080FA
:2065A0000134DDF804804445F6D304B0BDE8F08F2DE9F04F88B00490059106920793032512
:2065C000119C4FF0000C8DF801C04FF0000C8DF802C004F130012046FFF7D2FE08B90425AF
:2065E000D3E004F1100CCDF80CC0DDF810C04FF00009ACF80090002612E0DDF8108014F89C
:2066000006C0F7000CFA07F71FFA87FCB8F8007047EA0C07A8F8007006F1010C5FFA8CF6CA
:20662000022EEAD3023400BFDDF814C04FF00009ACF80090002713E0DDF8148014F807A01D
:206640004FEAC70C0AFA0CFC1FFA8CFAB8F800C04CEA0A0CA8F800C007F1010C5FFA8CF786
:20666000022FE9D3023400BFDDF818C04FF00009CCF800904FF0000A11E0DDF8188014F83C
:206680000AB04FEACA0C0BFA0CFBD8F800C04CEA0B0CC8F800C00AF1010C5FFA8CFABAF136
:2066A000040FEAD3043400BF4FF0000CCDF804C04FF0000B0FE0DDF8048014F80BE04FEA7D
:2066C000CB0C0EFA0CFC48EA0C08CDF804800BF1010C5FFA8CFBBBF1040FECD3043400BFE6
:2066E000DDF81880D8F800C0DDF81480B8F800E0DDF81080F444B8F800E00EEB0C08CDF8A5
:206700000880DDF804C01CF0004F06D1DDF81CC04FF000098CF800900BE0DDF81C804FF07E
:20672000010C88F800C0DDF8088008F10108CDF80880DDF8048028F0004CDDF8088028F02E
:20674000004EF44521D120460399FFF719FEE0B90DF10102AA210398FFF7D4FDA8B90399ED
:206760000DF1020201F110005521FFF7CBFD60B99DF801C0BCF1010F06D19DF802C0BCF1DA
:20678000000F01D1002500E0012500BF284608B0BDE8F08F2DE9704141F2D065C2F20005FC
:2067A00005F18006002085F8E806012085F88000002405E02819823000210170601CC4B234
:2067C0000A2CF7D3284680220021FEF7AFFC00F00CF848F69C40C0F20100416840F2E0303C
:2067E000C2F200008847BDE8708110B541F25074C2F200040020C4F8600601F032F800208F
:20680000C4F864060020C4F874060020C4F870060020C4F86C0610BD30B541F25075C2F2FE
:20682000000500242878012802D100F0A4FC04460320C5F8640600206870204630BD70B5FF
:20684000064641F25074C2F2000400252178012903D100F090FC01460D46A66194F868165A
:2068600002290CD25DB994F86816013184F86816A6610321C4F864160021617002E0FFF798
:20688000B4FF02252946084670BD2DE9F044044641F25076C2F2000641F6D457C2F20007D0
:2068A00041F6907AC2F2000A00259AF806108C423BD2C4EB84010AF10C0202EBC1013A6C9F
:2068C00049888A4207D3C4EB84010AF10C0202EBC101498839BBC4EB8401002207EB410106
:2068E0000A70002187F83C10C4EB84010AF10C0307EB410203EBC1010978D170C4EB840119
:206900004FF6FF7207EB41018A8000F0AAFF3473317B3144023100220A700021717001212F
:20692000C6F8641602E0012500E0062529460846BDE8F0842DE9F04C82468B4641F2507454
