:2000000000FE002001040000EDC5000001620000F1C50000F5C50000F9C50000000000007A
:200020000000000000000000000000000BC60000FDC500000000000001C6000005C600009B
:2000400007C6000007C6000007C6000007C6000007C6000007C6000007C6000007C6000038
:2000600007C6000007C6000007C6000007C6000007C6000007C6000007C6000007C6000018
:2000800007C6000007C6000007C6000007C6000007C6000007C6000007C6000007C60000F8
:2000A00007C6000007C6000007C6000007C6000007C6000007C6000007C6000007C60000D8
:2000C00007C6000007C6000007C6000007C6000007C6000007C6000007C6000007C60000B8
:2000E00007C6000007C6000007C6000007C6000007C6000007C6000007C6000007C6000098
:2001000007C6000007C6000007C6000007C6000007C6000007C6000007C6000007C6000077
:2001200007C6000007C6000007C6000007C6000007C6000007C6000007C6000007C6000057
:2001400007C6000007C6000007C6000007C6000007C6000007C6000007C6000007C6000037
:2001600007C6000007C6000007C6000007C6000007C6000007C6000007C6000007C6000017
:2001800007C6000007C6000007C6000007C6000007C6000007C6000007C6000007C60000F7
:2001A00007C6000007C6000007C6000007C6000007C6000007C6000007C6000007C60000D7
:2001C00007C6000007C6000007C6000007C6000007C6000007C6000007C6000007C60000B7
:2001E00007C6000007C6000007C6000007C6000007C6000007C6000007C6000007C6000097
:2002000007C6000007C6000007C6000007C6000007C6000007C6000007C6000007C6000076
:2002200007C6000007C6000007C6000007C6000007C6000007C6000007C6000007C6000056
:2002400007C6000007C6000007C6000007C6000007C6000007C6000007C6000007C6000036
:2002600007C6000007C6000007C6000007C6000007C6000007C6000007C6000007C6000016
:2002800007C6000007C6000007C6000007C6000007C6000007C6000007C6000007C60000F6
:2002A00007C6000007C6000007C6000007C6000007C6000007C6000007C6000007C60000D6
:2002C00007C6000007C6000007C6000007C6000007C6000007C6000007C6000007C60000B6
:2002E00007C6000007C6000007C6000007C6000007C6000007C6000007C6000007C6000096
:2003000007C6000007C6000007C6000007C6000007C6000007C6000007C6000007C6000075
:2003200007C6000007C6000007C6000007C6000007C6000007C6000007C6000007C6000055
:2003400007C6000007C6000007C6000007C6000007C6000007C6000007C6000007C6000035
:2003600007C6000007C6000007C6000007C6000007C60000FFFFFFFFFFFFFFFFFFFFFFFF88
:20038000FFFFFFFFFFFFFFFFFFFFFFFFFFFFFFFFFFFFFFFFFFFFFFFFFFFFFFFFFFFFFFFF7D
:2003A000FFFFFFFFFFFFFFFFFFFFFFFFFFFFFFFFFFFFFFFFFFFFFFFFFFFFFFFFFFFFFFFF5D
:2003C000FFFFFFFFFFFFFFFFFFFFFFFFFFFFFFFFFFFFFFFFFFFFFFFFFFFFFFFFFFFFFFFF3D
:2003E000FFFFFFFFFFFFFFFFFFFFFFFFFFFFFFFFFFFFFFFFFFFFFFFFFFFFFFFFFFFFFFFF1D
:2004000072B6002000210022002300240025002600271F481F4901601F4880F30888FFE718
:200420001E4801680F22120511430160BFF34F8FBFF36F8FFFE71A48002809D019491A4AA1
:20044000521A013A04DD0020002309C1083AFCDAFFE7134800280BD0144802C8013907DB69
:2004600038C82A1BFAD040CC40C3043AFBDCF5E7FFE70F4802C8013907DB18C8E21AFAD0A4
:20048000002520C3043AFCDCF5E762B607F0B1FB08ED00E00000002000FE002088ED00E03F
:2004A000010000000000002000FE0020BC840100F08401007820704770B405460C462A46C7
:2004C000002C0BD955B105E0134601324FF0000C83F800C0002CA4F10104F5D170BC7047A0
:2004E0002DE9F00404460D461646002E0CD95CB155B12F46A446002304E017F803A00CF8B7
:2005000003A00133B342F8D3BDE8F00470472DE9F04D83B005460E4694464FF0000ABCF1FF
:20052000800304D0403B05D0402B06D008E00A232B6006E00C232B6003E00E232B6000E014
:2005400000BF05F108036B6000241FE04FEA840B06EB0B0E0EF1010E9EF800E016F80B700E
:2005600047EA0E2706EB0B0E0EF1020E9EF800E047EA0E4706EB0B0E0EF1030E9EF800E070
:2005800047EA0E6743F80B70671CBCB2B4EB6C1FDCDB2F680A3F05D0023F49D0022F00F0FD
:2005A000998014E1002440E041F65068C0F20108D3F800B058F8247087EA0B07D3F80CB0D6
:2005C00041F67868C0F20108CBF3072B18F80BB08BEA0707D3F80CB0CBF3074B18F80BB0A9
:2005E00087EA0B27D3F80CB04FEA1B6B18F80BB087EA0B4B1F7B18F807708BEA07671F61FC
:200600001F69D3F804B087EA0B075F615F69D3F808B087EA0B079F619F69D3F80CB087EAC2
:200620000B07DF61671CBCB210330A2CBCD3CEE000244CE041F65068C0F20108D3F800B04C
:2006400058F8247087EA0B07D3F814B041F67868C0F20108CBF3072B18F80BB08BEA070794
:20066000D3F814B0CBF3074B18F80BB087EA0B27D3F814B04FEA1B6B18F80BB087EA0B4B8D
:200680001F7D18F807708BEA07679F619F69D3F804B087EA0B07DF61DF69D3F808B087EACE
:2006A0000B071F621F6AD3F80CB087EA0B075F625F6AD3F810B087EA0B079F629F6AD3F8A7
:2006C00014B087EA0B07DF62671CBCB21833082CB0D37CE0002477E041F65068C0F201081E
:2006E000D3F800B058F8247087EA0B07D3F81CB041F67868C0F20108CBF3072B18F80BB0F4
:200700008BEA0707D3F81CB0CBF3074B18F80BB087EA0B27D3F81CB04FEA1B6B18F80BB020
:2007200087EA0B4B1F7F18F807708BEA07671F621F6AD3F804B087EA0B075F625F6AD3F889
:2007400008B087EA0B079F629F6AD3F80CB087EA0B07DF6293F82C7041F67868C0F2010810
:20076000D3F810B018F8077087EA0B07D3F82CB0CBF3072B18F80BB087EA0B27D3F82CB038
:20078000CBF3074B18F80BB087EA0B47D3F82CB04FEA1B6B18F80BB087EA0B671F631F6B9B
:2007A000D3F814B087EA0B075F635F6BD3F818B087EA0B079F639F6BD3F81CB087EA0B075F
:2007C000DF63671CBCB22033072C85D300BF5746384603B0BDE8F08D2DE9F04D8BB007467E
:2007E0000C4615464FF0000A7B68009394F802C02388C3EA0C4394F803C043EA0C63019319
:20080000009E331D0093019B36687340019394F806C0A388C3EA0C4394F807C043EA0C636E
:200820000293009E331D0093029B36687340029394F80AC02389C3EA0C4394F80BC043EA9D
:200840000C630393009E331D0093039B36687340039394F80EC0A389C3EA0C4394F80FC0B0
:2008600043EA0C630493009E331D0093049B3668734004933B685B105E1EBAE1DDF800C083
:200880000CF104030093019BDCF800C043F67838C0F201081B069B0D58F8033083EA0C0325
:2008A000DDF808C043F2787BC0F2010BCCF3072C5BF82CC08CEA030C039B43F2783BC0F2C7
:2008C000010BC3F307435BF8233083EA0C03DDF810C042F6787BC0F2010B4FEA1C6C5BF848
:2008E0002CC08CEA030CCDF814C0DDF800C00DF108080CF10403009398E808481B069B0D1B
:2009000043F67838C0F20108DCF800C058F8033083EA0C03CBF3072C43F2787BC0F2010BC9
:200920005BF82CC043F2783BC0F2010B8CEA030CCEF307435BF8233083EA0C03DDF804C087
:2009400042F6787BC0F2010B4FEA1C6C5BF82CC08CEA030CCDF818C0DDF800C00CF10403F3
:200960000093039BDCF800C043F67838C0F201081B069B0D58F8033083EA0C03DDF810C0A1
:2009800043F2787BC0F2010BCCF3072C5BF82CC08CEA030C019B43F2783BC0F2010BC3F3C3
:2009A00007435BF8233083EA0C03DDF808C042F6787BC0F2010B4FEA1C6C5BF82CC08CEACF
:2009C000030CCDF81CC0DDF800C00CF104030093049BDCF800C043F67838C0F201081B0643
:2009E0009B0D58F8033083EA0C03DDF804C043F2787BC0F2010BCCF3072C5BF82CC08CEA2A
:200A0000030C029B43F2783BC0F2010BC3F307435BF8233083EA0C03DDF80CC042F6787B96
:200A2000C0F2010B4FEA1C6C5BF82CC08CEA030CCDF820C000BFDDF800C00CF104030093E3
:200A4000059BDCF800C043F67838C0F201081B069B0D58F8033083EA0C03DDF818C043F214
:200A6000787BC0F2010BCCF3072C5BF82CC08CEA030C079B43F2783BC0F2010BC3F30743C7
:200A80005BF8233083EA0C03DDF820C042F6787BC0F2010B4FEA1C6C5BF82CC08CEA030C11
:200AA000CDF804C0DDF800C00DF118080CF10403009398E808481B069B0D43F67838C0F22F
:200AC0000108DCF800C058F8033083EA0C03CBF3072C43F2787BC0F2010B5BF82CC043F22F
:200AE000783BC0F2010B8CEA030CCEF307435BF8233083EA0C03DDF814C042F6787BC0F24D
:200B0000010B4FEA1C6C5BF82CC08CEA030CCDF808C0DDF800C00CF104030093079BDCF815
:200B200000C043F67838C0F201081B069B0D58F8033083EA0C03DDF820C043F2787BC0F2FA
:200B4000010BCCF3072C5BF82CC08CEA030C059B43F2783BC0F2010BC3F307435BF82330E7
:200B600083EA0C03DDF818C042F6787BC0F2010B4FEA1C6C5BF82CC08CEA030CCDF80CC04D
:200B8000DDF800C00CF104030093089BDCF800C043F67838C0F201081B069B0D58F8033002
:200BA00083EA0C03DDF814C043F2787BC0F2010BCCF3072C5BF82CC08CEA030C069B43F29E
:200BC000783BC0F2010BC3F307435BF8233083EA0C03DDF81CC042F6787BC0F2010B4FEAAF
:200BE0001C6C5BF82CC08CEA030CCDF810C000BF013E002E3FF742AEDDF800C00CF1040329
:200C00000093019BDCF800C043F67838C0F201081B069B0D58F8033083EA0C03DDF808C008
:200C200043F2787BC0F2010BCCF3072C5BF82CC08CEA030C039B43F2783BC0F2010BC3F31E
:200C400007435BF8233083EA0C03DDF810C042F6787BC0F2010B4FEA1C6C5BF82CC08CEA24
:200C6000030CCDF814C0DDF800C00DF108080CF10403009398E808481B069B0D43F6783810
:200C8000C0F20108DCF800C058F8033083EA0C03CBF3072C43F2787BC0F2010B5BF82CC0F0
:200CA00043F2783BC0F2010B8CEA030CCEF307435BF8233083EA0C03DDF804C042F6787B18
:200CC000C0F2010B4FEA1C6C5BF82CC08CEA030CCDF818C0DDF800C00CF104030093039B6A
:200CE000DCF800C043F67838C0F201081B069B0D58F8033083EA0C03DDF810C043F2787B27
:200D0000C0F2010BCCF3072C5BF82CC08CEA030C019B43F2783BC0F2010BC3F307435BF8CA
:200D2000233083EA0C03DDF808C042F6787BC0F2010B4FEA1C6C5BF82CC08CEA030CCDF814
:200D40001CC0DDF800C00CF104030093049BDCF800C043F67838C0F201081B069B0D58F89B
:200D6000033083EA0C03DDF804C043F2787BC0F2010BCCF3072C5BF82CC08CEA030C029BF2
:200D800043F2783BC0F2010BC3F307435BF8233083EA0C03DDF80CC042F6787BC0F2010B01
:200DA0004FEA1C6C5BF82CC08CEA030CCDF820C000BFDDF800C00CF1040300939DF8143045
:200DC00041F67868C0F20108DCF800C018F8033083EA0C03DDF818C0CCF3072C18F80CC073
:200DE00083EA0C23DDF81CC0CCF3074C18F80CC083EA0C43DDF820C04FEA1C6C18F80CC0AA
:200E000083EA0C630193DDF800C00CF1040300939DF8183041F67868C0F20108DCF800C0F3
:200E200018F8033083EA0C03DDF81CC0CCF3072C18F80CC083EA0C23DDF820C0CCF3074C11
:200E400018F80CC083EA0C43DDF814C04FEA1C6C18F80CC083EA0C630293DDF800C00CF1B1
:200E6000040300939DF81C3041F67868C0F20108DCF800C018F8033083EA0C03DDF820C01D
:200E8000CCF3072C18F80CC083EA0C23DDF814C0CCF3074C18F80CC083EA0C43DDF818C0E8
:200EA0004FEA1C6C18F80CC083EA0C630393DDF800C00CF1040300939DF8203041F67868FB
:200EC000C0F20108DCF800C018F8033083EA0C03DDF814C0CCF3072C18F80CC083EA0C23F1
:200EE000DDF818C0CCF3074C18F80CC083EA0C43DDF81CC04FEA1C6C18F80CC083EA0C6371
:200F00000493019B2B70019BC3F307236B70019BC3F30743AB70019B1B0EEB70029B2B719C
:200F2000029BC3F307236B71029BC3F30743AB71029B1B0EEB71039B2B72039BC3F30723C4
:200F40006B72039BC3F30743AB72039B1B0EEB72049B2B73049BC3F307236B73049BC3F3E6
:200F60000743AB73049B1B0EEB7301A80421FFF7A3FA02A80421FFF79FFA03A80421FFF75E
:200F80009BFA04A80421FFF797FA05A80421FFF793FA06A80421FFF78FFA07A80421FFF7F3
:200FA0008BFA08A80421FFF787FA68460421FFF783FA534618460BB0BDE8F08D2DE9F04DF3
:200FC0008BB007460C4615464FF0000A7B68009394F802C02388C3EA0C4394F803C043EAAC
:200FE0000C630193009E331D0093019B36687340019394F806C0A388C3EA0C4394F807C020
:2010000043EA0C630293009E331D0093029B36687340029394F80AC02389C3EA0C4394F811
:201020000BC043EA0C630393009E331D0093039B36687340039394F80EC0A389C3EA0C432B
:2010400094F80FC043EA0C630493009E331D0093049B3668734004933B685B105E1EBAE1D5
:20106000DDF800C00CF104030093019BDCF800C042F67838C0F201081B069B0D58F8033025
:2010800083EA0C03DDF810C042F2787BC0F2010BCCF3072C5BF82CC08CEA030C039B42F2C2
:2010A000783BC0F2010BC3F307435BF8233083EA0C03DDF808C041F6787BC0F2010B4FEADF
:2010C0001C6C5BF82CC08CEA030CCDF814C0DDF800C00CF104030093029BDCF800C042F696
:2010E0007838C0F201081B069B0D58F8033083EA0C03DDF804C042F2787BC0F2010BCCF380
:20110000072C5BF82CC08CEA030C049B42F2783BC0F2010BC3F307435BF8233083EA0C0372
:20112000DDF80CC041F6787BC0F2010B4FEA1C6C5BF82CC08CEA030CCDF818C0DDF800C06F
:201140000CF104030093039BDCF800C042F67838C0F201081B069B0D58F8033083EA0C035B
:20116000DDF808C042F2787BC0F2010BCCF3072C5BF82CC08CEA030C019B42F2783BC0F202
:20118000010BC3F307435BF8233083EA0C03DDF810C041F6787BC0F2010B4FEA1C6C5BF880
:2011A0002CC08CEA030CCDF81CC0DDF800C00CF104030093049BDCF800C042F67838C0F224
:2011C00001081B069B0D58F8033083EA0C03DDF80CC042F2787BC0F2010BCCF3072C5BF873
:2011E0002CC08CEA030C029B42F2783BC0F2010BC3F307435BF8233083EA0C03DDF804C081
:2012000041F6787BC0F2010B4FEA1C6C5BF82CC08CEA030CCDF820C000BFDDF800C00CF16B
:2012200004030093059BDCF800C042F67838C0F201081B069B0D58F8033083EA0C03DDF8A0
:2012400020C042F2787BC0F2010BCCF3072C5BF82CC08CEA030C079B42F2783BC0F2010BCC
:20126000C3F307435BF8233083EA0C03DDF818C041F6787BC0F2010B4FEA1C6C5BF82CC0B7
:201280008CEA030CCDF804C0DDF800C00CF104030093069BDCF800C042F67838C0F201083C
:2012A0001B069B0D58F8033083EA0C03DDF814C042F2787BC0F2010BCCF3072C5BF82CC0A7
:2012C0008CEA030C089B42F2783BC0F2010BC3F307435BF8233083EA0C03DDF81CC041F637
:2012E000787BC0F2010B4FEA1C6C5BF82CC08CEA030CCDF808C0DDF800C00CF104030093FF
:20130000079BDCF800C042F67838C0F201081B069B0D58F8033083EA0C03DDF818C042F24B
:20132000787BC0F2010BCCF3072C5BF82CC08CEA030C059B42F2783BC0F2010BC3F3074301
:201340005BF8233083EA0C03DDF820C041F6787BC0F2010B4FEA1C6C5BF82CC08CEA030C49
:20136000CDF80CC0DDF800C00CF104030093089BDCF800C042F67838C0F201081B069B0D0D
:2013800058F8033083EA0C03DDF81CC042F2787BC0F2010BCCF3072C5BF82CC08CEA030C02
:2013A000069B42F2783BC0F2010BC3F307435BF8233083EA0C03DDF814C041F6787BC0F240
:2013C000010B4FEA1C6C5BF82CC08CEA030CCDF810C000BF013E002E3FF742AEDDF800C000
:2013E0000CF104030093019BDCF800C042F67838C0F201081B069B0D58F8033083EA0C03BB
:20140000DDF810C042F2787BC0F2010BCCF3072C5BF82CC08CEA030C039B42F2783BC0F255
:20142000010BC3F307435BF8233083EA0C03DDF808C041F6787BC0F2010B4FEA1C6C5BF8E5
:201440002CC08CEA030CCDF814C0DDF800C00CF104030093029BDCF800C042F67838C0F28B
:2014600001081B069B0D58F8033083EA0C03DDF804C042F2787BC0F2010BCCF3072C5BF8D8
:201480002CC08CEA030C049B42F2783BC0F2010BC3F307435BF8233083EA0C03DDF80CC0D4
:2014A00041F6787BC0F2010B4FEA1C6C5BF82CC08CEA030CCDF818C0DDF800C00CF1040389
:2014C0000093039BDCF800C042F67838C0F201081B069B0D58F8033083EA0C03DDF808C03F
:2014E00042F2787BC0F2010BCCF3072C5BF82CC08CEA030C019B42F2783BC0F2010BC3F35A
:2015000007435BF8233083EA0C03DDF810C041F6787BC0F2010B4FEA1C6C5BF82CC08CEA5C
:20152000030CCDF81CC0DDF800C00CF104030093049BDCF800C042F67838C0F201081B06D8
:201540009B0D58F8033083EA0C03DDF80CC042F2787BC0F2010BCCF3072C5BF82CC08CEAB7
:20156000030C029B42F2783BC0F2010BC3F307435BF8233083EA0C03DDF804C041F6787B35
:20158000C0F2010B4FEA1C6C5BF82CC08CEA030CCDF820C000BFDDF800C00CF10403009378
:2015A0009DF8143043F67878C0F20108DCF800C018F8033083EA0C03DDF820C0CCF3072C74
:2015C00018F80CC083EA0C23DDF81CC0CCF3074C18F80CC083EA0C43DDF818C04FEA1C6CCA
:2015E00018F80CC083EA0C630193DDF800C00CF1040300939DF8183043F67878C0F20108B2
:20160000DCF800C018F8033083EA0C03DDF814C0CCF3072C18F80CC083EA0C23DDF820C0AF
:20162000CCF3074C18F80CC083EA0C43DDF81CC04FEA1C6C18F80CC083EA0C630293DDF86C
:2016400000C00CF1040300939DF81C3043F67878C0F20108DCF800C018F8033083EA0C031B
:20166000DDF818C0CCF3072C18F80CC083EA0C23DDF814C0CCF3074C18F80CC083EA0C4300
:20168000DDF820C04FEA1C6C18F80CC083EA0C630393DDF800C00CF1040300939DF8203075
:2016A00043F67878C0F20108DCF800C018F8033083EA0C03DDF81CC0CCF3072C18F80CC074
:2016C00083EA0C23DDF818C0CCF3074C18F80CC083EA0C43DDF814C04FEA1C6C18F80CC0D1
:2016E00083EA0C630493019B2B70019BC3F307236B70019BC3F30743AB70019B1B0EEB7012
:20170000029B2B71029BC3F307236B71029BC3F30743AB71029B1B0EEB71039B2B72039B83
:20172000C3F307236B72039BC3F30743AB72039B1B0EEB72049B2B73049BC3F307236B7373
:20174000049BC3F30743AB73049B1B0EEB7301A80421FEF7B1FE02A80421FEF7ADFE03A81A
:201760000421FEF7A9FE04A80421FEF7A5FE05A80421FEF7A1FE06A80421FEF79DFE07A8C7
:201780000421FEF799FE08A80421FEF795FE68460421FEF791FE534618460BB0BDE8F08D10
:2017A0002DE9F04D86B016469B4601908DF803100E9F0F9D4FF0010A9DF803C0BCF1000F83
:2017C0002CD128E0394602A81022FEF789FE2A4639460198FFF7F2FB8446E246002408E0C4
:2017E0001BF804C017F804E08CEA0E0C05F804C00134102CF4DB02A958461022FEF770FEB0
:20180000103710354FF0000C102E03D3A6F1100C5FFA8CFC6646002ED4D826E023E0002496
:2018200008E01BF804C017F804E08CEA0E0C05F804C00134102CF4DB2A4629460198FEF7F8
:20184000CBFF8446E246294658461022FEF748FE103710354FF0000C102E03D3A6F1100CB4
:201860005FFA8CFC6646002ED9D8D446604606B0BDE8F08D00B500F092FA00F0A7FA03F0AF
:201880008DFC01F085FF00F0D7F800BD70B541F6B015C2F20005002403F090FF0646286872
:2018A00042F23411C7F6430188422FD1002129E0C1EB810005F10C0202EBC0000078032839
:2018C00005D106EBC1000078D0B903241FE0C1EB810005F10C0202EBC0000078062805D1FF
:2018E00006EBC100007858B9062410E0C1EB810005F10C0202EBC0000078082800D100BF7D
:20190000481CC1B2A8798142D2D300E00124204670BD30B5002403F051FF054695F850005B
:20192000012803D1FFF7B2FF044600E00124204630BD00B54EF20000C2F200004FF48052A3
:20194000002103F0D9FB0CF0C3FF00BD2DE9004103F05AFF012809D102F0C1F801F042FFA1
:2019600004F08CFE01F02EFF0028FBD100F016FB40F2AC61C2F200010868012802D102F084
:20198000C9F808E040F2AC61C2F200010868042801D102F0E1F804F034FE01280CD140F213
:2019A0004851C2F2000108680130086004F066FE01F018FF00F0AEF9BDE8008100B5FFF708
:2019C000C5FF00BD10B40446214600BF084610BC70472DE9F0484FF60066C2F200060024AA
:2019E00000250CF055FF0746B346022F05D000200146CBE90001002418E0314644F27800C9
:201A0000C0F20100082203F088FB04460CB101250CE0314644F28000C0F20100082203F05D
:201A20007CFB04460CB1022500E000252846BDE8F0880121084670472DE9F04140F2445538
:201A4000C2F20005002400F039F8FFF7C2FF0446E4B1022001F0C0FE4FF60060C2F20000C8
:201A60000822002103F048FB00202860012C06D1012040F2AC61C2F20001086018E00420A0
:201A800040F2AC61C2F20001086011E0FFF7D1FF01280DD1FFF73DFF064600F03EFA074639
:201AA00026B91FB94FF47A70286001E000202860286808B906F0F9FCBDE8F0812DE9F04594
:201AC00084B003F07BFE064603F07DFE824603F07FFE074644F69001C0F2010141F6B010B1
:201AE000C2F200004FF4807203F0EDFA4AF20001C0F201113046642203F0E5FA029660203C
:201B0000039000208DF80400684606F00AFA01208DF80400684606F004FA02208DF80400EA
:201B2000684606F0FEF90098316E884203D1306EB0F1FF3F56D1306EB0F1FF3F2BD100F028
:201B400031FA012827D130466422002103F0D4FA002415E006EBC40001210170C4EB8400C7
:201B600041F6BC12C2F2000202EBC000007841F2DC71C2F2000101EBC401C870601CC4B275
:201B800041F6B011C2F2000188798442E2D3012086F8500026E030466422002103F0ACFA71
:201BA000002415E006EBC40000210170C4EB840041F6BC12C2F2000202EBC000007841F27F
:201BC000DC71C2F2000101EBC401C870601CC4B241F6B011C2F2000188798442E2D30020DF
:201BE00086F850004CF20001C0F2011150460C2203F069FACDF808A00820039000208DF82D
:201C00000400684606F08DF901208DF80400684606F087F902208DF80400684606F081F9FF
:201C20000098DAF80810884204D1DAF80800B0F1FF3F12D150460C22002103F05DFA009820
:201C4000CAF80800002505E02846002101F0D9FE681CC5B2002DF7D013E000250FE05AF811
:201C60002500022805D342F21071284601F0C9FE03E02846002101F0C4FE681CC5B2002D15
:201C8000EDD04EF20001C0F2011138464FF4A27203F019FA02974FF4A070039000208DF883
:201CA0000400684606F03DF901208DF80400684606F037F902208DF80400684606F031F94F
:201CC0000098D7F84011884204D1D7F84001B0F1FF3F17D138464FF4A272002103F00CFAE7
:201CE00044F6F621C0F2010107F59470102203F0EAF940F20A41C2F2000138464FF49272E0
:201D000003F0E1F938464FF4807105F087FF04B0BDE8F0852DE9304140F24454C2F20004F2
:201D200001F008FE0546206800280BD9206801382060206830B944F69001C0F201018868AC
:201D400000F002F8BDE8308110B5044600F0D2F8204600F001F810BD10B50446204600F0F9
:201D600018F910BD2DE90041002040F24451C2F20001086006F099FBBDE8008100B50CF0C9
:201D800087FD18B10CF084FD052807D1A1494FF4FC720020002309C1083AFCDA00BD00B542
:201DA0000CF0D5FC00200CF040FD00200CF055FD00200CF099FA00200CF0DDFF00200CF0CC
:201DC00030FF04F007FC01F0A3FC00BD00B544F6CC10C0F2010004F02FFC44F66C20C0F27B
:201DE000010004F096FF002004F032FC05F095FF00BD30B444F20001C4F206014FF0B642C2
:201E00000124002308E048F2A060C0F20100834201D900206CE05B1CC86910F4803FF2D06D
:201E2000C86810F0004F00D0CA60C8684FF0010C6CF31240C860C86840F00040C860C868DC
:201E400010F0004F00D0CA60C8684FF0010C6CF30B20C860C86840F00040C860C86810F013
:201E6000004F00D0CA60C8684FF0010C6CF30710C860C86840F00040C860C86810F0004FB8
:201E800000D0CA60C8684FF0030C6CF30300C860C86840F00040C860886A10F0004F00D067
:201EA0008A62886A6FF300008862886A6FF359608862886A40F000408862486910F0004FB5
:201EC00000D04A61886910F0004F00D08A6148696FF30000486188696FF3410088614869A2
:201EE00040F000404861886940F000408861204630BC704700B506F0F2FA04F078FB0CF07C
:201F0000BDFA0021B5200CF0D9FE002134200CF0D5FEFFF76EFF72B600BDF0B44FF6F07666
:201F2000C0F2040600253246331D1078D1789478C1EA00605178240200EB01402118B1F516
:201F4000002F01D3012022E006F10804207891F800C0604501D0012019E01878D9789F78EF
:201F6000C1EA006059783F0200EB01403918B1F5002F01D301200AE006F10904207891F8EE
:201F800000C0604501D0012001E000252846F0BC704710B504466168884710BD00B506F0F4
:201FA000AEFA00BD30B441F6B012C2F2000200219068436800210BE0C1EB810002F10C0C21
:201FC0000CEBC0000078032800D104E0481CC1B290798142F0D39079814201D3002016E0D6
:201FE000C1EB810002F10C0C0CEBC000806883420AD3C1EB810002F10C0C0CEBC004E0682D
:20200000A4682044834201D3002000E0012030BC704700BF00FE002070B505460E4600BF93
:2020200000BF002403F0FCF80246144670BD70B505460E4600BFAA68101D03F004F902460D
:20204000144634B902F049FE4FF4FA6001F04CFD08E0022C03D1312001F0F8FC02E02220E5
:2020600001F0F4FC00BF70BD2DE9F04D82B08346019100BF062703F0A1FB02460092DBF88B
:202080000820101D03F06AF8024615462846FFF799FC02461546DBF8082002F1080003F06E
:2020A0005DF80246164600243FE0C4EB840241F6BC13C2F2000303EBC2029068FFF782FCD4
:2020C0000246924655452ED3EA43B2422BD3C4EB840241F6BC13C2F2000303EBC202D26848
:2020E000524495421FD2C4EB840241F6BC1CC2F2000C0CEBC202D26873195244934212D8A8
:20210000C4EB840241F6BC13C2F2000303EBC202D268964207D8002E05D9204603F0B9F814
:202120000246174608E0621CD4B241F6B013C2F200039A799442B8D33A1C05D0023A023A46
:202140004CD9022A4ED051E041F2DC73C2F2000303EBC402D278072A23D1002409E041F243
:20216000DC73C2F2000303EBC40200231370621CD4B241F6B013C2F200039A799442EED3A0
:2021800044F68801C0F201010868FFF71BFC0246154644F6880CC0F2010C9CE84800F21A43
:2021A000561C3146284603F04CFA02F096FD4EF6602001F099FC41F29C02C2F20002566182
:2021C00041F29C02C2F20002156101F0FBFA0028FBD103F041FA60B102270AE0222001F0A3
:2021E00035FC06E0312001F031FC02E0722001F02DFC02B0BDE8F08D30B504460D46294606
:20220000204601F0A8FA0022104630BD2DE9F04C84B006460F4692469B46002444F2880599
:20222000C0F20105D5F800E0EC46CCF800E0D5F804E0CCF804E0D5F808E0CCF808E0ED6854
:20224000CCF80C5003F0C4FA844665466B465A46514605F5947001F074F93A46314668464F
:2022600002F05BFF012800D0012400BF204604B0BDE8F08C30B404460D4630BC704710B412
:20228000044610BC704730B404460D4630BC704710B404464FF0FF31216010BC70472DE9B6
:2022A000F00404460D461646002310E0D4F800A0EF5C44F2980CC0F2010C87EA0A073F0607
:2022C000BF0D5CF8077087EA1A2727600133B342ECD3BDE8F004704710B404462168C94353
:2022E000216000BF10BC704700002DE9F04D83B083468A46002640F25052C2F200021568CF
:20230000FEF7D8F8024617463C2F44D9B42F42D200243EE004EB840205EB820252885A4530
:2023200035D104EB840205EB820252680192EA68013A03D307D0022A0AD00EE0019A42F066
:20234000004201920AE0019A42F04042019205E0019A42F08042019200E000BFDAF808203C
:202360008DF80220DAF80020029204EB840205EB82021288ADF80020694604EB840205EBD4
:202380008202107A07F028FB0246164603E0621CD4B2002CBED03246104603B0BDE8F08D2D
:2023A0002DE97041064640F25051C2F200010D6800241AE004EB840105EB81010988B14285
:2023C00011D104EB840105EB8101096951B104EB840105EB81010A6904EB840105EB810182
:2023E0004888904703E0611CCCB2002CE2D0BDE870812DE9700105460C460122D5F810C000
:202400006E680CEA06030CEA0406B3422ED1EB68052B2AD80FF20408D8E803F003080D1581
:202420001A22B4F1004F00D300221FE0B4F1404F00D300221AE0B4F1004F03D3B4F1404F57
:2024400000D2002212E0B4F1004F00D200220DE0B4F1004F03D2B4F5806F00D3002205E086
:20246000B4F1804F00D2002200E000BF00BF1046BDE87001704700002DE9F04D82468B4687
:2024800040F24C52C2F2000215680126FEF712F8024617463C2F2ED9B42F2CD2002428E0EF
:2024A000DAF80010C4EB840205EBC200FFF7A1FF024616469AF80430C4EB840205EBC2026A
:2024C000127A9A4213D196B9C4EB840205EBC20252695AB1C4EB840205EBC202536959466E
:2024E000C4EB840205EBC2025088984703E0621CD4B2022CD4D3BDE8F08D000010B4044650
:2025000000BF10BC7047000000002DE9F04D81B004460D461E46ADF80220376805F1080B85
:202520000BEB041CDCF804A0D6F808B0BDF8028005F1080E0EEB041CACF8008005F1080EFB
:202540000EEB041CD6F808E0CCF80CE05A463946504602F0B8FD01B0BDE8F08D00000000CD
:20256000F0B504460D4616462378ABB933462A462146A078FFF7C9FF63780BB90123637002
:20258000A378013313F00103A370A37894F803C0634501D101232370F0BD2DE9F04481B00F
:2025A00005460C4600228DF8022000228DF8032022681278022A0AD1226852783E2A06D13D
:2025C00022689278802A02D101F07BFA3EE00DF103030DF102022146284600F042FA024617
:2025E000164640F28C57C2F20007BA46FF2E2DD09DF8022002F0F002003A06D0103A04D0BC
:20260000103A1DD0102A1BD01FE02246294640F25450C2F20000FFF7A3FFDAF82420052A21
:202620000DD106EB8602920044F22853C0F201030B21D05A01F003F9384600F0DFF905E0DC
:202640002146284600F006F800E000BF01B0BDE8F08400002DE9F04D84B082460C4600228B
:202660008DF8062000228DF807200DF107030DF106022146504600F0F4F9024617469DF8BF
:202680000750FF2F00F014819DF8062002F0F002003A08D0103A2CD0103A00F08C80102AB9
:2026A00000F0A48003E19DF80660A3686A1C9A1AB2421DD3E6B107EB870244F22853C0F289
:2026C000010303EB8202A3681269934210D80095F3B2224607EB870C44F22850C0F20100B9
:2026E00000EB8C0140F28C50C2F2000000F070FADEE0A268082A5DD3BAF1000F5AD107EB45
:20270000870244F22853C0F2010303EB8202A368126993424ED822689DF806302A440132E0
:2027200012781B071B0D9E18AA1CD5B2E6B9D4F800C005EB0C0203321CF805301278C2EAE5
:20274000036205EB0C0301331B7842EA034205EB0C0302331B781B0243EA02062A1DD5B2F6
:20276000B6F5805F00D20026A268082A06D19DF80720C2F1080292B296421BD3A268082A05
:2027800007D9A2689DF80730D21A013A92B2964210D300953346224607EB870C44F22850B4
:2027A000C0F2010000EB8C0140F28C50C2F2000000F070FA7CE040F28C53C2F200035A6AEA
:2027C000052A12D1BAF1000F0FD12B46224607EB870C44F22850C0F2010000EB8C0140F2E4
:2027E0008C50C2F2000000F0BCFA61E040F28C53C2F200035A6D062A58D1A268032A55D31B
:20280000BAF1000F52D19DF8062012F00F0F10D12B462246C7EB870044F2505CC0F2010C6C
:202820000CEBC00140F28C50C2F2000000F062FB3CE09DF8062012F00F02012A1DD10622A6
:2028400040F28C53C2F200035A6540F28C53C2F20003DA6DFF2A29D84FF47A7000F003FD9B
:2028600040F28C52C2F20002908640F28C53C2F20003DA6D0132DA6518E09DF8062012F046
:202880000F02022A12D1C7EB8702D20044F25053C0F201030121D05A01F003F840F28C5135
:2028A000C2F2000101F1300000F0C0F800E000BF04B0BDE8F08D2DE9F0410746FF2540F23A
:2028C0008C54C2F20004002614E0C6EB860144F25052C0F2010202EBC1014988B94207D12E
:2028E000616D083902D00439032901D8354603E0711CCEB2002EE8D0FF2D35D0616D0F292D
:2029000031D80FF20808D8E801F0C0462E2E2E2E2E2E2E2E092E2E2E19092219C5EB850150
:20292000C90044F25052C0F20102885A002100F0B8FF04F1300000F079F85BE006216165E9
:202940004FF47A7000F08FFC0146A18652E094F8311084F85810962000F085FC0146A186E9
:202960000921616546E045E0384600F033FC01460D46FF2D3ED0616A022908D105216162F3
:202980004FF47A7000F06FFC0146A18032E0616A042911D105EB8501890044F22852C0F2FA
:2029A0000102885A012100F04AFF40F28C50C2F2000000F023F81DE0616A112909D101F03D
:2029C000DCF8E16A4FF448724A60204600F016F810E005EB8501890044F22852C0F2010279
:2029E000885A012100F02BFF40F28C50C2F2000000F004F800BFBDE8F081000010B4044628
:202A0000002121700021A1800021A1600021A181002121610021A1820021A1770021218477
:202A2000002161840021616210BC704710B40446002121700021A1800021A1600021A181C2
:202A4000002121610021A1820021A1770021218400216162002184F828100021E16210BCA7
:202A600070472DE9F04F83B08A4693461F4644F2285CC0F2010CADF80A00FF260125002472
:202A800048E0BDF80A8004EB840E0CEB8E0EBEF802E0C6453AD104EB840E0CEB8E0EDEF823
:202AA00004E0BEF1010F0ED14FF0000E87F800E0DAF800E097F8008018F80EE08BF800E0C6
:202AC0002646002522E004EB840E0CEB8E0EDEF804E0BEF1000F19D1DAF8008004EB840E1A
:202AE0000CEB8E0E9EF808E098F80080C6450DD14FF0010E87F800E0DAF800E097F800805E
:202B000018F80EE08BF800E02646002504F1010E5FFA8EF4022C01D2012DB2D0FF2E52D1E3
:202B2000012500244CE0BDF80A80C4EB840E44F25059C0F2010909EBCE0EBEF804E0F04565
:202B40003AD104EB840E0CEB8E0EDEF804E0BEF1010F0ED14FF0000E87F800E0DAF800E0A0
:202B600097F8008018F80EE08BF800E02646002522E004EB840E0CEB8E0EDEF804E0BEF1D5
:202B8000000F19D1DAF8008004EB840E0CEB8E0E9EF808E098F80080C6450DD14FF0010E11
:202BA00087F800E0DAF800E097F8008018F80EE08BF800E02646002504F1010E5FFA8EF424
:202BC0000CB9012DAFD000BF304603B0BDE8F08F2DE9F04F82B00E4693461F4601909DF838
:202BE0002CC00CF1010C5FFA8CFA019D022F14D1DBF8004014F80A403E2C0ED1DBF8004087
:202C0000544401342478802C07D1B6F802C0BCF1010F02D100F055FF39E06C6A013C02D382
:202C200029D0042C32D1D5F824C0BCF1050F09D10B21308800F003FE40F28C50C2F2000085
:202C4000FFF7DCFE00240DE0DBF800E004EB0A0818F80EE005F1160C0CF804E004F1010CDF
:202C60005FFA8CF4BC42EFD3AF772F613046019900F0A2F90BE00121308800F0E0FD40F2A6
:202C80008C50C2F20000FFF7B9FE00E000BF02B0BDE8F08F2DE9F04D81B007460E46924685
:202CA00000933C46656A013D02D34BD0042D54D1D4F824C0BCF1050F09D10B21308800F08D
:202CC000BEFD40F28C50C2F20000FFF797FE9AF808509DF824C0A5EB0C05A57700250FE0B8
:202CE000DAF800B09DF8248005EB080E1BF80EB004F1160C0CF805B005F1010C5FFA8CF595
:202D000094F81EC06545EBD3DDF800C0C4F810C04FF0010C84F800C0DAF808C0C4F828C0FA
:202D2000002000F0A0FA8446A4F804C03946304600F069F98446E3465A463946304600F000
:202D4000ADF90BE00121308800F079FD40F28C50C2F20000FFF752FE00E000BF01B0BDE8A5
:202D6000F08D2DE9F04F86B08A4616469B4605904FF0000C8DF801C0059CD4F810C0A78AAA
:202D8000ACEB070CCDF804C0356815F80B5005F00F0C8DF803C04FF0010C8DF802C0D6F842
:202DA00008C0A76ABC450CD2DDF804C00CF10105D6F808C0ADB2AC4503D24FF0000C8DF834
:202DC00002C09DF802C0BCF1010F40F0908094F800C09DF80380E0450BD00521BAF80000A1
:202DE00000F02DFD40F28C50C2F20000FFF706FE7DE0257801352570257815F00F052570ED
:202E0000A56ADDF804C0013DA5EB0B05ADB2AC4508D8DDF804C05FFA8CF74FF0010C8DF8B6
:202E200001C004E0A56A013DA5EB0B05EFB2002518E0D4F808C0B4F80CE0D6F800800BEBD2
:202E40000809A944DCF800C099F801800CF80E80B4F80CC00CF1010CA4F80CC005F1010C4F
:202E60005FFA8CF5BD42E4D3B4F814C0BC44A4F814C0B4F820C00CF1010CA4F820C09DF82B
:202E800001C0BCF1010F1AD14FF00B0CC4F824C0BAF800C0A4F822C0DDF81480D8F854C096
:202EA000BCF1000F23D10021BAF8000000F0C7FC40F28C50C2F20000FFF7A0FD17E0D4F8C4
:202EC00028C0D6F808E0F4450AD00121BAF8000000F0B5FC40F28C50C2F20000FFF78EFD89
:202EE0004FF47A7000F0BFF98446A4F804C006B0BDE8F08F2DE9F04C81B0834615461F46ED
:202F0000009107F1020C5FFA8CF607F1010C5FFA8CFA0BF13004D5F800C01CF80AC0A4F824
:202F200002C0B4F802C0BCF1000F03D14FF6FF7CA4F802C0D5F800C01CF806C0BCF17F0F11
:202F400006D9D5F800C01CF806C0BCF1F10F06D3D5F800C01CF806C0BCF1F90F04D94FF06D
:202F60007F0C84F801C015E0D5F800C01CF806C0BCF17F0F04D94FF0010C84F801C009E0A3
:202F8000D5F800C01CF8060000F06DF900F1010C84F801C094F801C084F828C0962000F0A2
:202FA00062F98446A4F804C04FF0090CC4F824C000BF01B0BDE8F08CF0B505460E46344649
:202FC0002146284600F038F80246174687B90B2262622A886284726DA2B90021288800F093
:202FE0002EFC40F28C50C2F20000FFF707FD09E00121608C00F023FC40F28C50C2F2000023
:20300000FFF7FCFCF0BDF0B507460E4634462146384600F011F80246154615B9012262621F
:2030200007E0012D03D13046FFF7E8FC01E0032262622A461046F0BDF0B506460C460125B1
:20304000A2683AB904F108022169308800F0D0FB02461546A268DAB1A268A38992689A4233
:2030600016D90025002210E0A36804F1160CA7891B681CF802C003F807C0A38A0133A38237
:20308000A3890133A381531CDAB2A37F9A42EBD32B461846F0BD0000000000002DE9F04F24
:2030A00086B007468B4615464FF0000A5E4601AB039300230593002410E0C4EB840344F2F7
:2030C000505CC0F2010C0CEBC303B7F80AC05B889C4501D1A24603E0631CDCB2002CECD0F9
:2030E0007B68012B13D07B688BB9DDF80CC0DDF814E0CAEB8A0344F25059C0F2010909EB7C
:20310000C3031B7C0CF80E30059B01330593F5B9039BDDF814C04FF0300E03F80CE0059BAB
:2031200001330593039BDDF814C04FF0000E03F80CE0059B01330593039BDDF814C04FF056
:20314000000E03F80CE0059B0133059316E0022D0AD1039BDDF814C04FF0310E03F80CE062
:20316000059B0133059309E0039BDDF814C04FF0320E03F80CE0059B0133059303A800F046
:203180001AF803A97889FFF7B0F84FF47A7000F06AF80346B38015B90223736208E0032DF7
:2031A00002D10423736203E0022D01D11123736206B0BDE8F08F10B4044606E02168A268F2
:2031C00000238B54A1680131A160A1680829F5D310BC7047F0B40546FF23FF22002110E0E9
:2031E000C1EB810444F2505CC0F2010C0CEBC4046488A54201D10A4605E001F1010C5FFA0C
:203200008CF10029ECD0FF2A28D0002124E001EB810444F2285CC0F2010C0CEB84046489B0
:20322000A54215D101EB810C44F22856C0F20106C2EB820406EB8C0644F2505CC0F2010C84
:203240000CEBC4047688A488A64201D10B4605E001F1010C5FFA8CF10229D8D300BF1846CD
:20326000F0BC7047000010B40446611C89B2084610BC7047F0B404460D46164600230DE0A7
:203280005F1901373F78802FEF5C2CBF4FF0010C4FF0000C0CEB4707F7540133A4F1010CE5
:2032A0006345EDDBA4F1010C0CEB0607AC449CF800C04FEA4C0C87F800C0F0BC70472DE96B
:2032C000F00C05460E4617469C46002408E017F804A016F804B08AEA0B0A0CF804A001342D
:2032E000AC42F4DBBDE8F00C70472DE9F044D8B007460C461646012544F26853C0F201031F
:20330000D3F800C0CDF830C1D3F804C0CDF834C1D3F808C0CDF838C1DB684F9350A8102283
:20332000002101F0E9FE48A81022002101F0E4FE02A84FF48C72002101F0DEFE394602A87C
:203340008022FDF7E4F803461D4654AD50AB8DE8280048AB02A810220121FEF721FA03466C
:203360001D469DF85031802B05D2224654A91020FFF780FF0AE0224654A91020FFF77AFF5A
:2033800023464CAA21461020FFF799FF2378802B05D2324621461020FFF76CFF0AE03246BA
:2033A00021461020FFF766FF33464CAA31461020FFF785FF2B46184658B0BDE8F084F0B4F7
:2033C00006460C461546002315E0AB4204D216F803C004F803C00AE0AB4204D14FF0800C12
:2033E00004F803C003E04FF0000C04F803C003F1010C5FFA8CF3102BE7D3F0BC70472DE9DA
:20340000F04DDDB007468A469B4602924DA81022002101F071FE07F10F0C4FEA1C1515B95D
:203420000125002605E017F00F0F01D1012600E0002646B1659A51AB681E0AEB0011102089
:20344000FFF73DFF0DE007F00F024DA96B1E0AEB0310FFF7B4FF51AB4DA91020669AFFF7FD
:203460002EFF002409E00DF5B27C4FF0000E0CF804E004F1010C5FFA8CF4102CF3D30024AC
:2034800026E055AB0AEB041259A91020FFF717FF49A81022002101F02FFE03A84FF48C728F
:2034A000002101F029FE594603A88022FDF72FF80DF5B27E0DF5AA7C8DE8005049AB03A80E
:2034C00010220121FEF76CF904F1010C5FFA8CF4A5F1010C6445D4D355AB51AA59A9102043
:2034E000FFF7EDFE49A81022002101F005FE03A84FF48C72002101F0FFFD594603A88022CD
:20350000FDF705F80DF5B27E0DF5AA7C8DE8005049AB03A810220121FEF742F900240BE069
:203520000DF5B27CDDF808801CF804C008F804C004F1010C5FFA8CF4102CF1D35DB0BDE8D5
:20354000F08D2DE9F04C8AB005460E4617469A46002444F2785CC0F2010CDCF800E0CDF820
:2035600018E0DCF804E0CDF81CE0DCF808E0CDF820E0DCF80CC0CDF824C044F2885CC0F244
:20358000010CDCF800E0CDF808E0DCF804E0CDF80CE0DCF808E0CDF810E0DCF80CC0CDF87E
:2035A00014C002AA06A92846FFF79FFE0DF1080E0DF1180C8DE800502B46524631463846E2
:2035C000FFF71DFF00BF20460AB0BDE8F08C70B4044642F20001C4F20301012294B30B699E
:2035E000D4F80CC06CF300030B610B69D4F808C06CF382030B610B6913F0010F06D1CB687C
:20360000D4F804C06CF30F03CB6001E06368CB60636923B90B6943F0C0030B6105E00B69D0
:203620004FF0020C6CF387130B610B69D4F810C06CF305130B610B6943F002030B61236842
:203640008B60002200BF104670BC704700B544F2A050C0F20100FFF7BAFF002000BD2DE935
:20366000F04D83B084460E46964642F20005C4F2030502930024BEF1010F07D12F6947F0CA
:2036800002072F61DDF80880C5F808802F696FF341072F611DE004EB0C0701373F781CF81B
:2036A00004A04AEA072704EB0C0A0AF1020A9AF800A047EA0A4704EB0C0A0AF1030A9AF8A5
:2036C00000A04FEA0A6A4AEA070BC5F808B00434043E042EDFD205E01CF804A085F808A0C3
:2036E000013E0134002EF7D82F69BF06BF0F0FB1012F04D1D5F808801FFA88FA03E0D5F8C9
:2037000008804FEA184A00BF504603B0BDE8F08D00B5002008F0B2FE00BD30B404460D46A1
:2037200025646A6AA260AA6AE260EA6A22612A6B62616A6BA261AA6BE261EA6B226205F1A6
:20374000400262626A6CA26205F14802E262EA6C226330BC7047F0B506460F4640F2743566
:20376000C2F2000540F22C64C2F2000429462046FFF7D3FF072060632146002008F0A2FE70
:2037800005463A463046216A01F09DFC2846F0BD10B540F2B064C2F20004022000F0BFF82C
:2037A000002000F0EDF800F03DFB04F5E670A06004F13C00E06100F088F800F0A4F800F03F
:2037C00057FB10BD4DF8048D40F2B061C2F2000148695DF8048B704710B50446204600F04B
:2037E0009EF810BD00B500F037FB00F044FA00BDF0B405460E46174640F2B064C2F2000406
:203800000023D4F800C0BCF1000F13D1CC2D01D0FF2D0FD1B6F5006F0AD84FF0010CC4F87F
:2038200000C0A580266104F1080CC7F800C002E0032300E0012300BF1846F0BC704770B5E3
:2038400005460E4640F2B064C2F20004206801280AD12EB9A088854202D100F0A7F903E023
:2038600000F051F800F031F870BDF0B506460F4640F2B065C2F2000500246A69022A08D187
:203880002A8B964205D105F11C023A6001226A6104E000F038F800F018F801242246104642
:2038A000F0BD70B505460E4640F2B064C2F2000446B9228B954205D194F82D2012B900227A
:2038C000626101E000F001F870BD30B540F2B064C2F2000425460020A062002060610020BD
:2038E00084F82C00012084F82D0000F036FA00F00EFA94F8CC09012802D100F0E5F901E032
:2039000000F0DFF830BD2DE90041002040F2B061C2F20001086000F03BF9BDE800812DE9BC
:203920001001044641F27C01C2F200010C70BDE8100170474DF8048D41F27C01C2F20001A3
:2039400008785DF8048B70472DE9F00104460D46002300220DE041F27C0CA75CC2F2000CF8
:203960009CF800C0BC4500D1012302F1010C5FFA8CF2AA42EFD300BF1846BDE8F00170470E
:203980002DE91001044641F27C01C2F200010C71BDE8100170474DF8048D41F27C01C2F22D
:2039A000000108795DF8048B704710B40446012141F28403C2F2000353F82420002A00D9B7
:2039C000002100BF084610BC70472DE9F00104460D46002300220DE041F27C0CA75CC2F2EE
:2039E000000C9CF804C0BC4500D1012302F1010C5FFA8CF2AA42EFD300BF1846BDE8F00135
:203A0000704730B404460D46A20041F28403C2F200039D5030BC70472DE91001044641F227
:203A20007C01C2F200014C80BDE8100170472DE90041012040F2B061C2F2000181F82D0005
:203A400000F0BDF9FFF75FFFBDE8008170B5064640F2B064C2F20004E569782E02D00121EF
:203A600084F82D107F212970A16809786970AE700321616200F0A3F994F82D10012901D19B
:203A8000FFF741FF70BD70B505460E461446ADB9CC2E0BD0FF2E0DD1112C0BD0122C09D030
:203AA000312C07D07E2C05D07F2C03D02046FFF7CDFF03E0FFF727FFFFF707FF2B461846E3
:203AC00070BD10B440F2B064C2F2000494F8CC09012802D041F28830E08510BC704700B513
:203AE000012000F00CF800BD2DE91001044640F2B061C2F200018C63BDE8100170472DE919
:203B00001001044640F2B061C2F200010C86BDE81001704730B540F2AC65C2F2000505F17C
:203B2000200420685021017020680221417020680021817020683221C170206801210171D9
:203B40002068F42141710620A06000202860FFF76EFFFFF7B6FF30BD2DE90041002040F2A4
:203B6000AC61C2F200010860FFF7ABFFBDE8008140F2B060C2F2000070474DF8048D0020B2
:203B800040F2B061C2F2000148615DF8048B7047002007E040F67C01C2F20001FF220A54FB
:203BA000411C88B2B0F5006FF4D3704710B540F2B064C2F20004022020603220FFF79FFF91
:203BC00000F0B1F800F080F8012084F82C00002084F82D0010BD2DE9F04C40F2B064C2F239
:203BE0000004002544F22066C0F20106002715E0A0683178007881420DD1A088CC2802D152
:203C00007078C00705D4A088FF2803D17078800700D5A66204E01836781CC7B20A2FE7D37B
:203C2000A06AF8B1A06A0069E0B1A06A81784068FFF78AFE8246A06A017AC068FFF7C5FE76
:203C40008346BAF1000F01D17F250CE0BBF1000F01D1332507E0A06A026904F114012046CE
:203C6000904700E0112525B12A460020A188FFF70AFFBDE8F08C30B581B040F2B064C2F298
:203C800000046069F0B994F82C00012805D1002084F82C00FFF79FFF14E094F82D0088B9AD
:203CA0000DF1030001F091FC0546012D0AD1A06A406938B1A06A04F11402214643699DF8D8
:203CC0000300984701B030BD4DF8048D002040F2B061C2F20001C8855DF8048B704730B5A9
:203CE00040F2B064C2F20004E08D78B12146C88D0138C885E08D48B9FDF70BFE0446FEF744
:203D00000CF9054614B90DB9FDF713FE30BD4DF8048D6FF0FE0040F2B061C2F200014863F8
:203D20005DF8048B704710B440F2B064C2F200040020606341F28830A06310BC704710B40E
:203D400040F2B064C2F20004606B002803DB2146486B0130486310BC70474DF8048D002025
:203D600040F2B061C2F2000108865DF8048B704730B540F2B064C2F200040025208EE8B1D3
:203D8000208E01382086208E10B9606900B90125606B00280DDB606BA16B884209D2012DF2
:203DA0000CD17820FFF752FE41F28830FFF7A7FE04E01020FFF74AFEFFF7A9FF30BD10B520
:203DC00040F2B064C2F2000402206061AA20208304F11C01208B02F0A8FF00BF10BD70B58E
:203DE00041F28405C2F2000501F0EDFC0646002415E055F8240000280FD9A10068580138F4
:203E0000685055F8240040B956F82400022804D3A0000021315001F05CFC601CC4B2002C64
:203E2000E7D070BD4DF8048D002041F27C01C2F2000148805DF8048B704710B541F27E0466
:203E4000C2F20004208830B1208801382080208808B9FDF76EFD10BD00B5FFF7C0FFFFF7AB
:203E60003EFFFFF785FFFFF76AFFFFF7E6FF00BD4DF8048D41F29C00C2F200000121417167
:203E80000021017100210160002181710021C160002141F28802C2F2000211700021016120
:203EA0000021416100218160002101765DF8048B70472DE9F04F82B007460D4601228DF83B
:203EC000002000228DF8012000264FF0000BBA68527812F0800202D000228DF80020BA685F
:203EE000527812F07F028DF802204FF0000A1CE044F21073C0F2010303EB0A129DF8023049
:203F0000127893420DD14FEA0A1244F21073C0F2010302EB030B9DF8026001228DF80120E5
:203F200006E00AF101025FFA82FABAF1020FDFD30220396900F0F5FE02461446012C07D10C
:203F40001222B9889DF80100FFF79DFD02461446012C0ED19BF80110DBF80400FFF7F4FCB7
:203F60000246144620467E22B988FFF78CFD02461446012C05D10220396900F0C5FE024675
:203F80001446012C07D19BF80810DBF80C0000F0D5FE02461446012C65D1002241F2880390
:203FA000C2F200031A700020FFF7EAFCFFF7C2FC02468DF803203046FFF7B1FC01F00DFC0D
:203FC0009DF80020012A3CD1AA6850231370BB68AA685B785370022E20D1AA6800239370C8
:203FE000AA683223D37001F004F9002241F29C03C2F200039A60002241F29C03C2F20003D9
:204000001A71002241F29C03C2F20003DA60002241F29C03C2F200039A7107E0012E05D18E
:20402000AA6800239370AA683223D370AA6801231371AA68F423537106222A61FFF7F7FC5B
:2040400003E0FFF760FCFFF740FC9DF80320022A05D1012E03D13220FFF7DEFC03E0022E07
:2040600001D1FDF77FFE02B0BDE8F08F2DE9F04D82B0074601914FF0000A01244FF0010B0A
:204080000026BA68527812F0800201D04FF0000BBA68527812F07F028DF80320002515E03E
:2040A00044F23073C0F2010303EB05129DF803301278934208D12A0144F23073C0F20103B2
:2040C000D6184FF0010A03E06A1CD5B2002DE7D0BAF1010F0CD171787068FFF735FC02460C
:2040E000144620467E22B988FFF7CDFC02461446012C05D10220396900F013FE0246144654
:20410000012C06D150461222B988FFF7BCFC02461446012C03D100F037FE02461446012C4B
:2041200005D10220396900F0EFFD02461446012C05D1317AF06800F001FE02461446012CA3
:2041400018D1BBF1010F0ED1019B9A6851231370019B9A689DF803305370019B02221A61E2
:20416000FFF765FC03E0FFF7CEFBFFF7AEFB2320FFF752FC02B0BDE8F08D2DE9F04F8FB0B8
:2041800007460391002600228DF80320002202924FF0000B0320396900F0C3FD0246144637
:2041A000012C09D13A69D20706D413220020B988FFF769FC024614463A69013A5208029243
:2041C0003A69013A52080B2A07D33A69013AD20703D41320FFF73AFC0024012C4AD100241B
:2041E0004FF0000A43E0BA68013202EB4A0212781202ADF80620BA68BDF80630023202EB2E
:204200004A0212781A44ADF80620002521E0C5EB850244F24073C0F2010303EB8202BDF87C
:2042200006301288934213D14FEA8B030DF1100CC5EB850244F2407EC0F2010E0EEB8202AB
:204240004CF803200BF101021FFA82FB012402E001350B2DDBD3012C07D031220020B98887
:20426000FFF711FC0246144604E00AF1010A029A9245B8D3012C11D100250DE0012C09D189
:2042800004AB53F825209178506800F057FD0246144600E002E001355D45EFD3012C03D1DB
:2042A00000F072FD02461446012C4CD100253AE004AB53F8252092682AB3039B9A680DF1C0
:2042C000100C3244531C5CF82520128812121A70039B9A680DF1100C3244931C5CF8252084
:2042E00012881A70039804AB53F82520836801A93344D81C9268904702468DF80320BDF84A
:204300000420324496B29DF803200AB100240CE0B21C96B2B6F5C87F04D31420FFF796FB9E
:20432000002402E001355D45C2D3012C0BD19DF8032042B9039B9A6862231370039B721C7A
:204340001A61FFF774FB0FB0BDE8F08F2DE9F04E82B00746019100BF00228DF80320002587
:20436000BA6852784FEA022ABA68927852441FFA82FA002614E044F2E073C0F2010303EB4E
:2043800006121288924509D1320144F2E073C0F20103D51801228DF8032003E0721CD6B297
:2043A000022EE8D30420396900F0BBFC02461446012C07D13122B9889DF80300FFF763FB7E
:2043C00002461446012C06D139696A88D01C00F09BFC02461446012C05D12979A86800F0E9
:2043E000ADFC02461446012C03D100F0CDFC02461446012C18D1EA683AB1EB686988BA685D
:20440000D01C98470246934601E04FF0010BBBF10B0F03D12220FFF719FB05E0BBF1000FFE
:2044200002D07220FFF712FB02B0BDE8F08E2DE9F04F82B00746019100228DF801200025ED
:20444000BA6892F801B0002623E0C6EBC60244F2C473C0F2010303EB8202127893450AD08C
:20446000C6EBC60244F2C473C0F2010303EB8202927893450BD1C6EBC602920044F2C473F8
:20448000C0F20103D51801228DF8012003E0721CD6B2002ED9D00220396900F042FC0246A6
:2044A0001446012C07D11222B9889DF80100FFF7EAFA02461446012C3BD1287900F06CFCE4
:2044C00002468DF803202A7893451FD14FF0020A5046396900F018FC02461446012C0DD14E
:2044E0009DF80300FFF761FA02468DF802209DF802201AB93720FFF7A9FA0024012C18D130
:2045000039462846019A00F061FC12E0AA7893450FD1EA7802F1020A5046396900F0F4FB82
:2045200002461446012C04D139462846019A00F0B0FC02B0BDE8F08F2DE9F04F81B005460C
:204540000E4600228DF802200027AA6892784FEA022BAA68D2785A441FFA82FB4FF0000ABC
:204560001AE00AEBCA0244F60003C0F2010303EB8202128893450BD10AEBCA02920044F640
:204580000003C0F20103D71801228DF8022006E00AF101025FFA82FABAF1030FE1D304205B
:2045A000296900F0BEFB02461446012C07D13122A9889DF80200FFF766FA02461446012CD9
:2045C0000CD13979B868FFF7BFF90246144620463122A988FFF757FA02461446012C06D105
:2045E000397B386900F0AAFB024614460124012C13D1AA6852788DF803209DF80320397D07
:20460000B86900F0ABFB0246144634B912220020A988FFF738FA02461446012C06D129696F
:204620007A88101D00F070FB02461446AA689278FF2A02D1AA68D2783AB1AA689278022AA7
:2046400004D1AA68D278062A00D10124012C36D1B26871231370AB68B2685B785370AB68C8
:20466000B2689B789370AB68B268DB78D370AA689278FF2A0DD1AA68D27852B9AB68B26890
:204680005B785370B268FF239370B2680023D37011E0AA689278022A0DD1AA68D278062A22
:2046A00009D1AB68B2685B785370B26802239370B2680623D37031462846FA69904701B0C5
:2046C000BDE8F08F2DE9F04F84B00646039144F66C0AC0F2010A0520316900F022FB0246CC
:2046E0001446002241F29C03C2F2000383F8242000228DF80320012C2DD1B26892F801B0AC
:20470000B26892788DF80120002518E00AEBC5021278934511D10AEBC5029DF80130527866
:2047200093420AD101228DF80320EA0044F66C03C0F2010303EB020A03E06A1CD5B2022D9C
:20474000E4D39DF8032032B931220020B188FFF79AF902461446012C05D10B20316900F070
:20476000D3FA02461446012C4CD1B268D01C00F0F5FC024617463846FDF724F902461746C0
:20478000B268D01D00F0EAFC024602923846029900F017FE02468DF802209DF80220052A6D
:2047A00004D13120FFF752F900242BE044F66C00C0F2010000EBC5029178506800F0BEFAEF
:2047C000012801D000241DE09DF80220022A0CD041F29C03C2F200039A6832B941F29C03B7
:2047E000C2F200039A79012A04D12220FFF72EF9002407E09DF80220082A03D17020FFF742
:2048000025F90024012C1FD1BBF1000F11D19DF80120442A0DD1B7F55C3F05D1002241F624
:20482000B823C2F200031A603046039900F0A9FB0AE0BBF1100F07D19DF80120442A03D141
:204840003046039900F0D2FB00BF04B0BDE8F08F2DE9F04D83B0834641F29C05C2F2000516
:2048600002914FF0000A2E790320DBF8101000F058FA02461446012C33D1DBF808205278C5
:204880008DF80320DBF81020971E00F0B2FF02460192AA79012A08D19DF80320012A04D05E
:2048A0007320FFF7D3F800241BE09DF80320964217D1019AAAB1019A032A12D0EA68BA421F
:2048C0000FD1029B9A6876231370029B9A68DBF808305B785370029B02221A61FFF7A7F82C
:2048E0000024012C14D13946286800F03CFE02469246BAF1020F04D12420FFF7A7F800249B
:2049000006E0BAF1050F03D17120FFF79FF80024012C09D19DF8032032B9AA79012A03D110
:204920007320FFF793F80024012C0DD1FF2E01D1002601E0721CD6B29DF80320964203D0B5
:204940007320FFF783F80024012C21D1DBF81020971E00F0C2F9AA68012A13D1DBF8082091
:204960003946901C00F091FD0246924695F8242012B92A683A442A60BAF1000F02D1002289
:20498000AA712E71012C03D1EF600022AA712E7103B0BDE8F08D2DE9F04106460F4601244F
:2049A00000F027FF022806D10120316900F0ACF90246144603E02420FFF748F80024012C40
:2049C0001ED100F0EAFD02461546B5B9002241F29C03C2F200039A60002241F29C03C2F2B3
:2049E00000031A7100210846FDF716FB00F075F94FF4FA60FFF778F802E02420FFF726F81A
:204A000000BFBDE8F0812DE9F04D81B005468B4600274FF0010AAA68527812F0800201D07F
:204A20004FF0000AAA68527812F07F028DF8032000260DE044F21B62C0F2010232449DF8A0
:204A400003301278934201D1012703E0721CD6B2002EEFD00220296900F063F90246144642
:204A6000012C06D138461222A988FFF70CF802461446012C05D10220296900F045F9024686
:204A80001446012C15D1BAF1010F0ED1DBF808207E231370AB68DBF808205B785370022228
:204AA000CBF81020FEF7C3FF03E0FEF72CFFFEF70CFF00BF01B0BDE8F08DF0B506460D4673
:204AC00014468EB9A3684FF06E0C83F800C0AF68A3687F785F70AF68A368BF789F700323C0
:204AE0002361FEF7A4FF02E07220FEF7AFFFF0BD2DE9F04D82B083460E4614464FF0000A91
:204B0000B36893F802C0DB7803EB0C239FB2002518E005EBC50344F6000CC0F2010C0CEB9B
:204B200083031B889F420BD105EBC50344F6000CC0F2010C0CEB830301934FF0010A03E094
:204B40006B1CDDB2032DE4D3BAF1010F4CD1DDF804C0DCF820302BB10198036A2246314602
:204B600058469847BBF1000F24D140F21228B7EB080304D04FF6EE48434514D019E0012317
:204B800041F29C0CC2F2000C8CF81830A3684FF0100C83F804C0A3684FF0000C83F805C073
:204BA00001F01CFB25E0A3684FF0100C83F804C01FE01EE040F21228B7EB080304D04FF614
:204BC000EE48434509D00EE0A3684FF0100C83F804C0A36883F805B00BE0A3684FF0110C1E
:204BE00083F804C005E004E0A3684FF0010C83F804C0A3684FF0710C83F800C0D6F808C07F
:204C0000A3689CF801C083F801C0D6F808C0A3689CF802C083F802C0D6F808C0A3689CF88F
:204C200003C083F803C040F21228B7EB080304D04FF6EE48434503D005E00623236103E03B
:204C40000523236100E000BFFEF7F1FE02B0BDE8F08DF0B505460E4614466DB9A3684FF043
:204C6000760C83F800C0B768A3687F785F7002232361FEF7DCFE02E07220FEF7E7FEF0BD14
:204C80002DE9F04181B005460E46144644F67C0CC0F2010CBCF80030ADF80230BDB90DF1F3
:204CA000020000F0DDF9A3684FF0770C83F800C0A3689DF802C083F801C0A3689DF803C023
:204CC00083F802C003232361FEF7B1FE02E07220FEF7BCFE01B0BDE8F08100B57820FEF71D
:204CE000B5FE41F28830FEF70AFF07E001F089FC012801D102F08DFF02F086FFFEF738FF9F
:204D000040690028F2D100BD70B505460E460124AE4203D000241320FEF798FE22461046F6
:204D200070BD70B505460E460124AE4203D200241320FEF78BFE2246104670BD70B5054668
:204D40000E4631462846FEF740FE0246144614B93320FEF77BFE2246104670BDF0B40546DD
:204D60000E4617460024002308E015F803C0674500D1012403F1010C5FFA8CF3B342F4D34C
:204D800000BF2046F0BC704710B5012414B92220FEF75CFE012010BD30B40446FF220021E5
:204DA0000EE0C1EBC10344F2C47CC0F2010C0CEB83031B799C4201D10A4603E04B1CD9B27A
:204DC0000029EED000BF104630BC70472DE9F04D81B00446174641F28805C2F200050091FF
:204DE0004FF0010AFEF7D7FD03469B462079FFF7D3FF03461E4623795B4505D1E81C002131
:204E0000627800F079F924E0AB1903F1020C9B7801338CF80030AB1902331B78022B10D9EF
:204E2000AB1902334FF0000C83F800C042F210713046FEF7E6FD3720FEF708FE4FF0000A55
:204E400007E001232B7023786B70E81C636961789847BAF1010F18D1BB684FF0670C83F8BA
:204E600000C0DDF80080D8F808C0BB689CF801C083F801C06278BB68E91C981C00F023F90F
:204E8000637802333B61FEF7D2FD00BF01B0BDE8F08D2DE9F04D82B005468B46924641F264
:204EA0008807C2F2000700F08EFC03461E462879FFF772FF03461C463B1902334FF0000CFA
:204EC00083F800C07B7895F800C0634553D13B78012B50D100233B70FEF774FC0028FBD164
:204EE000D5F818806B78E978DBF808C0FA1C0CF10200C04703468DF803309DF8033003BBCB
:204F000056F8243033B1A3004FF0000C46F803C000F0DFFB2879FEF733FDDAF808304FF043
:204F2000670C83F800C0DBF808C0DAF808309CF801C083F801C00223CAF81030FEF777FDFD
:204F40001CE04FEA840C56F80C30013346F80C3000F0BFFB56F82430022B03D23520FEF7BC
:204F600075FD0BE042F210712046FEF74AFD3620FEF76CFD02E02420FEF768FD02B0BDE8F2
:204F8000F08DF0B506460D4641F29C04C2F20004002222760122A271002222710122A260FB
:204FA000B268D01C00F0DAF8024622602068FCF709FD02462260B268D01D00F0CFF802460E
:204FC00017463946206800F0B5F9AA6874231370AA6820235370AA6808239370AA68002316
:204FE000D37004222A61FEF722FDF0BDF0B506460D4641F29C04C2F2000402F074FB0022AA
:205000002276012284F824200122A271002222710122A260B268D01C00F0A0F802462260AD
:205020002068FCF7CFFC02462260B268D01D00F095F8024617463946206800F07BF9AA68BA
:2050400074231370AA6820235370AA6808239370AA680023D37004222A61FEF7E8FCF0BD2F
:2050600010B5044601F006F8C0F30721217001F001F80146617010BDF0B405460E46174657
:205080009C4600BF00BF00BF00BF00242046F0BC7047F0B405460E4617469C4600BF00BF45
:2050A00000BF00BF00242046F0BC7047F0B405460E4617469C4600BF00BF00BF00BF0024E3
:2050C0002046F0BC70472DE9F00406460F46944633463C4665460AE03BB134B194F800A0F5
:2050E00083F800A00133013400E002E0013D002DF2D8BDE8F0047047F0B405460E46174645
:205100002B463C4605E013B11E70013300E002E0013C002CF7D8F0BC70472DE9F04C8446B8
:205120008A4617460123644655463E460FB9002310E00DE04CB145B194F800B095F800E0F1
:20514000F34502D10134013501E0002302E0013E002EEFD800BF1846BDE8F08C10B4044673
:2051600022781106627812041144A27812021144E278114400BF084610BC70472DE9100150
:20518000044641F2C401C2F200010C60BDE81001704710B4044600BF10BC70472DE9704128
:2051A00041F2D805C2F2000505F18006002085F8E806012085F88000002405E02819823005
:2051C00000210170601CC4B20A2CF7D3284680220021FFF791FF00F00CF844F6A010C0F204
:2051E0000100416840F2E030C2F200008847BDE8708110B541F25814C2F200040020C4F8B2
:20520000600600F0EBFF0020C4F864060020C4F874060020C4F870060020C4F86C0610BD45
:2052200030B541F25815C2F2000500242878012802D100F07BFC04460320C5F86406002055
:205240006870204630BD70B5064641F25814C2F2000400252178012903D100F067FC014605
:205260000D46A66194F8681602290CD25DB994F86816013184F86816A6610321C4F8641614
:205280000021617002E0FFF7B4FF02252946084670BD2DE9F044044641F25816C2F2000691
:2052A00041F2DC77C2F2000741F6B01AC2F2000A00259AF806108C4237D2C4EB84010AF11B
:2052C0000C0202EBC1017A6D49888A4207D3C4EB84010AF10C0202EBC101498819BB07EB30
:2052E000C40100220A70002187F85010C4EB84010AF10C0303EBC101097807EBC402D170E5
:2053000007EBC4014FF0FF324A6000F067FF3473317B3144023100220A70002171700121AB
:20532000C6F8641602E0012500E0062529460846BDE8F0842DE9F04C82468B4641F25814C2
:20534000C2F200040025C4F810A0C4F814B0002284F868262278C2B90122C4F86026227F3D
:2053600001322277227FA4F1080302EB820203EBC20223691360227FA4F1080302EB82024C
:2053800003EBC2026369536014E0277F07EB870204EBC20303F120062269326000227260E8
:2053A00000F0F3FB02461546227F013222770122C4F860260022C4F864262A461046BDE8C7
:2053C000F08C2DE9F04C05460F4641F25816C2F20006002496F8682622B1002286F86826C3
:2053E000FFF707FFD6F860262AB1D6F86026032A01D0022442E03278CABB4EF20002C2F2C3
:205400000002954231D3EA43BA422ED34FF20002C2F20002954228D87A194FF20003C2F22A
:2054200000039A4221D8B7F5805F1ED8002F1CD94EF20002C2F20002954201D1FFF7D9FE81
:2054400096F81CA0BAF1000F18D9A6F108030AEB8A02D20002EB030BDBF80420DBF800306D
:205460001A4495420AD2022408E0052406E03946284600F0D6FA0246144600240CB1FFF7D8
:20548000B8FE22461046BDE8F08C2DE9F04D89B041F2581BC2F2000B41F29C07C2F20007F5
:2054A000019002910025029EDDF804A00024DBF81420921BCBF814209BF80020002A43D1CA
:2054C00097F82420012A2AD100228BF86A2621E0FCF764FD802E01D9802403E0344601229D
:2054E0008BF86A2603AA2146504602F00FF9079A0399386800F05AFE05462DB9079A039962
:20550000386800F02BFE0546361BA2443A68079B1A443A60002E14D9002DD9D011E0FCF73F
:205520003DFD32460199386800F040FE054645B901228BF86A2632460199386800F00EFE24
:205540000546FCF72BFD0AE00198CBF81800CBF874660222CBF8642600228BF80120284645
:2055600009B0BDE8F08DF0B506460F4641F25815C2F200050024D5F86026012A03D0022416
:20558000FFF737FE06E02A69B24202D16A69BA4200D2052422461046F0BD30B541F25815E6
:2055A000C2F200050024D5F86006022808D10320C5F860060020C5F8640600F0CBFC02E0B2
:2055C0000224FFF716FE204630BD10B4044641F25812C2F200020021D2F8643643B953789B
:2055E000072B05D05378237000235370012102E000232370002100BF084610BC704710B530
:2056000041F25814C2F20004D4F86406013810D303D0022805D308D00BE000F09DF96070F3
:2056200008E000F0AAFB607004E000F0ADFC607000E000BF60780A2802D00020C4F864060F
:2056400010BD70B405460E4641F2C474C2F200042560666070BC70472DE9104184B040F29C
:20566000E034C2F2000400208DF8040041F2DC70C2F20000029060200390684602F051FCF0
:2056800001208DF80400684602F04BFC02208DF80400684602F045FC009841F2DC71C2F221
:2056A0000001086641F2DC70C2F2000060614AF20000C0F20110E06064202061204602F0EB
:2056C0000EFC08B9002100E00121084604B0BDE8108130B584B041F2CC05C2F2000540F29C
:2056E000E034C2F2000400208DF804002846029008200390684602F014FC01208DF8040020
:20570000684602F00EFC02208DF80400684602F008FC0098A860284660614CF20000C0F2D1
:205720000110E0600C202061204602F0D8FB08B9002100E00121084604B030BD2DE9104106
:2057400084B040F2E034C2F2000400208DF8040041F64000C2F2000002904FF4A0700390CB
:20576000684602F0DEFB01208DF80400684602F0D8FB02208DF80400684602F0D2FB0098E3
:2057800041F64001C2F20001C1F8400141F64000C2F2000060614EF20000C0F20110E060B3
:2057A0004FF4A2702061204602F099FB08B9002100E00121084604B0BDE8108141F2DC708C
:2057C000C2F20000704741F2CC00C2F20000704741F64000C2F2000070474DF8048D00201C
:2057E00041F25811C2F20001C1F860065DF8048B70474DF8048D41F25811C2F20001D1F8AE
:2058000060065DF8048B704710B441F25814C2F20004D4F86406012804D160780A2801D15C
:20582000012000E0002010BC704710B441F25814C2F20004D4F86006032802D10020C4F89D
:20584000600610BC70472DE9F04C81B08A4641F25817C2F2000741F68415C2F2000540F2F4
:20586000E036C2F2000600900024BAF1120F29D14EF2000BC0F2001B594628462C22FFF775
:2058800022FC5246281D0099FFF71DFC4FF05A312960FFF722FA75614EF20001C0F2001126
:2058A000F16030213161304602F019FB30B9284602F050FA00217970002404E00121797088
:2058C000012400E00124204601B0BDE8F08C2DE9F04482460F4641F25816C2F2000641F66D
:2058E0004005C2F200050024102F22D1D5F8380144F64A31C5F24801884218D03A465146D0
:2059000005F59470FFF7DFFB44F64A30C5F24800C5F83801FFF7E1F9FFF710FF18B900204A
:205920007070002406E001207070012402E00B2400E001242046BDE8F0842DE91001044651
:20594000002141F2DC72C2F2000282F8504000BF0846BDE8100170472DE9F04541F2581580
:20596000C2F2000540F2E037C2F2000740F26C6AAA440A260024D5F86C06F860D5F8700646
:205980003861D5F87006B0F5001F2BD8D5F87006386144F6A010C0F20100C1683846884775
:2059A0003889D8B9297BA81C01224254287B41F2DC71C2F2000101EBC000C07807280BD1AD
:2059C000002405E0297BA81C01224254601CC4B20A2CF7D3002602E0002600E00126FFF780
:2059E00008FC1BE04FF40010386144F6A010C0F20100C16838468847388960B9D5F870068C
:205A0000A0F50010C5F87006D5F86C0600F50010C5F86C0602E0FFF7ECFB01263046BDE83A
:205A2000F0852DE9F04F83B007468B4641F25816C2F2000641F6B01AC2F2000A00250024E8
:205A400000228DF8022000245BE0321902321278012A54D10AF10C03C4EB840203EBC202D4
:205A60009068FBF7AFFF02460192327F282A46D2FA435A4543D3019A974240D3C4EB8402EA
:205A80000AF10C0303EBC202019BD2681A44974235D2C4EB84020AF10C0C0CEBC202DDF85E
:205AA00004C0D2680BEB07036244934227D8C4EB84020AF10C0303EBC202D26893451ED875
:205AC000BBF1000F1BD9327F8DF80320347301228DF802209DF803208AB19DF80320A6F10B
:205AE000080302EB820203EBC2020292DDF808C09CE8080108EB0302974200D20825621C6C
:205B0000D4B29AF8062094429FD39DF80220012A00D005252DB9327B32440232127802B9A1
:205B200008252A46104603B0BDE8F08F2DE9F04141F2D804C2F2000440F2E035C2F200058D
:205B400004F5DF670026D4F8FC06D8B1D4F8F806E860D4F8FC06FF21C0F180022044FFF7FC
:205B6000CBFA20466861802028610020C4F8FC0644F6A010C0F20100016928468847288935
:205B800000B101263046BDE8F08170B541F2D804C2F2000404F5DF660025D4F8FC0670B361
:205BA000D4F8F806D4F8901020F07F0021F07F01884213D1D4F89000D4F8FC36D4F8F816AD
:205BC000C01A421A1819FF21FFF796FAD4F89000D4F8F816401AC4F8FC061DE0FFF7A6FFD2
:205BE000054600F051FAD4F8900010F07F00C4F8FC0620468022FF21FFF77EFA0CE000F014
:205C000043FAD4F8900010F07F00C4F8FC0620468022FF21FFF770FA284670BD2DE9F04144
:205C200041F2D804C2F2000404F5DF6740F2E035C2F20005002696E0D4F8FC06D4F8F4161E
:205C4000084480286ED3D4F8FC06D4F89810C0F180022044FFF737FAD4F8FC06C0F180020E
:205C6000D4F898001044C4F89800D4F8FC06C0F18002D4F8F406801AC4F8F406D4F89000A5
:205C8000D4F8FC16401AE860802028612046686144F6A010C0F20100016928468847D4F81C
:205CA000FC06C0F18002D4F890001044C4F89000D4F89000C4F8F8060020C4F8FC0628890E
:205CC00008B101264FE0D4F89400A0B994F8EA06012810D1D4F8F40668B900F0ABF80128D3
:205CE00003D1E86800F008F93DE094F89C10E86800F0B1F837E000F09DF8012804D1296925
:205D0000E86800F0C5F92EE094F89C000138C1B2E86800F0A0F800F0B7F92969E86800F059
:205D2000B7F920E0D4F8F426D4F89810D4F8FC062044FFF7C8F9D4F89000D4F8FC16401ADC
:205D4000C4F8F806D4F8FC06D4F8F4160844C4F8FC06D4F89000D4F8F4261044C4F89000F9
:205D60000020C4F8F406D4F8F406002802D9002E3FF462AF3046BDE8F0812DE9F04D86B0FD
:205D800041F25817C2F20007BB460025D7F818A0D7F87466002441F29C01C2F2000191F81E
:205DA0002400012834D1002087F86A062BE0FCF7F5F8802E01D9802403E03446012087F86E
:205DC0006A066A462146504601F0A0FC41F29C03C2F20003049A0099186800F0E7F90546BE
:205DE0007DB90098B8610498C7F87406FFF716FF054641F29C01C2F20001049A08681044AA
:205E00000860A244361B002E05D9002DCFD002E0FFF704FF0546FCF7C1F82DB9786928B991
:205E20000220C7F8600601E0FFF7E3F9284606B0BDE8F08D10B441F25814C2F20004207F68
:205E40000138C2B2637F934201D1012100E00021084610BC70472DE9F04D81B0824641F299
:205E60007415C2F200058DF803106C7804EB840205EBC2031F1D7A683B681A44A2EB0A0B79
:205E80005946504602F072F802F07CF8024616466A7801326A70314607F108002022FFF7C9
:205EA00012F96C7821E002F059F804EB84022B1D03EBC202516804EB840253F8320002F0A3
:205EC00055F802F05FF802461646314604EB84022B1D03EBC20202F108002022FFF7F3F884
:205EE0006A7801326A70621CD4B29DF803209442D9D301B0BDE8F08D2DE9F044064641F2D9
:205F00007415C2F2000529780139CFB207EB870105EBC102141D21688E4207D361682268FF
:205F200030461144891B02F021F803E06168206802F01CF802F026F801468A466978013173
:205F40006970514604F108002022FFF7BCF800BFBDE8F084F0B541F27414C2F20004207860
:205F60000138C5B205EB850004EBC0010E1D02F009F80746607801306070394606F108008A
:205F80002022FFF7A0F8F0BD70B541F25816C2F20006002400F014F800250DB90120307038
:205FA00045B9307B41F2DC71C2F2000101EBC000012101702C460CB9FFF71BF9204670BDF0
:205FC0002DE9F04CADF5006D41F25814C2F2000468464FF40062002102F0BCFA0025207B2D
:205FE00041F6BC11C2F20001C0EB800001EBC00086682069A0EB060B4FEADB20C7B2CBF393
:206000000A0AFDF723FB002410E006EBC42168464FF40062FFF757F8684600231A464FF464
:206020000061FDF71CFB0546601CC4B2BC42ECD3BAF1000F0CD9524606EBC7216846FFF746
:2060400042F85146684600231A46FDF708FB0546284600F004F80DF5006DBDE8F08C2DE9FC
:206060001001044641F2D871C2F200010C80BDE8100170474DF8048D41F2D871C2F2000194
:2060800008885DF8048B704700B501F067FF00BDF0B505460E4641F25814C2F20004207FD2
:2060A0000138C7B207EB870204EBC20101F120042068854204D33146284601F057FF05E0B4
:2060C00022687019811A104601F050FFF0BD2DE9F04C84460F4641F25812C2F200020023E8
:2060E000147FA2F1080504EB840405EBC4056C683C446C60147FA2F1080604EB8404E4008E
:20610000A559147FA2F1080A04EB84040AEBC4046668147B41F6BC1BC2F2000BC4EB8404B4
:206120000BEBC40B147BDBF808B041F6BC1EC2F2000EC4EB84040EEBC404E46805EB060A69
:206140005C44A24500D9052323B10024C2F864460524547000BF1846BDE8F08C2DE9F044E6
:2061600006468A46154641F25814C2F2000400272A4651463046FEF7A6FF29463046FFF738
:2061800087FF23692B442361636933B994F86A36012B02D10223C4F860360023C4F8643627
:2061A000002363703B461846BDE8F0842DE9F04407468A46164641F25815C2F200050024B1
:2061C0004CB931463846FFF782FF04461CB9C5F818A0C5F874662046BDE8F08410B441F2AD
:2061E0005814C2F2000400206077002020770020C4F87C060020C4F8780600BF10BC7047D3
:2062000010B440F2FC34C2F2000420780028FCD110BC704730B50446616811B10221218111
:2062200023E014B9052121811FE0217829B96178012902D1A178012902D00621218114E0A4
:20624000002007F042F9002007F088FA07F062FA01460D46012D04D10121616000212181BD
:2062600003E0002161600121218100BF30BD10B40446616811B90221218105E000216161BB
:20628000002121610021218100BF10BC704730B404460D460022B4F1807F06D3B4F1817F91
:2062A00003D2A4F180732B600AE0B4F5005F06D3B4F5002F03D204F5F0332B6000E00122D4
:2062C00000BF104630BC70472DE9F04D85B00446D4F80CA02169E2681144A1F1010B0021D4
:2062E000019100274FF400560025616811B9022121815BE0216911B90421218156E06A4693
:206300005946504600F02AF90146ADF80A10BDF80A10012902D10721218147E001A9504632
:20632000FFF7B5FF01460D4615B1092121813EE0019BB3FBF6F106FB1132991A0191019915
:20634000226911444F1E2EE007F0E4F9014603910399012902D00A21218128E031460198B6
:2063600007F00BF901460D4615B10B2121811EE005E007F01FFAA16909B1A169884707F06D
:20638000C9F90128F5D115B10C2121810FE007F0D3F901460491049911B10D21218106E014
:2063A0000199314401910199B942CDD900BF05B0BDE8F08D2DE9F04D8DB00446D4F80CB009
:2063C0002169E2681144491E069161690591216904910025102744F69011C0F201010B68B9
:2063E00009934B680A938B680B93C9680C91002600210191616811B902212181AAE021690D
:2064000011B904212181A5E0616911B905212181A0E0BBFBF7F107FB11B111B1082121819B
:2064200099E06A465846069900F098F80146ADF81E10BDF81E1011B1072121818AE001A9D9
:206440005846FFF724FF01460E4616B10921218181E000252FE007F05DF901460291029900
:20646000012902D00A21218175E00598019B3A462918E81807F0DFF801460E4616B10B21A8
:20648000218168E005E007F095F9A16909B1A169884707F03FF90128F5D116B10C21218157
:2064A00059E007F049F901460391039911B10D21218150E03D44049A79199142CBD921895F
:2064C000002947D104998D4244D2DDF81080A8EB0508CDF820804FF0000A0AE0059B0AEBC7
:2064E00005029A5C09A901F80A200AF101015FFA81FA08998A45F1D307F00CF901460291EF
:206500000299012902D00E21218124E0019B3A4609A9E81807F08FF801460E4616B10F2131
:20652000218118E005E007F045F9A16909B1A169884707F0EFF80128F5D116B110212181A3
:2065400009E007F0F9F801460391039911B11121218100E000BF0DB0BDE8F08DF0B40446F1
:206560000D46164601234FF0020CC6F800C0AC4201D901232AE0B4F5005F0ED3B4F5002FC6
:206580000BD2B5F5005F08D3B5F5002F05D24FF0000CC6F800C0002318E0B4F1807F14D31B
:2065A0004FF6FF77C1F20107BC420ED8B5F1807F0BD34FF6FF77C1F20107BD4205D84FF06D
:2065C000010CC6F800C0002300E0012300BF1846F0BC704700B5002007F0EEFA002007F0BE
:2065E00076FC4FF47A61002007F0C1FB00BD00B5002007F015FC002007F08FFC07F03BFBCF
:2066000000BD10B441F6B424C2F2000400212078012802D1012100202070084610BC7047DA
:206620004DF8048D012041F6B421C2F2000108705DF8048B7047704730B5054641F6C0248D
:20664000C2F20004656000F09EF80120206030BD70B50646304600F04CF801460D460124CF
:20666000284600F0EDF801460C462146084670BD10B4044600BF00BF10BC704700B500F0A8
:2066800074F800BDF0B506460F460124304600F04EF8024615463946284600F03EF90246BB
:2066A000144622461046F0BD70B505460E46284600F03DF8024614463146204600F0C5F991
:2066C00070BD30B50546284600F031F801460C46204600F0EDF930BD70B505460E462846E2
:2066E00000F025F8024614463146204600F015FA70BD70B4064641F6C025C2F2000501217B
:206700002868012810D100210CE06A689268342000FB012292F82420B24201D1084604E0CE
:206720004A1CD1B20029F0D0084670BC704770B4064641F6C025C2F2000501212868012836
:2067400010D100210CE06A689268342000FB0122126A1278B24201D1084604E04A1CD1B226
:206760000029F0D0084670BC704710B5002407E0204600F0F7F9204600F048FC601CC4B25D
:20678000002CF5D010BD2DE9F04D82B041F6C427C2F2000700254EE0284600F0A4FA3868EA
:2067A0008068342115FB0100009005EB8500800041F6CC21C2F2000100EB010B00994869EC
:2067C00070B90120CBF808003B689868342202FB05001978008890FBF1F0ABF8040005E098
:2067E0000320CBF808000020ABF8040038688068342202FB0500008D41F6C821C2F20001A2
:2068000001EB000A00240CE038688068342202FB0501C96A2001461830790AF80400601CB4
:2068200084B238688068342202FB0500C08C8442EAD3681CC5B2002DAED002B0BDE8F08DF9
:206840002DE9F04D81B0064641F6C42BC2F2000B06EB8601890041F6CC22C2F2000255183A
:20686000DBF800108968342206FB0211096A4F78DBF800108968342206FB0211096A91F866
:2068800000A0A96803291ED1297C01290DD1C7EBC70144F6A420C0F2010000EB8101504651
:2068A0004969884701460C461EE0C7EBC70144F6A420C0F2010000EB810150460969884751
:2068C00001460C4610E0A968012901D100240BE0C7EBC70144F6A420C0F2010000EB81017B
:2068E000504609698847012424B900212974012169740DE0DBF800008068342206FB020100
:20690000CA69342306FB030191F82400002190472146084601B0BDE8F08D2DE9F04F82B034
:2069200006468A4641F6C824C2F2000441F6C427C2F2000738688068342106FB0100008D17
