:10000000008000209D0400008B0B0000970B000077
:10001000A30B0000AF0B0000BB0B0000850B000022
:10002000850B0000850B0000850B0000C70B00004E
:10003000D30B0000850B0000DF0B0000EB0B000072
:10004000F70B0000030C00000F0C00001B0C00005D
:10005000270C0000330C00003F0C00004B0C00008C
:10006000570C0000630C00006F0C00007B0C0000BC
:10007000870C0000930C00009F0C0000AB0C0000EC
:10008000B70C0000C30C0000CF0C0000DB0C00001C
:10009000E70C0000F30C0000FF0C0000850B0000D3
:1000A0000B0D0000170D000021A200002FA2000080
:1000B0003DA20000230D0000850B00002F0D000065
:1000C000850B0000B5670000850B00003B0D0000AC
:1000D000850B0000850B0000850B0000AD4C000077
:1000E000850B0000470D0000850B0000850B00000C
:1000F000530D00005F0D00006B0D0000770D000038
:1001000011DF0000830D00008F0D00009B0D00002B
:10011000A70D0000850B0000850B0000850B00007B
:10012000850B0000B30D0000BF0D0000CB0D0000DB
:10013000D70D0000E30D0000EF0D0000FB0D0000E7
:10014000850B0000850B0000850B0000850B00006F
:10015000850B0000850B0000850B0000850B00005F
:10016000850B0000850B0000850B0000850B00004F
:10017000850B0000850B0000070E0000130E000029
:100180001F0E00002B0E0000370E0000430E000073
:100190004F0E00005B0E0000670E0000730E0000A3
:1001A0007F0E00008B0E0000850B0000850B000009
:1001B000970E0000A30E0000AF0E0000BB0E000063
:1001C000C70E0000850B0000850B0000D30E000059
:1001D000DF0E0000EB0E0000F7270100F70E000015
:1001E000E9270100030F00000F0F00001B0F0000A4
:1001F000270F0000330F00003F0F00004B0F0000DF
:10020000570F0000630F00006F0F00007B0F00000E
:10021000870F0000930F00009F0F0000AB0F00003E
:10022000B70F0000C30F0000CF0F0000850B0000C8
:10023000850B0000850B0000850B0000850B00007E
:10024000850B0000850B0000850B0000850B00006E
:10025000850B0000850B0000850B0000850B00005E
:10026000850B0000850B0000850B0000850B00004E
:10027000850B0000850B0000850B0000850B00003E
:10028000850B0000850B0000850B0000850B00002E
:10029000850B0000850B0000850B0000850B00001E
:1002A000850B0000850B0000850B0000850B00000E
:1002B000DB0F0000E70F0000850B0000F30F0000CC
:1002C000FF0F00000B10000017100000850B00004E
:1002D000850B0000850B0000850B0000850B0000DE
:1002E0004BA20000850B0000850B0000850B000071
:1002F000850B0000850B0000850B0000850B0000BE
:10030000850B0000850B0000850B0000850B0000AD
:1003100023100000850B0000850B0000850B0000FA
:10032000850B0000850B0000850B0000850B00008D
:0C033000850B0000850B0000D52D01009E
:10040000589CFF1FFC5B0100FC5B01000100000029
:10041000589CFF1F005C0100C85C01000100000047
:100420000084FF1F589CFF1F0100000014490C6846
:100430004FF001031C401349134A521A013A06DDDA
:100440004FF05A304FF05A3309C1083AFCDA0F49DD
:100450000F4A521A013A06DD4FF05A304FF05A3324
:1004600009C1083AFCDA0B490B4A521A013A06DD77
:100470004FF05A304FF05A3309C1083AFCDA70474E
:1004800000F007400080FF1F0084FF1F007C002059
:10049000008000200084FF1F007C002072B64FF017
:1004A00000014FF000024FF000034FF000044FF046
:1004B00000054FF000064FF00007B846B946BA46AF
:1004C000BB46BC46FFF7B2FF064885460648804754
:1004D00006488047064880470648804762B600F0D5
:1004E00013F9FEE700800020F50800001D0B000056
:1004F000311000000D0B000080B400AF00BFBD46FE
:100500005DF8047B7047000080B500AF0B4B1B68A3
:1005100001330A4A1360094B1968094BA3FB0123F5
:10052000DA0813469B0013445B00CA1A002A03D161
:1005300040F2091005F082FC00BF80BD0084FF1F5F
:10054000CDCCCCCC80B584B000AF002003F032FF1E
:100550000346032B2ED1194B1B680133174A136036
:100560003B461946002004F0B9F80346002B1CD185
:100570003B881A4641F2883302FB03F3002B01DA71
:1005800003F6FF731B139AB20D4B1A807B881A4631
:1005900041F2883302FB03F3002B01DA03F6FF7309
:1005A0001B139AB2074B1A8004E0074B1B680133F8
:1005B000054A136000BF1037BD4680BD3C85FF1F54
:1005C0002E85FF1F3085FF1F4485FF1F80B582B039
:1005D00000AF0B4B1B680133094A13603B461946B9
:1005E000012004F07BF80346002B04D0054B1B6868
:1005F0000133044A136000BF0837BD4680BD00BF09
:100600004085FF1F4485FF1F80B485B000AF0346BF
:100610003960FB71FB79002B02D13B68002B01D1C3
:10062000012335E03B681B7803F03F03BB733B6855
:1006300000225A703B680822DA70BB7B102B04D171
:100640003B6801229A70002322E0BB7B112B1BD157
:100650000023FB730BE0FA7B3B685968FB7B0B4480
:100660000E498A5CD2B21A70FB7B0133FB73FB7BB1
:10067000072BF0D93B6800229A70094B1B680133A5
:10068000074A1360002303E03B6802229A700123AB
:1006900018461437BD465DF8047B7047589CFF1F11
:1006A0005485FF1F80B485B000AF03463960FB71ED
:1006B000FB79002B1BD10023FB7310E0FB7B3A6816
:1006C0001A44FB7B11780D4AD154FB7B3A681A44DB
:1006D000FB7B11780A4AD154FB7B0133FB73FB7B14
:1006E000072BEBD9074B1B680133064A136000BF89
:1006F0001437BD465DF8047B704700BF4885FF1F77
:10070000589CFF1F5085FF1F80B582B000AF0023AB
:10071000BB710023FB71504801F07AF8002001F012
:10072000A1F800BF01F04CF80346002BFAD101F00C
:100730002BF800F09FF84949002004F03DF84849A3
:10074000012004F039F8002003F0DAFD012003F065
:10075000D7FD49F6404100200CF0BEFC00200CF013
:1007600011FC4FF4C04101200EF0A8F84FF4804175
:1007700000200EF0A3F84FF4405102200EF09EF836
:10078000002013F0FBFA0023FB7106E0FB793549EA
:10079000FA79CA54FB790133FB7197F90730002BC2
:1007A000F4DA0023FB7106E0FB792F49FA79CA5489
:1007B000FB790133FB71FB79132BF5D928232B4AE5
:1007C0002849002009F064F8002005F063FD0620A8
:1007D00005F076FB0346BB71BB79012B03D10121E8
:1007E000022005F0CCFB002009F014F8002140F2B3
:1007F000034005F0C4FB002008F092FB01E008F084
:100800005DFF002008F09AFD0346002BF7D101217F
:1008100040F2034005F0B3FB002004F03DF8012056
:1008200004F03AF8002013F0DDF80346002BCED197
:100830000F49002013F08EF80D4B5B6842F64472AE
:100840009342C4D80A4B5B6842F67B629342BED99E
:10085000002013F0CFFAFEE7404301001885FF1F88
:100860002885FF1F0484FF1F0485FF1F8484FF1F4A
:100870003485FF1F80B500AF0C4806F003FD002053
:1008800007F06AFC0A4808F0D9FD0A4803F048FE60
:1008900009480CF0DDFA09480DF086FF084805F01C
:1008A00073FC084812F090FE00BF80BDD0480100E4
:1008B000884B010018440100D44B0100244C010076
:1008C00050440100E84C010080B483B000AF002325
:1008D000FB71074B1B6803F00103012B01D10123BE
:1008E000FB71FB7918460C37BD465DF8047B7047F9
:1008F00000F0074080B58AB000AFFFF7E5FF034680
:10090000FB7700233B600023BB6100237B62002355
:100910003B6202233B6000237B6272E0794A7B6A80
:100920001B0113440C331B78022B02D1FB7F012BDC
:1009300063D1744A7B6A1B0113440C331B78002B70
:100940005BD0704A7B6A1B01134404331B68FB6055
:100950006C4A7B6A1B0113441B687B61694A7B6A92
:100960001B01134408331B681946664A7B6A1B0146
:10097000134404331B68CB1ABB61BB69DBB203F0C1
:100980000303DBB2FB71FB79DBB21A46BB699B1A2E
:100990009B08BB6100233B620CE03B6A9B00FA684A
:1009A0001A443B6A9B0079690B4412681A603B6ADF
:1009B00001333B623A6ABB699A42EED33B6A9B00C1
:1009C000FA681344BB603B6A9B007A6913443B613D
:1009D00000233B620AE0BA683B6A1A4439693B6A01
:1009E0000B4412781A703B6A01333B62FB79DBB22D
:1009F0001A463B6A9342EED300E000BF7B6A0133A4
:100A00007B623B687A6A9A4288D301233B60002369
:100A10007B626DE03C497A6A13465B0013449B009D
:100A20000B4408331B78022B02D1FB7F012B5BD1D7
:100A300035497A6A13465B0013449B000B44083324
:100A40001B78002B50D030497A6A13465B00134460
:100A50009B000B441B687B612B497A6A13465B0041
:100A600013449B000B4404331B68184626497A6ADA
:100A700013465B0013449B000B441B68C31ABB6105
:100A8000BB69DBB203F00303DBB2FB71FB79DBB2C2
:100A90001A46BB699B1A9B08BB6100233B6208E0B6
:100AA0003B6A9B007A69134400221A603B6A013357
:100AB0003B623A6ABB699A42F2D33B6A9B007A690D
:100AC00013443B6100233B6207E03A693B6A1344ED
:100AD00000221A703B6A01333B62FB79DBB21A4693
:100AE0003B6A9342F1D300E000BF7B6A01337B6233
:100AF0003B687A6A9A428DD300BF00BF2837BD4653
:100B000080BD00BF000400002004000080B400AFDE
:100B100000BFBD465DF8047B7047000080B586B01D
:100B200000AF07F041FA0346FB74124BFB60124B17
:100B3000BB60124A104BD31A9B087B6000237B6179
:100B40000CE07B699B00BA681A447B699B00F968DA
:100B50000B4412681A607B6901337B617A697B6898
:100B60009A42EED3064B034A1A6000BF1837BD46BF
:100B700080BD00BF0080FF1F000000003C0300009C
:100B800008ED00E080B400AFFEE780B500AFFFF7EE
:100B9000F9FF00BF80BD80B500AFFFF7F3FF00BFD6
:100BA00080BD80B500AFFFF7EDFF00BF80BD80B511
:100BB00000AFFFF7E7FF00BF80BD80B500AFFFF7D4
:100BC000E1FF00BF80BD80B500AFFFF7DBFF00BFD6
:100BD00080BD80B500AFFFF7D5FF00BF80BD80B5F9
:100BE00000AFFFF7CFFF00BF80BD80B500AFFFF7BC
:100BF000C9FF00BF80BD80B500AFFFF7C3FF00BFD6
:100C000080BD80B500AFFFF7BDFF00BF80BD80B5E0
:100C100000AFFFF7B7FF00BF80BD80B500AFFFF7A3
:100C2000B1FF00BF80BD80B500AFFFF7ABFF00BFD5
:100C300080BD80B500AFFFF7A5FF00BF80BD80B5C8
:100C400000AFFFF79FFF00BF80BD80B500AFFFF78B
:100C500099FF00BF80BD80B500AFFFF793FF00BFD5
:100C600080BD80B500AFFFF78DFF00BF80BD80B5B0
:100C700000AFFFF787FF00BF80BD80B500AFFFF773
:100C800081FF00BF80BD80B500AFFFF77BFF00BFD5
:100C900080BD80B500AFFFF775FF00BF80BD80B598
:100CA00000AFFFF76FFF00BF80BD80B500AFFFF75B
:100CB00069FF00BF80BD80B500AFFFF763FF00BFD5
:100CC00080BD80B500AFFFF75DFF00BF80BD80B580
:100CD00000AFFFF757FF00BF80BD80B500AFFFF743
:100CE00051FF00BF80BD80B500AFFFF74BFF00BFD5
:100CF00080BD80B500AFFFF745FF00BF80BD80B568
:100D000000AFFFF73FFF00BF80BD80B500AFFFF72A
:100D100039FF00BF80BD80B500AFFFF733FF00BFD4
:100D200080BD80B500AFFFF72DFF00BF80BD80B54F
:100D300000AFFFF727FF00BF80BD80B500AFFFF712
:100D400021FF00BF80BD80B500AFFFF71BFF00BFD4
:100D500080BD80B500AFFFF715FF00BF80BD80B537
:100D600000AFFFF70FFF00BF80BD80B500AFFFF7FA
:100D700009FF00BF80BD80B500AFFFF703FF00BFD4
:100D800080BD80B500AFFFF7FDFE00BF80BD80B520
:100D900000AFFFF7F7FE00BF80BD80B500AFFFF7E3
:100DA000F1FE00BF80BD80B500AFFFF7EBFE00BFD6
:100DB00080BD80B500AFFFF7E5FE00BF80BD80B508
:100DC00000AFFFF7DFFE00BF80BD80B500AFFFF7CB
:100DD000D9FE00BF80BD80B500AFFFF7D3FE00BFD6
:100DE00080BD80B500AFFFF7CDFE00BF80BD80B5F0
:100DF00000AFFFF7C7FE00BF80BD80B500AFFFF7B3
:100E0000C1FE00BF80BD80B500AFFFF7BBFE00BFD5
:100E100080BD80B500AFFFF7B5FE00BF80BD80B5D7
:100E200000AFFFF7AFFE00BF80BD80B500AFFFF79A
:100E3000A9FE00BF80BD80B500AFFFF7A3FE00BFD5
:100E400080BD80B500AFFFF79DFE00BF80BD80B5BF
:100E500000AFFFF797FE00BF80BD80B500AFFFF782
:100E600091FE00BF80BD80B500AFFFF78BFE00BFD5
:100E700080BD80B500AFFFF785FE00BF80BD80B5A7
:100E800000AFFFF77FFE00BF80BD80B500AFFFF76A
:100E900079FE00BF80BD80B500AFFFF773FE00BFD5
:100EA00080BD80B500AFFFF76DFE00BF80BD80B58F
:100EB00000AFFFF767FE00BF80BD80B500AFFFF752
:100EC00061FE00BF80BD80B500AFFFF75BFE00BFD5
:100ED00080BD80B500AFFFF755FE00BF80BD80B577
:100EE00000AFFFF74FFE00BF80BD80B500AFFFF73A
:100EF00049FE00BF80BD80B500AFFFF743FE00BFD5
:100F000080BD80B500AFFFF73DFE00BF80BD80B55E
:100F100000AFFFF737FE00BF80BD80B500AFFFF721
:100F200031FE00BF80BD80B500AFFFF72BFE00BFD4
:100F300080BD80B500AFFFF725FE00BF80BD80B546
:100F400000AFFFF71FFE00BF80BD80B500AFFFF709
:100F500019FE00BF80BD80B500AFFFF713FE00BFD4
:100F600080BD80B500AFFFF70DFE00BF80BD80B52E
:100F700000AFFFF707FE00BF80BD80B500AFFFF7F1
:100F800001FE00BF80BD80B500AFFFF7FBFD00BFD5
:100F900080BD80B500AFFFF7F5FD00BF80BD80B517
:100FA00000AFFFF7EFFD00BF80BD80B500AFFFF7DA
:100FB000E9FD00BF80BD80B500AFFFF7E3FD00BFD6
:100FC00080BD80B500AFFFF7DDFD00BF80BD80B5FF
:100FD00000AFFFF7D7FD00BF80BD80B500AFFFF7C2
:100FE000D1FD00BF80BD80B500AFFFF7CBFD00BFD6
:100FF00080BD80B500AFFFF7C5FD00BF80BD80B5E7
:1010000000AFFFF7BFFD00BF80BD80B500AFFFF7A9
:10101000B9FD00BF80BD80B500AFFFF7B3FD00BFD5
:1010200080BD80B500AFFFF7ADFD00BF80BD000003
:1010300080B500AF104BD3F888300F4A43F47003EB
:10104000C2F888300D4B1B680C4A43F080231360B4
:101050000B4B4BF231621A60094B4CF278221A604A
:10106000074B5B68064A23F001035360054807F00D
:1010700093F900BF80BD00BF00ED00E0000001401B
:1010800000A00640B44A010080B483B000AF78608D
:1010900000BF0C37BD465DF8047B704780B582B059
:1010A00000AF78607868FFF7EFFF00BF0837BD46F4
:1010B00080BD80B483B000AF786000BF0C37BD4600
:1010C0005DF8047B7047000090B482B000AF044626
:1010D000084611461A462346FB8003467B710B46A1
:1010E0003B711346FB700C4AFB8813800B4A3B791B
:1010F00013700B4A7B7913700A4AFB7813700A4B02
:101100001B8801339AB2084B1A800023184608370F
:10111000BD4690BC704700BF5885FF1F5A85FF1F12
:101120005B85FF1F5C85FF1F5E85FF1F90B482B04B
:1011300000AF0446084611461A462346FB80034684
:101140007B710B463B711346FB700C4AFB88138086
:101150000B4A3B7913700B4A7B7913700A4AFB7870
:1011600013700A4B1B8801339AB2084B1A80002374
:1011700018460837BD4690BC704700BF5885FF1F12
:101180005A85FF1F5B85FF1F5C85FF1F5E85FF1F64
:1011900080B483B000AF786000BF0C37BD465DF807
:1011A000047B704780B483B000AF0346FB7100BF7F
:1011B0000C37BD465DF8047B704780B483B000AF48
:1011C00003460A46FB711346BB7100BF0C37BD4690
:1011D0005DF8047B7047000080B483B000AF034625
:1011E000FB80B7F90630002B0BDBFB8803F01F02F6
:1011F0000749B7F906305B09012000FA02F241F80D
:10120000232000BF0C37BD465DF8047B704700BF4C
:1012100000E100E080B483B000AF0346FB80B7F983
:101220000630002B12DBFB8803F01F020A49B7F9D6
:1012300006305B09012000FA02F2203341F8232036
:10124000BFF34F8F00BFBFF36F8F00BF00BF0C37DE
:10125000BD465DF8047B704700E100E080B483B0D8
:1012600000AF0346FB80B7F90630002B0CDBFB8890
:1012700003F01F020749B7F906305B09012000FAA5
:1012800002F2603341F8232000BF0C37BD465DF801
:10129000047B704700E100E080B483B000AF0346F8
:1012A0003960FB80B7F90630002B0ADB3B68DAB205
:1012B0000C49B7F906305201D2B20B4483F800232F
:1012C0000AE03B68DAB20849FB8803F00F03043BED
:1012D0005201D2B20B441A7600BF0C37BD465DF8FE
:1012E000047B704700E100E000ED00E080B483B0D3
:1012F00000AF0346FB80B7F90630002B09DB0D4A2F
:10130000B7F90630134493F80033DBB25B09DBB264
:1013100009E0094AFB8803F00F03043B13441B7EDA
:10132000DBB25B09DBB218460C37BD465DF8047BC7
:10133000704700BF00E100E000ED00E080B483B042
:1013400000AF0346FB71FB79002B01D100BEFDE726
:1013500000BF0C37BD465DF8047B704780B483B096
:1013600000AF0346FB71FB79002B01D100BEFDE706
:1013700000BF0C37BD465DF8047B704780B483B076
:1013800000AF7860BFF35F8F00BF0B4A7B6843F00C
:1013900001035360094B5B6A084A43F4803353628C
:1013A000BFF34F8F00BFBFF36F8F00BF00BF0C377D
:1013B000BD465DF8047B704790ED00E000ED00E075
:1013C00080B400AFBFF35F8F00BF0B4B5B6A0A4A6C
:1013D00023F480335362094B5B68084A23F001030E
:1013E0005360BFF34F8F00BFBFF36F8F00BF00BFCD
:1013F000BD465DF8047B704700ED00E090ED00E035
:1014000080B487B000AF78600B46FB701346BB70AA
:10141000FB789B08FB75FB7803F00303DB003B6163
:10142000FF223B6902FA03F3FB60FB7D012B16D818
:10143000FA7D7B680C3253F82220FB68DB4302EA1A
:101440000301BA783B6902FA03F31A46FB681340BA
:10145000FA7D19437B680C3243F8221000E000BF8C
:101460001C37BD465DF8047B7047000080B582B034
:1014700000AF03460A46FB711346BB71BA79FB798C
:1014800019460348FFF7BCFF00BF0837BD4680BDC3
:1014900090ED00E080B483B000AF786039607B6885
:1014A0003A689A607B6800221A6100BF0C37BD461B
:1014B0005DF8047B7047000080B582B000AF7860B3
:1014C00079680348FFF7E6FF00BF0837BD4680BDD7
:1014D00090ED00E080B485B000AFF860B9607A604C
:1014E0003B60FB68BA689A60FB687A68DA60FB6800
:1014F0003A681A6100BF1437BD465DF8047B704737
:1015000080B584B000AFF860B9607A607B68BA6873
:10151000F9680348FFF7DEFF00BF1037BD4680BD06
:1015200090ED00E080B582B000AF7860786810F090
:10153000DBFD00BF0837BD4680BD000080B584B02C
:1015400000AF78600EF0D8F91B497A6813469B000B
:101550001344DB000B441B78FB730EF0F1F9FB7BAB
:10156000002B0ED10EF0C8F913497A6813469B0080
:101570001344DB000B44103300221A600EF0E0F934
:1015800014E00D497A6813469B001344DB000B44BA
:1015900010331B68032B09D907497A6813469B004F
:1015A0001344DB000B44103300221A60FB7B184607
:1015B0001037BD4680BD00BFBC90FF1F80B582B014
:1015C00000AF03460A46FB711346BB80FB79022B32
:1015D00016D0022B1FDC002B02D0012B05D01AE005
:1015E000BB88184610F0BEFD16E0BA880C491346B9
:1015F0009B001344DB000B44243301221A700BE0E0
:10160000BA8808491346DB009B1A9B000B44113330
:1016100001221A7000E000BF00BF0837BD4680BD40
:10162000BC90FF1F1C88FF1F80B483B000AF03462F
:101630000A46FB711346BB80FB79022B18D0022BA4
:1016400021DC002B02D0012B07D01CE0BB88114A03
:10165000DB00134400221A7116E0BA880E491346C3
:101660009B001344DB000B44243300221A700BE070
:10167000BA880A491346DB009B1A9B000B441133BE
:1016800000221A7000E000BF00BF0C37BD465DF8B5
:10169000047B70475C8DFF1FBC90FF1F1C88FF1FE1
:1016A00080B586B000AF786000237B617B689BB219
:1016B000184611F0BFFB03467B820E4B1B681A686D
:1016C0007B8A5B011344FB60FB681B79002B0AD10A
:1016D0007A8A094913469B001344DB000B441033FC
:1016E0001B687B6100E000BF7B6918461837BD4668
:1016F00080BD00BF1C9DFF1FBC90FF1F80B584B044
:1017000000AFF860B9601346FB71FB79012B19D16A
:101710000121B86811F000FF0346012B2BD1184BB3
:101720001B78FA799A4226D0F86811F0CBFD15495A
:10173000BA6813469B001344DB000B4402330122BA
:101740001A7018E00821B86811F0E6FE0346082B6D
:1017500011D10B4B1B78FA799A420CD0F86811F032
:10176000BFFD0849BA6813469B001344DB000B44D5
:10177000023300221A7000BF1037BD4680BD00BF83
:10178000149DFF1FBC90FF1F80B582B000AF0023E7
:10179000FB7100F005FD0346002B02D00123FB7115
:1017A00006E0064B1B68184600F012FE0346FB716C
:1017B000FB7918460837BD4680BD00BF709CFF1FEF
:1017C00080B582B000AF0223FB71064B1B78002B63
:1017D00003D000F0E5FC0346FB71FB79184608379F
:1017E000BD4680BD789CFF1F80B582B000AF0A2344
:1017F000FB71064B1B78002B03D000F0DFFE034685
:10180000FB71FB7918460837BD4680BD789CFF1FE9
:1018100080B582B000AF7860104B00221A70104A79
:101820007B6813600E4B1B681B68002B03D10C4BAD
:1018300000221A600EE00A4B1B68DB68184600F0B5
:10184000EBFC074B1B68DB69184600F0B4FF034B49
:1018500001221A7000BF0837BD4680BD789CFF1F6B
:10186000749CFF1F80B584B000AF0346FB7100235A
:10187000FB73154B1B78002B02D10123FB731DE07A
:10188000124B1B681B79FA799A4202D30123FB732E
:1018900014E00F4AFB7913700C4B1B681968FA7936
:1018A0001346DB009B1ADB000B440A4A1360094B0A
:1018B0001B68184600F012FE0346FB73FB7B1846BC
:1018C0001037BD4680BD00BF789CFF1F749CFF1F72
:1018D000799CFF1F709CFF1F80B584B000AF03464A
:1018E000FB710023BB600123FB73124B1B78002BA1
:1018F00002D10123FB7317E00F4B1B681B7EFA79A3
:101900009A4202D30123FB730EE00B4B1B689968CC
:10191000FA7913465B0013449B000B44BB60B86824
:1019200000F0A2FC0023FB73FB7B18461037BD467A
:1019300080BD00BF789CFF1F749CFF1F80B582B0E4
:1019400000AF78600E4B1B78002B14D00D4B1B683A
:101950001B7C1A467B6893420DD200F080FF094B36
:101960001B685B691A687B6813441B78184600F093
:101970009FFC00F097FF00BF0837BD4680BD00BF49
:10198000789CFF1F749CFF1F80B582B000AF4FF0A2
:10199000FF337B6000F0FCFD78607B6818460837F9
:1019A000BD4680BD80B582B000AF00237B600E4B8A
:1019B0001B78FF2B12D00D4B1B681A680A4B1B7843
:1019C00019460B46DB005B1ADB001344084A136020
:1019D000074B1B68184600F0AAFE78607B68184623
:1019E0000837BD4680BD00BF799CFF1F749CFF1F58
:1019F000709CFF1F80B400AF054B1B68044A23F0A6
:101A00000F03136000BFBD465DF8047B704700BF45
:101A100040C0074080B485B000AF78600123FB6010
:101A20007B681B79012B03D1FB6843F00203FB6049
:101A3000064B1B6823F003020449FB6813430B6049
:101A400000BF1437BD465DF8047B704710C00740E7
:101A500080B400AF054B1B68044A23F001031360F8
:101A600000BFBD465DF8047B704700BF10C0074053
:101A700080B400AF054B1B68044A23F001031360D8
:101A800000BFBD465DF8047B704700BF18C007402B
:101A900080B483B000AF786039600C4B1B6823F4CE
:101AA0007F0323F470637A68120402F47F013A68BA
:101AB000120202F470620A43044913430B6000BF30
:101AC0000C37BD465DF8047B704700BF0000014045
:101AD00080B400AF054B1B68044A23F00703136072
:101AE00000BFBD465DF8047B704700BF2CC00740B7
:101AF00080B483B000AF0346FB71084B1B6823F032
:101B00000302FB7903F00303044913430B6000BF96
:101B10000C37BD465DF8047B704700BF00C007402E
:101B200080B400AF044B1B6803F003031846BD46A6
:101B30005DF8047B704700BF08C0074080B400AF69
:101B4000034B00221A6000BFBD465DF8047B70475E
:101B500020C0074080B483B000AF064B1B6803F081
:101B600003037B607B68DBB218460C37BD465DF82B
:101B7000047B704708C0074080B400AF054B1B686A
:101B80001B0C03F03F0301331846BD465DF8047B90
:101B9000704700BF20C0074080B485B000AFF86038
:101BA000B9607A600D4B1B6823F00F1323F4706348
:101BB000FA68120402F47021BA68120202F4706228
:101BC00011437A6802F00F020A43044913430B6081
:101BD00000BF1437BD465DF8047B704704C0074062
:101BE00080B400AF034B1B681846BD465DF8047B0C
:101BF000704700BF0CC0074080B483B000AF074BF4
:101C00001B681B0903F001037B607B68DBB218468D
:101C10000C37BD465DF8047B704700BF20C007400D
:101C200080B400AF054B1B681B0A03F00F030133A0
:101C30001846BD465DF8047B704700BF20C00740D2
:101C400080B400AF054B1B681B0C03F00F0301337E
:101C50001846BD465DF8047B704700BF04C00740CE
:101C600080B485B000AF78607B68002B34D07B688F
:101C70001B79012B04D10123FB600023BB6003E02F
:101C80000023FB600123BB60164B1B6823F4FE435B
:101C900023F01003BA68120102F01001FA689203EF
:101CA00002F4804211437A685279120202F470629F
:101CB0001143FA68520302F400521143BA68120346
:101CC00002F480520A43074913430B60054B1B681B
:101CD000044A43F00103136000BF1437BD465DF8AA
:101CE000047B704718C0074080B483B000AF034640
:101CF000FB71084B1B6823F47062FB791B0203F431
:101D00007063044913430B6000BF0C37BD465DF898
:101D1000047B704718C0074080B483B000AF786080
:101D20007B68002B1FD0134B1B6823F47C1323F418
:101D300071637A681278120102F010017A68927861
:101D4000120402F47C1211437A685278120202F4EF
:101D500070620A43074913430B60064B1B68054A30
:101D600043F00103136000BF0C37BD465DF8047BF0
:101D7000704700BF20C0074080B483B000AF7860D8
:101D80007B68002B11D00C4B1B6823F47F4323F09E
:101D900007037A685278120291B27A68127802F0D8
:101DA00007020A43044913430B6000BF0C37BD46CA
:101DB0005DF8047B704700BF2CC0074080B487B03B
:101DC00000AF78600B46FB7000237B610023FB6053
:101DD0007B68002B65D0FB78042B62D87B687B6125
:101DE0000023FB7456E007F10C0319687B691B782C
:101DF0001A467B691B7C9A4007F10C030A431A6060
:101E000007F10C0319687B699B781A467B691B7C78
:101E100008339A4007F10C030A431A607B695B7828
:101E2000012B0BD107F10C0319687B691B7C103364
:101E300001229A4007F10C030A431A607B691B7C5C
:101E40001A461B4B1344DB001B681B0C1B047A69EE
:101E5000D28811467A69127C1046154A0244D20093
:101E60000B4313607B691B7CDA00124B13441B6825
:101E70001B0C1B047A69928810467A69127CD10087
:101E80000C4A0A44034313607B6914337B61FB7C77
:101E90000133FB74FA7CFB789A42A4D3064AFB68B0
:101EA000136000BF1C37BD465DF8047B704700BF60
:101EB00009F800084CC0074040C0074080B483B018
:101EC00000AF7860044B1A687B68134018460C37E3
:101ED000BD465DF8047B704708C0074080B485B0FC
:101EE00000AF78600023FB727B689B79012B1FD1C8
:101EF0000023FB607B689B681B79012B03D1FB6887
:101F000043F00203FB607B689B689B79012B03D144
:101F1000FB6843F00803FB607B689B685B79012BDF
:101F200003D1FB6843F00403FB60054AFB681360C0
:101F3000FB7A18461437BD465DF8047B704700BF36
:101F400014C0074080B586B000AF78600023FB75F1
:101F50007B681B7B012B2AD17B685B7B012B24D107
:101F600000233B610023FB607B681B691846FFF779
:101F700051FD0420FFF7A2FFF86006E00420FFF700
:101F80009DFFF8603B6901333B61FB68042B04D083
:101F90003B694CF24F329342F0D93B694CF24F32DD
:101FA000934204D90123FB7501E0FFF751FDFB7D4E
:101FB00018461837BD4680BD80B584B000AF786044
:101FC0000023FB737B681B7F012B0AD1FFF7B6FD53
:101FD0007B685B7F012B04D17B681B6A1846FFF787
:101FE0009BFEFB7B18461037BD4680BD80B586B092
:101FF00000AF78600023FB757B681B7D012B4AD105
:102000007B685B7D012B44D100233B610023FB6097
:102010000123FB720F237B720123BB727B689B69D8
:102020001846FFF71DFE0820FFF748FFF8601AE08A
:102030000820FFF743FFF860FB7A1846FFF754FECD
:10204000BA7AFB7A1344FB72FB7A012B02D101238B
:10205000BB7205E0FA7A7B7A9A4201D1FF23BB7208
:102060003B6901333B61FB68082B04D03B694CF2B0
:102070004F329342DCD93B694CF24F32934201D943
:102080000123FB757B689B695B791846FFF72CFE83
:1020900001E0FFF7EDFCFB7D18461837BD4680BD1B
:1020A00080B586B000AF78600023FB7500233B61EC
:1020B0000023FB607B685B7818467B689B78194639
:1020C0007B68DB781A46FFF767FDFFF789FDF8604C
:1020D00005E0FFF785FDF8603B6901333B617B68F4
:1020E0005B781B0403F470227B689B781B0203F46B
:1020F00070631A437B68DB7803F00F031343FA68BD
:102100009A4204D03B694CF24F329342E1D93B6989
:102110004CF24F32934201D90123FB75FB7D1846E7
:102120001837BD4680BD80B586B000AF0346FB7151
:102130000023FB7500233B61FB79BB60FB791846EC
:10214000FFF7D6FCFFF7ECFCF86005E0FFF7E8FCD2
:10215000F8603B6901333B61FA68BB689A4204D07E
:102160003B694CF24F329342F0D93B694CF24F320B
:10217000934201D90123FB75FB7D18461837BD46F4
:1021800080BD80B400AF054B1B68044A43F00403D4
:10219000136000BFBD465DF8047B704740C0074038
:1021A00080B483B000AF00233B600A4B1B685B091F
:1021B00003F001033B603B68002B02D00023FB715E
:1021C00001E00123FB71FB7918460C37BD465DF831
:1021D000047B704708C0074080B483B000AF0D4B4C
:1021E000DB687B607B689BB27B607B6843F0BF638E
:1021F00043F400337B607B6843F004037B60054A53
:102200007B68D360BFF34F8F00BF0C37BD465DF8CE
:10221000047B704700ED00E080B483B000AF7860CD
:102220007B68002B17D00F4B1B6823F0011323F49E
:102230007F437A68527802F001017A6812781204BA
:1022400002F4803211437A689278120292B20A4301
:10225000044913430B6000BF0C37BD465DF8047B97
:10226000704700BF04F0074080B485B000AF7860CD
:102270000023BB607B68002B14D07B681B68BB60AD
:102280000023FB6009E07B68197ABA68FB68134495
:102290000A461A60FB680133FB607B685B68FA687A
:1022A0009A42F0D300BF1437BD465DF8047B7047F7
:1022B00080B584B000AF0346FB71414B1B68404AB8
:1022C00023F000431360FB79002B06D13D4B1B69C3
:1022D0003C4A23F0020313616DE0FFF78BFBFB79AF
:1022E000013B032B50D801A252F823F063230000D6
:1022F000FD2200000B23000031230000314B1B693D
:10230000304A23F0040313613FE02E4B1B692D4A32
:1023100043F0040313612A4B1B68294A43F000432E
:102320001360294B1B68284A23F0030313602CE039
:10233000234B1B68224A43F000431360214B1B6967
:10234000204A43F0040313611F4B1B681E4A23F00D
:10235000020313601C4B1B681B4A43F0010313600C
:1023600013E0174B1B68164A43F000431360154BEC
:102370001B69144A43F004031361134B1B68124A90
:1023800043F00303136000E000BF104B1B68FB60C9
:102390000E4B00221A600B4B1B690A4A23F0020302
:1023A000136130BF094AFB681360064B1B69054A7D
:1023B00023F00403136100BF1037BD4680BD00BF8A
:1023C0000000014000ED00E00CE0074010E000E0FC
:1023D00080B584B000AF78600023FB737B681B7806
:1023E0001846FFF7A0FE0346FB73FB7B002B14D1BE
:1023F0007B68DA6A7B6893F8303019461046FFF73D
:10240000DDFCFFF765FB7B6893F82430012B04D1DA
:102410007B689B6A1846FFF7AFFCFB7B18461037BA
:10242000BD4680BD80B485B000AF78607B68002B6E
:102430004BD07B685B68FB60FB68002B45D00023BA
:10244000FB723DE0FB681B7803F1805303F5FA3320
:102450009B001A68FB681B7803F1805303F5FA337D
:102460009B00194622F001030B60FB681B7803F107
:10247000805303F5FA339B001B68174A1A40FB6828
:102480009B781B0203F4E061FB68DB781B0403F418
:1024900070231943FB685B7803F001031943FB6861
:1024A0001B7803F1805303F5FA339B00184642EA88
:1024B00001030360FB680433FB60FB7A0133FB72AA
:1024C0007B681B78FA7A9A42BCD300BF1437BD46AA
:1024D0005DF8047B704700BFFEF8F0FF80B584B064
:1024E00000AF78600123FB737B68002B4BD0FFF7B4
:1024F00081FA0320FFF717FE0346FB73FB7B002BDB
:1025000035D17B685B6B1846FFF78CFF7868FFF767
:10251000E5FC03461A46FB7B1343FB737868FFF721
:1025200011FD03461A46FB7B1343FB737868FFF7E4
:102530005DFD03461A46FB7B1343FB737868FFF788
:102540003BFD03461A46FB7B1343FB737B681B79F9
:102550001A467B685B7919461046FFF799FA786846
:10256000FFF79EFD03461A46FB7B1343FB73FB7B81
:10257000002B08D17B681B78012B04D07868FFF70B
:1025800027FF0346FB73FB7B18461037BD4680BD13
:1025900080B483B000AF074B1A68074B13407B60D1
:1025A000044B054A1A607B6818460C37BD465DF837
:1025B000047B704700F0074003031F0080B582B022
:1025C00000AFFFF7E5FF38603B68002B03D1344BC9
:1025D0001B683B6002E0324A3B6813603B68B3F51E
:1025E000801F3AD03B68B3F5801F51D83B68B3F5E4
:1025F000002F35D03B68B3F5002F49D83B68B3F5C1
:10260000802F30D03B68B3F5802F41D83B68B3F5BD
:10261000003F2BD03B68B3F5003F39D83B68B3F59A
:10262000803F26D03B68B3F5803F31D83B68B3F597
:10263000007F21D03B68B3F5007F29D83B68B3F514
:10264000807F1CD03B68B3F5807F21D83B68012B8D
:102650001BD03B68022B15D01AE00023FB711AE057
:102660000123FB7117E00223FB7114E00323FB71CC
:1026700011E00423FB710EE00523FB710BE0062340
:10268000FB7108E00723FB7105E00823FB7102E002
:102690000923FB7100BFFB7918460837BD4680BD92
:1026A0007C9CFF1F80B588B000AF78600023FB6181
:1026B0000023FB750023BB6100233B610023FB600B
:1026C0000223BB60FFF76CFD0346002B2AD17B6819
:1026D000002B27D0FFF790FA0346FB75FB7D002BFC
:1026E00002D0012B05D009E07B689B691B68BB61A8
:1026F00007E07B681B691B68BB6102E00023BB61CC
:1027000000BFFFF739FA3861FFF78AFAF860BB6952
:102710003A6903FB02F2BB68F96801FB03F3B2FB01
:10272000F3F3FB61FB6918462037BD4680BD80B5D9
:1027300086B000AF78600023FB7300237B61002329
:10274000BB6000233B61FFF705FA0346FB73FB7B8D
:10275000032B1FD801A252F823F000BF6D27000001
:1027600077270000812700008B2700007B681B690A
:102770001B687B610FE07868FFF794FF78610AE0DF
:102780007B689B691B687B6105E07B689B681B68B5
:102790007B6100E000BF7B69002B07D0FFF750FA98
:1027A000B8607A69BB68B2FBF3F33B613B691846DA
:1027B0001837BD4680BD80B485B000AF78607B68B7
:1027C000002B35D00023FB607B681B685B78DB0443
:1027D00003F40023FB607B681B681B7ADB0203F4B5
:1027E0000063FA681343FB607B681B681B7CDB009B
:1027F00003F00803FA681343FB60104AFB68136098
:102800007B681B681B78DB039BB2FB607B681B79D2
:102810001B0203F48073FA681343FB607B685B79E7
:10282000DB01DBB2FA681343FB60054AFB68136007
:1028300000BF1437BD465DF8047B704708E00740D1
:102840000CE0074080B483B000AFEFF310837B60EF
:102850007B6818460C37BD465DF8047B704780B531
:1028600000AF0E4B1B68002B11D1FFF7EBFF0346A7
:102870000B4A13600A4B1B6803F00103002B01D1C4
:10288000012300E00023002B01D072B600BF034BF0
:102890001B680133014A136000BF80BD8498FF1F8D
:1028A0008098FF1F80B400AF0D4B1B68013B0C4AA2
:1028B00013600C4B1B6803F00103002B01D10123B3
:1028C00000E00023002B05D0054B1B68002B01D135
:1028D00062B600BF00BFBD465DF8047B704700BF15
:1028E0008498FF1F8098FF1F80B483B000AFEFF380
:1028F00010837B607B6818460C37BD465DF8047B0F
:10290000704780B500AF0E4B1B68002B11D1FFF74D
:10291000EBFF03460B4A13600A4B1B6803F00103ED
:10292000002B01D1012300E00023002B01D072B65F
:1029300000BF034B1B680133014A136000BF80BD19
:102940008C98FF1F8898FF1F80B400AF0D4B1B6849
:10295000013B0C4A13600C4B1B6803F00103002B76
:1029600001D1012300E00023002B05D0054B1B689B
:10297000002B01D162B600BF00BFBD465DF8047BED
:10298000704700BF8C98FF1F8898FF1F80B500AF6D
:102990000E4B1B68002B11D1FFF7A6FF03460C4A14
:1029A00013600B4B1B6803F00103002B01D10123C3
:1029B00000E00023002B01D072B600BF034B1B6860
:1029C0000133024A136000BF80BD00BF9498FF1F0F
:1029D0009098FF1F80B400AF0D4B1B68013B0C4A61
:1029E00013600C4B1B6803F00103002B01D1012382
:1029F00000E00023002B05D0054B1B68002B01D104
:102A000062B600BF00BFBD465DF8047B704700BFE3
:102A10009498FF1F9098FF1F80B500AF0E4B1B6866
:102A2000002B11D1FFF760FF03460C4A13600B4BDC
:102A30001B6803F00103002B01D1012300E00023F8
:102A4000002B01D072B600BF034B1B680133024A52
:102A5000136000BF80BD00BF9C98FF1F9898FF1FA8
:102A600080B400AF0D4B1B68013B0C4A13600C4B4C
:102A70001B6803F00103002B01D1012300E00023B8
:102A8000002B05D0054B1B68002B01D162B600BF9F
:102A900000BFBD465DF8047B704700BF9C98FF1FD8
:102AA0009898FF1F80B500AF0E4B1B68002B11D10B
:102AB000FFF71AFF03460C4A13600B4B1B6803F029
:102AC0000103002B01D1012300E00023002B01D0E2
:102AD00072B600BF034B1B680133024A136000BF8C
:102AE00080BD00BFA498FF1FA098FF1F80B400AF57
:102AF0000D4B1B68013B0C4A13600C4B1B6803F029
:102B00000103002B01D1012300E00023002B05D09D
:102B1000054B1B68002B01D162B600BF00BFBD464C
:102B20005DF8047B704700BFA498FF1FA098FF1FAB
:102B300080B500AF0E4B1B68002B11D1FFF7D4FE00
:102B400003460C4A13600B4B1B6803F00103002B78
:102B500001D1012300E00023002B01D072B600BF99
:102B6000034B1B680133024A136000BF80BD00BFE6
:102B7000AC98FF1FA898FF1F80B400AF0D4B1B68D7
:102B8000013B0C4A13600C4B1B6803F00103002B44
:102B900001D1012300E00023002B05D0054B1B6869
:102BA000002B01D162B600BF00BFBD465DF8047BBB
:102BB000704700BFAC98FF1FA898FF1F80B500AFFB
:102BC0000E4B1B68002B11D1FFF78EFE03460C4AFB
:102BD00013600B4B1B6803F00103002B01D1012391
:102BE00000E00023002B01D072B600BF034B1B682E
:102BF0000133024A136000BF80BD00BFB498FF1FBD
:102C0000B098FF1F80B400AF0D4B1B68013B0C4A0E
:102C100013600C4B1B6803F00103002B01D101234F
:102C200000E00023002B05D0054B1B68002B01D1D1
:102C300062B600BF00BFBD465DF8047B704700BFB1
:102C4000B498FF1FB098FF1F80B500AF0E4B1B68F4
:102C5000002B11D1FFF748FE03460C4A13600B4BC3
:102C60001B6803F00103002B01D1012300E00023C6
:102C7000002B01D072B600BF034B1B680133024A20
:102C8000136000BF80BD00BFBC98FF1FB898FF1F36
:102C900080B400AF0D4B1B68013B0C4A13600C4B1A
:102CA0001B6803F00103002B01D1012300E0002386
:102CB000002B05D0054B1B68002B01D162B600BF6D
:102CC00000BFBD465DF8047B704700BFBC98FF1F86
:102CD000B898FF1F80B483B000AFEFF310837B6020
:102CE0007B6818460C37BD465DF8047B704780B59D
:102CF00000AF0E4B1B68002B11D1FFF7EBFF034613
:102D00000B4A13600A4B1B6803F00103002B01D12F
:102D1000012300E00023002B01D072B600BF034B5B
:102D20001B680133014A136000BF80BDC498FF1FB8
:102D3000C098FF1F80B400AF0D4B1B68013B0C4ACD
:102D400013600C4B1B6803F00103002B01D101231E
:102D500000E00023002B05D0054B1B68002B01D1A0
:102D600062B600BF00BFBD465DF8047B704700BF80
:102D7000C498FF1FC098FF1F80B483B000AFEFF36B
:102D800010837B607B6818460C37BD465DF8047B7A
:102D9000704780B500AF0E4B1B68002B11D1FFF7B9
:102DA000EBFF03460B4A13600A4B1B6803F0010359
:102DB000002B01D1012300E00023002B01D072B6CB
:102DC00000BF034B1B680133014A136000BF80BD85
:102DD000CC98FF1FC898FF1F80B400AF0D4B1B6835
:102DE000013B0C4A13600C4B1B6803F00103002BE2
:102DF00001D1012300E00023002B05D0054B1B6807
:102E0000002B01D162B600BF00BFBD465DF8047B58
:102E1000704700BFCC98FF1FC898FF1F80B500AF58
:102E20000E4B1B68002B11D1FFF7A6FF03460C4A7F
:102E300013600B4B1B6803F00103002B01D101232E
:102E400000E00023002B01D072B600BF034B1B68CB
:102E50000133024A136000BF80BD00BFD498FF1F3A
:102E6000D098FF1F80B400AF0D4B1B68013B0C4A8C
:102E700013600C4B1B6803F00103002B01D10123ED
:102E800000E00023002B05D0054B1B68002B01D16F
:102E900062B600BF00BFBD465DF8047B704700BF4F
:102EA000D498FF1FD098FF1F80B500AF0E4B1B6852
:102EB000002B11D1FFF760FF03460C4A13600B4B48
:102EC0001B6803F00103002B01D1012300E0002364
:102ED000002B01D072B600BF034B1B680133024ABE
:102EE000136000BF80BD00BFDC98FF1FD898FF1F94
:102EF00080B400AF0D4B1B68013B0C4A13600C4BB8
:102F00001B6803F00103002B01D1012300E0002323
:102F1000002B05D0054B1B68002B01D162B600BF0A
:102F200000BFBD465DF8047B704700BFDC98FF1F03
:102F3000D898FF1F80B500AF0E4B1B68002B11D136
:102F4000FFF71AFF03460C4A13600B4B1B6803F094
:102F50000103002B01D1012300E00023002B01D04D
:102F600072B600BF034B1B680133024A136000BFF7
:102F700080BD00BFE498FF1FE098FF1F80B400AF42
:102F80000D4B1B68013B0C4A13600C4B1B6803F094
:102F90000103002B01D1012300E00023002B05D009
:102FA000054B1B68002B01D162B600BF00BFBD46B8
:102FB0005DF8047B704700BFE498FF1FE098FF1F97
:102FC00080B500AF0E4B1B68002B11D1FFF7D4FE6C
:102FD00003460C4A13600B4B1B6803F00103002BE4
:102FE00001D1012300E00023002B01D072B600BF05
:102FF000034B1B680133024A136000BF80BD00BF52
:10300000EC98FF1FE898FF1F80B400AF0D4B1B68C2
:10301000013B0C4A13600C4B1B6803F00103002BAF
:1030200001D1012300E00023002B05D0054B1B68D4
:10303000002B01D162B600BF00BFBD465DF8047B26
:10304000704700BFEC98FF1FE898FF1F80B500AFE6
:103050000E4B1B68002B11D1FFF78EFE03460C4A66
:1030600013600B4B1B6803F00103002B01D10123FC
:1030700000E00023002B01D072B600BF034B1B6899
:103080000133024A136000BF80BD00BFF498FF1FE8
:10309000F098FF1F80B400AF0D4B1B68013B0C4A3A
:1030A00013600C4B1B6803F00103002B01D10123BB
:1030B00000E00023002B05D0054B1B68002B01D13D
:1030C00062B600BF00BFBD465DF8047B704700BF1D
:1030D000F498FF1FF098FF1F80B500AF0E4B1B68E0
:1030E000002B11D1FFF748FE03460C4A13600B4B2F
:1030F0001B6803F00103002B01D1012300E0002332
:10310000002B01D072B600BF034B1B680133024A8B
:10311000136000BF80BD00BFFC98FF1FF898FF1F21
:1031200080B400AF0D4B1B68013B0C4A13600C4B85
:103130001B6803F00103002B01D1012300E00023F1
:10314000002B05D0054B1B68002B01D162B600BFD8
:1031500000BFBD465DF8047B704700BFFC98FF1FB1
:10316000F898FF1F80B500AF0E4B1B68002B11D1E4
:10317000FFF702FE03460C4A13600B4B1B6803F07B
:103180000103002B01D1012300E00023002B01D01B
:1031900072B600BF034B1B680133024A136000BFC5
:1031A00080BD00BF0499FF1F0099FF1F80B400AFCE
:1031B0000D4B1B68013B0C4A13600C4B1B6803F062
:1031C0000103002B01D1012300E00023002B05D0D7
:1031D000054B1B68002B01D162B600BF00BFBD4686
:1031E0005DF8047B704700BF0499FF1F0099FF1F23
:1031F00080B500AF0E4B1B68002B11D1FFF7BCFD53
:1032000003460C4A13600B4B1B6803F00103002BB1
:1032100001D1012300E00023002B01D072B600BFD2
:10322000034B1B680133024A136000BF80BD00BF1F
:103230000C99FF1F0899FF1F80B400AF0D4B1B684E
:10324000013B0C4A13600C4B1B6803F00103002B7D
:1032500001D1012300E00023002B05D0054B1B68A2
:10326000002B01D162B600BF00BFBD465DF8047BF4
:10327000704700BF0C99FF1F0899FF1F80B500AF72
:103280000E4B1B68002B11D1FFF776FD03460C4A4D
:1032900013600B4B1B6803F00103002B01D10123CA
:1032A00000E00023002B01D072B600BF034B1B6867
:1032B0000133024A136000BF80BD00BF1499FF1F95
:1032C0001099FF1F80B400AF0D4B1B68013B0C4AE7
:1032D00013600C4B1B6803F00103002B01D1012389
:1032E00000E00023002B05D0054B1B68002B01D10B
:1032F00062B600BF00BFBD465DF8047B704700BFEB
:103300001499FF1F1099FF1F80B500AF0E4B1B686B
:10331000002B11D1FFF730FD03460C4A13600B4B15
:103320001B6803F00103002B01D1012300E00023FF
:10333000002B01D072B600BF034B1B680133024A59
:10334000136000BF80BD00BF1C99FF1F1899FF1FAD
:1033500080B400AF0D4B1B68013B0C4A13600C4B53
:103360001B6803F00103002B01D1012300E00023BF
:10337000002B05D0054B1B68002B01D162B600BFA6
:1033800000BFBD465DF8047B704700BF1C99FF1F5E
:103390001899FF1F80B483B000AFEFF310837B60F8
:1033A0007B6818460C37BD465DF8047B704780B5D6
:1033B00000AF0E4B1B68002B11D1FFF7EBFF03464C
:1033C0000B4A13600A4B1B6803F00103002B01D169
:1033D000012300E00023002B01D072B600BF034B95
:1033E0001B680133014A136000BF80BD2499FF1F91
:1033F0002099FF1F80B400AF0D4B1B68013B0C4AA6
:1034000013600C4B1B6803F00103002B01D1012357
:1034100000E00023002B05D0054B1B68002B01D1D9
:1034200062B600BF00BFBD465DF8047B704700BFB9
:103430002499FF1F2099FF1F80B500AF0E4B1B681A
:10344000002B11D1FFF7A6FF03460C4A13600B4B6C
:103450001B6803F00103002B01D1012300E00023CE
:10346000002B01D072B600BF034B1B680133024A28
:10347000136000BF80BD00BF2C99FF1F2899FF1F5C
:1034800080B400AF0D4B1B68013B0C4A13600C4B22
:103490001B6803F00103002B01D1012300E000238E
:1034A000002B05D0054B1B68002B01D162B600BF75
:1034B00000BFBD465DF8047B704700BF2C99FF1F1D
:1034C0002899FF1F80B500AF0E4B1B68002B11D150
:1034D000FFF760FF03460C4A13600B4B1B6803F0B9
:1034E0000103002B01D1012300E00023002B01D0B8
:1034F00072B600BF034B1B680133024A136000BF62
:1035000080BD00BF3499FF1F3099FF1F80B400AF0A
:103510000D4B1B68013B0C4A13600C4B1B6803F0FE
:103520000103002B01D1012300E00023002B05D073
:10353000054B1B68002B01D162B600BF00BFBD4622
:103540005DF8047B704700BF3499FF1F3099FF1F5F
:1035500080B483B000AFEFF310837B607B681846C4
:103560000C37BD465DF8047B704780B500AF0E4B4D
:103570001B68002B11D1FFF7EBFF03460B4A1360CA
:103580000A4B1B6803F00103002B01D1012300E06B
:103590000023002B01D072B600BF034B1B68013320
:1035A000014A136000BF80BD3C99FF1F3899FF1F7F
:1035B00080B400AF0D4B1B68013B0C4A13600C4BF1
:1035C0001B6803F00103002B01D1012300E000235D
:1035D000002B05D0054B1B68002B01D162B600BF44
:1035E00000BFBD465DF8047B704700BF3C99FF1FDC
:1035F0003899FF1F80B483B000AF0346FB71FB799D
:10360000084A32F833309BB2022B04D9FB79054AC1
:10361000022122F8331000BF0C37BD465DF8047B51
:10362000704700BFC885FF1F80B584B000AF034658
:10363000FB710B46BB711346BB800023FB73104B21
:103640001B78002B08D1BA79F9790A237B20FDF782
:103650003BFD0123FB730EE0BB88184600F012F817
:103660000346012B07D1BA79F97915237B20FDF7A1
:103670002BFD0123FB73FB7B18461037BD4680BD35
:10368000809CFF1F80B485B000AF0346FB80002301
:10369000FB730023BB730023BB730FE0134B1B684A
:1036A0009968BA7B13465B0013449B000B441B884C
:1036B000FA889A4209D0BB7B0133BB730B4B1B6862
:1036C0005B78BA7B9A42E9D300E000BF074B1B68E6
:1036D0005B78BA7B9A4201D30123FB73FB7B1846CC
:1036E0001437BD465DF8047B704700BF849CFF1F04
:1036F00080B485B000AF0346FB80FF23FB73234BF0
:103700001B689968FA8813465B0013449B000B44BE
:103710001B88BB811D4B1B689968FA8813465B00A8
:1037200013449B000B449B68DB685B79FB720023AE
:10373000FB730EE0FA7AFB7B1549920013445B00A1
:103740000B445B889BB2BA899A420CD0FB7B013355
:10375000FB73FB7B9AB2FB7A0D4931F833309BB295
:103760009A42E7D300E000BFFB7B9AB2FB7A08499C
:1037700031F833309BB29A4201D3FF23FB73FB7BBA
:1037800018461437BD465DF8047B7047849CFF1FC4
:10379000C885FF1F90B585B000AF0346FB71FB796C
:1037A000184601F073FEFB79184601F0F3FEFB7931
:1037B0001846FFF71FFFFB793C4A32F833309BB2C3
:1037C000012B58D90023BB73FFF7B2F9FB79374AB5
:1037D00032F833309AB2FB79013A91B2334A22F887
:1037E00033100023FB7315E0F879FB7B0133F97983
:1037F000FA7B2E4C800003445B0023445B889CB220
:103800002A488B0013445B00034422465A80FB7B0A
:103810000133FB73FB7B9AB2FB79244931F83330D7
:103820009BB29A42E0D3FB79FA79204931F83220F1
:1038300092B211461D4A9B000B445B0013444FF6A5
:10384000FF725A80FFF798F9FB79184ADB0013449E
:103850005B889BB2184601F0CDFF0346BB73BB7B70
:103860009AB2FB791146184601F0FEFEFB79184624
:1038700001F030FE16E0FB790C4A32F833309BB28F
:10388000012B0FD1FFF754F9FB79084A002122F8E8
:103890003310FB79054ADB0013444FF6FF725A8060
:1038A000FFF76AF900BF1437BD4690BDC885FF1FFA
:1038B000B0B586B002AF0346FB800023FB73002344
:1038C000BB7300237B733A4B1B689968FA881346D5
:1038D0005B0013449B000B449B68DB685B79BB7304
:1038E000FB8834491A010A440A3212780132D1B2F3
:1038F000304A1B0113440A330A461A702C4B1B68CA
:103900009968FA8813465B0013449B000B449B683C
:10391000DB681B79FB73FB88264A1B0113440A33BF
:103920001B78013B7B7300233B73FB88214A1B01FF
:10393000134404331A68FB7B797B01FB03F35B00C0
:10394000D418FB7B9DB21A4B1B689968FA88134602
:103950005B0013449B000B445B6893F82630F988A6
:10396000B87B00932B46224601F024FE03463B73AE
:103970003B7B002B0FD1FB880E4A1B0113440A33FB
:103980001A78FB88013AD1B20A4A1B0113440A3360
:103990000A461A7003E0FB88184601F061FFBB7B02
:1039A000184601F0F7FD00BF1037BD46B0BD00BF9F
:1039B000849CFF1F6885FF1F80B584B000AF03465D
:1039C000FB710123FB73FB79184601F003FD0346ED
:1039D000BB81BB894FF6FF7293424FD0294B1B68C6
:1039E0009968BA8913465B0013449B000B449B689B
:1039F0001B7C002B42D1FB79184601F0B7FD034632
:103A0000012B3BD1BB891846FFF752FFBA89FB79DE
:103A10001146184601F094FF0346FB73FB7B002B15
:103A20002CD1FB79184A32F833309BB2002B1DD0D1
:103A3000FB79154ADB0013445B889BB2184601F002
:103A4000D9FE0346DBB2BB81BB89104A1B0113447C
:103A50001B78032B12D0BA89FB791146184601F066
:103A600003FEFB79184601F035FD07E0FB791846A7
:103A700001F00CFDFB79184601F08CFD00BF1037FA
:103A8000BD4680BD849CFF1FC885FF1F6885FF1F42
:103A900080B483B000AF0346FB80FB883A4A1B0129
:103AA00013441B78022B02D0032B1CD065E0FB884B
:103AB000354A1B01134401221A70FB88324A1B014C
:103AC00013440A3300221A70FB882F4A1B01134447
:103AD0000B3300221A70FB882B4A1B0113440C3352
:103AE00000221A7049E0294B1B689968FA8813462E
:103AF0005B0013449B000B449B685B78012B20D137
:103B0000224B1B689968FA8813465B0013449B009C
:103B10000B449B681B78002B0CD01C4B1B689968CE
:103B2000FA8813465B0013449B000B449B681B7A86
:103B3000012B06D1FB88144A1B01134401221A7081
:103B400005E0FB88104A1B01134400221A70FB8811
:103B50000D4A1B0113440A3300221A70FB880A4ADB
:103B60001B0113440B3300221A70FB88064A1B0109
:103B700013440C3300221A7000BF00BF0C37BD463F
:103B80005DF8047B704700BF6885FF1F849CFF1FA2
:103B900080B584B000AF03463960FB803E4B1B68A4
:103BA0009968FA8813465B0013449B000B449B689A
:103BB000DB681B79BB810023FB73FB88374A1B0141
:103BC00013441B78032B0DD1334B1B689968FA887B
:103BD00013465B0013449B000B449B685B7A013BDC
:103BE000FB730EE0FB882D4A1B0113441B78022B4C
:103BF00007D1FB88294A1B0113440A331B78013B78
:103C0000FB73FB881846FFF743FF0023BB7339E0C3
:103C1000214B1B689968FA8813465B0013449B008C
:103C20000B449B681B7C022B15D1FB881B4A1B0194
:103C3000134404331A68FB7BB989013103FB01F19A
:103C4000BB7B0B445B001A44BB7B5B0039680B44B5
:103C500012881A8013E0FB88104A1B0113440433B6
:103C60001A68FB7BB98903FB01F1BB7B0B445B004A
:103C70001A44BB7B5B0039680B4412881A80BB7BFB
:103C80000133BB73BB7B9BB2BA899A42C0D800BFD9
:103C900000BF1037BD4680BD849CFF1F6885FF1F95
:103CA00080B584B000AF03463960FB800023FB730E
:103CB0003C4B1B689968FA8813465B0013449B00D1
:103CC0000B449B68DB681B797B730023BB73FB8809
:103CD000354A1B0113441B78032B19D1314B1B6848
:103CE0009968FA8813465B0013449B000B449B6859
:103CF0005B7A013BBB732B4B1B689968FA881346B0
:103D00005B0013449B000B449B685B7AFB7315E0DC
:103D1000FB88254A1B0113441B78022B0ED1FB881C
:103D2000214A1B0113440A331B78013BBB73FB88F8
:103D30001D4A1B0113440A331B78FB73FB8818468A
:103D4000FFF7A6FE174B1B689968FA8813465B00BD
:103D500013449B000B449B681B7C022B0FD1FB88F8
:103D6000114A1B01134404331A68BB7B797B013170
:103D700001FB03F35B001A443B681A600DE0FB880B
:103D8000094A1B01134404331A68BB7B797B01FB8E
:103D900003F35B001A443B681A60FB7B184610373C
:103DA000BD4680BD849CFF1F6885FF1F80B584B021
:103DB00000AF0346FB800B467B7113467B807B790B
:103DC000184601F007FB0346FB817B79384A32F83D
:103DD00033309BB2002B11D17B79354ADB00134481
:103DE000FA885A807B79324A012122F833107A8886
:103DF0007B791146184601F037FC55E07B792C4A57
:103E000032F833309BB2012B2ED17B79284ADB006C
:103E100013445B889BB2FA889A4245D0FB89254AB5
:103E20001B0113441B78032B0CD17B79204ADB0048
:103E30001344FA885A807A887B791146184601F033
:103E400013FC31E07B791A4ADB001344FA889A802C
:103E50007B79174A32F833309AB27B79013291B2CA
:103E6000134A22F833101FE07B881846FFF740FC06
:103E70000346FF2B18D17B797A790D4931F832202E
:103E800092B211460A4A9B000B445B001344FA8825
:103E90005A807B79064A32F833309AB27B79013204
:103EA00091B2034A22F8331000BF1037BD4680BDDF
:103EB000C885FF1F6885FF1F90B585B000AF03461A
:103EC0000A46FB711346BB800023BB73BB881846B0
:103ED000FFF70EFC03467B73FB791846FFF78AFB5E
:103EE000FB793E4A32F833309BB2002B72D07B7B99
:103EF0009AB2FB79394931F833309BB29A4269D290
:103F0000FB79364A32F833309AB2FB79013A91B2F2
:103F1000324A22F833100023FB7315E0F879FB7B5B
:103F20000133F979FA7B2D4C800003445B00234474
:103F30005B889CB229488B0013445B0003442246F3
:103F40005A80FB7B0133FB73FB7B9AB2FB792349DD
:103F500031F833309BB29A42E0D3FB79FA791F49AA
:103F600031F8322092B211461C4A9B000B445B0090
:103F700013444FF6FF725A80FB79184A32F83330F7
:103F80009BB2002B26D0FB79144ADB0013445B88DC
:103F90009BB2184601F02EFC0346BB73104B1B6806
:103FA0009968BA7B13465B0013449B000B449B68E3
:103FB0001B7C002B0ED1FB79184601F067FAFB79C8
:103FC000184601F0E7FABB7B9AB2FB791146184616
:103FD00001F04AFB00BF1437BD4690BDC885FF1FE6
:103FE000849CFF1F80B584B000AF0346FB710B4675
:103FF000BB8013467B80FB79374A32F833309BB263
:10400000002B44D0FB79184601F040FA7B88334AF4
:104010001B0113441B78012B0AD1FEF715FE7A8889
:10402000F979BB881846FFF7C1FEFEF731FE10E0B4
:104030007B882A4A1B0113441B78002B09D1FEF709
:1040400003FE7A88FB7911461846FFF735FFFEF725
:104050001FFEFB79204A32F833309BB2002B36D05A
:10406000FB791D4ADB0013445B889BB2184601F0C4
:10407000C1FB0346FB81FB89184A1B0113441B78D3
:10408000032B24D0FB79184601F024FA1FE07B882B
:10409000124A1B0113441B78012B18D1FEF7D4FDE3
:1040A000FB790D4A012122F83310FB790A4ADB0023
:1040B0001344BA885A80FEF7EBFD7A88FB791146E3
:1040C000184601F0D1FAFB79184601F003FA00BF57
:1040D0001037BD4680BD00BFC885FF1F6885FF1F24
:1040E00080B582B000AF554B1B78002B06D10A2358
:1040F000012200217B20FCF7E7FF9AE00023BB713F
:104100000023FB7113E0FB794D4A1B0113441B781C
:10411000002B09D0FB794A4A1B0113441B78032B5F
:1041200002D00123BB7108E0FB790133FB71454BE1
:104130001B685B78FA799A42E5D3BB79012B06D1EB
:104140000B23012200217B20FCF7F0FF71E000230C
:10415000FB7137E03B4B1B685968FA7913469B00AB
:1041600013440B441B78184601F0E2F9354B1B68E9
:104170005968FA7913469B0013440B441B781A467E
:10418000314B002123F8321000237B7114E02D4BBA
:104190001B685968FA7913469B0013440B441B783B
:1041A0001A467B792849920013445B000B44FF2296
:1041B0005A807B7901337B717B79012BE7D9FB79BD
:1041C0000133FB711F4B1B681B78FA799A42C1D3EC
:1041D0000023FB7124E0FB79194A1B0113440022E0
:1041E0001A70FB79164A1B0113440A3300221A7015
:1041F000FB79134A1B011344043300221A60FB7934
:104200000F4A1B0113440D3300221A70FB790C4A2C
:104210001B011344083300221A70FB790133FB7130
:10422000FB79052BD7D9054B00221A70054B0022CC
:104230001A6000BF0837BD4680BD00BF809CFF1FCD
:104240006885FF1F849CFF1FC885FF1F80B584B051
:1042500000AF0346FB800023FB730023BB81254B8B
:104260001B78002B08D10A23082200217B20FCF7B1
:104270002BFF0123FB730EE0FB881846FFF702FAC1
:104280000346012B07D11523082200217B20FCF7D0
:104290001BFF0123FB73FB88184601F0ABFA0346B2
:1042A000BB81FB7B002B16D1134B1B689968BA8925
:1042B00013465B0013449B000B449B68BB60BB68C8
:1042C0005B68002B07D11823082200217B20FCF714
:1042D000FBFE0123FB73FB7B002B06D1BB89074A46
:1042E0001B0113440D3300221A7000BF1037BD4666
:1042F00080BD00BF809CFF1F849CFF1F6885FF1F3F
:1043000080B584B000AF0346FB800023FB7300231D
:10431000BB81254B1B78002B08D10A2307220021E3
:104320007B20FCF7D1FE0123FB730EE0FB881846CF
:10433000FFF7A8F90346012B07D115230722002117
:104340007B20FCF7C1FE0123FB73FB88184601F0BC
:1043500051FA0346BB81FB7B002B16D1134B1B6824
:104360009968BA8913465B0013449B000B449B6811
:10437000BB60BB685B68002B07D1182307220021B4
:104380007B20FCF7A1FE0123FB73FB7B002B06D1F6
:10439000BB89074A1B0113440D3301221A7000BF69
:1043A0001037BD4680BD00BF809CFF1F849CFF1F4F
:1043B0006885FF1F80B584B000AF0346FB800023F3
:1043C000BB730023FB73FB881A4609210020FFF70B
:1043D0002BF90346BB73BB7B002B20D10023BB8191
:1043E0000023FB72FB88184601F004FA0346BB81E8
:1043F0000D4B1B689968BA8913465B0013449B00F8
:104400000B449B68DB685B79FB72FB7A1846FFF70D
:10441000D3FABB89054A1B0113441B78FB73FB7B52
:1044200018461037BD4680BD849CFF1F6885FF1F5E
:1044300080B584B000AF03463960FB800023FB7376
:104440000023BB730023BB81FB881A460B2100208D
:10445000FFF7EAF80346FB73FB7B002B18D1FB88C0
:10446000184601F0C7F90346BB81BB892A4A1B01E4
:1044700013441B78002B0ED10C230B2200217B2030
:10448000FCF722FE3B6800221A600123FB7302E066
:104490003B6800221A60FB7B002B38D11F4B1B6846
:1044A0009968BA8913465B0013449B000B449B68D0
:1044B000DB685B79FB723B6800221A60FB7A184666
:1044C000FFF77AFABB89144A1B0113441B78022BAD
:1044D00006D0BB89104A1B0113441B78032B11D152
:1044E000FEF754FABB8939681846FFF7D9FB034633
:1044F000BB73FEF76FFABA89F988FB7A1846FFF7A3
:1045000071FD04E03B6800221A600023BB73BB7B93
:1045100018461037BD4680BD6885FF1F849CFF1F6D
:1045200080B584B000AF78600023FB73674B1B78C5
:10453000012B06D10D23002200217B20FCF7C4FDB6
:10454000BFE07B68002B08D10E23002200217B20D6
:10455000FCF7BAFD0123FB7302E05D4A7B68136040
:10456000FB7B002B40F0AD800023BB7372E0584B07
:104570001B685968BA7B13469B0013440B441846CA
:1045800000F06CFF524B1B685968BA7B13469B00C6
:1045900013440B441B78184600F078FF4C4B1B6803
:1045A0005968BA7B13469B0013440B441B7818468A
:1045B00000F0AAFF464B1B685968BA7B13469B0064
:1045C00013440B441B781A46424B002123F8321047
:1045D00000237B7315E03E4B1B685968BA7B13467A
:1045E0009B0013440B441B781A467B7B394992008D
:1045F00013445B000B444FF6FF725A807B7B013300
:104600007B737B7B012BE6D9314B1B685968BA7BE6
:1046100013469B0013440B441B78002B0BD12C4BEF
:104620001B685968BA7B13469B0013440B441B79E3
:10463000184600F0F1FE264B1B685968BA7B1346FA
:104640009B0013440B441B78184600F0F7FEBB7B1D
:104650000133BB731E4B1B681B78BA7B9A4286D30F
:104660001A4B01221A700023BB7324E0BB7B1A4A49
:104670001B01134400221A70BB7B174A1B01134411
:10468000083300221A70BB7B134A1B011344093301
:1046900000221A70BB7B104A1B0113440A3300220C
:1046A0001A70BB7B0C4A1B0113440D3300221A7095
:1046B000BB7B0133BB73064B1B685B78BA7B9A42AA
:1046C000D4D300BF1037BD4680BD00BF809CFF1F04
:1046D000849CFF1FC885FF1F6885FF1F80B584B0BD
:1046E00000AF03463960FB800023FB730023BB81CE
:1046F000FB881A4604210020FEF796FF0346FB7351
:10470000FB88184601F076F80346BB81FB7B002B43
:104710000ED1BB89264A1B0113441B78002B07D1FD
:104720000C23042200217B20FCF700FD0123FB73F6
:10473000FB7B002B37D11F4B1B689968BA89134646
:104740005B0013449B000B449B68DB685B79FB7246
:10475000FB7A1846FFF730F9BB89154A1B01134451
:104760001B78022B06D0BB89114A1B0113441B780E
:10477000032B0FD1FEF750F9BB8939681846FFF7B4
:1047800007FAFEF76DF9BA89F988FB7A1846FFF740
:1047900029FC08E0BB89064A1B0113441B78012B46
:1047A00001D10123FB73FB7B18461037BD4680BD4A
:1047B0006885FF1F849CFF1F80B584B000AF03464F
:1047C0003960FB800023FB73314B1B78002B08D131
:1047D0000A230C2200217B20FCF776FC0123FB73CB
:1047E0001AE03B68002B08D114230C2200217B2007
:1047F000FCF76AFC0123FB730EE0FB881846FEF70A
:1048000041FF0346012B07D115230C2200217B20F9
:10481000FCF75AFC0123FB73FB7B002B33D10023F5
:10482000BB81FB88184600F0E5FF0346BB81BB89CE
:10483000184A1B0113441B78002B08D00B230C22B1
:1048400000217B20FCF772FC0123FB731BE0BB897A
:10485000104A1B01134404333A681A60BB890D4A9D
:104860001B011344083301221A70BB89094A1B013A
:1048700013440A3300221A70BB89064A1B011344F1
:10488000093300221A70FB7B18461037BD4680BDE5
:10489000809CFF1F6885FF1F80B584B000AF034672
:1048A000FB800023FB730023BB810023FB72FB888A
:1048B0001A4602210020FEF7B7FE0346FB73FB7B7E
:1048C000002B2BD1FB88184600F094FF0346BB81D8
:1048D000614B1B689968BA8913465B0013449B00BF
:1048E0000B449B68DB78012B08D11723022200219F
:1048F0007B20FCF7E9FB0123FB730FE0BB89574AE0
:104900001B01134408331B78002B07D11923022203
:1049100000217B20FCF7D8FB0123FB73FB7B002BE2
:1049200029D14D4B1B689968BA8913465B00134423
:104930009B000B449B68DB685B79FB72BB89474A31
:104940001B0113441B78002B06D0BB89434A1B0173
:1049500013441B78032B06D1FB7A414A32F83330DB
:104960009BB2012B07D90B23022200217B20FCF7ED
:10497000DDFB0123FB73FB7B002B68D1BB89374A2E
:104980001B0113440A3300221A70BB89334A1B01EE
:1049900013440B3300221A70BB89304A1B011344A5
:1049A0000C3300221A70FEF77DF8FF23BB72FB7AEE
:1049B0002B4A32F833309BB2002B2BD0FB7A284A9B
:1049C000DB0013445B889BB2FA889A4222D0FB7AC0
:1049D000234A32F833309BB2BB72FA7ABB7A204951
:1049E000920013445B000B44FA885A80FB7A1C4AFD
:1049F00032F833309AB2FB7A013291B2184A22F877
:104A00003310BB89154A1B01134401221A70FEF7AB
:104A10006DF81CE0FB7A124ADB001344FA885A80D6
:104A2000FB7A0F4A012122F83310BB890B4A1B0184
:104A3000134401221A70FEF759F8BA89FB7A11461D
:104A4000184600F011FEFB7A184600F043FD00BF47
:104A50001037BD4680BD00BF849CFF1F6885FF1FC7
:104A6000C885FF1F90B585B000AF0346FB800023CB
:104A7000FB730023BB810023BB72FB881A46032112
:104A80000020FEF7D1FD0346FB73FB7B002B2AD1F0
:104A9000FB88184600F0AEFE0346BB81804B1B68C6
:104AA0009968BA8913465B0013449B000B449B68CA
:104AB000DB78012B08D11723032200217B20FCF790
:104AC00003FB0123FB730EE0BB89764A1B011344F1
:104AD0001B78002B07D10C23032200217B20FCF73D
:104AE000F3FA0123FB73FB7B002B40F0D5806C4B6A
:104AF0001B689968BA8913465B0013449B000B44FA
:104B00009B68DB685B79BB72BB7A674ADB00134446
:104B10005B889BB2FA889A4203D1BB7A184600F0B0
:104B2000B5FC00237B72BB7A5F4A32F833309BB20C
:104B3000012B40F28680BB891846FEF7D9FD03465B
:104B40007B727B7A002B04D1BB7A1846FEF722FEDB
:104B50007CE07A7ABB7A544931F833309BB2013B1E
:104B60009A421ED1FDF7E4FFBA7ABB7A4E4931F87A
:104B700033309BB2013B4C49920013445B000B4421
:104B80004FF6FF725A80BB7A474A32F833309AB2F6
:104B9000BB7A013A91B2444A22F83310FDF7ECFF98
:104BA00054E07B7AFF2B51D0BB7A184600F06EFCA4
:104BB000FDF7BEFFBB7A1846FEF71CFDBB7A3A4AEA
:104BC00032F833309AB2BB7A013A91B2364A22F8BF
:104BD00033107B7AFB7215E0B87AFB7A0133B97A2D
:104BE000FA7A314C800003445B0023445B889CB21A
:104BF0002D488B0013445B00034422465A80FB7A05
:104C00000133FB72FB7A9AB2BB7A274931F8333011
:104C10009BB29A42E0D3BB7ABA7A234931F8322068
:104C200092B21146204A9B000B445B0013444FF69E
:104C3000FF725A80FDF7A0FFBB7A184600F04AFCCD
:104C400004E0BB7A184A002122F83310BB7A164AD6
:104C500032F833309BB2002B03D1BB7A184600F0F8
:104C600015FCBB890F4A1B01134400221A70BB8933
:104C70000C4A1B011344093300221A70BB89094AEC
:104C80001B0113440A33FF221A70BB89054A1B011A
:104C900013440D3300221A7000BF1437BD4690BD77
:104CA000849CFF1F6885FF1FC885FF1F80B500AF6C
:104CB000002000F0BDFE00BF80BD000080B485B0C4
:104CC00000AF78600B46FB707B681B69FB60FB687C
:104CD00023F47063FB60FB781B0203F47063FA68D3
:104CE0001343FB607B68FA681A6100BF1437BD4646
:104CF0005DF8047B704780B485B000AF78600B46E8
:104D0000FB707B681B69FB60FB6823F0FF03FB60A3
:104D1000FB78FA681343FB607B68FA681A6100BF8E
:104D20001437BD465DF8047B704780B485B000AF92
:104D300078600B46FB707B685B69FB60FB6823F067
:104D4000FF03FB60FB78FA681343FB607B68FA683B
:104D50005A6100BF1437BD465DF8047B704780B4CC
:104D600083B000AF78600B46FB7013463B80FB7846
:104D7000072B07D8FB783A88D1B27A6813440A46E1
:104D800083F82C2000BF0C37BD465DF8047B7047CC
:104D900080B483B000AF78607B689B6843F0080202
:104DA0007B689A6000BF0C37BD465DF8047B704796
:104DB00080B483B000AF78607B689B68DB08DBB2AF
:104DC00003F00103DBB218460C37BD465DF8047BE7
:104DD000704780B483B000AF78607B689B6843F015
:104DE00004027B689A6000BF0C37BD465DF8047B07
:104DF000704780B483B000AF78607B689B689B0885
:104E0000DBB203F00103DBB218460C37BD465DF898
:104E1000047B704780B483B000AF78607B68002269
:104E20005A6000BF0C37BD465DF8047B704780B404
:104E300085B000AF78600B46FB707B68DB68FB6079
:104E4000FB6823F40063FB60FB78DB0203F4006380
:104E5000FA681343FB607B68FA68DA6000BF1437B6
:104E6000BD465DF8047B704780B483B000AF7860C6
:104E70007B689B6843F002027B689A6000BF0C3736
:104E8000BD465DF8047B704780B483B000AF7860A6
:104E90007B689B685B08DBB203F00103DBB218465A
:104EA0000C37BD465DF8047B704780B485B000AF19
:104EB00078600B46FB707B689B68FB60FB78012B7E
:104EC00004D1FB6843F01003FB6003E0FB6823F0B0
:104ED0001003FB607B68FA689A6000BF1437BD4618
:104EE0005DF8047B704780B483B000AF78607B6866
:104EF0009B6843F001027B689A6000BF0C37BD4697
:104F00005DF8047B704780B483B000AF78607B6845
:104F10009B68DBB203F00103DBB218460C37BD46D9
:104F20005DF8047B704780B485B000AF78607B6823
:104F30001B68BB600023FB73BB68DB0803F0010345
:104F4000BB60BB68002B01D00123FB73FB7B1846C1
:104F50001437BD465DF8047B704780B485B000AF60
:104F600078607B681B68BB600023FB73BB689B0990
:104F700003F00103BB60BB68002B01D00123FB736E
:104F8000FB7B18461437BD465DF8047B704780B440
:104F900083B000AF78607B6808221A6000BF0C37CE
:104FA000BD465DF8047B704780B483B000AF786085
:104FB0007B68DB6C9BB218460C37BD465DF8047B02
:104FC000704780B483B000AF786039607B683A681E
:104FD000DA6000BF0C37BD465DF8047B704780B4D3
:104FE00083B000AF78607B684FF0FF321A6000BF7B
:104FF0000C37BD465DF8047B704780B483B000AFCA
:10500000786039607B683A685A6000BF0C37BD46EB
:105010005DF8047B704780B485B000AF78607B6832
:1050200000229A607B684FF0FF321A607B68002292
:105030005A607B68124ADA607B684FF428721A6102
:105040007B6802225A617B6800229A617B680D4A64
:10505000DA610023FB7308E0FB7B7A6813440022CB
:1050600083F82C20FB7B0133FB73FB7B072BF3D9ED
:1050700000BF00BF1437BD465DF8047B704700BF1A
:10508000100000070000FF0F2DE9B00F8FB000AF38
:1050900003460A46FB851346BB85002387F8373055
:1050A0007F4B1B689968FA8D13465B0013449B0085
:1050B0000B445B6893F82030062B00F2DA8001A2E3
:1050C00052F823F0E1500000195100008151000016
:1050D00073520000B7510000ED510000455200002E
:1050E000BB8D00223B627A626D4B1B689968FA8D1A
:1050F00013465B0013449B000B445B68D3E9062313
:10510000D7E9084521468A4229468B41C0F0B5803F
:10511000012387F83730B0E0BB8D0022BB61FA6114
:105120005F4B1B689968FA8D13465B0013449B0024
:105130000B445B68D3E90623D7E9064521468A423A
:1051400029468B4180F09B80BB8D00223B617A61B8
:10515000534B1B689968FA8D13465B0013449B0000
:105160000B445B68D3E90223D7E9044521468A4210
:1051700029468B41C0F08380012387F837307EE0D9
:10518000BB8D0022BB60FA60454B1B689968FA8DA5
:1051900013465B0013449B000B445B68D3E9022376
:1051A000D7E9024521468A4229468B4169D201232B
:1051B00087F8373065E0BB8D00223B607A60384B62
:1051C0001B689968FA8D13465B0013449B000B44DF
:1051D0005B68D3E90623D7E9004521468A42294680
:1051E0008B4150D2012387F837304CE0BB8D002231
:1051F0009A4693462A4B1B689968FA8D13465B00C2
:1052000013449B000B445B68D3E90623524573EBC0
:105210000B0313D2BB8D002298469146204B1B688E
:105220009968FA8D13465B0013449B000B445B683E
:10523000D3E90223424573EB090326D2012387F801
:10524000373022E0BB8D00221C461546144B1B68EC
:105250009968FA8D13465B0013449B000B445B680E
:10526000D3E90223A242AB4111D3012387F837309F
:105270000DE0012387F837300AE000BF08E000BFE7
:1052800006E000BF04E000BF02E000BF00E000BF96
:1052900097F8373018463C37BD46BDE8B00F704729
:1052A000849CFF1F80B584B000AF03463960FB715A
:1052B0003B68FB600A4B1846FFF7D6FD02E0FB682F
:1052C000013BFB60064B1846FFF7DEFD0346012B52
:1052D00002D1FB68002BF2D100BF1037BD4680BD64
:1052E0000000044080B584B000AF03463960FB7114
:1052F0003B68FB600A4B1846FFF7F5FD02E0FB68D0
:10530000013BFB60064B1846FFF7FDFD0346002BF3
:1053100002D1FB68002BF2D100BF1037BD4680BD23
:105320000000044080B582B000AF0346FB71044B1F
:105330001846FFF754FE00BF0837BD4680BD00BFCA
:105340000000044080B584B000AF0346FB714FF607
:10535000FF73FB810023BB81FB790C4ADB00134404
:105360005B88FB81FB89184600F044FA0346BB8149
:10537000BA89FB791146184600F076F9FB79184690
:1053800000F0A8F800BF1037BD4680BDC885FF1FDC
:1053900080B584B000AF0346FB710C4BFB6006E0A8
:1053A0000B4B1846FFF700FEFB68013BFB60084B08
:1053B0001846FFF7D2FD0346012B02D0FB68002BF5
:1053C000EED100BF1037BD4680BD00BFA0860100F2
:1053D0000000044080B584B000AF0346FB714FF677
:1053E000FF73FB81FB790B4A32F833309BB2002B01
:1053F0000AD0FB79074ADB0013445B889BB218464E
:1054000000F0F8F90346FB81FB8918461037BD46CA
:1054100080BD00BFC885FF1F80B582B000AF0346C6
:10542000FB71054AFB7919461046FFF73EFD00BFA8
:105430000837BD4680BD00BF0000044080B582B083
:1054400000AF0346FB71FB7903491846FFF74AFF9B
:1054500000BF0837BD4680BDA086010080B584B07E
:1054600000AF7860084BFB607B689B781946F86852
:10547000FFF724FC7B68DB781946F868FFF73BFCF4
:1054800000BF1037BD4680BD0000044080B584B029
:1054900000AF0346FB710023FB600C4BFB600C4B21
:1054A0001846FFF775FC02E0FB68013BFB60084B08
:1054B0001846FFF77DFC0346012B02D1FB68002B49
:1054C000F2D100BF1037BD4680BD00BFA0860100ED
:1054D0000000044080B582B000AF0346FB71094B69
:1054E0001846FFF786FC0346002B07D1FB791846C8
:1054F000FFF74EFF034B1846FFF76BFC00BF083762
:10550000BD4680BD0000044080B582B000AF0346B8
:10551000FB71064B1846FFF77DFC044B0021184633
:10552000FFF785FC00BF0837BD4680BD0000044082
:1055300080B582B000AF0346FB71FB791846FFF7D8
:10554000A5FFFB791846FFF723FFFB7905491846AD
:10555000FFF7A8FE044B1846FFF75DFD00BF0837B4
:10556000BD4680BDA08601000000044080B584B027
:1055700000AF0346FB710023FB73054B1846FFF792
:10558000D2FC0346FB73FB7B18461037BD4680BD3B
:105590000000044080B582B000AF0346FB71044BAD
:1055A0001846FFF7F4FC00BF0837BD4680BD00BFBA
:1055B0000000044080B586B000AFBA601A460346CA
:1055C000FB730B46BB811346FB800023BB82012388
:1055D000FB75234B1846FFF7E7FC0023BB7535E04E
:1055E0001F4B1846FFF7E0FC0346BB821D4B1B68B0
:1055F0009968BA8913465B0013449B000B445B68AF
:105600001B7C012B19D1174B1B689968BA8913466B
:105610005B0013449B000B445B6893F82030032B22
:105620000BD0BA8ABB8911461846FFF72DFD0346F9
:10563000002B02D10023FB7505E0BB7D5B00BA683F
:105640001344BA8A1A80BB7D0133BB75BB7D9BB204
:10565000FA889A42C4D8FB7D18461837BD4680BDEB
:1056600000000440849CFF1F80B586B000AF034655
:105670000A46FB711346BB805B4BFB600023FB7249
:1056800000237B61FB791846FFF700FF574B1B682F
:105690009968BA8813465B0013449B000B445B680F
:1056A00093F827301946F868FFF73FFB4F4B1B680C
:1056B0009968BA8813465B0013449B000B449B68AF
:1056C000DB681B790133FB72484B1B689968BA8809
:1056D00013465B0013449B000B449B68DA68BB884D
:1056E0001179434A1B0113440C330A461A703F4B8D
:1056F0001B689968BA8813465B0013449B000B44EF
:105700005B6893F826301B0203F44072FB7A013B7E
:105710001B0603F0E06313437B61344B1B689968FD
:10572000BA8813465B0013449B000B449B68DB78EC
:10573000DB0203F400637A6913437B617969F868DB
:10574000FFF73FFC294B1B689968BA8813465B003A
:1057500013449B000B449B68DB681B681B789BB25F
:105760001A460021F868FFF7FAFA0123FB7418E0E3
:105770001E4B1B689968BA8813465B0013449B0054
:105780000B449B68DB681A68FB7C013B13441B7865
:105790009AB2FB7C1946F868FFF7E1FAFB7C01330B
:1057A000FB74FA7CFB7A9A42E2D3F868FFF717FCA5
:1057B00000237B610D4B1B689968BA8813465B0018
:1057C00013449B000B449B681B7C012B03D17B691A
:1057D00043F008037B617969F868FFF70EFC00BFAE
:1057E0001837BD4680BD00BF00000440849CFF1FE9
:1057F0006885FF1F80B485B000AF0346FB8000239F
:10580000FB8100237B7312E0144B1B6899687A7B41
:1058100013465B0013449B000B441B88FA889A4292
:1058200002D17B7BFB8108E07B7B01337B730B4BDD
:105830001B685B787A7B9A42E6D3084B1B685B78DF
:105840007A7B9A4203D3054B1B685B78FB81FB890B
:1058500018461437BD465DF8047B7047849CFF1FD3
:1058600080B483B000AF0346FB80FB88324A1B0143
:1058700013441B78032B44D0032B55DC002B05D09D
:10588000002B51DB013B012B4ED807E0FB882A4A55
:105890001B0113440A3300221A7046E0FB88264A93
:1058A0001B0113440A331978244B1B689868FA8843
:1058B00013465B0013449B0003449B685B7A994248
:1058C00018D3FB881C4A1B01134403221A701B4B7C
:1058D0001B689968FA8813465B0013449B000B44CD
:1058E0009A68FB88517A144A1B0113440A330A460A
:1058F0001A701AE0FB88104A1B01134402221A7026
:1059000013E00E4B1B689968FA8813465B0013443A
:105910009B000B449A68FB88517A074A1B01134489
:105920000A330A461A7000E000BF00BF0C37BD46BC
:105930005DF8047B704700BF6885FF1F849CFF1FD4
:1059400090B585B000AF03460A46FB711346BB8095
:105950000123FB73BB88334A1B0113441B78032BC1
:105960005BD1FDF72BF9304B1B689968BA88134659
:105970005B0013449B000B449B68DB78002B4AD1EF
:10598000FB792A4A32F833309BB2012B3CD9FB79A0
:10599000264A32F833309AB2FB79013A91B2234A5F
:1059A00022F833100023BB7315E0F879BB7B013379
:1059B000F979BA7B1D4C800003445B0023445B886B
:1059C0009CB21A488B0013445B00034422465A8061
:1059D000BB7B0133BB73BB7B9AB2FB79134931F8B4
:1059E00033309BB29A42E0D3FB79FA790F4931F810
:1059F000322092B211460D4A9B000B445B001344C7
:105A00004FF6FF725A8004E0FB79084A002122F821
:105A100033100023FB73FDF7F5F8FB7B18461437B2
:105A2000BD4690BD6885FF1F849CFF1FC885FF1F72
:105A3000B0B586B002AF0346FB710023FB81FB7952
:105A40001846FFF7C7FC0346FB81FB791846FFF7B2
:105A50008DFD0346012B40F0FB80FB894FF6FF7262
:105A6000934200F0F580FB791846FFF793FD7D4BDC
:105A70001B689968FA8913465B0013449B000B442A
:105A80009B68DB681B797B73FB89774A1B01134496
:105A90000A331B787A7B12FB03F3DAB2FB89724973
:105AA0001B010B440B331B7813443B730123FB7224
:105AB000FB896D4A1B01134404331A683B7B5B006E
:105AC000D418FB89684A1B0113440C331B789DB220
:105AD000644B1B689968FA8913465B0013449B006A
:105AE0000B445B6893F82630F989F87900932B46CC
:105AF0002246FFF75FFD0346FB72FB7A002B23D1A2
:105B0000FB89594A1B0113440B331B781946FB8947
:105B1000554A1B0113440C331B781944514B1B6825
:105B20009868FA8913465B0013449B0003449B6802
:105B3000DB681B7999424ADBFB894B4A1B01134402
:105B40000C3300221A7042E0FB89474A1B011344C0
:105B50000B331978FB89444A1B0113440C331A7820
:105B6000FB890A44D1B2404A1B0113440B330A4655
:105B70001A70FB893C4A1B0113440B331978394BCB
:105B80001B689868FA8913465B0013449B00034422
:105B90009B68DB681B79994219D3FB89324A1B0148
