:10000000008000209D040000BB080000C70800001D
:10001000D3080000DF080000EB080000B50800006E
:10002000B5080000B5080000B5080000F70800009A
:1000300003090000B50800000F0900001B090000BB
:1000400027090000330900003F0900004B090000A8
:1000500057090000630900006F0900007B090000D8
:1000600087090000930900009F090000AB09000008
:10007000B7090000C3090000CF090000DB09000038
:10008000E7090000F3090000FF0900000B0A000067
:10009000170A0000230A00002F0A0000B50800001C
:1000A0003B0A0000470A0000618300006F830000E4
:1000B0007D830000530A0000B50800005F0A0000BD
:1000C000B5080000F5480000B50800006B0A000004
:1000D000B5080000B5080000B5080000F9300000C0
:1000E000B5080000770A0000B5080000B508000058
:1000F000830A00008F0A00009B0A0000A70A000084
:10010000B30A0000BF0A0000CB0A0000D70A0000B3
:10011000E30A0000B5080000B5080000B5080000BB
:10012000B5080000EF0A0000FB0A0000070B000002
:10013000130B00001F0B00002B0B0000370B0000FF
:10014000B5080000B5080000B5080000B5080000BB
:10015000B5080000B5080000B5080000B5080000AB
:10016000B5080000B5080000B5080000B50800009B
:10017000B5080000B5080000430B00004F0B00005D
:100180005B0B0000670B0000730B00007F0B00008F
:100190008B0B0000970B0000A30B0000AF0B0000BF
:1001A000BB0B0000C70B0000B5080000B50800003D
:1001B000D30B0000DF0B0000EB0B0000F70B00007F
:1001C000030C0000B5080000B50800000F0C00008B
:1001D0001B0C0000270C0000330C00003F0C00003B
:1001E0004B0C0000570C0000630C00006F0C00006B
:1001F0007B0C0000870C0000930C00009F0C00009B
:10020000AB0C0000B70C0000C30C0000CF0C0000CA
:10021000DB0C0000E70C0000F30C0000FF0C0000FA
:100220000B0D0000170D0000230D0000B5080000A5
:10023000B5080000B5080000B5080000B5080000CA
:10024000B5080000B5080000B5080000B5080000BA
:10025000B5080000B5080000B5080000B5080000AA
:10026000B5080000B5080000B5080000B50800009A
:10027000B5080000B5080000B5080000B50800008A
:10028000B5080000B5080000B5080000B50800007A
:10029000B5080000B5080000B5080000B50800006A
:1002A000B5080000B5080000B5080000B50800005A
:1002B0002F0D00003B0D0000B5080000470D0000A9
:1002C000530D00005F0D00006B0D0000B50800002D
:1002D000B5080000B5080000B5080000B50800002A
:1002E0008B830000B5080000B5080000B5080000C9
:1002F000B5080000B5080000B5080000B50800000A
:10030000B5080000B5080000B5080000B5080000F9
:10031000770D0000B5080000B5080000B508000022
:10032000B5080000B5080000B5080000B5080000D9
:0C033000B5080000B5080000830D0000B7
:100400004487FF1F1CAA00001CAA00000100000076
:100410004487FF1F20AA0000C8AA000001000000B6
:100420000084FF1F4487FF1F0100000014490C686F
:100430004FF001031C401349134A521A013A06DDDA
:100440004FF05A304FF05A3309C1083AFCDA0F49DD
:100450000F4A521A013A06DD4FF05A304FF05A3324
:1004600009C1083AFCDA0B490B4A521A013A06DD77
:100470004FF05A304FF05A3309C1083AFCDA70474E
:1004800000F007400080FF1F0084FF1F007C002059
:10049000008000200084FF1F007C002072B64FF017
:1004A00000014FF000024FF000034FF000044FF046
:1004B00000054FF000064FF00007B846B946BA46AF
:1004C000BB46BC46FFF7B2FF064885460648804754
:1004D00006488047064880470648804762B600F0D5
:1004E00013F8FEE700800020250600004D080000FC
:1004F000910D00003D08000080B400AF00BFBD4674
:100500005DF8047B7047000080B582B000AF002327
:10051000BB710023FB712B4800F0FCFE002000F0B3
:1005200023FF00BF00F0CEFE0346002BFAD100F0FF
:10053000ADFE00F04FF80023FB7106E0FB79224985
:10054000FA79CA54FB790133FB7197F90730002B14
:10055000F4DA0023FB7106E0FB791C49FA79CA54EE
:10056000FB790133FB71FB79132BF5D90A23184A68
:100570001549002007F02CFA062003F0C7FE0346B9
:10058000BB71BB79012B03D10121022003F01DFFB8
:10059000002140F2034003F018FF002007F0DAF9D1
:1005A000002006F05DFD01E007F028F9012006F0CB
:1005B00065FF0346002BF7D1012140F2034003F011
:1005C00004FFD9E7F89800000084FF1F0085FF1F93
:1005D0008084FF1F80B500AF054804F0F3FE0020C3
:1005E00005F05AFE034806F0C9FF00BF80BD00BFFA
:1005F0008C9D000044A0000080B483B000AF0023B5
:10060000FB71074B1B6803F00103012B01D1012390
:10061000FB71FB7918460C37BD465DF8047B7047CB
:1006200000F0074080B58AB000AFFFF7E5FF034652
:10063000FB7700233B600023BB6100237B62002328
:100640003B6202233B6000237B6272E0794A7B6A53
:100650001B0113440C331B78022B02D1FB7F012BAF
:1006600063D1744A7B6A1B0113440C331B78002B43
:100670005BD0704A7B6A1B01134404331B68FB6028
:100680006C4A7B6A1B0113441B687B61694A7B6A65
:100690001B01134408331B681946664A7B6A1B0119
:1006A000134404331B68CB1ABB61BB69DBB203F094
:1006B0000303DBB2FB71FB79DBB21A46BB699B1A01
:1006C0009B08BB6100233B620CE03B6A9B00FA681D
:1006D0001A443B6A9B0079690B4412681A603B6AB2
:1006E00001333B623A6ABB699A42EED33B6A9B0094
:1006F000FA681344BB603B6A9B007A6913443B6110
:1007000000233B620AE0BA683B6A1A4439693B6AD3
:100710000B4412781A703B6A01333B62FB79DBB2FF
:100720001A463B6A9342EED300E000BF7B6A013376
:100730007B623B687A6A9A4288D301233B6000233C
:100740007B626DE03C497A6A13465B0013449B0070
:100750000B4408331B78022B02D1FB7F012B5BD1AA
:1007600035497A6A13465B0013449B000B440833F7
:100770001B78002B50D030497A6A13465B00134433
:100780009B000B441B687B612B497A6A13465B0014
:1007900013449B000B4404331B68184626497A6AAD
:1007A00013465B0013449B000B441B68C31ABB61D8
:1007B000BB69DBB203F00303DBB2FB71FB79DBB295
:1007C0001A46BB699B1A9B08BB6100233B6208E089
:1007D0003B6A9B007A69134400221A603B6A01332A
:1007E0003B623A6ABB699A42F2D33B6A9B007A69E0
:1007F00013443B6100233B6207E03A693B6A1344C0
:1008000000221A703B6A01333B62FB79DBB21A4665
:100810003B6A9342F1D300E000BF7B6A01337B6205
:100820003B687A6A9A428DD300BF00BF2837BD4625
:1008300080BD00BF000400002004000080B400AFB1
:1008400000BFBD465DF8047B7047000080B586B0F0
:1008500000AF05F049FC0346FB74124BFB60124BE2
:10086000BB60124A104BD31A9B087B6000237B614C
:100870000CE07B699B00BA681A447B699B00F968AD
:100880000B4412681A607B6901337B617A697B686B
:100890009A42EED3064B034A1A6000BF1837BD4692
:1008A00080BD00BF0080FF1F000000003C0300006F
:1008B00008ED00E080B400AFFEE780B500AFFFF7C1
:1008C000F9FF00BF80BD80B500AFFFF7F3FF00BFA9
:1008D00080BD80B500AFFFF7EDFF00BF80BD80B5E4
:1008E00000AFFFF7E7FF00BF80BD80B500AFFFF7A7
:1008F000E1FF00BF80BD80B500AFFFF7DBFF00BFA9
:1009000080BD80B500AFFFF7D5FF00BF80BD80B5CB
:1009100000AFFFF7CFFF00BF80BD80B500AFFFF78E
:10092000C9FF00BF80BD80B500AFFFF7C3FF00BFA8
:1009300080BD80B500AFFFF7BDFF00BF80BD80B5B3
:1009400000AFFFF7B7FF00BF80BD80B500AFFFF776
:10095000B1FF00BF80BD80B500AFFFF7ABFF00BFA8
:1009600080BD80B500AFFFF7A5FF00BF80BD80B59B
:1009700000AFFFF79FFF00BF80BD80B500AFFFF75E
:1009800099FF00BF80BD80B500AFFFF793FF00BFA8
:1009900080BD80B500AFFFF78DFF00BF80BD80B583
:1009A00000AFFFF787FF00BF80BD80B500AFFFF746
:1009B00081FF00BF80BD80B500AFFFF77BFF00BFA8
:1009C00080BD80B500AFFFF775FF00BF80BD80B56B
:1009D00000AFFFF76FFF00BF80BD80B500AFFFF72E
:1009E00069FF00BF80BD80B500AFFFF763FF00BFA8
:1009F00080BD80B500AFFFF75DFF00BF80BD80B553
:100A000000AFFFF757FF00BF80BD80B500AFFFF715
:100A100051FF00BF80BD80B500AFFFF74BFF00BFA7
:100A200080BD80B500AFFFF745FF00BF80BD80B53A
:100A300000AFFFF73FFF00BF80BD80B500AFFFF7FD
:100A400039FF00BF80BD80B500AFFFF733FF00BFA7
:100A500080BD80B500AFFFF72DFF00BF80BD80B522
:100A600000AFFFF727FF00BF80BD80B500AFFFF7E5
:100A700021FF00BF80BD80B500AFFFF71BFF00BFA7
:100A800080BD80B500AFFFF715FF00BF80BD80B50A
:100A900000AFFFF70FFF00BF80BD80B500AFFFF7CD
:100AA00009FF00BF80BD80B500AFFFF703FF00BFA7
:100AB00080BD80B500AFFFF7FDFE00BF80BD80B5F3
:100AC00000AFFFF7F7FE00BF80BD80B500AFFFF7B6
:100AD000F1FE00BF80BD80B500AFFFF7EBFE00BFA9
:100AE00080BD80B500AFFFF7E5FE00BF80BD80B5DB
:100AF00000AFFFF7DFFE00BF80BD80B500AFFFF79E
:100B0000D9FE00BF80BD80B500AFFFF7D3FE00BFA8
:100B100080BD80B500AFFFF7CDFE00BF80BD80B5C2
:100B200000AFFFF7C7FE00BF80BD80B500AFFFF785
:100B3000C1FE00BF80BD80B500AFFFF7BBFE00BFA8
:100B400080BD80B500AFFFF7B5FE00BF80BD80B5AA
:100B500000AFFFF7AFFE00BF80BD80B500AFFFF76D
:100B6000A9FE00BF80BD80B500AFFFF7A3FE00BFA8
:100B700080BD80B500AFFFF79DFE00BF80BD80B592
:100B800000AFFFF797FE00BF80BD80B500AFFFF755
:100B900091FE00BF80BD80B500AFFFF78BFE00BFA8
:100BA00080BD80B500AFFFF785FE00BF80BD80B57A
:100BB00000AFFFF77FFE00BF80BD80B500AFFFF73D
:100BC00079FE00BF80BD80B500AFFFF773FE00BFA8
:100BD00080BD80B500AFFFF76DFE00BF80BD80B562
:100BE00000AFFFF767FE00BF80BD80B500AFFFF725
:100BF00061FE00BF80BD80B500AFFFF75BFE00BFA8
:100C000080BD80B500AFFFF755FE00BF80BD80B549
:100C100000AFFFF74FFE00BF80BD80B500AFFFF70C
:100C200049FE00BF80BD80B500AFFFF743FE00BFA7
:100C300080BD80B500AFFFF73DFE00BF80BD80B531
:100C400000AFFFF737FE00BF80BD80B500AFFFF7F4
:100C500031FE00BF80BD80B500AFFFF72BFE00BFA7
:100C600080BD80B500AFFFF725FE00BF80BD80B519
:100C700000AFFFF71FFE00BF80BD80B500AFFFF7DC
:100C800019FE00BF80BD80B500AFFFF713FE00BFA7
:100C900080BD80B500AFFFF70DFE00BF80BD80B501
:100CA00000AFFFF707FE00BF80BD80B500AFFFF7C4
:100CB00001FE00BF80BD80B500AFFFF7FBFD00BFA8
:100CC00080BD80B500AFFFF7F5FD00BF80BD80B5EA
:100CD00000AFFFF7EFFD00BF80BD80B500AFFFF7AD
:100CE000E9FD00BF80BD80B500AFFFF7E3FD00BFA9
:100CF00080BD80B500AFFFF7DDFD00BF80BD80B5D2
:100D000000AFFFF7D7FD00BF80BD80B500AFFFF794
:100D1000D1FD00BF80BD80B500AFFFF7CBFD00BFA8
:100D200080BD80B500AFFFF7C5FD00BF80BD80B5B9
:100D300000AFFFF7BFFD00BF80BD80B500AFFFF77C
:100D4000B9FD00BF80BD80B500AFFFF7B3FD00BFA8
:100D500080BD80B500AFFFF7ADFD00BF80BD80B5A1
:100D600000AFFFF7A7FD00BF80BD80B500AFFFF764
:100D7000A1FD00BF80BD80B500AFFFF79BFD00BFA8
:100D800080BD80B500AFFFF795FD00BF80BD0000BE
:100D900080B500AF104BD3F888300F4A43F470038E
:100DA000C2F888300D4B1B680C4A43F08023136057
:100DB0000B4B4BF231621A60094B4CF278221A60ED
:100DC000074B5B68064A23F001035360054805F0B2
:100DD00083FB00BF80BD00BF00ED00E000000140CC
:100DE00000A00640709F000080B483B000AF786020
:100DF00000BF0C37BD465DF8047B704780B582B0FC
:100E000000AF78607868FFF7EFFF00BF0837BD4696
:100E100080BD000090B482B000AF04460846114681
:100E20001A462346FB8003467B710B463B711346F3
:100E3000FB700C4AFB8813800B4A3B7913700B4AFA
:100E40007B7913700A4AFB7813700A4B1B880133B5
:100E50009AB2084B1A80002318460837BD4690BC4A
:100E6000704700BF1485FF1F1685FF1F1785FF1FE2
:100E70001885FF1F1A85FF1F90B482B000AF04468B
:100E8000084611461A462346FB8003467B710B46F3
:100E90003B711346FB700C4AFB8813800B4A3B796D
:100EA00013700B4A7B7913700A4AFB7813700A4B54
:100EB0001B8801339AB2084B1A8000231846083762
:100EC000BD4690BC704700BF1485FF1F1685FF1FED
:100ED0001785FF1F1885FF1F1A85FF1F80B483B079
:100EE00000AF03463960FB71002318460C37BD463E
:100EF0005DF8047B704780B483B000AF034639606F
:100F0000FB7100BF0C37BD465DF8047B704780B4B1
:100F100083B000AF0346FB7100BF0C37BD465DF8E0
:100F2000047B704780B483B000AF03460A46FB7170
:100F30001346BB7100BF0C37BD465DF8047B70479C
:100F400080B483B000AF0346FB80B7F90630002BB6
:100F50000BDBFB8803F01F020749B7F906305B097A
:100F6000012000FA02F241F8232000BF0C37BD46F1
:100F70005DF8047B704700BF00E100E080B483B0FF
:100F800000AF0346FB80B7F90630002B12DBFB886D
:100F900003F01F020A49B7F906305B09012000FA85
:100FA00002F2203341F82320BFF34F8F00BFBFF37D
:100FB0006F8F00BF00BF0C37BD465DF8047B7047E4
:100FC00000E100E080B483B000AF0346FB80B7F9D6
:100FD0000630002B0CDBFB8803F01F020749B7F932
:100FE00006305B09012000FA02F2603341F8232049
:100FF00000BF0C37BD465DF8047B704700E100E0A0
:1010000080B483B000AF03463960FB80B7F9063087
:10101000002B0ADB3B68DAB20C49B7F90630520103
:10102000D2B20B4483F800230AE03B68DAB20849E5
:10103000FB8803F00F03043B5201D2B20B441A7633
:1010400000BF0C37BD465DF8047B704700E100E04F
:1010500000ED00E080B483B000AF0346FB80B7F939
:101060000630002B09DB0D4AB7F90630134493F81C
:101070000033DBB25B09DBB209E0094AFB8803F00D
:101080000F03043B13441B7EDBB25B09DBB2184643
:101090000C37BD465DF8047B704700BF00E100E0FF
:1010A00000ED00E080B483B000AF0346FB71FB7934
:1010B000002B01D100BEFDE700BF0C37BD465DF837
:1010C000047B704780B483B000AF0346FB71FB79AB
:1010D000002B01D100BEFDE700BF0C37BD465DF817
:1010E000047B704780B483B000AF7860BFF35F8F3C
:1010F00000BF0B4A7B6843F001035360094B5B6AF6
:10110000084A43F480335362BFF34F8F00BFBFF3ED
:101110006F8F00BF00BF0C37BD465DF8047B704782
:1011200090ED00E000ED00E080B400AFBFF35F8F12
:1011300000BF0B4B5B6A0A4A23F480335362094BAE
:101140005B68084A23F001035360BFF34F8F00BF71
:10115000BFF36F8F00BF00BFBD465DF8047B7047D3
:1011600000ED00E090ED00E080B487B000AF786063
:101170000B46FB701346BB70FB789B08FB75FB7836
:1011800003F00303DB003B61FF223B6902FA03F338
:10119000FB60FB7D012B16D8FA7D7B680C3253F87F
:1011A0002220FB68DB4302EA0301BA783B6902FABA
:1011B00003F31A46FB681340FA7D19437B680C322F
:1011C00043F8221000E000BF1C37BD465DF8047BE9
:1011D0007047000080B582B000AF03460A46FB713D
:1011E0001346BB71BA79FB7919460348FFF7BCFF78
:1011F00000BF0837BD4680BD90ED00E080B483B0ED
:1012000000AF786039607B683A689A607B6800223A
:101210001A6100BF0C37BD465DF8047B70470000C3
:1012200080B582B000AF786079680348FFF7E6FFC9
:1012300000BF0837BD4680BD90ED00E080B485B0AA
:1012400000AFF860B9607A603B60FB68BA689A608A
:10125000FB687A68DA60FB683A681A6100BF143785
:10126000BD465DF8047B704780B584B000AFF86080
:10127000B9607A607B68BA68F9680348FFF7DEFFF7
:1012800000BF1037BD4680BD90ED00E080B582B054
:1012900000AF0023FB7100F005FD0346002B02D0D8
:1012A0000123FB7106E0064B1B68184600F012FE96
:1012B0000346FB71FB7918460837BD4680BD00BF69
:1012C0005487FF1F80B582B000AF0223FB71064B2D
:1012D0001B78002B03D000F0E5FC0346FB71FB7983
:1012E00018460837BD4680BD5C87FF1F80B582B0B9
:1012F00000AF0A23FB71064B1B78002B03D000F0D4
:10130000DFFE0346FB71FB7918460837BD4680BDFA
:101310005C87FF1F80B582B000AF7860104B002261
:101320001A70104A7B6813600E4B1B681B68002BF9
:1013300003D10C4B00221A600EE00A4B1B68DB68DD
:10134000184600F0EBFC074B1B68DB69184600F001
:10135000B4FF034B01221A7000BF0837BD4680BDA1
:101360005C87FF1F5887FF1F80B584B000AF03461E
:10137000FB710023FB73154B1B78002B02D101235B
:10138000FB731DE0124B1B681B79FA799A4202D35A
:101390000123FB7314E00F4AFB7913700C4B1B689D
:1013A0001968FA791346DB009B1ADB000B440A4AE2
:1013B0001360094B1B68184600F012FE0346FB73CE
:1013C000FB7B18461037BD4680BD00BF5C87FF1F02
:1013D0005887FF1F5D87FF1F5487FF1F80B584B0AC
:1013E00000AF0346FB710023BB600123FB73124B6C
:1013F0001B78002B02D10123FB7317E00F4B1B68F6
:101400001B7EFA799A4202D30123FB730EE00B4B49
:101410001B689968FA7913465B0013449B000B44E0
:10142000BB60B86800F0A2FC0023FB73FB7B18468E
:101430001037BD4680BD00BF5C87FF1F5887FF1F68
:1014400080B582B000AF78600E4B1B78002B14D0B3
:101450000D4B1B681B7C1A467B6893420DD200F033
:1014600080FF094B1B685B691A687B6813441B7813
:10147000184600F09FFC00F097FF00BF0837BD46FC
:1014800080BD00BF5C87FF1F5887FF1F80B582B0FB
:1014900000AF4FF0FF337B6000F0FCFD78607B68AD
:1014A00018460837BD4680BD80B582B000AF002326
:1014B0007B600E4B1B78FF2B12D00D4B1B681A68FC
:1014C0000A4B1B7819460B46DB005B1ADB00134402
:1014D000084A1360074B1B68184600F0AAFE7860A4
:1014E0007B6818460837BD4680BD00BF5D87FF1F7B
:1014F0005887FF1F5487FF1F80B400AF054B1B6840
:10150000044A23F00F03136000BFBD465DF8047B5F
:10151000704700BF40C0074080B485B000AF78601E
:101520000123FB607B681B79012B03D1FB6843F02F
:101530000203FB60064B1B6823F003020449FB68AF
:1015400013430B6000BF1437BD465DF8047B704742
:1015500010C0074080B400AF054B1B68044A23F05D
:101560000103136000BFBD465DF8047B704700BFF8
:1015700010C0074080B400AF054B1B68044A23F03D
:101580000103136000BFBD465DF8047B704700BFD8
:1015900018C0074080B483B000AF786039600C4B4E
:1015A0001B6823F47F0323F470637A68120402F447
:1015B0007F013A68120202F470620A43044913433D
:1015C0000B6000BF0C37BD465DF8047B704700BF61
:1015D0000000014080B400AF054B1B68044A23F0B3
:1015E0000703136000BFBD465DF8047B704700BF72
:1015F0002CC0074080B483B000AF0346FB71084B9A
:101600001B6823F00302FB7903F00303044913432F
:101610000B6000BF0C37BD465DF8047B704700BF10
:1016200000C0074080B400AF044B1B6803F0030305
:101630001846BD465DF8047B704700BF08C00740F0
:1016400080B400AF034B00221A6000BFBD465DF8B6
:10165000047B704720C0074080B483B000AF064BC6
:101660001B6803F003037B607B68DBB218460C3712
:10167000BD465DF8047B704708C0074080B400AFEA
:10168000054B1B681B0C03F03F0301331846BD4696
:101690005DF8047B704700BF20C0074080B485B070
:1016A00000AFF860B9607A600D4B1B6823F00F1330
:1016B00023F47063FA68120402F47021BA6812020B
:1016C00002F4706211437A6802F00F020A4304497F
:1016D00013430B6000BF1437BD465DF8047B7047B1
:1016E00004C0074080B400AF034B1B681846BD46DA
:1016F0005DF8047B704700BF0CC0074080B483B026
:1017000000AF074B1B681B0903F001037B607B687C
:10171000DBB218460C37BD465DF8047B704700BF4E
:1017200020C0074080B400AF054B1B681B0A03F0C4
:101730000F0301331846BD465DF8047B704700BFB8
:1017400020C0074080B400AF054B1B681B0C03F0A2
:101750000F0301331846BD465DF8047B704700BF98
:1017600004C0074080B485B000AF78607B68002B70
:1017700034D07B681B79012B04D10123FB6000234B
:10178000BB6003E00023FB600123BB60164B1B68BA
:1017900023F4FE4323F01003BA68120102F0100193
:1017A000FA68920302F4804211437A685279120275
:1017B00002F470621143FA68520302F400521143BA
:1017C000BA68120302F480520A43074913430B60BC
:1017D000054B1B68044A43F00103136000BF143734
:1017E000BD465DF8047B704718C0074080B483B0E5
:1017F00000AF0346FB71084B1B6823F47062FB7952
:101800001B0203F47063044913430B6000BF0C37E1
:10181000BD465DF8047B704718C0074080B483B0B4
:1018200000AF78607B68002B1FD0134B1B6823F43C
:101830007C1323F471637A681278120102F01001AC
:101840007A689278120402F47C1211437A68527812
:10185000120202F470620A43074913430B60064BFD
:101860001B68054A43F00103136000BF0C37BD46F7
:101870005DF8047B704700BF20C0074080B483B090
:1018800000AF78607B68002B11D00C4B1B6823F4F1
:101890007F4323F007037A685278120291B27A6884
:1018A000127802F007020A43044913430B6000BF99
:1018B0000C37BD465DF8047B704700BF2CC0074065
:1018C00080B487B000AF78600B46FB7000237B616B
:1018D0000023FB607B68002B65D0FB78042B62D86B
:1018E0007B687B610023FB7456E007F10C031968E9
:1018F0007B691B781A467B691B7C9A4007F10C03B5
:101900000A431A6007F10C0319687B699B781A4631
:101910007B691B7C08339A4007F10C030A431A6069
:101920007B695B78012B0BD107F10C0319687B698C
:101930001B7C103301229A4007F10C030A431A6002
:101940007B691B7C1A461B4B1344DB001B681B0C7A
:101950001B047A69D28811467A69127C1046154AAE
:101960000244D2000B4313607B691B7CDA00124BEC
:1019700013441B681B0C1B047A69928810467A6911
:10198000127CD1000C4A0A44034313607B69143370
:101990007B61FB7C0133FB74FA7CFB789A42A4D315
:1019A000064AFB68136000BF1C37BD465DF8047B28
:1019B000704700BF09F800084CC0074040C007400E
:1019C00080B483B000AF7860044B1A687B68134022
:1019D00018460C37BD465DF8047B704708C00740C9
:1019E00080B485B000AF78600023FB727B689B7980
:1019F000012B1FD10023FB607B689B681B79012BA7
:101A000003D1FB6843F00203FB607B689B689B7912
:101A1000012B03D1FB6843F00803FB607B689B68E4
:101A20005B79012B03D1FB6843F00403FB60054A9B
:101A3000FB681360FB7A18461437BD465DF8047BDB
:101A4000704700BF14C0074080B586B000AF786013
:101A50000023FB757B681B7B012B2AD17B685B7B9A
:101A6000012B24D100233B610023FB607B681B69B1
:101A70001846FFF751FD0420FFF7A2FFF86006E0CB
:101A80000420FFF79DFFF8603B6901333B61FB6871
:101A9000042B04D03B694CF24F329342F0D93B699E
:101AA0004CF24F32934204D90123FB7501E0FFF75A
:101AB00051FDFB7D18461837BD4680BD80B584B00A
:101AC00000AF78600023FB737B681B7F012B0AD17A
:101AD000FFF7B6FD7B685B7F012B04D17B681B6A37
:101AE0001846FFF79BFEFB7B18461037BD4680BDAE
:101AF00080B586B000AF78600023FB757B681B7DE6
:101B0000012B4AD17B685B7D012B44D100233B61D3
:101B10000023FB600123FB720F237B720123BB7246
:101B20007B689B691846FFF71DFE0820FFF748FFFA
:101B3000F8601AE00820FFF743FFF860FB7A1846C8
:101B4000FFF754FEBA7AFB7A1344FB72FB7A012B3F
:101B500002D10123BB7205E0FA7A7B7A9A4201D165
:101B6000FF23BB723B6901333B61FB68082B04D048
:101B70003B694CF24F329342DCD93B694CF24F3215
:101B8000934201D90123FB757B689B695B791846F9
:101B9000FFF72CFE01E0FFF7EDFCFB7D1846183740
:101BA000BD4680BD80B586B000AF78600023FB7570
:101BB00000233B610023FB607B685B7818467B68F1
:101BC0009B7819467B68DB781A46FFF767FDFFF7BD
:101BD00089FDF86005E0FFF785FDF8603B6901339A
:101BE0003B617B685B781B0403F470227B689B7805
:101BF0001B0203F470631A437B68DB7803F00F0366
:101C00001343FA689A4204D03B694CF24F32934234
:101C1000E1D93B694CF24F32934201D90123FB7564
:101C2000FB7D18461837BD4680BD80B586B000AF35
:101C30000346FB710023FB7500233B61FB79BB600E
:101C4000FB791846FFF7D6FCFFF7ECFCF86005E0DF
:101C5000FFF7E8FCF8603B6901333B61FA68BB6859
:101C60009A4204D03B694CF24F329342F0D93B691F
:101C70004CF24F32934201D90123FB75FB7D18468C
:101C80001837BD4680BD80B400AF054B1B68044AC1
:101C900043F00403136000BFBD465DF8047B70474A
:101CA00040C0074080B483B000AF00233B600A4BC4
:101CB0001B685B0903F001033B603B68002B02D00B
:101CC0000023FB7101E00123FB71FB7918460C37FF
:101CD000BD465DF8047B704708C0074080B483B000
:101CE00000AF0D4BDB687B607B689BB27B607B68E1
:101CF00043F0BF6343F400337B607B6843F004032D
:101D00007B60054A7B68D360BFF34F8F00BF0C3701
:101D1000BD465DF8047B704700ED00E080B483B001
:101D200000AF78607B68002B17D00F4B1B6823F047
:101D3000011323F47F437A68527802F001017A6834
:101D40001278120402F4803211437A6892781202F7
:101D500092B20A43044913430B6000BF0C37BD46DF
:101D60005DF8047B704700BF04F0074080B485B085
:101D700000AF78600023BB607B68002B14D07B68C9
:101D80001B68BB600023FB6009E07B68197ABA68B6
:101D9000FB6813440A461A60FB680133FB607B68EA
:101DA0005B68FA689A42F0D300BF1437BD465DF80D
:101DB000047B704780B584B000AF0346FB71414B94
:101DC0001B68404A23F000431360FB79002B06D1C7
:101DD0003D4B1B693C4A23F0020313616DE0FFF7A2
:101DE0008BFBFB79013B032B50D801A252F823F067
:101DF000671E0000011E00000F1E0000351E0000BF
:101E0000314B1B69304A23F0040313613FE02E4B32
:101E10001B692D4A43F0040313612A4B1B68294AAE
:101E200043F000431360294B1B68284A23F0030347
:101E300013602CE0234B1B68224A43F000431360DD
:101E4000214B1B69204A43F0040313611F4B1B689D
:101E50001E4A23F0020313601C4B1B681B4A43F00D
:101E60000103136013E0174B1B68164A43F000434D
:101E70001360154B1B69144A43F004031361134BA1
:101E80001B68124A43F00303136000E000BF104BCD
:101E90001B68FB600E4B00221A600B4B1B690A4A41
:101EA00023F00203136130BF094AFB681360064B3D
:101EB0001B69054A23F00403136100BF1037BD46B8
:101EC00080BD00BF0000014000ED00E00CE00740D5
:101ED00010E000E080B584B000AF78600023FB73B1
:101EE0007B681B781846FFF7A0FE0346FB73FB7B5D
:101EF000002B14D17B68DA6A7B6893F8303019467E
:101F00001046FFF7DDFCFFF765FB7B6893F8243094
:101F1000012B04D17B689B6A1846FFF7AFFCFB7B63
:101F200018461037BD4680BD80B485B000AF7860DC
:101F30007B68002B4BD07B685B68FB60FB68002BE9
:101F400045D00023FB723DE0FB681B7803F1805312
:101F500003F5FA339B001A68FB681B7803F1805382
:101F600003F5FA339B00194622F001030B60FB686E
:101F70001B7803F1805303F5FA339B001B68174A63
:101F80001A40FB689B781B0203F4E061FB68DB7876
:101F90001B0403F470231943FB685B7803F001030F
:101FA0001943FB681B7803F1805303F5FA339B0058
:101FB000184642EA01030360FB680433FB60FB7AC6
:101FC0000133FB727B681B78FA7A9A42BCD300BF5C
:101FD0001437BD465DF8047B704700BFFEF8F0FF84
:101FE00080B584B000AF78600123FB737B68002B61
:101FF0004BD0FFF781FA0320FFF717FE0346FB7370
:10200000FB7B002B35D17B685B6B1846FFF78CFFA1
:102010007868FFF7E5FC03461A46FB7B1343FB7326
:102020007868FFF711FD03461A46FB7B1343FB73E9
:102030007868FFF75DFD03461A46FB7B1343FB738D
:102040007868FFF73BFD03461A46FB7B1343FB739F
:102050007B681B791A467B685B7919461046FFF747
:1020600099FA7868FFF79EFD03461A46FB7B1343F7
:10207000FB73FB7B002B08D17B681B78012B04D002
:102080007868FFF727FF0346FB73FB7B1846103782
:10209000BD4680BD80B483B000AF074B1A68074BC4
:1020A00013407B60044B054A1A607B6818460C3766
:1020B000BD465DF8047B704700F0074003031F0036
:1020C00080B582B000AFFFF7E5FF38603B68002BBA
:1020D00003D1344B1B683B6002E0324A3B6813601B
:1020E0003B68B3F5801F3AD03B68B3F5801F51D8E9
:1020F0003B68B3F5002F35D03B68B3F5002F49D8C6
:102100003B68B3F5802F30D03B68B3F5802F41D8C2
:102110003B68B3F5003F2BD03B68B3F5003F39D89F
:102120003B68B3F5803F26D03B68B3F5803F31D89C
:102130003B68B3F5007F21D03B68B3F5007F29D819
:102140003B68B3F5807F1CD03B68B3F5807F21D816
:102150003B68012B1BD03B68022B15D01AE00023F3
:10216000FB711AE00123FB7117E00223FB7114E0FD
:102170000323FB7111E00423FB710EE00523FB71C7
:102180000BE00623FB7108E00723FB7105E0082341
:10219000FB7102E00923FB7100BFFB791846083789
:1021A000BD4680BD6087FF1F80B588B000AF7860F6
:1021B0000023FB610023FB750023BB6100233B610F
:1021C0000023FB600223BB60FFF76CFD0346002B7E
:1021D0002AD17B68002B27D0FFF790FA0346FB75C6
:1021E000FB7D002B02D0012B05D009E07B689B69A9
:1021F0001B68BB6107E07B681B691B68BB6102E071
:102200000023BB6100BFFFF739FA3861FFF78AFA94
:10221000F860BB693A6903FB02F2BB68F96801FB2D
:1022200003F3B2FBF3F3FB61FB6918462037BD46AD
:1022300080BD80B586B000AF78600023FB730023BB
:102240007B610023BB6000233B61FFF705FA034677
:10225000FB73FB7B032B1FD801A252F823F000BFB6
:10226000712200007B220000852200008F220000E6
:102270007B681B691B687B610FE07868FFF794FF40
:1022800078610AE07B689B691B687B6105E07B687D
:102290009B681B687B6100E000BF7B69002B07D057
:1022A000FFF750FAB8607A69BB68B2FBF3F33B61A1
:1022B0003B6918461837BD4680BD80B485B000AF75
:1022C00078607B68002B35D00023FB607B681B683F
:1022D0005B78DB0403F40023FB607B681B681B7ADC
:1022E000DB0203F40063FA681343FB607B681B683E
:1022F0001B7CDB0003F00803FA681343FB60104A01
:10230000FB6813607B681B681B78DB039BB2FB6078
:102310007B681B791B0203F48073FA681343FB602C
:102320007B685B79DB01DBB2FA681343FB60054A2B
:10233000FB68136000BF1437BD465DF8047B70472F
:1023400008E007400CE0074080B483B000AFEFF333
:1023500010837B607B6818460C37BD465DF8047BB4
:10236000704780B500AF0E4B1B68002B11D1FFF7F3
:10237000EBFF03460B4A13600A4B1B6803F0010393
:10238000002B01D1012300E00023002B01D072B605
:1023900000BF034B1B680133014A136000BF80BDBF
:1023A0001086FF1F0C86FF1F80B400AF0D4B1B680B
:1023B000013B0C4A13600C4B1B6803F00103002B1C
:1023C00001D1012300E00023002B05D0054B1B6841
:1023D000002B01D162B600BF00BFBD465DF8047B93
:1023E000704700BF1086FF1F0C86FF1F80B483B0AC
:1023F00000AFEFF310837B607B6818460C37BD4657
:102400005DF8047B704780B500AF0E4B1B68002B56
:1024100011D1FFF7EBFF03460B4A13600A4B1B6811
:1024200003F00103002B01D1012300E00023002B66
:1024300001D072B600BF034B1B680133014A136021
:1024400000BF80BD1886FF1F1486FF1F80B400AF39
:102450000D4B1B68013B0C4A13600C4B1B6803F0CF
:102460000103002B01D1012300E00023002B05D044
:10247000054B1B68002B01D162B600BF00BFBD46F3
:102480005DF8047B704700BF1886FF1F1486FF1F8E
:1024900080B500AF0E4B1B68002B11D1FFF7A6FFD4
:1024A00003460C4A13600B4B1B6803F00103002B1F
:1024B00001D1012300E00023002B01D072B600BF40
:1024C000034B1B680133024A136000BF80BD00BF8D
:1024D0002086FF1F1C86FF1F80B400AF0D4B1B68BA
:1024E000013B0C4A13600C4B1B6803F00103002BEB
:1024F00001D1012300E00023002B05D0054B1B6810
:10250000002B01D162B600BF00BFBD465DF8047B61
:10251000704700BF2086FF1F1C86FF1F80B500AFDD
:102520000E4B1B68002B11D1FFF760FF03460C4ACE
:1025300013600B4B1B6803F00103002B01D1012337
:1025400000E00023002B01D072B600BF034B1B68D4
:102550000133024A136000BF80BD00BF2886FF1F01
:102560002486FF1F80B400AF0D4B1B68013B0C4A53
:1025700013600C4B1B6803F00103002B01D10123F6
:1025800000E00023002B05D0054B1B68002B01D178
:1025900062B600BF00BFBD465DF8047B704700BF58
:1025A0002886FF1F2486FF1F80B500AF0E4B1B68D7
:1025B000002B11D1FFF71AFF03460C4A13600B4B97
:1025C0001B6803F00103002B01D1012300E000236D
:1025D000002B01D072B600BF034B1B680133024AC7
:1025E000136000BF80BD00BF3086FF1F2C86FF1F19
:1025F00080B400AF0D4B1B68013B0C4A13600C4BC1
:102600001B6803F00103002B01D1012300E000232C
:10261000002B05D0054B1B68002B01D162B600BF13
:1026200000BFBD465DF8047B704700BF3086FF1FCA
:102630002C86FF1F80B500AF0E4B1B68002B11D1FD
:10264000FFF7D4FE03460C4A13600B4B1B6803F0E4
:102650000103002B01D1012300E00023002B01D056
:1026600072B600BF034B1B680133024A136000BF00
:1026700080BD00BF3886FF1F3486FF1F80B400AFC7
:102680000D4B1B68013B0C4A13600C4B1B6803F09D
:102690000103002B01D1012300E00023002B05D012
:1026A000054B1B68002B01D162B600BF00BFBD46C1
:1026B0005DF8047B704700BF3886FF1F3486FF1F1C
:1026C00080B500AF0E4B1B68002B11D1FFF78EFEBB
:1026D00003460C4A13600B4B1B6803F00103002BED
:1026E00001D1012300E00023002B01D072B600BF0E
:1026F000034B1B680133024A136000BF80BD00BF5B
:102700004086FF1F3C86FF1F80B400AF0D4B1B6847
:10271000013B0C4A13600C4B1B6803F00103002BB8
:1027200001D1012300E00023002B05D0054B1B68DD
:10273000002B01D162B600BF00BFBD465DF8047B2F
:10274000704700BF4086FF1F3C86FF1F80B500AF6B
:102750000E4B1B68002B11D1FFF748FE03460C4AB5
:1027600013600B4B1B6803F00103002B01D1012305
:1027700000E00023002B01D072B600BF034B1B68A2
:102780000133024A136000BF80BD00BF4886FF1FAF
:102790004486FF1F80B400AF0D4B1B68013B0C4A01
:1027A00013600C4B1B6803F00103002B01D10123C4
:1027B00000E00023002B05D0054B1B68002B01D146
:1027C00062B600BF00BFBD465DF8047B704700BF26
:1027D0004886FF1F4486FF1F80B483B000AFEFF32D
:1027E00010837B607B6818460C37BD465DF8047B20
:1027F000704780B500AF0E4B1B68002B11D1FFF75F
:10280000EBFF03460B4A13600A4B1B6803F00103FE
:10281000002B01D1012300E00023002B01D072B670
:1028200000BF034B1B680133014A136000BF80BD2A
:102830005086FF1F4C86FF1F80B400AF0D4B1B68F6
:10284000013B0C4A13600C4B1B6803F00103002B87
:1028500001D1012300E00023002B05D0054B1B68AC
:10286000002B01D162B600BF00BFBD465DF8047BFE
:10287000704700BF5086FF1F4C86FF1F80B483B097
:1028800000AFEFF310837B607B6818460C37BD46C2
:102890005DF8047B704780B500AF0E4B1B68002BC2
:1028A00011D1FFF7EBFF03460B4A13600A4B1B687D
:1028B00003F00103002B01D1012300E00023002BD2
:1028C00001D072B600BF034B1B680133014A13608D
:1028D00000BF80BD5886FF1F5486FF1F80B400AF25
:1028E0000D4B1B68013B0C4A13600C4B1B6803F03B
:1028F0000103002B01D1012300E00023002B05D0B0
:10290000054B1B68002B01D162B600BF00BFBD465E
:102910005DF8047B704700BF5886FF1F5486FF1F79
:1029200080B500AF0E4B1B68002B11D1FFF7A6FF3F
:1029300003460C4A13600B4B1B6803F00103002B8A
:1029400001D1012300E00023002B01D072B600BFAB
:10295000034B1B680133024A136000BF80BD00BFF8
:102960006086FF1F5C86FF1F80B400AF0D4B1B68A5
:10297000013B0C4A13600C4B1B6803F00103002B56
:1029800001D1012300E00023002B05D0054B1B687B
:10299000002B01D162B600BF00BFBD465DF8047BCD
:1029A000704700BF6086FF1F5C86FF1F80B500AFC9
:1029B0000E4B1B68002B11D1FFF760FF03460C4A3A
:1029C00013600B4B1B6803F00103002B01D10123A3
:1029D00000E00023002B01D072B600BF034B1B6840
:1029E0000133024A136000BF80BD00BF6886FF1F2D
:1029F0006486FF1F80B400AF0D4B1B68013B0C4A7F
:102A000013600C4B1B6803F00103002B01D1012361
:102A100000E00023002B05D0054B1B68002B01D1E3
:102A200062B600BF00BFBD465DF8047B704700BFC3
:102A30006886FF1F6486FF1F80B500AF0E4B1B68C2
:102A4000002B11D1FFF71AFF03460C4A13600B4B02
:102A50001B6803F00103002B01D1012300E00023D8
:102A6000002B01D072B600BF034B1B680133024A32
:102A7000136000BF80BD00BF7086FF1F6C86FF1F04
:102A800080B400AF0D4B1B68013B0C4A13600C4B2C
:102A90001B6803F00103002B01D1012300E0002398
:102AA000002B05D0054B1B68002B01D162B600BF7F
:102AB00000BFBD465DF8047B704700BF7086FF1FF6
:102AC0006C86FF1F80B500AF0E4B1B68002B11D129
:102AD000FFF7D4FE03460C4A13600B4B1B6803F050
:102AE0000103002B01D1012300E00023002B01D0C2
:102AF00072B600BF034B1B680133024A136000BF6C
:102B000080BD00BF7886FF1F7486FF1F80B400AFB2
:102B10000D4B1B68013B0C4A13600C4B1B6803F008
:102B20000103002B01D1012300E00023002B05D07D
:102B3000054B1B68002B01D162B600BF00BFBD462C
:102B40005DF8047B704700BF7886FF1F7486FF1F07
:102B500080B500AF0E4B1B68002B11D1FFF78EFE26
:102B600003460C4A13600B4B1B6803F00103002B58
:102B700001D1012300E00023002B01D072B600BF79
:102B8000034B1B680133024A136000BF80BD00BFC6
:102B90008086FF1F7C86FF1F80B400AF0D4B1B6833
:102BA000013B0C4A13600C4B1B6803F00103002B24
:102BB00001D1012300E00023002B05D0054B1B6849
:102BC000002B01D162B600BF00BFBD465DF8047B9B
:102BD000704700BF8086FF1F7C86FF1F80B500AF57
:102BE0000E4B1B68002B11D1FFF748FE03460C4A21
:102BF00013600B4B1B6803F00103002B01D1012371
:102C000000E00023002B01D072B600BF034B1B680D
:102C10000133024A136000BF80BD00BF8886FF1FDA
:102C20008486FF1F80B400AF0D4B1B68013B0C4A2C
:102C300013600C4B1B6803F00103002B01D101232F
:102C400000E00023002B05D0054B1B68002B01D1B1
:102C500062B600BF00BFBD465DF8047B704700BF91
:102C60008886FF1F8486FF1F80B500AF0E4B1B6850
:102C7000002B11D1FFF702FE03460C4A13600B4BE9
:102C80001B6803F00103002B01D1012300E00023A6
:102C9000002B01D072B600BF034B1B680133024A00
:102CA000136000BF80BD00BF9086FF1F8C86FF1F92
:102CB00080B400AF0D4B1B68013B0C4A13600C4BFA
:102CC0001B6803F00103002B01D1012300E0002366
:102CD000002B05D0054B1B68002B01D162B600BF4D
:102CE00000BFBD465DF8047B704700BF9086FF1FA4
:102CF0008C86FF1F80B500AF0E4B1B68002B11D1D7
:102D0000FFF7BCFD03460C4A13600B4B1B6803F036
:102D10000103002B01D1012300E00023002B01D08F
:102D200072B600BF034B1B680133024A136000BF39
:102D300080BD00BF9886FF1F9486FF1F80B400AF40
:102D40000D4B1B68013B0C4A13600C4B1B6803F0D6
:102D50000103002B01D1012300E00023002B05D04B
:102D6000054B1B68002B01D162B600BF00BFBD46FA
:102D70005DF8047B704700BF9886FF1F9486FF1F95
:102D800080B500AF0E4B1B68002B11D1FFF776FD0D
:102D900003460C4A13600B4B1B6803F00103002B26
:102DA00001D1012300E00023002B01D072B600BF47
:102DB000034B1B680133024A136000BF80BD00BF94
:102DC000A086FF1F9C86FF1F80B400AF0D4B1B68C1
:102DD000013B0C4A13600C4B1B6803F00103002BF2
:102DE00001D1012300E00023002B05D0054B1B6817
:102DF000002B01D162B600BF00BFBD465DF8047B69
:102E0000704700BFA086FF1F9C86FF1F80B500AFE4
:102E10000E4B1B68002B11D1FFF730FD03460C4A07
:102E200013600B4B1B6803F00103002B01D101233E
:102E300000E00023002B01D072B600BF034B1B68DB
:102E40000133024A136000BF80BD00BFA886FF1F88
:102E5000A486FF1F80B400AF0D4B1B68013B0C4ADA
:102E600013600C4B1B6803F00103002B01D10123FD
:102E700000E00023002B05D0054B1B68002B01D17F
:102E800062B600BF00BFBD465DF8047B704700BF5F
:102E9000A886FF1FA486FF1F80B483B000AFEFF3A6
:102EA00010837B607B6818460C37BD465DF8047B59
:102EB000704780B500AF0E4B1B68002B11D1FFF798
:102EC000EBFF03460B4A13600A4B1B6803F0010338
:102ED000002B01D1012300E00023002B01D072B6AA
:102EE00000BF034B1B680133014A136000BF80BD64
:102EF000B086FF1FAC86FF1F80B400AF0D4B1B6870
:102F0000013B0C4A13600C4B1B6803F00103002BC0
:102F100001D1012300E00023002B05D0054B1B68E5
:102F2000002B01D162B600BF00BFBD465DF8047B37
:102F3000704700BFB086FF1FAC86FF1F80B500AF93
:102F40000E4B1B68002B11D1FFF7A6FF03460C4A5E
:102F500013600B4B1B6803F00103002B01D101230D
:102F600000E00023002B01D072B600BF034B1B68AA
:102F70000133024A136000BF80BD00BFB886FF1F47
:102F8000B486FF1F80B400AF0D4B1B68013B0C4A99
:102F900013600C4B1B6803F00103002B01D10123CC
:102FA00000E00023002B05D0054B1B68002B01D14E
:102FB00062B600BF00BFBD465DF8047B704700BF2E
:102FC000B886FF1FB486FF1F80B500AF0E4B1B688D
:102FD000002B11D1FFF760FF03460C4A13600B4B27
:102FE0001B6803F00103002B01D1012300E0002343
:102FF000002B01D072B600BF034B1B680133024A9D
:10300000136000BF80BD00BFC086FF1FBC86FF1FCE
:1030100080B400AF0D4B1B68013B0C4A13600C4B96
:103020001B6803F00103002B01D1012300E0002302
:10303000002B05D0054B1B68002B01D162B600BFE9
:1030400000BFBD465DF8047B704700BFC086FF1F10
:10305000BC86FF1F80B483B000AFEFF310837B60AA
:103060007B6818460C37BD465DF8047B704780B519
:1030700000AF0E4B1B68002B11D1FFF7EBFF03468F
:103080000B4A13600A4B1B6803F00103002B01D1AC
:10309000012300E00023002B01D072B600BF034BD8
:1030A0001B680133014A136000BF80BDC886FF1F43
:1030B000C486FF1F80B400AF0D4B1B68013B0C4A58
:1030C00013600C4B1B6803F00103002B01D101239B
:1030D00000E00023002B05D0054B1B68002B01D11D
:1030E00062B600BF00BFBD465DF8047B704700BFFD
:1030F000C886FF1FC486FF1F80B500AF002000F008
:10310000BDFE00BF80BD000080B485B000AF786018
:103110000B46FB707B681B69FB60FB6823F47063E4
:10312000FB60FB781B0203F47063FA681343FB60D7
:103130007B68FA681A6100BF1437BD465DF8047BEE
:10314000704780B485B000AF78600B46FB707B6839
:103150001B69FB60FB6823F0FF03FB60FB78FA68E8
:103160001343FB607B68FA681A6100BF1437BD46E1
:103170005DF8047B704780B485B000AF78600B4683
:10318000FB707B685B69FB60FB6823F0FF03FB60FF
:10319000FB78FA681343FB607B68FA685A6100BFEA
:1031A0001437BD465DF8047B704780B483B000AF30
:1031B00078600B46FB7013463B80FB78072B07D8E3
:1031C000FB783A88D1B27A6813440A4683F82C20F7
:1031D00000BF0C37BD465DF8047B704780B483B0F8
:1031E00000AF78607B689B6843F008027B689A6058
:1031F00000BF0C37BD465DF8047B704780B483B0D8
:1032000000AF78607B689B68DB08DBB203F00103EA
:10321000DBB218460C37BD465DF8047B704780B4BE
:1032200083B000AF78607B689B6843F004027B68E2
:103230009A6000BF0C37BD465DF8047B704780B4D0
:1032400083B000AF78607B689B689B08DBB203F0BB
:103250000103DBB218460C37BD465DF8047B7047AE
:1032600080B483B000AF78607B6800225A6000BFF2
:103270000C37BD465DF8047B704780B485B000AF65
:1032800078600B46FB707B68DB68FB60FB6823F4AF
:103290000063FB60FB78DB0203F40063FA6813430E
:1032A000FB607B68FA68DA6000BF1437BD465DF8E2
:1032B000047B704780B483B000AF78607B689B6804
:1032C00043F002027B689A6000BF0C37BD465DF890
:1032D000047B704780B483B000AF78607B689B68E4
:1032E0005B08DBB203F00103DBB218460C37BD46C6
:1032F0005DF8047B704780B485B000AF78600B4602
:10330000FB707B689B68FB60FB78012B04D1FB683A
:1033100043F01003FB6003E0FB6823F01003FB6045
:103320007B68FA689A6000BF1437BD465DF8047B7D
:10333000704780B483B000AF78607B689B6843F0CF
:1033400001027B689A6000BF0C37BD465DF8047BC4
:10335000704780B483B000AF78607B689B68DBB255
:1033600003F00103DBB218460C37BD465DF8047B61
:10337000704780B485B000AF78607B681B68BB6025
:103380000023FB73BB68DB0803F00103BB60BB6871
:10339000002B01D00123FB73FB7B18461437BD467D
:1033A0005DF8047B704780B485B000AF78607B68BF
:1033B0001B68BB600023FB73BB689B0903F0010320
:1033C000BB60BB68002B01D00123FB73FB7B18465D
:1033D0001437BD465DF8047B704780B483B000AFFE
:1033E00078607B6808221A6000BF0C37BD465DF824
:1033F000047B704780B483B000AF78607B68DB6C7F
:103400009BB218460C37BD465DF8047B704780B40C
:1034100083B000AF786039607B683A68DA6000BFDB
:103420000C37BD465DF8047B704780B483B000AFB5
:1034300078607B684FF0FF321A6000BF0C37BD46E2
:103440005DF8047B704780B483B000AF786039606A
:103450007B683A685A6000BF0C37BD465DF8047B54
:10346000704780B485B000AF78607B6800229A60B6
:103470007B684FF0FF321A607B6800225A607B68DD
:10348000124ADA607B684FF428721A617B68022264
:103490005A617B6800229A617B680D4ADA610023D9
:1034A000FB7308E0FB7B7A681344002283F82C202E
:1034B000FB7B0133FB73FB7B072BF3D900BF00BF02
:1034C0001437BD465DF8047B704700BF100000074D
:1034D0000000FF0F2DE9B00F8FB000AF03460A4682
:1034E000FB851346BB85002387F837307F4B1B686D
:1034F0009968FA8D13465B0013449B000B445B688C
:1035000093F82030062B00F2DA8001A252F823F063
:103510002D35000065350000CD350000BF360000B8
:10352000033600003936000091360000BB8D0022C2
:103530003B627A626D4B1B689968FA8D13465B009B
:1035400013449B000B445B68D3E90623D7E9084585
:1035500021468A4229468B41C0F0B580012387F875
:103560003730B0E0BB8D0022BB61FA615F4B1B6856
:103570009968FA8D13465B0013449B000B445B680B
:10358000D3E90623D7E9064521468A4229468B41DD
:1035900080F09B80BB8D00223B617A61534B1B689E
:1035A0009968FA8D13465B0013449B000B445B68DB
:1035B000D3E90223D7E9044521468A4229468B41B3
:1035C000C0F08380012387F837307EE0BB8D002276
:1035D000BB60FA60454B1B689968FA8D13465B0027
:1035E00013449B000B445B68D3E90223D7E90245EF
:1035F00021468A4229468B4169D2012387F8373018
:1036000065E0BB8D00223B607A60384B1B6899688F
:10361000FA8D13465B0013449B000B445B68D3E9AF
:103620000623D7E9004521468A4229468B4150D2DC
:10363000012387F837304CE0BB8D00229A46934631
:103640002A4B1B689968FA8D13465B0013449B0054
:103650000B445B68D3E90623524573EB0B0313D28B
:10366000BB8D002298469146204B1B689968FA8DC5
:1036700013465B0013449B000B445B68D3E90223B1
:10368000424573EB090326D2012387F8373022E045
:10369000BB8D00221C461546144B1B689968FA8D99
:1036A00013465B0013449B000B445B68D3E9022381
:1036B000A242AB4111D3012387F837300DE001233B
:1036C00087F837300AE000BF08E000BF06E000BF1F
:1036D00004E000BF02E000BF00E000BF97F8373011
:1036E00018463C37BD46BDE8B00F70476887FF1FDE
:1036F00080B584B000AF03463960FB713B68FB6066
:103700000A4B1846FFF7D6FD02E0FB68013BFB6061
:10371000064B1846FFF7DEFD0346012B02D1FB687E
:10372000002BF2D100BF1037BD4680BD0000044021
:1037300080B584B000AF03463960FB713B68FB6025
:103740000A4B1846FFF7F5FD02E0FB68013BFB6002
:10375000064B1846FFF7FDFD0346002B02D1FB6820
:10376000002BF2D100BF1037BD4680BD00000440E1
:1037700080B582B000AF0346FB71044B1846FFF7DB
:1037800054FE00BF0837BD4680BD00BF00000440A6
:1037900080B584B000AF0346FB714FF6FF73FB8129
:1037A0000023BB81FB790C4ADB0013445B88FB815F
:1037B000FB89184600F044FA0346BB81BA89FB79BD
:1037C0001146184600F076F9FB79184600F0A8F883
:1037D00000BF1037BD4680BD8485FF1F80B584B013
:1037E00000AF0346FB710C4BFB6006E00B4B184629
:1037F000FFF700FEFB68013BFB60084B1846FFF734
:10380000D2FD0346012B02D0FB68002BEED100BF96
:103810001037BD4680BD00BFA086010000000440F7
:1038200080B584B000AF0346FB714FF6FF73FB8198
:10383000FB790B4A32F833309BB2002B0AD0FB796C
:10384000074ADB0013445B889BB2184600F0F8F986
:103850000346FB81FB8918461037BD4680BD00BF7B
:103860008485FF1F80B582B000AF0346FB71054A17
:10387000FB7919461046FFF73EFD00BF0837BD46ED
:1038800080BD00BF0000044080B582B000AF034699
:10389000FB71FB7903491846FFF74AFF00BF083761
:1038A000BD4680BDA086010080B584B000AF7860C1
:1038B000084BFB607B689B781946F868FFF724FC8F
:1038C0007B68DB781946F868FFF73BFC00BF1037D0
:1038D000BD4680BD0000044080B584B000AF034603
:1038E000FB710023FB600C4BFB600C4B1846FFF791
:1038F00075FC02E0FB68013BFB60084B1846FFF7D4
:103900007DFC0346012B02D1FB68002BF2D100BFE6
:103910001037BD4680BD00BFA086010000000440F6
:1039200080B582B000AF0346FB71094B1846FFF724
:1039300086FC0346002B07D1FB791846FFF74EFFA4
:10394000034B1846FFF76BFC00BF0837BD4680BD30
:103950000000044080B582B000AF0346FB71064B07
:103960001846FFF77DFC044B00211846FFF785FC45
:1039700000BF0837BD4680BD0000044080B582B05E
:1039800000AF0346FB71FB791846FFF7A5FFFB79F3
:103990001846FFF723FFFB7905491846FFF7A8FEF5
:1039A000044B1846FFF75DFD00BF0837BD4680BDDC
:1039B000A08601000000044080B584B000AF03463B
:1039C000FB710023FB73054B1846FFF7D2FC03463F
:1039D000FB73FB7B18461037BD4680BD00000440DA
:1039E00080B582B000AF0346FB71044B1846FFF769
:1039F000F4FC00BF0837BD4680BD00BF0000044096
:103A000080B586B000AFBA601A460346FB730B461A
:103A1000BB811346FB800023BB820123FB75234B34
:103A20001846FFF7E7FC0023BB7535E01F4B18462F
:103A3000FFF7E0FC0346BB821D4B1B689968BA89FF
:103A400013465B0013449B000B445B681B7C012BFB
:103A500019D1174B1B689968BA8913465B00134448
:103A60009B000B445B6893F82030032B0BD0BA8A81
:103A7000BB8911461846FFF72DFD0346002B02D1E6
:103A80000023FB7505E0BB7D5B00BA681344BA8A6E
:103A90001A80BB7D0133BB75BB7D9BB2FA889A420D
:103AA000C4D8FB7D18461837BD4680BD00000440D1
:103AB0006887FF1F80B586B000AF03460A46FB71DA
:103AC0001346BB805B4BFB600023FB7200237B61D2
:103AD000FB791846FFF700FF574B1B689968BA88B7
:103AE00013465B0013449B000B445B6893F827303C
:103AF0001946F868FFF73FFB4F4B1B689968BA8877
:103B000013465B0013449B000B449B68DB681B79E6
:103B10000133FB72484B1B689968BA8813465B00F7
:103B200013449B000B449B68DA68BB881179434AB5
:103B30001B0113440C330A461A703F4B1B689968EB
:103B4000BA8813465B0013449B000B445B6893F8F0
:103B500026301B0203F44072FB7A013B1B0603F084
:103B6000E06313437B61344B1B689968BA88134642
:103B70005B0013449B000B449B68DB78DB0203F47F
:103B800000637A6913437B617969F868FFF73FFC4A
:103B9000294B1B689968BA8813465B0013449B0045
:103BA0000B449B68DB681B681B789BB21A4600219C
:103BB000F868FFF7FAFA0123FB7418E01E4B1B6844
:103BC0009968BA8813465B0013449B000B449B68BA
:103BD000DB681A68FB7C013B13441B789AB2FB7CC0
:103BE0001946F868FFF7E1FAFB7C0133FB74FA7CB5
:103BF000FB7A9A42E2D3F868FFF717FC00237B6157
:103C00000D4B1B689968BA8813465B0013449B00F0
:103C10000B449B681B7C012B03D17B6943F0080399
:103C20007B617969F868FFF70EFC00BF1837BD4665
:103C300080BD00BF000004406887FF1F2485FF1F70
:103C400080B485B000AF0346FB800023FB810023D6
:103C50007B7312E0144B1B6899687A7B13465B00F8
:103C600013449B000B441B88FA889A4202D17B7B49
:103C7000FB8108E07B7B01337B730B4B1B685B781C
:103C80007A7B9A42E6D3084B1B685B787A7B9A4230
:103C900003D3054B1B685B78FB81FB8918461437FF
:103CA000BD465DF8047B70476887FF1F80B483B012
:103CB00000AF0346FB80FB88324A1B0113441B788C
:103CC000032B44D0032B55DC002B05D0002B51DBFC
:103CD000013B012B4ED807E0FB882A4A1B01134405
:103CE0000A3300221A7046E0FB88264A1B0113445F
:103CF0000A331978244B1B689868FA8813465B00CE
:103D000013449B0003449B685B7A994218D3FB8859
:103D10001C4A1B01134403221A701B4B1B68996831
:103D2000FA8813465B0013449B000B449A68FB8897
:103D3000517A144A1B0113440A330A461A701AE0D6
:103D4000FB88104A1B01134402221A7013E00E4B29
:103D50001B689968FA8813465B0013449B000B4468
:103D60009A68FB88517A074A1B0113440A330A46B2
:103D70001A7000E000BF00BF0C37BD465DF8047B41
:103D8000704700BF2485FF1F6887FF1F90B585B06F
:103D900000AF03460A46FB711346BB800123FB7349
:103DA000BB88334A1B0113441B78032B5BD1FEF7FE
:103DB00087FC304B1B689968BA8813465B00134434
:103DC0009B000B449B68DB78002B4AD1FB792A4A85
:103DD00032F833309BB2012B3CD9FB79264A32F8BA
:103DE00033309AB2FB79013A91B2234A22F8331068
:103DF0000023BB7315E0F879BB7B0133F979BA7BFB
:103E00001D4C800003445B0023445B889CB21A482D
:103E10008B0013445B00034422465A80BB7B013372
:103E2000BB73BB7B9AB2FB79134931F833309BB239
:103E30009A42E0D3FB79FA790F4931F8322092B2F5
:103E400011460D4A9B000B445B0013444FF6FF7272
:103E50005A8004E0FB79084A002122F8331000233D
:103E6000FB73FEF751FCFB7B18461437BD4690BD33
:103E70002485FF1F6887FF1F8485FF1FB0B586B0AC
:103E800002AF0346FB710023FB81FB791846FFF765
:103E9000C7FC0346FB81FB791846FFF78DFD0346FF
:103EA000012B40F0FB80FB894FF6FF72934200F03C
:103EB000F580FB791846FFF793FD7D4B1B689968E9
:103EC000FA8913465B0013449B000B449B68DB6834
:103ED0001B797B73FB89774A1B0113440A331B78D8
:103EE0007A7B12FB03F3DAB2FB8972491B010B44A4
:103EF0000B331B7813443B730123FB72FB896D4A20
:103F00001B01134404331A683B7B5B00D418FB8904
:103F1000684A1B0113440C331B789DB2644B1B6829
:103F20009968FA8913465B0013449B000B445B6855
:103F300093F82630F989F87900932B462246FFF74B
:103F40005FFD0346FB72FB7A002B23D1FB89594AA4
:103F50001B0113440B331B781946FB89554A1B017F
:103F600013440C331B781944514B1B689868FA8929
:103F700013465B0013449B0003449B68DB681B797A
:103F800099424ADBFB894B4A1B0113440C33002244
:103F90001A7042E0FB89474A1B0113440B3319781E
:103FA000FB89444A1B0113440C331A78FB890A44E9
:103FB000D1B2404A1B0113440B330A461A70FB89E5
:103FC0003C4A1B0113440B331978394B1B68986822
:103FD000FA8913465B0013449B0003449B68DB682B
:103FE0001B79994219D3FB89324A1B0113440A33C6
:103FF0001A78FB890132D1B22E4A1B0113440A33CD
:104000000A461A70FB892B4A1B0113440B3300220A
:104010001A70FB891846FFF749FEFB89254A1B01E8
:1040200013440C3300221A70FA89FB7911461846A2
:10403000FFF7ACFEFB891F4A1B0113440D331B78AD
:10404000012B1AD1FB891B4A1B0113441B78012B3E
:1040500013D0FB89174A1B0113440B331B78002B29
:104060000BD1134B1B689968FA8913465B00134404
:104070009B000B449B685B689847FB790E4A32F8BB
:1040800033309BB2002B04D0FB791846FFF780FB3E
:1040900009E0FB791846FFF71FFC04E0FB7918469E
:1040A000FFF766FB00BF00BF1037BD46B0BD00BFC5
:1040B0006887FF1F2485FF1F8485FF1F80B483B09E
:1040C00000AF03463960FB71FB7903F5800303F50C
:1040D00088731B0204331A463B68136000BF0C3719
:1040E000BD465DF8047B704780B483B000AF0346E3
:1040F0003960FB71FB7903F5800303F588731B02BC
:1041000008331A463B68136000BF0C37BD465DF8A4
:10411000047B704780B483B000AF0346FB710B464D
:10412000BB7113467B717B79002B16D1FB7903F5AC
:10413000800303F588731B0208331968BB790122D9
:104140009A40FB7903F5800303F588731B0208335B
:10415000184641EA0203036015E0FB7903F580038A
:1041600003F588731B0204331968BB7901229A4056
:10417000FB7903F5800303F588731B0204331846AB
:1041800041EA0203036000BF0C37BD465DF8047BC3
:10419000704780B483B000AF03460A46FB711346F4
:1041A000BB71FB7903F5800303F588731B021033A1
:1041B0001A68BB7922FA03F3DBB203F00103DBB226
:1041C00018460C37BD465DF8047B704780B483B059
:1041D00000AF03463960FB71FB7903F5800303F5FB
:1041E00088731B021A463B68136000BF0C37BD463C
:1041F0005DF8047B704780B483B000AF0346FB7169
:10420000FB7903F5800303F588731B0210331B68E9
:1042100018460C37BD465DF8047B704780B485B006
:1042200000AF03460A46FB711346BB710023FB73C4
:10423000FB7903F5800303F588731B020C331968BF
:10424000BB7901229A40FB7903F5800303F588735B
:104250001B020C33184641EA02030360FB7903F5A5
:10426000800303F588731B021A68BB7922FA03F3F3
:10427000DBB203F00103FB73FB7B18461437BD462A
:104280005DF8047B7047000080B584B000AF034642
:10429000FB800023FB73FB881B0A9BB2BB73FB886C
:1042A0007B73BB7B042B06D91423112200217820B9
:1042B000FCF7B0FD23E07B7B1F2B06D90A231122DC
:1042C00000217820FCF7A6FD19E0BB7B0E4A52F8CE
:1042D00023207B7B22FA03F303F00103002B06D19A
:1042E0000A23112200217820FCF794FD07E07A7B55
:1042F000BB7B11461846FFF791FF0346FB73FB7B20
:1043000018461037BD4680BDF496000080B584B0D5
:1043100000AF0346FB800023FB73FB881B0A9BB2A4
:10432000BB73FB887B73BB7B042B06D91423002251
:1043300000217820FCF76EFD23E07B7B1F2B06D944
:104340000A23002200217820FCF764FD19E0BB7BE2
:104350000E4A52F823207B7B22FA03F303F0010379
:10436000002B06D10A23002200217820FCF752FD01
:1043700007E07A7BBB7B11461846FFF70AFF03462E
:10438000FB73FB7B18461037BD4680BDF4960000DA
:1043900080B584B000AF0346FB710023FB60FB795E
:1043A000042B08D91423022200217820FCF732FDC7
:1043B0000023FB6004E0FB791846FFF71CFFF86060
:1043C000FB6818461037BD4680BD80B584B000AF8D
:1043D00003460A46FB8013467B71FB881B0A9BB28F
:1043E000FB73FB88BB73FB7B042B06D914230122D0
:1043F00000217820FCF70EFD21E0BB7B1F2B06D9A6
:104400000A23012200217820FCF704FD17E0FB7B42
:104410000D4A52F82320BB7B22FA03F303F0010379
:10442000002B06D10A23012200217820FCF7F2FCA0
:1044300005E07A79B97BFB7B1846FFF76BFE00BF7E
:104440001037BD4680BD00BFF496000080B582B035
:1044500000AF03463960FB71FB79042B06D91423A6
:10446000032200217820FCF7D5FC04E0FB793968B1
:104470001846FFF7ABFE00BF0837BD4680BD80B5CC
:1044800086B000AF0346B9607A60FB7300237B619E
:10449000FB7B042B06D91423032200217820FCF790
:1044A000B9FC16E0FEF7A5F97A68BB6813407B619A
:1044B000FB7B79691846FFF701FEBB68DB437A682E
:1044C00013407B61FB7B79691846FFF70DFEFEF711
:1044D000B3F900BF1837BD4680BD00BF80B584B0BA
:1044E00000AF78600123FB73FEF7ECFA7B681B6B6F
:1044F00043F400727B681A63FEF708FB786800F0EB
:104500000AF80346002B01D10023FB73FB7B1846FE
:104510001037BD4680BD80B485B000AF7860012300
:10452000FB730023BB6002E0BB680133BB607B68A8
:104530001B6B03F40073B3F5007F03D1BB68B3F5C5
:104540007A7FF1D3BB68B3F57A7F01D20023FB7386
:10455000FB7B18461437BD465DF8047B704780B579
:1045600086B000AF0346FB712F4B1A68FB791344EA
:104570001B78FB75FB7D2D4A52F823305B781A4679
:104580002B4B53F822303B613B699B68FB603B69D6
:104590005B68BB60FB6803F02003002B0AD0BB689C
:1045A00003F02003002B05D0FB7D3969184600F08D
:1045B00061FD34E0FB6803F00403002B0AD0BB6804
:1045C00003F00403002B05D0FB7D3969184600F089
:1045D000ABFD24E0FB6803F00203002B0AD0BB68AC
:1045E00003F00203002B05D0FB7D3969184600F06B
:1045F00007FE14E0FB6803F00103002B0AD0BB6840
:1046000003F00103002B05D0FB7D3969184600F04B
:1046100029FE04E03B699A683B699A6000BF00BFCD
:104620001837BD4680BD00BFA085FF1F9C85FF1FBA
:104630008C97000080B588B000AF0346FB71002363
:10464000FB770023BB7700237B7700233B77002396
:10465000FB760023BB7600237B7600233B769D4BC5
:104660001A68FB7913441B78BB75BB7D9A4A52F8D4
:1046700023305B781A46994B53F822303B613B69F3
:10468000DB68FB603B695B68BB60BB6803F00403ED
:10469000002B2CD0FB6803F40063002B09D001230E
:1046A000BB77BB7D8E4A0321D1543B694FF4006236
:1046B000DA60FB6803F48063002B09D00123BB7729
:1046C000BB7D874A0421D1543B694FF48062DA6094
:1046D000FB6803F40073002B09D00123BB77BB7D7B
:1046E0007F4A0521D1543B694FF40072DA60FB68C0
:1046F00003F48053002B0ED0BB6803F48053002BCF
:1047000009D001233B77BB7D754A0221D1543B6917
:104710004FF48052DA60FB6803F48073002B10D0F2
:10472000BB6803F48073002B0BD001237B77BB7D28
:104730006B4A0721D1543B694FF48072DA60012340
:10474000FB77FB6803F40053002B20D0BB6803F415
:104750000053002B1BD00123FB76BB7D3A69926886
:10476000604941F82320FEF7C5FA3B691B6B43F40F
:1047700000723B691A63FEF7E1FABB7D584A0121DA
:10478000D1543B694FF40052DA600123FB77FB6898
:1047900003F48043002B16D0BB6803F48043002B46
:1047A00011D00123BB76BB7D4D4A0A21D154BB7D7C
:1047B0003A6992684B4941F823203B694FF48042A3
:1047C000DA600123FB77FB6803F08003002B0FD036
:1047D000BB6803F08003002B0AD001237B76BB7DEE
:1047E0003F4A0821D1543B698022DA600123FB77DC
:1047F000BB7D3D4AD35C032B03D1BB7D184600F043
:1048000095F8FB7F012B12D13B694FF440729A60FF
:104810000023FB7508E0FB7D3A691344002283F80E
:104820003820FB7D0133FB75FB7D072BF3D93B69FA
:10483000DA683B69DA60BB7D2C4AD35C002B45D13A
:10484000BB7F012B06D1BB7D01211846FCF76AFB1B
:1048500001233B767B7F012B06D1BB7D02211846CD
:10486000FCF760FB01233B763B7F012B06D1BB7D30
:1048700003211846FCF756FB01233B76FB7E012BF8
:1048800006D1BB7D04211846FCF74CFB01233B7687
:10489000BB7E012B06D1BB7D05211846FCF742FBF0
:1048A00001233B767B7E012B06D1BB7D052118467B
:1048B000FCF738FB01233B763B7E012B06D13B699D
:1048C00003229A60BB7D0A4A0721D15400BF2037DA
:1048D000BD4680BDA085FF1F9C85FF1F8C970000F3
:1048E000AA85FF1FA485FF1FA985FF1FAC85FF1F99
:1048F000AB85FF1F80B500AF0120FFF730FE012020
:10490000FFF798FE00BF80BD80B582B000AF786031
:10491000FEF764F97B681B6B43F400627B681A63E3
:10492000FEF780F900BF0837BD4680BD80B584B072
:1049300000AF0346FB71FB791B4A52F823305B78CA
:104940001A461A4B53F82230FB60FEF75FFAFB68F9
:104950004FF400729A60FB681B6843F00202FB6828
:104960001A60FB6820229A60FB685B6843F02002B3
:10497000FB685A60FB790E4A0421D154FB790D4A39
:104980000021D154FB790C4A0421D154FB790B4A04
:104990000021D154FEF75EFAFB79094A0421D15473
:1049A00000BF1037BD4680BD9C85FF1F8C9700005F
:1049B000A985FF1FAA85FF1FAB85FF1FA885FF1FC5
:1049C0009585FF1F80B487B000AF78600F4A7B6881
:1049D000B2FBF3F33B614FF47A623B69B2FBF3F352
:1049E0003B613B69FB73FB7B002B05D0FB7BFF220C
:1049F00002FA03F3FB7501E0FF23FB75FB7D18460C
:104A00001C37BD465DF8047B704700BF8096980058
:104A100080B584B000AF0346FB71FB790B4A52F8B6
:104A200023305B781A460A4B53F82230FB60FDF7BF
:104A300032FFFB681B6823F00202FB681A60FDF777
:104A40004DFF00BF1037BD4680BD00BF9C85FF1FD6
:104A50008C97000080B584B000AF0346FB71FB79F2
:104A60000C4A52F823305B781A460B4B53F822302D
:104A7000FB60FDF755FFFB6820229A60FB685B68CE
:104A800023F02002FB685A60FDF76EFF00BF10376D
:104A9000BD4680BD9C85FF1F8C97000080B483B00D
:104AA00000AF0346FB71FB79044A0721D15400BFD4
:104AB0000C37BD465DF8047B704700BFAB85FF1F18
:104AC00080B483B000AF7860044A7B68136000BF95
:104AD0000C37BD465DF8047B704700BFA085FF1F03
:104AE00090B589B000AF03463960FB713B685968E7
:104AF000FA791346DB009B1A9B001A46FB790A449D
:104B00007A4941F82320FB79784A52F823305B78C0
:104B10001A46774B53F82230BB613B685968FA79E3
:104B20001346DB009B1A9B001A46FB790A446F4927
:104B300041F82320FB796F4A002142F82310FB79CA
:104B40006A4A52F823301B7AFB75FB79674A52F8A0
:104B50002320FB799178684AD154FB79634A52F853
:104B600023305B7ABB75BB6901221A60FB795F4A0F
:104B700052F823305B8AFC791846FFF723FF03467F
:104B80001A465E4B1A55FDF7E3FFBB691A68FB79BD
:104B90005949CB5C1B0103F01001BB7DDB0003F026
:104BA00008031943FB7D1B0203F470630B4313439B
:104BB00043F08002BB691A60FDF7EEFFBB694FF45A
:104BC00060421A63FB79494A52F823305B8A3B61A1
:104BD000FB79464A52F82330DA683B69B2FBF3F3BB
:104BE0003B613B691B09FB603B6903F00F03BB6042
:104BF000BB69FA689A62BB69BA685A62BB694FF4CA
:104C0000E0629A61BB694FF6FF721A62BB694FF4AA
:104C100040729A61FB79354A52F823301B7C1B02A3
:104C200003F47063FA79314951F82220527C1A4317
:104C3000BB691A62BB6900221A64FB792E4AD35CF5
:104C4000002B2ED1FB79294A52F823301B7D012BF2
:104C500027D1FB79254A52F823305B7D1A46284B31
:104C600053F82220BB691A640023FB7711E0FB791B
:104C70001E4A52F823309A69FB7F13441A78FB7F4F
:104C80001146BA6912339B0013445960FB7F01330C
:104C9000FB77FB79154A52F823305B7DFA7F9A4205
:104CA000E5D3BB699A68BB699A60FDF77FFEBB6973
:104CB0001B6823F00102BB691A60FDF79BFEBB690C
:104CC00047F686125A60FB790B4AD35C002B05D15C
:104CD000BB695B6843F00102BB695A60FB79184607
:104CE000FFF724FE00BF2437BD4690BD9C85FF1F03
:104CF0008C970000A485FF1FAC85FF1FAD85FF1FAB
:104D00004897000080B584B000AF0346FB710123D3
:104D1000FB73FB791C4A52F823305B781A461B4B15
:104D200053F82230BB60B868FFF7D8FB0346002B6E
:104D300021D1BB684FF400729A60BB6841F63C72A7
:104D40005A63BB68002283F838200123BB7308E054
:104D5000BB7BBA681344FF2283F83820BB7B013346
:104D6000BB73BB7B072BF3D9FB79094A0321D154D1
:104D70000023FB7303E0FB791846FFF749FEFB7B3A
:104D800018461037BD4680BD9C85FF1F8C970000DC
:104D9000A985FF1F80B584B000AF0346FB710123D6
:104DA000FB73FB790F4A52F823305B781A460E4B9F
:104DB00053F82230BB60B868FFF790FB0346002B26
:104DC00006D1FB791846FFF7B1FD0023FB7303E022
:104DD000FB791846FFF71CFEFB7B18461037BD46D3
:104DE00080BD00BF9C85FF1F8C97000080B584B0FC
:104DF00000AF0346FB71FB79294A52F823305B78F8
:104E00001A46284B53F82230BB60FB791846FFF74F
:104E1000FFFDB868FFF762FB0346002B26D1FB7944
:104E2000214AD25CBB6883F83820FDF7A9FFBB6834
:104E30001B6B43F48052BB681A630023FB600EE0D7
:104E4000FB680133FB60FB79184600F0EFF803467E
:104E5000012B04D1FB79154A0521D15404E0FB68EC
:104E60004FF6FE729342EBD9FDF7AEFFFB79104A85
:104E70000721D154FB790F4A0021D154FB790E4A06
:104E8000002142F82310FB791846FFF7E3FDFB7978
:104E9000064A0521D15400BF1037BD4680BD00BF72
:104EA0009C85FF1F8C970000AD85FF1F9585FF1F18
:104EB000AB85FF1FAA85FF1FA485FF1F80B582B0A9
:104EC00000AF0346FB71FB791846FFF7A1FDFB79A4
:104ED0001846FFF7BFFDFB79094A0721D154FB793A
:104EE000084A0021D154FB79074A002142F82310D7
:104EF000FB79064A0521D15400BF0837BD4680BD65
:104F0000AB85FF1FAA85FF1FA485FF1F9585FF1F87
:104F100080B584B000AF0346FB710023FB73FB79BF
:104F2000224A52F823305B781A46214B53F822303C
:104F3000BB60FB791F4AD35C012B32D1BB681B6B72
:104F400003F48053002B2CD1BB689B6803F0400313
:104F5000002B26D0FB79184A0721D154FB79174A38
:104F60000421D154FB79164A0021D154FB79154A0A
:104F7000002142F82310FB790E4A0021D154FB791D
:104F80000A4A52F823305B681846FBF737FFFB7973
:104F90000D4A0521D154FB791846FFF75BFD01232B
:104FA000FB73FB7B18461037BD4680BD9C85FF1FF9
:104FB0008C970000A885FF1FAB85FF1FA985FF1FE9
:104FC000AA85FF1FA485FF1F9585FF1F80B483B0AE
:104FD00000AF0346FB71FB79034AD35C18460C37DC
:104FE000BD465DF8047B7047A985FF1F80B483B080
:104FF00000AF0346FB71FB79034AD35C18460C37BC
:10500000BD465DF8047B7047AA85FF1F80B483B05E
:1050100000AF0346FB71FB79034AD35C18460C379B
:10502000BD465DF8047B7047AB85FF1F80B485B03B
:1050300000AF0346FB710123FB73FB790B4A52F867
:1050400023305B781A460A4B53F82230BB60BB68AA
:105050001B6B03F48053002B01D00023FB73FB7BFD
:1050600018461437BD465DF8047B70479C85FF1FCA
:105070008C97000080B582B000AF03463960FB71A9
:10508000FB79224A52F82330DB78012B2ED1FB79B1
:105090001F4AD35C052B05D13B681B6803F0020354
:1050A000022B23D13B681B6B03F48053002B21D1CF
:1050B000FB79184A0421D154FB79174A0721D154AE
:1050C000FB79164A0021D154FB79154A002142F898
:1050D0002310FB790D4A52F823305B681846FBF722
:1050E0008DFEFB790A4A0521D15403E0FB790D4A74
:1050F0000121D154FB791846FFF78AFC3B68202236
:105100009A6000BF0837BD4680BD00BF9C85FF1F69
:105110009585FF1FA985FF1FAB85FF1FAA85FF1F70
:10512000A485FF1FA885FF1F80B588B000AF034688
:105130003960FB71FB792F4AD35C012B11D13B689D
:10514000DB6803F00103002B06D0FB792A4A092112
:10515000D1543B680122DA60FB79284A0921D154F5
:1051600040E03B68DB6803F00103002B0CD0FB79C7
:10517000214A0921D154FB7906211846FBF7D2FEBA
:105180003B680122DA6026E007F114033B6100234B
:10519000FB7713E0FA7FFB7F39680A4492F83820E6
:1051A000D2B220333B4403F80C2CFB7F3A68134403
:1051B000002283F83820FB7F0133FB77FB7F072B2E
:1051C000E8D93B684FF400729A603A69FB7911465E
:1051D0001846FBF790FE3B6801229A60FB79074A6C
:1051E0000721D1543B6804229A6000BF2037BD4696
:1051F00080BD00BFAC85FF1FAA85FF1FAB85FF1FC9
:1052000080B582B000AF03463960FB71FB79124A6A
:10521000D35C012B0ED1FB79104AD35C032B04D154
:10522000FB791846FFF782FB0FE0FB790C4A082157
:10523000D1540AE0FB791846FBF769FEFB79084A6E
:105240000721D1543B6801229A603B6802229A6090
:1052500000BF0837BD4680BDAC85FF1FA985FF1F75
:10526000AB85FF1F80B58AB000AF03463960FB7184
:10527000FB79524AD35C072B40F098803B685B6B0C
:1052800003F03F03FB61FB69DBB21A464C4B9B5CAE
:10529000FB76FB7E3B7207F11003FB6000237B7201
:1052A0000823FB720223BB7207F10802FB79114647
:1052B0001846FBF713FE0346002B74D1FB7A002B34
:1052C00002D0FB7A082B03D93868FFF71DFB6DE08D
:1052D000BB7A012B21D1FB7E7B62FB7A013B9B02D7
:1052E00003F4E0537A6A13437B627B7A002B03D08A
:1052F0007B6A43F480737B623B687A6A5A633B68DB
:105300009B6803F48073002B03D03B684FF48072DA
:105310009A603B6804229A6048E0BB7A002B3ED139
:10532000002387F8233010E0FA6897F823301A44F6
:1053300097F8233011783A6813440A4683F83820E6
:1053400097F82330013387F82330FB7A97F823202E
:105350009A42E9D3FB7E43F400737B62FB7A013B04
:105360009B027A6A13437B627B7A002B03D07B6AB1
:1053700043F480737B623B687A6A5A633B6802221B
:105380009A603B6804229A60FDF756FB3B681B6BF2
:1053900043F480623B681A63FDF772FB06E03868ED
:1053A000FFF7B2FA02E03868FFF7AEFA3B68012275
:1053B0009A6000BF2837BD4680BD00BFAB85FF1F88
:1053C0000897000080B584B000AF78600023FB73BD
:1053D0007B68002B07D10C23002200217C20FBF7E7
:1053E00019FD0123FB73FB7B002B0AD1074A7B6865
:1053F0001360064B1B68184600F0ABFA044B012201
:105400001A7000BF1037BD4680BD00BF6C87FF1FFC
:105410007087FF1F80B500AF084B1B78002B06D1AB
:105420000F23022200217C20FBF7F4FC04E0044B54
:105430001B68184600F0E6FA00BF80BD7087FF1FAA
:105440006C87FF1F80B584B000AF03460A46FB801F
:1054500013467B71FB881B0A9BB2FB73FB88BB73F3
:10546000194B1B78002B06D10F23012200217C2031
:10547000FBF7D0FC24E0FB7B042B02D8BB7B1F2B6B
:1054800007D90A23012200217C20FBF7C3FC00BFBF
:1054900016E00E4B1B68BA7BF97B184600F04EFBFA
:1054A0000346002B06D10B23012200217C20FBF7B1
:1054B000B1FC05E07A79B97BFB7B184600F0ACFBC8
:1054C00000BF1037BD4680BD7087FF1F6C87FF1F70
:1054D00080B584B000AF03460A46FB8013467B715B
:1054E000FB881B0A9BB2FB73FB88BB731E4B1B78AC
:1054F000002B06D10F23042200217C20FBF78AFC1D
:105500002EE0FB7B042B02D8BB7B1F2B07D90A2381
:10551000042200217C20FBF77DFC00BF20E07B798A
:10552000072B06D90D23042200217C20FBF772FCF7
:1055300016E00E4B1B68BA7BF97B184600F035FB72
:105540000346002B06D10E23042200217C20FBF70A
:1055500061FC05E07A79B97BFB7B184600F0D3FB50
:1055600000BF1037BD4680BD7087FF1F6C87FF1FCF
:1055700080B483B000AF03463960FB71FB79022B26
:1055800020D0022B2BDC002B02D0012B0DD026E0EB
:105590003B681A683B6822F002021A603B681A688E
:1055A0003B6822F001021A601AE03B681A683B6807
:1055B00042F002021A603B681A683B6822F001025E
:1055C0001A600DE03B681A683B6842F002021A60FC
:1055D0003B681A683B6842F001021A6000E000BFB5
:1055E00000BF0C37BD465DF8047B704780B483B0C4
:1055F00000AF03463960FB71FB79012B06D13B6894
:105600001A683B6842F004021A6005E03B681A68B9
:105610003B6822F004021A6000BF0C37BD465DF8FB
:10562000047B704780B485B000AF78600B46FB7098
:105630001346BB707B685B78002B40F09780BB788B
:1056400003F5800303F588731B0214331968FB7894
:10565000012202FA03F3DA43BB7803F5800303F572
:1056600088731B021433184601EA02030360BB78F7
:1056700003F5800303F588731B0218331968FB7860
:1056800001229A40BB7803F5800303F588731B025F
:105690001833184641EA020303607B685B7A012BEA
:1056A00015D1BB7803F5802312339A02FB7813449B
:1056B0009B001A68BB7803F5802312339902FB78AC
:1056C0000B449B00194642F010030B6014E0BB78BA
:1056D00003F5802312339A02FB7813449B001A6867
:1056E000BB7803F5802312339902FB780B449B00AF
:1056F000194622F010030B60BB7803F5800303F515
:1057000088739A01FB78134420339B00FB607B680D
:105710009B7A012B06D1FB681A68FB6842F4803241
:105720001A6005E0FB681A68FB6822F480321A6090
:105730007B681B7B012B06D1FB681A68FB6842F073
:1057400010021A6005E0FB681A68FB6822F010027C
:105750001A60FB681B6823F0F8517B68DB7A1B0634
:1057600003F0F852FB680A431A605EE07B68DB785E
:10577000002B16D1BB7803F5800303F588731B0259
:1057800008331968FB7801229A40BB7803F580033F
:1057900003F588731B020833184641EA02030360CD
:1057A00015E0BB7803F5800303F588731B0204330F
:1057B0001968FB7801229A40BB7803F5800303F552
:1057C00088731B020433184641EA02030360BB7866
:1057D00003F5800303F588731B0218331968FB78FF
:1057E000012202FA03F3DA43BB7803F5800303F5E1
:1057F00088731B021833184601EA02030360BB7862
:1058000003F5800303F588731B0214331968FB78D2
:1058100001229A40BB7803F5800303F588731B02CD
:105820001433184641EA0203036000BF1437BD4633
:105830005DF8047B704780B582B000AF78600B469E
:10584000FB701346BB707B681B79012B1DD1BA78A6
:10585000FB7819467868FFF7E5FEBB7803F58023EF
:1058600012339A02FB7813449B001B6823F4E06216
:10587000BB7803F5802312339902FB780B449B001D
:10588000194642F480730B605FE0BB7803F5800338
:1058900003F588731B021968FB78012202FA03F3EF
:1058A000DA43BB7803F5800303F588731B021846BF
:1058B00001EA02030360BB7803F5800303F58873F4
:1058C0001B0218331968FB78012202FA03F3DA434A
:1058D000BB7803F5800303F588731B021833184661
:1058E00001EA02030360BB7803F5800303F58873C4
:1058F0001B0214331968FB78012202FA03F3DA431E
:10590000BB7803F5800303F588731B021433184634
:1059100001EA02030360BB7803F5802312339A0285
:10592000FB7813449B001B6823F4E0617B681B79C0
:105930001A02BB7803F5802312339802FB780344E4
:105940009B00184641EA0203036000BF0837BD46CA
:1059500080BD80B586B000AF78600023FB7447E05F
:105960007B685A68FB7CDB0013445B787B747B6844
:105970005A68FB7CDB0013445B687B617B685A6878
:10598000FB7CDB0013441B783B740023BB7428E0D2
:105990007B691B78FB737B6998797B7C03F580239B
:1059A00012339A02FB7B13449B001946FFF7E0FD7C
:1059B0007B69187A7B7C03F5802312339A02FB7B88
:1059C00013449B001946FFF711FE7A7CFB7B1946B6
:1059D0007869FFF730FF7B690D337B61BB7C013356
:1059E000BB74BA7C3B7C9A42D2D3FB7C0133FB7400
:1059F0007B681B78FA7C9A42B2D300BF00BF18378D
:105A0000BD4680BD80B584B000AF78600023FB72D6
:105A100089E07B685A68FB7ADB0013445B68FB60B3
:105A20007B685A68FB7ADB0013441B787B72002387
:105A3000BB7271E0FB689B78002B67D1FB681B7819
:105A40003B72FDF7C1FAFB685B78002B2ED1FB7A25
:105A500003F5800303F588731B02143319683B7A3E
:105A6000012202FA03F3DA43FB7A03F5800303F51C
:105A700088731B021433184601EA02030360FB7AA1
:105A800003F5800303F588731B02183319683B7A0A
:105A900001229A40FB7A03F5800303F588731B0209
:105AA0001833184641EA020303602DE0FB7A03F540
:105AB000800303F588731B02183319683B7A0122AF
:105AC00002FA03F3DA43FB7A03F5800303F58873E4
:105AD0001B021833184601EA02030360FB7A03F540
:105AE000800303F588731B02143319683B7A012283
:105AF0009A40FB7A03F5800303F588731B02143385
:105B0000184641EA02030360FDF782FAFB680D3391
:105B1000FB60BB7A0133BB72BA7A7B7A9A4289D333
:105B2000FB7A0133FB727B681B78FA7A9A42FFF4A6
:105B300070AF00BF00BF1037BD4680BD80B485B0D8
:105B400000AF78600B46FB701346BB700023FB72FE
:105B50007B685A68FB78DB0013445B68FB607B68FA
:105B60005A68FB78DB0013441B787B720023BB72FE
:105B700005E0FB680D33FB60BB7A0133BB72BA7A78
:105B80007B7A9A4204D2FB681B78BA789A42F0D1A9
:105B9000FB689B78012B01D10123FB72FB7A18462D
