:020000041FFEDD
:20100000000002200114FE1F5D21FF1FA57BFE1F5F21FF1F6121FF1F6321FF1F00000000C3
:201020000000000000000000000000006D21FF1F6521FF1F000000006721FF1F6921FF1F12
:201040006B21FF1F6B21FF1F6B21FF1F6B21FF1F6B21FF1F6B21FF1F6B21FF1F6B21FF1F40
:201060006B21FF1F6B21FF1F6B21FF1F6B21FF1F6B21FF1F6B21FF1F6B21FF1F6B21FF1F20
:201080006B21FF1F6B21FF1F6B21FF1F6B21FF1F6B21FF1F6B21FF1F6B21FF1F6B21FF1F00
:2010A0006B21FF1F6B21FF1F6B21FF1F6B21FF1F6B21FF1F6B21FF1F6B21FF1F6B21FF1FE0
:2010C0006B21FF1F6B21FF1F6B21FF1F6B21FF1F6B21FF1F6B21FF1F6B21FF1F6B21FF1FC0
:2010E0006B21FF1F6B21FF1F6B21FF1F6B21FF1F6B21FF1F6B21FF1F6B21FF1F6B21FF1FA0
:201100006B21FF1F6B21FF1F6B21FF1F6B21FF1F6B21FF1F6B21FF1F6B21FF1F6B21FF1F7F
:201120006B21FF1F6B21FF1F6B21FF1F6B21FF1F6B21FF1F6B21FF1F6B21FF1F6B21FF1F5F
:201140006B21FF1F6B21FF1F6B21FF1F6B21FF1F6B21FF1F6B21FF1F6B21FF1F6B21FF1F3F
:201160006B21FF1F6B21FF1F6B21FF1F6B21FF1F6B21FF1F6B21FF1F6B21FF1F6B21FF1F1F
:201180006B21FF1F6B21FF1F6B21FF1F6B21FF1F6B21FF1F6B21FF1F6B21FF1F6B21FF1FFF
:2011A0006B21FF1F6B21FF1F6B21FF1F6B21FF1F6B21FF1F6B21FF1F6B21FF1F6B21FF1FDF
:2011C0006B21FF1F6B21FF1F6B21FF1F6B21FF1F6B21FF1F6B21FF1F6B21FF1F6B21FF1FBF
:2011E0006B21FF1F6B21FF1F6B21FF1F6B21FF1F6B21FF1F6B21FF1F6B21FF1F6B21FF1F9F
:201200006B21FF1F6B21FF1F6B21FF1F6B21FF1F6B21FF1F6B21FF1F6B21FF1F6B21FF1F7E
:201220006B21FF1F6B21FF1F6B21FF1F6B21FF1F6B21FF1F6B21FF1F6B21FF1F6B21FF1F5E
:201240006B21FF1F6B21FF1F6B21FF1F6B21FF1F6B21FF1F6B21FF1F6B21FF1F6B21FF1F3E
:201260006B21FF1F6B21FF1F6B21FF1F6B21FF1F6B21FF1F6B21FF1F6B21FF1F6B21FF1F1E
:201280006B21FF1F6B21FF1F6B21FF1F6B21FF1F6B21FF1F6B21FF1F6B21FF1F6B21FF1FFE
:2012A0006B21FF1F6B21FF1F6B21FF1F6B21FF1F6B21FF1F6B21FF1F6B21FF1F6B21FF1FDE
:2012C0006B21FF1F6B21FF1F6B21FF1F6B21FF1F6B21FF1F6B21FF1F6B21FF1F6B21FF1FBE
:2012E0006B21FF1F6B21FF1F6B21FF1F6B21FF1F6B21FF1F6B21FF1F6B21FF1F6B21FF1F9E
:201300006B21FF1F6B21FF1F6B21FF1F6B21FF1F6B21FF1F6B21FF1F6B21FF1F6B21FF1F7D
:201320006B21FF1F6B21FF1F6B21FF1F6B21FF1F6B21FF1F6B21FF1F6B21FF1F6B21FF1F5D
:201340006B21FF1F6B21FF1F6B21FF1F6B21FF1F6B21FF1F6B21FF1F6B21FF1F6B21FF1F3D
:201360006B21FF1F6B21FF1F6B21FF1F6B21FF1F6B21FF1F0000000000000000000000001B
:2013800000000000000000000000000000000000000000000000000000000000000000004D
:2013A00000000000000000000000000000000000000000000000000000000000000000002D
:2013C00000000000000000000000000000000000000000000000000000000000000000000D
:2013E0000000000000000000000000000000000000000000000000000000000000000000ED
:2014000072B6002000210022002300240025002600271F481F4901601F4880F30888FFE708
:201420001E4801680F22120511430160BFF34F8FBFF36F8FFFE71A48002809D019491A4A91
:20144000521A013A04DD0020002309C1083AFCDAFFE7134800280BD0144802C8013907DB59
:2014600038C82A1BFAD040CC40C3043AFBDCF5E7FFE70F4802C8013907DB18C8E21AFAD094
:20148000002520C3043AFCDCF5E762B609F03BF908ED00E0000000200000022088ED00E0A1
:2014A0000100000000000020000002209CD5FF1FD0D5FF1F4FF0780070472DE9004100F0E2
:2014C0007CFA00F0D1FA02F01AFA04F022F941F60878C2F2000898F80000012801D104F0D4
:2014E0005BFD07F05FFA00F0C4F8BDE800812DE910414FF0000404F0F9FC014641F6D01879
:20150000C2F20008D8F8000042F23412C7F6430290427ED14FF0000072E002464FEA82030B
:20152000A3EB02024FEAC20241F6DC13C2F200031A441278032A09D102464FEAC2020A44BD
:201540001278002A59D14FF0030464E002464FEA8203A3EB02024FEAC20241F6DC13C2F2B4
:2015600000031A441278062A09D102464FEAC2020A441278002A40D14FF006044BE0024662
:201580004FEA8203A3EB02024FEAC20241F6DC13C2F200031A441278042A08D102464FEAB1
:2015A000C2020A44127842BB4FF0040433E002464FEA8203A3EB02024FEAC20241F6DC137D
:2015C000C2F200031A441278052A08D102464FEAC2020A44127882B94FF005041BE0024681
:2015E0004FEA8203A3EB02024FEAC20241F6DC13C2F200031A441278082A00F10100C0B243
:2016000041F6D018C2F2000898F80620904284D301E04FF001042046BDE8108100B513F097
:2016200060F900BD00B504F088FC012805D102F0BCFB02F0CEF906F002FD00F01EFA06F013
:20164000CEFC01280BD140F26451C2F20001086800F10100086006F0F8FC02F0BAF906F0D0
:20166000EAFC00BD00B5FFF7DDFF00BD01460846704700B500F007F84FF0020002F067F900
:2016800008F0E0FC00BD2DE9704184B004F02EFC044604F030FC064604F032FC05464EF23D
:2016A0000011C0F2010141F6D010C2F200004FF4807202F0BAF805F011F9B0B348F2405194
:2016C000C1F6FF7141F6D010C2F200004FF4807202F0ABF84FF000001FE001464FEA81020D
:2016E000A2EB01014FEAC10141F6DC12C2F200021144097807290DD101464FEAC1012144FA
:201700004FF001020A704FEAC00020444FF00701C1700AE000F10100C0B241F6D018C2F217
:20172000000898F806108842D7D34AF20001C0F2011120464FF0640202F077F802944FF045
:20174000600003904FF000008DF80400684607F0C4FF4FF001008DF80400684607F0BDFF3C
:201760004FF002008DF80400684607F0B6FF0098216E884203D1206EB0F1FF3F74D1206E40
:20178000B0F1FF3F3AD100F07CF9012836D120464FF064024FF0000102F05AF84FF00000FC
:2017A0001FE001464FEAC10121444FF001020A7001464FEAC10141F63002C2F200020A4418
:2017C00001464FEA8103A3EB01014FEAC10141F6DC13C2F2000319440978D17000F101008C
:2017E000C0B241F6D018C2F2000898F806108842D7D34FF0010084F8500035E020464FF0BC
:2018000064024FF0000102F023F84FF000001FE001464FEAC10121444FF000020A7001462E
:201820004FEAC10141F63002C2F200020A4401464FEA8103A3EB01014FEAC10141F6DC138B
:20184000C2F2000319440978D17000F10100C0B241F6D018C2F2000898F806108842D7D359
:201860004FF0000084F850004CF20001C0F2011130464FF00C0201F0D8FF02964FF00800F0
:2018800003904FF000008DF80400684607F025FF4FF001008DF80400684607F01EFF4FF05A
:2018A00002008DF80400684607F017FF0098B168884203D1B068B0F1FF3F16D130464FF000
:2018C0000C024FF0000101F0C3FF0098B0604FF0000407E020464FF0000102F0D9F904F1D6
:2018E0000100C4B2002CF5D019E04FF0000414E020464FEA800030440068022805D342F21F
:201900001071204602F0C4F904E020464FF0000102F0BEF904F10100C4B2002CE8D04EF26E
:201920000001C0F2011128464FF49E7201F07DFF02954FF49C7003904FF000008DF8040073
:20194000684607F0CAFE4FF001008DF80400684607F0C3FE4FF002008DF80400684607F07C
:20196000BCFE0098D5F83811884204D1D5F83801B0F1FF3F19D128464FF49E724FF0000190
:2019800001F066FF48F2AE61C1F6FF7105F594704FF0050201F049FF40F20441C2F20001D8
:2019A00028464FF4927201F040FF28464FF4807107F064FA04B0BDE870812DE9004112F0A8
:2019C00091FE4BF63440C1F6FF7012F04AFF4FF0000012F05DFF4FF0000013F05CF94CF6DC
:2019E0003410C1F6FF7013F047FB4FF001014FF0900010F089FB4FF001014FF0600010F0C4
:201A000083FB4FF001014FF0650010F07DFB4FF001014FF0660010F077FB07F011FD40F25C
:201A20002858C2F2000898F80000552806D14AF66C20C1F6FF700BF0B0F905E04AF68C201F
:201A4000C1F6FF700BF0A9F94FF000000BF0C1F94FF001014FF000000BF0B3F906F0ADFA0B
:201A600001F097FEBDE8008100B500F0C1F900F0ABFC00BD4FF00000704700B508F019FB50
:201A800000BD4DF8048D4FF0000041F6D018C2F20008D8F8080000F1040001684FF0000024
:201AA00011E002464FEA8203A3EB02024FEAC20241F6DC13C2F200031A441278032A0AD0D4
:201AC00000F10100C0B241F6D018C2F2000898F806209042E5D341F6D018C2F2000898F81C
:201AE0000620904202D34FF000002FE002464FEA8203A3EB02024FEAC20241F6DC13C2F25C
:201B000000031A44926891421BD302464FEA8203A3EB02024FEAC20241F6DC13C2F2000337
:201B20001A444FEA8003A3EB00004FEAC00041F6DC13C2F200031844C06892681044814292
:201B400002D34FF0000001E04FF001005DF8048B704700B5826802F10402104603F03AFE9C
:201B6000024632B903F0A0FB4FF4FA6002F023F90AE0022A04D14FF0310002F0AFF803E022
:201B80004FF0220002F0AAF800BD2DE9F04106464FF0060504F0AAF9B06800F1040001F021
:201BA00084FE04462046FFF761FD0446B06800F1080001F07AFE07464FF0000650E03046A3
:201BC0004FEA8002A2EB00004FEAC00041F6DC12C2F2000210448068FFF748FD0246944254
:201BE0003BD3C4F1FF30B84237D330464FEA8003A3EB00004FEAC00041F6DC13C2F2000359
:201C00001844C0681044844227D207EB040330464FEA800CACEB00004FEAC00041F6DC1C3A
:201C2000C2F2000C6044C0681044834215D830464FEA8002A2EB00004FEAC00041F6DC1236
:201C4000C2F200021044C068874206D8002F04D9304603F005FE05460AE006F10100C6B28E
:201C600041F6D018C2F2000898F806008642A6D32846003805D0023802385BD902385ED027
:201C800062E030464FEAC00041F63002C2F200021044C078072831D14FF000060DE030460F
:201CA0004FEAC00041F63002C2F2000210444FF00002027006F10100C6B241F6D018C2F2C2
:201CC000000898F806008642E9D348F23858C1F6FF78D8F80000FFF7C9FC044648F238584B
:201CE000C1F6FF78D8F8040048F23858C1F6FF78D8F80020A0EB020000F10107394620468F
:201D000003F0EDFF03F0D0FA4EF6602002F053F841F29808C2F20008C8F8147041F2980880
:201D2000C2F20008C8F8104003F0EAFF80B14FF002050DE04FF0220001F0D0FF08E04FF04F
:201D4000310001F0CBFF03E04FF0720001F0C6FFBDE8F08100B501F03CFD4FF0000000BD5C
:201D6000F0B581B0054616461F464FF000040DF1010244F2A911C0F2C501304607F0D7F998
:201D800004463A4629460DF1010001F06FFD012801D04FF00104204601B0F0BD4FF0FF313D
:201DA0000160704730B44FF0000317E003EB01042478056884EA050404F0FF044FEA8404C3
:201DC00047F6A005C1F6FF752C4405684FEA1525246885EA0404046003F101039342E5D3BA
:201DE00030BC7047016881F0FF310160704700004DF8048D40F22858C2F2000898F800004A
:201E0000552814D148F2A800C1F6FF7040F26C58C2F20008C8F8000048F2D000C1F6FF70B6
:201E200040F26858C2F20008C8F8000013E048F2BC00C1F6FF7040F26C58C2F20008C8F8B3
:201E4000000048F20010C1F6FF7040F26858C2F20008C8F800005DF8048B70472DE9F041C2
:201E600083B007460E464FF0000540F26C58C2F20008D8F80040FFF71DFB3C284DD9B42814
:201E80004BD24FF0000246E010464FEA800108444FEA800020444088B84239D110464FEAEA
:201EA000800108444FEA8000204440680190E068013803D307D002380AD00DE0019840F007
:201EC0000040019008E0019840F04040019003E0019840F08040019030798DF802003068AA
:201EE000029010464FEA800108444FEA800020440088ADF80000694610464FEA8002104496
:201F00004FEA80002044007A0AF0A1FF054604E002F10100C2B2002AB6D0284603B0BDE883
:201F2000F0812DE9104140F26C58C2F20008D8F800204FF000012DE00B464FEA8304234462
:201F40004FEA830313441B88834220D1084603464FEA830003444FEA83031846104400699E
:201F6000D0B1084603464FEA830003444FEA8303184610440369084601464FEA81000144D5
:201F80004FEA8101084610444088984704E001F10101C9B20029CFD0BDE810812DE91001C5
:201FA0004FF001020369446803EA0403046904EA0104A34232D1C06805282FD80FF2040822
:201FC000D8E800F003090F181E27B1F1004F25D34FF0000222E0B1F1404F1FD34FF0000249
:201FE0001CE0B1F1004F19D3B1F1404F16D24FF0000213E0B1F1004F10D24FF000020DE0BA
:20200000B1F1004F0AD2B1F5806F07D34FF0000204E0B1F1804F01D24FF000021046BDE8DF
:20202000100170472DE9F04106460F4640F26858C2F20008D8F800404FF00102FFF73AFAC6
:202040003C2841D9B4283FD24FF000053AE0316828464FEA8002A2EB00004FEAC00020440B
:20206000FFF79CFF024628464FEA8001A1EB00004FEAC0002044007A317988421FD1F2B9ED
:2020800028464FEA8001A1EB00004FEAC00020444069C8B128464FEA8001A1EB00004FEA20
:2020A000C00020444269394628464FEA8003A3EB00004FEAC00020444088904704E005F144
:2020C0000100C5B2022DC2D3BDE8F081704770477047000010B44FF0000213E011464FEA01
:2020E0008103A3EB01014FEA810100F108030B4411464FEAC10100F120042144596002F14E
:202100000101CAB2022AE9D34FF0000101704FF0000141704FF0000181704FF00001C17015
:202120004FF00001416010BC7047F0B51C6805464FEA8506A6EB05054FEA850501F10806A5
:2021400035446D685E6807464FEA870CACEB07074FEA870701F1080C67443A804FEA8002C0
:20216000A2EB00004FEA800001F1080108445968816032462146284601F057FBF0BD30B50E
:2021800081B04FF00004C1784FEA8102A2EB01014FEA810100F1080211440D88C1784FEA35
:2021A0008102A2EB01014FEA810100F10802114401F10401407801281ED14FF000008DF877
:2021C00002004FF000008DF803000DF103030DF10202284600F000FCFF280DD09DF802003B
:2021E00000F0F000003802D0103803D004E04FF0000401E04FF00104204601B030BD10B5C5
:202200000446E0784FEA8001A1EB00004FEA800004F1080108440288E0784FEA8001A1EBAB
:2022200000004FEA800004F10801084400F104006178012917D10146104600F0E9F82078B5
:20224000012802D14FF000002070E07800F1010000F00100C0B2E070E078A178884202D1A8
:202260004FF00000607010BD10B504462078C0B913460A462146A078FFF757FF607810B94D
:202280004FF001006070A07800F1010000F00100C0B2A070A078E178884202D14FF0010063
:2022A000207010BDF0B581B005460C464FF000008DF802004FF000008DF8030020680078C1
:2022C00002280ED1206800F1010000783E2808D1206800F102000078802802D101F050FD18
:2022E0003EE00DF103030DF102022146284600F073FB064640F2A057C2F20007FF2E2FD02B
:202300009DF8020000F0F000003806D0103804D0103821D010381FD022E02246294640F2A1
:202320007050C2F20000FFF79FFF786A052817D130464FEA800108444FEA800048F23011EE
:20234000C1F6FF71084400884FF00B0101F07DFB384600F0FFFA03E02146284600F058F86F
:2023600001B0F0BD30B540F2A054C2F20004E56A6868002803D96868A0F10100686001F0FE
:2023800030FD90F82500012808D1606DD8B94FF000006860E06AFFF732FF14E0606D90B981
:2023A000606A80B9E06AFFF7EAFE60B1686850B901F01CFD38B94FF0000001F0E6F9A080DE
:2023C0004FF01000606230BD2DE9004140F27050C2F2000040F2A058C2F20008C8F82C0030
:2023E00040F2A058C2F20008D8F82C00FFF772FE40F2A050C2F2000000F1300000F0C9FAEB
:2024000040F2A050C2F2000000F0A4FABDE800812DE9704182B006460C464FF000008DF8D7
:2024200006004FF000008DF807000DF107030DF106022146304600F0CFFA05469DF8071030
:20244000FF2D00F059819DF8060000F0F000003808D010383AD0103800F0B480103800F005
:20246000D28049E19DF8062001F101006368A3EB00009042C0F04081002A00F03D81284650
:202480004FEA800318444FEA800048F23013C1F6FF73184463680069834200F22D8100913F
:2024A000D0B20346224628464FEA800108444FEA800048F23011C1F6FF710844014640F255
:2024C000A050C2F2000000F04BFB15E160680828C0F01281002E40F00F8128464FEA8002DA
:2024E00010444FEA800048F23012C1F6FF72104462680069824200F2FF809DF8060000F0E4
:202500000F004FEA002001F1010223681A441278024401F10200C1B22ABB2068084400780D
:202520004FEA006001F1010223681A4412784FEA024242EA000001F1020223681A44127888
:202540004FEA022242EA000001F1030223681A44127842EA000201F10400C1B2B2F5805F6B
:2025600001D24FF000026068082807D19DF80700C0F1080080B28242C0F0BE806068082846
:202580000AD960689DF80730A0EB0300A0F1010080B28242C0F0B08000911346224628460E
:2025A0004FEA800108444FEA800048F23011C1F6FF710844014640F2A050C2F2000000F061
:2025C0002BFB99E040F2A058C2F20008D8F82400052840F09180002E40F08E800B462246EF
:2025E00028464FEA800108444FEA800048F23011C1F6FF710844014640F2A050C2F20000A3
:2026000000F05FFB78E040F2A058C2F20008D8F85400062870D1606803286DD3002E6BD102
:202620009DF8060000F00F00C0B2A8B90B46224628464FEA8001A1EB00004FEAC00048F28D
:202640005811C1F6FF710844014640F2A050C2F2000000F0DEFB4FE09DF8060000F00F00EF
:20266000C0B2012828D14FF0060040F2A058C2F20008C8F8540040F2A058C2F20008D8F8D1
:202680005C00FF2838D84FF47A7001F07EF840F2A058C2F20008A8F8340040F2A058C2F27B
:2026A0000008D8F85C0000F1010040F2A058C2F20008C8F85C001FE09DF8060000F00F0059
:2026C000C0B2022818D128464FEA8001A1EB00004FEAC00048F25811C1F6FF71084400882A
:2026E0004FF0010101F0FAF940F2A050C2F2000000F1300000F04DF902B0BDE870812DE92A
:2027000030414FF0FF0140F2A054C2F200044FF0000222E013464FEA8305A5EB03034FEAFF
:20272000C30348F25815C1F6FF752B445B88834210D1636D082B0BD0636D0C2B08D0636D7C
:202740000E2B05D0636D0D2B02D0636D0F2B01D1114604E002F10102D2B2002ADAD0FF2904
:202760003CD0606D0F2800F287800FF20808D8E800F0C046838383838383838309838383DF
:202780001F09281F08464FEA8001A1EB00004FEAC00048F25811C1F6FF71084400884FF060
:2027A000000101F09BF904F1300000F0F2F863E04FF0060060654FF47A7000F0E6FFA0861F
:2027C0005AE094F8310084F858004FF0960000F0DCFFA0864FF0090060654DE000F02FFE11
:2027E0000146FF2948D0606A022808D14FF0050060624FF47A7000F0C8FFA0803CE0606A95
:20280000042816D108464FEA800108444FEA800048F23011C1F6FF71084400884FF00101E1
:2028200001F013F940F2A050C2F2000000F092F822E0606A112809D101F0F1FAE06A4FF403
:2028400048714160204600F085F815E008464FEA800108444FEA800048F23011C1F6FF71A7
:20286000084400884FF0010101F0EFF840F2A050C2F2000000F06EF8BDE830812DE9304162
:202880004FF0FF044FF0000313E01A464FEA8205A5EB02024FEAC20248F25815C1F6FF753E
:2028A0002A441288904201D11C4604E003F10102D3B2002BE9D0FF2C23D040F2A058C2F2CA
:2028C0000008D8F85420E2B940F2A052C2F2000202F130044968216120844FF00700606231
:2028E0004FF0000000F051FFA0804FF0010084F828004FF0000040F2A058C2F20008C8F870
:2029000024004FF00000BDE8308110B540F2A054C2F20004606D68B9606A0B280AD1608CA9
:202920004FF0000101F091F840F2A050C2F2000000F010F8204600F041FE012802D0204619
:2029400000F0D3FD012802D0204600F0BBFEFFF709FD10BD4FF0000101704FF000018180F2
:202960004FF0000181604FF0000181814FF0000101614FF0000181824FF0000181774FF098
:20298000000101844FF0000141844FF00001416270474FF0000101704FF0000181804FF0E1
:2029A000000181604FF0000181814FF0000101614FF0000181824FF0000181774FF0000196
:2029C00001844FF0000141624FF0000180F828104FF00001C1627047F0B44FF0FF064FF05E
:2029E00001054FF0000454E027464FEA870C67444FEA870748F2301CC1F6FF7C67447F8845
:202A0000874243D127464FEA870C67444FEA870748F2301CC1F6FF7C67447F68012F0BD1D8
:202A20004FF000051D701D780E6835442D78157026464FF0000529E027464FEA870C67447A
:202A40004FEA870748F2301CC1F6FF7C67447F68E7B927464FEA870C67444FEA870748F2E0
:202A6000301CC1F6FF7C6744D1F800C03F7A9CF800C067450AD14FF001051D701D780E6833
:202A800035442D78157026464FF0000504F10104E4B2022C01D2012DA6D0FF2E5DD14FF014
:202AA00001054FF0000455E027464FEA870CACEB07074FEAC70748F2581CC1F6FF7C674428
:202AC000BF88B84243D127464FEA870C67444FEA870748F2301CC1F6FF7C67447F68012F7C
:202AE0000BD14FF000051D701D780E6835442D78157026464FF0000529E027464FEA870C89
:202B000067444FEA870748F2301CC1F6FF7C67447F68E7B927464FEA870C67444FEA8707AE
:202B200048F2301CC1F6FF7C6744D1F800C03F7A9CF800C067450AD14FF001051D701D78AE
:202B40000E6835442D78157026464FF0000504F10104E4B20CB9012DA6D03046F0BC7047DA
:202B60002DE9F04405460C4692461E469DF8187007F10100C0B20746022E13D1DAF8000077
:202B8000384400783E280DD107F10100DAF8001008440078802805D16088012802D101F00B
:202BA000EFF837E0686A013802D328D0043831D1686A05280AD120884FF00B0100F045FF00
:202BC00040F2A050C2F20000FFF7C4FE4FF000000CE005F11601014400EB0702DAF80030F4
:202BE0001A4412780A7000F10100C0B2B042F0D3AE772E612946204600F04FF90AE0208807
:202C00004FF0010100F021FF40F2A050C2F20000FFF7A0FEBDE8F0842DE9F04405460C46F9
:202C200016461F469DF818A0686A013802D33BD0043844D1686A05280AD120884FF00B017D
:202C400000F003FF40F2A050C2F20000FFF782FE3079A0EB0A00C0B2A8774FF000000BE03D
:202C600005F11601014400EB0A0233681A4412780A7000F10100C0B2A97F8842F0D32F6165
:202C80004FF0010028707068A8624FF0000000F07CFDA8802946204600F026F9024629460F
:202CA000204600F0F3FA0AE020884FF0010100F0CCFE40F2A050C2F20000FFF74BFEBDE88A
:202CC000F0842DE9F04C4FF0000704462569A68AA5EB060516681E44367806F00F06F6B204
:202CE000B4464FF00106D2F804A0D4F828B0DA4509D205F1010A1FFA8AFAD2F804B0D34554
:202D000001D24FF00006012E40F081802678B4450BD008884FF0050100F097FE40F2A0504D
:202D2000C2F20000FFF716FE71E0267806F10106F6B22670267806F00F06F6B22670A66AB3
:202D4000A6F10106A6EB0306B6B2B54204D8EDB22E464FF0010706E0A56AA5F10105A5EB85
:202D60000305EDB22E464FF000051CE0D4F808C0B4F80CA0DCF800C0D44403EB050A0AF168
:202D8000010AD2F800B0DA449AF800A08CF800A0B4F80CC00CF1010C1FFA8CFCA4F80CC0AF
:202DA00005F10105EDB2B542E0D3A38A33449BB2A382238C03F101039BB22384012F12D10A
:202DC0004FF00B0262620A886284406DF8B908884FF0000100F039FE40F2A050C2F2000040
:202DE000FFF7B8FD13E0A06A526890420AD008884FF0010100F029FE40F2A050C2F2000007
:202E0000FFF7A8FD4FF47A7000F0BFFCA080BDE8F08C30B503F10204E4B2254603F1010326
:202E2000DBB200F130041068184400786080608810B94FF6FF7060801068284400787F286C
:202E400004D9106828440078F12804D3106828440078F92803D94FF07F00607011E01068F9
:202E6000284400787F2803D94FF00100607008E010682844007800F088FC00F10100C0B2BF
:202E80006070607884F828004FF0960000F07DFCA0804FF00900606230BD30B505460C460F
:202EA0002146284600F036F890B94FF00B00606228886084606DB0B928884FF0000100F020
:202EC000C4FD40F2A050C2F20000FFF743FD0AE0608C4FF0010100F0B8FD40F2A050C2F293
:202EE0000000FFF737FD30BD30B50C46214600F011F805461DB94FF00100606208E0012DEB
:202F000003D12046FFF726FD02E04FF003006062284630BD10B50C464FF00102A16831B9D1
:202F200004F108022169008800F059FD0246A06810B3A0684068A18988421DD94FF000024C
:202F40004FF0000115E0A068A3890068184404F116030B441B780370A38A03F1010398B272
:202F6000A082A38903F1010398B2A08101F10100C1B2A07F8142E6D3104610BD4FF000023B
:202F80008368012B02D14FF0010203E083680BB94FF002024369082B0CD94069A0EB020036
:202FA00080B20969814202D34FF002020DE04FF001020AE0C2F1090080B20969814202D381
:202FC0004FF0020201E04FF001021046704710B584B04FF00003019302AB00938368012B58
:202FE0000AD0836843B9019B009C2344047C1C70019B03F101030193013A0FD303D0023A11
:2030000005D308D00AE06A4600F00AF806E06A4600F059F802E06A4600F0E6F804B010BDBC
:20302000F0B506460F4614464FF0000007F13005B168012902D14FF0000003E0B16809B971
:203040004FF0010029690844072809D8606821680844297C0170606800F10100606012E023
:203060006068216808444FF000010170606800F101006060606821680844297C017060680D
:2030800000F101006060287C034622462946304600F091F901280CD121467088FEF7DEFE94
:2030A0004FF47A7000F071FBA8804FF00800686208E030884FF00A0100F010FD07F130003F
:2030C000FFF767FCF0BDF0B506460F46144607F130052869B0F5805F1DD26068216808447C
:2030E000296901F470614FEA1121C9B241F01001C9B20170606800F1010060606068216899
:203100000844296901F0FF01C9B20170606800F10100606041E06068216808444FF010016C
:203120000170606800F1010060606068216808444FF000010170606800F101006060606814
:20314000216808444FF000010170606800F1010060606068216808444FF000010170606859
:2031600000F101006060606821680844296901F470614FEA1121C9B20170606800F1010097
:203180006060606821680844296901F0FF01C9B20170606800F10100606070696168A0EBBC
:2031A0000100C0B2034622462946304600F003F901280FD121467088FEF750FE4FF001002F
:2031C00028704FF47A7000F0E0FAA8804FF00C00686208E030884FF00A0100F07FFC07F1D6
:2031E0003000FFF7D6FBF0BDF0B5044616464FF0000701F130052869A98AA0EB0100726849
:2032000031680A44297801F12001C9B21170726802F10102726061697268A1EB0201C9B2C7
:203220000A46904203D8C0B202464FF00107134632462946204600F0BEF8012F03D14FF001
:203240000D00686211E06888002804D96888A0F1010080B268806888002803D94FF00E00D4
:20326000686202E04FF00F006862287800F1010000F00F00C0B228704FF47A7000F085FA53
:20328000A88031466088FEF7E9FDF0BD70B584B0064614464FF000000D46694602914FF00D
:2032A000000103914FF0000315E01A464FEA8201A1EB02024FEAC202114648F25812C1F6E7
:2032C000FF721144728949888A4201D1184604E003F10101CBB2002BE7D07168012915D03F
:2032E000716899B9039A02990A444FEA8001A1EB00004FEAC00048F25811C1F6FF710844C8
:20330000007C1070039800F101000390F4B90398029908444FF030010170039800F10100F4
:2033200003900398029908444FF000010170039800F1010003900398029908444FF00001E5
:203340000170039800F10100039016E0022C0AD10398029908444FF031010170039800F1ED
:203360000100039009E00398029908444FF032010170039800F10100039002A800F050F869
:2033800002A97089FEF76AFD4FF47A7000F0FDF9A8801CB94FF0020068620AE0032C03D125
:2033A0004FF00400686204E0022C02D14FF01100686204B070BDF0B50C4615461F464FF02A
:2033C0000006A16821B904F10801008800F059FBA06800B34FF0000119E06A68286802449E
:2033E000A068A3890068184400781070A28A02F1010290B2A0826A6802F101026A60A2899A
:2034000002F1010290B2A08101F10100C1B2B942E3D34FF00106284600F002F83046F0BD7B
:2034200009E04168026811444FF000020A70416801F10101416041680829F2D3704770B4C8
:203440004FF0FF034FF0FF024FF0000113E00C464FEA8405A5EB04044FEAC40448F2581564
:20346000C1F6FF752C446488A04201D10A4604E001F10101C9B20029E9D0FF2A32D04FF022
:2034800000012DE00C464FEA84052C444FEA840448F23015C1F6FF752C446489A0421CD103
:2034A0000C464FEA84052C444FEA840448F23015C1F6FF75254414464FEA8406A6EB0404FE
:2034C0004FEAC40448F25816C1F6FF7634446D88A488A54201D10B4604E001F10101C9B221
:2034E0000229CFD3184670BC704770B504464FF0000694F85800002825D994F85800A0F18B
:203500000100C0B284F8580094F85800D8B94FF0000516E028464FEA8001A1EB00004FEAC8
:20352000C00048F25811C1F6FF710844B4F850100088814202D14FF0010604E005F101006A
:20354000C5B2002DE6D0012E36D1606D073813D0023831D1214628464FEA8002A2EB000093
:203560004FEAC00048F25812C1F6FF7210444FF00302FFF72CFD1FE004F1300128464FEA03
:203580008002A2EB00004FEAC00048F25812C1F6FF721044FFF7F2FC0246214628464FEAC9
:2035A0008003A3EB00004FEAC00048F25813C1F6FF731844FFF70BFD304670BD10B54FF032
:2035C0000004818800291ED98188A1F1010189B281808188B9B94FF0000212E011464FEAA7
:2035E000810319444FEA810148F23013C1F6FF731944498811B94FF0010404E002F1010174
:20360000CAB2022AEAD3012C5AD1416A043905D202312CD83CD0013107D051E0013937D967
:203620000B3913D0013933D04AE0014610464FEA800210444FEA800048F23012C1F6FF72F3
:2036400010444FF00002FFF721FE39E0014610464FEA800210444FEA800048F23012C1F60F
:20366000FF7210444FF00202FFF710FE28E0014610464FEA800210444FEA800048F2301255
:20368000C1F6FF7210444FF00302FFF7FFFD17E010464FEA800108444FEA800048F23011F1
:2036A000C1F6FF71084400884FF0010100F0CDF940F2A050C2F20000FFF74CF900F0AFFB6D
:2036C000204610BD30B504464FF00005A08E002822D9A08EA0F1010080B2A086A08ED8B91C
:2036E0004FF0000116E008464FEA8002A2EB00004FEAC00048F25812C1F6FF721044B4F839
:2037000050200088824202D14FF0010504E001F10100C1B20029E6D0012D34D1606D06386E
:2037200004D0023818D0043803382CD808464FEA8001A1EB00004FEAC00048F25811C1F631
:20374000FF71084400884FF0010100F0C7F904F13000FFF71EF916E008464FEA8001A1EB78
:2037600000004FEAC00048F25811C1F6FF71084400884FF0010100F0B1F904F13000FFF7BC
:2037800008F900F0FFF9284630BD00F1010080B2704700B54FF000000EF004FC00BD0164F6
:2037A0004A6A82608A6AC260CA6A02610A6B42614A6B82618A6BC261CA6B026201F1400231
:2037C00042624A6C826201F14802C262C96C016370472DE9704105460E4640F27431C2F20A
:2037E000000140F24060C2F20000FFF7D8FF4FF0070040F24068C2F20008C8F8340040F273
:203800004061C2F200014FF000000EF002FC0446324640F24068C2F20008D8F82010284651
:2038200000F003F82046BDE8708130B403460C46154609E053B14CB12078187003F10103C5
:2038400004F10104A5F10105002DF3D830BC704710B40346144605E033B1197003F1010386
:20386000A4F10104002CF7D810BC704770B44FF0010503460C46164692B94FF0000511E050
:203880004BB144B118782178884204D103F1010304F1010402E04FF0000503E0A6F10106D6
:2038A000002EEDD8284670BC704701784FEA016100F1010212784FEA0242114400F102026B
:2038C00012784FEA0222114400F1030000780144084670474FEA1062D2B20A7001F1010258
:2038E0004FEA1043DBB2137001F102024FEA1023DBB2137001F10301C0B2087070472DE90D
:2039000000414FF0020000F04BF94FF0010000F07AF900F0D1FC40F68400C2F2000040F2F1
:20392000C068C2F20008C8F8080040F2F460C2F2000040F2C068C2F20008C8F8180000F0C3
:20394000ECF800F01FF900F0EEFCBDE800812DE9004100F025F94FF0000040F2C068C2F2C9
:203960000008A8F8040040F2C068C2F20008D8F808004FF03101017040F2C068C2F20008B5
:20398000D8F8081001F101014FF00100087040F2C068C2F20008D8F8081001F102014FF061
:2039A0000300087040F2C068C2F20008D8F8081001F103014FF0010008704FF0080040F267
:2039C000C068C2F20008C8F80C0000F047FABDE8008100B500F09BFC00F0FDFA00BD2DE9EA
:2039E00010014FF0000340F2C068C2F20008D8F8004024BB08B1012821D1B1F5006F1BD893
:203A00004FF0010440F2C068C2F20008C8F8004040F2C068C2F20008A8F8040040F2C06838
:203A2000C2F20008C8F80C1040F2C060C2F2000000F10800106004E04FF0030301E04FF036
:203A400001031846BDE8100170472DE9004140F2C068C2F20008D8F80020012A0FD151B925
:203A600040F2C068C2F20008B8F80410884202D100F0F4F903E000F085F800F04EF8BDE8C7
:203A800000812DE900414FF0000240F2C068C2F20008D8F81030022B17D140F2C068C2F2C4
:203AA0000008B8F8143098420FD140F2C060C2F2000000F1180008604FF0010040F2C0683F
:203AC000C2F20008C8F8100005E000F05BF800F024F84FF001021046BDE800812DE9004111
:203AE000B9B940F2C068C2F20008B8F8141088420FD140F2C068C2F2000898F8250040B9FC
:203B00004FF0000040F2C068C2F20008C8F8100001E000F002F8BDE800812DE900414FF0F9
:203B2000000040F2C068C2F20008C8F820004FF0000040F2C068C2F20008C8F810004FF02B
:203B4000000040F2C068C2F2000888F824004FF0010040F2C068C2F2000888F8250000F0C0
:203B6000EFFA00F0B6FA41F28408C2F2000898F80000012802D100F078FA01E000F000F989
:203B8000BDE800812DE900414FF0000040F2C068C2F20008C8F8000000F04EF9BDE8008136
:203BA0004DF8048D41F28408C2F2000888F800005DF8048B70474DF8048D41F28408C2F250
:203BC000000898F800005DF8048B70472DE930014FF000034FF000020FE002EB000441F2D5
:203BE0008408C2F2000898F800502478A54201D14FF0010302F10102D2B28A42EDD31846A1
:203C0000BDE8300170474DF8048D41F28408C2F2000888F804005DF8048B70474DF8048DD1
:203C200041F28408C2F2000898F804005DF8048B70474FF0010201464FEA8101084641F215
:203C40008C01C2F2000108440068002801D94FF00002104670472DE930014FF000034FF056
:203C600000020FE002EB000441F28408C2F2000898F804502478A54201D14FF0010302F178
:203C80000102D2B28A42EDD31846BDE83001704702464FEA8202104641F28C02C2F2000254
:203CA0001044016070474DF8048D41F28408C2F20008A8F802005DF8048B70472DE90041B3
:203CC0004FF0010040F2C068C2F2000888F8250000F091FAFFF756FFBDE800812DE90041A6
:203CE00040F2C068C2F20008D8F81810782807D04FF0010240F2C068C2F2000888F8252022
:203D00004FF07F020A7001F1010240F2C068C2F20008D8F808301B78137001F102010870D3
:203D20004FF0030040F2C068C2F20008C8F81C0000F061FA40F2C068C2F2000898F8250039
:203D4000012801D1FFF71EFFBDE8008110B50446A4B959B101290DD1112A0BD0122A09D086
:203D6000312A07D07E2A05D07F2A03D01046FFF7B5FF03E0FFF706FFFFF7CFFE204610BD44
:203D80004DF8048D41F28408C2F2000898F80000012807D041F2883040F2C068C2F2000841
:203DA000A8F826005DF8048B704700B54FF0010000F00CF800BD4DF8048D40F2C068C2F218
:203DC0000008C8F830005DF8048B70474DF8048D40F2C068C2F20008A8F828005DF8048BB8
:203DE000704740F2C060C2F2000070474DF8048D4FF0000040F2C068C2F20008D8F8101034
:203E000041B94FF0010140F2C068C2F20008C8F8101001E04FF001005DF8048B70474DF870
:203E2000048D4FF0000040F2C068C2F20008C8F810005DF8048B70474FF000000AE040F6D2
:203E40008401C2F2000101444FF0FF020A7000F1010080B2B0F5006FF1D370472DE900411F
:203E60004FF0020040F2C068C2F20008C8F800004FF01900FFF7AAFF00F038F900F0F5F836
:203E80004FF0010040F2C068C2F2000888F824004FF0000040F2C068C2F2000888F825002E
:203EA000BDE800812DE930414FF0000448F2D410C1F6FF704FF000012EE040F2C068C2F272
:203EC0000008D8F808200378127893421FD140F2C068C2F20008B8F8041021B9417801F0BA
:203EE0000101C9B261B940F2C068C2F20008B8F80410012912D1417801F00201C9B269B102
:203F000040F2C068C2F20008C8F8200006E000F1180001F10101C9B20A29CED340F2C0681F
:203F2000C2F20008D8F82000002844D040F2C068C2F20008D8F820000069E0B340F2C0683D
:203F4000C2F20008D8F82000817840F2C068C2F20008D8F820004068FFF738FE054640F265
:203F6000C068C2F20008D8F82000017A40F2C068C2F20008D8F82000C068FFF76CFE15B996
:203F80004FF07F0419E010B94FF0330415E040F2C068C2F20008D8F82000026940F2C0606F
:203FA000C2F2000000F11000014640F2C060C2F20000904701E04FF0110454B1224640F254
:203FC000C068C2F20008B8F804104FF00000FFF7BDFEBDE830812DE9004181B040F2C06811
:203FE000C2F20008D8F81000E0BB40F2C068C2F2000898F8240001280AD14FF0000040F24B
:20400000C068C2F2000888F82400FFF74BFF29E040F2C068C2F2000898F8250010BB0DF13B
:20402000030001F0F3FD01281CD140F2C068C2F20008D8F820004069A0B140F2C068C2F278
:204040000008D8F82000436940F2C060C2F2000000F11000024640F2C061C2F200019DF8D0
:204060000300984701B0BDE800814DF8048D4FF0000040F2C068C2F20008A8F826005DF841
:20408000048B70472DE9004140F2C068C2F20008B8F8260000281AD940F2C061C2F2000174
:2040A000C88CA0F1010080B2C88440F2C068C2F20008B8F82600012809D14FF0000040F23C
:2040C000C068C2F20008A8F82600FDF7A7FABDE800814DF8048D6FF0FE0040F2C068C2F23A
:2040E0000008C8F82C005DF8048B70474DF8048D4FF0000040F2C068C2F20008C8F82C001A
:2041000041F2883040F2C068C2F20008C8F830005DF8048B70474DF8048D40F2C068C2F22F
:204120000008D8F82C00002807DB40F2C061C2F20001C86A00F10100C8625DF8048B704780
:204140004DF8048D4FF0000040F2C068C2F20008A8F828005DF8048B70472DE900414FF03B
:20416000000140F2C068C2F20008B8F8280000283FD940F2C062C2F20002108DA0F10100D7
:2041800080B2108540F2C068C2F20008B8F8280040B940F2C068C2F20008D8F8100008B9BA
:2041A0004FF0010140F2C068C2F20008D8F82C00002818DB40F2C068C2F20008D8F82C007F
:2041C00040F2C068C2F20008D8F8302090420AD201290ED14FF07800FFF780FD41F28830DD
:2041E000FFF7F4FD05E04FF01000FFF777FDFFF770FFBDE800812DE900414FF0020040F2E5
:20420000C068C2F20008C8F810004FF0000040F2C068C2F20008A8F8140040F2C060C2F2DB
:20422000000000F11800014640F2C068C2F20008B8F81400FEF722FBBDE8008130B501F046
:204240005AFE05464FF0000433E020464FEA800041F28C01C2F2000108440068002825D9F7
:2042600020464FEA800041F28C01C2F2000101440868A0F10100086020464FEA800041F2A9
:204280008C01C2F200010844006878B920464FEA800028440068022808D320464FEA8000E0
:2042A00028444FF00001016001F07CFD04F10100C4B2002CC9D030BD4DF8048D4FF0000054
:2042C00041F28408C2F20008A8F802005DF8048B70472DE9004141F28408C2F20008B8F8A4
:2042E0000200002811D941F28401C2F200014888A0F1010080B2488041F28408C2F2000866
:20430000B8F8020008B9FDF789F9BDE8008100B5FFF794FFFFF7B6FEFFF71FFFFFF7FBFEA3
:20432000FFF7D7FF00BD4DF8048D4FF0010041F29808C2F2000888F805004FF0000041F258
:204340009808C2F2000888F804004FF0000041F29808C2F20008C8F800004FF0000041F27D
:204360009808C2F2000888F806004FF0000041F29808C2F20008C8F80C004FF0000041F24F
:204380009008C2F2000888F800004FF0000041F29808C2F20008C8F810004FF0000041F239
:2043A0009808C2F20008C8F814004FF0000041F29808C2F20008C8F808004FF0000041F2C5
:2043C0009808C2F2000888F818005DF8048B70472DE9F04D04460D464FF0010A4FF0000BCA
:2043E0004FF000064FF00007A06800F10100007800F08000002801DD4FF0000AA06800F108
:204400000100007800F07F00C0B201464FF0000019E002464FEA021248F2C423C1F6FF73E4
:204420001A44127891420BD14FEA001048F2C422C1F6FF7200EB02070E464FF0010B04E0DD
:2044400000F10100C0B20228E3D3E1684FF0020000F04FFF012805D1A18858464FF0120237
:20446000FFF774FC012808D179787868FFF7AEFBA1884FF07E02FFF769FC012804D1E168DA
:204480004FF0020000F028FF012803D1397AF86800F03CFF01287FD14FF0000041F2900806
:2044A000C2F2000888F800004FF00000FFF7ABFBFFF781FB07463046FFF772FB01F025FD3A
:2044C000BAF1010F5CD1A8684FF050010170A86800F10100A16801F1010109780170022EC2
:2044E0002ED1A86800F102004FF000010170A86800F103004FF01901017001F045F94FF0CD
:20450000000041F29808C2F20008C8F808004FF0000041F29808C2F2000888F804004FF0B3
:20452000000041F29808C2F20008C8F80C004FF0000041F29808C2F2000888F806000DE0DF
:20454000012E0BD1A86800F102004FF000010170A86800F103004FF032010170A86800F1B4
:2045600004004FF001010170A86800F105004FF0F40101704FF00600E860FFF79FFB03E0DA
:20458000FFF700FBFFF7C9FA022F05D1012E03D14FF00A00FFF787FBBDE8F08D2DE9F04C32
:2045A00004460F464FF000064FF001004FF0010B4FF00005A16801F10101097801F0800158
:2045C000002901DD4FF0000BA16801F10101097801F07F01C9B28A464FF0000118E00A46C8
:2045E0004FEA021248F2E423C1F6FF731A44127892450AD14FEA011148F2E422C1F6FF72B7
:2046000001EB02054FF0010604E001F10101C9B20029E4D0012E08D169786868FFF7D6FAB2
:20462000A1884FF07E02FFF791FB012804D1E1684FF0020000F05DFE012805D1A18830469F
:204640004FF01202FFF782FB012801D100F07EFE012804D1E1684FF0020000F03DFE012851
:2046600003D1297AE86800F051FE012819D1BBF1010F0ED1B8684FF051010170B86800F153
:20468000010080F800A04FF00200F860FFF716FB03E0FFF777FAFFF740FA4FF00A00FFF7A8
:2046A00002FBBDE8F08C2DE9F04F94B005468B464FF000044FF000098DF801904FF000093E
:2046C000CDF804904FF00006E9684FF0030000F010FE8246BAF1010F0BD1E86800F001000B
:2046E00038B9A9884FF013024FF00000FFF72EFB8246E868A0F101004FEA5008CDF8048062
:20470000E868A0F101004FEA500012280BD3E868A0F1010000F0010028B94FF01300FFF71A
:20472000DDFA4FF0000ABAF1010F59D14FF0000A4FF0000050E001464FEA410101F1010106
:20474000AA68114409784FEA012189B202464FEA420202F10202AB681A441278114489B294
:204760004FF0000728E03A464FEA8203A3EB02024FEA820248F2F423C1F6FF731A441288EC
:20478000914217D131464FEA810102AA11443A464FEA8203A3EB02024FEA820248F2F4234D
:2047A000C1F6FF731A440A6006F101018EB24FF0010A03E007F10107122FD4D3BAF1010FFF
:2047C00008D0A9884FF031024FF00000FFF7BEFA824605E000F10100DDF804804045AAD377
:2047E000BAF1010F1AD14FF0000715E0BAF1010F14D138464FEA800002A9084400688178A9
:2048000038464FEA800002AA10440068406800F07DFD824607F10107B742E7D3BAF1010FB1
:2048200002D100F093FD8246BAF1010F6BD14FF0000753E038464FEA800002A90844006857
:204840008068A0B304F10100DBF80810084439464FEA810102AA1144096809884FEA212138
:20486000C9B2017004F10200DBF80810084439464FEA810102AA11440968098801F0FF01F0
:20488000C9B2017038464FEA800002A90844006882680DF1020104F10300DBF8083018444C
:2048A00090478DF80100BDF80200204484B29DF80180B8F1000F02D04FF0000A10E004F17C
:2048C000020084B2B4F5C87F06D34FF01400FFF705FA4FF0000A03E007F10107B742A9D3EE
:2048E000BAF1010F0FD19DF80180B8F1000F0AD1DBF808004FF06201017004F10100CBF8CD
:204900000C00FFF7DBF914B0BDE8F08FF0B505464FF000064FF00004A86800F101000078E7
:204920004FEA002080B2AA6802F102021278104480B24FF0000219E013464FEA031348F2B7
:20494000E837C1F6FF773B441B8898420BD110464FEA001048F2E832C1F6FF7200EB020427
:204960004FF0010604E002F10102D2B20B2AE3D3E9684FF0040000F0BCFC012805D1A9883C
:2049800030464FF03102FFF7E1F9012805D1E968608800F1030000F09FFC012803D1217911
:2049A000A06800F0B3FC012801D100F0CFFC012816D1E06830B1E2686188A86800F103002A
:2049C000904701E04FF001000B2804D14FF02200FFF784F904E018B14FF07200FFF77EF938
:2049E000F0BD2DE9F04C04468B464FF0000A4FF00006A06800F1010007784FF000002FE048
:204A000001464FEAC102A2EB01014FEA810148F2CC32C1F6FF72114409788F420ED00146DD
:204A20004FEAC102A2EB01014FEA810148F2CC32C1F6FF72114489788F420ED14FEAC001D0
:204A4000A1EB00004FEA800048F2CC31C1F6FF7100EB01064FF0010A04E000F10100C0B22F
:204A60000028CDD0E1684FF0020000F042FC0546012D06D1A18850464FF01202FFF766F902
:204A80000546012D32D1307900F06BFC82463078874219D14FF00200E16800F01DFC054699
:204AA000012D09D15046FFF7C4F828B94FF03700FFF714F94FF00005012D17D15A462146EB
:204AC000304600F06DFC11E0B07887420ED1F07800F1020080B2E16800F0FEFB0546012D0E
:204AE00004D15A462146304600F0ADFCBDE8F08CF0B504460E464FF000074FF00005A068D5
:204B000000F1020000784FEA002080B2A16801F103010978084480B24FF000021FE011460A
:204B20004FEAC10319444FEA810148F29843C1F6FF731944098888420ED110464FEAC0013B
:204B400008444FEA800048F29841C1F6FF7100EB01054FF0010704E002F10101CAB2042A5B
:204B6000DDD3E1684FF0040000F0C3FB012805D1A18838464FF03102FFF7E8F8012808D15B
:204B80002979A868FFF722F8A1884FF03102FFF7DDF8012803D1297B286900F0B7FB0128F0
:204BA00010D1A06800F1010000780246297DA86900F0B7FB30B9A1884FF012024FF000005D
:204BC000FFF7C4F8012805D1E168688800F1040000F082FB01281FD1B0684FF07101017036
:204BE000B06800F10100A16801F1010109780170B06800F10200A16801F1020109780170C1
:204C0000B06800F10300A16801F1030109780170EA69314620469047F0BD2DE9F04D81B05F
:204C20000446009148F22857C1F6FF77E1684FF0050000F05EFB05464FF0000041F2980880
:204C4000C2F2000888F824004FF00000012D34D1A26802F1010292F800A0A26802F1020257
:204C600092F800B04FF000061CE032464FEAC2023A441278924512D132464FEAC2023A448F
:204C8000527893450BD14FF0010032464FEAC20248F22853C1F6FF7302EB030704E006F131
:204CA0000102D6B2022EE0D338B9A1884FF031024FF00000FFF74AF80546012D05D1E168EB
:204CC0004FF00B0000F008FB0546012D55D1A06800F10300FEF7E9FD07463846FCF7C6FCA1
:204CE0000746A06800F10700FEF7DFFD0146384600F0A4FE0746052F06D14FF03100FEF782
:204D0000EDFF4FF0000538E030464FEAC00048F22852C1F6FF721044817830464FEAC00044
:204D200048F22852C1F6FF721044406800F0EEFA012802D04FF000051FE0022F0ED041F243
:204D40009808C2F20008D8F8080038B941F29808C2F2000898F80600012806D14FF02200A8
:204D6000FEF7BCFF4FF0000507E0082F05D14FF07000FEF7B3FF4FF00005012D14D1BAF1F3
:204D8000000F07D1BBF1440F04D10099204600F0DDFB09E0BAF1100F06D1BBF1440F03D134
:204DA0000099204600F03AFC01B0BDE8F08D2DE9F04D06468B464FF0000041F29808C2F2C5
:204DC000000898F80440F1684FF0030000F091FA8246BAF1010F3CD1B06800F101000778C8
:204DE000F068A0F1020501F09DF841F29808C2F2000898F80610012908D1012F06D04FF0C0
:204E00007300FEF76BFF4FF0000A22E0BC4220D1F8B103281DD041F29808C2F20008D8F866
:204E20000C00A84215D1DBF808004FF076010170DBF8080000F10100B16801F10101097839
:204E400001704FF00200CBF80C00FEF737FF4FF0000ABAF1010F19D1294641F29808C2F2C2
:204E60000008D8F8000000F087FE022806D14FF02400FEF733FF4FF0000A07E0052805D127
:204E80004FF07100FEF72AFF4FF0000ABAF1010F0ED16FB941F29808C2F2000898F8060014
:204EA000012805D14FF07300FEF718FF4FF0000ABAF1010F0FD1FF2C02D14FF0000402E02E
:204EC00004F10100C4B2BC4205D04FF07300FEF705FF4FF0000ABAF1010F46D1F068A0F1E4
:204EE000020500F0E1F941F29808C2F20008D8F80800012822D12946B06800F1020000F0F4
:204F00000EFE41F29808C2F2000898F8241031B941F29802C2F2000211682944116068B94D
:204F20004FF0000041F29808C2F2000888F8060041F29808C2F2000888F80440BAF1010F0F
:204F400013D141F29808C2F20008C8F80C504FF0000041F29808C2F2000888F8060041F23B
:204F60009808C2F2000888F80440BDE8F08D2DE9304105460C464FF0010100F0D3FF02289E
:204F800006D1E9684FF0010000F0A6F9014605E04FF02400FEF7A2FE4FF00001012929D192
:204FA00000F010FE014609BB4FF0000041F29808C2F20008C8F808004FF0000041F2980840
:204FC000C2F2000888F80400A0684FF0770101704FF00100E0604FF0000041F29808C2F21B
:204FE0000008C8F80C00FEF769FE03E04FF02400FEF774FEBDE83081F0B504460D464FF0FD
:2050000000064FF00107A06800F10100007800F08000002801DD4FF00007A06800F101001B
:20502000007800F07F00C0B201464FF000000DE048F2D212C1F6FF7202441278914202D1E8
:205040004FF0010604E000F10100C0B20028EFD0E1684FF0020000F04CF9012805D1A188F4
:2050600030464FF01202FEF771FE012804D1E1684FF0020000F030F9012817D1012F11D13F
:20508000A8684FF07E010170A86800F10100A16801F10101097801704FF00200E860FEF762
:2050A0000DFE03E0FEF76EFDFEF737FDF0BD10B5C8B990684FF06E030370936803F1010378
:2050C0008C6804F1010420781870936803F102038C6804F10204207818704FF00300D0604D
:2050E000FEF7ECFD03E04FF07200FEF7F7FD10BD2DE9F04104460E4615464FF00000B168F0
:2051000001F1020109784FEA0122B16801F103010978114489B20F464FF000021EE01146B2
:205120004FEAC10319444FEA810148F29843C1F6FF73194409888F420DD110464FEAC0012F
:2051400008444FEA800048F29841C1F6FF7101444FF0010004E002F10101CAB2042ADED357
:2051600001284FD1086A20B10B6A2A463146204698474CBB384640F21228B0EB080005D099
:205180004FF6EE48B0EB080017D041E04FF0010041F29808C2F2000888F81800A86800F181
:2051A00004004FF010010170A86800F105004FF00001017002F095FA2AE0A86800F10400E3
:2051C0004FF01001017023E0384640F21228B0EB080005D04FF6EE48B0EB08000BD017E0B9
:2051E000A86800F104004FF010010170A86800F1050004700CE0A86800F104004FF011012D
:20520000017005E0A86800F104004FF001010170A8684FF071010170A86800F10100B16834
:2052200001F1010109780170A86800F10200B16801F1020109780170A86800F10300B16868
:2052400001F1030109780170384640F21228B0EB080005D04FF6EE48B0EB080004D006E02C
:205260004FF00600E86002E04FF00500E860FEF725FDBDE8F08110B588B990684FF0760350
:205280000370936803F101038C6804F10104207818704FF00200D060FEF710FD03E04FF005
:2052A0007200FEF71BFD10BD00B54FF07800FEF715FD41F28830FEF789FD07E002F08FFE63
:2052C000012801D102F0C1FE02F0B5FEFEF789FD00690028F2D100BD10B54FF00104814225
:2052E00005D04FF000044FF01300FEF7F7FC204610BD10B54FF00104814205D24FF0000443
:205300004FF01300FEF7EAFC204610BD10B5FEF7A2FC04461CB94FF03300FEF7DFFC20460E
:2053200010BD30B44FF000044FF0000309E003EB00052D78AA4201D14FF0010403F10103BC
:20534000DBB28B42F3D3204630BC704700B54FF0010018B94FF02200FEF7C0FC4FF001000C
:2053600000BD10B44FF0FF034FF0000213E011464FEAC104A4EB01014FEA810148F2CC345C
:20538000C1F6FF7421440979884201D1134604E002F10101CAB2002AE9D0184610BC7047EE
:2053A0002DE9F04104460F4615464FF00106FEF735FC217981420BD1627841F29000C2F2B6
:2053C000000000F103004FF00001FEF741FA17E04FF0010041F29008C2F2000888F800002B
:2053E000207841F29008C2F2000888F801006269617841F29000C2F2000000F10300904727
:20540000012E1ED1A8684FF067010170A86800F10100B96801F1010109780170627841F230
:205420009000C2F2000000F103000146A86800F10200FEF7FAF9607800F10200E860FEF7FA
:205440003DFCBDE8F0812DE9F04504460E46924600F051FD05462079FFF783FF074641F222
:205460009008C2F2000898F801002178884267D141F29008C2F2000898F8000001285FD13C
:205480004FF0000041F29008C2F2000888F80000D4F818C0637841F29000C2F2000000F1DF
:2054A00003000246E178B06800F10200E04730BB38464FEA80002844006840B138464FEA78
:2054C000800028444FF00001016000F06BFC2079FEF799FBDAF808004FF067010170DAF802
:2054E000080000F10100B16801F10101097801704FF00200CAF80C00FEF7E0FB24E0384652
:205500004FEA800000EB0501086800F10100086000F048FC38464FEA8000284400680228AE
:2055200004D24FF03500FEF7D9FB0DE042F210713846FEF7ADFB4FF03600FEF7CFFB03E084
:205540004FF02400FEF7CAFBBDE8F0852DE9304105460C464FF0000041F29808C2F2000822
:2055600088F818004FF0010041F29808C2F2000888F806004FF0000041F29808C2F2000870
:2055800088F804004FF0010041F29808C2F20008C8F80800A86800F10300FEF786F941F245
:2055A0009808C2F20008C8F8000041F29808C2F20008D8F80000FCF759F841F29808C2F2A5
:2055C0000008C8F80000A86800F10700FEF76DF9014641F29808C2F20008D8F8000000F00A
:2055E000D4F9A0684FF074010170A06800F101004FF020010170A06800F102004FF00801A3
:205600000170A06800F103004FF0000101704FF00400E060FEF752FBBDE830812DE93041CA
:2056200005460C4604F07DFD4FF0000041F29808C2F2000888F818004FF0010041F29808E6
:20564000C2F2000888F824004FF0010041F29808C2F2000888F806004FF0000041F2980883
:20566000C2F2000888F804004FF0010041F29808C2F20008C8F80800A86800F10300FEF75A
:2056800014F941F29808C2F20008C8F8000041F29808C2F20008D8F80000FBF7E7FF41F244
:2056A0009808C2F20008C8F80000A86800F10700FEF7FBF8014641F29808C2F20008D8F838
:2056C000000000F062F9A0684FF074010170A06800F101004FF020010170A06800F102008C
:2056E0004FF008010170A06800F103004FF0000101704FF00400E060FEF7E0FABDE830819C
:205700004FF0000070474FF0000070474FF0000070472DE900414FF0000041F25018C2F2C2
:20572000000888F868064FF0010041F25018C2F2000888F800004FF000000AE041F252119D
:20574000C2F2000101444FF000020A7000F10100C0B20A28F2D341F2D000C2F200004FF043
:2057600080024FF00001FEF773F800F00DF848F25068C1F6FF78D8F8041040F2E030C2F218
:2057800000008847BDE800812DE900414FF0000041F25018C2F20008C8F8600601F0A1FF70
:2057A0004FF0000041F25018C2F20008C8F864064FF0000041F2BC78C2F20008C8F8040003
:2057C0004FF0000041F2BC78C2F20008C8F80000BDE800812DE9104104464FF0000041F25E
:2057E0005018C2F2000898F80010012901D101F023FA41F25018C2F20008C8F8184041F239
:205800005018C2F2000898F86816022922D208BB41F25012C2F2000292F8681601F101012D
:20582000C9B282F8681641F25018C2F20008C8F818404FF0030141F25018C2F20008C8F82C
:2058400064164FF0000141F25018C2F2000888F8011003E0FFF798FF4FF00200BDE81081BF
:205860002DE9304104464FF0000541F6D018C2F2000898F80600844280F0828020464FEACB
:205880008001A1EB00004FEAC00041F6DC11C2F20001084441F63008C2F20008D8F854107E
:2058A000408881420ED320464FEA8001A1EB00004FEAC00041F6DC11C2F2000108444088EA
:2058C00000285AD120464FEAC00041F63001C2F2000108444FF0000101704FF0000041F686
:2058E0003008C2F2000888F8500020464FEAC00041F63001C2F20001014420464FEA800202
:20590000A2EB00004FEAC00041F6DC12C2F2000210440078C87020464FEAC00041F630015B
:20592000C2F2000108444FF0FF31416001F0D9FE41F25018C2F2000888F80C4041F25018D0
:20594000C2F2000898F80C0041F25211C2F2000108444FF0000101704FF0000041F25018CD
:20596000C2F2000888F801004FF0010041F25018C2F20008C8F8640604E04FF0010501E01F
:205980004FF006052846BDE830812DE900414FF0000341F25018C2F20008C8F8100041F206
:2059A0005018C2F20008C8F814104FF0000041F25018C2F2000888F8680641F25018C2F20C
:2059C000000898F81C204FEA820002444FEAC202104641F27011C2F2000100EB010241F215
:2059E0005018C2F20008D8F8100010604FF00000506001F09EF9034641F25018C2F200081C
:205A000098F81C2002F10102D0B241F25018C2F2000888F81C004FF0010041F25018C2F2C0
:205A20000008C8F860064FF0000041F25018C2F20008C8F864061846BDE800812DE970412D
:205A400005460E464FF0000441F25018C2F2000898F8680648B14FF0000041F25018C2F288
:205A6000000888F86806FFF78FFE41F25018C2F20008D8F8600650B141F25018C2F20008C8
:205A8000D8F86006032802D04FF0020441E041F25018C2F2000898F80000A8BB40F20000F1
:205AA000C1F6FE7085422CD3C5F1FF30B04228D3B5F1005F25D806EB0500B0F1005F20D839
:205AC000B6F5003F1DD8002E1BD941F25018C2F2000898F81C0000281BD941F27011C2F23E
:205AE0000001A1F128014FEA800210444FEAC000014448680968084485420AD24FF0020448
:205B000007E04FF0050404E03146284600F0E6FF04460CB1FFF738FE2046BDE870812DE973
:205B200030014FF000050B4641F25014C2F200046269A2EB0302626141F25018C2F20008D9
:205B4000C8F8180041F2C478C2F20008C8F800304FF0020041F25018C2F20008C8F8640690
:205B60004FF0000041F25018C2F2000888F801002846BDE8300170472DE910414FF0000469
:205B800041F25018C2F20008D8F86026012A04D04FF00204FFF7F8FD11E041F25018C2F2E9
:205BA0000008D8F81020824207D141F25018C2F20008D8F81400884201D24FF005042046BB
:205BC000BDE810812DE910414FF0000441F25018C2F20008D8F86006022810D14FF003000B
:205BE00041F25018C2F20008C8F860064FF0000041F25018C2F20008C8F8640603E04FF046
:205C00000204FFF7C1FD2046BDE810814DF8048D4FF0000141F25018C2F20008D8F8641677
:205C2000C9B941F25018C2F2000898F80110072911D041F25018C2F2000898F80110017070
:205C40004FF0000041F25018C2F2000888F801004FF0010104E04FF0000101704FF0000117
:205C600008465DF8048B70472DE9004141F25018C2F20008D8F8640601381ED303D002381C
:205C80000AD312D019E000F073FE41F25018C2F2000888F8010010E001F052FA41F250184B
:205CA000C2F2000888F8010007E001F0C6FB41F25018C2F2000888F8010041F25018C2F2E7
:205CC000000898F801000A2807D04FF0000041F25018C2F20008C8F86406BDE800814DF8F7
:205CE000048D41F2BC78C2F20008C8F8000041F2BC78C2F20008C8F804105DF8048B70479E
:205D00002DE9004184B04FF000008DF8040041F63000C2F2000002904FF0600003906846A3
:205D200003F0DBFC4FF001008DF80400684603F0D4FC4FF002008DF80400684603F0CDFC2B
:205D4000009841F63008C2F20008C8F8600041F63000C2F2000040F2E038C2F20008C8F87F
:205D600014004AF20000C0F2011040F2E038C2F20008C8F80C004FF0640040F2E038C2F29D
:205D80000008C8F8100040F2E030C2F2000003F07EFC10B94FF0000001E04FF0010004B0EB
:205DA000BDE800812DE9004184B04FF000008DF8040041F2C400C2F2000002904FF00800E6
:205DC0000390684603F089FC4FF001008DF80400684603F082FC4FF002008DF804006846AA
:205DE00003F07BFC009841F2C408C2F20008C8F8080041F2C400C2F2000040F2E038C2F275
:205E00000008C8F814004CF20000C0F2011040F2E038C2F20008C8F80C004FF00C0040F256
:205E2000E038C2F20008C8F8100040F2E030C2F2000003F02CFC10B94FF0000001E04FF085
:205E4000010004B0BDE800812DE9004184B04FF000008DF8040041F69400C2F20000029003
:205E60004FF49C700390684603F037FC4FF001008DF80400684603F030FC4FF002008DF810
:205E80000400684603F029FC009841F69408C2F20008C8F8380141F69400C2F2000040F267
:205EA000E038C2F20008C8F814004EF20000C0F2011040F2E038C2F20008C8F80C004FF422
:205EC0009E7040F2E038C2F20008C8F8100040F2E030C2F2000003F0DAFB10B94FF0000018
:205EE00001E04FF0010004B0BDE8008141F63000C2F20000704741F2C400C2F20000704773
:205F000041F69400C2F2000070474DF8048D4FF0000041F25018C2F20008C8F860065DF864
:205F2000048B70474DF8048D41F25018C2F20008D8F860065DF8048B70474DF8048D41F214
:205F40005018C2F20008D8F8640601280AD141F25018C2F2000898F801000A2802D14FF0B3
:205F6000010001E04FF000005DF8048B70474DF8048D41F25018C2F20008D8F860060328D7
:205F800007D14FF0000041F25018C2F20008C8F860065DF8048B70472DE9004141F60C70C8
:205FA000C2F2000040F2E038C2F20008C8F814004FF4F01040F2E038C2F20008C8F80C003E
:205FC0004FF0680040F2E038C2F20008C8F8100040F2E030C2F2000003F059FB0028BDE83A
:205FE00000812DE97041ADF52C7D05460C464FF000004FF000064FF00000B4F5927F6BD1B8
:2060000041F69408C2F20008D8F8240144F64A31C5F2480188425CD0224629466846FDF7D8
:2060200004FCFFF741F949A803F0A4FCA4F120000246294649A803F012FD05F5827001461A
:2060400049A84FF02002FDF711FC01283ED12246294641F69400C2F20000FDF7E6FB224622
:20606000694641F69400C2F20000FDF7DEFB41F69400C2F200004FF4807102F0FFFE16BBB2
:2060800044F64A30C5F2480041F69408C2F20008C8F82401FFF7D8FE50B94FF0000041F292
:2060A0005018C2F2000888F801004FF0000015E04FF0010041F25018C2F2000888F80100EF
:2060C0004FF001000AE04FF0010007E04FF00D0004E04FF00B0001E04FF001000DF52C7D29
:2060E000BDE870812DE9304105460C464FF00002072C5AD14FF4F01141F2D070C2F20000DC
:206100004FF06002FDF791FB2246294641F2D070C2F2000000F10400FDF787FB4FF05A302C
:2061200041F2D078C2F20008C8F80000FFF7BCF841F2D070C2F2000040F2E038C2F2000891
:20614000C8F814004FF4F01040F2E038C2F20008C8F80C004FF0680040F2E038C2F20008A9
:20616000C8F8100040F2E030C2F2000003F08FFA80B941F2D070C2F2000003F089F94FF0C9
:20618000000041F25018C2F2000888F801004FF000020CE04FF0010041F25018C2F2000863
:2061A00088F801004FF0010201E04FF001021046BDE830812DE9304105460C464FF00002E8
:2061C000072C5AD14FF4F01141F2D070C2F200004FF06002FDF729FB2246294641F2D070F3
:2061E000C2F2000000F10B00FDF71FFB4FF05A3041F2D078C2F20008C8F80000FFF754F8DF
:2062000041F2D070C2F2000040F2E038C2F20008C8F814004FF4F01040F2E038C2F2000834
:20622000C8F80C004FF0680040F2E038C2F20008C8F8100040F2E030C2F2000003F027FA0B
:2062400080B941F2D070C2F2000003F021F94FF0000041F25018C2F2000888F801004FF07B
:2062600000020CE04FF0010041F25018C2F2000888F801004FF0010201E04FF0010210465D
:20628000BDE830812DE9304105460C464FF00002072C5AD14FF4F01141F2D070C2F200007A
:2062A0004FF06002FDF7C1FA2246294641F2D070C2F2000000F11200FDF7B7FA4FF05A301F
:2062C00041F2D078C2F20008C8F80000FEF7ECFF41F2D070C2F2000040F2E038C2F20008BA
:2062E000C8F814004FF4F01040F2E038C2F20008C8F80C004FF0680040F2E038C2F2000808
:20630000C8F8100040F2E030C2F2000003F0BFF980B941F2D070C2F2000003F0B9F84FF0C9
:20632000000041F25018C2F2000888F801004FF000020CE04FF0010041F25018C2F20008C1
:2063400088F801004FF0010201E04FF001021046BDE830812DE9304105460C464FF0000246
:20636000072C5AD14FF4F01141F2D070C2F200004FF06002FDF759FA2246294641F2D07022
:20638000C2F2000000F11900FDF74FFA4FF05A3041F2D078C2F20008C8F80000FEF784FFCA
:2063A00041F2D070C2F2000040F2E038C2F20008C8F814004FF4F01040F2E038C2F2000893
:2063C000C8F80C004FF0680040F2E038C2F20008C8F8100040F2E030C2F2000003F057F93B
:2063E00080B941F2D070C2F2000003F051F84FF0000041F25018C2F2000888F801004FF0AB
:2064000000020CE04FF0010041F25018C2F2000888F801004FF0010201E04FF001021046BB
:20642000BDE830812DE9304105460C464FF00002042C5AD14FF4F01141F2D070C2F20000DB
:206440004FF06002FDF7F1F92246294641F2D070C2F2000000F13800FDF7E7F94FF05A30F9
:2064600041F2D078C2F20008C8F80000FEF71CFF41F2D070C2F2000040F2E038C2F20008E8
:20648000C8F814004FF4F01040F2E038C2F20008C8F80C004FF0680040F2E038C2F2000866
:2064A000C8F8100040F2E030C2F2000003F0EFF880B941F2D070C2F2000002F0E9FF4FF0C3
:2064C000000041F25018C2F2000888F801004FF000020CE04FF0010041F25018C2F2000820
:2064E00088F801004FF0010201E04FF001021046BDE830812DE9304105460C464FF00002A5
:20650000082C5AD14FF4F01141F2D070C2F200004FF06002FDF789F92246294641F2D07050
:20652000C2F2000000F13C00FDF77FF94FF05A3041F2D078C2F20008C8F80000FEF7B4FEA7
:2065400041F2D070C2F2000040F2E038C2F20008C8F814004FF4F01040F2E038C2F20008F1
:20656000C8F80C004FF0680040F2E038C2F20008C8F8100040F2E030C2F2000003F087F86A
:2065800080B941F2D070C2F2000002F081FF4FF0000041F25018C2F2000888F801004FF0D3
:2065A00000020CE04FF0010041F25018C2F2000888F801004FF0010201E04FF0010210461A
:2065C000BDE830812DE9304105460C464FF00002082C5AD14FF4F01141F2D070C2F2000036
:2065E0004FF06002FDF721F92246294641F2D070C2F2000000F14400FDF717F94FF05A30EC
:2066000041F2D078C2F20008C8F80000FEF74CFE41F2D070C2F2000040F2E038C2F2000817
:20662000C8F814004FF4F01040F2E038C2F20008C8F80C004FF0680040F2E038C2F20008C4
:20664000C8F8100040F2E030C2F2000003F01FF880B941F2D070C2F2000002F019FF4FF0C1
:20666000000041F25018C2F2000888F801004FF000020CE04FF0010041F25018C2F200087E
:2066800088F801004FF0010201E04FF001021046BDE830812DE9304105460C464FF0000203
:2066A000082C5AD14FF4F01141F2D070C2F200004FF06002FDF7B9F82246294641F2D07080
:2066C000C2F2000000F14C00FDF7AFF84FF05A3041F2D078C2F20008C8F80000FEF7E4FD98
:2066E00041F2D070C2F2000040F2E038C2F20008C8F814004FF4F01040F2E038C2F2000850
:20670000C8F80C004FF0680040F2E038C2F20008C8F8100040F2E030C2F2000002F0B7FF92
:2067200080B941F2D070C2F2000002F0B1FE4FF0000041F25018C2F2000888F801004FF002
:2067400000020CE04FF0010041F25018C2F2000888F801004FF0010201E04FF00102104678
:20676000BDE830812DE9304105460C464FF00002082C5AD14FF4F01141F2D070C2F2000094
:206780004FF06002FDF751F82246294641F2D070C2F2000000F15400FDF747F84FF05A30DC
:2067A00041F2D078C2F20008C8F80000FEF77CFD41F2D070C2F2000040F2E038C2F2000847
:2067C000C8F814004FF4F01040F2E038C2F20008C8F80C004FF0680040F2E038C2F2000823
:2067E000C8F8100040F2E030C2F2000002F04FFF80B941F2D070C2F2000002F049FE4FF0BB
:20680000000041F25018C2F2000888F801004FF000020CE04FF0010041F25018C2F20008DC
:2068200088F801004FF0010201E04FF001021046BDE830812DE900414FF0000205293DD1F2
:2068400041F69408C2F20008D8F8302144F64A33C5F248039A422ED00A46014641F6940093
:20686000C2F2000000F59470FCF7DFFF44F64A30C5F2480041F69408C2F20008C8F8300167
:20688000FEF712FDFFF7E0FA50B94FF0000041F25018C2F2000888F801004FF000020FE0D4
:2068A0004FF0010041F25018C2F2000888F801004FF0010204E04FF00B0201E04FF001022B
:2068C0001046BDE800814DF8048D41F25018C2F2000898F80C005DF8048B70472DE9004181
:2068E0004FF0000041F6D018C2F20008D8F8001042F23412C7F6430291420BD141F6D01854
:20690000C2F20008D8F8FC1043F28742C4F21232914201D04FF0010078B941F6D018C2F2FF
:20692000000898F806100A2907D841F6D018C2F2000898F80610002901D84FF0010008B913
:2069400000F0F4FE08B900F0C6FF08B901F090F8BDE800814DF8048D4FF0000141F63008FA
:20696000C2F2000888F8500008465DF8048B70472DE910414FF00A044FF0000041F2BC7848
:20698000C2F20008D8F8000040F2E038C2F20008C8F80C0041F2BC78C2F20008D8F80400A2
:2069A00040F2E038C2F20008C8F8100041F2BC78C2F20008D8F80400B0F5001F5CD841F2DF
:2069C000BC78C2F20008D8F8040040F2E038C2F20008C8F8100048F25068C1F6FF78D8F82D
:2069E0000C1040F2E030C2F20000884740F2E038C2F20008B8F80800C8BB41F25018C2F226
:206A0000000898F80C0041F25211C2F2000108444FF00101017041F25018C2F2000898F8A2
:206A20000C004FEAC00041F63001C2F200010844C078072818D14FF0000010E041F25018CE
:206A4000C2F2000898F80C1041F25212C2F2000211444FF001020A7000F10100C0B20A28DA
:206A6000ECD34FF0000404E04FF0000401E04FF00104FEF789FE2EE04FF4001040F2E038A1
:206A8000C2F20008C8F8100048F25068C1F6FF78D8F80C1040F2E030C2F20000884740F267
:206AA000E038C2F20008B8F8080080B941F2BC71C2F200014868A0F50010486041F2BC719F
:206AC000C2F20001086800F50010086003E0FEF75BFE4FF001042046BDE810812DE9F045C8
:206AE00006460F464FF000054FF000044FF0000A4FF000047FE041F25210C2F200002044D6
:206B00000078012874D141F6D010C2F2000000F10C0120464FEA8002A2EB00004FEAC0001F
:206B200008448068FAF7A2FD41F25018C2F2000898F81C1028295BD2C6F1FF31B94257D3F4
:206B4000864255D321464FEA8102A2EB01014FEAC10141F6DC12C2F200021144C9680144F2
:206B60008E4245D207EB060122464FEA8203A3EB02024FEAC20241F6DC13C2F200031A4445
:206B8000D2680244914233D820464FEA8001A1EB00004FEAC00041F6DC11C2F200010844CD
:206BA000C068874224D8002F22D941F25018C2F2000898F81C0041F25018C2F2000888F8E4
:206BC0000C404FF0010A002812D941F27011C2F20001A1F128014FEA800210444FEAC000E0
:206BE0000144486809680844864201D24FF0080504F10100C4B241F6D018C2F2000898F825
:206C000006008442FFF477AFBAF1010F01D04FF0050575B941F25018C2F2000898F80C0099
:206C200041F25211C2F200010844007808B94FF008052846BDE8F0852DE910414FF0000406
:206C400041F2C878C2F20008D8F8040000286DD041F2C878C2F20008D8F8000040F2E03883
:206C6000C2F20008C8F80C0041F2C878C2F20008D8F80400C0F18000024641F2C878C2F2E9
:206C80000008D8F8040041F2D001C2F2000108444FF0FF01FCF7DCFD41F2D000C2F2000051
:206CA00040F2E038C2F20008C8F814004FF0800040F2E038C2F20008C8F810004FF0000026
:206CC00041F2C878C2F20008C8F8040048F25068C1F6FF78D8F8101040F2E030C2F20000BB
:206CE000884740F2E038C2F20008B8F8080010B14FF001041AE000F0C5FA012808D140F225
:206D0000E038C2F20008D8F80C0000F057FB0DE041F25018C2F2000898F81C1040F2E03837
:206D2000C2F20008D8F80C0000F0C7FA2046BDE810812DE910414FF0000441F2C878C2F29D
:206D40000008D8F8040000286AD041F2C878C2F20008D8F8000020F07F0041F25018C2F218
:206D60000008D8F8101021F07F0188423AD141F25018C2F20008D8F8100041F2C878C2F257
:206D80000008D8F80410A0EB010041F2C878C2F20008D8F80010A0EB0100024641F2C87825
:206DA000C2F20008D8F8040041F2D001C2F2000108444FF0FF01FCF74BFD41F25018C2F275
:206DC0000008D8F8100041F2C878C2F20008D8F80010A0EB010041F2C878C2F20008C8F841
:206DE000040037E0FFF728FF044600F0B7FB41F25018C2F20008D8F8100000F07F0041F296
:206E0000C878C2F20008C8F8040041F2D000C2F200004FF080024FF0FF01FCF719FD19E0F9
:206E200000F09CFB41F25018C2F20008D8F8100000F07F0041F2C878C2F20008C8F8040032
:206E400041F2D000C2F200004FF080024FF0FF01FCF7FEFC2046BDE810812DE910414FF04C
:206E600000045FE141F2C878C2F20008D8F8040041F2C478C2F20008D8F8001008448028CC
:206E8000C0F0018141F2C878C2F20008D8F80400C0F18000024641F25018C2F20008D8F81D
:206EA000181041F2C878C2F20008D8F8040041F2D003C2F200031844FCF7B7FC41F2C87875
:206EC000C2F20008D8F80400C0F1800241F25011C2F2000188691044886141F2C878C2F251
:206EE0000008D8F80400C0F1800241F2C471C2F200010868A0EB0200086041F25018C2F2B2
:206F00000008D8F8100041F2C878C2F20008D8F80410A0EB010040F2E038C2F20008C8F824
:206F20000C004FF0800040F2E038C2F20008C8F8100041F2D000C2F2000040F2E038C2F2FB
:206F40000008C8F8140048F25068C1F6FF78D8F8101040F2E030C2F20000884741F2C8780D
:206F6000C2F20008D8F80400C0F1800241F25011C2F2000108691044086141F25018C2F288
:206F80000008D8F8100041F2C878C2F20008C8F800004FF0000041F2C878C2F20008C8F8EC
:206FA000040040F2E038C2F20008B8F8080010B14FF00104B6E041F25018C2F20008D8F84D
:206FC000140050BB41F25018C2F2000898F86A06012822D141F2C478C2F20008D8F8000024
:206FE000D8B900F04FF9012808D140F2E038C2F20008D8F80C0000F0E1F993E041F250180C
:20700000C2F2000898F81C1040F2E038C2F20008D8F80C0000F051F984E000F033F9012833
:207020000ED140F2E038C2F20008D8F8101040F2E038C2F20008D8F80C0000F093FA71E0CB
:2070400041F25018C2F2000898F81C00A0F10100C0B2014640F2E038C2F20008D8F80C0000
:2070600000F02BF900F07AFA40F2E038C2F20008D8F8101040F2E038C2F20008D8F80C00C0
:2070800000F070FA4EE041F2C478C2F20008D8F8002041F25018C2F20008D8F8181041F2CB
:2070A000C878C2F20008D8F8040041F2D003C2F200031844FCF7B9FB41F25018C2F20008E9
:2070C000D8F8100041F2C878C2F20008D8F80410A0EB010041F2C878C2F20008C8F8000042
:2070E00041F2C871C2F20001486841F2C478C2F20008D8F800201044486041F25011C2F260
:207100000001086941F2C478C2F20008D8F80020104408614FF0000041F2C478C2F20008BB
:20712000C8F8000041F2C478C2F20008D8F80000002802D9002C3FF495AE2046BDE8108153
:207140002DE9F04186B04FF0000441F25018C2F20008D8F8187041F2C478C2F20008D8F8C5
:2071600000504FF0000641F29808C2F2000898F8240001284AD14FF0000041F25018C2F265
:20718000000888F86A063CE0FAF777FC802D02D94FF0800608E02E464FF0010041F25018F3
:2071A000C2F2000888F86A066A463146384602F0D5FF049A009941F29808C2F20008D8F822
:2071C000000000F073FA0446C4B9009841F25018C2F20008C8F81800049841F2C478C2F205
:2071E0000008C8F80000FFF738FE044641F29801C2F200010868049A104408603744A5EBFB
:207200000605002D25D9002CBED022E0FAF735FC41F2C478C2F20008D8F8002041F25018A4
:20722000C2F20008D8F8181041F29808C2F20008D8F8000000F03AFA044654B94FF0010080
:2072400041F25018C2F2000888F86A06FFF705FE0446FAF712FC7CB941F25018C2F2000819
:20726000D8F8140050B94FF0020041F25018C2F20008C8F8600601E0FEF786FA204606B0F1
:20728000BDE8F0814DF8048D41F25018C2F2000898F81C00A0F10100C0B241F25018C2F2AC
:2072A000000898F81D10814202D14FF0010001E04FF000005DF8048B70472DE930410D469E
:2072C00041F25018C2F2000898F81D4021464FEA810211444FEAC10141F27012C2F200028C
:2072E00001EB0204616822681144A1EB000102F0D1FA02F0D9FA41F25018C2F2000898F8FE
:207300001D1001F10101C9B241F25018C2F2000888F81D10014604F108004FF02002FCF735
:2073200084FA41F25018C2F2000898F81D4041E002F0A8FA20464FEA800108444FEAC00071
:2073400041F27011C2F200010844416820464FEA800210444FEAC00041F27012C2F20002F6
:207360001044006802F096FA02F09EFA014620464FEA800210444FEAC00041F27012C2F227
:207380000002104400F108004FF02002FCF74DFA41F25018C2F2000898F81D0000F101000D
:2073A000C0B241F25018C2F2000888F81D0004F10100C4B2AC42BBD3BDE830812DE91041C2
:2073C00041F25018C2F2000898F81C10A1F10101C9B24FEA810211444FEAC10141F27012CA
:2073E000C2F2000201EB02042168884207D3616822681144A1EB000102F04CFA03E061689F
:20740000206802F047FA02F04FFA014641F25018C2F2000898F81D0000F10100C0B241F294
:207420005018C2F2000888F81D0004F108004FF02002FCF7FAF9BDE810812DE9104183B077
:207440004FF0000441F25010C2F2000000F11C00009041F25018C2F20008D8F81800019035
:20746000684602F053F90446002C70D141F25018C2F2000898F80C004FEA8001A1EB000030
:207480004FEAC00041F6DC11C2F200010844007807283DD14EF20011C0F2010141F6D010FD
:2074A000C2F200004FF48072FCF7BFF9FFF716FA70B148F24051C1F6FF7141F6D010C2F254
:2074C00000004FF48072FCF7B0F94FF001043EE041F25018C2F2000898F80C004FEAC0008D
:2074E00041F63001C2F2000108444FF00101017041F25018C2F2000898F80C004FEAC00085
:2075000041F63001C2F200010844029941601EE041F25018C2F2000898F80C004FEAC000DC
:2075200041F63001C2F2000108444FF00101017041F25018C2F2000898F80C004FEAC00044
:2075400041F63001C2F200010844029941600CB9FEF71AF9204603B0BDE8108100B502F0C3
:2075600091F900BD2DE9004141F25018C2F2000898F81C20A2F10102D2B24FEA82031A4414
:207580004FEAC20241F27013C2F200031A441368984202D302F07EF907E008441168A0EB59
:2075A00001000146106802F075F9BDE800812DE930014FF0000241F27013C2F20003A3F1FC
:2075C000280441F25018C2F2000898F81C304FEA83052B444FEAC3031C4463680B446360E0
:2075E00041F27011C2F20001A1F1280141F25018C2F2000898F81C304FEA830423444FEAD4
:20760000C30319440C6841F27011C2F20001A1F1280141F25018C2F2000898F81C304FEA43
:2076200083052B444FEAC30319444B68234441F25018C2F2000898F80C404FEA8401A1EB60
:2076400004044FEAC404214641F6DC14C2F20004214441F25018C2F2000898F80C404FEA0A
:207660008405A5EB04044FEAC40441F6DC15C2F200052C44E46889680C44A34201D94FF00C
:2076800005027AB14FF0000141F25018C2F20008C8F864164FF0050141F25018C2F200084B
:2076A00088F801101046BDE8300170472DE930410D4614464FF0000383B92146FFF777FFD1
:2076C00003465BB941F25018C2F20008C8F8185041F2C478C2F20008C8F800401846BDE8A0
:2076E00030814DF8048D4FF0000041F25018C2F2000888F81D004FF0000041F25018C2F242
:20770000000888F81C004FF0000041F2C878C2F20008C8F804004FF0000041F2C878C2F22D
:207720000008C8F800005DF8048B70472DE930014FF000004FF000014FF001024FF000009F
:20774000BCE04FF00001B2E002464FEA8203A3EB02024FEAC20241F6DC13C2F200031344F2
:207760000A464FEAC20248F23854C1F6FF7422449B6812689342C0F0958002464FEA820349
:20778000A3EB02024FEAC20241F6DC13C2F200031A449268C2F1FF3302464FEA8204A4EBAA
:2077A00002024FEAC20241F6DC14C2F200042244D268934276D302464FEA8203A3EB020293
:2077C0004FEAC20241F6DC13C2F2000313440A464FEAC20248F23854C1F6FF7422449B68D2
:2077E000526893425ED802464FEA8203A3EB02024FEAC20241F6DC13C2F2000313440246B3
:207800004FEA8204A4EB02024FEAC20241F6DC14C2F200042244D2689B681A44A2F10103A2
:207820000A464FEAC20248F23854C1F6FF7422445268934236D802464FEA8203A3EB020270
:207840004FEAC20241F6DC13C2F200031A440B464FEAC30348F23854C1F6FF741C440B46FF
:207860004FEAC30348F23855C1F6FF752B4464681B68A4EB030303F10103D2689A4211D8CD
:2078800002464FEA8203A3EB02024FEAC20241F6DC13C2F200031A44D268002A02D94FF09A
:2078A000000207E04FF0010201F1010189B20A29FFF44AAF5AB900F1010080B241F6D018F9
:2078C000C2F2000898F806108842FFF43AAF1046BDE8300170472DE93001ACB04FF00002D9
:2078E0004FF000004FF000014FF0000028E001464FEA011104AB0B4401464FEA8104A4EB9E
:2079000001014FEAC10141F6DC14C2F2000421448968996001464FEA011104AB0B44014665
