:020000041FFEDD
:20100000000002200114FE1F2922FF1FD17CFE1F2B22FF1F2D22FF1F2F22FF1F0000000062
:201020000000000000000000000000003922FF1F3122FF1F000000003322FF1F3522FF1FDE
:201040003722FF1F3722FF1F3722FF1F3722FF1F3722FF1F3722FF1F3722FF1F3722FF1FD8
:201060003722FF1F3722FF1F3722FF1F3722FF1F3722FF1F3722FF1F3722FF1F3722FF1FB8
:201080003722FF1F3722FF1F3722FF1F3722FF1F3722FF1F3722FF1F3722FF1F3722FF1F98
:2010A0003722FF1F3722FF1F3722FF1F3722FF1F3722FF1F3722FF1F3722FF1F3722FF1F78
:2010C0003722FF1F3722FF1F3722FF1F3722FF1F3722FF1F3722FF1F3722FF1F3722FF1F58
:2010E0003722FF1F3722FF1F3722FF1F3722FF1F3722FF1F3722FF1F3722FF1F3722FF1F38
:201100003722FF1F3722FF1F3722FF1F3722FF1F3722FF1F3722FF1F3722FF1F3722FF1F17
:201120003722FF1F3722FF1F3722FF1F3722FF1F3722FF1F3722FF1F3722FF1F3722FF1FF7
:201140003722FF1F3722FF1F3722FF1F3722FF1F3722FF1F3722FF1F3722FF1F3722FF1FD7
:201160003722FF1F3722FF1F3722FF1F3722FF1F3722FF1F3722FF1F3722FF1F3722FF1FB7
:201180003722FF1F3722FF1F3722FF1F3722FF1F3722FF1F3722FF1F3722FF1F3722FF1F97
:2011A0003722FF1F3722FF1F3722FF1F3722FF1F3722FF1F3722FF1F3722FF1F3722FF1F77
:2011C0003722FF1F3722FF1F3722FF1F3722FF1F3722FF1F3722FF1F3722FF1F3722FF1F57
:2011E0003722FF1F3722FF1F3722FF1F3722FF1F3722FF1F3722FF1F3722FF1F3722FF1F37
:201200003722FF1F3722FF1F3722FF1F3722FF1F3722FF1F3722FF1F3722FF1F3722FF1F16
:201220003722FF1F3722FF1F3722FF1F3722FF1F3722FF1F3722FF1F3722FF1F3722FF1FF6
:201240003722FF1F3722FF1F3722FF1F3722FF1F3722FF1F3722FF1F3722FF1F3722FF1FD6
:201260003722FF1F3722FF1F3722FF1F3722FF1F3722FF1F3722FF1F3722FF1F3722FF1FB6
:201280003722FF1F3722FF1F3722FF1F3722FF1F3722FF1F3722FF1F3722FF1F3722FF1F96
:2012A0003722FF1F3722FF1F3722FF1F3722FF1F3722FF1F3722FF1F3722FF1F3722FF1F76
:2012C0003722FF1F3722FF1F3722FF1F3722FF1F3722FF1F3722FF1F3722FF1F3722FF1F56
:2012E0003722FF1F3722FF1F3722FF1F3722FF1F3722FF1F3722FF1F3722FF1F3722FF1F36
:201300003722FF1F3722FF1F3722FF1F3722FF1F3722FF1F3722FF1F3722FF1F3722FF1F15
:201320003722FF1F3722FF1F3722FF1F3722FF1F3722FF1F3722FF1F3722FF1F3722FF1FF5
:201340003722FF1F3722FF1F3722FF1F3722FF1F3722FF1F3722FF1F3722FF1F3722FF1FD5
:201360003722FF1F3722FF1F3722FF1F3722FF1F3722FF1FFFFFFFFFFFFFFFFFFFFFFFFF26
:20138000FFFFFFFFFFFFFFFFFFFFFFFFFFFFFFFFFFFFFFFFFFFFFFFFFFFFFFFFFFFFFFFF6D
:2013A000FFFFFFFFFFFFFFFFFFFFFFFFFFFFFFFFFFFFFFFFFFFFFFFFFFFFFFFFFFFFFFFF4D
:2013C000FFFFFFFFFFFFFFFFFFFFFFFFFFFFFFFFFFFFFFFFFFFFFFFFFFFFFFFFFFFFFFFF2D
:2013E000FFFFFFFFFFFFFFFFFFFFFFFFFFFFFFFFFFFFFFFFFFFFFFFFFFFFFFFFFFFFFFFF0D
:2014000072B6002000210022002300240025002600271F481F4901601F4880F30888FFE708
:201420001E4801680F22120511430160BFF34F8FBFF36F8FFFE71A48002809D019491A4A91
:20144000521A013A04DD0020002309C1083AFCDAFFE7134800280BD0144802C8013907DB59
:2014600038C82A1BFAD040CC40C3043AFBDCF5E7FFE70F4802C8013907DB18C8E21AFAD094
:20148000002520C3043AFCDCF5E762B609F0A2F908ED00E0000000200000022088ED00E03A
:2014A0000100000000000020000002206CD6FF1FA0D6FF1F4FF0780070472DE9004100F040
:2014C0007AFA00F0D1FA02F048FA04F050F941F6D868C2F2000898F80000012801D104F0BA
:2014E00089FD07F0F1FA00F0C4F8BDE800812DE910414FF0000404F027FD014641F6A018BA
:20150000C2F20008D8F8000042F23412C7F6430290427ED14FF0000072E002464FEA82030B
:20152000A3EB02024FEAC20241F6AC13C2F200031A441278032A09D102464FEAC2020A44ED
:201540001278002A59D14FF0030464E002464FEA8203A3EB02024FEAC20241F6AC13C2F2E4
:2015600000031A441278062A09D102464FEAC2020A441278002A40D14FF006044BE0024662
:201580004FEA8203A3EB02024FEAC20241F6AC13C2F200031A441278042A08D102464FEAE1
:2015A000C2020A44127842BB4FF0040433E002464FEA8203A3EB02024FEAC20241F6AC13AD
:2015C000C2F200031A441278052A08D102464FEAC2020A44127882B94FF005041BE0024681
:2015E0004FEA8203A3EB02024FEAC20241F6AC13C2F200031A441278082A00F10100C0B273
:2016000041F6A018C2F2000898F80620904284D301E04FF001042046BDE8108100B513F0C7
:20162000C6F900BD00B504F0B6FC012805D102F0EAFB02F0FCF906F098FD00F01EFA06F08D
:2016400064FD01280BD140F23451C2F20001086800F10100086006F08EFD02F0E8F906F0A4
:2016600080FD00BD00B5FFF7DDFF00BD01460846704700B500F005F84FF0020002F095F93D
:2016800000BD2DE9704184B004F05EFC044604F060FC064604F062FC05464EF20011C0F2BE
:2016A000010141F6A010C2F200004FF4807202F0EAF805F0A9F9B0B348F21061C1F6FF71B8
:2016C00041F6A010C2F200004FF4807202F0DBF84FF000001FE001464FEA8102A2EB0101A5
:2016E0004FEAC10141F6AC12C2F200021144097807290DD101464FEAC10121444FF0010277
:201700000A704FEAC00020444FF00701C1700AE000F10100C0B241F6A018C2F2000898F8F1
:2017200006108842D7D34AF20001C0F2011120464FF0640202F0A7F802944FF060000390BA
:201740004FF000008DF80400684608F048F84FF001008DF80400684608F041F84FF00200F2
:201760008DF80400684608F03AF80098216E884203D1206EB0F1FF3F74D1206EB0F1FF3F24
:201780003AD100F07EF9012836D120464FF064024FF0000102F08AF84FF000001FE0014663
:2017A0004FEAC10121444FF001020A7001464FEAC10141F60002C2F200020A4401464FEA0E
:2017C0008103A3EB01014FEAC10141F6AC13C2F2000319440978D17000F10100C0B241F693
:2017E000A018C2F2000898F806108842D7D34FF0010084F8500035E020464FF064024FF0F0
:20180000000102F053F84FF000001FE001464FEAC10121444FF000020A7001464FEAC101A8
:2018200041F60002C2F200020A4401464FEA8103A3EB01014FEAC10141F6AC13C2F200032F
:2018400019440978D17000F10100C0B241F6A018C2F2000898F806108842D7D34FF0000001
:2018600084F850004CF20001C0F2011130464FF00C0202F008F802964FF0080003904FF033
:2018800000008DF80400684607F0A9FF4FF001008DF80400684607F0A2FF4FF002008DF89D
:2018A0000400684607F09BFF0098B168884203D1B068B0F1FF3F16D130464FF00C024FF0B6
:2018C000000101F0F3FF0098B0604FF0000407E020464FF0000102F009FA04F10100C4B24B
:2018E000002CF5D019E04FF0000414E020464FEA800030440068022805D342F210712046AF
:2019000002F0F4F904E020464FF0000102F0EEF904F10100C4B2002CE8D04EF20001C0F242
:20192000011128464FF49E7201F0ADFF02954FF49C7003904FF000008DF80400684607F051
:201940004EFF4FF001008DF80400684607F047FF4FF002008DF80400684607F040FF009840
:20196000D5F83811884204D1D5F83801B0F1FF3F19D128464FF49E724FF0000101F096FF5C
:2019800048F27E71C1F6FF7105F594704FF0050201F079FF40F20441C2F2000128464FF46D
:2019A000927201F070FF28464FF4807107F0F8FA04B0BDE870812DE9004112F0F9FE4BF65D
:2019C0000450C1F6FF7012F0B2FF4FF0000012F0C5FF4FF0000013F0C4F94CF60420C1F6B9
:2019E000FF7013F0AFFB4FF001014FF0900010F0F1FB4FF001014FF0600010F0EBFB4FF0CA
:201A000001014FF0650010F0E5FB4FF001014FF0660010F0DFFB07F0A5FD40F22858C2F281
:201A2000000898F80000552806D14AF63C30C1F6FF700BF018FA05E04AF65C30C1F6FF7004
:201A40000BF011FA4FF000000BF029FA4FF001014FF000000BF01BFA06F045FB08F06EFBFC
:201A600001F0C5FEBDE8008100B500F0C1F900F0ABFC00BD4FF00000704700B508F084FBB7
:201A800000BD4DF8048D4FF0000041F6A018C2F20008D8F8080000F1040001684FF0000054
:201AA00011E002464FEA8203A3EB02024FEAC20241F6AC13C2F200031A441278032A0AD004
:201AC00000F10100C0B241F6A018C2F2000898F806209042E5D341F6A018C2F2000898F87C
:201AE0000620904202D34FF000002FE002464FEA8203A3EB02024FEAC20241F6AC13C2F28C
:201B000000031A44926891421BD302464FEA8203A3EB02024FEAC20241F6AC13C2F2000367
:201B20001A444FEA8003A3EB00004FEAC00041F6AC13C2F200031844C068926810448142C2
:201B400002D34FF0000001E04FF001005DF8048B704700B5826802F10402104603F068FE6E
:201B6000024632B903F0CEFB4FF4FA6002F051F90AE0022A04D14FF0310002F0DDF803E098
:201B80004FF0220002F0D8F800BD2DE9F04106464FF0060504F0D8F9B06800F1040001F0C5
:201BA000B2FE04462046FFF761FD0446B06800F1080001F0A8FE07464FF0000650E0304647
:201BC0004FEA8002A2EB00004FEAC00041F6AC12C2F2000210448068FFF748FD0246944284
:201BE0003BD3C4F1FF30B84237D330464FEA8003A3EB00004FEAC00041F6AC13C2F2000389
:201C00001844C0681044844227D207EB040330464FEA800CACEB00004FEAC00041F6AC1C6A
:201C2000C2F2000C6044C0681044834215D830464FEA8002A2EB00004FEAC00041F6AC1266
:201C4000C2F200021044C068874206D8002F04D9304603F033FE05460AE006F10100C6B260
:201C600041F6A018C2F2000898F806008642A6D32846003805D0023802385BD902385ED057
:201C800062E030464FEAC00041F60002C2F200021044C078072831D14FF000060DE030463F
:201CA0004FEAC00041F60002C2F2000210444FF00002027006F10100C6B241F6A018C2F222
:201CC000000898F806008642E9D348F20868C1F6FF78D8F80000FFF7C9FC044648F208688B
:201CE000C1F6FF78D8F8040048F20868C1F6FF78D8F80020A0EB020000F1010739462046AF
:201D000004F01BF803F0FEFA4EF6602002F081F841F26808C2F20008C8F8147041F268085C
:201D2000C2F20008C8F8104004F018F880B14FF002050DE04FF0220001F0FEFF08E04FF0F9
:201D4000310001F0F9FF03E04FF0720001F0F4FFBDE8F08100B501F06AFD4FF0000000BDD2
:201D6000F0B581B0054616461F464FF000040DF1010244F2A911C0F2C501304607F069FA05
:201D800004463A4629460DF1010001F09DFD012801D04FF00104204601B0F0BD4FF0FF310F
:201DA0000160704730B44FF0000317E003EB01042478056884EA050404F0FF044FEA8404C3
:201DC00047F66C15C1F6FF752C4405684FEA1525246885EA0404046003F101039342E5D3DE
:201DE00030BC7047016881F0FF310160704700004DF8048D40F22858C2F2000898F800004A
:201E0000552814D148F27410C1F6FF7040F23C58C2F20008C8F8000048F29C10C1F6FF702E
:201E200040F23858C2F20008C8F8000013E048F28810C1F6FF7040F23C58C2F20008C8F837
:201E4000000048F2CC10C1F6FF7040F23858C2F20008C8F800005DF8048B70472DE9F04126
:201E600083B007460E464FF0000540F23C58C2F20008D8F80040FFF71DFB3C284DD9B42844
:201E80004BD24FF0000246E010464FEA800108444FEA800020444088B84239D110464FEAEA
:201EA000800108444FEA8000204440680190E068013803D307D002380AD00DE0019840F007
:201EC0000040019008E0019840F04040019003E0019840F08040019030798DF802003068AA
:201EE000029010464FEA800108444FEA800020440088ADF80000694610464FEA8002104496
:201F00004FEA80002044007A0BF007F8054604E002F10100C2B2002AB6D0284603B0BDE823
:201F2000F0812DE9104140F23C58C2F20008D8F800204FF000012DE00B464FEA8304234492
:201F40004FEA830313441B88834220D1084603464FEA830003444FEA83031846104400699E
:201F6000D0B1084603464FEA830003444FEA8303184610440369084601464FEA81000144D5
:201F80004FEA8101084610444088984704E001F10101C9B20029CFD0BDE810812DE91001C5
:201FA0004FF001020369446803EA0403046904EA0104A34232D1C06805282FD80FF2040822
:201FC000D8E800F003090F181E27B1F1004F25D34FF0000222E0B1F1404F1FD34FF0000249
:201FE0001CE0B1F1004F19D3B1F1404F16D24FF0000213E0B1F1004F10D24FF000020DE0BA
:20200000B1F1004F0AD2B1F5806F07D34FF0000204E0B1F1804F01D24FF000021046BDE8DF
:20202000100170472DE9F04106460F4640F23858C2F20008D8F800404FF00102FFF73AFAF6
:202040003C2841D9B4283FD24FF000053AE0316828464FEA8002A2EB00004FEAC00020440B
:20206000FFF79CFF024628464FEA8001A1EB00004FEAC0002044007A317988421FD1F2B9ED
:2020800028464FEA8001A1EB00004FEAC00020444069C8B128464FEA8001A1EB00004FEA20
:2020A000C00020444269394628464FEA8003A3EB00004FEAC00020444088904704E005F144
:2020C0000100C5B2022DC2D3BDE8F081704770477047000010B44FF0000213E011464FEA01
:2020E0008103A3EB01014FEA810100F108030B4411464FEAC10100F120042144596002F14E
:202100000101CAB2022AE9D34FF0000101704FF0000141704FF0000181704FF00001C17015
:202120004FF00001416010BC7047F0B51C6805464FEA8506A6EB05054FEA850501F10806A5
:2021400035446D685E6807464FEA870CACEB07074FEA870701F1080C67443A804FEA8002C0
:20216000A2EB00004FEA800001F1080108445968816032462146284601F085FBF0BD30B5E0
:2021800081B04FF00004C1784FEA8102A2EB01014FEA810100F1080211440D88C1784FEA35
:2021A0008102A2EB01014FEA810100F10802114401F10401407801281ED14FF000008DF877
:2021C00002004FF000008DF803000DF103030DF10202284600F000FCFF280DD09DF802003B
:2021E00000F0F000003802D0103803D004E04FF0000401E04FF00104204601B030BD10B5C5
:202200000446E0784FEA8001A1EB00004FEA800004F1080108440288E0784FEA8001A1EBAB
:2022200000004FEA800004F10801084400F104006178012917D10146104600F0E9F82078B5
:20224000012802D14FF000002070E07800F1010000F00100C0B2E070E078A178884202D1A8
:202260004FF00000607010BD10B504462078C0B913460A462146A078FFF757FF607810B94D
:202280004FF001006070A07800F1010000F00100C0B2A070A078E178884202D14FF0010063
:2022A000207010BDF0B581B005460C464FF000008DF802004FF000008DF8030020680078C1
:2022C00002280ED1206800F1010000783E2808D1206800F102000078802802D101F07EFDEA
:2022E0003EE00DF103030DF102022146284600F073FB064640F27057C2F20007FF2E2FD05B
:202300009DF8020000F0F000003806D0103804D0103821D010381FD022E02246294640F2A1
:202320004050C2F20000FFF79FFF786A052817D130464FEA800108444FEA800048F2FC1152
:20234000C1F6FF71084400884FF00B0101F0ABFB384600F0FFFA03E02146284600F058F841
:2023600001B0F0BD30B540F27054C2F20004E56A6868002803D96868A0F10100686001F02E
:202380005EFD90F82500012808D1606DD8B94FF000006860E06AFFF732FF14E0606D90B953
:2023A000606A80B9E06AFFF7EAFE60B1686850B901F04AFD38B94FF0000001F014FAA08081
:2023C0004FF01000606230BD2DE9004140F24050C2F2000040F27058C2F20008C8F82C0090
:2023E00040F27058C2F20008D8F82C00FFF772FE40F27050C2F2000000F1300000F0C9FA4B
:2024000040F27050C2F2000000F0A4FABDE800812DE9704182B006460C464FF000008DF807
:2024200006004FF000008DF807000DF107030DF106022146304600F0CFFA05469DF8071030
:20244000FF2D00F059819DF8060000F0F000003808D010383AD0103800F0B480103800F005
:20246000D28049E19DF8062001F101006368A3EB00009042C0F04081002A00F03D81284650
:202480004FEA800318444FEA800048F2FC13C1F6FF73184463680069834200F22D81009173
:2024A000D0B20346224628464FEA800108444FEA800048F2FC11C1F6FF710844014640F289
:2024C0007050C2F2000000F054FB15E160680828C0F01281002E40F00F8128464FEA800201
:2024E00010444FEA800048F2FC12C1F6FF72104462680069824200F2FF809DF8060000F018
:202500000F004FEA002001F1010223681A441278024401F10200C1B22ABB2068084400780D
:202520004FEA006001F1010223681A4412784FEA024242EA000001F1020223681A44127888
:202540004FEA022242EA000001F1030223681A44127842EA000201F10400C1B2B2F5805F6B
:2025600001D24FF000026068082807D19DF80700C0F1080080B28242C0F0BE806068082846
:202580000AD960689DF80730A0EB0300A0F1010080B28242C0F0B08000911346224628460E
:2025A0004FEA800108444FEA800048F2FC11C1F6FF710844014640F27050C2F2000000F0C5
:2025C0003FFB99E040F27058C2F20008D8F82400052840F09180002E40F08E800B4622460B
:2025E00028464FEA800108444FEA800048F2FC11C1F6FF710844014640F27050C2F2000007
:2026000000F073FB78E040F27058C2F20008D8F85400062870D1606803286DD3002E6BD11E
:202620009DF8060000F00F00C0B2A8B90B46224628464FEA8001A1EB00004FEAC00048F28D
:202640002421C1F6FF710844014640F27050C2F2000000F0FFFB4FE09DF8060000F00F0022
:20266000C0B2012828D14FF0060040F27058C2F20008C8F8540040F27058C2F20008D8F831
:202680005C00FF2838D84FF47A7001F0ACF840F27058C2F20008A8F8340040F27058C2F2AD
:2026A0000008D8F85C0000F1010040F27058C2F20008C8F85C001FE09DF8060000F00F0089
:2026C000C0B2022818D128464FEA8001A1EB00004FEAC00048F22421C1F6FF71084400884E
:2026E0004FF0010101F028FA40F27050C2F2000000F1300000F04DF902B0BDE870812DE92B
:2027000030414FF0FF0140F27054C2F200044FF0000222E013464FEA8305A5EB03034FEA2F
:20272000C30348F22425C1F6FF752B445B88834210D1636D082B0BD0636D0C2B08D0636DA0
:202740000E2B05D0636D0D2B02D0636D0F2B01D1114604E002F10102D2B2002ADAD0FF2904
:202760003CD0606D0F2800F287800FF20808D8E800F0C046838383838383838309838383DF
:202780001F09281F08464FEA8001A1EB00004FEAC00048F22421C1F6FF71084400884FF084
:2027A000000101F0C9F904F1300000F0F2F863E04FF0060060654FF47A7001F014F8A086C9
:2027C0005AE094F8310084F858004FF0960001F00AF8A0864FF0090060654DE000F05DFEBB
:2027E0000146FF2948D0606A022808D14FF0050060624FF47A7000F0F6FFA0803CE0606A67
:20280000042816D108464FEA800108444FEA800048F2FC11C1F6FF71084400884FF0010115
:2028200001F041F940F27050C2F2000000F092F822E0606A112809D101F01FFBE06A4FF4D6
:2028400048714160204600F085F815E008464FEA800108444FEA800048F2FC11C1F6FF71DB
:20286000084400884FF0010101F01DF940F27050C2F2000000F06EF8BDE830812DE9304163
:202880004FF0FF044FF0000313E01A464FEA8205A5EB02024FEAC20248F22425C1F6FF7562
:2028A0002A441288904201D11C4604E003F10102D3B2002BE9D0FF2C23D040F27058C2F2FA
:2028C0000008D8F85420E2B940F27052C2F2000202F130044968216120844FF00700606261
:2028E0004FF0000000F07FFFA0804FF0010084F828004FF0000040F27058C2F20008C8F872
:2029000024004FF00000BDE8308110B540F27054C2F20004606D68B9606A0B280AD1608CD9
:202920004FF0000101F0BFF840F27050C2F2000000F010F8204600F06FFE012802D02046ED
:2029400000F001FE012802D0204600F0E9FEFFF709FD10BD4FF0000101704FF00001818095
:202960004FF0000181604FF0000181814FF0000101614FF0000181824FF0000181774FF098
:20298000000101844FF0000141844FF00001416270474FF0000101704FF0000181804FF0E1
:2029A000000181604FF0000181814FF0000101614FF0000181824FF0000181774FF0000196
:2029C00001844FF0000141624FF0000180F828104FF00001C1627047F0B44FF0FF064FF05E
:2029E00001054FF0000454E027464FEA870C67444FEA870748F2FC1CC1F6FF7C67447F8879
:202A0000874243D127464FEA870C67444FEA870748F2FC1CC1F6FF7C67447F68012F0BD10C
:202A20004FF000051D701D780E6835442D78157026464FF0000529E027464FEA870C67447A
:202A40004FEA870748F2FC1CC1F6FF7C67447F68E7B927464FEA870C67444FEA870748F214
:202A6000FC1CC1F6FF7C6744D1F800C03F7A9CF800C067450AD14FF001051D701D780E6867
:202A800035442D78157026464FF0000504F10104E4B2022C01D2012DA6D0FF2E5DD14FF014
:202AA00001054FF0000455E027464FEA870CACEB07074FEAC70748F2242CC1F6FF7C67444C
:202AC000BF88B84243D127464FEA870C67444FEA870748F2FC1CC1F6FF7C67447F68012FB0
:202AE0000BD14FF000051D701D780E6835442D78157026464FF0000529E027464FEA870C89
:202B000067444FEA870748F2FC1CC1F6FF7C67447F68E7B927464FEA870C67444FEA8707E2
:202B200048F2FC1CC1F6FF7C6744D1F800C03F7A9CF800C067450AD14FF001051D701D78E2
:202B40000E6835442D78157026464FF0000504F10104E4B20CB9012DA6D03046F0BC7047DA
:202B60004FF001034068824201D04FF00003184670472DE9F04404460E4617469A469DF8C4
:202B8000185005F10100C0B2054605EB0A00C0B2014638464FF00802FFF7E2FF01284DD181
:202BA000BAF1020F11D13868284400783E280CD105F10100396808440078802805D17088DE
:202BC000012802D101F00AF938E0606A013802D329D0043832D1606A05280AD130884FF014
:202BE0000B0100F060FF40F27050C2F20000FFF7B1FE4FF000000BE004F11601014400EBC9
:202C000005023B681A4412780A7000F10100C0B25045F1D384F81EA0C4F810A02146304668
:202C200000F069F90AE030884FF0010100F03BFF40F27050C2F20000FFF78CFEBDE8F084F6
:202C40002DE9F04405460C4616461F469DF818A0686A013802D33BD0043844D1686A052844
:202C60000AD120884FF00B0100F01DFF40F27050C2F20000FFF76EFE3079A0EB0A00C0B2C2
:202C8000A8774FF000000BE005F11601014400EB0A0233681A4412780A7000F10100C0B241
:202CA000A97F8842F0D32F614FF0010028707068A8624FF0000000F096FDA8802946204656
:202CC00000F040F902462946204600F00DFB0AE020884FF0010100F0E6FE40F27050C2F269
:202CE0000000FFF737FEBDE8F0842DE9F04C06460D4614461F464FF0000B3069B18AA0EB37
:202D0000010021683944097801F00F01C9B20B464FF001014FF00102D4F804C0D6F828A0B5
:202D2000D44509D200F1010C1FFA8CFCD4F804A0E24501D24FF00001012940F0898031784A
:202D40008B420BD028884FF0050100F0ACFE40F27050C2F20000FFF7FDFD79E0317801F1B2
:202D60000101C9B23170317801F00F01C9B23170B16AA1F10101A1EB070189B2884204D84B
:202D8000C0B282464FF0010B06E0B06AA0F10100A0EB0700C0B28246BBF1010F0AD10AF1BE
:202DA00001003844C0B2014620464FF00802FFF7D7FE0246012A4BD14FF0000013E0B16889
:202DC000B2890968114407EB000202F1010223681A4412780A70B18901F1010189B2B18180
:202DE00000F10100C0B25045E9D3B08A504480B2B082308C00F1010080B23084BBF1010F9C
:202E000012D14FF00B00706228887084706DF8B928884FF0000100F046FE40F27050C2F2B7
:202E20000000FFF797FD13E0B06A616888420AD028884FF0010100F036FE40F27050C2F2D3
:202E40000000FFF787FD4FF47A7000F0CCFCB080BDE8F08CF0B5154603F10202D2B21646EA
:202E600003F10102D2B2174600F1300406F10100C0B2014628464FF00802FFF771FE01285F
:202E800038D12868384400786080608810B94FF6FF7060802868304400787F2804D92868F0
:202EA00030440078F12804D3286830440078F92803D94FF07F00607011E0286830440078C2
:202EC0007F2803D94FF00100607008E028683044007800F088FC00F10100C0B2607060787B
:202EE00084F828004FF0960000F07DFCA0804FF009006062F0BD30B505460C4621462846C2
:202F000000F036F890B94FF00B00606228886084606DB0B928884FF0000100F0C4FD40F2A1
:202F20007050C2F20000FFF715FD0AE0608C4FF0010100F0B8FD40F27050C2F20000FFF7BD
:202F400009FD30BD30B50C46214600F011F805461DB94FF00100606208E0012D03D1204674
:202F6000FFF7F8FC02E04FF003006062284630BD10B50C464FF00102A16831B904F10802DB
:202F80002169008800F059FD0246A06810B3A0684068A18988421DD94FF000024FF00001AB
:202FA00015E0A068A3890068184404F116030B441B780370A38A03F1010398B2A082A38904
:202FC00003F1010398B2A08101F10100C1B2A07F8142E6D3104610BD4FF000028368012B12
:202FE00002D14FF0010203E083680BB94FF002024369082B0CD94069A0EB020080B2096949
:20300000814202D34FF002020DE04FF001020AE0C2F1090080B20969814202D34FF0020281
:2030200001E04FF001021046704710B584B04FF00003019302AB00938368012B0AD0836875
:2030400043B9019B009C2344047C1C70019B03F101030193013A0FD303D0023A05D308D0C5
:203060000AE06A4600F00AF806E06A4600F059F802E06A4600F0E6F804B010BDF0B506461B
:203080000F4614464FF0000007F13005B168012902D14FF0000003E0B16809B94FF00100C2
:2030A00029690844072809D8606821680844297C0170606800F10100606012E060682168B2
:2030C00008444FF000010170606800F101006060606821680844297C0170606800F101000C
:2030E0006060287C034622462946304600F091F901280CD121467088FEF7B0FE4FF47A7027
:2031000000F071FBA8804FF00800686208E030884FF00A0100F010FD07F13000FFF739FCE0
:20312000F0BDF0B506460F46144607F130052869B0F5805F1DD2606821680844296901F4ED
:2031400070614FEA1121C9B241F01001C9B20170606800F1010060606068216808442969E1
:2031600001F0FF01C9B20170606800F10100606041E06068216808444FF0100101706068B1
:2031800000F1010060606068216808444FF000010170606800F10100606060682168084418
:2031A0004FF000010170606800F1010060606068216808444FF000010170606800F10100DC
:2031C0006060606821680844296901F470614FEA1121C9B20170606800F1010060606068A1
:2031E00021680844296901F0FF01C9B20170606800F10100606070696168A0EB0100C0B271
:20320000034622462946304600F003F901280FD121467088FEF722FE4FF0010028704FF494
:203220007A7000F0E0FAA8804FF00C00686208E030884FF00A0100F07FFC07F13000FFF72A
:20324000A8FBF0BDF0B5044616464FF0000701F130052869A98AA0EB0100726831680A4455
:20326000297801F12001C9B21170726802F10102726061697268A1EB0201C9B20A4690422C
:2032800003D8C0B202464FF00107134632462946204600F0BEF8012F03D14FF00D006862EC
:2032A00011E06888002804D96888A0F1010080B268806888002803D94FF00E00686202E09F
:2032C0004FF00F006862287800F1010000F00F00C0B228704FF47A7000F085FAA880314600
:2032E0006088FEF7BBFDF0BD70B584B0064614464FF000000D46694602914FF000010391E5
:203300004FF0000315E01A464FEA8201A1EB02024FEAC202114648F22422C1F6FF72114479
:20332000728949888A4201D1184604E003F10101CBB2002BE7D07168012915D0716899B979
:20334000039A02990A444FEA8001A1EB00004FEAC00048F22421C1F6FF710844007C1070BA
:20336000039800F101000390F4B90398029908444FF030010170039800F101000390039862
:20338000029908444FF000010170039800F1010003900398029908444FF0000101700398A7
:2033A00000F10100039016E0022C0AD10398029908444FF031010170039800F10100039005
:2033C00009E00398029908444FF032010170039800F10100039002A800F050F802A97089F9
:2033E000FEF73CFD4FF47A7000F0FDF9A8801CB94FF0020068620AE0032C03D14FF0040054
:20340000686204E0022C02D14FF01100686204B070BDF0B50C4615461F464FF00006A168FD
:2034200021B904F10801008800F059FBA06800B34FF0000119E06A6828680244A068A38918
:203440000068184400781070A28A02F1010290B2A0826A6802F101026A60A28902F1010277
:2034600090B2A08101F10100C1B2B942E3D34FF00106284600F002F83046F0BD09E041687F
:20348000026811444FF000020A70416801F10101416041680829F2D3704770B44FF0FF03B9
:2034A0004FF0FF024FF0000113E00C464FEA8405A5EB04044FEAC40448F22425C1F6FF753E
:2034C0002C446488A04201D10A4604E001F10101C9B20029E9D0FF2A32D04FF000012DE0DF
:2034E0000C464FEA84052C444FEA840448F2FC15C1F6FF752C446489A0421CD10C464FEA5A
:2035000084052C444FEA840448F2FC15C1F6FF75254414464FEA8406A6EB04044FEAC4045B
:2035200048F22426C1F6FF7634446D88A488A54201D10B4604E001F10101C9B20229CFD318
:20354000184670BC704770B504464FF0000694F85800002825D994F85800A0F10100C0B284
:2035600084F8580094F85800D8B94FF0000516E028464FEA8001A1EB00004FEAC00048F2E1
:203580002421C1F6FF710844B4F850100088814202D14FF0010604E005F10100C5B2002D84
:2035A000E6D0012E36D1606D073813D0023831D1214628464FEA8002A2EB00004FEAC000DE
:2035C00048F22422C1F6FF7210444FF00302FFF72CFD1FE004F1300128464FEA8002A2EBB1
:2035E00000004FEAC00048F22422C1F6FF721044FFF7F2FC0246214628464FEA8003A3EB8B
:2036000000004FEAC00048F22423C1F6FF731844FFF70BFD304670BD10B54FF000048188F9
:2036200000291ED98188A1F1010189B281808188B9B94FF0000212E011464FEA8103194472
:203640004FEA810148F2FC13C1F6FF731944498811B94FF0010404E002F10101CAB2022A80
:20366000EAD3012C5AD1416A043905D202312CD83CD0013107D051E0013937D90B3913D088
:20368000013933D04AE0014610464FEA800210444FEA800048F2FC12C1F6FF7210444FF05B
:2036A0000002FFF721FE39E0014610464FEA800210444FEA800048F2FC12C1F6FF721044B1
:2036C0004FF00202FFF710FE28E0014610464FEA800210444FEA800048F2FC12C1F6FF72C6
:2036E00010444FF00302FFF7FFFD17E010464FEA800108444FEA800048F2FC11C1F6FF71C6
:20370000084400884FF0010100F0CDF940F27050C2F20000FFF71EF900F0AFFB204610BD5E
:2037200030B504464FF00005A08E002822D9A08EA0F1010080B2A086A08ED8B94FF00001AE
:2037400016E008464FEA8002A2EB00004FEAC00048F22422C1F6FF721044B4F85020008844
:20376000824202D14FF0010504E001F10100C1B20029E6D0012D34D1606D063804D00238F8
:2037800018D0043803382CD808464FEA8001A1EB00004FEAC00048F22421C1F6FF71084447
:2037A00000884FF0010100F0C7F904F13000FFF7F0F816E008464FEA8001A1EB00004FEACA
:2037C000C00048F22421C1F6FF71084400884FF0010100F0B1F904F13000FFF7DAF800F0F7
:2037E000FFF9284630BD00F1010080B2704700B54FF000000EF03CFC00BD01644A6A8260B9
:203800008A6AC260CA6A02610A6B42614A6B82618A6BC261CA6B026201F1400242624A6C0C
:20382000826201F14802C262C96C016370472DE9704105460E4640F27431C2F2000140F2D0
:203840001060C2F20000FFF7D8FF4FF0070040F21068C2F20008C8F8340040F21061C2F280
:2038600000014FF000000EF03AFC0446324640F21068C2F20008D8F82010284600F003F853
:203880002046BDE8708130B403460C46154609E053B14CB12078187003F1010304F1010456
:2038A000A5F10105002DF3D830BC704710B40346144605E033B1197003F10103A4F1010486
:2038C000002CF7D810BC704770B44FF0010503460C46164692B94FF0000511E04BB144B199
:2038E00018782178884204D103F1010304F1010402E04FF0000503E0A6F10106002EEDD874
:20390000284670BC704701784FEA016100F1010212784FEA0242114400F1020212784FEA3A
:203920000222114400F1030000780144084670474FEA1062D2B20A7001F101024FEA10432E
:20394000DBB2137001F102024FEA1023DBB2137001F10301C0B2087070472DE900414FF0B8
:20396000020000F04BF94FF0010000F07AF900F0D1FC40F65400C2F2000040F29068C2F295
:203980000008C8F8080040F2C460C2F2000040F29068C2F20008C8F8180000F0ECF800F0CB
:2039A0001FF900F0EEFCBDE800812DE9004100F025F94FF0000040F29068C2F20008A8F8C5
:2039C000040040F29068C2F20008D8F808004FF03101017040F29068C2F20008D8F8081075
:2039E00001F101014FF00100087040F29068C2F20008D8F8081001F102014FF0030008709E
:203A000040F29068C2F20008D8F8081001F103014FF0010008704FF0080040F29068C2F205
:203A20000008C8F80C0000F047FABDE8008100B500F09BFC00F0FDFA00BD2DE910014FF015
:203A4000000340F29068C2F20008D8F8004024BB08B1012821D1B1F5006F1BD84FF001046E
:203A600040F29068C2F20008C8F8004040F29068C2F20008A8F8040040F29068C2F20008F0
:203A8000C8F80C1040F29060C2F2000000F10800106004E04FF0030301E04FF00103184660
:203AA000BDE8100170472DE9004140F29068C2F20008D8F80020012A0FD151B940F290682D
:203AC000C2F20008B8F80410884202D100F0F4F903E000F085F800F04EF8BDE800812DE92A
:203AE00000414FF0000240F29068C2F20008D8F81030022B17D140F29068C2F20008B8F8A3
:203B0000143098420FD140F29060C2F2000000F1180008604FF0010040F29068C2F200083A
:203B2000C8F8100005E000F05BF800F024F84FF001021046BDE800812DE90041B9B940F2C8
:203B40009068C2F20008B8F8141088420FD140F29068C2F2000898F8250040B94FF0000060
:203B600040F29068C2F20008C8F8100001E000F002F8BDE800812DE900414FF0000040F2D6
:203B80009068C2F20008C8F820004FF0000040F29068C2F20008C8F810004FF0000040F22B
:203BA0009068C2F2000888F824004FF0010040F29068C2F2000888F8250000F0EFFA00F019
:203BC000B6FA41F25408C2F2000898F80000012802D100F078FA01E000F000F9BDE800810C
:203BE0002DE900414FF0000040F29068C2F20008C8F8000000F04EF9BDE800814DF8048D56
:203C000041F25408C2F2000888F800005DF8048B70474DF8048D41F25408C2F2000898F88D
:203C200000005DF8048B70472DE930014FF000034FF000020FE002EB000441F25408C2F2FC
:203C4000000898F800502478A54201D14FF0010302F10102D2B28A42EDD31846BDE83001AA
:203C600070474DF8048D41F25408C2F2000888F804005DF8048B70474DF8048D41F25408E8
:203C8000C2F2000898F804005DF8048B70474FF0010201464FEA8101084641F25C01C2F263
:203CA000000108440068002801D94FF00002104670472DE930014FF000034FF000020FE046
:203CC00002EB000441F25408C2F2000898F804502478A54201D14FF0010302F10102D2B2B2
:203CE0008A42EDD31846BDE83001704702464FEA8202104641F25C02C2F2000210440160F6
:203D000070474DF8048D41F25408C2F20008A8F802005DF8048B70472DE900414FF00100F7
:203D200040F29068C2F2000888F8250000F091FAFFF756FFBDE800812DE9004140F290688B
:203D4000C2F20008D8F81810782807D04FF0010240F29068C2F2000888F825204FF07F028B
:203D60000A7001F1010240F29068C2F20008D8F808301B78137001F1020108704FF0030021
:203D800040F29068C2F20008C8F81C0000F061FA40F29068C2F2000898F82500012801D180
:203DA000FFF71EFFBDE8008110B50446A4B959B101290DD1112A0BD0122A09D0312A07D0EF
:203DC0007E2A05D07F2A03D01046FFF7B5FF03E0FFF706FFFFF7CFFE204610BD4DF8048D40
:203DE00041F25408C2F2000898F80000012807D041F2883040F29068C2F20008A8F8260051
:203E00005DF8048B704700B54FF0010000F00CF800BD4DF8048D40F29068C2F20008C8F8E5
:203E200030005DF8048B70474DF8048D40F29068C2F20008A8F828005DF8048B704740F266
:203E40009060C2F2000070474DF8048D4FF0000040F29068C2F20008D8F8101041B94FF0E3
:203E6000010140F29068C2F20008C8F8101001E04FF001005DF8048B70474DF8048D4FF0A9
:203E8000000040F29068C2F20008C8F810005DF8048B70474FF000000AE040F65401C2F269
:203EA000000101444FF0FF020A7000F1010080B2B0F5006FF1D370472DE900414FF00200B7
:203EC00040F29068C2F20008C8F800004FF01900FFF7AAFF00F038F900F0F5F84FF0010007
:203EE00040F29068C2F2000888F824004FF0000040F29068C2F2000888F82500BDE8008148
:203F00002DE930414FF0000448F2A020C1F6FF704FF000012EE040F29068C2F20008D8F8B3
:203F200008200378127893421FD140F29068C2F20008B8F8041021B9417801F00101C9B2E4
:203F400061B940F29068C2F20008B8F80410012912D1417801F00201C9B269B140F2906824
:203F6000C2F20008C8F8200006E000F1180001F10101C9B20A29CED340F29068C2F200088D
:203F8000D8F82000002844D040F29068C2F20008D8F820000069E0B340F29068C2F200083D
:203FA000D8F82000817840F29068C2F20008D8F820004068FFF738FE054640F29068C2F245
:203FC0000008D8F82000017A40F29068C2F20008D8F82000C068FFF76CFE15B94FF07F0480
:203FE00019E010B94FF0330415E040F29068C2F20008D8F82000026940F29060C2F200007D
:2040000000F11000014640F29060C2F20000904701E04FF0110454B1224640F29068C2F22B
:204020000008B8F804104FF00000FFF7BDFEBDE830812DE9004181B040F29068C2F2000800
:20404000D8F81000E0BB40F29068C2F2000898F8240001280AD14FF0000040F29068C2F22A
:20406000000888F82400FFF74BFF29E040F29068C2F2000898F8250010BB0DF1030001F0F3
:20408000F3FD01281CD140F29068C2F20008D8F820004069A0B140F29068C2F20008D8F894
:2040A0002000436940F29060C2F2000000F11000024640F29061C2F200019DF803009847C6
:2040C00001B0BDE800814DF8048D4FF0000040F29068C2F20008A8F826005DF8048B7047AD
:2040E0002DE9004140F29068C2F20008B8F8260000281AD940F29061C2F20001C88CA0F1D5
:20410000010080B2C88440F29068C2F20008B8F82600012809D14FF0000040F29068C2F244
:204120000008A8F82600FDF779FABDE800814DF8048D6FF0FE0040F29068C2F20008C8F84B
:204140002C005DF8048B70474DF8048D4FF0000040F29068C2F20008C8F82C0041F28830C6
:2041600040F29068C2F20008C8F830005DF8048B70474DF8048D40F29068C2F20008D8F842
:204180002C00002807DB40F29061C2F20001C86A00F10100C8625DF8048B70474DF8048D52
:2041A0004FF0000040F29068C2F20008A8F828005DF8048B70472DE900414FF0000140F2AE
:2041C0009068C2F20008B8F8280000283FD940F29062C2F20002108DA0F1010080B2108543
:2041E00040F29068C2F20008B8F8280040B940F29068C2F20008D8F8100008B94FF0010140
:2042000040F29068C2F20008D8F82C00002818DB40F29068C2F20008D8F82C0040F2906895
:20422000C2F20008D8F8302090420AD201290ED14FF07800FFF780FD41F28830FFF7F4FDEF
:2042400005E04FF01000FFF777FDFFF770FFBDE800812DE900414FF0020040F29068C2F2BF
:204260000008C8F810004FF0000040F29068C2F20008A8F8140040F29060C2F2000000F1C6
:204280001800014640F29068C2F20008B8F81400FEF7F4FABDE8008130B501F05AFE054693
:2042A0004FF0000433E020464FEA800041F25C01C2F2000108440068002825D920464FEACB
:2042C000800041F25C01C2F2000101440868A0F10100086020464FEA800041F25C01C2F207
:2042E00000010844006878B920464FEA800028440068022808D320464FEA800028444FF016
:204300000001016001F07CFD04F10100C4B2002CC9D030BD4DF8048D4FF0000041F254080F
:20432000C2F20008A8F802005DF8048B70472DE9004141F25408C2F20008B8F80200002808
:2043400011D941F25401C2F200014888A0F1010080B2488041F25408C2F20008B8F80200DD
:2043600008B9FDF75BF9BDE8008100B5FFF794FFFFF7B6FEFFF71FFFFFF7FBFEFFF7D7FF57
:2043800000BD4DF8048D4FF0010041F26808C2F2000888F805004FF0000041F26808C2F2D0
:2043A000000888F804004FF0000041F26808C2F20008C8F800004FF0000041F26808C2F27D
:2043C000000888F806004FF0000041F26808C2F20008C8F80C004FF0000041F26008C2F257
:2043E000000888F800004FF0000041F26808C2F20008C8F810004FF0000041F26808C2F231
:204400000008C8F814004FF0000041F26808C2F20008C8F808004FF0000041F26808C2F2C4
:20442000000888F818005DF8048B70472DE9F04D04460D464FF0010A4FF0000B4FF0000678
:204440004FF00007A06800F10100007800F08000002801DD4FF0000AA06800F10100007873
:2044600000F07F00C0B201464FF0000019E002464FEA021248F29033C1F6FF731A44127839
:2044800091420BD14FEA001048F29032C1F6FF7200EB02070E464FF0010B04E000F1010097
:2044A000C0B20228E3D3E1684FF0020000F04FFF012805D1A18858464FF01202FFF774FC63
:2044C000012808D179787868FFF7AEFBA1884FF07E02FFF769FC012804D1E1684FF002009F
:2044E00000F028FF012803D1397AF86800F03CFF01287FD14FF0000041F26008C2F200085B
:2045000088F800004FF00000FFF7ABFBFFF781FB07463046FFF772FB01F025FDBAF1010FDA
:204520005CD1A8684FF050010170A86800F10100A16801F1010109780170022E2ED1A8680D
:2045400000F102004FF000010170A86800F103004FF01901017001F045F94FF0000041F248
:204560006808C2F20008C8F808004FF0000041F26808C2F2000888F804004FF0000041F2B3
:204580006808C2F20008C8F80C004FF0000041F26808C2F2000888F806000DE0012E0BD107
:2045A000A86800F102004FF000010170A86800F103004FF032010170A86800F104004FF01C
:2045C00001010170A86800F105004FF0F40101704FF00600E860FFF79FFB03E0FFF700FBCC
:2045E000FFF7C9FA022F05D1012E03D14FF00A00FFF787FBBDE8F08D2DE9F04C04460F4624
:204600004FF000064FF001004FF0010B4FF00005A16801F10101097801F08001002901DD8F
:204620004FF0000BA16801F10101097801F07F01C9B28A464FF0000118E00A464FEA021221
:2046400048F2B033C1F6FF731A44127892450AD14FEA011148F2B032C1F6FF7201EB0205F8
:204660004FF0010604E001F10101C9B20029E4D0012E08D169786868FFF7D6FAA1884FF0DD
:204680007E02FFF791FB012804D1E1684FF0020000F05DFE012805D1A18830464FF0120254
:2046A000FFF782FB012801D100F07EFE012804D1E1684FF0020000F03DFE012803D1297ACD
:2046C000E86800F051FE012819D1BBF1010F0ED1B8684FF051010170B86800F1010080F8F1
:2046E00000A04FF00200F860FFF716FB03E0FFF777FAFFF740FA4FF00A00FFF702FBBDE81F
:20470000F08C2DE9F04F93B005468B464FF000044FF000098DF801904FF00009CDF8049027
:204720004FF00006E9684FF0030000F010FE8246BAF1010F0BD1E86800F0010038B9A988E1
:204740004FF013024FF00000FFF72EFB8246E868A0F101004FEA5008CDF80480E868A0F142
:2047600001004FEA500011280BD3E868A0F1010000F0010028B94FF01300FFF7DDFA4FF086
:20478000000ABAF1010F59D14FF0000A4FF0000050E001464FEA410101F10101AA68114455
:2047A00009784FEA012189B202464FEA420202F10202AB681A441278114489B24FF0000755
:2047C00028E03A464FEA8203A3EB02024FEA820248F2C033C1F6FF731A441288914217D13B
:2047E00031464FEA810102AA11443A464FEA8203A3EB02024FEA820248F2C033C1F6FF73A3
:204800001A440A6006F101018EB24FF0010A03E007F10107112FD4D3BAF1010F08D0A988BF
:204820004FF031024FF00000FFF7BEFA824605E000F10100DDF804804045AAD3BAF1010F64
:204840001AD14FF0000715E0BAF1010F14D138464FEA800002A908440068817838464FEA4C
:20486000800002AA10440068406800F07DFD824607F10107B742E7D3BAF1010F02D100F045
:2048800093FD8246BAF1010F6BD14FF0000753E038464FEA800002A9084400688068A0B37F
:2048A00004F10100DBF80810084439464FEA810102AA1144096809884FEA2121C9B2017027
:2048C00004F10200DBF80810084439464FEA810102AA11440968098801F0FF01C9B2017090
:2048E00038464FEA800002A90844006882680DF1020104F10300DBF80830184490478DF87C
:204900000100BDF80200204484B29DF80180B8F1000F02D04FF0000A10E004F1020084B23F
:20492000B4F5C87F06D34FF01400FFF705FA4FF0000A03E007F10107B742A9D3BAF1010F0A
:204940000FD19DF80180B8F1000F0AD1DBF808004FF06201017004F10100CBF80C00FFF725
:20496000DBF913B0BDE8F08FF0B505464FF000064FF00004A86800F1010000784FEA002031
:2049800080B2AA6802F102021278104480B24FF0000219E013464FEA031348F2A847C1F60A
:2049A000FF773B441B8898420BD110464FEA001048F2A842C1F6FF7200EB02044FF0010687
:2049C00004E002F10102D2B20C2AE3D3E9684FF0040000F0BCFC012805D1A98830464FF06C
:2049E0003102FFF7E1F9012805D1E968608800F1030000F09FFC012803D12179A06800F06E
:204A0000B3FC012801D100F0CFFC012816D1E06830B1E2686188A86800F10300904701E009
:204A20004FF001000B2804D14FF02200FFF784F904E018B14FF07200FFF77EF9F0BD2DE9CC
:204A4000F04C04468B464FF0000A4FF00006A06800F1010007784FF000002FE001464FEA2A
:204A6000C102A2EB01014FEA810148F28C42C1F6FF72114409788F420ED001464FEAC10231
:204A8000A2EB01014FEA810148F28C42C1F6FF72114489788F420ED14FEAC001A1EB000010
:204AA0004FEA800048F28C41C1F6FF7100EB01064FF0010A04E000F10100C0B20028CDD0C6
:204AC000E1684FF0020000F042FC0546012D06D1A18850464FF01202FFF766F90546012DEE
:204AE00032D1307900F06BFC82463078874219D14FF00200E16800F01DFC0546012D09D1AA
:204B00005046FFF7C4F828B94FF03700FFF714F94FF00005012D17D15A462146304600F02C
:204B20006DFC11E0B07887420ED1F07800F1020080B2E16800F0FEFB0546012D04D15A469E
:204B40002146304600F0ADFCBDE8F08CF0B504460E464FF000074FF00005A06800F10200F6
:204B600000784FEA002080B2A16801F103010978084480B24FF000021FE011464FEAC103A0
:204B800019444FEA810148F26853C1F6FF731944098888420ED110464FEAC00108444FEA73
:204BA000800048F26851C1F6FF7100EB01054FF0010704E002F10101CAB2042ADDD3E168A7
:204BC0004FF0040000F0C3FB012805D1A18838464FF03102FFF7E8F8012808D12979A86842
:204BE000FFF722F8A1884FF03102FFF7DDF8012803D1297B286900F0B7FB012810D1A06859
:204C000000F1010000780246297DA86900F0B7FB30B9A1884FF012024FF00000FFF7C4F833
:204C2000012805D1E168688800F1040000F082FB01281FD1B0684FF071010170B06800F17E
:204C40000100A16801F1010109780170B06800F10200A16801F1020109780170B06800F160
:204C60000300A16801F1030109780170EA69314620469047F0BD2DE9F04D81B0044600912D
:204C800048F2F857C1F6FF77E1684FF0050000F05EFB05464FF0000041F26808C2F200089F
:204CA00088F824004FF00000012D34D1A26802F1010292F800A0A26802F1020292F800B079
:204CC0004FF000061CE032464FEAC2023A441278924512D132464FEAC2023A4452789345C7
:204CE0000BD14FF0010032464FEAC20248F2F853C1F6FF7302EB030704E006F10102D6B218
:204D0000022EE0D338B9A1884FF031024FF00000FFF74AF80546012D05D1E1684FF00B00CB
:204D200000F008FB0546012D55D1A06800F10300FEF7E9FD07463846FCF798FC0746A06863
:204D400000F10700FEF7DFFD0146384600F0A4FE0746052F06D14FF03100FEF7EDFF4FF04B
:204D6000000538E030464FEAC00048F2F852C1F6FF721044817830464FEAC00048F2F852BB
:204D8000C1F6FF721044406800F0EEFA012802D04FF000051FE0022F0ED041F26808C2F273
:204DA0000008D8F8080038B941F26808C2F2000898F80600012806D14FF02200FEF7BCFF1C
:204DC0004FF0000507E0082F05D14FF07000FEF7B3FF4FF00005012D14D1BAF1000F07D15C
:204DE000BBF1440F04D10099204600F0DDFB09E0BAF1100F06D1BBF1440F03D100992046BC
:204E000000F03AFC01B0BDE8F08D2DE9F04D06468B464FF0000041F26808C2F2000898F8FB
:204E20000440F1684FF0030000F091FA8246BAF1010F3CD1B06800F101000778F068A0F116
:204E4000020501F09DF841F26808C2F2000898F80610012908D1012F06D04FF07300FEF710
:204E60006BFF4FF0000A22E0BC4220D1F8B103281DD041F26808C2F20008D8F80C00A842A8
:204E800015D1DBF808004FF076010170DBF8080000F10100B16801F10101097801704FF01F
:204EA0000200CBF80C00FEF737FF4FF0000ABAF1010F19D1294641F26808C2F20008D8F86A
:204EC000000000F087FE022806D14FF02400FEF733FF4FF0000A07E0052805D14FF07100EF
:204EE000FEF72AFF4FF0000ABAF1010F0ED16FB941F26808C2F2000898F80600012805D195
:204F00004FF07300FEF718FF4FF0000ABAF1010F0FD1FF2C02D14FF0000402E004F10100D6
:204F2000C4B2BC4205D04FF07300FEF705FF4FF0000ABAF1010F46D1F068A0F1020500F082
:204F4000E1F941F26808C2F20008D8F80800012822D12946B06800F1020000F00EFE41F27B
:204F60006808C2F2000898F8241031B941F26802C2F2000211682944116068B94FF000004D
:204F800041F26808C2F2000888F8060041F26808C2F2000888F80440BAF1010F13D141F237
:204FA0006808C2F20008C8F80C504FF0000041F26808C2F2000888F8060041F26808C2F22E
:204FC000000888F80440BDE8F08D2DE9304105460C464FF0010100F0D3FF022806D1E9686A
:204FE0004FF0010000F0A6F9014605E04FF02400FEF7A2FE4FF00001012929D100F010FE5C
:20500000014609BB4FF0000041F26808C2F20008C8F808004FF0000041F26808C2F2000881
:2050200088F80400A0684FF0770101704FF00100E0604FF0000041F26808C2F20008C8F8DE
:205040000C00FEF769FE03E04FF02400FEF774FEBDE83081F0B504460D464FF000064FF01F
:205060000107A06800F10100007800F08000002801DD4FF00007A06800F10100007800F098
:205080007F00C0B201464FF000000DE048F29C22C1F6FF7202441278914202D14FF00106D0
:2050A00004E000F10100C0B20028EFD0E1684FF0020000F04CF9012805D1A18830464FF025
:2050C0001202FEF771FE012804D1E1684FF0020000F030F9012817D1012F11D1A8684FF045
:2050E0007E010170A86800F10100A16801F10101097801704FF00200E860FEF70DFE03E063
:20510000FEF76EFDFEF737FDF0BD10B5C8B990684FF06E030370936803F101038C6804F11C
:20512000010420781870936803F102038C6804F10204207818704FF00300D060FEF7ECFDF7
:2051400003E04FF07200FEF7F7FD10BD2DE9F04104460E4615464FF00000B16801F1020178
:2051600009784FEA0122B16801F103010978114489B20F464FF000021EE011464FEAC1034A
:2051800019444FEA810148F26853C1F6FF73194409888F420DD110464FEAC00108444FEA67
:2051A000800048F26851C1F6FF7101444FF0010004E002F10101CAB2042ADED301284FD153
:2051C000086A20B10B6A2A463146204698474CBB384640F21228B0EB080005D04FF6EE4807
:2051E000B0EB080017D041E04FF0010041F26808C2F2000888F81800A86800F104004FF089
:2052000010010170A86800F105004FF00001017002F0FDFA2AE0A86800F104004FF010010D
:20522000017023E0384640F21228B0EB080005D04FF6EE48B0EB08000BD017E0A86800F1A7
:2052400004004FF010010170A86800F1050004700CE0A86800F104004FF01101017005E077
:20526000A86800F104004FF001010170A8684FF071010170A86800F10100B16801F1010136
:2052800009780170A86800F10200B16801F1020109780170A86800F10300B16801F1030106
:2052A00009780170384640F21228B0EB080005D04FF6EE48B0EB080004D006E04FF006007D
:2052C000E86002E04FF00500E860FEF725FDBDE8F08110B588B990684FF0760303709368C7
:2052E00003F101038C6804F10104207818704FF00200D060FEF710FD03E04FF07200FEF7AC
:205300001BFD10BD00B54FF07800FEF715FD41F28830FEF789FD07E002F0F7FE012801D106
:2053200002F029FF02F01DFFFEF789FD00690028F2D100BD10B54FF00104814205D04FF0D9
:2053400000044FF01300FEF7F7FC204610BD10B54FF00104814205D24FF000044FF01300A4
:20536000FEF7EAFC204610BD10B5FEF7A2FC04461CB94FF03300FEF7DFFC204610BD30B44F
:205380004FF000044FF0000309E003EB00052D78AA4201D14FF0010403F10103DBB28B42B3
:2053A000F3D3204630BC704700B54FF0010018B94FF02200FEF7C0FC4FF0010000BD10B485
:2053C0004FF0FF034FF0000213E011464FEAC104A4EB01014FEA810148F28C44C1F6FF7483
:2053E00021440979884201D1134604E002F10101CAB2002AE9D0184610BC70472DE9F04171
:2054000004460F4615464FF00106FEF735FC217981420BD1627841F26000C2F2000000F1DB
:2054200003004FF00001FEF741FA17E04FF0010041F26008C2F2000888F80000207841F220
:205440006008C2F2000888F801006269617841F26000C2F2000000F103009047012E1ED1D3
:20546000A8684FF067010170A86800F10100B96801F1010109780170627841F26000C2F2DA
:20548000000000F103000146A86800F10200FEF7FAF9607800F10200E860FEF73DFCBDE800
:2054A000F0812DE9F04504460E46924600F051FD05462079FFF783FF074641F26008C2F284
:2054C000000898F801002178884267D141F26008C2F2000898F8000001285FD14FF0000019
:2054E00041F26008C2F2000888F80000D4F818C0637841F26000C2F2000000F103000246D3
:20550000E178B06800F10200E04730BB38464FEA80002844006840B138464FEA8000284476
:205520004FF00001016000F06BFC2079FEF799FBDAF808004FF067010170DAF8080000F194
:205540000100B16801F10101097801704FF00200CAF80C00FEF7E0FB24E038464FEA800031
:2055600000EB0501086800F10100086000F048FC38464FEA800028440068022804D24FF0F2
:205580003500FEF7D9FB0DE042F210713846FEF7ADFB4FF03600FEF7CFFB03E04FF02400D6
:2055A000FEF7CAFBBDE8F0852DE9304105460C464FF0000041F26808C2F2000888F81800BD
:2055C0004FF0010041F26808C2F2000888F806004FF0000041F26808C2F2000888F8040084
:2055E0004FF0010041F26808C2F20008C8F80800A86800F10300FEF786F941F26808C2F275
:205600000008C8F8000041F26808C2F20008D8F80000FCF72BF841F26808C2F20008C8F85E
:205620000000A86800F10700FEF76DF9014641F26808C2F20008D8F8000000F0D4F9A068CC
:205640004FF074010170A06800F101004FF020010170A06800F102004FF008010170A0689E
:2056600000F103004FF0000101704FF00400E060FEF752FBBDE830812DE9304105460C4646
:2056800004F0BAFD4FF0000041F26808C2F2000888F818004FF0010041F26808C2F200088A
:2056A00088F824004FF0010041F26808C2F2000888F806004FF0000041F26808C2F2000883
:2056C00088F804004FF0010041F26808C2F20008C8F80800A86800F10300FEF714F941F2A6
:2056E0006808C2F20008C8F8000041F26808C2F20008D8F80000FBF7B9FF41F26808C2F28E
:205700000008C8F80000A86800F10700FEF7FBF8014641F26808C2F20008D8F8000000F06B
:2057200062F9A0684FF074010170A06800F101004FF020010170A06800F102004FF00801D3
:205740000170A06800F103004FF0000101704FF00400E060FEF7E0FABDE830814FF0000044
:2057600070474FF0000070474FF0000070472DE900414FF0000041F22018C2F2000888F849
:2057800068064FF0010041F22018C2F2000888F800004FF000000AE041F22211C2F2000170
:2057A00001444FF000020A7000F10100C0B20A28F2D341F2A000C2F200004FF080024FF007
:2057C0000001FEF773F800F00DF848F22078C1F6FF78D8F8041040F2E030C2F200008847CA
:2057E000BDE800812DE900414FF0000041F22018C2F20008C8F8600602F009F84FF000006E
:2058000041F22018C2F20008C8F864064FF0000041F28C78C2F20008C8F804004FF0000002
:2058200041F28C78C2F20008C8F80000BDE800812DE9104104464FF0000041F22018C2F280
:20584000000898F80010012901D101F08BFA41F22018C2F20008C8F8184041F22018C2F2D0
:20586000000898F86816022922D208BB41F22012C2F2000292F8681601F10101C9B282F824
:20588000681641F22018C2F20008C8F818404FF0030141F22018C2F20008C8F864164FF068
:2058A000000141F22018C2F2000888F8011003E0FFF798FF4FF00200BDE810812DE93041C1
:2058C00004464FF0000541F6A018C2F2000898F80600844280F0828020464FEA8001A1EB15
:2058E00000004FEAC00041F6AC11C2F20001084441F60008C2F20008D8F854104088814200
:205900000ED320464FEA8001A1EB00004FEAC00041F6AC11C2F200010844408800285AD1F1
:2059200020464FEAC00041F60001C2F2000108444FF0000101704FF0000041F60008C2F2EC
:20594000000888F8500020464FEAC00041F60001C2F20001014420464FEA8002A2EB000030
:205960004FEAC00041F6AC12C2F2000210440078C87020464FEAC00041F60001C2F2000133
:2059800008444FF0FF31416001F041FF41F22018C2F2000888F80C4041F22018C2F2000860
:2059A00098F80C0041F22211C2F2000108444FF0000101704FF0000041F22018C2F20008CD
:2059C00088F801004FF0010041F22018C2F20008C8F8640604E04FF0010501E04FF0060561
:2059E0002846BDE830812DE900414FF0000341F22018C2F20008C8F8100041F22018C2F234
:205A00000008C8F814104FF0000041F22018C2F2000888F8680641F22018C2F2000898F88F
:205A20001C204FEA820002444FEAC202104641F24011C2F2000100EB010241F22018C2F290
:205A40000008D8F8100010604FF00000506001F006FA034641F22018C2F2000898F81C20D2
:205A600002F10102D0B241F22018C2F2000888F81C004FF0010041F22018C2F20008C8F8C4
:205A800060064FF0000041F22018C2F20008C8F864061846BDE800812DE9704105460E4626
:205AA0004FF0000441F22018C2F2000898F8680648B14FF0000041F22018C2F2000888F89F
:205AC0006806FFF78FFE41F22018C2F20008D8F8600650B141F22018C2F20008D8F860061A
:205AE000032802D04FF0020441E041F22018C2F2000898F80000A8BB40F20000C1F6FE70D2
:205B000085422CD3C5F1FF30B04228D3B5F1005F25D806EB0500B0F1005F20D8B6F5003F13
:205B20001DD8002E1BD941F22018C2F2000898F81C0000281BD941F24011C2F20001A1F194
:205B400028014FEA800210444FEAC000014448680968084485420AD24FF0020407E04FF054
:205B6000050404E03146284601F04EF804460CB1FFF738FE2046BDE870812DE930014FF067
:205B800000050B4641F22014C2F200046269A2EB0302626141F22018C2F20008C8F8180071
:205BA00041F29478C2F20008C8F800304FF0020041F22018C2F20008C8F864064FF0000029
:205BC00041F22018C2F2000888F801002846BDE8300170472DE910414FF0000441F220180D
:205BE000C2F20008D8F86026012A04D04FF00204FFF7F8FD11E041F22018C2F20008D8F87C
:205C00001020824207D141F22018C2F20008D8F81400884201D24FF005042046BDE810812C
:205C20002DE910414FF0000441F22018C2F20008D8F86006022810D14FF0030041F22018A5
:205C4000C2F20008C8F860064FF0000041F22018C2F20008C8F8640603E04FF00204FFF7B4
:205C6000C1FD2046BDE810814DF8048D4FF0000141F22018C2F20008D8F86416C9B941F28E
:205C80002018C2F2000898F80110072911D041F22018C2F2000898F8011001704FF00000E6
:205CA00041F22018C2F2000888F801004FF0010104E04FF0000101704FF0000108465DF883
:205CC000048B70472DE9004141F22018C2F20008D8F8640601381ED303D002380AD312D0D0
:205CE00019E000F0DBFE41F22018C2F2000888F8010010E001F0BAFA41F22018C2F200087E
:205D000088F8010007E001F02EFC41F22018C2F2000888F8010041F22018C2F2000898F8A1
:205D200001000A2807D04FF0000041F22018C2F20008C8F86406BDE800814DF8048D41F29A
:205D40008C78C2F20008C8F8000041F28C78C2F20008C8F804105DF8048B70472DE900410A
:205D600084B04FF000008DF8040041F60000C2F2000002904FF060000390684603F02FFDAB
:205D80004FF001008DF80400684603F028FD4FF002008DF80400684603F021FD009841F61C
:205DA0000008C2F20008C8F8600041F60000C2F2000040F2E038C2F20008C8F814004AF2FE
:205DC0000000C0F2011040F2E038C2F20008C8F80C004FF0640040F2E038C2F20008C8F8C5
:205DE000100040F2E030C2F2000003F0D2FC10B94FF0000001E04FF0010004B0BDE80081D9
:205E00002DE9004184B04FF000008DF8040041F29400C2F2000002904FF00800039068469A
:205E200003F0DDFC4FF001008DF80400684603F0D6FC4FF002008DF80400684603F0CFFC24
:205E4000009841F29408C2F20008C8F8080041F29400C2F2000040F2E038C2F20008C8F816
:205E600014004CF20000C0F2011040F2E038C2F20008C8F80C004FF00C0040F2E038C2F2F2
:205E80000008C8F8100040F2E030C2F2000003F080FC10B94FF0000001E04FF0010004B0E8
:205EA000BDE800812DE9004184B04FF000008DF8040041F66400C2F2000002904FF49C7039
:205EC0000390684603F08BFC4FF001008DF80400684603F084FC4FF002008DF804006846A5
:205EE00003F07DFC009841F66408C2F20008C8F8380141F66400C2F2000040F2E038C2F2F9
:205F00000008C8F814004EF20000C0F2011040F2E038C2F20008C8F80C004FF49E7040F24D
:205F2000E038C2F20008C8F8100040F2E030C2F2000003F02EFC10B94FF0000001E04FF082
:205F4000010004B0BDE8008141F60000C2F20000704741F29400C2F20000704741F66400F7
:205F6000C2F2000070474DF8048D4FF0000041F22018C2F20008C8F860065DF8048B7047B9
:205F80004DF8048D41F22018C2F20008D8F860065DF8048B70474DF8048D41F22018C2F23E
:205FA0000008D8F8640601280AD141F22018C2F2000898F801000A2802D14FF0010001E0BD
:205FC0004FF000005DF8048B70474DF8048D41F22018C2F20008D8F86006032807D14FF072
:205FE000000041F22018C2F20008C8F860065DF8048B70472DE9004141F6DC60C2F200003B
:2060000040F2E038C2F20008C8F814004FF4FF1040F2E038C2F20008C8F80C004FF06800DB
:2060200040F2E038C2F20008C8F8100040F2E030C2F2000003F0ADFB0028BDE800812DE995
:206040007041ADF52C7D05460C464FF000004FF000064FF00000B4F5927F6BD141F664084B
:20606000C2F20008D8F8240144F64A31C5F2480188425CD0224629466846FDF704FCFFF755
:2060800041F949A803F0F8FCA4F120000246294649A803F066FD05F58270014649A84FF0D8
:2060A0002002FDF711FC01283ED12246294641F66400C2F20000FDF7E6FB2246694641F63C
:2060C0006400C2F20000FDF7DEFB41F66400C2F200004FF4807102F063FF16BB44F64A307F
:2060E000C5F2480041F66408C2F20008C8F82401FFF7D8FE50B94FF0000041F22018C2F22A
:20610000000888F801004FF0000015E04FF0010041F22018C2F2000888F801004FF001009A
:206120000AE04FF0010007E04FF00D0004E04FF00B0001E04FF001000DF52C7DBDE8708172
:206140002DE9304105460C464FF00002182C5AD14FF4FF1141F2A070C2F200004FF0600280
:20616000FDF791FB2246294641F2A070C2F2000000F12000FDF787FB4FF05A3041F2A07836
:20618000C2F20008C8F80000FFF7BCF841F2A070C2F2000040F2E038C2F20008C8F8140008
:2061A0004FF4FF1040F2E038C2F20008C8F80C004FF0680040F2E038C2F20008C8F810003E
:2061C00040F2E030C2F2000003F0E3FA80B941F2A070C2F2000003F0EDF94FF0000041F27E
:2061E0002018C2F2000888F801004FF000020CE04FF0010041F22018C2F2000888F8010015
:206200004FF0010201E04FF001021046BDE830812DE9304105460C464FF00002072C5AD1AA
:206220004FF4FF1141F2A070C2F200004FF06002FDF729FB2246294641F2A070C2F200008D
:2062400000F10400FDF71FFB4FF05A3041F2A078C2F20008C8F80000FFF754F841F2A07026
:20626000C2F2000040F2E038C2F20008C8F814004FF4FF1040F2E038C2F20008C8F80C006C
:206280004FF0680040F2E038C2F20008C8F8100040F2E030C2F2000003F07BFA80B941F2B7
:2062A000A070C2F2000003F085F94FF0000041F22018C2F2000888F801004FF000020CE095
:2062C0004FF0010041F22018C2F2000888F801004FF0010201E04FF001021046BDE83081C5
:2062E0002DE9304105460C464FF00002072C5AD14FF4FF1141F2A070C2F200004FF06002F0
:20630000FDF7C1FA2246294641F2A070C2F2000000F10B00FDF7B7FA4FF05A3041F2A0784B
:20632000C2F20008C8F80000FEF7ECFF41F2A070C2F2000040F2E038C2F20008C8F8140030
:206340004FF4FF1040F2E038C2F20008C8F80C004FF0680040F2E038C2F20008C8F810009C
:2063600040F2E030C2F2000003F013FA80B941F2A070C2F2000003F01DF94FF0000041F27C
:206380002018C2F2000888F801004FF000020CE04FF0010041F22018C2F2000888F8010073
:2063A0004FF0010201E04FF001021046BDE830812DE9304105460C464FF00002072C5AD109
:2063C0004FF4FF1141F2A070C2F200004FF06002FDF759FA2246294641F2A070C2F20000BD
:2063E00000F11200FDF74FFA4FF05A3041F2A078C2F20008C8F80000FEF784FF41F2A07012
:20640000C2F2000040F2E038C2F20008C8F814004FF4FF1040F2E038C2F20008C8F80C00CA
:206420004FF0680040F2E038C2F20008C8F8100040F2E030C2F2000003F0ABF980B941F2E6
:20644000A070C2F2000003F0B5F84FF0000041F22018C2F2000888F801004FF000020CE0C4
:206460004FF0010041F22018C2F2000888F801004FF0010201E04FF001021046BDE8308123
:206480002DE9304105460C464FF00002072C5AD14FF4FF1141F2A070C2F200004FF060024E
:2064A000FDF7F1F92246294641F2A070C2F2000000F11900FDF7E7F94FF05A3041F2A0783E
:2064C000C2F20008C8F80000FEF71CFF41F2A070C2F2000040F2E038C2F20008C8F814005F
:2064E0004FF4FF1040F2E038C2F20008C8F80C004FF0680040F2E038C2F20008C8F81000FB
:2065000040F2E030C2F2000003F043F980B941F2A070C2F2000003F04DF84FF0000041F27C
:206520002018C2F2000888F801004FF000020CE04FF0010041F22018C2F2000888F80100D1
:206540004FF0010201E04FF001021046BDE830812DE9304105460C464FF00002042C5AD16A
:206560004FF4FF1141F2A070C2F200004FF06002FDF789F92246294641F2A070C2F20000EC
:2065800000F13800FDF77FF94FF05A3041F2A078C2F20008C8F80000FEF7B4FE41F2A070EC
:2065A000C2F2000040F2E038C2F20008C8F814004FF4FF1040F2E038C2F20008C8F80C0029
:2065C0004FF0680040F2E038C2F20008C8F8100040F2E030C2F2000003F0DBF880B941F216
:2065E000A070C2F2000002F0E5FF4FF0000041F22018C2F2000888F801004FF000020CE0ED
:206600004FF0010041F22018C2F2000888F801004FF0010201E04FF001021046BDE8308181
:206620002DE9304105460C464FF00002082C5AD14FF4FF1141F2A070C2F200004FF06002AB
:20664000FDF721F92246294641F2A070C2F2000000F13C00FDF717F94FF05A3041F2A07819
:20666000C2F20008C8F80000FEF74CFE41F2A070C2F2000040F2E038C2F20008C8F814008E
:206680004FF4FF1040F2E038C2F20008C8F80C004FF0680040F2E038C2F20008C8F8100059
:2066A00040F2E030C2F2000003F073F880B941F2A070C2F2000002F07DFF4FF0000041F276
:2066C0002018C2F2000888F801004FF000020CE04FF0010041F22018C2F2000888F8010030
:2066E0004FF0010201E04FF001021046BDE830812DE9304105460C464FF00002082C5AD1C5
:206700004FF4FF1141F2A070C2F200004FF06002FDF7B9F82246294641F2A070C2F200001B
:2067200000F14400FDF7AFF84FF05A3041F2A078C2F20008C8F80000FEF7E4FD41F2A070E0
:20674000C2F2000040F2E038C2F20008C8F814004FF4FF1040F2E038C2F20008C8F80C0087
:206760004FF0680040F2E038C2F20008C8F8100040F2E030C2F2000003F00BF880B941F244
:20678000A070C2F2000002F015FF4FF0000041F22018C2F2000888F801004FF000020CE01B
:2067A0004FF0010041F22018C2F2000888F801004FF0010201E04FF001021046BDE83081E0
:2067C0002DE9304105460C464FF00002082C5AD14FF4FF1141F2A070C2F200004FF060020A
:2067E000FDF751F82246294641F2A070C2F2000000F14C00FDF747F84FF05A3041F2A0780A
:20680000C2F20008C8F80000FEF77CFD41F2A070C2F2000040F2E038C2F20008C8F81400BD
:206820004FF4FF1040F2E038C2F20008C8F80C004FF0680040F2E038C2F20008C8F81000B7
:2068400040F2E030C2F2000002F0A3FF80B941F2A070C2F2000002F0ADFE4FF0000041F26F
:206860002018C2F2000888F801004FF000020CE04FF0010041F22018C2F2000888F801008E
:206880004FF0010201E04FF001021046BDE830812DE9304105460C464FF00002082C5AD123
:2068A0004FF4FF1141F2A070C2F200004FF06002FCF7E9FF2246294641F2A070C2F2000044
:2068C00000F15400FCF7DFFF4FF05A3041F2A078C2F20008C8F80000FEF714FD41F2A070C9
:2068E000C2F2000040F2E038C2F20008C8F814004FF4FF1040F2E038C2F20008C8F80C00E6
:206900004FF0680040F2E038C2F20008C8F8100040F2E030C2F2000002F03BFF80B941F26C
:20692000A070C2F2000002F045FE4FF0000041F22018C2F2000888F801004FF000020CE04A
:206940004FF0010041F22018C2F2000888F801004FF0010201E04FF001021046BDE830813E
:206960002DE900414FF0000205293DD141F66408C2F20008D8F8302144F64A33C5F248030A
:206980009A422ED00A46014641F66400C2F2000000F59470FCF777FF44F64A30C5F2480022
:2069A00041F66408C2F20008C8F83001FEF7AAFCFFF778FA50B94FF0000041F22018C2F21D
:2069C000000888F801004FF000020FE04FF0010041F22018C2F2000888F801004FF00102D4
:2069E00004E04FF00B0201E04FF001021046BDE800814DF8048D41F22018C2F2000898F83B
:206A00000C005DF8048B70472DE900414FF0000041F6A018C2F20008D8F8001042F2341234
:206A2000C7F6430291420BD141F6A018C2F20008D8F8FC1043F28742C4F21232914201D082
:206A40004FF0010078B941F6A018C2F2000898F806100A2907D841F6A018C2F2000898F827
:206A60000610002901D84FF0010008B900F0F4FE08B900F0C6FF08B901F090F8BDE8008145
:206A80004DF8048D4FF0000141F60008C2F2000888F8500008465DF8048B70472DE91041C5
:206AA0004FF00A044FF0000041F28C78C2F20008D8F8000040F2E038C2F20008C8F80C00B5
:206AC00041F28C78C2F20008D8F8040040F2E038C2F20008C8F8100041F28C78C2F2000826
:206AE000D8F80400B0F5001F5CD841F28C78C2F20008D8F8040040F2E038C2F20008C8F83D
:206B0000100048F22078C1F6FF78D8F80C1040F2E030C2F20000884740F2E038C2F20008AE
:206B2000B8F80800C8BB41F22018C2F2000898F80C0041F22211C2F2000108444FF00101AF
:206B4000017041F22018C2F2000898F80C004FEAC00041F60001C2F200010844C078072868
:206B600018D14FF0000010E041F22018C2F2000898F80C1041F22212C2F2000211444FF079
:206B800001020A7000F10100C0B20A28ECD34FF0000404E04FF0000401E04FF00104FEF79F
:206BA00021FE2EE04FF4001040F2E038C2F20008C8F8100048F22078C1F6FF78D8F80C1093
:206BC00040F2E030C2F20000884740F2E038C2F20008B8F8080080B941F28C71C2F2000114
:206BE0004868A0F50010486041F28C71C2F20001086800F50010086003E0FEF7F3FD4FF0CF
:206C000001042046BDE810812DE9F04506460F464FF000054FF000044FF0000A4FF00004D4
:206C20007FE041F22210C2F2000020440078012874D141F6A010C2F2000000F10C01204693
:206C40004FEA8002A2EB00004FEAC00008448068FAF70CFD41F22018C2F2000898F81C10E2
:206C600028295BD2C6F1FF31B94257D3864255D321464FEA8102A2EB01014FEAC10141F6B6
:206C8000AC12C2F200021144C96801448E4245D207EB060122464FEA8203A3EB02024FEAE4
:206CA000C20241F6AC13C2F200031A44D2680244914233D820464FEA8001A1EB00004FEAC2
:206CC000C00041F6AC11C2F200010844C068874224D8002F22D941F22018C2F2000898F831
:206CE0001C0041F22018C2F2000888F80C404FF0010A002812D941F24011C2F20001A1F15D
:206D000028014FEA800210444FEAC0000144486809680844864201D24FF0080504F10100B3
:206D2000C4B241F6A018C2F2000898F806008442FFF477AFBAF1010F01D04FF0050575B9BA
:206D400041F22018C2F2000898F80C0041F22211C2F200010844007808B94FF00805284616
:206D6000BDE8F0852DE910414FF0000441F29878C2F20008D8F8040000286DD041F29878D4
:206D8000C2F20008D8F8000040F2E038C2F20008C8F80C0041F29878C2F20008D8F80400C2
:206DA000C0F18000024641F29878C2F20008D8F8040041F2A001C2F2000108444FF0FF0173
:206DC000FCF774FD41F2A000C2F2000040F2E038C2F20008C8F814004FF0800040F2E038E5
:206DE000C2F20008C8F810004FF0000041F29878C2F20008C8F8040048F22078C1F6FF7805
:206E0000D8F8101040F2E030C2F20000884740F2E038C2F20008B8F8080010B14FF00104FA
:206E20001AE000F0C5FA012808D140F2E038C2F20008D8F80C0000F057FB0DE041F220182B
:206E4000C2F2000898F81C1040F2E038C2F20008D8F80C0000F0C7FA2046BDE810812DE975
:206E600010414FF0000441F29878C2F20008D8F8040000286AD041F29878C2F20008D8F87A
:206E8000000020F07F0041F22018C2F20008D8F8101021F07F0188423AD141F22018C2F2C7
:206EA0000008D8F8100041F29878C2F20008D8F80410A0EB010041F29878C2F20008D8F8AC
:206EC0000010A0EB0100024641F29878C2F20008D8F8040041F2A001C2F2000108444FF0E7
:206EE000FF01FCF7E3FC41F22018C2F20008D8F8100041F29878C2F20008D8F80010A0EB4F
:206F0000010041F29878C2F20008C8F8040037E0FFF728FF044600F0B7FB41F22018C2F26E
:206F20000008D8F8100000F07F0041F29878C2F20008C8F8040041F2A000C2F200004FF071
:206F400080024FF0FF01FCF7B1FC19E000F09CFB41F22018C2F20008D8F8100000F07F00DA
:206F600041F29878C2F20008C8F8040041F2A000C2F200004FF080024FF0FF01FCF796FC42
:206F80002046BDE810812DE910414FF000045FE141F29878C2F20008D8F8040041F2947859
:206FA000C2F20008D8F8001008448028C0F0018141F29878C2F20008D8F80400C0F180000B
:206FC000024641F22018C2F20008D8F8181041F29878C2F20008D8F8040041F2A003C2F2ED
:206FE00000031844FCF74FFC41F29878C2F20008D8F80400C0F1800241F22011C2F20001D5
:2070000088691044886141F29878C2F20008D8F80400C0F1800241F29471C2F200010868DF
:20702000A0EB0200086041F22018C2F20008D8F8100041F29878C2F20008D8F80410A0EBE6
:20704000010040F2E038C2F20008C8F80C004FF0800040F2E038C2F20008C8F8100041F295
:20706000A000C2F2000040F2E038C2F20008C8F8140048F22078C1F6FF78D8F8101040F2C0
:20708000E030C2F20000884741F29878C2F20008D8F80400C0F1800241F22011C2F200013E
:2070A00008691044086141F22018C2F20008D8F8100041F29878C2F20008C8F800004FF09D
:2070C000000041F29878C2F20008C8F8040040F2E038C2F20008B8F8080010B14FF001042A
:2070E000B6E041F22018C2F20008D8F8140050BB41F22018C2F2000898F86A06012822D1A1
:2071000041F29478C2F20008D8F80000D8B900F04FF9012808D140F2E038C2F20008D8F803
:207120000C0000F0E1F993E041F22018C2F2000898F81C1040F2E038C2F20008D8F80C0041
:2071400000F051F984E000F033F901280ED140F2E038C2F20008D8F8101040F2E038C2F279
:207160000008D8F80C0000F093FA71E041F22018C2F2000898F81C00A0F10100C0B201463F
:2071800040F2E038C2F20008D8F80C0000F02BF900F07AFA40F2E038C2F20008D8F810109F
:2071A00040F2E038C2F20008D8F80C0000F070FA4EE041F29478C2F20008D8F8002041F247
:2071C0002018C2F20008D8F8181041F29878C2F20008D8F8040041F2A003C2F20003184407
:2071E000FCF751FB41F22018C2F20008D8F8100041F29878C2F20008D8F80410A0EB0100DA
:2072000041F29878C2F20008C8F8000041F29871C2F20001486841F29478C2F20008D8F843
:2072200000201044486041F22011C2F20001086941F29478C2F20008D8F800201044086100
:207240004FF0000041F29478C2F20008C8F8000041F29478C2F20008D8F80000002802D966
:20726000002C3FF495AE2046BDE810812DE9F04186B04FF0000441F22018C2F20008D8F819
:20728000187041F29478C2F20008D8F800504FF0000641F26808C2F2000898F824000128CA
:2072A0004AD14FF0000041F22018C2F2000888F86A063CE0FAF7E1FB802D02D94FF0800627
:2072C00008E02E464FF0010041F22018C2F2000888F86A066A463146384602F0AAFF049A1D
:2072E000009941F26808C2F20008D8F8000000F073FA0446C4B9009841F22018C2F20008E3
:20730000C8F81800049841F29478C2F20008C8F80000FFF738FE044641F26801C2F2000177
:207320000868049A104408603744A5EB0605002D25D9002CBED022E0FAF79FFB41F29478BC
:20734000C2F20008D8F8002041F22018C2F20008D8F8181041F26808C2F20008D8F8000033
:2073600000F03AFA044654B94FF0010041F22018C2F2000888F86A06FFF705FE0446FAF707
:207380007CFB7CB941F22018C2F20008D8F8140050B94FF0020041F22018C2F20008C8F805
:2073A000600601E0FEF71EFA204606B0BDE8F0814DF8048D41F22018C2F2000898F81C009E
:2073C000A0F10100C0B241F22018C2F2000898F81D10814202D14FF0010001E04FF00000CF
:2073E0005DF8048B70472DE930410D4641F22018C2F2000898F81D4021464FEA810211448C
:207400004FEAC10141F24012C2F2000201EB0204616822681144A1EB000102F0BDFA02F074
:20742000C5FA41F22018C2F2000898F81D1001F10101C9B241F22018C2F2000888F81D1066
:20744000014604F108004FF02002FCF71CFA41F22018C2F2000898F81D4041E002F094FAC9
:2074600020464FEA800108444FEAC00041F24011C2F200010844416820464FEA8002104404
:207480004FEAC00041F24012C2F200021044006802F082FA02F08AFA014620464FEA8002B0
:2074A00010444FEAC00041F24012C2F20002104400F108004FF02002FCF7E5F941F220185A
:2074C000C2F2000898F81D0000F10100C0B241F22018C2F2000888F81D0004F10100C4B2AF
:2074E000AC42BBD3BDE830812DE9104141F22018C2F2000898F81C10A1F10101C9B24FEA28
:20750000810211444FEAC10141F24012C2F2000201EB02042168884207D361682268114496
:20752000A1EB000102F038FA03E06168206802F033FA02F03BFA014641F22018C2F20008B2
:2075400098F81D0000F10100C0B241F22018C2F2000888F81D0004F108004FF02002FCF705
:2075600092F9BDE810812DE9104183B04FF0000441F22010C2F2000000F11C00009041F286
:207580002018C2F20008D8F818000190684602F03FF90446002C70D141F22018C2F20008C8
:2075A00098F80C004FEA8001A1EB00004FEAC00041F6AC11C2F200010844007807283DD146
:2075C0004EF20011C0F2010141F6A010C2F200004FF48072FCF757F9FFF716FA70B148F232
:2075E0001061C1F6FF7141F6A010C2F200004FF48072FCF748F94FF001043EE041F2201822
:20760000C2F2000898F80C004FEAC00041F60001C2F2000108444FF00101017041F22018C3
:20762000C2F2000898F80C004FEAC00041F60001C2F200010844029941601EE041F220181B
:20764000C2F2000898F80C004FEAC00041F60001C2F2000108444FF00101017041F2201883
:20766000C2F2000898F80C004FEAC00041F60001C2F200010844029941600CB9FEF7B2F8E0
:20768000204603B0BDE8108100B502F07DF900BD2DE9004141F22018C2F2000898F81C2077
:2076A000A2F10102D2B24FEA82031A444FEAC20241F24013C2F200031A441368984202D3D2
:2076C00002F06AF907E008441168A0EB01000146106802F061F9BDE800812DE930014FF066
:2076E000000241F24013C2F20003A3F1280441F22018C2F2000898F81C304FEA83052B4458
:207700004FEAC3031C4463680B44636041F24011C2F20001A1F1280141F22018C2F2000812
:2077200098F81C304FEA830423444FEAC30319440C6841F24011C2F20001A1F1280141F24F
:207740002018C2F2000898F81C304FEA83052B444FEAC30319444B68234441F22018C2F294
:20776000000898F80C404FEA8401A1EB04044FEAC404214641F6AC14C2F20004214441F224
:207780002018C2F2000898F80C404FEA8405A5EB04044FEAC40441F6AC15C2F200052C449D
:2077A000E46889680C44A34201D94FF005027AB14FF0000141F22018C2F20008C8F864166B
:2077C0004FF0050141F22018C2F2000888F801101046BDE8300170472DE930410D46144695
:2077E0004FF0000383B92146FFF777FF03465BB941F22018C2F20008C8F8185041F294784D
:20780000C2F20008C8F800401846BDE830814DF8048D4FF0000041F22018C2F2000888F83C
:207820001D004FF0000041F22018C2F2000888F81C004FF0000041F29878C2F20008C8F82B
:2078400004004FF0000041F29878C2F20008C8F800005DF8048B70472DE930014FF0000005
:207860004FF000014FF001024FF00000BCE04FF00001B2E002464FEA8203A3EB02024FEA08
:20788000C20241F6AC13C2F2000313440A464FEAC20248F20864C1F6FF7422449B68126820
:2078A0009342C0F0958002464FEA8203A3EB02024FEAC20241F6AC13C2F200031A44926894
:2078C000C2F1FF3302464FEA8204A4EB02024FEAC20241F6AC14C2F200042244D268934208
:2078E00076D302464FEA8203A3EB02024FEAC20241F6AC13C2F2000313440A464FEAC20259
:2079000048F20864C1F6FF7422449B68526893425ED802464FEA8203A3EB02024FEAC202D4
