:020000023000CC
:2080000000800020C192030053930300579303005B9303005F9303006393030051930300CE
:20802000519303005193030051930300679303006B930300519303006F930300C7AD03002A
:20804000AD0D0500B30D0500B90D0500BF0D0500C50D0500CB0D0500D10D0500D70D050080
:20806000DD0D0500E30D0500E90D0500EF0D0500F50D0500FB0D0500010E0500070E0500DE
:20808000A70D0500BB930300BF930300C3930300C7930300CB930300CF930300519303001E
:2080A000D3930300D79303002D7A0500337A0500397A0500E793030051930300EB930300EF
:2080C000519303005759050051930300F393030051930300519303005193030041FB04009F
:2080E00051930300FB9303005193030051930300FF93030003940300079403000B940300CB
:208100009F2C050013940300179403001B9403001F9403005193030051930300519303001A
:208120005193030023940300279403002B9403002F94030033940300379403003B940300EE
:208140005193030051930300519303005193030051930300519303005193030051930300E7
:208160005193030051930300519303005193030051930300519303003F94030043940300E5
:20818000479403004B9403004F94030053940300579403005B9403005F940300639403007F
:2081A000679403006B94030051930300519303006F94030073940300779403007B940300C1
:2081C0007F940300519303005193030083940300879403008B9403008F3E05009394030065
:2081E000893E05009B9403009F940300A3940300A7940300AB940300AF940300B394030001
:20820000B7940300BB940300BF940300C3940300C7940300CB940300CF940300D39403007E
:20822000D7940300DB940300DF940300519303005193030051930300519303005193030065
:208240005193030051930300519303005193030051930300519303005193030051930300E6
:208260005193030051930300519303005193030051930300519303005193030051930300C6
:208280005193030051930300519303005193030051930300519303005193030051930300A6
:2082A00051930300519303005193030051930300E3940300E794030051930300EB940300C1
:2082C000EF940300F3940300F794030051930300519303005193030051930300519303007D
:2082E0003F7A0500519303005193030051930300519303005193030051930300519303006F
:2083000051930300519303005193030051930300FF94030051930300519303005193030076
:20832000519303005193030051930300519303005193030051930300EB410500FFFFFFFFA6
:20834000FFFFFFFFFFFFFFFFFFFFFFFFFFFFFFFFFFFFFFFFFFFFFFFFFFFFFFFFFFFFFFFF3D
:20836000FFFFFFFFFFFFFFFFFFFFFFFFFFFFFFFFFFFFFFFFFFFFFFFFFFFFFFFFFFFFFFFF1D
:20838000FFFFFFFFFFFFFFFFFFFFFFFFFFFFFFFFFFFFFFFFFFFFFFFFFFFFFFFFFFFFFFFFFD
:2083A000FFFFFFFFFFFFFFFFFFFFFFFFFFFFFFFFFFFFFFFFFFFFFFFFFFFFFFFFFFFFFFFFDD
:2083C000FFFFFFFFFFFFFFFFFFFFFFFFFFFFFFFFFFFFFFFFFFFFFFFFFFFFFFFFFFFFFFFFBD
:2083E000FFFFFFFFFFFFFFFFFFFFFFFFFFFFFFFFFFFFFFFFFFFFFFFFFFFFFFFFFFFFFFFF9D
:208400008CCAFF1F889A0500009B05000100000004CBFF1F009B0500FCA1050001000000F0
:208420000084FF1F8CCAFF1F0100000008ED00E0010203090A0B0001020000000000000029
:20844000000000000006070800000000000000009900CB00F40031019701E80162022E0367
:208460000001000000000000010001000101000100000000000001000000000001000000F4
:2084800001000100010001001614151917180E0F101112132C2F33373B3F00002D303438E6
:2084A0003C4000002E3135393D4100000032363A3E420000434500001A1C1E2022000000B5
:2084C0001B1D1F212300000024252600090A0B0C0D000000474644480827280405494A004F
:2084E000000000000000000000000000000000004B4C4D4E4F50515253545500000000000C
:2085000000010203040500000708090001020304050600000001020304050000F481070094
:20852000088207001C8207003082070044820700588207006C820700808207008483070092
:20854000A4830700C4830700E483070004840700248407004484070064840700E4820700C8
:20856000F88207000C8307002083070034830700488307005C8307007083070084840700BB
:20858000A4840700C4840700E48407000485070024850700448507006485070000000000EE
:2085A000020103000000000000000050000000000000000002000000000000000000640AF5
:2085C0005A0000000000000050505000000000000000000001030001010300010103000142
:2085E000000101030001010300010103000101030001010300010103000101030001000156
:208600000001000101030001020301000102030001020000EE85030002000000F085030054
:2086200002020000F285030002000000F485030003020000F685030002000000F885030039
:2086400001020000FA85030002000000FC8503000110021001010000098603000200000056
:2086600000860300193104001D310400AAF1080002000000028603002131040057310400BF
:20868000ABF1080002000000028603009D310400D53104008CF104000200000002860300BF
:2086A0001B3204005332040010030200D485030002000000D6850300334604000000000092
:2086C00011030200D885030002000000DA850300594704000000000022030200DC85030091
:2086E00002000000DE8503001D48040000000000270301000886030002000000E085030083
:20870000074A0400000000002E010200E285030002000000E4850300694904000B4C0400EA
:2087200031030200E685030002000000E8850300B94A0400534C04003E030200EA850300C4
:2087400002000000EC8503008B4B04000000000000000000000000000000000000000000C9
:20876000000000000000000051430200FE850300DB30040059430200FE850300F52F040082
:208780005B430200FE850300093004005C430200FE8503001D3004005D430200FE850300D6
:2087A000313004005E430200FE850300453004005F430200FE850300593004007C4302003A
:2087C000FE8503006D300400CF430200FE85030083300400D2430200FE85030093300400BD
:2087E000DA430200FE850300A330040007B10200FE850300B330040008B10200FE85030095
:20880000C7300400B5D00200FE850300F32B040020F10200FE8503004B2D040021F1020005
:20882000FE8503005F2D040025F10200FE850300732D04002AF10200FE850300872D040085
:208840002BF10200FE8503009B2D04002EF10200FE850300AF2D040086F10200FE85030022
:20886000C32D04008AF10200FE850300D72D04008CF10200FE850300F32D0400A0F102003D
:20888000FE850300272E0400A1F10200FE850300552E0400A5F10200FE850300872E040081
:2088A000AAF10200FE850300A32E0400ABF10200FE850300D52E0400AEF10200FE8503006E
:2088C000092F040000D90200FE850300EB30040020ED0200FE8503000F2C0400A0ED020079
:2088E000FE850300EB2C0400F0F10200FE850300B52F0400F2F10200FE85030007310400DF
:2089000000000000000000000000000006020000020000000486030002000000068603002F
:20892000010000000A860300993204000000000001FD000002000000048603000200000045
:2089400006860300030000000C860300CB3204000000000002FD0100020000000486030060
:208960000200000006860300030000000C8603005733040000000000000000000000000040
:2089800001000000000101000000E803CC2A00CC0000E803FF7E00FF0000E803CC2B00CC12
:2089A0000000E803FF7E00FF0100000000000000000000000000000001000000A00F00009F
:2089C00002000000455D040002000000475D040000000000020000005D5D04007889030081
:2089E0000000050000000000FCCFFF1F8089030005000000020000000100881332000000A8
:208A00008489030088890300448A030005000000020000000100881332000000848903007C
:208A200098890300508A03000000000000000000CB4F0500000000003F50050069500500C4
:208A4000794F0500000AE8038403AA2A00AA0000000AE8038403AA2B00AA00006E676953C3
:208A6000676F72506E676953676F72492436010066085277402020410266086024092020AC
:208A8000436608602408202041026608602410202043660860240720204102660856150339
:208AA000202043660852774420204102660856150420204366085277452020413531393009
:208AC0003735000066085277392020416608602412202041448B03000800000000000000DA
:208AE0000C000300030302010101000001000000688B030001000000010301010800000056
:208B0000000000000C000301030302010101000001000000688B0300010000000303030138
:208B200008000000040000000C000600030305010101000001000000688B03000100000011
:208B4000010301018C8B0300748B030000000000A48B0300788B030000000000BC8B030071
:208B60007C8B03000000000050524F46494C455F30310000410418009E00180000001800EF
:208B80000000000000000000000000001000000000000000D48B0300D88A030001000000FD
:208BA000D88B03001000000000000000D48B0300FC8A030001000000D88B030010000000DD
:208BC00000000000D48B0300208B030001000000D88B030045324500312E302E3000000075
:208BE00003000000F88B0300000000000010000000100000001000000001100000000101A9
:208C0000100000000002000400000000BD5F0400BF5F04007960040095610400316104008F
:208C2000E9600400036104000F6104000000000000000000020000003C00000002000000CB
:208C400001000E0002000303000000009891FF1F00000000000000000000000000000000B6
:208C600000000000000000000100000038000000020000000200FE030100030300000000AF
:208C8000A891FF1F000000000000000000000000000000000000000000000000000000007D
:208CA000AF88040031890400AF860400A7870400F78F0400000000000000000000000000C6
:208CC000000000000000000000000000AF88040031890400C78A0400000000000000000046
:208CE000198B0400658B0400398C040000000000000000000000000000000000000000000F
:208D0000000000000000000000000000AF88040031890400C78A0400DD920400010203008C
:208D2000B1820400FF84040000000000000000000000000029860400378304007F850400FC
:208D400000000000000000000000000091860400BB830400BB830400000000000000000074
:208D600000000000BB830400BD830400BD830400000000000000000000000000BD830400E5
:208D8000DF830400DF830400000000000000000000000000DF8304006384040063840400CB
:208DA00000000000000000000000000063840400001D3A2774694E53E8F5D2CF9C81A6BBD0
:208DC000CDD0F7EAB9A4839E25381F02514C6B76879ABDA0F3EEC9D46F7255481B06213CA3
:208DE0004A57706D3E230419A2BF9885D6CBECF1130E2934677A5D40FBE6C1DC8F92B5A883
:208E0000DEC3E4F9AAB7908D362B0C11425F78659489AEB3E0FDDAC77C61465B0815322F62
:208E20005944637E2D30170AB1AC8B96C5D8FFE2263B1C01524F6875CED3F4E9BAA7809D42
:208E4000EBF6D1CC9F82A5B8031E3924776A4D50A1BC9B86D5C8EFF24954736E3D20071A22
:208E60006C71564B1805223F8499BEA3F0EDCAD735280F12415C7B66DDC0E7FAA9B4938E02
:208E8000F8E5C2DF8C91B6AB100D2A3764795E43B2AF8895C6DBFCE15A47607D2E331409E2
:208EA0007F6245580B16312C978AADB0E3FED9C400002110422063308440A550C660E7705E
:208EC000088129914AA16BB18CC1ADD1CEE1EFF13112100273325222B5529442F772D66202
:208EE000399318837BB35AA3BDD39CC3FFF3DEE36224433420040114E664C774A4448554C2
:208F00006AA54BB528850995EEE5CFF5ACC58DD55336722611163006D776F6669556B44681
:208F20005BB77AA719973887DFF7FEE79DD7BCC7C448E5588668A778400861180228233841
:208F4000CCC9EDD98EE9AFF9488969990AA92BB9F55AD44AB77A966A711A500A333A122A01
:208F6000FDDBDCCBBFFB9EEB799B588B3BBB1AABA66C877CE44CC55C222C033C600C411CC1
:208F8000AEED8FFDECCDCDDD2AAD0BBD688D499D977EB66ED55EF44E133E322E511E700E81
:208FA0009FFFBEEFDDDFFCCF1BBF3AAF599F788F8891A981CAB1EBA10CD12DC14EF16FE179
:208FC0008010A100C230E3200450254046706760B9839893FBA3DAB33DC31CD37FE35EF301
:208FE000B1029012F322D2323542145277625672EAB5CBA5A89589856EF54FE52CD50DC5C1
:20900000E234C324A01481046674476424540544DBA7FAB79987B8975FE77EF71DC73CD780
:20902000D326F2369106B01657667676154634564CD96DC90EF92FE9C899E9898AB9ABA940
:209040004458654806782768C018E1088238A3287DCB5CDB3FEB1EFBF98BD89BBBAB9ABB00
:20906000754A545A376A167AF10AD01AB32A923A2EFD0FED6CDD4DCDAABD8BADE89DC98DC0
:20908000267C076C645C454CA23C832CE01CC10C1FEF3EFF5DCF7CDF9BAFBABFD98FF89F80
:2090A000176E367E554E745E932EB23ED10EF01E000503000201000200050302000100024A
:2090C000704700B547F6AC70C0F2050011F0E2F9002011F0F6F911F0C9F90028FBD111F070
:2090E000B7F900F002F8002000BD00B548F21470C0F205001CF037FC00201EF0BBFD49F26F
:209100003460C0F205001DF00BFC48F2EC30C0F2050016F019FB48F22460C0F2050019F04B
:20912000B3F849F26440C0F205001CF060FE48F20870C0F205001BF061FF48F2F040C0F294
:20914000050018F0B0F848F6E030C0F203000CF0E9FE00200DF0AEFF0AF0D7F900201BF0B5
:2091600083FF00F0B7FA0BF03FFF002000F0C5FA0AF05DFF01F054FE00BD000014490C689D
:209180004FF001031C401349134A521A521E06DD4FF05A304FF05A3309C1083AFCDA0F49E9
:2091A0000F4A521A521E06DD4FF05A304FF05A3309C1083AFCDA0B490B4A521A521E06DDB8
:2091C0004FF05A304FF05A3309C1083AFCDA704700F007400080FF1F0084FF1F007C00204E
:2091E000008000200084FF1F007C00204FF20002C4F207021168C9074CBF01200020704743
:209200002DE9F044FFF7F2FF022500232CE048F20042C0F2030202EB0311CA68022A01D163
:20922000012820D1FAB191E850042746AAEB060202F00304111B8A08002104E056F80CA0DC
:20924000013147F80CA04FEA810C9142F6D3664407EB0C02002104E016F801C002F801C056
:209260000131A142F8D30133AB42D0D30125002348F20040C1F6FF701DE04CF68C21C1F6BE
:20928000FF710A1A02F00304111B8A08002104E04FF0000C40F806C001318E009142F7D3D8
:2092A0008219002104E04FF0000C02F801C00131A142F8D30133AB42DFD3BDE8F084704785
:2092C00072B60021002200230024002500260027B846B946BA46BB46BC46FFF74FFF0748D7
:2092E00085460748804707488047074880470748804762B6FFF7E5FEFEE700BF0080002016
:20930000019203001193030007950300BF92030010B51EF070FC48F20001C0F2030148F2B3
:209320003C30C0F20300401A8408002004E051F820C043F820C0013048F20003C1F6FF7347
:20934000A042F4D34EF60850CEF20000036010BDFEE7FFF7FDBFFFF7FBBFFFF7F9BFFFF7ED
:20936000F7BFFFF7F5BFFFF7F3BFFFF7F1BFFFF7EFBFFFF7EDBFFFF7EBBFFFF7E9BFFFF7C5
:20938000E7BFFFF7E5BFFFF7E3BFFFF7E1BFFFF7DFBFFFF7DDBFFFF7DBBFFFF7D9BFFFF725
:2093A000D7BFFFF7D5BFFFF7D3BFFFF7D1BFFFF7CFBFFFF7CDBFFFF7CBBFFFF7C9BFFFF785
:2093C000C7BFFFF7C5BFFFF7C3BFFFF7C1BFFFF7BFBFFFF7BDBFFFF7BBBFFFF7B9BFFFF7E5
:2093E000B7BFFFF7B5BFFFF7B3BFFFF7B1BFFFF7AFBFFFF7ADBFFFF7ABBFFFF7A9BFFFF745
:20940000A7BFFFF7A5BFFFF7A3BFFFF7A1BFFFF79FBFFFF79DBFFFF79BBFFFF799BFFFF7A4
:2094200097BFFFF795BFFFF793BFFFF791BFFFF78FBFFFF78DBFFFF78BBFFFF789BFFFF704
:2094400087BFFFF785BFFFF783BFFFF781BFFFF77FBFFFF77DBFFFF77BBFFFF779BFFFF764
:2094600077BFFFF775BFFFF773BFFFF771BFFFF76FBFFFF76DBFFFF76BBFFFF769BFFFF7C4
:2094800067BFFFF765BFFFF763BFFFF761BFFFF75FBFFFF75DBFFFF75BBFFFF759BFFFF724
:2094A00057BFFFF755BFFFF753BFFFF751BFFFF74FBFFFF74DBFFFF74BBFFFF749BFFFF784
:2094C00047BFFFF745BFFFF743BFFFF741BFFFF73FBFFFF73DBFFFF73BBFFFF739BFFFF7E4
:2094E00037BFFFF735BFFFF733BFFFF731BFFFF72FBFFFF72DBFFFF72BBFFFF729BFFFF744
:2095000027BFFFF725BF4EF68851CEF20001086840F47000086040F20001C4F201010868D6
:2095200040F0802008604BF2316001F5B42108604CF27820086051F8040F20F001000860DF
:2095400049F62820C0F205001EF021BC7047FFF7FDBF7047704748F2144CC1F6FF7CACF89B
:209560000400BCF806008CF800208CF801108CF802300130ACF806000020704748F2144CF2
:20958000C1F6FF7CACF80400BCF806008CF800208CF801108CF802300130ACF8060000204D
:2095A000704748F2144CC1F6FF7CACF80400BCF806008CF800208CF801108CF802300130A6
:2095C000ACF806000020704770471AF0EFBA30B5044613F0EBF934204BF64421C1F6FF7169
:2095E00004FB00152C6813F0FFF92CB913F0DEF9EC6113F0F9F904E0E869032884BF002004
:20960000E861204630BD10B5002480B21AF00AFE4DF26C12C1F6FF72116809682C2200FB69
:209620000211496839B934214BF64422C1F6FF7200FB0120C469204610BDF0B506460F468E
:2096400015464DF27014C1F6FF7488B21AF0BAFF4CF2C441C1F6FF71012D085C0BD1C00726
:2096600058BFF0BD2068A84208BFF0BD30461AF069FF28460CE000F00800082818BFF0BD52
:209680002068A84208BFF0BD30461AF05CFF002034214BF64422C1F6FF7207FB01218860B9
:2096A000F0BD00207047704700B50CF054F9002000BD0CF0C5B90CF0FAB90CF036BA10B5BA
:2096C00048F21C44C1F6FF7460600CF0B8F80120206010BD00B509F02BFA09F02FFA4CF6B5
:2096E000F070C1F6FF70FFF7EAFF00BD00B500F00CF80CF048FA002000BD00B500F005F8E2
:209700000CF0CBF800BD00F014B810B448F21C44C1F6FF742268012A08D101466068806804
:2097200090F82400401A18BF012000E0012010BC704700B500200CF04CFA00200BF08CFDEC
:2097400000BD704701207047704700214CF60C32C1F6FF7252F83130834202D102EBC1004C
:20976000704701311229F1D30020704710B504460068FFF7EAFF002801D00179122924BF43
:20978000012010BD490048F22440C1F6FF70085A6060002010BD00207047026812B940680B
:2097A000FFF7E4BF0020704710B548F24844C1F6FF742078022802D90020207004E048F219
:2097C0003641C0F20301085C16F0AEF82078411C45F25650C5F2555050FB01F000EB4000B7
:2097E000081A207010BD122824BF01207047400048F22442C1F6FF72805A088000207047B4
:2098000070B50024264648F22445C1F6FF754CF69C31C1F6FF7101EB061001F0FCFB04435E
:20982000E4B271004FF0FF320136122E4A53EAD32946002016F03FF805F10C01012016F0EA
:209840003AF805F11801022016F035F8002015F0CDFE012015F0CAFE022015F0C7FE032580
:20986000FFF7A2FF013DFBD1204670BDFFF79CBF40F2111016F0B9BC0821430600F08002B1
:20988000180E802A08BF80F031000139F5D1704730B50024250CE8B2FFF7EEFF48F24C415B
:2098A000C1F6FF7104F580344855210CB1F5807FF0D3002030BDF0B582B00E461F46051EE2
:2098C00001D04078022828BF01207FD200208DF800008DF801008DF802008DF803008DF8BD
:2098E0000400A9788DF805008DF806008DF8070011F0800F284648D100F06AF868888DF8C4
:209900000200000A8DF80100287901AA694604238DF8000000201DF031F968781DF08CF945
:2099200004465FB94FF0FF308DF802008DF801008DF8000068781DF07FF9044348F24C573C
:20994000C1F6FF77A6B19DF8060070709DF80500B0709DF80400F070304600F04FF801287F
:209960007078A97808BF0124884218BF012401D1012C06D12978785CC8289CBF0130785499
:2099800023E0297800227A541FE000F021F8044668888DF80200000A8DF80100287901AA8E
:2099A000694604238DF8000000201DF0E7F868781DF042F9044346B19DF8060070709DF8CA
:2099C0000500B0709DF80400F070204602B0F0BD30B548F24C45C1F6FF75044695F80801E9
:2099E00020B9FFF755FF012085F80801A078E178285C4840285C2071002030BD30B548F2DF
:209A00004C45C1F6FF75044695F8080120B9FFF73FFF012085F808016078A178285C4840F9
:209A2000E178285C401A18BF012030BD30B582B000221B2310FB03F44CF6BC45C1F6FF7523
:209A40002B5DC3F3401088421DD010468DF800208DF801208DF80400ADF8060080228DF8C5
:209A6000022001290CBF43F0200003F0DF008DF8030000231A4619466846FFF71CFF024639
:209A80009DF803002855104602B030BD2DE9F04F84B0834689468A461C464CF6BC47C1F66D
:209AA000FF7710460FF095FF002244F20003C4F28F030FF0F9FF0D46064620460FF089FF21
:209AC000002244F20003C4F28F030FF0EDFF00221346C4F2280310F004F92B46324610F0B6
:209AE00000F949F69A12C9F6991249F69913C3F6C97310F0A1F949F69A12C9F6991249F60A
:209B00009913C4F2790310F0ECF80FF078FF850800F0030600248DF80C40ADF80E408DF81A
:209B200008B08DF809B04FEA4A00043040F080008DF80A008DF80B5023462246214602A877
:209B4000FFF7B9FE80464FEA4900053040F080008DF80A008DF80B6023462246214602A8CA
:209B6000FFF7A9FE48EA0004B9F1010108D30DD0012910D11B201BFB0070C57106720AE04A
:209B80001B201BFB0070C570067104E01B201BFB007045718671E0B204B0BDE8F08F2DE986
:209BA000F04F84B0834689468A464CF6BC47C1F6FF77642A94BF104664200FF00AFF42F65D
:209BC000F602C8F65C7247F2C253C4F2240310F088F80FF014FF850800F0030600248DF815
:209BE0000C40ADF80E408DF808B08DF809B04FEA4A000A3040F080008DF80A008DF80B50CF
:209C000023462246214602A8FFF755FE80464FEA49000B3040F080008DF80A008DF80B6067
:209C200023462246214602A8FFF745FE48EA0004B9F1010108D30DD0012910D11B201BFB13
:209C40000070457386730AE01B201BFB00704572867204E01B201BFB0070C5720673E0B2A2
:209C600004B0BDE8F08F022801D2022901D90120704710B584B000238DF80C30ADF80E3072
:209C800094238DF80A308DF808008DF8090048F23C43C0F203031C88ADF800405C88ADF8B0
:209CA00002409B88ADF804301B2310FB03F04CF6BC43C1F6FF731C18607AA37A43EA8000E8
:209CC000ADF80000E07A237B43EA8000ADF80200607BA37BEC4643EA8000E37CADF80400B3
:209CE000480030F80C0040F2FF3C60454FF0100000FA01F014BF03438343012A03D102FAC2
:209D000001F0184303E00120884023EA00008DF80B0000231A46194602A8FFF7CCFD9DF8AE
:209D20000B10E17404B0BDE81040704770B582B0064600238DF801004CF6BC41C1F6FF71A1
:209D40008DF800001B2016FB00158DF804302878ADF806301A4619468DF8030080208DF87D
:209D600002006846FFF7A7FD0446E87B07280BD08DF8030090208DF8020000231A46194641
:209D80006846FFF798FD0443287C07280BD08DF8030091208DF8020000231A461946684645
:209DA000FFF789FD0443687C07280BD08DF8030092208DF8020000231A4619466846FFF7AB
:209DC0007AFD0443A87C58B18DF8030093208DF8020000231A4619466846FFF76CFD0443A0
:209DE000A8788DF8030083208DF8020000231A4619466846FFF75FFD044368788DF8030000
:209E000082208DF8020000231A4619466846FFF752FD0443687800F0BF006870E87CE4B29C
:209E200058B18DF8030094208DF8020000231A4619466846FFF73FFD0443304600231A4654
:209E4000194600F0FCF9204602B070BD00B582B000238DF80430ADF806301A4619468DF897
:209E600000008DF8010080208DF8020001208DF803006846FFF71FFD02B000BDCB201080E2
:209E8000002070472DE9F04B85B007468B4691464CF6BC46C1F6FF7600248DF81040ADF862
:209EA00012408DF804708DF805408DF806408DF80740234622468DF80C008DF80D004800BA
:209EC0000A308DF80E0001A94FF0FF308DF80F0003A8FFF7F0FC80464FEA4B000B309DF862
:209EE00006508DF80E0001A92346224603A8FFF7E2FC48EA0004BBF1010B9DF8060009D31A
:209F00000ED0BBF1010F10D11B2117FB01614D7388730AE01B2117FB01614D72887204E024
:209F20001B2117FB0161CD72087365F39F000FF050FD00221346C4F259030FF0D2FE0022F6
:209F40004FF20003C4F28F030FF0AEFD0FF057FD89F80000E0B205B0BDE8F08B70B583B038
:209F600004460D46164600238DF80830ADF80A308DF800408DF801308DF802308DF803303F
:209F800069461A468DF804008DF8050014208DF806004FF0FF308DF8070001A8FFF78BFCC0
:209FA0009DF802300121A9404CF6BC42C1F6FF721940012918BF002131601B2114FB0121EE
:209FC000CB7403B070BD30B583B004460D4600238DF80830ADF80A308DF800408DF8013073
:209FE0008DF802308DF8033069461A468DF804008DF8050003208DF806004FF0FF308DF82F
:20A00000070001A8FFF757FC68B91B214CF6BC42C1F6FF7214FB01219DF802208978891AF6
:20A0200018BF0121297003B030BD2DE9F04C84B048F2545AC1F6FF7A00228DF80C20ADF8D8
:20A040000E208DF80A204FF0FF318DF80B108DF805208DF806208DF8072005468DF808003B
:20A060008DF809008DF804000DF10301FFF7ABFF070004D19DF803100AF1030041554CF6CD
:20A08000BC4B48F25551C1F6FF71485DC1F6FF7B012823D11B2015FB00B401A90120A075E0
:20A0A00016208DF80A0000231A4602A8FFF703FC07439DF80600FFB260757FB9C5EB8501E0
:20A0C0000AEBC106B28B48F24441C0F20301895CA27D083660F39F0249008A53C5EB850081
:20A0E0000AEBC006B08B0836032838BF013009D30120B082F08A0130F08280B20A2802D354
:20A100000020F082B082012048F25551C1F6FF71485518208DF80A0001A900231A4602A818
:20A12000FFF7C9FB07431B2115FB01B49DF80600E07510F0070020D019208DF80A004FF02C
:20A14000FF3A8DF80BA001A900231A4602A8FFF7B2FB07439DF806008DF80BA001A92076C7
:20A160001A208DF80A0000231A4602A8FFF7A3FB07439DF80600607602E02076A4F819006D
:20A1800082208DF80A00607801A900231A4640F004008DF80B0002A8FFF78DFBB18A47EA31
:20A1A000000448F24440C0F2030000230122415C284600F044F82043C0B204B0BDE8F08C01
:20A1C000F0B582B0032A88BF03223F2B94BF1F463F27022988BF01202DD806460C464CF60F
:20A1E000BC45C1F6FF7500238DF80430ADF806308DF800008DF8010001F1100040F08000BF
:20A200008DF80200194647EA82108DF803001A466846FFF750FB012C07D30CD11B2116FB8D
:20A2200001519DF803200A7405E01B2116FB01519DF80320CA7302B0F0BD0020704710B522
:20A2400082B004469C4600238DF80430ADF806308DF800008DF8010095208DF8020001F0B1
:20A260000F004FEACC7140EAD160D1071A4640EA11608DF8030019466846FFF71CFB1B214D
:20A280004CF6BC42C1F6FF7214FB01219DF803200A7502B010BD2DE9F04483B082460D46D7
:20A2A00000268DF800608DF801608DF802608DF803608DF80860ADF80A608DF80760694647
:20A2C00032468DF804008DF8050016208DF80600012301A8FFF7EFFA044617208DF806007A
:20A2E00069460123324601A8FFF7E5FA44EA00071B204CF6BC41C1F6FF711AFB00149DF801
:20A300000700012332466946607501A8FFF7D3FA38439DF80710627DA17511F0030141EA5E
:20A320008201298003B0BDE8F08409B901207047C0EB8000C00048F25C52C1F6FF72805AB6
:20A340000880002070470AB901207047C0EB800048F25C53C1F6FF7303EBC00000EB4100EC
:20A36000C0891080002070470346002052B110B44CF6BC44C1F6FF74013905D30BD001297A
:20A3800010D010BC012070471B2113FB0141097E117010BC70471B2113FB0141497E11704E
:20A3A00010BC70471B2113FB0141897E117010BC704748F24C52C1F6FF72105C052828BF03
:20A3C000012000D200B908700020704748F25752C1F6FF72105C08700020704770B583B064
:20A3E00000248DF80840ADF80A4080228DF806208DF801408DF802404CF6BC46C1F6FF7633
:20A400001B2110FB01F58DF804008DF805008DF80000705D8DF8034010F0400F1CD140F066
:20A4200040008DF8070023462246214601A8FFF742FA044600238DF80630694601A81A465D
:20A44000FFF739FA044307D19DF807009DF8021088420CBF70550124204603B070BD70B587
:20A4600083B000248DF80840ADF80A4080228DF806208DF801408DF802404CF6BC46C1F6F4
:20A48000FF761B2110FB01F58DF804008DF805008DF80000705D8DF8034010F0400F1CD0A2
:20A4A00000F0BF008DF8070023462246214601A8FFF701FA044600238DF80630694601A80F
:20A4C0001A46FFF7F8F9044307D19DF807009DF8021088420CBF70550124204603B070BD0E
:20A4E0004CF6BC41C1F6FF718878C0F30210072884BF00207047400048F25041C0F2030127
:20A50000405A704709B901207047C0EB800048F25C52C1F6FF7202EBC00080894622504364
:20A5200046300022800A0870104670470168024648F26443C0F2030313F8110003EB4101DE
:20A54000938864224978FFF7A1BA0168024648F26443C0F20303127913F8110003EB410127
:20A560004978FFF71CBB0168024648F26443C0F20303127913F8110003EB41014978FFF775
:20A5800072BB00B50179007811B9FFF768FF01E0FFF724FF002000BD30B581B00546002068
:20A5A000ADF802000DF102012878FFF7BEFE0446012817D0BDF802000FF00BFA46F25A42B8
:20A5C000CDF63B7248F64F53C3F6F7730FF06CFA002243F20003C4F270030FF02BFC0FF0FB
:20A5E00012FAA880204601B030BD30B581B0054600208DF803000DF103012878FFF7D9FEAB
:20A6000004469DF803000028287900F0FE0018BF40F0010028710DF103012878FFF7D6FE94
:20A620009DF8031020430029297901F0FD0118BF41F00201297101B030BD30B581B00546B1
:20A6400000202968ADF8020048F26442C0F2030212F8110002EB41010DF102024978FFF708
:20A6600072FE0446012813D0BDF8020001300FF0B3F900224EF20003C4F250030FF031FBE8
:20A6800000221346C3F650730FF02BFBC5E90101204601B030BD10B581B00168044648F207
:20A6A0006442C0F2030212F8110002EB410100228DF803200DF103024978FFF755FE0128F3
:20A6C0000FD09DF8031002290CBF01220022012908BF42F00202217962F3010121710022EC
:20A6E00000E00246217962F38201217101B010BD10B581B00168044648F26442C0F2030270
:20A7000012F8110002EB41010022ADF802200DF102024978FFF7B2FB012814BFBDF80210DD
:20A720000021A18001B010BD01680A2929D80FF20802D2E801F0C0462626262626070D1F0F
:20A740001326190000B540685DF804EBFFF775BF00B540685DF804EBFFF79DBF00B540688C
:20A760005DF804EBFFF718BF00B540685DF804EBFFF73BBF00B54068FFF7BAFF5DF804EBE7
:20A78000704701207047026800210B2A31D80FF20803D3E802F0C046072F0E161E2E2E2EA0
:20A7A0002E2E2E2600B500F027F801465DF804EB20E000B54068FFF7C8FE01465DF804EBF6
:20A7C00018E000B54068FFF7B1FE01465DF804EB10E000B54068FFF7C6FE01465DF804EB62
:20A7E00008E000B54068FFF7CCFE01465DF804EB00E001210846704740680078FFF796BA5C
:20A8000040680078FFF722BB40680078FFF70DBC30B5002425464CF6F441C1F6FF7105EB64
:20A82000C50001EB800001F0ECF90443E4B20135022DF0D3204630BD00B500F09FF9FEF787
:20A84000DFFFFFF7E5FF00BD01280CBF012100214FF4807015F0FEBC01280CBF0121002123
:20A860004FF4027015F0F6BC10B548F27041C0F20301C0EB800001EB4004A078FFF7ECFFB2
:20A880002079BDE81040FFF7DFBF10B44CF64054C1F6FF74012101FA00F06178084018BFCD
:20A8A000204610BC704730B505460C46012803D309D140F2074001E04FF48170003918BFB6
:20A8C000012115F0C7FC0CB1012C07D14CF65C50C1F6FF7005EB850140F82140002030BD9C
:20A8E00000B50020FFF7C0FF00210846FFF7DBFF00210120FFF7D7FF002000BD2DE9F0415D
:20A9000081B04CF63C56C1F6FF7621C8023802D001281DD0A8E02C682046FFF7B6FFE0B13D
:20A9200004EB840006EB8000816AB1F1FF3F14D042F2107001FB00F240F20111C0F21001DB
:20A94000A2FB0110111A00EB5100C00AA8808BE02C682046FFF799FF08B9012085E006F1BF
:20A96000200804EB840008EB8000C16802698A427AD0016181682A7948F28C57C1F6FF77E7
:20A98000B1F1FF3F05D102F0F8002871002139556AE040F6CC43994207D902F0F80040F06B
:20A9A00001002871012038555EE002F0FE0280882A71814207D902F0F90040F00200287123
:20A9C0000820385550E002F0FD002871385D00F0FC003855ACB942F2107001FB00F240F2C3
:20A9E0000111C0F21001A2FB0110111A00EB5100C00A0AD1287940F00400287104203855A9
:20AA000032E0E0B203F0B3FE38B9287900F0FB00287128680021395426E0286803F0B8FE5B
:20AA20002C6804EB840108EB81018A6842F210714A4340F20113C0F21003A2FB0331521A1D
:20AA400001EB52012A79E4B2B0EBD12F06D942F00400287134700420385505E002F0FB020C
:20AA60002A71347000203855002001B0BDE8F08148F28C51C1F6FF71085C70470268012A15
:20AA800003D1406803C8FFF70EBF0020704730B548F29054C1F6FF74227D44F82210013268
:20AAA0002275D2B2052A14D305462046052100F098FC05EB85014CF65C52C1F6FF7202EB8F
:20AAC00081018860C8680130C86000202075012030BD002030BD30B581B00068042818BF32
:20AAE000012049D14CF68455C1F6FF75286848F2A454C1F6FF74013802D0012820D03AE0AB
:20AB000060684CF65C52C1F6FF7200EB800152F8211001290BD108B9084603E0012803D179
:20AB20004FF00200FFF7A0FE0220286023E010B9012060601FE0012804BF002060601AE024
:20AB40006068002818BF012815D16946062000F048FA80B960680099FFF799FF01280AD1EC
:20AB6000606808B9012003E0012802D14FF00000606001202860002001B030BD4CF6405014
:20AB8000C1F6FF7002F08ABB7047002070470000002048F2B452C1F6FF72C0EBC0014FF097
:20ABA000FF3C02EB810100220C31134681E80C10CA6001300C28ECD39FED4B0A48F20471D0
:20ABC000C1F6FF7110464A60CA6081ED020A49F6404117F012BC10B5C0EBC004002017F0BA
:20ABE000D2FB48F2B452C1F6FF7242F8240010BD10B5C0EBC004002017F0C5FB48F2B4529A
:20AC0000C1F6FF7249F69A11C1F69911014452F8243002EB8402984298BF0846D168506003
:20AC2000C01A9060814238BFD0605169814288BF5061116900290EBF01460144490811612C
:20AC400091690144916110BD0020024648F2B451C1F6FF71C2EBC20301EB83039B6901320D
:20AC6000042A1844F2D90022C2EBC2034FF0000C01320C2A01EB8303C3F818C0F4D300EE7D
:20AC8000100ADFED1A0AB8EE400A80EE200A9FED181A48F20471C1F6FF7120EE010AD1EDB7
:20ACA000011A81ED000AF4EE401AF1EE10FAB8BF81ED010A91ED022AB4EE402AF1EE10FA4D
:20ACC00088BF81ED020AD1ED030AF5EE400AF1EE10FA1EBF30EE800AB6EE001A20EE010A76
:20ACE00081ED030A7047C04600007A44005043480000C8424EF21000CEF2000000210160E7
:20AD000081604DF2BF41C0F2010141600621016070474EF21001CEF20001086840F00100CC
:20AD20000860704748F21873C1F6FF7303EB0010944600220B4680E80C10C160704730B57A
:20AD4000002548F21874C1F6FF742068012808D12846FFF740FF256000F091F82846FFF74F
:20AD600047FF2069012807D1FFF735FF256100F095F80120FFF73CFF206A012808D10220D6
:20AD8000FFF729FF256200F092F80220FFF730FF206B012808D10320FFF71DFF256300F013
:20ADA00097F80320FFF724FF206C012808D10420FFF711FF256400F09AF80420FFF718FFD4
:20ADC00000F0A4F8BDE710B548F21471C1F6FF71086801300860002148F21873C1F6FF7380
:20ADE00003EB0112D468844206D14FF0010C9368C2F800C02344D36001310529ECD348F2C5
:20AE00001F52C5F2EB12A0FB02218909C82303FB1100002818BF10BDBDE81040FFF714BF39
:20AE200000B5FFF767FF00F005F8FFF772FFFFF786FF00BD00B500F06AF848F6D420C0F28A
:20AE4000030008F08AFB04F0BAF8052201210020FFF768FF0A2203210120FFF763FF142207
:20AE600005210220FFF75EFF322207210320FFF759FF642209210420FFF754FF00BD00B5BB
:20AE800048F26871C1F6FF7108680130086004F04DF8FEF738FC09F0EDF800BD48F268715F
:20AEA000C1F6FF7148680130486004F04EB800B548F26871C1F6FF718868013088600CF0F4
:20AEC00041FD0BF0A1F916F095FB04F05FF800BD00B548F26871C1F6FF71C8680130C86089
:20AEE00004F05FF80AF0A6FF00F01DF800BD00B548F26871C1F6FF7108690130086104F0B8
:20AF000053F800F05BF80AF05EF800BD704700B540F20B40002115F09DF901214FF48260AA
:20AF200015F098F900BD10B582B000210846CDE90001684603F029FFF0BB48F27C74DDE93D
:20AF40000001C1F6FF7449F69A12C9F6991241F69913C4F23203824273EB01020BDB49F659
:20AF60009A12C9F6991249F69913C4F21F03904271EB030207DA2078F0B9012020700020D2
:20AF8000FEF7B4FB18E04EF26663C4F23103B0F1663F71EB03020FDA4FF0333243F2333353
:20AFA000C4F22003824273EB010005DA207818B100202070FEF7A1FB02B010BD40F2023031
:20AFC00015F0ECB8014648F28072C1F6FF721068002808BF704702688A4218BFC068F7D112
:20AFE000704730B584B00C460546FFF7EBFF68B14FF0000C624602AB8DE82C108168684603
:20B00000884718B903982060002000E0012004B030BDFEF72BBC10B448F28074C1F6FF74BB
:20B02000216811B9206004E01146CA68002AFBD1C8600021C160084610BC704700214FF43B
:20B04000817015F007B901214FF4817015F002B930B54CF68854C1F6FF7408F076F9012867
:20B060000BD1642005F049F964220120618801F04DFA012508F069F91BE00025284604F06F
:20B08000F7F801280CD1284605F037F9284605F03AFB02462846218801F038FA012508E000
:20B0A000642005F02AF9012001F016FA284601F013FA042004F0DCF803280DD105F091F8F3
:20B0C00005F07BF8032005F01EFB02460320E18801F01CFA01251CE0032004F0C9F80128D9
:20B0E0000DD105F056F805F090F8022005F00BFB02460220A18801F009FA012509E005F00A
:20B100005CF805F082F8022001F0E6F9032001F0E3F9032004F0ACF8012804D0022004F0BC
:20B12000A7F8012809D1052005F0EDFA02460520618901F0EBF9012502E0052001F0CCF95D
:20B14000012004F095F801284FF0040007D105F0DAFA02460420218901F0D8F903E001F094
:20B16000BBF9012D05D105F064F8BDE8304004F0E8BF05F072F8BDE8304004F0F6BF30B514
:20B180000024204604F074F8012827D1204605F0BAFA0446002001F0C5F80546002001F021
:20B1A000ADFB684348F21F52C5F2EB12C11752FB00F0C1EB501034B9204605F09EF8204678
:20B1C00001F08AF937E085B2642005F096F822462946002001F09AF901242CE0012004F0E5
:20B1E00047F801281ED1204605F087F8012005F08AFA0446012001F095F80546012001F03E
:20B200007DFB684348F21F51C5F2EB1151FB00F122464909A1EBE07189B2012001F076F91E
:20B22000012408E0642005F068F8012001F054F9204601F051F9042004F01AF801281FD1E5
:20B2400004F0CFFF04F0B9FF032005F05CFA0446032001F067F80546032001F04FFB684301
:20B2600048F21F51C5F2EB1151FB00F122464909A1EBE07189B2032001F048F901242EE0DA
:20B28000032003F0F5FF01281FD104F082FF04F0BCFF022005F037FA0446022001F042F888
:20B2A0000546022001F02AFB684348F21F51C5F2EB1151FB00F122464909A1EBE07189B2F4
:20B2C000022001F023F9012409E004F076FF04F09CFF022001F000F9032001F0FDF8032001
:20B2E00003F0C6FF012804D0022003F0C1FF01281BD1052005F007FA0446052001F012F82A
:20B300000546052001F0FAFA684348F21F51C5F2EB1151FB00F122464909A1EBE07189B2C1
:20B32000052001F0F3F8012402E0052001F0D4F8082003F09DFF01284FF0040019D105F021
:20B34000E2F90446042000F0EDFF0546042001F0D5FA684348F21F51C5F2EB1151FB00F154
:20B3600022464909A1EBE07189B2042001F0CEF803E001F0B1F8012C05D104F05AFFBDE8AE
:20B38000304004F0DEBE04F068FFBDE8304004F0ECBE0844904228BF1046704701EB020C93
:20B3A0006045A0EB010038BF1046704770B4B0F9004000252E46224609E073001B5E01363E
:20B3C0009A42B8BF1A469C42C8BF1C461D448E42F3D3A81A001B023990FBF1F108B270BC91
:20B3E000704770B400224FF0FF341646154609E050F825309A4238BF1A469C4288BF1C46E7
:20B4000001351E448D42F3D3B01A001B0239B0FBF1F188B270BC7047002812BF002A4FF0D3
:20B42000FF307047002393423CBFC1540133FAD300207047002819BF0029002A4FF0FF3085
:20B440007047002304E011F803C000F803C001339342F8D3002070474FF6FF72121A8A424E
:20B46000C6BF084480B24FF6FF707047884286BF401AC0B200207047884286BF401A80B211
:20B480000020704700EBC00080007047B0B582B000221146CDE90012054600F05CFF29015B
:20B4A0004CF6A852C1F6FF728C188854284600F042FF60806946284600F0FCFE00221346A7
:20B4C000C4F22403DDE900010EF00BFC0EF097FAA080284602F072FA0746E0884FF6FF71DE
:20B4E000884213D1FEF7FCFFE080002001218140394208D04CF69453C1F6FF73A26853F851
:20B5000020100A43A26001300C28EFD3284602F05CF9C82804DC284602F057F9373001E008
:20B520004FF0FF30207302B0B0BD30B50C460546FFF7ACFF4CF6A851C1F6FF7101EB051263
:20B5400010782070508800096070D2F80210080F090740EA1160A07090880009E07051684A
:20B56000080F090740EA11602071D08800096071D08891680007C1F3036141EA1060A0712A
:20B580009068000CE0719068000A207290686072107BA07230BD30B50446002001F0A5F990
:20B5A0000546012001F0A1F9284400EBD07040083730207030BD10B5044601F008F9373069
:20B5C000207010BD10B5044607F0B2FA207001F0ABFE607010BD10B5044601F0F8F837303E
:20B5E000207010BD48F28472C1F6FF7202EB80000268012907BF42F00501002222F0010161
:20B600008A0862F341010160704748F28471C1F6FF7151F8200010F00100704748F2847143
:20B62000C1F6FF710A7B0B7A13F0030363F39F020B799B0742EA93620B789B0742EA1362CC
:20B6400002700A7F91F8283013F0030363F39F020B7D9B0742EA93620B7C9B0742EA1362F9
:20B66000427091F82C200B7E13F0030363F39F0291F824309B0742EA936291F820309B079F
:20B6800042EA1362827091F83C2091F8383013F0030363F39F0291F834309B0742EA936291
:20B6A00091F830309B0742EA1362C27091F84C2091F8483013F0030363F39F0291F8443039
:20B6C0009B0742EA936291F840309B0742EA1362027191F85C2091F8583013F0030363F383
:20B6E0009F0291F854309B0742EA936291F850309B0742EA1362427191F86C2091F86830A4
:20B7000013F0030363F39F0291F864309B0742EA936291F860309B0742EA1362827191F871
:20B720007C2091F8783013F0030363F39F0291F874309B0742EA936291F870309B0742EA55
:20B740001362C27191F88C2091F8883013F0030363F39F0291F884309B0742EA936291F842
:20B7600080309B0742EA1362027291F89C2091F8983013F0030363F39F0291F894309B07DD
:20B7800042EA936291F890309B0742EA1362427291F8AC2091F8A83013F0030363F39F0292
:20B7A00091F8A4309B0742EA936291F8A0309B0742EA1362827291F8BC2091F8B83013F000
:20B7C000030363F39F0291F8B4309B0742EA936291F8B0309B0742EA1362C27291F8CC20E7
:20B7E00091F8C83013F0030363F39F0291F8C4309B0742EA936291F8C0309B0742EA1362CC
:20B80000027391F8DC2091F8D83013F0030363F39F0291F8D4309B0742EA936291F8D030C4
:20B820009B0742EA1362427391F8EC2091F8E83013F0030363F39F0291F8E43091F8E010C4
:20B840009B0742EA9362890742EA116181730021C173704756280CD2C11048F67402C1F65F
:20B86000FF7210F007000123515C03FA00F0084201D10020704718467047562824BF012008
:20B88000704700F0070101228A40C01048F67401C1F6FF710B5C1A430A54002070475628EB
:20B8A00024BF0120704700F00701012202FA01F3C11048F67402C1F6FF72505C98435054EA
:20B8C00000207047002048F67401C1F6FF7100220A5401300B28F6D3704770B5164600248E
:20B8E0000528A8BF70BD01290ED321D1410001F11A04E4B200EB4000451C012A14D1284699
:20B900000121FFF76FFE15E041001B31CCB200EB4001C81C8D1C012A03D11146FFF762FE3D
:20B92000EDE70021FFF75EFE28460021FFF75AFE002E04D02046BDE87040FFF79EBF20466D
:20B94000BDE87040FFF7ABBF30B50024254668001B30C0B2FFF77EFF28B16800012101FAC8
:20B9600000F080B2044368001A30C0B2FFF772FF30B168000130012101FA00F080B20443D3
:20B980000135042DE3DD204630BD10B504460228C8BF10BD2430C0B219B1FFF76EFF01218B
:20B9A00002E0FFF77CFF002104F11000BDE81040FFF718BE30B50024254605F12400C0B24D
:20B9C000FFF748FF18B10120A840C0B204430135032DF2D3204630BD0930C0B209B1FFF7C6
:20B9E0004CBFFFF75CBF30B50024254605F10900C0B2FFF72FFF18B10120A840C0B2044397
:20BA00000135052DF2D3204630BD48F28842C0F20302105C09B1FFF730BFFFF740BF30B506
:20BA20000024254648F28840C0F20300405DFFF711FF18B10120A84080B2044301350C2D63
:20BA4000F0D3204630BD002808BF70474520FFF714BF48F2D442C0F20302105C09B1FFF7D9
:20BA60000CBFFFF71CBF30B50024254648F2D440C0F20300405DFFF7EDFE10B10120A8406B
:20BA8000044301351C2DF1D3204630BD0020704700B500F00DF9811118BF01210620FFF7A0
:20BAA000D8FF00BD4B30C0B209B1FFF7E6BEFFF7F6BE30B50024254605F14B00C0B2FFF7EA
:20BAC000C9FE10B10120A840044301350B2DF3D3204630BD024649F28410C1F6FF700BC8F7
:20BAE00082E80B007047FFF7EDBE014648F68802C1F6FF721068002808BF704742688A42AE
:20BB000018BF006AF7D1704710B50C46FFF7EDFF08B9012010BD00892080002010BD30B5C2
:20BB200084B00C460546FFF7E0FF08B9012010E000950021ADF80410082102914169CDF8F3
:20BB40000CD002A88847C0B2002804BFBDF90410218004B030BD0020704770B585B048F6B8
:20BB60008006C1F6FF760024B5681AE0092168680391E969CDF810D0009003A888470A231C
:20BB800069680393044303A8019101A90491696988476B6802992D6A0443E4B211F00101F5
:20BBA000F154002DE2D1204605B070BD014648F68802C1F6FF721068002808BF7047038937
:20BBC00001228A401A4208BF006AF5D0704710B583B048F68800C1F6FF7004680DE0002111
:20BBE00060688DE80300CDF808D001A8E1688847010601D0012002E0246A2000EFD103B0AB
:20BC000010BD10B448F68804C1F6FF74216811B9206004E011460A6A002AFBD1086200219C
:20BC20000162084610BC704730B548F68005C1F6FF752978012906D10C460020FFF7D2FC25
:20BC4000322021460AE0002421463220FFF7CAFC6978204601290CBF0C462146FFF7C2FCFF
:20BC6000204630BD70B584B00446002548F68800C1F6FF70066807F029FC012808BF012C16
:20BC800014D0200018BF01208DF80400CDF80CD00B20029007E002A87268B16900928847DB
:20BCA0000543EDB2366A002EF5D1284604B070BD48F69C01C1F6FF710878704710B585B087
:20BCC0000446FFF773FF08B9012023E000221146CDE901120521039141690094CDF810D0EE
:20BCE00003A88847C0B2A8B948F69C0134224CF60863C1F6FF7304FB0232C1F6FF71019BFA
:20BD0000DDF808C053624B88C2F828C00122A2401A434A8005B010BD30B584B00C460546F8
:20BD2000FFF744FF08B9012014E0009548F2FC42C0F2030211788DF80410062102914169AA
:20BD4000CDF80CD002A88847C0B2002804BF9DF80410217004B030BD2DE9F04B83B00021EC
:20BD60008DF803100546FFF7A9FF48F2F211C0F207010878012808BF012D00F0438107F002
:20BD80003BFB012800F03E8101F0E3F8002800F0398104F02EFC002840F0348104F032FCAA
:20BDA000002840F02F8104F036FC002840F02A814CF60867C1F6FF77342005FB0074206824
:20BDC00048F68C06C1F6FF76012804BFE16A012940F0F480A08964283CBF6420A081E169C3
:20BDE0008142C0F0F7800DF102012846FFF794FF8DF803005FEA000B40F050819DF80200ED
:20BE000010F0010F0AD032220121A079FFF7C1FAA07184F807B084F809B065E010F0020F29
:20BE20000AD084F806B032220121E079FFF7B1FAE07184F809B057E09DF8020010F0040F1F
:20BE400052D15846217DA4F806B064295BD1718A0120A840084200F0D580606AA16A01907F
:20BE6000786B0291012811D148F21401C0F20701088880070AD51DB9012001F052FE08E022
:20BE8000012D03D1284601F04CFE02E0284601F048FE0746284601F014FE8346002213466E
:20BEA000C4F22403019802990DF01BFF0DF0A7FD80B2834508D932220121607AFFF769FA35
:20BEC00060720020A0720FE0A0F10A018B450BDA00216172874206D232220121A07AFFF703
:20BEE00058FAA07200E0A172A07932280BD3705D771940F00100705517F8080F012140F0CF
:20BF0000010038700BE0771917F8081F01F0FE01397040B9705D002100F0FE007055A800EC
:20BF20001630FFF75FFBE179322909D3705D40F0020070553878012140F00200387008E082
:20BF4000387800F0FD00387039B9705D00F0FD007055A8001430FFF745FB607A397801F08D
:20BF6000F701322808D3725D02F008031943397042F00802012105E0397040B9715D01F01F
:20BF8000F70201467255A8001730FFF72BFBA07A3A7802F0EF02322808D3715D01F01003D9
:20BFA0001A433A7041F01001715577E03A70002874D1705D00F0EF0070556FE0002804BF59
:20BFC000E06A00286AD1E089C8283CBFC820E081216A814238BF002062D3022D04D1D7F8AA
:20BFE000B80008B1682005E0032D06D1D7F8840018B19C20384400210172718A0120A84070
:20C00000084201D101204BE000200146C4F21401626AD4F828900192CDF80890904271EB18
:20C0200009000BDA012D02BF38680128002010D032220121207AFFF7ACF90AE040F2000192
:20C04000C4F21001894505DA00220121207AFFF7A5F92072217A06F10802322911D3531921
:20C06000725D197802F0040042F0040201F0FB0101431970A800153072550121FFF7B2FA00
:20C080000CE0505D00F0FB00505539B9705D00F0FB007055A8001530FFF7A4FA9DF80300EF
:20C0A00003B0BDE8F08B48F68C01C1F6FF71405C704748F69401C1F6FF71405C704748F6DD
:20C0C0009401C1F6FF710844002101707047002048F68C01C1F6FF7100220A54013006281E
:20C0E000F6D370474CF60863C1F6FF73342200FB0232908800296FF3410018BF40F0020078
:20C100009080002070474CF60863C1F6FF73342202FB00308181002070474CF60863C1F6A2
:20C12000FF73342202FB0030C181002070474CF60863C1F6FF73342202FB003001830020F4
:20C14000704770B584B006460C4601284CF60860C1F6FF704FF0340104D106FB0100448227
:20C1600030461AE006FB0105688AA04208BF002013D03046FFF71AFD08B901200DE0032134
:20C18000029181690096ADF80440CDF80CD002A88847C0B2002808BF6C8204B070BD70B534
:20C1A00084B006460C4601284CF60860C1F6FF704FF0340104D106FB0100047530461DE07D
:20C1C00006FB0105287DA04208BF002016D03046FFF7ECFC08B9012010E0642C88BF64247F
:20C1E00002210291816900968DF80440CDF80CD002A88847C0B2002808BF2C7504B070BD43
:20C20000F0B584B007460E46002407F05FF94CF60861C1F6FF71012804D1342078434058BA
:20C22000012817D0012F02D14E63384624E0342007FB00152868B04203D1687D297D8842A2
:20C2400017D0012E0CBF20201C2044513846FFF7ADFC08B901200FE0394604278DE8C2001D
:20C260008169CDF80CD002A88847C4B2002C08BF2E60287D6875204604B0F0BD30B584B061
:20C280000C460546FFF792FC08B9012010E000950021ADF80410072102914169CDF80CD036
:20C2A00002A88847C0B2002804BFBDF80410218004B030BD48F69E0CC1F6FF7CBCF800C00F
:20C2C00002460123834013EA0C0F01D101207047002034234CF6086CC1F6FF7C02FB03C24C
:20C2E000536AD2F828C081E808107047342250434CF60862C1F6FF728058086000207047C3
:20C300004CF60862C1F6FF72342101FB0020C08A70474CF60862C1F6FF72342101FB002092
:20C32000008B70474CF60862C1F6FF72342101FB0020408B704710B4342202FB00F14CF6AA
:20C340000864C1F6FF746258012A06BF0819408A002010BC704710B4342202FB00F14CF6C5
:20C360000864C1F6FF746258012A06BF0819007D002010BC704710B400214CF60862C1F6F4
:20C38000FF72342301FB03239A8812F0010F10D01A68012A08D153F81CCF1CEB00024FF09B
:20C3A000000C83E8041004E000221C6ADA6104441C6201310629E0DB002010BC704710B5E1
:20C3C00000244CF60861C1F6FF71342004FB0010808810F0010F18BF10F0020F02D02046CC
:20C3E000FFF7BAFC0134062CEBDB002010BD2DE9F0484FF0000B5C4648F69C05C1F6FF7533
:20C40000204601F075FA30B1204601F071FA2A7842EA0001297001340B2CEDDD28785E46D1
:20C4200010F03F00287029784CF60867C1F6FF770120B04008424FF0340006FB007128D06E
:20C440000C4640F28260488264200875A0880021216040F00300A080304606F0D9FF20F436
:20C460007041E182642907D340F2DC50814208D940F6FF70814204D040F6FF70E0824FF0BD
:20C48000010B304601F07DFB60836421A181E18103E088886FF3010088800136062EC2DB5F
:20C4A000B7F84A0040F6FF7188420AD0F98A40F6FF72914218BF884203D9A7F84A20FA823A
:20C4C00002E0BBF1010F01D1012100E000213620BDE8F048FFF786B830B54CF60862C1F61A
:20C4E000FF72342100FB012504460021E96285F8321004F0D8FA002C18BF30BD688A002810
:20C5000018BF30BD04F0F8F8288630BD30B504464CF60865C1F6FF75002918BF002A07D1CD
:20C52000342004FB00500021C16280F832100FE0342004FB00500123C362018680F832202E
:20C54000204604F0A9FA022808BF30BD4FF001012046BDE8304004F0A6BA2DE9F04800267C
:20C5600048F2F211C0F2070108784CF60865C1F6FF75012816D1012E74D104F03AF810B9F7
:20C5800004F040F818B104F021FD044606E004F042F8012801D02C6E04B16424204603F00C
:20C5A000ACFE9EE000285DD148F21401C0F20701088810F0020F55D0002E18BF012E51D1D8
:20C5C000286E10B9E96A012922D0012804BFE86A01281CD104F00DF810B904F013F848B17F
:20C5E000B5F86400B0B164214843298E90FBF1F1C8B20DE0012001F0C4FA642200FB02F4E7
:20C60000002001F0BEFA94FBF0F1C8B200E0642003F073FE342006FB0050C76A90F83240CF
:20C62000B0F830B059463046FFF78BFD21463046FFF7B5FD39463046FFF7E2FD4FB9342034
:20C6400006FB0050006AB0F57A7F02D93046FFF736FDD5F89C00012837D103F0AEFD03F0DC
:20C66000C0FD3EE0022E18BF032ED3D1D5F8C800012810D1032E04BFA96E002905D107460D
:20C68000B5F8CCB095F8CE40CCE7022ECAD1A86E0128D3D114E0D5F8940088B1022E04BFF4
:20C6A000D5F89C10002905D10746B5F898B095F89A40B7E7032EB5D1D5F89C000128BDD1E4
:20C6C0004FF0000B5C465F46ACE7A86E012804D103F05FFD03F099FD03E003F06EFD03F016
:20C6E00094FD0136062EFFF63BAFBDE8F0884CF60862C1F6FF72342101FB0020C06970471D
:20C700004CF60862C1F6FF72342101FB00200021A0F80910C18070474CF60862C1F6FF7236
:20C72000342101FB002000214172704710B5002420460021FFF764FD20460021FFF72FFD8D
:20C7400020460021FFF7FDFC0134062CF0DB10BD10B581B00DF102010820FEF742FC4CF6D0
:20C760004071C1F6FF71BDF802204888824288BF6FF0270411D8A024002001EB80035B8886
:20C780009A4207D201EB8003DB889A4202D38000445E02E001301E28EFD3204601B010BD40
:20C7A00000B5FFF7D5FF48F6A001C1F6FF710880A0F18C01102905D200EB4000C0F50270EC
:20C7C000C0B200BD9B28CCBF0020642000BD48F6A001C1F6FF71B1F9000070472DE9F044CA
:20C7E00081B00A4664259628C8BF00250DF102011046FFF789F9041E2AD1BDF802100120F1
:20C80000A040084221D04CF6B876C1F6FF762046355501F0D3F8824600270120B84010EAB3
:20C820000A0F0FD0384601F063F8002101228A40024204D0325D735C934288BF725401319E
:20C840000629F3DB01370C2FE7DB0134062CD4DB01B0BDE8F0840628AFBF64204CF6B8713B
:20C86000C1F6FF71085C704770B581B00A2500240DF102012046FFF752F9012825D048F6C9
:20C88000A401C1F6FF7101EB04163079BDF9022006EB400101303071C0B20528CA8009D37C
:20C8A00000203071B01D0521FEF780FD70800121317002E03078012807D1B6F90200A84279
:20C8C000C8BF05462146FFF789FF0134012CCFDD4CF6C070C1F6FF70822D0580CCBF01201B
:20C8E0000020FFF7B0F801B070BD48F6A401C1F6FF7101EB0010B0F9020070470628AFBF98
:20C9000064204CF6C471C1F6FF71085C70470628AFBF002048F6C401C1F6FF7151F820008B
:20C9200070474CF6C471C1F6FF71087870472DE9F04C89B082469DF8020048F24611C0F23E
:20C94000070140F00F028DF802200878022804BF02F0FC018DF80210002401AA07A9002352
:20C96000642042F8243008550134062CF5DB48F6C405C1F6FF7500F0ECFA8DF80300FFF78B
:20C980000FFF4CF6CD71C1F6FF714CF6CC72C1F6FF720870117881420DD324D90022286BE4
:20C9A000AA8650442863B0F5FA7F1CDB4FF4FA702863481E12E0A88E5044A88680B2B0F5B4
:20C9C000FA7F10D34FF4FA70A886286BA0EB0A002863504507DC00222A63481C4CF6CC7163
:20C9E000C1F6FF71087000249DF8020010F0020F0BD0204600F0BEF9061E08D005F1240BC3
:20CA0000600030F80B0070B10CE06426F6E705F1240B610031F80B000028EFD141F2883082
:20CA200021F80B0000265146FEF726FD07A962000F5D22F80B00BE4205D237460E5501A9F9
:20CA4000022241F824209DF80200C0070ED52046FFF701FF06465CB9372838BF372605F18E
:20CA6000180B600030F80B0080B10EE06426F6E70028F4D105F1180B610031F80B000028B7
:20CA8000EDD141F2883021F80B0000265146FEF7F3FC6100BE4221F80B0006D207A837469F
:20CAA00001A90122065541F824204CF6CC70C1F6FF700178B9420AD207A80F4601AA032308
:20CAC000015542F82430002C45D0372945D99DF80300B84205D207A90422085501A941F834
:20CAE00024200134062CFFF67FAF002407A84CF6D076C1F6FF760DF1040C4CF6C477C1F69F
:20CB0000FF775CF824C0005D395D45F824C03055814227D9081A40B20A28C8BF01F1F60056
:20CB20001FDC0528C8BF01F1FB001ADC4FF0000A85F836A0032003F0E6FC012810D195F838
:20CB40003700013085F83700C0B232280AD985F837A0305D05E03729B9D200210155C0E73B
:20CB6000305D3855395D305D814221D2401A40B20A28C8BF01F10A0019DC0528C8BF481DB3
:20CB800015DC4FF0000A85F837A0032003F0BBFC01280BD195F83600013085F83600C0B21C
:20CBA000322805D985F836A0305D00E0305D38550134062C9ADB09B0BDE8F08C2DE9F04F58
:20CBC00081B081460F4600260121B1401FFA89F0014200F0C880304601F094F8A0F1280115
:20CBE00030468F4203DC01F07CF901466AE001F0B8F8A0F1280130468F4217DC01F082F818
:20CC0000A0F12804304601F0ACF8A0F12805304601F067F9391B89B2C0F1640292B24A4350
:20CC2000291B89B292FBF1F101444BE001F0C9F8A0F128018F42D8BF642143DD304601F0B6
:20CC4000F0F8A0F1280130468F4217DC01F0B9F8A0F12804304601F0E4F8A0F12805304622
:20CC600001F06FF9E91B89B2C0F1640292B24A43291B89B292FBF1F1014423E001F001F913
:20CC8000A0F128018F421CDC304601F0CAF8A0F12804304601F0F5F8A0F12805304601F0B2
:20CCA00050F98246304601F07CF9E91B89B2AAEB000292B24A43291B89B292FBF1F10144AD
:20CCC00000E000214CF6D874C1F6FF743046A15500F074FE80464FF0000A012101FA0AF1A6
:20CCE0001FFA88F0014239D0504600F001FE8346BAF1000F11D101F084F9A25D904222D933
:20CD000001F07FF9A055054601F07BF985424FF003008CBF0121002113E0BAF1040F12D1DA
:20CD200001F075F9A25D90420DD901F070F9A055054601F06CF985424FF004008CBF012176
:20CD40000021FEF786FE002101228A4012EA0B0F01D0A25D625401310629F5DB0AF1010A58
:20CD6000BAF10C0FB9DB0136062EFFF62DAF01B0BDE8F08F10B50446062802DA01F0DFF966
:20CD800008B9642010BD4CF6D870C1F6FF70005D10BD10B581B001246946204600F0B5FBD7
:20CDA000012820D00DF10201204600F092FB012819D048F6F801C1F6FF7101EB8402BDF9DE
:20CDC0000010107810B90120107007E0B2F902008842CCBF401A081A000604D05180BDF88C
:20CDE0000200FFF7EBFE0134062CD5DD01B010BDFFF7CFBF2DE9F04882B0064648F6141504
:20CE0000C1F6FF75287D01302875286850B9281D10220021FEF700FBB420A8814B20A880C3
:20CE200001202860684601F0B0FF071E0BD1024640F20003C4F22403DDE900010CF051FF8D
:20CE40000CF0DDFDA88028692C1D4FF0000B04287CD80FF20801D1E800F0C04604112E39FB
:20CE6000530020884B2848D3002F6FD1287D062829D30620287502F050F824E021885A29BE
:20CE800002D90220E06061E0412938BFC4F80CB05CD3C1F15A00218942F2107201FB102074
:20CEA00048F21F52C5F2EB12C11752FB00F0C1EB5010A0704AE02188CA2902D90320E060DE
:20CEC00044E05A2940D20120E0603FE03146A088FEF7C2FA2188A080B1F5857F02D304205D
:20CEE000E06033E0C02904D80220E060A4F804B02CE04FF21861884226D384F802B025E0AC
:20CF00003146A088FEF7A8FAA0803146E088FEF7A3FA2188E080C02904D20220E060C4F864
:20CF200004B013E0B1F5857F06D2A17821B10320E060A4F806B009E0A1884FF21862914288
:20CF400038BFB0F5C87FD8D26420A07002B0BDE8F08810B448F61414C1F6FF7420680028DD
:20CF600014BFA079642010BC704748F61811C1F6FF7108887047014648F62C12C1F6FF72FE
:20CF80001068002808BF7047437801228A401A4208BF8069F5D0704730B584B00C4605468D
:20CFA000FFF7E9FF08B901200FE00021ADF80C10022202AB8DE82C00C16868468847C0B256
:20CFC000002804BFBDF80C10218004B030BD10B584B00C4600218DF80C100290FFF7CBFFF4
:20CFE00008B901200CE0032102AB8DE80A00C16868468847C0B2002804BF9DF80C102170CE
:20D0000004B010BD30B50D460446FFF7B4FF08B9012030BD48F63011C1F6FF7151F8240082
:20D020002860002030BD70B584B00E460446FFF7A2FF08B9012015E048F63015C1F6FF7548
:20D0400055F82410B14208BF00200BD0012202AB8DE85C00016968468847C0B2002808BFB1
:20D0600045F8246004B070BDF0B583B048F62C16C1F6FF76002435680EE0696959B10422D9
:20D08000287801928DF802000DF10200029001A888470443E4B2AD69002DEED1311D51F856
:20D0A0002500002800F0B5800DF103012846FFF78EFF002840F0AD80012D62D080F0A9808D
:20D0C0009DF80310707B06F10C0711F0020F0AD00A220121FEF75DF9C1B271730A2928BFBD
:20D0E000012107D209E000220A21FEF757F9C1B2717311B90020FEF788FC9DF803103878A8
:20D1000011F0010F0DD00A220121FEF742F9C1B239700A2903D301210846FEF776FC012185
:20D120000AE000220A21FEF739F9C1B2397011B90120FEF76AFC00212C20FEF753FA9DF8EB
:20D140000310B87811F0040F0ED00A220121FEF720F9C1B2B9700A2903D301210220FEF760
:20D1600054FC2D20012152E000221421FEF716F9C1B2B97011B90220FEF747FC2D20002135
:20D1800045E00120FDF774FC05EB45018F190228787B07F10C070AD10A220121FEF7F9F8D0
:20D1A000C1B279700A2928BF012107D20AE000220A21FEF7F3F8C1B2797019B905EB450084
:20D1C000FEF723FC0120FDF753FC0146012938780FD10A22FEF7DDF8C1B239700A2918D3A6
:20D1E00005EB450001300121FEF70FFC2E2001210DE000220A21FEF7D1F8C1B2397041B929
:20D2000005EB45000130FEF700FC2E200021FEF7E9F90135022DFFF441AF204603B0F0BD63
:20D2200010B448F63814C1F6FF7401280CD019D260780A283FBF22780A2AA1780A290BD287
:20D24000104308430ED10CE020790A283FBFE2780A2A61790A2901D3012002E0104308438C
:20D2600000D12072207A10BC704730B583B0002448F62C10C1F6FF7005680AE000200DF1DD
:20D28000030102916968019001A888470443E4B2AD69002DF2D1204603B030BD10B448F632
:20D2A0002C14C1F6FF74216811B9206004E011468A69002AFBD1886100218161084610BC07
:20D2C000704748F64111C1F6FF710870704748F64111C1F6FF7108787047F0B548F6441686
:20D2E000C1F6FF764FF47A74002502200A273060062012F07AFF0544EDB2210401E0A1F5A4
:20D3000080310C0C012CFAD8062D02D90120306001E0013FECD105F00BFC022808BFF0BD0E
:20D32000BDE8F04005F004BC48F64411C1F6FF710878704700207047F0B548F64814C1F6A5
:20D34000FF742278062A24BF0120F0BD0E46411E02298FBF002748F20751C0F203010F5CD9
:20D36000002111E004F1040C2C2311FB03C3D3F800C0BC4506D1598A0120B04008435882F9
:20D380000020F0BD0131C9B29142EBD3032810D801F028FA2278231D2C2112FB0131431E95
:20D3A000052B0F609FBF48F2FF43C0F20303C05C4860251D2C2712FB07500121B1404182A9
:20D3C000304601F0A4F9227812FB0751088200200881511C2170F0BD70B548F64814C1F6F6
:20D3E000FF742378062B24BF012070BD0026421E052A9EBF48F20B52C0F20302165C0022C9
:20D4000010E04FF02C0C12FB0C55D5F800C0B44506D16A8A0120884010436882002070BD73
:20D420000132D2B2251D9A42EBD32C2213FB0252431E052B16609FBF48F21353C0F20303EC
:20D440001B5C5360012303FA01F1518200F01DFE23782C2113FB0152108200201081591CB0
:20D46000217070BD42F21071414340F6FF72101AB1FBF0F04FF47A714843704730B50D46B0
:20D480001446FFF7EFFF44F6D352C1F26202A0FB02202946800900F09CFF4FF6FF71884219
:20D4A0000EBF01202080002030BD70B50D461646FFF7D8FF0446284600F018FE01462046C5
:20D4C00000F0B1FD08B9012070BD32383080002070BD30B400220DE02C2412FB04F41D1DB6
:20D4E0002B59834204D16019408A088000200AE00132D2B248F64813C1F6FF7393F800C075
:20D500006245E9D3012030BC704710B4002210E02C2412FB043454F8043F834207D1607A73
:20D5200001280ED1B4F90C2000200A800AE00132D2B248F64813C1F6FF7393F800C062450B
:20D54000E6D3012010BC70472DE9F04481B000240094254660E02C2015FB006757F8040F6B
:20D560000024C11F022955D8797A012952D0072808BF4FF0010A05D008280CBF4FF0020AB5
:20D580004FF0030A69467868FDF72BFD040041D1387A009A07EB800101303872C0B2052845
:20D5A0004A6137D307F114000521FDF71AFF3885012179723C7240F63C7280B2A0F1A401B3
:20D5C000914206D207F10E025146FFF757FF01280BD1AAF101000121FEF7D7F9514622462E
:20D5E000387C00F0E2FDF88104E0AAF101002146FEF7CBF9A246798A012000FA0AF0084245
:20D6000003D05046F989FEF792FD0AF1010ABAF1060FF0DB0135EDB248F64816C1F6FF766D
:20D620003078854297D3204601B0BDE8F0842DE9F04D83B000252C462E46A8460DF10A0159
:20D640002846FEF76CFA002808BF4FF00108AA46AEE02C201AFB00B757F8040F0025411E4E
:20D66000042900F2A180052815D80FF20801D1E800F0C0461204070A0D102C4601260AE0D0
:20D680000124022607E00224032604E00324042601E00424052601A97868FDF7A2FC05007D
:20D6A00040F08280387A019A07EB800101303872C0B205284A6177D307F114000521FDF7E3
:20D6C00090FE81B2398501227A723D72A4292A460ED2B8F1010F19D1BDF90A00002815DD73
:20D6E000204601221146FEF7F8F80121B9720DE0B1F50F7F14D8B97A2046012903D10A4624
:20D70000FEF7EBF802E00121FEF7E7F820462A462946FEF7E2F8FD72B87A012835D13FE056
:20D7200040F6466081420AD220460121FEF7D5F820462A462946FEF7D0F87D8128E040F6E6
:20D74000DF7081420DD220460121FEF7C6F8FA7ABD722046012A18BF2A462946FEF7BDF809
:20D76000DAE7B8F1010F0AD1BDF90A00002806DD204601222946FEF7B0F80121F972204601
:20D780002A460121FEF7A9F8BD72F87A012807D007F10C023146388DFFF787FE012803D106
:20D7A000B7F910003238B8810AF1010A5FFA8AFA48F6481BC1F6FF7B9BF800008245FFF404
:20D7C00048AF284603B0BDE8F08D30B505460024284600F0B4FC2C2148F64C12C1F6FF729C
:20D7E00014FB01214A680132904202D1B1F90C0030BD0134062CEBD3FF2030BD10B50024B1
:20D8000000F0CDFC012808D1204601F005F820B103289CBF2146FFF78FFD204600F08FFCD8
:20D8200010B12146FFF7D8FD0134062CE8DB10BD70B506460024FEF787F80546304600F044
:20D840007EFC052829D80FF20801D1E800F0C04626040A11181FE9071ED415F0020F1CD007
:20D860001AE015F0040F08BF15F0080F15D013E015F0100F08BF15F0200F0ED00CE015F0ED
:20D88000400F08BF15F0800F07D005E015F4807F08BF15F4007F00D00124204670BD70B51E
:20D8A00006460024FEF786F80546304600F047FC01380ED306D0022807D30AD115F0040FAA
:20D8C00006D106E0ED0704D502E015F0020F00D00124204670BD062808D22C2248F64C114D
:20D8E000C1F6FF7112FB0010008D70470020704701460E284FF0000088BF70470FF2040208
:20D90000D2E801F0080E141A20262C32383E444A5B50560048F21201C0F207010888704721
:20D9200048F21401C0F207010888704748F21601C0F207010888704748F21801C0F2070138
:20D940000888704748F21A01C0F207010888704748F21C01C0F207010888704748F21E0179
:20D96000C0F207010888704748F22001C0F207010888704748F22201C0F2070108887047EC
:20D9800048F22401C0F207010888704748F22601C0F207010888704748F22801C0F20701A8
:20D9A0000888704748F22C01C0F207010888704748F22E01C0F207010888704701460528DA
:20D9C0002BD80FF20800D0E801F0C046041C0A22101648F23001C0F207010888704748F274
:20D9E0003401C0F207010888704748F23801C0F207010888704748F23A01C0F207010888BE
:20DA0000704748F23201C0F207010888704748F23601C0F20701088870470020704748F25E
:20DA20004601C0F207010888704748F24801C0F207010888704748F24A01C0F2070108884B
:20DA4000704748F24402C0F20702118841FA00F010F00100704705282BD80FF20801D1E865
:20DA600000F0C046041C0A22101648F24711C0F207010878704748F24911C0F207010878ED
:20DA8000704748F24B11C0F207010878704748F24C11C0F207010878704748F24811C0F27B
:20DAA00007010878704748F24A11C0F20701087870470020704748F21001C0F20701088835
:20DAC000704705282BD80FF20801D1E800F0C046041C0A22101648F25201C0F2070108885D
:20DAE000704748F25601C0F207010888704748F25A01C0F207010888704748F25C01C0F2FE
:20DB000007010888704748F25401C0F207010888704748F25801C0F2070108887047002072
:20DB2000704705282BD80FF20801D1E800F0C046041C0A22101648F25E01C0F207010888F0
:20DB4000704748F26201C0F207010888704748F26601C0F207010888704748F26801C0F279
:20DB600007010888704748F26001C0F207010888704748F26401C0F20701088870470020FA
:20DB8000704705282BD80FF20801D1E800F0C046041C0A22101648F26A01C0F20701088884
:20DBA000704748F26E01C0F207010888704748F27201C0F207010888704748F27401C0F2F5
:20DBC00007010888704748F26C01C0F207010888704748F27001C0F20701088870474FF65D
:20DBE000FF70704705282AD80FF20401D1E800F0031B09210F1548F27601C0F207010888BA
:20DC0000704748F27A01C0F207010888704748F27E01C0F207010888704748F28001C0F270
:20DC200007010888704748F27801C0F207010888704748F27C01C0F20701088870474FF6E4
:20DC4000FF70704705282AD80FF20401D1E800F0031B09210F1548F28201C0F2070108884D
:20DC6000704748F28601C0F207010888704748F28A01C0F207010888704748F28C01C0F2EC
:20DC800007010888704748F28401C0F207010888704748F28801C0F20701088870474FF66C
:20DCA000FF70704705282AD80FF20401D1E800F0031B09210F1548F28E01C0F207010888E1
:20DCC000704748F29201C0F207010888704748F29601C0F207010888704748F29801C0F268
:20DCE00007010888704748F29001C0F207010888704748F29401C0F20701088870474FF6F4
:20DD0000FF70704705282AD80FF20401D1E800F0031B09210F1548F24F11C0F207010878BF
:20DD2000704748F25111C0F207010878704748F25311C0F207010878704748F25411C0F2BF
:20DD400007010878704748F25011C0F207010878704748F25211C0F207010878704700204A
:20DD6000704705282BD80FF20801D1E800F0C046041C0A22101648F25511C0F207010878B7
:20DD8000704748F25711C0F207010878704748F25911C0F207010878704748F25A11C0F24D
:20DDA00007010878704748F25611C0F207010878704748F25811C0F20701087870470020DE
:20DDC000704705282BD80FF20801D1E800F0C046041C0A22101648F25B11C0F20701087851
:20DDE000704748F25D11C0F207010878704748F25F11C0F207010878704748F26011C0F2DB
:20DE000007010878704748F25C11C0F207010878704748F25E11C0F2070108787047002071
:20DE2000704705282BD80FF20801D1E800F0C046041C0A22101648F26111C0F207010878EA
:20DE4000704748F26311C0F207010878704748F26511C0F207010878704748F26611C0F268
:20DE600007010878704748F26211C0F207010878704748F26411C0F2070108787047002005
:20DE8000704705282BD80FF20801D1E800F0C046041C0A22101648F26711C0F20701087884
:20DEA000704748F26911C0F207010878704748F26B11C0F207010878704748F26C11C0F2F6
:20DEC00007010878704748F26811C0F207010878704748F26A11C0F2070108787047002099
:20DEE000704705282BD80FF20801D1E800F0C046041C0A22101648F26D11C0F2070108781E
:20DF0000704748F26F11C0F207010878704748F27111C0F207010878704748F27211C0F283
:20DF200007010878704748F26E11C0F207010878704748F27011C0F207010878704700202C
:20DF4000704705282BD80FF20801D1E800F0C046041C0A22101648F27311C0F207010878B7
:20DF6000704748F27511C0F207010878704748F27711C0F207010878704748F27811C0F211
:20DF800007010878704748F27411C0F207010878704748F27611C0F20701087870470020C0
:20DFA000704705282BD80FF20801D1E800F0C046041C0A22101648F27911C0F20701087851
:20DFC000704748F27B11C0F207010878704748F27D11C0F207010878704748F27E11C0F29F
:20DFE00007010878704748F27A11C0F207010878704748F27C11C0F2070108787047002054
:20E00000704748F28711C0F207010878704748F28811C0F207010878704748F28911C0F23C
:20E02000070108787047012904D148F28452C0F2070205E0022918D148F60402C0F20702DF
:20E04000002152F8213098420BD802EB81035B68984206D34F2994BF481C01F12900C0B2A4
:20E0600070470131C9B2A029EBD300207047012903D0022907D1072000E0062000B500F00C
:20E0800035F85DF804EBFF20704706282CD80FF20801D1E800F0C04629050B11171D2300AD
:20E0A00048F29011C0F207010878704748F29111C0F207010878704748F29211C0F2070130
:20E0C0000878704748F29311C0F207010878704748F29411C0F207010878704748F295118A
:20E0E000C0F207010878704700207047052824D80FF20401D1E800F02103090F151B48F2DA
:20E100008A11C0F207010878704748F28B11C0F207010878704748F28C11C0F2070108789B
:20E12000704748F28D11C0F207010878704748F28E11C0F207010878704700207047052891
:20E140002BD80FF20801D1E800F0C046041C0A22101648F29611C0F207010878704748F285
:20E160009811C0F207010878704748F29A11C0F207010878704748F29B11C0F2070108780F
:20E18000704748F29711C0F207010878704748F29911C0F20701087870470020704748F20F
:20E1A0009C11C0F207010878704703464FF6FF70002A18BF70471A460A2B88BF70470FF278
:20E1C0000803D3E812F0C04605010C0025003E00570070008900A200BB00D400ED00012964
:20E1E00005D148F2A201C0F2070108887047022905D148F2A401C0F207010888704703295E
:20E2000018BF704748F2A601C0F2070108887047012905D148F2AC01C0F2070108887047A6
:20E22000022905D148F2AE01C0F2070108887047032918BF704748F2B001C0F20701088804
:20E240007047012905D148F2B601C0F2070108887047022905D148F2B801C0F207010888D7
:20E260007047032918BF704748F2BA01C0F2070108887047012905D148F2C001C0F2070182
:20E2800008887047022905D148F2C201C0F2070108887047032918BF704748F2C401C0F2CD
:20E2A000070108887047012905D148F2CA01C0F2070108887047022905D148F2CC01C0F24F
:20E2C000070108887047032918BF704748F2CE01C0F2070108887047012905D148F2D4011C
:20E2E000C0F2070108887047022905D148F2D601C0F2070108887047032918BF704748F216
:20E30000D801C0F2070108887047012905D148F2DE01C0F2070108887047022905D148F2CE
:20E32000E001C0F2070108887047032918BF704748F2E201C0F2070108887047012905D123
:20E3400048F2E801C0F2070108887047022905D148F2EA01C0F2070108887047032918BF6F
:20E36000704748F2EC01C0F2070108887047012905D148F2F201C0F2070108887047022965
:20E3800005D148F2F401C0F2070108887047032918BF704748F2F601C0F20701088870478B
:20E3A000012905D148F2FC01C0F2070108887047022905D148F2FE01C0F2070108887047EA
:20E3C000032918BF704748F20011C0F2070108887047024648F29E00C0F2070003889A42F7
:20E3E0004FF6FF7020D348F2A00CC0F2070CBCF800309A4218D8012905D148F2A201C0F28C
:20E40000070108887047022905D148F2A401C0F2070108887047032918BF704748F2A60131
:20E42000C0F207010888704748F2A80CC0F2070CBCF800309A4220D348F2AA0CC0F2070CC0
:20E44000BCF800309A4218D8012905D148F2AC01C0F2070108887047022905D148F2AE013A
:20E46000C0F2070108887047032918BF704748F2B001C0F207010888704748F2B20CC0F24B
:20E48000070CBCF800309A4220D348F2B40CC0F2070CBCF800309A4218D8012905D148F20D
:20E4A000B601C0F2070108887047022905D148F2B801C0F2070108887047032918BF7047F5
:20E4C00048F2BA01C0F207010888704748F2BC0CC0F2070CBCF800309A4220D348F2BE0CC8
:20E4E000C0F2070CBCF800309A4218D8012905D148F2C001C0F2070108887047022905D1AA
:20E5000048F2C201C0F2070108887047032918BF704748F2C401C0F207010888704748F209
:20E52000C60CC0F2070CBCF800309A4220D348F2C80CC0F2070CBCF800309A4218D80129E4
:20E5400005D148F2CA01C0F2070108887047022905D148F2CC01C0F20701088870470329AA
:20E5600018BF704748F2CE01C0F207010888704748F2D00CC0F2070CBCF800309A4220D375
:20E5800048F2D20CC0F2070CBCF800309A4218D8012905D148F2D401C0F2070108887047DE
:20E5A000022905D148F2D601C0F2070108887047032918BF704748F2D801C0F20701088831
:20E5C000704748F2DA0CC0F2070CBCF800309A4220D348F2DC0CC0F2070CBCF800309A4245
:20E5E00018D8012905D148F2DE01C0F2070108887047022905D148F2E001C0F207010888AB
:20E600007047032918BF704748F2E201C0F207010888704748F2E40CC0F2070CBCF8003098
:20E620009A4220D348F2E60CC0F2070CBCF800309A4218D8012905D148F2E801C0F207018D
:20E6400008887047022905D148F2EA01C0F2070108887047032918BF704748F2EC01C0F2B9
:20E6600007010888704748F2EE0CC0F2070CBCF800309A4220D348F2F00CC0F2070CBCF8F0
:20E6800000309A4218D8012905D148F2F201C0F2070108887047022905D148F2F401C0F26E
:20E6A000070108887047032918BF704748F2F601C0F207010888704748F2F80CC0F2070C1C
:20E6C000BCF800309A4238BF704748F2FA0CC0F2070CBCF800309A4288BF7047012905D109
:20E6E00048F2FC01C0F2070108887047022905D148F2FE01C0F2070108887047032918BFA4
:20E70000704748F20011C0F207010888704705282BD80FF20801D1E800F0C046041C0A22C1
:20E72000101648F2A311C0F207010878704748F2A511C0F207010878704748F2A711C0F24F
:20E7400007010878704748F2A811C0F207010878704748F2A411C0F207010878704748F27C
:20E76000A611C0F207010878704700207047012805D148F27F11C0F2070108787047022836
:20E7800003BF48F28011C0F2070108780020704720B948F28111C0F2070103E048F28211CC
:20E7A000C0F207010878704720B948F29A01C0F2070103E048F29C01C0F207010888704745
:20E7C00001289DBF48F28410C0F2070000780020704701289DBF48F28610C0F20700007858
:20E7E00000207047013809D30AD002280ED305D148F2AB11C0F207010878704700207047B4
:20E8000048F2A911C0F207010878704748F2AA11C0F207010878704705282AD80FF20401F8
:20E82000D1E800F0031B09210F1548F29D11C0F207010878704748F29F11C0F207010878C6
:20E84000704748F2A111C0F207010878704748F2A211C0F207010878704748F29E11C0F2AB
:20E8600007010878704748F2A011C0F2070108787047FF20704748F2B911C0F20701087869
:20E88000704748F2BA11C0F207010878704748F2BB11C0F207010878704748F2BC11C0F21B
:20E8A00007010878704748F20C11C0F207010888704748F2BD11C0F207010878704748F28E
:20E8C000BE11C0F207010878704748F2BF11C0F207010878704748F2C011C0F20701087838
:20E8E000704748F2C111C0F207010878704748F2C211C0F207010878704748F2C311C0F2A6
:20E9000007010878704748F2C411C0F207010878704748F20E11C0F207010888704748F224
