:020000023000CC
:2080000000FE0020018403005B6104005561040061610400676104006D61040000000000DC
:20802000000000000000000000000000BB6104007361040000000000796104007F61040086
:20804000B5610400B5610400B5610400B5610400B5610400B5610400B5610400B561040050
:20806000B5610400B5610400B5610400B5610400B5610400B5610400B5610400B561040030
:20808000B5610400B5610400B5610400B5610400B5610400B5610400B5610400B561040010
:2080A000B5610400B5610400B5610400B5610400B5610400B5610400B5610400B5610400F0
:2080C000B5610400B5610400B5610400B5610400B5610400B5610400B5610400B5610400D0
:2080E000B5610400B5610400B5610400B5610400B5610400B5610400B5610400B5610400B0
:20810000B5610400B5610400B5610400B5610400B5610400B5610400B5610400B56104008F
:20812000B5610400B5610400B5610400B5610400B5610400B5610400B5610400B56104006F
:20814000B5610400B5610400B5610400B5610400B5610400B5610400B5610400B56104004F
:20816000B5610400B5610400B5610400B5610400B5610400B5610400B5610400B56104002F
:20818000B5610400B5610400B5610400B5610400B5610400B5610400B5610400B56104000F
:2081A000B5610400B5610400B5610400B5610400B5610400B5610400B5610400B5610400EF
:2081C000B5610400B5610400B5610400B5610400B5610400B5610400B5610400B5610400CF
:2081E000B5610400B5610400B5610400B5610400B5610400B5610400B5610400B5610400AF
:20820000B5610400B5610400B5610400B5610400B5610400B5610400B5610400B56104008E
:20822000B5610400B5610400B5610400B5610400B5610400B5610400B5610400B56104006E
:20824000B5610400B5610400B5610400B5610400B5610400B5610400B5610400B56104004E
:20826000B5610400B5610400B5610400B5610400B5610400B5610400B5610400B56104002E
:20828000B5610400B5610400B5610400B5610400B5610400B5610400B5610400B56104000E
:2082A000B5610400B5610400B5610400B5610400B5610400B5610400B5610400B5610400EE
:2082C000B5610400B5610400B5610400B5610400B5610400B5610400B5610400B5610400CE
:2082E000B5610400B5610400B5610400B5610400B5610400B5610400B5610400B5610400AE
:20830000B5610400B5610400B5610400B5610400B5610400B5610400B5610400B56104008D
:20832000B5610400B5610400B5610400B5610400B5610400B5610400B5610400B56104006D
:20834000B5610400B5610400B5610400B5610400B5610400B5610400B5610400B56104004D
:20836000B5610400B5610400B5610400B5610400B5610400FFFFFFFFFFFFFFFFFFFFFFFF87
:20838000FFFFFFFFFFFFFFFFFFFFFFFFFFFFFFFFFFFFFFFFFFFFFFFFFFFFFFFFFFFFFFFFFD
:2083A000FFFFFFFFFFFFFFFFFFFFFFFFFFFFFFFFFFFFFFFFFFFFFFFFFFFFFFFFFFFFFFFFDD
:2083C000FFFFFFFFFFFFFFFFFFFFFFFFFFFFFFFFFFFFFFFFFFFFFFFFFFFFFFFFFFFFFFFFBD
:2083E000FFFFFFFFFFFFFFFFFFFFFFFFFFFFFFFFFFFFFFFFFFFFFFFFFFFFFFFFFFFFFFFF9D
:2084000072B6002000210022002300240025002600271F481F4901601F4880F30888FFE798
:208420001E4801680F22120511430160BFF34F8FBFF36F8FFFE71A48002809D019491A4A21
:20844000521A013A04DD0020002309C1083AFCDAFFE7134800280BD0144802C8013907DBE9
:2084600038C82A1BFAD040CC40C3043AFBDCF5E7FFE70F4802C8013907DB18C8E21AFAD024
:20848000002520C3043AFCDCF5E762B606F0E0FE08ED00E00000002000FE002088ED00E08E
:2084A000010000000000002000FF0020E0FE040014FF04000B480178FF2900D1002101316B
:2084C0000170704708490878FF2800D1002001300870704705490878FF2800D10020013014
:2084E00008707047D0080020D1080020D2080020184A0146106803E002688A4202D0C0682E
:208500000028F9D1704770B584B00C460546FFF7EFFF60B10026009602A901AA62C28168A8
:208520006846884718B903982060002000E0012004B070BD00F070B806490A6812B90860C4
:2085400004E00A46D1680029FBD1D0600021C16008467047D40800200021304A52F8313000
:20856000834202D112EBC10003E001311229F4D30020704710B504460068FFF7EDFF10B19D
:208580000179122901D3012004E025484900085A6060002010BD00207047026812B94068D4
:2085A000FFF7E8BF0020704700B500200DF045FB01200DF042FB02200DF03FFB00BD70B59F
:2085C000002426461749164D11EB0610FFF7B4FF4FF6FF710443E4B270000136122E415380
:2085E000F0D3290000200DF0E7FA15F10C0101200DF0E2FA15F1180102200DF0DDFA00204F
:208600000DF0B2FB01200DF0AFFB02200DF0ACFBFFF7CAFF204670BDFFF7C6BF74030020BE
:20862000D808002004040020F0B504460E46C5B2284605F023FC07460B2005F06AFD784347
:20864000642190FBF1F7FFB27E43284696FBF1F7FFB205F00FFC3A460146204601F0C7F93A
:20866000F0BD01F0B2B930B50B2008F0E5FF0546002455FA04F0C00716D50B2005F0AAFBDC
:2086800001460129204601D1094A02E0022905D1084A1178FFF7C8FF012002E0FFF7E1FF8A
:2086A00000200A2105F0B8FA0134062CE1DB30BDED810700EE81070050B581B069460231B5
:2086C0000820FFF720FF1B4B694649885888814202D97FF0270411E0A024002013EB800606
:2086E0007688B14207D213EB8006F688B14202D38000C45E02E001301E28EFD3204601B012
:2087000050BD00B5FFF7D8FF0B4AB0F18C011029108005D2D0EB8000D0F10801C9B203E044
:2087200064219B2800DD0021084600BD0249B1F90000704724050020FC0800202C490868EA
:2087400001300860052001F0D2B800B528494868013048600A200BF02CF90A2006F0D7F8F8
:208760000A2005F028FD0A2000F0B8FD0A2009F083FF0A20FFF7DEFE0A2008F0B5FE0A2046
:2087800001F0D0F800BD00B5142004F08AFE142005F091F9142007F004F800BD322002F023
:2087A00042BB00B5642000F02EFE642007F062F8642006F00AFF00BD00B502F069FE09F04B
:2087C000D8FF02F02EFB05F074F903F04FFD00F061FE04F060FF01F0B8F800F0ADFD06F033
:2087E00001FD07F028F903F068F905F04CFB00BD00090020082100F080024006000E802A54
:2088000001D190F031000139F5D1704710B50024E0B2FFF7EFFFC84908550134B4F5807F74
:20882000F6D3002010BDF0B582B00546002000900190A8780E4610F08001284631D11F4655
:2088400000F04DF8688869468870000A4870287901AA04230870687811F0EBF9687811F0F9
:2088600017FA04464FB94FF6FF7069460880FF208870687811F00CFA04436EB301A988789A
:2088800070704878B0700878F070304600F039F8012800D104467078A97888421CD0012479
:2088A0001AE000F01CF80446688869468870000A4870287901AA04230870687811F0B9F999
:2088C000687811F0E5F9044336B101A9887870704878B0700878F070204602B0F0BD30B5B7
:2088E000964D0446287818B9FFF790FF012028709148A178E278415C5140415C00202171D3
:2089000030BD30B58D4D0446287818B9FFF77EFF0120287088486178A278415C5140415C36
:20892000E078401A18BF012030BD0000F0B586B0064601911C46824D10460CF058FA0022F0
:20894000804B0CF0B1FA0746039120460CF04FFA00227C4B0CF0A8FA00227B4B0CF0C1FBF2
:208960003A46039B0CF0BDFB784A794B0CF064FC764A784B0CF0B5FB0CF04FFA840800F053
:208980000307002005AA111F107001980E704E704000043050F080008870CC7000231A468E
:2089A00008461946FFF73FFF0090019804A94000053050F080008870CF7000231A460846C3
:2089C0001946FFF730FF00990143C9B2009101991B2006FB0050012908D30AD002290AD11F
:2089E0001B2006FB0050C471077204E0C470077101E044718771009806B0F0BDF0B584B04B
:208A000006460191642A00D964224D4D10460CF0EEF9514A514B0CF064FB0CF0FEF98408A7
:208A200000F00307002003AA111F107001980E704E7040000A3050F080008870CC70002359
:208A40001A4608461946FFF7EEFE0090019802A940000B3050F080008870CF7000231A465E
:208A600008461946FFF7DFFE00990143C9B2009101991B2006FB0050012908D30AD002295D
:208A80000AD11B2006FB00504473877304E04472877201E0C4720773009804B0F0BDF0B5FC
:208AA00084B005460C461646002003AB0F462C491870043B942006221D705D70987068463E
:208AC0000CF0FFFD1E491B2000FB0515687AA97A6B4651EA80001880E87A297B51EA80001D
:208AE0005880687BA97B51EA800040F2FF31ADF804007F00EA7CF85A884203D01020A040ED
:208B0000024302E01020A0408243012E03D116FA04F0104303E00121A14032EA010002AC4E
:208B200000231A461946E0702046FFF77CFEE178E97404B0F0BDC04628090020280A00206D
:208B40009C05002000408F40000028409A9999999999C93F99997940F6285C8FC2752440AF
:208B600048CA0400F0B582B0AD49064600208DF804001B2006FB00156F463E707E702878DB
:208B8000F8708020B87000231A4619463846FFF74AFE0446E87B072809D0F8709020B87012
:208BA00000231A4619466846FFF73DFE0443287C072809D0F8709120B87000231A461946DE
:208BC0006846FFF730FE0443687C072809D0F8709220B87000231A4619466846FFF723FEA7
:208BE0000443A87C48B1F8709320B87000231A4619466846FFF717FE0443A878F8708320C1
:208C0000B87000231A4619466846FFF70CFE04436878F8708220B87000231A4619466846B3
:208C2000FFF701FE0443687800F0BF006870E87CE4B250B16946C8709420887000231A4680
:208C400008461946FFF7EFFD0443304600231A46194600F0F6F8204602B0F0BD00B582B05C
:208C600000218DF804106A460B4610705070802090700120D07010460A46FFF7D4FD02B0D9
:208C800000BDCB20108000207047000030B583B004460D46002001AA6946107154701470CD
:208CA00003209070FF20D0700C70002048704880002310461A46FFF7B6FD50B9584A1B21AD
:208CC00004FB01216A4692788978891A18BF0121297003B030BDF0B586B0544D002101AA9B
:208CE000074611745073917310731070FF21D1730395002151705180511EFFF7C7FF0400FA
:208D000003D16946C978E81CC1554949C85D012821D143491B2004AA07FB0015012001A94C
:208D20000E46A87516200023907010461A46FFF77AFD0443B078E4B2687564B9039B182170
:208D400007FB01363B4A718B515CAA7D063660F39F0249008A53039A1820911D07FB001694
:208D6000B08A032801D2013009E0F08A01210130F082F08AB1820A2802D30020F082B082EA
:208D80002B48012204A9C2551820887008460C3900231A46FFF747FD214A04431B2107FB09
:208DA000012501A88078E8754007400F1DD0192004AA01A99070FF20D070002310461A4643
:208DC000FFF731FD044301A9887804AA28761A209070FF20D070002310461A46FFF723FDAA
:208DE000044301A88078687602E028766876A876822004A98870687850F00400C870084640
:208E00000C3900231A46FFF70EFDB18A0443094800230122415C384600F013F80CE0C04668
:208E20009C0500200000594000F08F40280A0020290A00204ECA04000443E0B206B0F0BD1C
:208E4000000030B582B0044600208DF804006D466C709520A8702C7001F00F00D90750EAF6
:208E6000D160D10750EA1160E87000231A4619462846FFF7D8FC5B4A1B2104FB0121EA7868
:208E80000A7502B030BD000009B9012005E018225043554A805A0880002070470AB9012063
:208EA00008E018235843504B181810EB4100C08910800020704710B50346002052B1494C77
:208EC000012909D30DD0022904D11B2103FB0141897E0AE0012009E01B2103FB0141097E35
:208EE00003E01B2103FB0141497E117010BD0020087070473D4A105C087000207047F0B5C8
:208F000083B0002401AA8021364E1B25147150709170454310706A46547054801070705D07
:208F2000274641061BD450F0400001A923462246C87008462146FFF776FC044601A869469C
:208F40003B463A468770FFF76EFC044307D169469DF80700897888420CBF70550124204669
:208F600003B0F0BDF0B583B0002401AA80211D4E1B25147150709170454310706A465470DC
:208F800054801070705D274641061BD500F0BF0001A923462246C87008462146FFF743FCC0
:208FA000044601A869463B463A468770FFF73BFC044307D169469DF80700897888420CBFEA
:208FC00070550124204603B0F0BD06488078C0F30210072803D806494000405A00E00020A3
:208FE0007047C0469C0500202E0A00202B0A002058CA04000168994B02464900585CC918AD
:20900000938864224978FFF791BC0168934B024649001279585CC9184978FFF7EFBC0168E8
:209020008E4B024649001279585CC9184978FFF736BD00B50179007811B9FFF793FF01E022
:20904000FFF75DFF002000BD30B581B0054600206A46911C50802878FFF716FF0446012815
:209060000ED0684640880BF0C2FE7D4A7D4B0BF01BFF00227C4B0CF0DDF80BF0D2FEA88090
:20908000204601B030BD30B581B0044600206B46D91CD8702078FFF72AFF05466B46207813
:2090A000D9780A00217918BF012262F300012171D91CFFF71FFF6946C97828430A002179D1
:2090C00018BF022231F002011143217101B030BD30B581B005460020604A6B4658802968A8
:2090E0004900505C89189A1C4978FFF7D7FE044601280ED06846408801300BF07BFE00220A
:209100005A4B0BF0EEFF0022594B0BF0EAFFC5E90101204601B030BD10B581B001684F4A6C
:2091200004466B464900505C891800224978DA70DA1CFFF7C0FE01280FD06946C9780129A5
:209140000CBF02220022022908BF42F00102217962F301012171002200E00246217962F31B
:209160008201217101B010BD10B581B001683B4A04466B464900505C8918002249785A802A
:209180009A1CFFF77EFD0021012801D069464988A18001B010BD00B502460068053805289F
:2091A00019D801A1D1E800F00307130B170F5068FFF78EFF10E05068FFF7AEFF0CE05068FB
:2091C000FFF742FF08E05068FFF75DFF04E05068FFF7CAFF00E0012000BD00B5026800210D
:2091E000012A09D31BD0032A09D30CD0042A0ED00B2A10D0012112E000F013F80EE04068D2
:20920000FFF703FF0AE04068FFF7F4FE06E04068FFF705FF02E04068FFF70BFF0146084635
:2092200000BD40680078FFF79DBC40680078FFF715BD40680078FFF74EBD30B50024254685
:209240000C49242005FB001000F08DF80443E4B20135022DF4D3204630BDC0466ACA040056
:209260005A643BDF4F8DF73F0030704000E050400000503FD4050020424A0146106803E0FE
:2092800042688A4202D0006A0028F9D1704710B50C46FFF7F1FF08B9012002E00089208089
:2092A000002010BD30B584B00C460546FFF7E4FF08B9012010E00095002101AA1180082145
:2092C0000291694603914169101D8847C0B2002804BFBDF80410218004B030BD30B585B090
:2092E00028480024056815E06868E9690090092003906846049003A8884704436868696965
:2093000001900A20039001A80490083088470443E4B22D6A002DE7D1204605B030BD194AF7
:209320000146106805E0038901228A401A4002D1006A0028F7D1704710B583B01148046815
:209340000DE06068E1680090002001906846029001A88847000601D0012002E0246A20008E
:20936000EFD103B010BD07490A6812B9086004E00A46116A0029FBD11062002101620846D0
:209380007047C046600A0020F0B582B00A466427962800DD0027694602311046FFF777FF6E
:2093A000041E27D1694649880120A04008401ED0354E2046375508F069F9019000250199BD
:2093C0000120A84008400FD0284608F035F9002201219140014004D0335DB15C994200D94E
:2093E000B3540132062AF3DB01350C2DE7DB0134062CD7DB02B0F0BD01466420062901DAB7
:209400002148405C704770B581B00A240025694602312846FFF746FF012822D01B496A462D
:2094200011EB05163079528816EB40010130307130790528CA8009D300203071B01D0521CE
:2094400003F09DFE70800120307002E03078012807D1B6F90200A04200DD04462946FFF723
:2094600093FF0135012DD2DD09490020822C0C8000DD012002F015FB01B070BD034911EB75
:209480000010B0F9020070471C060020640A00202206002000B502F04AFAFFF790F8FFF7E3
:2094A000CCFE00BDC5490878704730B585B00446FFF735FF08B901201BE000210A46CDE94E
:2094C000011205210391694604914169009403A88847C0B268B9BA4B2C2104FB0131B94AAA
:2094E000019B029D4B628D6211880123A3401943118005B030BD30B584B00C460546FFF7BA
:209500000EFF08B9012011E0AF4A0095117801AA117006210291694603914169101D884785
:20952000C0B2002804BF9DF80410217004B030BDF0B586B0A549054600220878039202287E
:2095400000F0C28009F0F0FC012800F0BD8008F062F8002800F0B880994F2C2005FB007454
:2095600020689B4E012840F08E80A089642801D26420A081E1698142C0F08D806946033139
:209580002846FFF7B8FF0390002840F0EF806846C078C1070BD514220121A07903F0E4FD83
:2095A000A07100220121E07903F0E3FD0CE0800712D500220121A07903F0DBFDA071142261
:2095C0000121E07903F0D0FDE07100220121607A03F0CFFD607290E06846C078400700F1C2
:2095E0008C8000220121A07903F0C3FDA07100220121E07903F0BDFDE0712846FFF755FFEB
:2096000031890120A84008405ED02846616AA26A0491059208F056F8029000226D4B049852
:2096200005990BF05EFD0BF0F8FB82B202980192904209D914220121607A03F095FD6072AA
:2096400000220121A07A1AE0284608F03BF8019A0A3A904251DA00220121607A03F089FDA6
:209660006072284608F046F80246A07A019B01219A4203D2142203F077FD02E0002203F00F
:2096800078FDA07239E0E089C82801D2C820E081216A814201D2002069E0022D04D1D7F858
:2096A000A01017F1600029B9032D05D1796F17F18C0009B1002101702846FFF7F6FE3189D0
:2096C0000120A840084001D1012050E00022616AA56A04918A4240490595A94105DA142297
:2096E0000121207A03F040FD06E03C4BE91A04DA0121207A03F03DFD2072002001222C2125
:2097000000FB01718B79142B01D21A1E03D1335C62F300033354CB790122142B01D21A1E9B
:2097200003D1335C62F3410333544A7A0125142A01D2151E03D1335C65F3C30333548A7A6C
:209740000125142A01D2151E03D1335C65F304133354097A0122142901D20A1E03D1315C07
:2097600062F38201315401300628C7DB039806B0F0BD1749405C70470020154900220A54DC
:2097800001300628F9D370470D4A2C2303FB002001830020704770B584B00C460849064680
:2097A0002C2006FB0015688AA04201D1002025E03046FFF7B4FD98B901201FE08A0A00203A
:2097C000240600208C0A002076CA040046810700840A0020000024400000144000001040C1
:2097E000009601AA032114800291694603918169101D8847C0B2002808BF6C8204B070BD84
:2098000070B584B00C468D4906462C2006FB0015287DA04201D1002016E03046FFF77FFDC2
:2098200008B9012010E00096642C00D9642401AA022114700291694603918169101D8847C1
:20984000C0B2002808BF2C7504B070BDF0B584B00D462C21794A4143064600205418216804
:20986000A94203D1617D227D914216D001461C20012D00D1202001513046FFF750FD08B965
:2098800001200CE000966F4601A90426E0C1816902A88847C0B200B92560217D617504B0C0
:2098A000F0BD10B502460123834065480088034001D1012007E000202C235A435F4B9A184D
:2098C000536A946A18C110BD00005C492C2202FB0010C08A704759492C2202FB0010008B9E
:2098E000704756492C2202FB0010408B704730B50022524B2C2102FB01318C88E4070CD535
:209900000B680025012B04D1CC690D622418CC6103E00C6ACD6124180C620132062AE8DB4A
:20992000002030BD10B5002444492C2004FB00108088C10704D5800702D52046FFF7F8FDF1
:209940000134062CF0DB002010BD70B500253D4C284607F071FE28B1284607F06DFEA1787F
:209960000143A17001350B2DF1DDA07800F03F00A0700025A1780120A84001402F4819D017
:209980002C2105FB010640F2826070826420307500203060B08850F00300B080284609F082
:2099A000C9FAF082284607F0BDFE70836420B081F08106E02C2105FB0101888830F00300D1
:2099C00088800135062DD5DB70BD10B504460021FFF7E1FE20460021FFF712FF204600211F
:2099E000FFF734FF2046002104F019FC10BD30B515460446FFF7CFFE29462046FFF700FFCA
:209A000020460121FFF722FF204604F004FC022803D02046012104F002FC30BD07492C224B
:209A200002FB0010002141728172C180704703492C2202FB001000214172704724060020DE
:209A40008C0A0020880A002010B540480A7803799A420AD1002205E004690B69A45C9C54C4
:209A60000132D2B20B7B9A42F6D3002010BD70B50E461546012009F0A8FA344C3079217EBF
:209A800088420CD1294600F023F800207179884216D2616A2A5C0A540130C0B2F6E794F82E
:209AA0002C1088420CD1294600F012F8002004E0A16B2A5C0A540130C0B271798842F7D345
:209AC000002070BD00207047214A08781070704730B504460D4609F075FA01280AD1032C23
:209AE00005D0C42C06D1284609F07AFA02E0284609F06EFA30BD30B509F064FA01281CD1FF
:209B0000144C2178081820706078013060706078114D0A2807D9286850F0080028600121F9
:209B2000032001F0D5FF20780A2806D92868012108432860002001F0CBFF30BD05494A1C93
:209B400000B90A46002010707047C046B4070020A60A00208E0A0020182C00200E490B79FD
:209B60004A884979C2EA034252EA01610160704710B582B0094C0722094968460BF0A1FD9C
:209B80006946204607220BF09CFD6946E01D07220BF097FD02B010BD900A0020980A002094
:209BA00077CA040070B50446C5B2284604F066F90646052004F0ADFA7043642190FBF1F603
:209BC000F6B2284604F056F9324601462046FFF70EFF70BDFFF7F9BE30B5052007F02CFD00
:209BE0000546002455FA04F0C00724D5052004F0F1F80128204611D1FFF7D4FF2046FFF75B
:209C0000B8FD052188B1022004F006F8012004F05FF82046022104F002FB0CE0FFF7DAFF7B
:209C20000521002003F0F8FF05E0012003F0F4FF002004F04DF80134062CD3DB30BD0000AD
:209C400070B500204C4A1C21002300FB01211C461E460C31DA43154678C101300C28F1D3CF
:209C600046489FED470ADFED470A194680ED010AC0ED020A80ED030A184610F04BFC70BD80
:209C800010B504460021084610F0CEFB0A21B0FBF1F01C21384A6143885010BD10B50446AF
:209CA0000021084610F0C0FB0A21B0FBF1F11C20314A604313581218994201D83248091884
:209CC000D0685160C91A9160884200D2D1605069884200D951611369002B0EBF0B465818B7
:209CE0004308136193695B18936110BD10B500210A4621481C2302FB03039B69C91801327C
:209D0000042AF6D900221C2302FB0303002401320C2A9C61F7D300EE101ADFED1C0AB8EEDE
:209D2000400A80EE200A15489FED192A90ED011A20EE020AB4EE401AF1EE10FA80ED000A07
:209D400001DA80ED010AD0ED021AF4EE401AF1EE10FA01D980ED020AD0ED030AF5EE400A68
:209D6000F1EE10FA05D030EE800AB6EE002A20EE020A80ED030A10BDA80A0020F80B002059
:209D80000000000000007A449A999919005043480000C84210B504460020012B00D01046BA
:209DA000002204E0A35C58400E4B0132185C8A42F8D310BD30B54FF6FF74012B00D01446AF
:209DC00000230AE0C55C95EA1422074D1206D20D525B92EA0424A4B201338B42F2D3204682
:209DE00030BDC0467ECA04007ECB040010B5C24C012000F083F8012000F096F800F0E5F90B
:209E0000BE48A06014F13C00E06100F05CF800F070F800F007FA09F07DF810BDB649486942
:209E2000704700B500F0F0F900F051F900BD30B5B14C2568034600207DB9CC2B01D0FF2BE6
:209E40000BD1B1F5006F06D801252560A38021610834146002E0032000E0012030BD00B58B
:209E6000A54A1368012B0AD129B99188884202D100F0DDF803E000F03CF800F024F800BD44
:209E800010B59D4B5C6902460020022C08D11C8BA24205D113F11C020A600121596104E034
:209EA00000F027F800F00FF8012010BD41B992490A8B904204D191F82D0008B9486101E09C
:209EC00000F001B8704700B58B480021816241614FF48071818500F03DF900F028F9884AB1
:209EE0001078012802D100F013F901E000F085F800BD81490020086000F090B8804908700C
:209F000070477F490878704770B502460020034607E07B4ED55C3478AC4200D101205B1CD1
:209F2000DBB28B42F5D370BD754908717047744908797047734A52F82010002914BF00209C
:209F40000120704770B502460020034607E06C4ED55C3479AC4200D101205B1CDBB28B4223
:209F6000F5D370BD674A12EB80000522B1FBF2F1016070470521624A90FBF1F0508070472B
:209F800000B561490120487300F00AF9FFF7B1FF00BD10B5584C7828E26902D0012384F86A
:209FA0002D307F211170A1680978907051700320606200F0F5F894F82D00012801D1FFF76C
:209FC00098FF10BD10B5041E15D1CC290BD0FF290DD1112A0BD0122A09D0312A07D07E2A75
:209FE00005D07F2A03D01046FFF7D3FF03E0FFF780FFFFF768FF204610BD414A11783E4870
:20A00000012902D04FF47A71C185704700000521394A90FBF1F01086704700000020374917
:20A02000FF220A54401CB0F5006FF8D3704710B5314C022020603220FFF7E9FF00F07CF837
:20A0400000F066F80120A08510BDF0B52F4D0020294CA1682A7809788A420ED1A088CC28F6
:20A0600002D16878C00704E0FF280AD1687810F0020006D02F46A56205E01835401C08288E
:20A08000E6D3A76AEFB13869D8B1B9787868FFF73BFF0646397AF868FFF754FF0EB97F22DB
:20A0A00010E008B933220DE028782E2802D108F03BFF30B1A26A14F1140120001269904739
:20A0C00004E011220020A188FFF77CFFF0BD0A48416910F1140271B9117E012903D1002018
:20A0E0001076FFF7B2BF517E29B953695B6913B10100002018477047080C0020D40D002012
:20A10000D4150020DC150020280C002054CE040036490020C885704735490888401E05D3C4
:20A120000880000402D10120FFF7E8BE70472F49FE20C043486370472C48002141634FF4D5
:20A140007A71816370472B480168002901DB491C01607047254900200886704700B5234927
:20A16000088E0022401E1AD30886000402D1486900B90122486B00280CDB896B884209D28F
:20A18000012A0CD17820FFF704FF41F28830FFF73EFF04E01020FFF7FCFEFFF7C8FF00BD8A
:20A1A000124902204861AA2008831C3104F071BC1149086840B1401E086005D10F4801788F
:20A1C000022901D30021017070470D4900204880704700B50B490888401E06D308800004E6
:20A1E00003D108F0E0FE0EF0AEF800BD080C0020360C00203C0C0020DC15002000FF002026
:20A20000D4150020D615002000B572B6FFF7D0FFFFF782FFFFF7A2FFFFF795FFFFF7D9FF22
:20A2200062B600BDD6484FF48071D64A8180002101608171C1601170016141618160017664
:20A240007047F0B582B006460C460123806800930023407801931D461F46010600D500938D
:20A2600000F07F021846C84B0101C95C8A4205D113EB001715460120019002E001300328D3
:20A28000F1D30220316900F0D3FA012854D11222B1880198FFF796FE01284DD1797878688B
:20A2A000FFF732FE7E22B188FFF78CFE012843D10220316900F0B2FA01283DD1397AF86840
:20A2C00000F0C0FA012837D1AE49002738460F70FFF72AFEFFF715FE2846FFF70FFE009957
:20A2E00001291CD1022D22D0012D01D0032D23D1A06850210170B168A06849784170A0687E
:20A300008770A0683221C170A06801210171A068F421417106202061FFF732FE0CE0FFF7A0
:20A32000E8FDFFF7D0FD022D06D1009810B108F065FA01E008F06DFA02B0F0BDF0B582B049
:20A34000044680680E4600270123407801933D46010600D5019700F07F028C480178009299
:20A360008A420BD105461F4641784068FFF7CCFD7E22A188FFF726FE012831D102202169AB
:20A3800000F056FA01282BD112223846A188FFF719FE012824D100F06DFA012820D10220BF
:20A3A000216900F03BFA01281AD1297AE86800F049FA012814D1019801280AD1B06851217F
:20A3C0000170B068009A427002203061FFF7D8FD03E0FFF78EFDFFF776FD0A20FFF7CAFD76
:20A3E00002B0F0BDF0B5A7B007460491002505A822210BF044FA2E460320396900F018FA97
:20A40000012807D13A69D20704D113222846B988FFF7D8FD3A69013A51080391222903D34F
:20A42000D20701D1132062E001286ED128462B4619E0BA6812EB43046278A47814EB02223D
:20A440002C4609B452490C236343C85A0393824209BC1BD1019805AA411842F826100136E8
:20A46000B6B20120013303998B42E2D301284CD12C46B44215D205AA52F8240081784068AE
:20A4800000F0E0F901340128F3D03EE00134222CD7D30128E6D031222846B988FFF792FD21
:20A4A000E4E700F0E7F901282FD12C4623E005AA52F824008268A2B1049F0388BA68AA18F7
:20A4C0001B0A5370BA680388AA1893708268B868694602312818033090476A465288AD189D
:20A4E00098B90235ADB2B5F5C87F03D31420FFF750FD0AE00134B442D9D304998868622265
:20A500000270681C0861FFF73BFD27B0F0BDF0B581680546487889780026344611EB0020D4
:20A5200031461C4A14234B43D75AB84202D19C18012602E001310329F3D30420296900F0F4
:20A5400077F9012830D131223046A988FFF73AFD012829D129696088033000F05FF90128F9
:20A5600022D12179A06800F06DF901281CD100F081F9012818D1E2689AB16188A8680BE0E5
:20A58000F4150020E0150020BCCD0400ECCD040014CF040018CE040003309047222801D03D
:20A5A00010B17220FFF7F5FCF0BDF0B581B086680546DB480F4600247678017800948E423E
:20A5C00002D081788E4202D10446012200920220296900F02DF9012830D11222A98800981D
:20A5E000FFF7F0FC012829D1207900F045F900902078864213D10220296900F00FF90128E6
:20A600001CD10098FFF796FC18B93720FFF7C1FC14E03A462946204600F035F90EE0A078E5
:20A6200086420BD12969E078023000F0F7F8012804D13A462946204600F04FF901B0F0BD92
:20A64000F0B581B00E46816804468878C97800273D4611EB0020394602B4B24B24224A4391
:20A66000995A884202BC02D1D518012702E001310329F1D30420216900F0DAF801283DD1CC
:20A6800031223846A188FFF79DFC012836D12979A868FFF739FC3122A188FFF793FC0128FA
:20A6A0002CD1297B286900F0CDF8012826D1A268297DA869527800F0CFF818B91222A18823
:20A6C000FFF780FC012819D121696888043000F0A5F8012812D1B06871210170A168B06872
:20A6E00049784170A168B06889788170A168B068C978C170EA6931462046904701B0F0BDDD
:20A70000F0B5044680680D46417800260127090600D53746844A4078117800F07F0088425F
:20A7200000D101260220216900F082F801281ED112223046A188FFF745FC012817D10220B6
:20A74000216900F06BF8012811D1012F0BD1A8687E210170A168A8684978417002202861AF
:20A76000FFF70EFC03E0FFF7C4FBFFF7ACFBF0BDF0B58868134641788278002412EB012113
:20A7800022466A4D14265643AF5BB94201D1741902E00132032AF4D3246924B113F11002E2
:20A7A0009968A04702E07220FFF7F3FBF0BDF0B50D46896814468A78C97811EB02220021E5
:20A7C000584B24264E439F5BBA4206D1F1180B6A4BB122462946984705E001310329EFD3F9
:20A7E000A06801210171A06871210170A968A06849784170A968A06889788170A968A06803
:20A80000C978C170FFF7BCFBF0BD00B57820FFF7C0FB41F28830FFF7FAFB00BD10B50124F1
:20A82000814203D000241320FFF7B3FB204610BD10B50124814203D200241320FFF7A9FBE1
:20A84000204610BD10B5FFF77DFB041E02D13320FFF79FFB204610BD30B5034600200446EF
:20A8600005E01D5DAA4200D101200134E4B28C42F7D330BD01207047294B1A7990420CBFCF
:20A880000020FF207047F0B505460F461646284CFFF74DFB2979814204D1E01C69780BF05D
:20A8A00025F807E00120207028786A6960706978E01C9047B06867210170B968B0684978E1
:20A8C00041706A78B068E11C02300AF0FAFE687802303061FFF754FBF0BDF0B582B00546F5
:20A8E00001911746124C0079FFF7C6FF064660782A7890423FD1207801283CD100202070B1
:20A90000FFF78CFA0028FBD1E21CA8696B78019CE9788446A0680230E047064AE0B90BE0D8
:20A92000FCCD0400ACD00400B7CD040018CE0400E015002000FF002090552879FFF7F4FABA
:20A94000B86867220270A268B8685278427002203861FFF715FB11E0905D01309055905D94
:20A96000022801D2352007E042F210713046FFF7F9FA362000E02420FFF70BFB02B0F0BDB5
:20A9800010B5C84C0120606007F008FB207207F008FB607207F008FB608107F008FB20733D
:20A9A00007F008FB607307F008FBA07307F008FBE07307F008FB207407F008FB607407F01D
:20A9C00008FBA07407F008FBE07407F008FBA082002010BDF0B5B44CA18CB1F57A6F01D2D5
:20A9E0000818A084607F2077002003F096FF05460027261D012854D13846FEF7BAFE00289F
:20AA00004FD194F83400012800D06786012003F015F8322808D9A08C218E884204D9012071
:20AA200002F05DFE01200CE0012003F007F8142809D2A08C618E884205D3384602F04FFE18
:20AA4000384600F0E8F994F82C00E0B903F0CEFF013804280FD801A1D1E800F003050709E7
:20AA60000B00207C08E0607C06E0A07C04E0E07C02E0207D00E0607D6077207F08B101209D
:20AA80002062012023E0E16A0807400F01D0677705E0C8061CD501202062607D607702209B
:20AAA00015E0384602F01BFE02F0FFFF3946052000F0DFFFA08CB0F57A6F05D32762A06893
:20AAC00002F0CEFF00B96077384684F82C70A062217F607F81422CD011B908B1A78428E09B
:20AAE000727C914225D3904223D381428CBF081A401A6E4920702078F27CB37C4143D21A5F
:20AB0000102891FBF2F292B2A18C06D94FF47A733846994205D9C81A03E06448814200D8CA
:20AB20000846608691422CBF891A3946A1846431218684F83450216AA06802F09FFFC82194
:20AB40000120627F07F0DCFD3846F0BD10B502F06DFF574BC91A26DB02F068FF554B002234
:20AB600082428B411FDB00F059F901281BD14D4C208CA18A884216D2606802F05FFF6389CE
:20AB800014F131029842117803D9022907D2013101E0013907D311701178022903D3A06AFE
:20ABA00050F00400A062002010BD30B5002402F03DFF3F4BC91A1DDB02F038FF3D4B84424F
:20ABC0008B4117DB374D686802F065FF15F12801012806D30AD003280DD8086850F0020040
:20ABE00002E0086830F00300086004E0086850F00100F9E70124204630BD2F49CA680020C1
:20AC000012B1097C01B101207047F0B587B0002602F00CFF264BC91AC0F2FA8002F006FFEC
:20AC2000244B86428B41C0F2F3801E4C606802F017FF374614F13805012840F0E38060686F
:20AC400002F029FF002840F0DD8094F828000007000F40F0D780009069460720FDF753FC2B
:20AC600006006AD100980AF0C2F83246134B0AF038FA3246124B0AF017F901900291207EA4
:20AC80000AF0B5F80590069102F0D0FE0D4A0E4B0AF0D2FA059A069B0AF023FA32460B4B86
:20ACA00016E0C046201600201C160020A00F000000002240000030403816002000001440AD
:20ACC00000FEAF4052B81E85EB51D8BF000059400AF0EAF8039004913246584B019802991B
:20ACE0000AF0FFF93246564B0AF0DEF8554A564B0AF0A2FA0590069102000B000398049932
:20AD00000AF0F9FB0598069904DB02460B460398049901E0039A049B0AF08CFA2A780B46C9
:20AD20004FF080418642994104DA501C0A2A04D2287002E0501E002AFAD1217E41B1607ED1
:20AD400030B1814204D084F839700120606302E0606B01281ED1208CA18A88420CD2606866
:20AD600002F06CFE052815D994F83900FF2811D2013084F839000DE0344A94F839101078DF
:20AD800019B9411C022804D201E0411E08B12F48017067632A780A2A03D22C49087802280F
:20ADA00015D30121052000F081FEA06A297850F00800A06201200A2904D2244A11780220BD
:20ADC000022901D384F83B0084F83A7020E01AB994F83B10012904D048B994F83B100229EC
:20ADE00005D13946052000F061FE678710E0104303D094F83A0001280AD13946052000F028
:20AE000055FEE1E7606A18B91049287001200870304607B0F0BD0E49087070470C490878BD
:20AE20007047FFF7ADBD00B5FFF7D4FDFFF78EFEFFF7BBFEFFF7E9FE00BDC04600804C40A2
:20AE4000000024409A9999999999A93F2C0700205C160020F0B505460C46164601201F2923
:20AE600000210DD222460AF045FD0746621C012000210AF03FFD07432868B843286010E09E
:20AE8000B4F11F020AF036FD0746B4F11E02012000210AF02FFD3843C043C10768680840E7
:20AEA00068603B48012E05D11F2C07D31F3CA640466008E0022E04D11F2CF7D2A6400660E9
:20AEC00001E00021296029684268114329606968006801436960F0BD30B52E4C14F1100068
:20AEE000FEF73CFE2169E26892EA010007D010EA010310400D46211D29C10120207030BD94
:20AF000070B5244C2078012825D1A06814F1140570B10026A1680120B040084005D07100D0
:20AF2000C9B228460122FFF795FF0136202EF1D3606870B1002661680120B040084005D02C
:20AF40007100C9B228460222FFF784FF0136202EF1D30020207070BD0F49B0F120031F2B6E
:20AF600004D20A681F3832FA00F002E0496831FA00F000F003007047074800210A4606C038
:20AF8000704700B5FFF7A8FFFFF7BAFF00BDC04660160020681600207C1600200146642085
:20AFA000062901DA8548405C7047844800787047F0B58BB000990290824851F00F01CAB2CA
:20AFC00000920178022902D102F0FC0000900024642109A803AA015512EB84000022026088
:20AFE0000134062CF4DB784D06F015FB0190FDF788FB764A1070764A11784FF4FA7381424C
:20B000000AD31BD90020AA69A88302981218AA619A4213DB01390EE0AA8B02981218AA831A
:20B02000AA8B9A420AD3AA69AB83121AAA61824204DC002301316648AB61017000240099C9
:20B0400011F0020F0AD0204604F087FA061E07D015F10C076100C85B58B109E06426F7E737
:20B0600015F10C076100CA5B002AF1D15948C8530026029902F0CDF8610009AAC853175D6E
:20B08000BE4205D237461655022203AB43F8242000996426C90703D52046FEF7ADF9064688
:20B0A00034B9372E00D237266100485B48B107E0002EF9D161004A5B002AF5D14548485315
:20B0C0000026029902F0A5F86100BE42485306D2374609A8012203AB065543F824203C48EF
:20B0E0000178B94209D20F4609A803230155183840F8243014B3372922D9019BBB4205D211
:20B1000009A80422035503AB43F824200134062C95DB0024304E09A8A200294B274F015DBF
:20B12000183831558058D0503A5D8A4221D9511A49B20A2908DD12F1F60119E03729DCD265
:20B1400009A800210155E1E7052901DD511F0FE00021A977032002F0D2FD012807D1E97F06
:20B160000131E977E97F322903D90020E877315D39553A5D315D8A421AD2891A49B20A2955
:20B1800001DD0A3213E0052901DD05320FE00021E977032002F0B3FD012807D1A97F0131CF
:20B1A000A977A97F322903D90020A877325D3A550134062CAEDB0BB0F0BDC0462D07002001
:20B1C00084160020468107009C160020340700203307002088130000350700200020704792
:20B1E000002070470020704770B582B00546C6B200200146CDE90001304602F03FFE6B4A0F
:20B20000290154185054304602F034FE608069462846FEF746FB0022654BDDE9000109F095
:20B2200060FF09F0FAFDA080FDF7CFFEE080284606F02CFA002101228A40024003D05D4B29
:20B2400053F82120A26001310C29F4D3284604F0EBFB3730207302B070BD30B50C4605468F
:20B26000FFF7C2FF514911EB051210782070508800096070508891880007090B51EA1060EA
:20B28000A07090880009E07051680807090F51EA10602071D08800096071D0889168000787
:20B2A000C1F3036151EA1060A0719068000CE0719068000A207290686072107BA07230BD7D
:20B2C00030B504460020FEF7D9F805460120FEF7D5F8401910EBD07040083730207030BD6B
:20B2E00010B50446FDF722FA3730207010BD10B5044607F04BF8207003F09BFF607010BD68
:20B3000030B504460020FEF7B9F805460120FEF7B5F8401910EBD07040083730207030BD6A
:20B3200030B5044605210AF0E1FA0E20FFF714FE05460E20FFF710FE55EA80050E20FFF748
:20B340000BFE55EA00150E20FFF706FE55EA801060711020FFF700FE05461020FFF7FCFD3A
:20B3600055EA80051020FFF7F7FD55EA00151020FFF7F2FD55EA8010A0711220FFF7ECFD95
:20B3800005461220FFF7E8FD55EA80051220FFF7E3FD55EA00151220FFF7DEFD55EA801063
:20B3A000E0710020E072607330BDC046BC160020000024403C0700203B4801784A0706D523
:20B3C00031F004010170242000210AF09DBE7047354801784A0706D451F004010170242049
:20B3E00001210AF091BE70472F480178CA0706D40122114301702B2011460AF085BE704712
:20B4000029480178CA0706D501F0FE0101702B2000210AF079BE7047234801788A0706D492
:20B4200051F002010170282001210AF06DBE70471D4801788A0706D531F0020101702820EA
:20B4400000210AF061BE704717480278110706D452F008010170222001210AF055BE70474C
:20B46000114801780A0706D531F008010170222000210AF049BE70470B480178CA0606D5E1
:20B4800031F010010170872000210AF03DBE704700B5FFF79DFFFFF7CBFFFFF7B1FFFFF7F2
:20B4A000DFFFFFF7E9FF00BD1C17002010B5044606F004F900070BD5A01E012808D8FFF71A
:20B4C0009FFFFFF7B5FF0220FEF77FFA032009E0022C02D1FFF794FF03E0032C01D1FFF724
:20B4E000A7FF2046FEF771FA10BD70B50446694D022809D1032002F08EFE10B1FFF780FF13
:20B500000AE0FFF771FF11E003280FD1022002F082FE48B1FFF78CFF2878D0B901202870EF
:20B520002046FEF752FA14E0FFF776FF00202870E6B2304602F09EFC0546304602F09EFC66
:20B540006421484390FBF1F2D2B229462046FEF74EFA70BDF0B581B002F029FC012807D0BD
:20B5600002F02AFC012803D002F02BFC012804D10221002002F050FB88E0022006F05CF84C
:20B580000646042006F058F8002456FA04F0C00778D5414D022002F01DFC01282DD1E87837
:20B5A000A0420FD02879A0420CD00120A870204602F031FE18B968702046FEF72FFA204618
:20B5C000FFF793FF204604F050FA0090204604F078FA07462046FEF7CCF8C8BBE878A042B2
:20B5E00036D02879A04233D0009A3A43022022B3014602F011FB012027E00020E870287133
:20B60000032006F019F80746032002F0E3FB2741FF0700D038B9A878012804D10020A8703B
:20B620002046FFF743FF0221002002F0F5FA00206870022102F0F0FA24E002F060FBF8B94F
:20B640000221012002F0E8FA002002F02FFB17E06878012814D10221084602F0DDFA012056
:20B6600002F024FB2046022102F0D9FD2046FFF71DFFE87808B9EC7002E0A04200D02C7142
:20B68000012068700134062CFFF67FAF002001B0F0BDC046221700202217002000210128A7
:20B6A00000D1014620200AF02FBD0021012800D1014648200AF028BD10B59E49062202FBD2
:20B6C0000014A078FFF7F1FF2079FFF7E7FF10BD994A5178012383400020194000D010002A
:20B6E000704730B505460C46012802D307D1872000E02220003918BF01210AF005FD0CB187
:20B70000012C03D18D4814226A431450002030BD00B50020FFF7D0FF00210846FFF7E1FF20
:20B7200000210120FFF7DDFF002000BDF0B582B0834F466800680096022802D0032813D0B9
:20B7400089E034682046FFF7C3FF98B1142004FB0072936A581C0DD07A487B495843009ACF
:20B76000B0FBF1F0908076E0009C24682046FFF7AFFF08B901206FE017F12003142004FB16
:20B780000032D06811690193814264D06F4D936831791061581C4CD101F0F800307100222B
:20B7A00045E001F0FE0192883171934207D9285D012262F34201317150F008004AE031F08E
:20B7C00002013171295D01F0FC0129555CB95D485D495843B0FBF1F048B9042130792955FE
:20B7E0000843307137E0E0B206F092FB40B9307930F00400307100980068002129542AE022
:20B80000009C206806F08FFB2468019B142104FB01314C4A896851434B4AE4B2B1FBF2F220
:20B820009042317911D90422114331713C702A5511E040F6CC408342B3D901F0F8000122CB
:20B8400010433071285D104304E031F0040131713C7000202855002002B0F0BD3B49085CC0
:20B8600070470268012A04D1406841680068FFF738BF0020704730B5354C0546207D44F8A0
:20B88000201001302075207D05280FD32000052101F08FFC294A142105FB01218860C86862
:20B8A0000130C86000202075012000E0002030BD30B581B00068042801D0012035E0254D49
:20B8C0002868254C012802D0022817D02CE0616814201A4A48438058012807D111B10220A6
:20B8E000012901D1FFF7E8FE02201CE009B9012002E0012918D10020606015E060680128B4
:20B9000012D869460620FCF7FEFD68B900996068FFF7B1FF012807D1616811B1002001297C
:20B9200000D1606001202860002001B030BD024801F0C7BE18D10400540700207007002050
:20B940005007002010270000FF0F0000281700202C1700209807002040170020562808D2DB
:20B96000684AC11000F0070001238340505C184001D1002000E001207047562801D3012045
:20B9800009E0604A00F0070101238B40C110505C1843505400207047562801D3012009E07E
:20B9A000584B00F0070101228A40C110585C90435854002070470020524900220A540130B8
:20B9C0000B28F9D3704703460020052B0EDA012904D306D15B001A33D8B202E058001B30A1
:20B9E000C0B20AB1FFF7C9BFFFF7D6BF704760B50026354668001B30C0B2FFF7AFFF20B10A
:20BA000069000120884080B2064368001A30C0B2FFF7A4FF28B16800411C0120884080B2E3
:20BA200006430135042DE5DD304660BD022806DC2430C0B209B1FFF7A0BFFFF7ADBF704707
:20BA400060B50026354615F12400C0B2FFF786FF18B10120A840C0B206430135032DF2D361
:20BA6000304660BD0930C0B209B1FFF786BFFFF793BF254A105C09B1FFF77FBFFFF78CBF41
:20BA800060B5002635462048405DFFF767FF18B10120A84080B2064301350C2DF3D3304697
:20BAA00060BD10B14520FFF768BF7047174A105C09B1FFF762BFFFF76FBF00B5FDF7F2FC16
:20BAC0000021801100D001210620FFF7EFFF00BD4B30C0B209B1FFF750BFFFF75DBF60B528
:20BAE0000026354615F14B00C0B2FFF737FF10B10120A840064301350B2DF3D3304660BDDC
:20BB0000FFF759BF4917002030D1040068D1040070B5154600240E1E00D00AB913244AE091
:20BB2000052801D9172446E0D37903B3022B03D304D0042B09D32ED01A243CE003283AD02C
:20BB4000052838D00320D07135E000F053F8A879B178884202D86879717824E0707A01282D
:20BB600012D031462846042200F087F810E000F041F8A8793179884203D86879F1788842CC
:20BB800019D2707A012803D13146284600F05FF80420E8710FE000F02DF8A879B179884211
:20BBA00009D868797179884205D331462846224600F063F8EC71204670BD30B50246002062
:20BBC00002B109B9132014E0D3790BB90B7803E0032B0CBFCB790B7A014604E014680425C1
:20BBE00065540131C9B29942F8D3908090710221D17130BD10B5136814791855D07908B992
:20BC0000087803E003280CBFC879087A0023194605E01468645C04B901330131C9B2814204
:20BC2000F7D353710023194606E01468645C032C00D101330131C9B28142F6D311799371D7
:20BC400000230138814200D04B1C137110BD10B5C2790AB90A7803E0032A0CBFCA790A7A56
:20BC6000002104E0036804245C540131C9B29142F8D300218171818010BD10B5C3790BB98B
:20BC80000B7803E0032B0CBFCB790B7A0AB9097802E0042A0CD1097A8B4209D2002104E01B
:20BCA0000268042454540131C9B25A1E9142F7D310BD00000000F0B582B00C4600270097D4
:20BCC000051E01D001B10AB9132750E049780E2001310E2900D808466070E07801283DD1B4
:20BCE000288800F00701C008105C01B1000900F00F060F2E01D3172739E06888C008115C1B
:20BD0000A868019103280AD1E98801F00700C9080028505C00D0000900F00F01009131468C
:20BD2000284600F042F8019B83421ED1A868032805D1A8880099C0F30320814215D1A078AA
:20BD4000012805D1A770A87B2670607004200DE032462146284600F083F808E0607B0E2882
:20BD600001D201306073012000E00220A060384602B0F0BD011E01D1132007E00020088039
:20BD800001228A70CA7008718A608881704728B9012A05D1072901D8534804E0032003E0B9
:20BDA0000729FBD85148405C704770B581B00446154600206E46F070A288130A7370B27019
:20BDC000A268012A0FD319D0032A19D322D16846023000231A460121FDF7DCFF024668460D
:20BDE0000330002313E06846023000231A460121FDF7D0FF024668460130F2E7C80702D40D
:20BE00006846023001E06846013000231A460121FDF7C0FF6188082907D3A268042A08D026
:20BE20000246C9082846002307E011B9A268042A05D1C908284600231A46FDF7ABFF618850
:20BE4000CB08A189C9084A1E934207D20246C81A411E581901300023FDF79CFF01B070BD43
:20BE600030B50B789A422EBFD41A02F10F04E41AE4B234B9487B0E2801D20130487305233C
:20BE80002FE00023012C24D30BD8847B0A700B714A7B4C70C47BA24214D84B730B7B03B3EA
:20BEA0000EE04D78AC4214D8857B0A70621E0A714A7B4D70C47BA24204D84B730B7B33B1D7
:20BEC000581E01E04B73007C0873032309E0062307E04B73037C0B7313B1807B0A7048708B
:20BEE00007238B6030BDC0468FD1040097D10400222000210AF008B9222001210AF004B931
:20BF000030B5B14C06F0BEFF01280AD106F00EFC642201206188FDF76AFD012506F0B2FFD0
:20BF200019E00025284602F0F8FC01280BD106F0F7FB284601F0A2FF024628462188FDF74F
:20BF400056FD012507E006F0F1FB0120FDF73DFD2846FDF73AFD042002F0DFFC03280AD1C0
:20BF6000FFF75AFAFFF74CFA032001F087FF02460320E1880EE0032002F0CFFC01280DD1F8
:20BF8000FFF732FAFFF754FA022001F077FF02460220A188FDF72BFD012509E0FFF730FAD4
:20BFA000FFF746FA0220FDF710FD0320FDF70DFD032002F0B2FC012804D0022002F0ADFC8A
:20BFC000012809D1052001F059FF024605206189FDF70DFD012502E00520FDF7F6FC012067
:20BFE00002F09BFC01460420012907D101F046FF024604202189FDF7FAFC03E0FDF7E5FC5D
:20C00000012D04D1FFF720FAFFF7D6F903E0FFF727FAFFF7DDF930BD30B50024204602F034
:20C020007CFC01283DD1204601F028FF04460020FDF757FC05460020FEF7B0FF34BB06F02E
:20C040006FFB04E006F072FB0120FDF7BEFC2046FDF7BBFC042002F060FC01283ED1FFF7AF
:20C06000DBF9FFF7CDF9032001F008FF04460320FDF737FC05460320FEF790FF684364215F
:20C08000224690FBF1F5A9B2032042E06843642190FBF1F5ADB206F049FB224629460020F6
:20C0A00018E0012002F039FC0128CBD106F038FB012001F0E3FE04460120FDF712FC0546A7
:20C0C0000120FEF76BFF68436421224690FBF1F5A9B20120FDF78BFC0124BBE7032002F004
:20C0E0001CFC012819D1FFF77FF9FFF7A1F9022001F0C4FE04460220FDF7F3FB0546022087
:20C10000FEF74CFF68436421224690FBF1F5A9B20220FDF76CFC012409E0FFF771F9FFF799
:20C1200087F90220FDF751FC0320FDF74EFC032002F0F3FB012804D0022002F0EEFB012895
:20C1400015D1052001F09AFE04460520FDF7C9FB05460520FEF722FF68436421224690FB7B
:20C16000F1F5A9B20520FDF742FC012402E00520FDF72BFC082002F0D0FB01460420012966
:20C1800013D101F07BFE04460420FDF7AAFB05460420FEF703FF68436421224690FBF1F5DB
:20C1A000A9B20420FDF723FC03E0FDF70EFC012C04D1FFF749F9FFF7FFF803E0FFF750F9C3
:20C1C000FFF706F930BDC0469C07002000B50C4A012010608F20002109F096FF90200121E8
:20C1E00009F092FF00BD0000064900200880704700B510F028FB622009F082FF00BDC046B3
:20C20000581700205C17002010B51B4C06F013F8208006F013F8608006F029F8207106F0B0
:20C2200010F8607106F010F8E08006F010F8208106F010F8A07206F010F8A08106F010F8FB
:20C2400064214843E08106F00FF84FF47A714843208206F00FF8A07406F010F8606106F04F
:20C2600011F8A06110BD000000000000FFF7CCBF000000207047C0466417002070B504467F
:20C280000120220005D1152004232146FEF7A6FF2046CE4D29680239012906D81520062375
:20C2A00000221146FEF79CFF28E0012826D120466860002108E00C2201FB02520126234608
:20C2C000443258C2013189B2028800249142F2D3AC822C61EC60AC602C83EC610220286260
:20C2E00015F12400042109F0CAFA85F83A402C872C64EC63142068630320286070BD70471B
:20C30000F0B581B00D4617461E46B04C0123009300F073F9216829B9152001230222FEF747
:20C320005DFF37E027B91520042302223946F6E74FF6FF72904203D1152002231A4611E0C7
:20C3400062685268062300FB03225288954202D31520032305E016B17319934204DD15200C
:20C36000052302220021DAE702290DD003290BD02083E562266367620120E061022020623E
:20C3800020600022009205E01520062302220021FEF726FF009801B0F0BD70B50E468B4D80
:20C3A000012400F02AF9296829B9152023460322FEF714FF20E026B9152004230322314630
:20C3C000F6E74FF6FF72904204D11520022303220021EDE7022909D0032907D02883AE62ED
:20C3E0000220E86128622860002405E01520062303220021FEF7F4FE204670BD734908686D
:20C4000028B91520012304220021FEF7E7BE70476E490868704710B56C48016831B901247B
:20C42000152023460622FEF7D9FE00E0046A204610BD70B5654D002400F0DFF8064628684B
:20C4400030B91520012307222146FEF7C7FE01244FF6FF70864206D1152002230722002134
:20C46000FEF7BCFE012428680238012807D81520062307220021FEF7B3FE012406E02CB9D8
:20C480002E830320E861022028622860204670BD70B54E4D002400F0B0F80646286830B977
:20C4A0000922152001232146FEF798FE01244FF6FF70864206D068684068062106FB0100EE
:20C4C000007930B90922152002230021FEF786FE012428680238012807D80922152006235B
:20C4E0000021FEF77DFE012406E02CB92E830420E861022028622860204670BD10B5334C92
:20C50000206888B3206A02282ED1E06904280ADD0AF0FEFA022827D010B900F028F823E05A
:20C5200000F03BF820E0042813D801A1D1E800F00306090C0F0000F08FF80AE000F0D7F829
:20C5400007E000F0F5F804E000F010F901E000F033F9206A022807D020B12068032801D15C
:20C56000002000E00120206010BD7047704710B5164CE069142803D10020206201200AE0B2
:20C5800000F072F820620028F8D0022804D020680328F3D10020206010BD10B50B4C206A47
:20C5A000032829D0E069052826D308281CD307D00A2819D313D00D2802D30CD014281BD8DC
:20C5C0000AF0A6FA20622068033801E09017002018BF01200FE0002000F01DFC02E00020C2
:20C5E00000F0D6FA206207E0E0686030A0600AF08FFA20620120206010BDF0B5D14B1D6881
:20C60000014628880022441E4FF6FF70A24210DCA31A13EBD37312EB630306265E436F6813
:20C62000F65B8E4202D303D95C1EEFE75A1CEDE798B2F0BD30B5C44D687BC4490224202249
:20C6400051F8300015F16C010AF065FA00B101240A206861204630BD10B5BB4C00206073BA
:20C66000FFF7E8FFA06110BD00B5B94A5168481F0E283AD801A1D1E800F0C046090C0F1268
:20C6800015181C1F2226292C2F32350000F034FA2CE000F05AFA29E000F06FFA26E000F039
:20C6A00096F823E000F09EF820E0012000F070FA1CE000F0CBFA19E000F090FB16E00120AC
:20C6C00000F0A9FB12E000F0FCF80FE000F018F90CE000F0CBF909E000F0F9F906E000F0BF
:20C6E000DEF903E000F05CF900E0012000BD10B5974C208814F12C020C2141430819406B7D
:20C7000048B95358A269E1686069C0180AF003FA48B9022008E0012801D1052004E0022848
:20C7200001D1042000E00120A0601420606010BD10B5844C2068A18A4068062201FB02002B
:20C740000079012809D10C2202FB0141896C022901D100F0D1F9E06107E000F05EF8E06195
:20C76000A0690E2801D00520A06110BDF0B5784C208814F12C060C2101FB0040406B012831
:20C7800002D11420002114E014F15C075521384600F00AFB2088012510220C2303FB00609F
:20C7A0004068394610300AF093F900B9022529460820A1606060F0BD10B5654C00F02DF81C
:20C7C000A06060680E2801D00920606010BD604801880C2202FB010101224A6314214160D0
:20C7E0000020704730B55748838A32C84968062203FB021149880C38621A426015F1300183
:20C800000C2404FB0303816002254033B1F1200434C314218161002030BD70B581B0494D9B
:20C8200019CD29894068062202FB010041880C3D1A46141B11F16003A34203D900F015F8CE
:20C8400004460FE015F170060096521A0379008800F039FB022410223146A8680AF038F9EF
:20C8600000B10124204601B070BD37484269C2620022028610F12C01007B013088718879D2
:20C88000022801D110468A71304BC0001A58C01840681018C86020328A6000F000B830B505
:20C8A0002B4D2A4A95F82210C90050588918012449680AF0F3F800B902240E2068602046C5
:20C8C00030BDF0B5204C14F11005A81D007F1F49C00015F15C070E5840184268A0683B467A
:20C8E0003146013000F0CEF901241022394630460AF0EEF800B902240F2068602046F0BDC4
:20C90000F0B582B00F4C00252B46A08E0FE00C2300FB03434E689D6C062300FB03631B79E5
:20C920004DB1012B01D1022D05D0013080B221680A889042EBD3A08690420BD100F07CF8B1
:20C9400007462AE09417002098170020A8D10400A81700204F6806214843E26BC119498829
:20C96000521A019214F170060096385A00F0ABFA022710223146A06B0AF0AAF800B101272E
:20C980000DB9102003E0A08E0130A0860F20A061A06B01993030A063E163384602B0F0BDE0
:20C9A000F0B583B0DF4890F83660DF4B10F11404F1005A58C918496853182032002121E003
:20C9C00001B46D68062701FB07573D7903950C2501FB0505A86C40350028019001BC09D0E9
:20C9E00001B40198022801BC0AD101B40398012801BC05D17F88DB1B3032B2F1200788C5A5
:20CA0000013189B205682F88B942D9D3C16806744D1C1946043026C0E0696060022803D152
:20CA2000FFF786FEA06805E0042802D1FFF7C4FEF8E7012003B0F0BDF0B5BC4D95F82260BB
:20CA4000B94915F15C07384651F83660AA2100F0ABF901241022394616F110000AF038F898
:20CA600000B90224132068602046F0BD30B5AD4D2968A88E4968062200FB02114A88022444
:20CA800015F170010C23584315F14003C0580AF042F800B101241120A861204630BD70B538
:20CAA000A24D15F15C06AA21304600F07DF9686A02241022314620380AF00AF800B10124AD
:20CAC000288C013028840F206860204670BD30B5944D2868A98E4068062202FB01000124BB
:20CAE00015F170014288E86B09F0F2FF00B902241220A861204630BDF0B58A4A8B4D116881
:20CB00002B884968062203FB02114A880979884871B9884E3468A41A71683460303171605B
:20CB20000C2603FB06060227B760B1F1200790C601240C2673432969185809F0C9FF00B9D1
:20CB40000224062068602046F0BD70B5774D15F15C06AA21304600F027F928880124102205
:20CB60000C2303FB00503146006B09F0B1FF00B9022407206860204670BD6C4801880C22E1
:20CB800002FB010100224A63142141601046704730B583B0674C012819D114F16C0302AAE6
:20CBA00001A9684600F0A1F888B95F4A607B019BC1005558AB420AD18918029A49688A4243
:20CBC00005D10099A268914201D9A1602073607B01306073607B022802D100F005F801E016
:20CBE000FFF728FD03B030BD10B55249886810B900F01EF80CE04C4C087BC000235813F115
:20CC00002002001940684A601818086000F001F810BD30B5474D0224302215F16C01686805
:20CC200009F079FF00B101240D206861204630BD10B53D4901240868496809F02FFF00B9F3
:20CC400002243A490B204860204610BDF0B5374D354806C815F15C0633460F46012000F06A
:20CC600011F8AA2116F1100000F09EF8012420223146384609F02CFF00B902240C206860F0
:20CC80002046F0BDF0B581B013F120060C18151900950024E50030FA05F71F550134042C92
:20CCA000F8D304330020C40031FA04F51D5401300428F8D304330020C10032FA01F119542E
:20CCC00001300428F8D304330020009CC100CC401C5401300428F8D3043302E0FF20187014
:20CCE0000133B342FAD301B0F0BDF0B583B002900126019600246D46EC7013F11004002746
:20CD000007603D461846435DEE00B3401F43029B0135042D1F60F6D3043000270F603D464F
:20CD2000435D09E094170020A8D10400A8170020D417002098170020EE00B3401F430F60B7
:20CD40000135042DECD30430002515602E46835DF700BB401D4315600136042EF7D304305D
:20CD600000273A46835CD600B3401F430132042AF8D3029A09681268043089186918B942FE
:20CD80000FD1214600F03BF858B96A460332AA21204600F012F820B96946C978012900D144
:20CDA0000190019803B0F0BD10F1100200E0FF21017001309042FAD370470378994201D0B7
:20CDC000FF2B09D199420CBF01210021117010F11001013000F013B8012070479248934B57
:20CDE0000021017301211A68816012F120014160596889180160142141610020704702469B
:20CE0000002005E01378FF2B01D0012002E001328A42F7D37047F0B586B0854D07460DF10C
:20CE2000070303AA15F170000090911E101F00F085F806462C1D032800D05FB9297CA8688D
:20CE40007A4BC9003030CA18595852685218904232D301E0042803D11420A861002030E008
:20CE6000BDF80800FFF7C9FB4FF6FF71884223D0039ABDF80A7023682146DB1B9A421BD846
:20CE8000646814F160039A4216D301B4062358432B685B68C3185888B84201BC0CD101AFCB
:20CEA0001B79FF78BB4207D10C2303FB0050403014F110034CC00A60A8683030A860FFF7A9
:20CEC000A8FE06B0F0BDF0B581B0069C009014F130060D185519012B06BFED1845F0004503
:20CEE00025F0004500230098DF003841E0540133022BF8D302340023DF0051FA07F0E054B7
:20CF00000133022BF8D302340021CB0032FA03F0605401310429F8D304340021CA0035FA74
:20CF200002F3635401310429F8D3043402E0FF2121700134B442FAD301B0F0BDF0B585B020
:20CF40000D4602A90DC100216A460A9E5180304616F13001FFF753FF08B9042461E0029801
:20CF6000032416F11007002211460280705CCB00984002430298013102290280F6D3023643
:20CF800000210B462980F05CDA00904080B2014329800133022BF6D30398023600221546E7
:20CFA0000260705DEB009840024303980135042D0260F6D3043600231D4602B4715DE800E1
:20CFC00011FA00F003430135042D02BCF5D3029D2D88043649195118DD0FED0701D00125F3
:20CFE000013104985940490005701AD139463046FFF705FFA8B96A460232AA213846FFF7AE
:20D00000DCFE70B96A460332552117F11000FFF7D4FE30B968468178012901D1C47804B155
:20D020000124204605B0F0BD98170020A8D104009417002070B50446C5B2284600F01EFF8B
:20D040000646062001F065F87043642190FBF1F6F6B2284600F00EFF324601462046FCF73B
:20D06000C6FC70BDFCF7B1BC30B5062004F0E4FA0546002455FA04F0C00724D5062000F0FC
:20D08000A9FE0128204611D1FFF7D4FF2046FCF770FB062188B1022000F0BEFD012000F0AD
:20D0A00011FE2046022101F0BAF80CE0FFF7DAFF0621002000F0B0FD05E0012000F0ACFDF7
:20D0C000002000F0FFFD0134062CD3DB30BD70B50446C5B2284600F0D1FE0646082001F0CA
:20D0E00018F87043642190FBF1F6F6B2284600F0C1FE324601462046FCF779FC70BDFCF704
:20D1000064BC30B5082004F097FA0546002455FA04F0C00724D5082000F05CFE01282046EA
:20D1200011D1FFF7D4FF2046FCF723FB082188B1022000F071FD012000F0D0FD2046022184
:20D1400001F06DF80CE0FFF7DAFF0821002000F063FD05E0012000F05FFD002000F0BEFD08
:20D160000134062CD3DB30BD0818904288BF104670478B1883428CBF1046401A704770B528
:20D180000025435F2C461A460AE06600365EAD19B242B8BF3246B342C8BF33460134E4B2A9
:20D1A0008C42F2D3A81AC01A023990FBF1F108B270BD70B50025EA432E462B460AE050F823
:20D1C00023403619A54238BF2546A24288BF22460133DBB28B42F2D3701B801A0239B0FB63
:20D1E000F1F188B270BD00B112B97FF0000006E0002301E0C15401339342FBD3002070474E
:20D2000002464FF6FF70831A8B4201DD881880B27047024600208A4201D9501A80B27047E0
:20D2200070B50446C5B2284600F028FE0646092000F06FFF7043642190FBF1F6F6B22846F1
:20D2400000F018FE324601462046FCF7D0FB70BDFCF7BBBB30B5092004F0EEF905460024F7
:20D2600055FA04F0C0070AD5092000F0B3FD0128204602D1FFF7D4FF01E0FFF7E9FF0134DD
:20D28000062CEDDB30BD000070B50446C5B2284600F0F4FD0646012000F03BFF70436421A3
:20D2A00090FBF1F6F6B2284600F0E4FD324601462046FCF79CFB70BDFCF787BBF0B500F06F
:20D2C00076FD012803D000F077FD012818D10146002000F0A1FC012004F0AEF90646002449
:20D2E00056FA04F0C00707D5204600F094FF012802D12046FFF7E0FF0134062CF0DB5CE0B9
:20D30000012004F099F90646002456FA04F0C00750D52A4D012000F05DFD01281ED128782C
:20D3200048B9204600F077FF10B92046FCF776FB2046FFF7A9FF2046FCF71BFA30BB2046CA
:20D3400002F093FB0746204602F0BBFB384310D00121022000F060FC012014E0002028703A
:20D360002046FFF7A9FF00206870012100F054FC20E0012000F0C3FC022819D001210846FC
:20D3800000F04AFC002000F085FC11E0697801290ED1022000F040FC012000F07BFC2046AF
:20D3A000022100F03CFF2046FFF786FF01202870012068700134062CA7DBF0BD081D0020B1
:20D3C000C84A0146106805E0437801228A401A4002D180690028F7D1704730B584B00C46C7
:20D3E0000546FFF7EDFF08B9012010E00295002103AA118002210091111F0191C1686846EB
:20D400008847C0B2002804BFBDF80C10218004B030BD10B584B00C46029000218DF80C102E
:20D42000FFF7CEFF08B901200CE00321009102A90191C16868468847C0B2002804BF9DF8D1
:20D440000C10217004B010BD30B50C460546FFF7B7FF08B9012004E0A34951F825002060D0
:20D46000002030BD70B584B00E460546FFF7A8FF08B9012013E09C4C54F82510B14201D107
:20D4800000200CE00121009101AA02A962C2016968468847C0B2002808BF44F8256004B096
:20D4A00070BDF0B584B08F4D00262C680DE0616951B120786A46907004200290901C0390DA
:20D4C000063088470643F6B2A469002CEFD100F011F908B90126BCE0291D51F82400002804
:20D4E00000F0B380694603312046FFF792FF002840F0AB802F46012C48D080F0A6806846B8
:20D50000C07881070C370029687B09D50A220121FFF72AFE7870787801210A280BD307E0C1
:20D520000A210022FFF725FE78707878002110B90020FEF79EFA6846C078C107387809D5DA
:20D540000A220121FFF710FE3870387801210A280BD307E00A210022FFF70BFE3870387864
:20D56000002110B90120FEF784FA6846C0784107022301930029B8785AD50A220121FFF77A
:20D58000F3FDB870B87801210A284FE00120FEF765F90C37D4EB8401CF190228787809D1E9
:20D5A0000A220121FFF7E0FD7870787801210A280CD307E00A210022FFF7DBFD7870787865
:20D5C000002118B9D4EB8400FEF753FA0120FEF745F901460129387808D10A22FFF7C4FDA3
:20D5E0003870387801210A280DD307E00A210022FFF7BFFD38703878002120B9D4EB840024
:20D600000130FEF736FA0120FEF728F90146D4EB8402931C01930429B8780BD164220121CD
:20D62000FFF7A2FDB870B878012164280DD309E0142100E00A210022FFF79BFDB870B8783E
:20D64000002110B90198FEF714FA0134022CFFF443AF304604B0F0BD244901280AD018D2CB
:20D6600048780A280FD20B780A2B0CD28A780A2A09D20AE008790A2805D2CB780A2B02D270
:20D680004A790A2A01D3012002E01843104300D188718879704730B583B012480024056889
:20D6A0000AE0002069680190684603300290013088470443E4B2AD69002DF2D1204603B08F
:20D6C00030BD08490A6812B9086004E00A4691690029FBD1906100218161084670470449FE
:20D6E000087070470C1D0020101D0020181D00201F1D0020014908787047C0461F1D0020D1
:20D7000010B5D34C0D2003F097FF10F0400012D001206060002004F00CFC2070002004F0AC
:20D720000FFC21786070CA2901D9CA212170412804D2412001E06060207060700E2003F06A
:20D740007BFF10F0800012D00220A060012004F0F0FBA070012004F0F3FBA178E070CA295C
:20D7600001D9CA21A170412804D2412001E0A060A070E070002010BD10B582B0684604F06C
:20D7800062FF040007D12246B24BDDE9000107F0A8FCB14A03C2204602B010BD10B581B0EA
:20D7A000AD4C0020694648802069800707D502310020FFF712FE20B96846408800E0002045
:20D7C00020812069000708D5694602310120FFF704FE20B96846408800E0002060810020F0
:20D7E00001B010BD10B59C4CFEF74AF9A081FEF747F9E081002010BD10B581B0694600205D
:20D80000FFF722FE954C0099206861F34100206069460120FFF718FE009A2168002062F367
:20D82000C301216001B010BDF0B585B0884C61680290002501296FD1E169C90763D5A66A2B
:20D84000012E46D80227E0682169039060780491009007F0CCFA02000B000398049907F0F7
:20D860004AFE22DB20780327019007F0C0FA02000B000398049907F03EFE16DC01980A381A
:20D8800007F0B8FA02000B000398049907F033FE0CDC009801270A3007F0ACFA02000B00E6
:20D8A0000398049907F027FE00DB2762216A01290FD307D003290CD829462846FFF7D2FD90
:20D8C000012604E001212846FFF7CCFD2E46C5B2A6620EB1022E1FD141F288320020218E60
:20D8E000A062914203D202980918218614E0618B490711D00146FFF7B5FD0543EDB2042110
:20D900002162032107E029462846FFF7ABFD0546002121862162A162284605B0F0BDF0B5F0
:20D9200084B04B4CA1680190002500297BD0FFF7E1FE00B90125A168022974D1E169490722
:20D9400067D5E16A012943D80226E0682169E77802900391384607F04AFA02000B0002981C
:20D96000039907F0C8FD22DBA0780326009007F03EFA02000B000298039907F0BCFD16DC6D
:20D9800000980A3807F036FA02000B000298039907F0B1FD0CDC012617F10A0007F02AFA62
:20D9A00002000B000298039907F0A5FD00DB6662616A012904D10846FFF754FD002104E084
:20D9C00000210120FFF74EFD01210543EDB2E16209B1022927D1218B00228906490F00D016
:20D9E0000222E26241F28832618E914203D201980918618617E0618B8906490F13D00021CC
:20DA00000120FFF72FFD0543EDB204216162032108E000210120FFF725FD0543EDB2002186
:20DA200061866162E162284604B0F0BD10B50A4C0022084B03CC07F037FA10BD064901285E
:20DA400002D303D0002002E0088900E048897047201D0020000024402C1D00203C1D002080
:20DA60002049012802D305D0002006E00869C0F3400002E00869C0F3C0007047194A0128F7
:20DA800004D307D1106961F3820002E0106961F30000106170471349012802D303D0002064
:20DAA00002E0C86900E0086A70470E480021C1607047FFF725BE10B50B490446486808B94E
:20DAC000886868B1FFF758FEFFF768FEFFF78AFEFFF792FE2046FFF7A7FE2046FFF71FFF16
:20DAE00010BDC0462C1D0020201D002070B50446C5B2284600F0C2F96421484390FBF1F60C
:20DB0000F6B2284600F0B6F9324601462046FBF76EFF70BDFBF759BF30B581B000F047F94F
:20DB2000012803D000F048F9012804D10021084600F072F86AE0002003F07EFDC00765D01D
:20DB4000684605F07FFB0099480708D0012000F06AFB0020FFF7CAFF00210220E8E7400F32
:20DB600002D1014600F058F82A4C002000F032F901281CD1207838B900F04DFB08B9FBF710
:20DB80004DFF0020FFF7B2FF002001F06EFF05460020FBF7EEFD20BBFEF76BFB78B100212C
:20DBA000022000F039F8012000F06EF827E000202070FFF7AFFF002060700146B8E72DB19C
:20DBC0000146022000F028F8012007E000F097F8010019D1012000F01FF8284600F054F888
:20DBE00012E0607801280FD10021022000F014F8012000F049F80221002000F010FB012062
:20DC000020700020FFF786FF01206070002001B030BDC046541D00200246C44B08460A29BB
:20DC200031D801A1D1E800F0060B0F13171B1F2F23272B00186862F30100186023E0196896
:20DC400062F387111EE0196862F309211AE0196862F3051116E0196862F3830112E0196830
:20DC600062F38B210EE0196862F311410AE0196862F30D3106E0196862F38F3102E01968B0
:20DC800062F3934119607047A9490A7860F300020A707047A6490A7860F341020A707047F9
:20DCA000A3490A7860F382020A707047A04B1A7860F3C3021A7070479D4B1A7860F3041235
:20DCC0001A7070479A4B1A7860F345121A707047974B1A7860F3C7121A707047944B1A784F
:20DCE00060F386121A707047924B61F35F0062F39F008422D15860F38811D15070470022BF
:20DD00008A4B09282AD801A1D1E800F005090D1115191D282125186800F003021EE01868D8
:20DD2000C0F381121AE01868C0F3012216E01868C0F3011212E01868C0F381020EE01868FB
:20DD4000C0F381220AE01868C0F3014206E01868C0F3013202E01868C0F3813210467047EC
:20DD60007349087800F00100704771490878C0F3400070476E490878C0F3800070476C4905
:20DD80000878C0F3C000704769490878C0F34010704767490878C0F3001070476449087816
:20DDA000C0F38010704762490878C009704762494868C0F3801070475F494868C0F3C0108E
:20DDC00070475D49487900F00100704758490020087070475949405C704770B500242546E4
:20DDE000574E284603F028FC71880143718001350C2DF5DB254671880120A84008402FD0D8
:20DE000050490878022810D098B92846FBF763FD04464FF6FF7084420BD12846FBF755FD7C
:20DE2000044640F6FF70844203D12846FBF759FD04462846FDF7B2F808B9044606E06428D0
:20DE400004D260436421B0FBF1F4A4B216EB8500848004306421642C3ABF847001808170AC
:20DE60000135062DC7DB70BD00B5FDF7A1F8FFF7B4FF00BD34498000405A7047324911EBFD
:20DE8000800080787047F0B581B00024294E204604F0ADF86700B853204604F0D0F8BA197C
:20DEA00015461083204604F083F92A461086204604F09FF9483601340B2CB853E6DD01B03D
:20DEC000F0BD30B5214D15F16404A07800286BD1E078002868D12079002865D1207B0028E5
:20DEE00062D1607900285FD1E07900285CD1E07A002859D1207858BB607848BBA07938BBD2
:20DF0000207A28BB607A18BBA07A08BB00F064FD01283ED104F0B9F901283AD1002211461E
:20DF200045E000F045FD01282CD115E0F01D0020101E00205C1D0020DC1D0020E21D002023
:20DF4000F41D002046810700F81D0020581D002000F02EFD012803D102460021084626E023
:20DF60006078012820D0207801281DD0A07901281AD0207A012817D0607A012814D0A07A2B
:20DF8000012811D0002211461046FFF7ADFE002010E000F017FD0128C3D104F076F90128AA
:20DFA000BFD10022014601E0002211461046FFF79BFE012028706078012805D000F002FDAB
:20DFC00020B900F009FD08B906F0E7FC30BDF0B583B04FF6FF7102900A1A92B201920024AD
:20DFE000924F019817F16C066200915B814202D8029809189153204600F08FFC17F1600555
:20E00000295D884204D0610000228A53C237CA53204600F082FC285501340C2CE0DB0B20C2
:20E0200000F07BFCE8720C2000F077FC2873684605F008F903B0F0BDF0B584B00390002263
:20E040007A4D7B4815F16007BB5C811C33B315F16C065300F65A5B5B9E421FD32B460B2AE6
:20E0600002D19133FE7A02E09B18863301261E7011F10C0650004419248E835B0094A342C4
:20E080000AD201B404981B1801BC8353835B6420434393FBF4F300E064238B5401320B2A82
:20E0A000CEDD0022BB5C13BB15F16C035000C618431936881B8B9E4219D311F10C0615F165
:20E0C0004804835B005B83420DD201B4049854001B18A353A35B6426734301BC93FBF0F3DD
:20E0E000F31A8B5403E015F186030020985401320B2AD7DD397B9235297004B0F0BD10B560
:20E100000446FFF764FFFFF7DCFE2046FFF794FF10BD4849085C704747494869704700B577
:20E1200006F06FFDFFF7CAF8FFF7F6FC05F09BFC04F08CF9FDF70EFAFEF7E3FFFEF794FF7D
:20E14000FFF788F801F034F8FBF746FD05F0B7FBFAF789FAFFF72BFE60BBFFF72DFE48BB7E
:20E16000012000F058F838B900F055F820B9FBF72CFC0120FBF729FC012000F04CF830B1AF
:20E18000002000F048F810B904F0CAFA01E004F0CDFAFFF716FE68B9022000F03CF848B9A0
:20E1A000032000F038F828B90220FBF70EFC0320FBF70BFC00BD30B5054603F02CFA0400F7
:20E1C00008D12046FBF701FC0134062CF9DBFDF7FFF81EE02846FFF747FE18490878022839
:20E1E00002D1FDF719FF14E015490878012803D1FDF7E2F8FDF7F8FF04F096FE012802D134
:20E20000FDF77EFE05E02846FFF779FF2846FFF786FF002030BD0B4951F820007047094A10
:20E2200042F8201070470649087070475C1D0020101E0020121E0020DC1D00204681070021
:20E24000581D0020381E002010B52F4C606000F05FF80120206010BD00B504F097F804F0D2
:20E2600098F82A48FFF7F0FF00BD000000B500F024F800F072F800BD000000F03CB810B579
:20E280000C4600F029F8214600F0A2F810BD10B50C4600F021F8214600F003F910BD00B568
:20E2A00000F01AF800F028F900BD10B50C4600F013F8214600F056F910BD134A13680146EA
:20E2C0000120012B07D1526892680020243212788A4200D0184670470B4A1368014601207C
:20E2E000012B07D152689268126A127800208A4200D01846704700B5002000F058F9002059
:20E3000000F0B3FC00BDC046541E0020A807002010B5C54C002000F0D4F9C44B186881680F
:20E320004A6932B9012222610A88007892FBF0F002E0032020610020A081088D021900208B
:20E3400007E0CC6A142300FB03431B791354013080B2CB8C9842F4D310BDF0B51421B44A2D
:20E360003425B24E454300FB0124306880682818006AA368AF4A032B4178007807D1637C58
:20E38000012B17D11C2303FB0121496916E0012B01D1002715E01C2303FB012109698847A8
:20E3A0000127306880682818C26924300021007890470AE01C2303FB012109698847071ED7
:20E3C000EFD1002060740120A0743846F0BD0000F0B583B00F469549064608688068342422
:20E3E0007443914A2018018D01948C18142106FB012501210091A97E02940835012910D178
:20E40000C269243000789047884B0120A8601968019B88680978C25A181892FBF1F1A980C0
:20E4200002E0A968012939D10021C46A26E0029B3A785B5C93421ED1A068062809D0092856
:20E440000DD00B2821D13A462146304600F0F4F80AE03A462146304600F0C4F804E03A462A
:20E460002146304600F0D0F8C1B2009169B90120E8602C6009E01434013189B2C28C91422D
:20E48000D5D30220B86000230093684B1968019A88680978805A90FBF1F0A880009803B0EB
:20E4A000F0BD30B50A4662490546142005FB0014E06801281DD12168C8680068C8B9A06833
:20E4C000012816D18868062805D00B2807D1284600F0D3F803E01146284600F0B8F8534B1F
:20E4E00018683421694382680078895A91FBF0F0A08030BDFBF7E6BA30B581B04C49044656
:20E50000142004FB0015E8680128296828D1C8680068012824D18868042803D0092809D001
:20E520000B2813D12046002100F0D5F82046FFF7E1FF08E069460331204600F06DFB68460D
:20E54000C078012802D1204600F0BBF8374B18683421614382680078895A91FBF0F0A880AA
:20E5600001B030BD30B505461420314A684314181BD02068C8B1C068E268012A00680AD17B
:20E58000012908D3032902D9052904D118B92846114600F0A0F8254B186834216943826873
:20E5A0000078895A91FBF0F0A08030BD000030B51F4A1421054600FB012400F079F8E07CDC
:20E5C00001280ED1194B0320A0600020E07418688068342105FB01008268243001210078A2
:20E5E000904730BD30B51546114A0C46142100FB0121C968012901D100F063F821462846CB
:20E6000000F043F8002030BD70B5064615460124104600F03AF82946304600F0D6FAA968A3
:20E6200001B90C46204670BD5C1E0020581E0020641E0020ACD2040030B505461446104607
:20E6400000F023F821462846FBF7FEF930BD10B50446087850B9254B18688068342104FB40
:20E6600001010A6991F82400904705E0204600F05CFA204600F025F810BD10B50446FBF7CF
:20E68000F6F9204600F01DF810BD4A7902730A68C968013A18BF012242600968012902D331
:20E6A00003D0022102E0012100E0002181607047142148430E4908188188013900D3818079
:20E6C0007047142148430A49081800210160C16041744182704714225043054A10180174C9
:20E6E00010F1100100680079FBF7EEB9581E0020641E0020F0B587B0D2490C78FFF70CFDDC
:20E700000090FDF774F90546FDF79AF9074600263046FBF72EF803A9044388550136062EFA
:20E72000F6D3FDF7DCF90646009905988A0A62F3010030F00C00C1F3012250EA820030F0FC
:20E740003000C1F3014250EA021030F0C000C1F3011250EA821030F44070C1F3810250EA8E
:20E76000022030F44060C1F3811250EA822061F30D3030F48040C1F3803250EA8230059034
:20E780000698C1F3814130F4403050EA0140AE490A7862F3D7500690AC480078022811D153
:20E7A000FCF703FC8DF81600F9F7C0FF8DF8170002F037FF8DF818000120FAF75FFE8DF8C8
:20E7C00019009AE0002840F09880C5F38000C5F3C001084307F001010843C5F30011C5F375
:20E7E00040121143C5F34002C5F3C01350EA4100810005F001001043C5F3402251EA400113
:20E80000C5F3002010434200C5F380101843104351EA0012059962F316410591FFF7A0FAD8
:20E82000059A60F3D7520592FFF79FFA059A60F318620592FFF79EFA059A60F359620592C2
:20E84000FFF79DFA059A60F39A620592FFF7A1FA059A60F3DB620592FFF796FA059960F3D8
:20E860001C7131F000510591FFF798FA059A60F39E720592FFF797FA059960F3DF7106987C
:20E88000059130F0010006900020FEF7E5FE069960F341010691FCF7B0F90699C4F3400234
:20E8A00060F3820104F00100104331F0080151EAC001069100F0C0FC0699E20860F30411E0
:20E8C00052EA9400B30853EA56033343C6F30012C6F340142243C6F3C006324352EA4302EF
:20E8E00060F39F0262F347110691FCF786F9069960F3082131F47E4106910598069901900B
:20E90000029101A903C903F063FF07B0F0BD00B5FFF7F0FE00F074F800BD00B590B0014647
