:2000000000FE002001040000ED050100B5770000F1050100F5050100F905010000000000AD
:200020000000000000000000000000000B060100FD05010000000000010601000506010097
:20004000070601000706010007060100070601000706010007060100070601000706010030
:20006000070601000706010007060100070601000706010007060100070601000706010010
:200080000706010007060100070601000706010007060100070601000706010007060100F0
:2000A0000706010007060100070601000706010007060100070601000706010007060100D0
:2000C0000706010007060100070601000706010007060100070601000706010007060100B0
:2000E000070601000706010007060100070601000706010007060100070601000706010090
:2001000007060100070601000706010007060100070601000706010007060100070601006F
:2001200007060100070601000706010007060100070601000706010007060100070601004F
:2001400007060100070601000706010007060100070601000706010007060100070601002F
:2001600007060100070601000706010007060100070601000706010007060100070601000F
:200180000706010007060100070601000706010007060100070601000706010007060100EF
:2001A0000706010007060100070601000706010007060100070601000706010007060100CF
:2001C0000706010007060100070601000706010007060100070601000706010007060100AF
:2001E00007060100070601000706010007060100070601000706010007060100070601008F
:2002000007060100070601000706010007060100070601000706010007060100070601006E
:2002200007060100070601000706010007060100070601000706010007060100070601004E
:2002400007060100070601000706010007060100070601000706010007060100070601002E
:2002600007060100070601000706010007060100070601000706010007060100070601000E
:200280000706010007060100070601000706010007060100070601000706010007060100EE
:2002A0000706010007060100070601000706010007060100070601000706010007060100CE
:2002C0000706010007060100070601000706010007060100070601000706010007060100AE
:2002E00007060100070601000706010007060100070601000706010007060100070601008E
:2003000007060100070601000706010007060100070601000706010007060100070601006D
:2003200007060100070601000706010007060100070601000706010007060100070601004D
:2003400007060100070601000706010007060100070601000706010007060100070601002D
:200360000706010007060100070601000706010007060100FFFFFFFFFFFFFFFFFFFFFFFF43
:20038000FFFFFFFFFFFFFFFFFFFFFFFFFFFFFFFFFFFFFFFFFFFFFFFFFFFFFFFFFFFFFFFF7D
:2003A000FFFFFFFFFFFFFFFFFFFFFFFFFFFFFFFFFFFFFFFFFFFFFFFFFFFFFFFFFFFFFFFF5D
:2003C000FFFFFFFFFFFFFFFFFFFFFFFFFFFFFFFFFFFFFFFFFFFFFFFFFFFFFFFFFFFFFFFF3D
:2003E000FFFFFFFFFFFFFFFFFFFFFFFFFFFFFFFFFFFFFFFFFFFFFFFFFFFFFFFFFFFFFFFF1D
:2004000072B6002000210022002300240025002600271F481F4901601F4880F30888FFE718
:200420001E4801680F22120511430160BFF34F8FBFF36F8FFFE71A48002809D019491A4AA1
:20044000521A013A04DD0020002309C1083AFCDAFFE7134800280BD0144802C8013907DB69
:2004600038C82A1BFAD040CC40C3043AFBDCF5E7FFE70F4802C8013907DB18C8E21AFAD0A4
:20048000002520C3043AFCDCF5E762B608F096FE08ED00E00000002000FE002088ED00E056
:2004A000010000000000002000FE0020E8C901001CCA01007820704770B405460C462A46E4
:2004C000002C0BD955B105E0134601324FF0000C83F800C0002CA4F10104F5D170BC7047A0
:2004E0002DE9F00404460D461646002E0CD95CB155B12F46A446002304E017F803A00CF8B7
:2005000003A00133B342F8D3BDE8F00470472DE9F04D83B005460E4694464FF0000ABCF1FF
:20052000800304D0403B05D0402B06D008E00A232B6006E00C232B6003E00E232B6000E014
:2005400000BF05F108036B6000241FE04FEA840B06EB0B0E0EF1010E9EF800E016F80B700E
:2005600047EA0E2706EB0B0E0EF1020E9EF800E047EA0E4706EB0B0E0EF1030E9EF800E070
:2005800047EA0E6743F80B70671CBCB2B4EB6C1FDCDB2F680A3F05D0023F49D0022F00F0FD
:2005A000998014E1002440E045F64078C0F20108D3F800B058F8247087EA0B07D3F80CB0D2
:2005C00045F66878C0F20108CBF3072B18F80BB08BEA0707D3F80CB0CBF3074B18F80BB0A5
:2005E00087EA0B27D3F80CB04FEA1B6B18F80BB087EA0B4B1F7B18F807708BEA07671F61FC
:200600001F69D3F804B087EA0B075F615F69D3F808B087EA0B079F619F69D3F80CB087EAC2
:200620000B07DF61671CBCB210330A2CBCD3CEE000244CE045F64078C0F20108D3F800B048
:2006400058F8247087EA0B07D3F814B045F66878C0F20108CBF3072B18F80BB08BEA070790
:20066000D3F814B0CBF3074B18F80BB087EA0B27D3F814B04FEA1B6B18F80BB087EA0B4B8D
:200680001F7D18F807708BEA07679F619F69D3F804B087EA0B07DF61DF69D3F808B087EACE
:2006A0000B071F621F6AD3F80CB087EA0B075F625F6AD3F810B087EA0B079F629F6AD3F8A7
:2006C00014B087EA0B07DF62671CBCB21833082CB0D37CE0002477E045F64078C0F201081A
:2006E000D3F800B058F8247087EA0B07D3F81CB045F66878C0F20108CBF3072B18F80BB0F0
:200700008BEA0707D3F81CB0CBF3074B18F80BB087EA0B27D3F81CB04FEA1B6B18F80BB020
:2007200087EA0B4B1F7F18F807708BEA07671F621F6AD3F804B087EA0B075F625F6AD3F889
:2007400008B087EA0B079F629F6AD3F80CB087EA0B07DF6293F82C7045F66878C0F201080C
:20076000D3F810B018F8077087EA0B07D3F82CB0CBF3072B18F80BB087EA0B27D3F82CB038
:20078000CBF3074B18F80BB087EA0B47D3F82CB04FEA1B6B18F80BB087EA0B671F631F6B9B
:2007A000D3F814B087EA0B075F635F6BD3F818B087EA0B079F639F6BD3F81CB087EA0B075F
:2007C000DF63671CBCB22033072C85D300BF5746384603B0BDE8F08D2DE9F04D8BB007467E
:2007E0000C4615464FF0000A7B68009394F802C02388C3EA0C4394F803C043EA0C63019319
:20080000009E331D0093019B36687340019394F806C0A388C3EA0C4394F807C043EA0C636E
:200820000293009E331D0093029B36687340029394F80AC02389C3EA0C4394F80BC043EA9D
:200840000C630393009E331D0093039B36687340039394F80EC0A389C3EA0C4394F80FC0B0
:2008600043EA0C630493009E331D0093049B3668734004933B685B105E1EBAE1DDF800C083
:200880000CF104030093019BDCF800C047F66848C0F201081B069B0D58F8033083EA0C0321
:2008A000DDF808C047F6680BC0F2010BCCF3072C5BF82CC08CEA030C039B47F2684BC0F23B
:2008C000010BC3F307435BF8233083EA0C03DDF810C047F2680BC0F2010B4FEA1C6C5BF8C7
:2008E0002CC08CEA030CCDF814C0DDF800C00DF108080CF10403009398E808481B069B0D1B
:2009000047F66848C0F20108DCF800C058F8033083EA0C03CBF3072C47F6680BC0F2010B3D
:200920005BF82CC047F2684BC0F2010B8CEA030CCEF307435BF8233083EA0C03DDF804C083
:2009400047F2680BC0F2010B4FEA1C6C5BF82CC08CEA030CCDF818C0DDF800C00CF1040372
:200960000093039BDCF800C047F66848C0F201081B069B0D58F8033083EA0C03DDF810C09D
:2009800047F6680BC0F2010BCCF3072C5BF82CC08CEA030C019B47F2684BC0F2010BC3F337
:2009A00007435BF8233083EA0C03DDF808C047F2680BC0F2010B4FEA1C6C5BF82CC08CEA4E
:2009C000030CCDF81CC0DDF800C00CF104030093049BDCF800C047F66848C0F201081B063F
:2009E0009B0D58F8033083EA0C03DDF804C047F6680BC0F2010BCCF3072C5BF82CC08CEAA2
:200A0000030C029B47F2684BC0F2010BC3F307435BF8233083EA0C03DDF80CC047F2680B11
:200A2000C0F2010B4FEA1C6C5BF82CC08CEA030CCDF820C000BFDDF800C00CF104030093E3
:200A4000059BDCF800C047F66848C0F201081B069B0D58F8033083EA0C03DDF818C047F608
:200A6000680BC0F2010BCCF3072C5BF82CC08CEA030C079B47F2684BC0F2010BC3F3074343
:200A80005BF8233083EA0C03DDF820C047F2680BC0F2010B4FEA1C6C5BF82CC08CEA030C90
:200AA000CDF804C0DDF800C00DF118080CF10403009398E808481B069B0D47F66848C0F22B
:200AC0000108DCF800C058F8033083EA0C03CBF3072C47F6680BC0F2010B5BF82CC047F2A3
:200AE000684BC0F2010B8CEA030CCEF307435BF8233083EA0C03DDF814C047F2680BC0F2CC
:200B0000010B4FEA1C6C5BF82CC08CEA030CCDF808C0DDF800C00CF104030093079BDCF815
:200B200000C047F66848C0F201081B069B0D58F8033083EA0C03DDF820C047F6680BC0F26E
:200B4000010BCCF3072C5BF82CC08CEA030C059B47F2684BC0F2010BC3F307435BF82330E3
:200B600083EA0C03DDF818C047F2680BC0F2010B4FEA1C6C5BF82CC08CEA030CCDF80CC0CC
:200B8000DDF800C00CF104030093089BDCF800C047F66848C0F201081B069B0D58F80330FE
:200BA00083EA0C03DDF814C047F6680BC0F2010BCCF3072C5BF82CC08CEA030C069B47F212
:200BC000684BC0F2010BC3F307435BF8233083EA0C03DDF81CC047F2680BC0F2010B4FEA2E
:200BE0001C6C5BF82CC08CEA030CCDF810C000BF013E002E3FF742AEDDF800C00CF1040329
:200C00000093019BDCF800C047F66848C0F201081B069B0D58F8033083EA0C03DDF808C004
:200C200047F6680BC0F2010BCCF3072C5BF82CC08CEA030C039B47F2684BC0F2010BC3F392
:200C400007435BF8233083EA0C03DDF810C047F2680BC0F2010B4FEA1C6C5BF82CC08CEAA3
:200C6000030CCDF814C0DDF800C00DF108080CF10403009398E808481B069B0D47F668480C
:200C8000C0F20108DCF800C058F8033083EA0C03CBF3072C47F6680BC0F2010B5BF82CC068
:200CA00047F2684BC0F2010B8CEA030CCEF307435BF8233083EA0C03DDF804C047F2680B93
:200CC000C0F2010B4FEA1C6C5BF82CC08CEA030CCDF818C0DDF800C00CF104030093039B6A
:200CE000DCF800C047F66848C0F201081B069B0D58F8033083EA0C03DDF810C047F6680B9B
:200D0000C0F2010BCCF3072C5BF82CC08CEA030C019B47F2684BC0F2010BC3F307435BF8C6
:200D2000233083EA0C03DDF808C047F2680BC0F2010B4FEA1C6C5BF82CC08CEA030CCDF893
:200D40001CC0DDF800C00CF104030093049BDCF800C047F66848C0F201081B069B0D58F897
:200D6000033083EA0C03DDF804C047F6680BC0F2010BCCF3072C5BF82CC08CEA030C029B6A
:200D800047F2684BC0F2010BC3F307435BF8233083EA0C03DDF80CC047F2680BC0F2010B7C
:200DA0004FEA1C6C5BF82CC08CEA030CCDF820C000BFDDF800C00CF1040300939DF8143045
:200DC00045F66878C0F20108DCF800C018F8033083EA0C03DDF818C0CCF3072C18F80CC06F
:200DE00083EA0C23DDF81CC0CCF3074C18F80CC083EA0C43DDF820C04FEA1C6C18F80CC0AA
:200E000083EA0C630193DDF800C00CF1040300939DF8183045F66878C0F20108DCF800C0EF
:200E200018F8033083EA0C03DDF81CC0CCF3072C18F80CC083EA0C23DDF820C0CCF3074C11
:200E400018F80CC083EA0C43DDF814C04FEA1C6C18F80CC083EA0C630293DDF800C00CF1B1
:200E6000040300939DF81C3045F66878C0F20108DCF800C018F8033083EA0C03DDF820C019
:200E8000CCF3072C18F80CC083EA0C23DDF814C0CCF3074C18F80CC083EA0C43DDF818C0E8
:200EA0004FEA1C6C18F80CC083EA0C630393DDF800C00CF1040300939DF8203045F66878F7
:200EC000C0F20108DCF800C018F8033083EA0C03DDF814C0CCF3072C18F80CC083EA0C23F1
:200EE000DDF818C0CCF3074C18F80CC083EA0C43DDF81CC04FEA1C6C18F80CC083EA0C6371
:200F00000493019B2B70019BC3F307236B70019BC3F30743AB70019B1B0EEB70029B2B719C
:200F2000029BC3F307236B71029BC3F30743AB71029B1B0EEB71039B2B72039BC3F30723C4
:200F40006B72039BC3F30743AB72039B1B0EEB72049B2B73049BC3F307236B73049BC3F3E6
:200F60000743AB73049B1B0EEB7301A80421FFF7A3FA02A80421FFF79FFA03A80421FFF75E
:200F80009BFA04A80421FFF797FA05A80421FFF793FA06A80421FFF78FFA07A80421FFF7F3
:200FA0008BFA08A80421FFF787FA68460421FFF783FA534618460BB0BDE8F08D2DE9F04DF3
:200FC0008BB007460C4615464FF0000A7B68009394F802C02388C3EA0C4394F803C043EAAC
:200FE0000C630193009E331D0093019B36687340019394F806C0A388C3EA0C4394F807C020
:2010000043EA0C630293009E331D0093029B36687340029394F80AC02389C3EA0C4394F811
:201020000BC043EA0C630393009E331D0093039B36687340039394F80EC0A389C3EA0C432B
:2010400094F80FC043EA0C630493009E331D0093049B3668734004933B685B105E1EBAE1D5
:20106000DDF800C00CF104030093019BDCF800C046F66848C0F201081B069B0D58F8033021
:2010800083EA0C03DDF810C046F6680BC0F2010BCCF3072C5BF82CC08CEA030C039B46F236
:2010A000684BC0F2010BC3F307435BF8233083EA0C03DDF808C046F2680BC0F2010B4FEA5E
:2010C0001C6C5BF82CC08CEA030CCDF814C0DDF800C00CF104030093029BDCF800C046F692
:2010E0006848C0F201081B069B0D58F8033083EA0C03DDF804C046F6680BC0F2010BCCF3F8
:20110000072C5BF82CC08CEA030C049B46F2684BC0F2010BC3F307435BF8233083EA0C036E
:20112000DDF80CC046F2680BC0F2010B4FEA1C6C5BF82CC08CEA030CCDF818C0DDF800C0EE
:201140000CF104030093039BDCF800C046F66848C0F201081B069B0D58F8033083EA0C0357
:20116000DDF808C046F6680BC0F2010BCCF3072C5BF82CC08CEA030C019B46F2684BC0F276
:20118000010BC3F307435BF8233083EA0C03DDF810C046F2680BC0F2010B4FEA1C6C5BF8FF
:2011A0002CC08CEA030CCDF81CC0DDF800C00CF104030093049BDCF800C046F66848C0F220
:2011C00001081B069B0D58F8033083EA0C03DDF80CC046F6680BC0F2010BCCF3072C5BF8EB
:2011E0002CC08CEA030C029B46F2684BC0F2010BC3F307435BF8233083EA0C03DDF804C07D
:2012000046F2680BC0F2010B4FEA1C6C5BF82CC08CEA030CCDF820C000BFDDF800C00CF1EA
:2012200004030093059BDCF800C046F66848C0F201081B069B0D58F8033083EA0C03DDF89C
:2012400020C046F6680BC0F2010BCCF3072C5BF82CC08CEA030C079B46F2684BC0F2010B40
:20126000C3F307435BF8233083EA0C03DDF818C046F2680BC0F2010B4FEA1C6C5BF82CC036
:201280008CEA030CCDF804C0DDF800C00CF104030093069BDCF800C046F66848C0F2010838
:2012A0001B069B0D58F8033083EA0C03DDF814C046F6680BC0F2010BCCF3072C5BF82CC01F
:2012C0008CEA030C089B46F2684BC0F2010BC3F307435BF8233083EA0C03DDF81CC046F232
:2012E000680BC0F2010B4FEA1C6C5BF82CC08CEA030CCDF808C0DDF800C00CF1040300937F
:20130000079BDCF800C046F66848C0F201081B069B0D58F8033083EA0C03DDF818C046F63F
:20132000680BC0F2010BCCF3072C5BF82CC08CEA030C059B46F2684BC0F2010BC3F307437D
:201340005BF8233083EA0C03DDF820C046F2680BC0F2010B4FEA1C6C5BF82CC08CEA030CC8
:20136000CDF80CC0DDF800C00CF104030093089BDCF800C046F66848C0F201081B069B0D09
:2013800058F8033083EA0C03DDF81CC046F6680BC0F2010BCCF3072C5BF82CC08CEA030C7A
:2013A000069B46F2684BC0F2010BC3F307435BF8233083EA0C03DDF814C046F2680BC0F2BB
:2013C000010B4FEA1C6C5BF82CC08CEA030CCDF810C000BF013E002E3FF742AEDDF800C000
:2013E0000CF104030093019BDCF800C046F66848C0F201081B069B0D58F8033083EA0C03B7
:20140000DDF810C046F6680BC0F2010BCCF3072C5BF82CC08CEA030C039B46F2684BC0F2C9
:20142000010BC3F307435BF8233083EA0C03DDF808C046F2680BC0F2010B4FEA1C6C5BF864
:201440002CC08CEA030CCDF814C0DDF800C00CF104030093029BDCF800C046F66848C0F287
:2014600001081B069B0D58F8033083EA0C03DDF804C046F6680BC0F2010BCCF3072C5BF850
:201480002CC08CEA030C049B46F2684BC0F2010BC3F307435BF8233083EA0C03DDF80CC0D0
:2014A00046F2680BC0F2010B4FEA1C6C5BF82CC08CEA030CCDF818C0DDF800C00CF1040308
:2014C0000093039BDCF800C046F66848C0F201081B069B0D58F8033083EA0C03DDF808C03B
:2014E00046F6680BC0F2010BCCF3072C5BF82CC08CEA030C019B46F2684BC0F2010BC3F3CE
:2015000007435BF8233083EA0C03DDF810C046F2680BC0F2010B4FEA1C6C5BF82CC08CEADB
:20152000030CCDF81CC0DDF800C00CF104030093049BDCF800C046F66848C0F201081B06D4
:201540009B0D58F8033083EA0C03DDF80CC046F6680BC0F2010BCCF3072C5BF82CC08CEA2F
:20156000030C029B46F2684BC0F2010BC3F307435BF8233083EA0C03DDF804C046F2680BB0
:20158000C0F2010B4FEA1C6C5BF82CC08CEA030CCDF820C000BFDDF800C00CF10403009378
:2015A0009DF8143048F26808C0F20108DCF800C018F8033083EA0C03DDF820C0CCF3072CF3
:2015C00018F80CC083EA0C23DDF81CC0CCF3074C18F80CC083EA0C43DDF818C04FEA1C6CCA
:2015E00018F80CC083EA0C630193DDF800C00CF1040300939DF8183048F26808C0F2010831
:20160000DCF800C018F8033083EA0C03DDF814C0CCF3072C18F80CC083EA0C23DDF820C0AF
:20162000CCF3074C18F80CC083EA0C43DDF81CC04FEA1C6C18F80CC083EA0C630293DDF86C
:2016400000C00CF1040300939DF81C3048F26808C0F20108DCF800C018F8033083EA0C039A
:20166000DDF818C0CCF3072C18F80CC083EA0C23DDF814C0CCF3074C18F80CC083EA0C4300
:20168000DDF820C04FEA1C6C18F80CC083EA0C630393DDF800C00CF1040300939DF8203075
:2016A00048F26808C0F20108DCF800C018F8033083EA0C03DDF81CC0CCF3072C18F80CC0F3
:2016C00083EA0C23DDF818C0CCF3074C18F80CC083EA0C43DDF814C04FEA1C6C18F80CC0D1
:2016E00083EA0C630493019B2B70019BC3F307236B70019BC3F30743AB70019B1B0EEB7012
:20170000029B2B71029BC3F307236B71029BC3F30743AB71029B1B0EEB71039B2B72039B83
:20172000C3F307236B72039BC3F30743AB72039B1B0EEB72049B2B73049BC3F307236B7373
:20174000049BC3F30743AB73049B1B0EEB7301A80421FEF7B1FE02A80421FEF7ADFE03A81A
:201760000421FEF7A9FE04A80421FEF7A5FE05A80421FEF7A1FE06A80421FEF79DFE07A8C7
:201780000421FEF799FE08A80421FEF795FE68460421FEF791FE534618460BB0BDE8F08D10
:2017A0002DE9F04D86B016469B4601908DF803100E9F0F9D4FF0010A9DF803C0BCF1000F83
:2017C0002CD128E0394602A81022FEF789FE2A4639460198FFF7F2FB8446E246002408E0C4
:2017E0001BF804C017F804E08CEA0E0C05F804C00134102CF4DB02A958461022FEF770FEB0
:20180000103710354FF0000C102E03D3A6F1100C5FFA8CFC6646002ED4D826E023E0002496
:2018200008E01BF804C017F804E08CEA0E0C05F804C00134102CF4DB2A4629460198FEF7F8
:20184000CBFF8446E246294658461022FEF748FE103710354FF0000C102E03D3A6F1100CB4
:201860005FFA8CFC6646002ED9D8D446604606B0BDE8F08D00B500F092FA00F0A7FA04F0AE
:20188000ABFF01F0B1FF00F0D7F800BD70B541F6B475C2F20005002405F0AEFA06462868A6
:2018A00042F23411C7F6430188422FD1002129E0C1EB810005F10C0202EBC0000078032839
:2018C00005D106EBC1000078D0B903241FE0C1EB810005F10C0202EBC0000078062805D1FF
:2018E00006EBC100007858B9062410E0C1EB810005F10C0202EBC0000078082800D100BF7D
:20190000481CC1B2A8798142D2D300E00124204670BD30B5002405F06FFA054695F8500040
:20192000012803D1FFF7B2FF044600E00124204630BD00B54EF20000C2F200004FF48052A3
:20194000002103F005FC11F03BF800BD2DE9004105F078FA012809D102F0EDF801F06EFF8B
:2019600006F071F901F05AFF0028FBD100F016FB40F23C71C2F200010868012802D102F0D6
:20198000F5F808E040F23C71C2F200010868042801D102F00DF906F019F901280CD140F238
:2019A000D851C2F2000108680130086006F04BF901F044FF00F0AEF9BDE8008100B5FFF76A
:2019C000C5FF00BD10B40446214600BF084610BC70472DE9F0484FF60066C2F200060024AA
:2019E000002510F0CDFF0746B346022F05D000200146CBE90001002418E0314648F2681049
:201A0000C0F20100082203F0B4FB04460CB101250CE0314648F27010C0F20100082203F02D
:201A2000A8FB04460CB1022500E000252846BDE8F0880121084670472DE9F04140F2D4557C
:201A4000C2F20005002400F039F8FFF7C2FF0446E4B1022001F0ECFE4FF60060C2F200009C
:201A60000822002103F074FB00202860012C06D1012040F23C71C2F20001086018E00420D4
:201A800040F23C71C2F20001086011E0FFF7D1FF01280DD1FFF73DFF064600F03EFA074699
:201AA00026B91FB94FF47A70286001E000202860286808B90AF0F7FCBDE8F0812DE9F04592
:201AC00084B005F099F9064605F09BF9824605F09DF9074648F6BC31C0F2010141F6B4709C
:201AE000C2F200004FF4807203F019FB4AF20001C0F201113046642203F011FB02966020E2
:201B0000039000208DF8040068460AF008FA01208DF8040068460AF002FA02208DF80400E6
:201B200068460AF0FCF90098316E884203D1306EB0F1FF3F56D1306EB0F1FF3F2BD100F026
:201B400031FA012827D130466422002103F000FB002415E006EBC40001210170C4EB84009A
:201B600041F6C072C2F2000202EBC000007841F6E051C2F2000101EBC401C870601CC4B229
:201B800041F6B471C2F2000188798442E2D3012086F8500026E030466422002103F0D8FAE1
:201BA000002415E006EBC40000210170C4EB840041F6C072C2F2000202EBC000007841F617
:201BC000E051C2F2000101EBC401C870601CC4B241F6B471C2F2000188798442E2D3002097
:201BE00086F850004CF20001C0F2011150460C2203F095FACDF808A00820039000208DF801
:201C0000040068460AF08BF901208DF8040068460AF085F902208DF8040068460AF07FF9F9
:201C20000098DAF80810884204D1DAF80800B0F1FF3F12D150460C22002103F089FA0098F4
:201C4000CAF80800002505E02846002101F005FF681CC5B2002DF7D013E000250FE05AF8E4
:201C60002500022805D342F21071284601F0F5FE03E02846002101F0F0FE681CC5B2002DBD
:201C8000EDD04EF20001C0F2011138464FF4A27203F045FA02974FF4A070039000208DF857
:201CA000040068460AF03BF901208DF8040068460AF035F902208DF8040068460AF02FF949
:201CC0000098D7F84011884204D1D7F84001B0F1FF3F17D138464FF4A272002103F038FABB
:201CE00049F22201C0F2010107F59470102203F016FA40F2A441C2F2000138464FF492720C
:201D000003F00DFA38464FF4807109F002FF04B0BDE8F0852DE9304140F2D454C2F20004B6
:201D200001F034FE0546206800280BD9206801382060206830B948F6BC31C0F20101886820
:201D400000F002F8BDE8308110B5044600F0D2F8204600F001F810BD10B50446204600F0F9
:201D600018F910BD2DE90041002040F2D451C2F2000108600AF097FBBDE8008100B510F033
:201D8000FFFD18B110F0FCFD052807D1A1494FF4FC720020002309C1083AFCDA00BD00B54E
:201DA00010F04DFD002010F0B8FD002010F0CDFD002010F011FB002011F055F8002010F060
:201DC000A8FF05F0ECFE01F0CFFC00BD00B548F6F840C0F2010005F014FF48F69850C0F246
:201DE000010006F07BFA002005F017FF09F035FF00BD30B444F20001C4F206014FF0B64253
:201E00000124002308E048F2A060C0F20100834201D900206CE05B1CC86910F4803FF2D06D
:201E2000C86810F0004F00D0CA60C8684FF0010C6CF31240C860C86840F00040C860C868DC
:201E400010F0004F00D0CA60C8684FF0010C6CF30B20C860C86840F00040C860C86810F013
:201E6000004F00D0CA60C8684FF0010C6CF30710C860C86840F00040C860C86810F0004FB8
:201E800000D0CA60C8684FF0030C6CF30300C860C86840F00040C860886A10F0004F00D067
:201EA0008A62886A6FF300008862886A6FF359608862886A40F000408862486910F0004FB5
:201EC00000D04A61886910F0004F00D08A6148696FF30000486188696FF3410088614869A2
:201EE00040F000404861886940F000408861204630BC704700B50AF0F0FA05F05DFE10F08D
:201F000035FB0021B52010F051FF0021342010F04DFFFFF76EFF72B600BDF0B44FF6F076F3
:201F2000C0F2040600253246331D1078D1789478C1EA00605178240200EB01402118B1F516
:201F4000002F01D3012022E006F10804207891F800C0604501D0012019E01878D9789F78EF
:201F6000C1EA006059783F0200EB01403918B1F5002F01D301200AE006F10904207891F8EE
:201F800000C0604501D0012001E000252846F0BC704710B504466168884710BD00B50AF0F0
:201FA000ACFA00BD30B441F6B472C2F2000200219068436800210BE0C1EB810002F10C0CBF
:201FC0000CEBC0000078032800D104E0481CC1B290798142F0D39079814201D3002016E0D6
:201FE000C1EB810002F10C0C0CEBC000806883420AD3C1EB810002F10C0C0CEBC004E0682D
:20200000A4682044834201D3002000E0012030BC704700BF00FE002070B505460E4600BF93
:2020200000BF002404F01AFC0246144670BD70B505460E4600BFAA68101D04F022FC0246C8
:20204000144634B902F075FE4FF4FA6001F078FD08E0022C03D1312001F024FD02E0222060
:2020600001F020FD00BF70BD2DE9F04D82B08346019100BF062704F0BFFE02460092DBF83C
:202080000820101D03F096F8024615462846FFF799FC02461546DBF8082002F1080003F042
:2020A00089F80246164600243FE0C4EB840241F6C073C2F2000303EBC2029068FFF782FC44
:2020C0000246924655452ED3EA43B2422BD3C4EB840241F6C073C2F2000303EBC202D268E4
:2020E000524495421FD2C4EB840241F6C07CC2F2000C0CEBC202D26873195244934212D844
:20210000C4EB840241F6C073C2F2000303EBC202D268964207D8002E05D9204604F0D7FB8E
:202120000246174608E0621CD4B241F6B473C2F200039A799442B8D33A1C05D0023A023AE2
:202140004CD9022A4ED051E041F6E053C2F2000303EBC402D278072A23D1002409E041F657
:20216000E053C2F2000303EBC40200231370621CD4B241F6B473C2F200039A799442EED358
:2021800048F6B431C0F201010868FFF71BFC0246154648F6B43CC0F2010C9CE84800F21A83
:2021A000561C3146284604F06AFD02F0C2FD4EF6602001F0C5FC41F22C12C2F20002566168
:2021C00041F22C12C2F20002156101F027FB0028FBD104F05FFD60B102270AE0222001F0B4
:2021E00061FC06E0312001F05DFC02E0722001F059FC02B0BDE8F08D30B504460D46294682
:20220000204601F0D4FA0022104630BD2DE9F04C84B006460F4692469B46002448F2781569
:20222000C0F20105D5F800E0EC46CCF800E0D5F804E0CCF804E0D5F808E0CCF808E0ED6854
:20224000CCF80C5004F0E2FD844665466B465A46514605F5947001F074F93A46314668462D
:2022600002F087FF012800D0012400BF204604B0BDE8F08C30B404460D4630BC704710B4E6
:20228000044610BC704730B404460D4630BC704710B404464FF0FF31216010BC70472DE9B6
:2022A000F00404460D461646002310E0D4F800A0EF5C48F2881CC0F2010C87EA0A073F0603
:2022C000BF0D5CF8077087EA1A2727600133B342ECD3BDE8F004704710B404462168C94353
:2022E000216000BF10BC704700002DE9F04D83B083468A46002640F2E052C2F2000215683F
:20230000FEF7D8F8024617463C2F44D9B42F42D200243EE004EB840205EB820252885A4530
:2023200035D104EB840205EB820252680192EA68013A03D307D0022A0AD00EE0019A42F066
:20234000004201920AE0019A42F04042019205E0019A42F08042019200E000BFDAF808203C
:202360008DF80220DAF80020029204EB840205EB82021288ADF80020694604EB840205EBD4
:202380008202107A0BF026FB0246164603E0621CD4B2002CBED03246104603B0BDE8F08D2B
:2023A0002DE97041064640F2E051C2F200010D6800241AE004EB840105EB81010988B142F5
:2023C00011D104EB840105EB8101096951B104EB840105EB81010A6904EB840105EB810182
:2023E0004888904703E0611CCCB2002CE2D0BDE870812DE9700105460C460122D5F810C000
:202400006E680CEA06030CEA0406B3422ED1EB68052B2AD80FF20408D8E803F003080D1581
:202420001A22B4F1004F00D300221FE0B4F1404F00D300221AE0B4F1004F03D3B4F1404F57
:2024400000D2002212E0B4F1004F00D200220DE0B4F1004F03D2B4F5806F00D3002205E086
:20246000B4F1804F00D2002200E000BF00BF1046BDE87001704700002DE9F04D82468B4687
:2024800040F2DC52C2F2000215680126FEF712F8024617463C2F2ED9B42F2CD2002428E05F
:2024A000DAF80010C4EB840205EBC200FFF7A1FF024616469AF80430C4EB840205EBC2026A
:2024C000127A9A4213D196B9C4EB840205EBC20252695AB1C4EB840205EBC202536959466E
:2024E000C4EB840205EBC2025088984703E0621CD4B2022CD4D3BDE8F08D000010B4044650
:2025000000BF10BC7047000000002DE9F04D81B004460D461E46ADF80220376805F1080B85
:202520000BEB041CDCF804A0D6F808B0BDF8028005F1080E0EEB041CACF8008005F1080EFB
:202540000EEB041CD6F808E0CCF80CE05A463946504602F0E4FD01B0BDE8F08D00000000A1
:20256000F0B504460D4616462378ABB933462A462146A078FFF7C9FF63780BB90123637002
:20258000A378013313F00103A370A37894F803C0634501D101232370F0BD2DE9F04481B00F
:2025A00005460C4600228DF8022000228DF8032022681278022A0AD1226852783E2A06D13D
:2025C00022689278802A02D101F0A7FA3EE00DF103030DF102022146284600F042FA0246EB
:2025E000164640F21C67C2F20007BA46FF2E2DD09DF8022002F0F002003A06D0103A04D01C
:20260000103A1DD0102A1BD01FE02246294640F2E450C2F20000FFF7A3FFDAF82420052A91
:202620000DD106EB8602920048F21863C0F201030B21D05A01F02FF9384600F0DFF905E0AC
:202640002146284600F006F800E000BF01B0BDE8F08400002DE9F04D84B082460C4600228B
:202660008DF8062000228DF807200DF107030DF106022146504600F0F4F9024617469DF8BF
:202680000750FF2F00F014819DF8062002F0F002003A08D0103A2CD0103A00F08C80102AB9
:2026A00000F0A48003E19DF80660A3686A1C9A1AB2421DD3E6B107EB870248F21863C0F285
:2026C000010303EB8202A3681269934210D80095F3B2224607EB870C48F21860C0F20100B5
:2026E00000EB8C0140F21C60C2F2000000F070FADEE0A268082A5DD3BAF1000F5AD107EBA5
:20270000870248F21863C0F2010303EB8202A368126993424ED822689DF806302A440132DC
:2027200012781B071B0D9E18AA1CD5B2E6B9D4F800C005EB0C0203321CF805301278C2EAE5
:20274000036205EB0C0301331B7842EA034205EB0C0302331B781B0243EA02062A1DD5B2F6
:20276000B6F5805F00D20026A268082A06D19DF80720C2F1080292B296421BD3A268082A05
:2027800007D9A2689DF80730D21A013A92B2964210D300953346224607EB870C48F21860B0
:2027A000C0F2010000EB8C0140F21C60C2F2000000F070FA7CE040F21C63C2F200035A6AAA
:2027C000052A12D1BAF1000F0FD12B46224607EB870C48F21860C0F2010000EB8C0140F2E0
:2027E0001C60C2F2000000F0BCFA61E040F21C63C2F200035A6D062A58D1A268032A55D3DB
:20280000BAF1000F52D19DF8062012F00F0F10D12B462246C7EB870048F2406CC0F2010C68
:202820000CEBC00140F21C60C2F2000000F062FB3CE09DF8062012F00F02012A1DD1062206
:2028400040F21C63C2F200035A6540F21C63C2F20003DA6DFF2A29D84FF47A7000F003FD5B
:2028600040F21C62C2F20002908640F21C63C2F20003DA6D0132DA6518E09DF8062012F006
:202880000F02022A12D1C7EB8702D20048F24063C0F201030121D05A01F02FF840F21C6165
:2028A000C2F2000101F1300000F0C0F800E000BF04B0BDE8F08D2DE9F0410746FF2540F23A
:2028C0001C64C2F20004002614E0C6EB860148F24062C0F2010202EBC1014988B94207D18A
:2028E000616D083902D00439032901D8354603E0711CCEB2002EE8D0FF2D35D0616D0F292D
:2029000031D80FF20808D8E801F0C0462E2E2E2E2E2E2E2E092E2E2E19092219C5EB850150
:20292000C90048F24062C0F20102885A002100F0E4FF04F1300000F079F85BE006216165B9
:202940004FF47A7000F08FFC0146A18652E094F8311084F85810962000F085FC0146A186E9
:202960000921616546E045E0384600F033FC01460D46FF2D3ED0616A022908D105216162F3
:202980004FF47A7000F06FFC0146A18032E0616A042911D105EB8501890048F21862C0F2F6
:2029A0000102885A012100F076FF40F21C60C2F2000000F023F81DE0616A112909D101F071
:2029C00008F9E16A4FF448724A60204600F016F810E005EB8501890048F21862C0F2010248
:2029E000885A012100F057FF40F21C60C2F2000000F004F800BFBDE8F081000010B404465C
:202A0000002121700021A1800021A1600021A181002121610021A1820021A1770021218477
:202A2000002161840021616210BC704710B40446002121700021A1800021A1600021A181C2
:202A4000002121610021A1820021A1770021218400216162002184F828100021E16210BCA7
:202A600070472DE9F04F83B08A4693461F4648F2186CC0F2010CADF80A00FF26012500246E
:202A800048E0BDF80A8004EB840E0CEB8E0EBEF802E0C6453AD104EB840E0CEB8E0EDEF823
:202AA00004E0BEF1010F0ED14FF0000E87F800E0DAF800E097F8008018F80EE08BF800E0C6
:202AC0002646002522E004EB840E0CEB8E0EDEF804E0BEF1000F19D1DAF8008004EB840E1A
:202AE0000CEB8E0E9EF808E098F80080C6450DD14FF0010E87F800E0DAF800E097F800805E
:202B000018F80EE08BF800E02646002504F1010E5FFA8EF4022C01D2012DB2D0FF2E52D1E3
:202B2000012500244CE0BDF80A80C4EB840E48F24069C0F2010909EBCE0EBEF804E0F04561
:202B40003AD104EB840E0CEB8E0EDEF804E0BEF1010F0ED14FF0000E87F800E0DAF800E0A0
:202B600097F8008018F80EE08BF800E02646002522E004EB840E0CEB8E0EDEF804E0BEF1D5
:202B8000000F19D1DAF8008004EB840E0CEB8E0E9EF808E098F80080C6450DD14FF0010E11
:202BA00087F800E0DAF800E097F8008018F80EE08BF800E02646002504F1010E5FFA8EF424
:202BC0000CB9012DAFD000BF304603B0BDE8F08F2DE9F04F82B00E4693461F4601909DF838
:202BE0002CC00CF1010C5FFA8CFA019D022F14D1DBF8004014F80A403E2C0ED1DBF8004087
:202C0000544401342478802C07D1B6F802C0BCF1010F02D100F081FF39E06C6A013C02D356
:202C200029D0042C32D1D5F824C0BCF1050F09D10B21308800F02FFE40F21C60C2F20000B9
:202C4000FFF7DCFE00240DE0DBF800E004EB0A0818F80EE005F1160C0CF804E004F1010CDF
:202C60005FFA8CF4BC42EFD3AF772F613046019900F0A2F90BE00121308800F00CFE40F279
:202C80001C60C2F20000FFF7B9FE00E000BF02B0BDE8F08F2DE9F04D81B007460E469246E5
:202CA00000933C46656A013D02D34BD0042D54D1D4F824C0BCF1050F09D10B21308800F08D
:202CC000EAFD40F21C60C2F20000FFF797FE9AF808509DF824C0A5EB0C05A57700250FE0EC
:202CE000DAF800B09DF8248005EB080E1BF80EB004F1160C0CF805B005F1010C5FFA8CF595
:202D000094F81EC06545EBD3DDF800C0C4F810C04FF0010C84F800C0DAF808C0C4F828C0FA
:202D2000002000F0A0FA8446A4F804C03946304600F069F98446E3465A463946304600F000
:202D4000ADF90BE00121308800F0A5FD40F21C60C2F20000FFF752FE00E000BF01B0BDE8D9
:202D6000F08D2DE9F04F86B08A4616469B4605904FF0000C8DF801C0059CD4F810C0A78AAA
:202D8000ACEB070CCDF804C0356815F80B5005F00F0C8DF803C04FF0010C8DF802C0D6F842
:202DA00008C0A76ABC450CD2DDF804C00CF10105D6F808C0ADB2AC4503D24FF0000C8DF834
:202DC00002C09DF802C0BCF1010F40F0908094F800C09DF80380E0450BD00521BAF80000A1
:202DE00000F059FD40F21C60C2F20000FFF706FE7DE0257801352570257815F00F05257021
:202E0000A56ADDF804C0013DA5EB0B05ADB2AC4508D8DDF804C05FFA8CF74FF0010C8DF8B6
:202E200001C004E0A56A013DA5EB0B05EFB2002518E0D4F808C0B4F80CE0D6F800800BEBD2
:202E40000809A944DCF800C099F801800CF80E80B4F80CC00CF1010CA4F80CC005F1010C4F
:202E60005FFA8CF5BD42E4D3B4F814C0BC44A4F814C0B4F820C00CF1010CA4F820C09DF82B
:202E800001C0BCF1010F1AD14FF00B0CC4F824C0BAF800C0A4F822C0DDF81480D8F854C096
:202EA000BCF1000F23D10021BAF8000000F0F3FC40F21C60C2F20000FFF7A0FD17E0D4F8F8
:202EC00028C0D6F808E0F4450AD00121BAF8000000F0E1FC40F21C60C2F20000FFF78EFDBD
:202EE0004FF47A7000F0BFF98446A4F804C006B0BDE8F08F2DE9F04C81B0834615461F46ED
:202F0000009107F1020C5FFA8CF607F1010C5FFA8CFA0BF13004D5F800C01CF80AC0A4F824
:202F200002C0B4F802C0BCF1000F03D14FF6FF7CA4F802C0D5F800C01CF806C0BCF17F0F11
:202F400006D9D5F800C01CF806C0BCF1F10F06D3D5F800C01CF806C0BCF1F90F04D94FF06D
:202F60007F0C84F801C015E0D5F800C01CF806C0BCF17F0F04D94FF0010C84F801C009E0A3
:202F8000D5F800C01CF8060000F06DF900F1010C84F801C094F801C084F828C0962000F0A2
:202FA00062F98446A4F804C04FF0090CC4F824C000BF01B0BDE8F08CF0B505460E46344649
:202FC0002146284600F038F80246174687B90B2262622A886284726DA2B90021288800F093
:202FE0005AFC40F21C60C2F20000FFF707FD09E00121608C00F04FFC40F21C60C2F200008B
:20300000FFF7FCFCF0BDF0B507460E4634462146384600F011F80246154615B9012262621F
:2030200007E0012D03D13046FFF7E8FC01E0032262622A461046F0BDF0B506460C460125B1
:20304000A2683AB904F108022169308800F0FCFB02461546A268DAB1A268A38992689A4207
:2030600016D90025002210E0A36804F1160CA7891B681CF802C003F807C0A38A0133A38237
:20308000A3890133A381531CDAB2A37F9A42EBD32B461846F0BD0000000000002DE9F04F24
:2030A00086B007468B4615464FF0000A5E4601AB039300230593002410E0C4EB840348F2F3
:2030C000406CC0F2010C0CEBC303B7F80AC05B889C4501D1A24603E0631CDCB2002CECD0F9
:2030E0007B68012B13D07B688BB9DDF80CC0DDF814E0CAEB8A0348F24069C0F2010909EB78
:20310000C3031B7C0CF80E30059B01330593F5B9039BDDF814C04FF0300E03F80CE0059BAB
:2031200001330593039BDDF814C04FF0000E03F80CE0059B01330593039BDDF814C04FF056
:20314000000E03F80CE0059B0133059316E0022D0AD1039BDDF814C04FF0310E03F80CE062
:20316000059B0133059309E0039BDDF814C04FF0320E03F80CE0059B0133059303A800F046
:203180001AF803A97889FFF7B0F84FF47A7000F06AF80346B38015B90223736208E0032DF7
:2031A00002D10423736203E0022D01D11123736206B0BDE8F08F10B4044606E02168A268F2
:2031C00000238B54A1680131A160A1680829F5D310BC7047F0B40546FF23FF22002110E0E9
:2031E000C1EB810448F2406CC0F2010C0CEBC4046488A54201D10A4605E001F1010C5FFA08
:203200008CF10029ECD0FF2A28D0002124E001EB810448F2186CC0F2010C0CEB84046489AC
:20322000A54215D101EB810C48F21866C0F20106C2EB820406EB8C0648F2406CC0F2010C7C
:203240000CEBC4047688A488A64201D10B4605E001F1010C5FFA8CF10229D8D300BF1846CD
:20326000F0BC7047000010B40446611C89B2084610BC7047F0B404460D46164600230DE0A7
:203280005F1901373F78802FEF5C2CBF4FF0010C4FF0000C0CEB4707F7540133A4F1010CE5
:2032A0006345EDDBA4F1010C0CEB0607AC449CF800C04FEA4C0C87F800C0F0BC70472DE96B
:2032C000F00C05460E4617469C46002408E017F804A016F804B08AEA0B0A0CF804A001342D
:2032E000AC42F4DBBDE8F00C70472DE9F044D8B007460C461646012548F25863C0F201031B
:20330000D3F800C0CDF830C1D3F804C0CDF834C1D3F808C0CDF838C1DB684F9350A8102283
:20332000002101F015FF48A81022002101F010FF02A84FF48C72002101F00AFF394602A8F5
:203340008022FDF7E4F803461D4654AD50AB8DE8280048AB02A810220121FEF721FA03466C
:203360001D469DF85031802B05D2224654A91020FFF780FF0AE0224654A91020FFF77AFF5A
:2033800023464CAA21461020FFF799FF2378802B05D2324621461020FFF76CFF0AE03246BA
:2033A00021461020FFF766FF33464CAA31461020FFF785FF2B46184658B0BDE8F084F0B4F7
:2033C00006460C461546002315E0AB4204D216F803C004F803C00AE0AB4204D14FF0800C12
:2033E00004F803C003E04FF0000C04F803C003F1010C5FFA8CF3102BE7D3F0BC70472DE9DA
:20340000F04DDDB007468A469B4602924DA81022002101F09DFE07F10F0C4FEA1C1515B931
:203420000125002605E017F00F0F01D1012600E0002646B1659A51AB681E0AEB0011102089
:20344000FFF73DFF0DE007F00F024DA96B1E0AEB0310FFF7B4FF51AB4DA91020669AFFF7FD
:203460002EFF002409E00DF5B27C4FF0000E0CF804E004F1010C5FFA8CF4102CF3D30024AC
:2034800026E055AB0AEB041259A91020FFF717FF49A81022002101F05BFE03A84FF48C7263
:2034A000002101F055FE594603A88022FDF72FF80DF5B27E0DF5AA7C8DE8005049AB03A8E2
:2034C00010220121FEF76CF904F1010C5FFA8CF4A5F1010C6445D4D355AB51AA59A9102043
:2034E000FFF7EDFE49A81022002101F031FE03A84FF48C72002101F02BFE594603A8802274
:20350000FDF705F80DF5B27E0DF5AA7C8DE8005049AB03A810220121FEF742F900240BE069
:203520000DF5B27CDDF808801CF804C008F804C004F1010C5FFA8CF4102CF1D35DB0BDE8D5
:20354000F08D2DE9F04C8AB005460E4617469A46002448F2686CC0F2010CDCF800E0CDF81C
:2035600018E0DCF804E0CDF81CE0DCF808E0CDF820E0DCF80CC0CDF824C048F2786CC0F240
:20358000010CDCF800E0CDF808E0DCF804E0CDF80CE0DCF808E0CDF810E0DCF80CC0CDF87E
:2035A00014C002AA06A92846FFF79FFE0DF1080E0DF1180C8DE800502B46524631463846E2
:2035C000FFF71DFF00BF20460AB0BDE8F08C2DE9F04D81B006460F4694469A46BAF1010F3F
:2035E00002D14FF6FF7400E06446002513E016F805E08EEA242B4FEA0B6B4FEADB5B48F28C
:20360000886EC0F2010E3BF80EB08BEA042B1FFA8BFB5C460135BD42E9D300BF00BF204648
:2036200001B0BDE8F08D70B4044642F20001C4F20301012294B30B69D4F80CC06CF3000382
:203640000B610B69D4F808C06CF382030B610B6913F0010F06D1CB68D4F804C06CF30F0314
:20366000CB6001E06368CB60636923B90B6943F0C0030B6105E00B694FF0020C6CF387132B
:203680000B610B69D4F810C06CF305130B610B6943F002030B6123688B60002200BF104606
:2036A00070BC704700B548F69000C0F20100FFF7BAFF002000BD2DE9F04D83B084460E46C1
:2036C000964642F20005C4F2030502930024BEF1010F07D12F6947F002072F61DDF8088002
:2036E000C5F808802F696FF341072F611DE004EB0C0701373F781CF804A04AEA072704EBBC
:203700000C0A0AF1020A9AF800A047EA0A4704EB0C0A0AF1030A9AF800A04FEA0A6A4AEAB8
:20372000070BC5F808B00434043E042EDFD205E01CF804A085F808A0013E0134002EF7D872
:203740002F69BF06BF0F0FB1012F04D1D5F808801FFA88FA03E0D5F808804FEA184A00BFF7
:20376000504603B0BDE8F08D00B500200CF086FE00BD30B404460D4625646A6AA260AA6AD8
:20378000E260EA6A22612A6B62616A6BA261AA6BE261EA6B226205F1400262626A6CA262D9
:2037A00005F14802E262EA6C226330BC7047F0B506460F4640F27435C2F2000540F2BC64DB
:2037C000C2F2000429462046FFF7D3FF07206063214600200CF076FE05463A463046216AE7
:2037E00001F09DFC2846F0BD10B540F24074C2F20004022000F0BFF8002000F0EDF800F013
:203800003DFB04F5E670A06004F13C00E06100F088F800F0A4F800F057FB10BD4DF8048DCE
:2038200040F24071C2F2000148695DF8048B704710B50446204600F09EF810BD00B500F037
:2038400037FB00F044FA00BDF0B405460E46174640F24074C2F200040023D4F800C0BCF1B1
:20386000000F13D1CC2D01D0FF2D0FD1B6F5006F0AD84FF0010CC4F800C0A580266104F11A
:20388000080CC7F800C002E0032300E0012300BF1846F0BC704770B505460E4640F240745F
:2038A000C2F20004206801280AD12EB9A088854202D100F0A7F903E000F051F800F031F856
:2038C00070BDF0B506460F4640F24075C2F2000500246A69022A08D12A8B964205D105F180
:2038E0001C023A6001226A6104E000F038F800F018F8012422461046F0BD70B505460E46CA
:2039000040F24074C2F2000446B9228B954205D194F82D2012B90022626101E000F001F85D
:2039200070BD30B540F24074C2F2000425460020A06200206061002084F82C00012084F804
:203940002D0000F036FA00F00EFA94F8CC09012802D100F0E5F901E000F0DFF830BD2DE94C
:203960000041002040F24071C2F20001086000F03BF9BDE800812DE91001044641F20C11DB
:20398000C2F200010C70BDE8100170474DF8048D41F20C11C2F2000108785DF8048B704793
:2039A0002DE9F00104460D46002300220DE041F20C1CA75CC2F2000C9CF800C0BC4500D1ED
:2039C000012302F1010C5FFA8CF2AA42EFD300BF1846BDE8F00170472DE91001044641F230
:2039E0000C11C2F200010C71BDE8100170474DF8048D41F20C11C2F2000108795DF8048BCB
:203A0000704710B40446012141F21413C2F2000353F82420002A00D9002100BF084610BC22
:203A200070472DE9F00104460D46002300220DE041F20C1CA75CC2F2000C9CF804C0BC4582
:203A400000D1012302F1010C5FFA8CF2AA42EFD300BF1846BDE8F001704730B404460D4601
:203A6000A20041F21413C2F200039D5030BC70472DE91001044641F20C11C2F200014C80C1
:203A8000BDE8100170472DE90041012040F24071C2F2000181F82D0000F0BDF9FFF75FFF09
:203AA000BDE8008170B5064640F24074C2F20004E569782E02D0012184F82D107F212970F7
:203AC000A16809786970AE700321616200F0A3F994F82D10012901D1FFF741FF70BD70B5A5
:203AE00005460E461446ADB9CC2E0BD0FF2E0DD1112C0BD0122C09D0312C07D07E2C05D0A5
:203B00007F2C03D02046FFF7CDFF03E0FFF727FFFFF707FF2B46184670BD10B440F240745E
:203B2000C2F2000494F8CC09012802D041F28830E08510BC704700B5012000F00CF800BD17
:203B40002DE91001044640F24071C2F200018C63BDE8100170472DE91001044640F24071AC
:203B6000C2F200010C86BDE81001704730B540F23C75C2F2000505F120042068502101708C
:203B800020680221417020680021817020683221C1702068012101712068F4214171062092
:203BA000A06000202860FFF76EFFFFF7B6FF30BD2DE90041002040F23C71C2F200010860EF
:203BC000FFF7ABFFBDE8008140F24070C2F2000070474DF8048D002040F24071C2F2000144
:203BE00048615DF8048B7047002007E040F60C11C2F20001FF220A54411C88B2B0F5006F48
:203C0000F4D3704710B540F24074C2F20004022020603220FFF79FFF00F0B1F800F080F83A
:203C2000012084F82C00002084F82D0010BD2DE9F04C40F24074C2F20004002548F61016AC
:203C4000C0F20106002715E0A0683178007881420DD1A088CC2802D17078C00705D4A08826
:203C6000FF2803D17078800700D5A66204E01836781CC7B20A2FE7D3A06AF8B1A06A0069A5
:203C8000E0B1A06A81784068FFF78AFE8246A06A017AC068FFF7C5FE8346BAF1000F01D1E7
:203CA0007F250CE0BBF1000F01D1332507E0A06A026904F114012046904700E0112525B100
:203CC0002A460020A188FFF70AFFBDE8F08C30B581B040F24074C2F200046069F0B994F859
:203CE0002C00012805D1002084F82C00FFF79FFF14E094F82D0088B90DF1030002F083FFDA
:203D00000546012D0AD1A06A406938B1A06A04F11402214643699DF80300984701B030BD76
:203D20004DF8048D002040F24071C2F20001C8855DF8048B704730B540F24074C2F200048A
:203D4000E08D78B12146C88D0138C885E08D48B9FDF7DFFD0446FEF7E0F8054614B90DB958
:203D6000FDF7E7FD30BD4DF8048D6FF0FE0040F24071C2F2000148635DF8048B704710B4A9
:203D800040F24074C2F200040020606341F28830A06310BC704710B440F24074C2F20004CF
:203DA000606B002803DB2146486B0130486310BC70474DF8048D002040F24071C2F200012B
:203DC00008865DF8048B704730B540F24074C2F200040025208EE8B1208E01382086208E90
:203DE00010B9606900B90125606B00280DDB606BA16B884209D2012D0CD17820FFF752FE12
:203E000041F28830FFF7A7FE04E01020FFF74AFEFFF7A9FF30BD10B540F24074C2F20004DC
:203E200002206061AA20208304F11C01208B04F061FA00BF10BD70B541F21415C2F2000560
:203E400002F0DFFF0646002415E055F8240000280FD9A10068580138685055F8240040B9F0
:203E600056F82400022804D3A0000021315002F04EFF601CC4B2002CE7D070BD4DF8048D76
:203E8000002041F20C11C2F2000148805DF8048B704710B541F20E14C2F20004208830B13F
:203EA000208801382080208808B9FDF742FD10BD00B5FFF7C0FFFFF73EFFFFF785FFFFF70B
:203EC0006AFFFFF7E6FF00BD4DF8048D41F22C10C2F20000012141710021017100210160FF
:203EE000002181710021C160002141F21812C2F20002117000210161002141610021816070
:203F0000002101765DF8048B70472DE9F04F82B007460D4601228DF8002000228DF80120B7
:203F200000264FF0000BBA68527812F0800202D000228DF80020BA68527812F07F028DF814
:203F400002204FF0000A1CE048F60023C0F2010303EB0A129DF80230127893420DD14FEA9C
:203F60000A1248F60023C0F2010302EB030B9DF8026001228DF8012006E00AF101025FFA16
:203F800082FABAF1020FDFD30220396900F0F5FE02461446012C07D11222B9889DF80100DE
:203FA000FFF79DFD02461446012C0ED19BF80110DBF80400FFF7F4FC0246144620467E22BA
:203FC000B988FFF78CFD02461446012C05D10220396900F0C5FE02461446012C07D19BF8CB
:203FE0000810DBF80C0000F0D5FE02461446012C65D1002241F21813C2F200031A70002021
:20400000FFF7EAFCFFF7C2FC02468DF803203046FFF7B1FC02F0FFFE9DF80020012A3CD12B
:20402000AA6850231370BB68AA685B785370022E20D1AA6800239370AA683223D37002F0B8
:20404000F6FB002241F22C13C2F200039A60002241F22C13C2F200031A71002241F22C13C0
:20406000C2F20003DA60002241F22C13C2F200039A7107E0012E05D1AA6800239370AA68C3
:204080003223D370AA6801231371AA68F423537106222A61FFF7F7FC03E0FFF760FCFFF71A
:2040A00040FC9DF80320022A05D1012E03D13220FFF7DEFC03E0022E01D1FDF753FE02B009
:2040C000BDE8F08F2DE9F04D82B0074601914FF0000A01244FF0010B0026BA68527812F08B
:2040E000800201D04FF0000BBA68527812F07F028DF80320002515E048F62023C0F20103BB
:2041000003EB05129DF803301278934208D12A0148F62023C0F20103D6184FF0010A03E01D
:204120006A1CD5B2002DE7D0BAF1010F0CD171787068FFF735FC0246144620467E22B98825
:20414000FFF7CDFC02461446012C05D10220396900F013FE02461446012C06D150461222C6
:20416000B988FFF7BCFC02461446012C03D100F037FE02461446012C05D10220396900F02F
:20418000EFFD02461446012C05D1317AF06800F001FE02461446012C18D1BBF1010F0ED149
:2041A000019B9A6851231370019B9A689DF803305370019B02221A61FFF765FC03E0FFF7D6
:2041C000CEFBFFF7AEFB2320FFF752FC02B0BDE8F08D2DE9F04F90B007460391002600225E
:2041E0008DF80320002202924FF0000B0320396900F0C3FD02461446012C09D13A69D2077D
:2042000006D413220020B988FFF769FC024614463A69013A520802923A69013A52080C2AF7
:2042200007D33A69013AD20703D41320FFF73AFC0024012C4AD100244FF0000A43E0BA6899
:20424000013202EB4A0212781202ADF80620BA68BDF80630023202EB4A0212781A44ADF882
:204260000620002521E0C5EB850248F63023C0F2010303EB8202BDF806301288934213D1C4
:204280004FEA8B030DF1100CC5EB850248F6302EC0F2010E0EEB82024CF803200BF10102C6
:2042A0001FFA82FB012402E001350C2DDBD3012C07D031220020B988FFF711FC02461446E7
:2042C00004E00AF1010A029A9245B8D3012C11D100250DE0012C09D104AB53F82520917886
:2042E000506800F057FD0246144600E002E001355D45EFD3012C03D100F072FD02461446C2
:20430000012C4CD100253AE004AB53F8252092682AB3039B9A680DF1100C3244531C5CF80B
:204320002520128812121A70039B9A680DF1100C3244931C5CF8252012881A70039804AB0A
:2043400053F82520836801A93344D81C9268904702468DF80320BDF80420324496B29DF8E0
:2043600003200AB100240CE0B21C96B2B6F5C87F04D31420FFF796FB002402E001355D45D7
:20438000C2D3012C0BD19DF8032042B9039B9A6862231370039B721C1A61FFF774FB10B058
:2043A000BDE8F08F2DE9F04E82B00746019100BF00228DF803200025BA6852784FEA022A75
:2043C000BA68927852441FFA82FA002614E048F6DC23C0F2010303EB06121288924509D128
:2043E000320148F6DC23C0F20103D51801228DF8032003E0721CD6B2022EE8D30420396935
:2044000000F0BBFC02461446012C07D13122B9889DF80300FFF763FB02461446012C06D128
:2044200039696A88D01C00F09BFC02461446012C05D12979A86800F0ADFC02461446012CB6
:2044400003D100F0CDFC02461446012C18D1EA683AB1EB686988BA68D01C98470246934688
:2044600001E04FF0010BBBF10B0F03D12220FFF719FB05E0BBF1000F02D07220FFF712FB23
:2044800002B0BDE8F08E2DE9F04F82B00746019100228DF801200025BA6892F801B0002671
:2044A00023E0C6EBC60248F6C023C0F2010303EB8202127893450AD0C6EBC60248F6C02361
:2044C000C0F2010303EB8202927893450BD1C6EBC602920048F6C023C0F20103D518012204
:2044E0008DF8012003E0721CD6B2002ED9D00220396900F042FC02461446012C07D1122279
:20450000B9889DF80100FFF7EAFA02461446012C3BD1287900F06CFC02468DF803202A7884
:2045200093451FD14FF0020A5046396900F018FC02461446012C0DD19DF80300FFF761FA96
:2045400002468DF802209DF802201AB93720FFF7A9FA0024012C18D139462846019A00F040
:2045600061FC12E0AA7893450FD1EA7802F1020A5046396900F0F4FB02461446012C04D1F6
:2045800039462846019A00F0B0FC02B0BDE8F08F2DE9F04F81B005460E4600228DF8022033
:2045A0000027AA6892784FEA022BAA68D2785A441FFA82FB4FF0000A1AE00AEBCA0248F680
:2045C000FC23C0F2010303EB8202128893450BD10AEBCA02920048F6FC23C0F20103D718F1
:2045E00001228DF8022006E00AF101025FFA82FABAF1030FE1D30420296900F0BEFB024620
:204600001446012C07D13122A9889DF80200FFF766FA02461446012C0CD13979B868FFF756
:20462000BFF90246144620463122A988FFF757FA02461446012C06D1397B386900F0AAFB5F
:20464000024614460124012C13D1AA6852788DF803209DF80320397DB86900F0ABFB024691
:20466000144634B912220020A988FFF738FA02461446012C06D129697A88101D00F070FB84
:2046800002461446AA689278FF2A02D1AA68D2783AB1AA689278022A04D1AA68D278062A70
:2046A00000D10124012C36D1B26871231370AB68B2685B785370AB68B2689B789370AB6886
:2046C000B268DB78D370AA689278FF2A0DD1AA68D27852B9AB68B2685B785370B268FF23A1
:2046E0009370B2680023D37011E0AA689278022A0DD1AA68D278062A09D1AB68B2685B78BA
:204700005370B26802239370B2680623D37031462846FA69904701B0BDE8F08F2DE9F04FC5
:2047200084B00646039148F6683AC0F2010A0520316900F022FB02461446002241F22C13C6
:20474000C2F2000383F8242000228DF80320012C2DD1B26892F801B0B26892788DF80120CF
:20476000002518E00AEBC5021278934511D10AEBC5029DF80130527893420AD101228DF878
:204780000320EA0048F66833C0F2010303EB020A03E06A1CD5B2022DE4D39DF8032032B90A
:2047A00031220020B188FFF79AF902461446012C05D10B20316900F0D3FA02461446012CCE
:2047C0004CD1B268D01C00F0F5FC024617463846FDF7F8F802461746B268D01D00F0EAFC4C
:2047E000024602923846029902F009F902468DF802209DF80220052A04D13120FFF752F994
:2048000000242BE048F66830C0F2010000EBC5029178506800F0BEFA012801D000241DE0AA
:204820009DF80220022A0CD041F22C13C2F200039A6832B941F22C13C2F200039A79012A3C
:2048400004D12220FFF72EF9002407E09DF80220082A03D17020FFF725F90024012C1FD177
:20486000BBF1000F11D19DF80120442A0DD1B7F55C3F05D1002242F2BC03C2F200031A6036
:204880003046039900F0A9FB0AE0BBF1100F07D19DF80120442A03D13046039900F0D2FB1E
:2048A00000BF04B0BDE8F08F2DE9F04D83B0834641F22C15C2F2000502914FF0000A2E7962
:2048C0000320DBF8101000F058FA02461446012C33D1DBF8082052788DF80320DBF810203D
:2048E000971E02F0A4FA02460192AA79012A08D19DF80320012A04D07320FFF7D3F8002442
:204900001BE09DF80320964217D1019AAAB1019A032A12D0EA68BA420FD1029B9A6876231E
:204920001370029B9A68DBF808305B785370029B02221A61FFF7A7F80024012C14D139462E
:20494000286802F02EF902469246BAF1020F04D12420FFF7A7F8002406E0BAF1050F03D187
:204960007120FFF79FF80024012C09D19DF8032032B9AA79012A03D17320FFF793F80024F1
:20498000012C0DD1FF2E01D1002601E0721CD6B29DF80320964203D07320FFF783F8002465
:2049A000012C21D1DBF81020971E00F0C2F9AA68012A13D1DBF808203946901C02F083F8C1
:2049C0000246924695F8242012B92A683A442A60BAF1000F02D10022AA712E71012C03D117
:2049E000EF600022AA712E7103B0BDE8F08D2DE9F04106460F46012402F019FA022806D1A4
:204A00000120316900F0ACF90246144603E02420FFF748F80024012C1ED102F0DCF80246F9
:204A20001546B5B9002241F22C13C2F200039A60002241F22C13C2F200031A710021084623
:204A4000FDF7EAFA00F075F94FF4FA60FFF778F802E02420FFF726F800BFBDE8F0812DE9F8
:204A6000F04D81B005468B4600274FF0010AAA68527812F0800201D04FF0000AAA685278E5
:204A800012F07F028DF8032000260DE048F60B12C0F2010232449DF803301278934201D159
:204AA000012703E0721CD6B2002EEFD00220296900F063F902461446012C06D13846122290
:204AC000A988FFF70CF802461446012C05D10220296900F045F902461446012C15D1BAF1C4
:204AE000010F0ED1DBF808207E231370AB68DBF808205B7853700222CBF81020FEF7C3FF36
:204B000003E0FEF72CFFFEF70CFF00BF01B0BDE8F08DF0B506460D4614468EB9A3684FF0D1
:204B20006E0C83F800C0AF68A3687F785F70AF68A368BF789F7003232361FEF7A4FF02E04C
:204B40007220FEF7AFFFF0BD2DE9F04D82B083460E4614464FF0000AB36893F802C0DB7873
:204B600003EB0C239FB2002518E005EBC50348F6FC2CC0F2010C0CEB83031B889F420BD1F0
:204B800005EBC50348F6FC2CC0F2010C0CEB830301934FF0010A03E06B1CDDB2032DE4D3FD
:204BA000BAF1010F4CD1DDF804C0DCF820302BB10198036A2246314658469847BBF1000F67
:204BC00024D140F21228B7EB080304D04FF6EE48434514D019E0012341F22C1CC2F2000CB4
:204BE0008CF81830A3684FF0100C83F804C0A3684FF0000C83F805C002F0CAFD25E0A368E5
:204C00004FF0100C83F804C01FE01EE040F21228B7EB080304D04FF6EE48434509D00EE046
:204C2000A3684FF0100C83F804C0A36883F805B00BE0A3684FF0110C83F804C005E004E03A
:204C4000A3684FF0010C83F804C0A3684FF0710C83F800C0D6F808C0A3689CF801C083F84B
:204C600001C0D6F808C0A3689CF802C083F802C0D6F808C0A3689CF803C083F803C040F2D7
:204C80001228B7EB080304D04FF6EE48434503D005E00623236103E00523236100E000BFC3
:204CA000FEF7F1FE02B0BDE8F08DF0B505460E4614466DB9A3684FF0760C83F800C0B76852
:204CC000A3687F785F7002232361FEF7DCFE02E07220FEF7E7FEF0BD2DE9F04181B00546CD
:204CE0000E46144648F6783CC0F2010CBCF80030ADF80230BDB90DF1020000F0DDF9A36853
:204D00004FF0770C83F800C0A3689DF802C083F801C0A3689DF803C083F802C003232361AE
:204D2000FEF7B1FE02E07220FEF7BCFE01B0BDE8F08100B57820FEF7B5FE41F28830FEF710
:204D40000AFF07E002F042FF012801D106F0DCFE06F0D5FEFEF738FF40690028F2D100BD1F
:204D600070B505460E460124AE4203D000241320FEF798FE2246104670BD70B505460E46F6
:204D80000124AE4203D200241320FEF78BFE2246104670BD70B505460E4631462846FEF7CB
:204DA00040FE0246144614B93320FEF77BFE2246104670BDF0B405460E46174600240023B3
:204DC00008E015F803C0674500D1012403F1010C5FFA8CF3B342F4D300BF2046F0BC70475C
:204DE00010B5012414B92220FEF75CFE012010BD30B40446FF2200210EE0C1EBC10348F671
:204E0000C02CC0F2010C0CEB83031B799C4201D10A4603E04B1CD9B20029EED000BF104605
:204E200030BC70472DE9F04D81B00446174641F21815C2F2000500914FF0010AFEF7D7FDE7
:204E400003469B462079FFF7D3FF03461E4623795B4505D1E81C0021627800F079F924E0A3
:204E6000AB1903F1020C9B7801338CF80030AB1902331B78022B10D9AB1902334FF0000C8B
:204E800083F800C042F210713046FEF7E6FD3720FEF708FE4FF0000A07E001232B702378F8
:204EA0006B70E81C636961789847BAF1010F18D1BB684FF0670C83F800C0DDF80080D8F8B6
:204EC00008C0BB689CF801C083F801C06278BB68E91C981C00F023F9637802333B61FEF7F3
:204EE000D2FD00BF01B0BDE8F08D2DE9F04D82B005468B46924641F21817C2F2000701F0CA
:204F000080FF03461E462879FFF772FF03461C463B1902334FF0000C83F800C07B7895F823
:204F200000C0634553D13B78012B50D100233B70FEF774FC0028FBD1D5F818806B78E97815
:204F4000DBF808C0FA1C0CF10200C04703468DF803309DF8033003BB56F8243033B1A300EA
:204F60004FF0000C46F803C001F0D1FE2879FEF733FDDAF808304FF0670C83F800C0DBF895
:204F800008C0DAF808309CF801C083F801C00223CAF81030FEF777FD1CE04FEA840C56F80B
:204FA0000C30013346F80C3001F0B1FE56F82430022B03D23520FEF775FD0BE042F2107167
:204FC0002046FEF74AFD3620FEF76CFD02E02420FEF768FD02B0BDE8F08DF0B506460D46E3
:204FE00041F22C14C2F20004002222760122A271002222710122A260B268D01C00F0DAF8F4
:20500000024622602068FCF7DDFC02462260B268D01D00F0CFF8024617463946206801F04D
:20502000A7FCAA6874231370AA6820235370AA6808239370AA680023D37004222A61FEF72B
:2050400022FDF0BDF0B506460D4641F22C14C2F2000403F02DFE00222276012284F824205A
:205060000122A271002222710122A260B268D01C00F0A0F8024622602068FCF7A3FC024666
:205080002260B268D01D00F095F8024617463946206801F06DFCAA6874231370AA68202383
:2050A0005370AA6808239370AA680023D37004222A61FEF7E8FCF0BD10B5044602F0B4FA8F
:2050C000C0F30721217002F0AFFA0146617010BDF0B405460E4617469C4600BF00BF00BF25
:2050E00000BF00242046F0BC7047F0B405460E4617469C4600BF00BF00BF00BF00242046FC
:20510000F0BC7047F0B405460E4617469C4600BF00BF00BF00BF00242046F0BC70472DE9AB
:20512000F00406460F46944633463C4665460AE03BB134B194F800A083F800A001330134EF
:2051400000E002E0013D002DF2D8BDE8F0047047F0B405460E4617462B463C4605E013B1CC
:205160001E70013300E002E0013C002CF7D8F0BC70472DE9F04C84468A46174601236446F9
:2051800055463E460FB9002310E00DE04CB145B194F800B095F800E0F34502D10134013516
:2051A00001E0002302E0013E002EEFD800BF1846BDE8F08C10B404462278110662781204E8
:2051C0001144A27812021144E278114400BF084610BC70472DE91001044641F25411C2F2FB
:2051E00000010C60BDE81001704710B4044600BF10BC70472DE9F04C064641F25C14C2F290
:20520000000404F1480704F1380A04F1340B012536B90423002211461520FFF759FF00257E
:20522000606B022802D0606B032806D10623002211461520FFF759FF0025012D46D12660C5
:20524000002116E0C1EB8102231D03EB820201239360C1EB8102231D03EB820200231360C8
:20526000C1EB8102231D03EB8202002353604A1C91B2226812889142E4D3002084F845003F
:20528000002084F84400002020640020E0630020A0630020A4F848000020E06402202065F5
:2052A0000020E06500202066002060650020A065002084F86A000020A4F868000020206708
:2052C0000020E0661420606603206063BDE8F08C10B4044600BF10BC70472DE9F04D83B091
:2052E0008A469B4641F25C14C2F20004ADF80A0001920127BDF80A0000F00DFA0546616B6B
:2053000031B90123022200211520FFF7E1FE54E0019830B90423022200211520FFF7D8FE0D
:205320004BE04FF6FF718D4206D102231A4600211520FFF7CDFE40E021684968C5EB8500BC
:2053400001EB400149888A4506D30323022200211520FFF7BDFE30E0BBF1000F0AD0236826
:205360005B68C5EB850003EB40035B880BEB0A01994206DD0523022200211520FFF7A8FE24
:205380001BE0616B022912D0616B03290FD0A4F84850C4F85CA0C4F860B00198606501212A
:2053A000E1640221216502216163002705E00623022200211520FFF798FE384603B0BDE807
:2053C000F08D2DE9F04C82460F4641F29014C2F2000404F1140B0125504600F09CF90646B1
:2053E000206830B90123032200211520FFF770FE28E037B90423032200211520FFF768FE43
:2054000020E04FF6FF70864206D10223032200211520FFF75DFE15E0206802280CD020683D
:20542000032809D0A6820220A0610220E061676202202060002505E00623032200211520A1
:20544000FFF753FE2846BDE8F08C2DE9004141F29011C2F20001086828B9012304220021DA
:205460001520FFF735FEBDE800814DF8048D41F29011C2F2000108685DF8048B704730B559
:2054800041F29015C2F200050124286830B90123062200211520FFF71BFE00E0EC69204691
:2054A00030BD2DE9F044074641F29014C2F2000404F1140A0025384600F02DF90646206839
:2054C00030B90123072200211520FFF701FE01254FF6FF70864206D102230722002115202E
:2054E000FFF7F6FD01252068022802D02068032806D10623072200211520FFF7F6FD0125D8
:205500003DB9A6820320A0610220E0610220206000BF2846BDE8F0842DE9F044074641F234
:205520005C14C2F2000404F1480A0025384600F0F2F80646606B30B90123092200211520DA
:20554000FFF7C6FD01254FF6FF70864207D020684068C6EB860100EB4100007930B90223FE
:20556000092200211520FFF7B3FD0125606B022802D0606B032806D10623092200211520A0
:20558000FFF7B3FD012545B9A4F848600420E064022020650220606300BF2846BDE8F084C3
:2055A0002DE9704141F29014C2F2000404F114062068002841D0E06902283ED1A06904280E
:2055C0000BDD0CF0B9F80546022D36D015B900F038F832E000F060F82FE0A069042815D83D
:2055E0000FF20408D8E800F00306090C0F0000F0D8F80CE000F03AF909E000F068F906E0D2
:2056000000F091F903E000F0BEF900E000BFE069022812D0E06940B92068032802D10120A9
:2056200020600AE00120206007E02068032802D10020206001E001202060BDE8708100003A
:20564000000070B541F29014C2F20004012504F11406A069142808D10020E061206803282F
:2056600001D1256017E0256015E000F0A5F8E061E06930B92068032801D125600BE02560E8
:2056800009E0E069022806D02068032802D10020206000E0256070BD2DE9304141F29014C2
:2056A000C2F2000404F11405E069032831D0A06914282DD80FF20408D8E800F02A2A2A2A00
:2056C0002A1515151E15101E1E0B1E1E1E1E1E1E1E00002000F08AFEE0611AE0002000F022
:2056E00051FCE06115E0A068603060600CF024F8E061012020600CE00CF01EF8E06120680E
:20570000032802D10020206001E00120206000E000BFBDE830812DE9F004064641F25C1C73
:20572000C2F2000C0022DCF800000088441E4FF6FF7A16E0A11A01EBD17040101318DCF8DE
:2057400000004068C3EB830149000D5AAE4201D25C1E06E0AE4201D95A1C02E01FFA83FAE4
:2057600001E0A242E6DD5046BDE8F004704730B541F29414C2F20004607B48F68431C0F2C3
:205780000101C0000D5804F13C01284620220BF0E5FF08B1012100E002210A20606108460A
:2057A00030BD10B541F29414C2F2000400206073FFF7DDFFA06110BD2DE91041012441F252
:2057C000A411C2F20001486813284BD80FF20408D8E800F048484848480A0E12161A1E2391
:2057E000272B3034383C404400F04BFB04463AE000F098FB044636E000F0B2FB044632E085
:2058000000F0CFF804462EE000F0DDF804462AE0012000F0B7FB044625E000F04AFC0446CE
:2058200021E000F0AFFD04461DE0012000F0DEFD044618E000F09AF9044614E000F0C6F9E6
:20584000044610E000F0C1FA04460CE000F0FBFA044608E000F0DAFA044604E000F021FA19
:20586000044600E000BF2046BDE81081F0B541F26014C2F2000404F14407B4F84400C0EBC4
:20588000800004EB80008568B4F84400C0EB80008000065965B9E26D216DA06D30440BF0BB
:2058A0005DFF10B10120E0640EE00220E0640BE0012D02D10520E06406E0022D02D10420B1
:2058C000E06401E00120E0641420A064F0BD30B541F25C14C2F2000404F148052168B4F8A2
:2058E00048004968C0EB800001EB40000079012810D1B4F84800211DC0EB800001EB80000C
:205900008068022803D100F0BCFA20650AE00120206507E000F092F82065E06C0E2801D0AD
:205920000520E06430BD30B541F26014C2F2000404F14405B4F84400C0EB800004EB800005
:205940008068012804D11420A0640020E06419E004F17000552100F0E5FCB4F84400C0EB85
:20596000800004EB8000406804F17001103010220BF061FE10B90220E06401E00120E064E9
:205980000820A06430BD10B541F2A414C2F2000400F054F8A06060680E2801D00920606092
:2059A00010BD10B441F26014C2F20004B4F844000121C0EB800004EB800081601420A06432
:2059C000002010BC7047F0B441F25C14C2F2000404F1480304F13805211D2668B4F84800F3
:2059E0007668C0EB800006EB40004288A06B801AA063E06B3030E063B4F848004FF0020CCC
:205A0000C0EB800001EB8000C0F808C0B4F84800D4F838C0C0EB800001EB8000C0F800C0A8
:205A2000B4F84800E66B203EC0EB800001EB800046601420E0640020F0BC70472DE9F04441
:205A400081B041F25C14C2F2000404F1380A2168B4F848004968C0EB800001EB4000468830
:205A6000A16BE26B06F16000891A884203D900F027F8054620E0A06B871B04F1740000902D
:205A80002568B4F848C06D68CCEB8C0005EB400003793A463146CCEB8C0005EB400000880F
:205AA00000F035FD04F174011022E06B0BF0C3FD08B1012500E00225284601B0BDE8F08404
:205AC00070B541F29414C2F2000404F110066069E06200202086207B013084F8320094F82C
:205AE0003200022802D1002084F8320094F8320048F68431C0F2010101EBC000006860636D
:205B000094F8320048F68431C0F2010101EBC001606B49680844A063606B2030606300F0DA
:205B200003F80546284670BD70B541F2A414C2F2000494F8220048F68431C0F20101C000A7
:205B40000D5894F8220048F68431C0F2010101EBC0004668314628460BF00FFD08B9022161
:205B600000E001210E206060084670BD2DE9F04441F29414C2F2000404F1100A94F8320010
:205B800048F68431C0F20101C0000D5894F8320048F68431C0F2010101EBC0004668A7686B
:205BA00004F13C0332462946781C00F0ADFA04F13C01284610220BF03EFD08B9022100E0D3
:205BC00001210F2060610846BDE8F0842DE9F04D84B041F25C15C2F20005B5F8684014E01F
:205BE000C4EB8400291D01EB8000866829684968C4EB840001EB400007791EB1012F02D1DF
:205C0000022E00D105E0601C84B2286800888442E6D3A5F8684028680088844203D100F06E
:205C2000B3F8824639E029684968C4EB840001EB4000B0F802B029684968C4EB8400400028
:205C4000405AADF80A00286FA0EB0B00019005F1740000903B465946019ABDF80A0000F0D9
:205C600056FC05F174011022E86E0BF0E4FC10B14FF0010A01E04FF0020A16B91020E86482
:205C800006E0B5F868000130A5F868000F20E86401982867E86E3030E866504604B0BDE83D
:205CA000F08D2DE9F04D83B041F25C14C2F2000404F1040A94F86A0048F68431C0F20101E6
:205CC000C0000E5894F86A0048F68431C0F2010101EBC000406837182036002532E0216848
:205CE0004968C5EB850001EB400000798DF80300C5EB85000AEB8000806850B1C5EB8500C9
:205D00000AEB8000806802281AD19DF80300012816D121684968C5EB850001EB4000B0F826
:205D200002B0A7EB0B073036C5EB85000AEB80000760C5EB8500A6F120010AEB8000416093
:205D4000681C85B2206800888542C8D3206C0130206494F86A0084F84400A763E663606EFE
:205D6000E064E06C022803D1FFF7B1FD216D07E0E06C042803D1FFF706FE216D00E00121A6
:205D8000084603B0BDE8F08D30B541F2A414C2F2000494F8220048F68431C0F20101C00043
:205DA0000D5804F12C00AA2100F0BCFA04F12C0105F1100010220BF03EFC08B9022100E099
:205DC000012113206060084630BD70B541F25C14C2F20004B4F8685021684968C5EB850020
:205DE00001EB40004688324604F17401C5EB8500231D03EB800000680BF0B0FC08B10121FA
:205E000000E002211120E064084670BD30B541F2A414C2F20004254604F12C00AA2100F0C0
:205E200081FA606A04F12C01203810220BF003FC08B1012100E00221208C013020840F20E9
:205E40006060084630BDF0B541F25C14C2F2000404F14807B4F8685021684968C5EB850030
:205E600001EB40004688324604F17401206F0BF0E2FB08B9022100E001211220E064084635
:205E8000F0BD2DE9F04441F25C14C2F2000404F14807251D04F1380A2168B4F848004968C5
:205EA000C0EB800001EB400046882168B4F848004968C0EB800001EB40000079F0B9A06B0B
:205EC000801BA063E06B3030E063B4F848000221C0EB800005EB80008160B4F84800A16BA3
:205EE000C0EB800005EB80000160B4F84800E16B2039C0EB800005EB80004160B4F84800DD
:205F0000A16D3246C0EB800005EB800000680BF092FB08B9022100E001210620E0640846D2
:205F2000BDE8F08410B541F26014C2F2000404F17000AA2100F0F6F9B4F8440004F17001BF
:205F40001022C0EB800004EB800040680BF073FB08B9022100E001210720A064084610BD38
:205F600010B441F26014C2F20004B4F844000021C0EB800004EB800081601420A06400201A
:205F800010BC70472DE9F04483B0074641F29414C2F20004A246012F26D104F13C0302AA32
:205FA00001A9684600F010F90646EEB9607B48F68431C0F2010101EBC000019900688142AA
:205FC00012D1607B48F68431C0F2010101EBC00002994068814207D10098A168884203D98B
:205FE0000098A060607B2073607B01306073607B022803D100F009F8054602E0FFF7B7FB1D
:206000000546284603B0BDE8F084F0B541F29414C2F20004A06818B900F02EF8054616E093
:20602000207B48F68431C0F20101C0000E58207B48F68431C0F2010101EBC000476806F164
:2060400020006060B819206000F003F805462846F0BD10B541F29414C2F2000404F13C0134
:20606000302260680BF07AFB08B1012100E002210D206061084610BD2DE9304148F6843036
:20608000C0F20100046848F68430C0F201004568294620460BF071FA08B9022100E001216E
:2060A0000B2041F2A412C2F2000250600846BDE830812DE9F04141F2A414C2F2000404F1E3
:2060C0002C0548F68430C0F20100066848F68430C0F2010047682B463A463146012000F0AF
:2060E00013F805F11000AA2100F01CF92946304620220BF0A0FA08B9022100E001210C20F1
:2061000060600846BDE8F0812DE9F04F85B082468B4696460493049CDDF8108008F120089F
:20612000CDF804800BEB0A0CF444CDF808C0002507E0EE002AFA06F6665505F1010C5FFA14
:206140008CF5042DF5D3043400BF002607E0F7002BFA07F7A75506F1010C5FFA8CF6042E9A
:20616000F5D3043400BF002709E04FEAC70C2EFA0CFC04F807C007F1010C5FFA8CF7042F3D
:20618000F3D3043400BF4FF0000C0BE0DDF808804FEACC0928FA09F804F80C800CF10108F0
:2061A0005FFA88FCBCF1040FF0D3043400BF04E04FF0FF0884F800800134DDF8048044454B
:2061C000F6D305B0BDE8F08F2DE9F04F88B004900591069207934FF0010CCDF804C04FF020
:2061E000000C8DF803C0079CDDF81C8008F11008CDF80880DDF810C04FF00009CCF8009098
:2062000000250FE0675D4FEAC50C07FA0CF7DDF810C0DCF800603E43CCF8006005F1010C17
:206220005FFA8CF5042DEDD3043400BFDDF814C04FF00009CCF80090002610E0DDF81480D8
:2062400014F806C0F7000CFA07FCD8F8007047EA0C07C8F8007006F1010C5FFA8CF6042EA7
:20626000ECD3043400BFDDF818C04FF00009CCF80090002711E0DDF8188014F807A04FEAAE
:20628000C70C0AFA0CFAD8F800C04CEA0A0CC8F800C007F1010C5FFA8CF7042FEBD30434BB
:2062A00000BF4FF0000B4FF0000A0BE014F80AE04FEACA0C0EFA0CFC4BEA0C0B0AF1010C38
:2062C0005FFA8CFABAF1040FF0D3043400BFDDF81480D8F800C0DDF81080D8F800E0DDF884
:2062E0001880F444D8F800E0E644DE4514D12046029900F067F878B90DF10302AA21029803
:2063000000F022F840B99DF803C0BCF1010F03D14FF0000CCDF804C0DDF804C0604608B0C6
:20632000BDE8F08F70B404460D46224604F110031570013204E04FF0FF0C82F800C00132B5
:206340009A42F8D370BC7047F0B504460E46174623789E4202D02378FF2B0FD123789E42A6
:2063600002D101233B7001E000233B7004F11001601C00F027F803461D4600E001252B4618
:206380001846F0BD2DE9100141F29414C2F200042346002020730120A06048F68430C0F257
:2063A0000100016848F68430C0F20100426801F12000606050182060142060610020BDE8B0
:2063C0001001704770B404460D460023224607E092F800C0BCF1FF0F01D0012302E00132B3
:2063E000AA42F5D300BF184670BC70472DE9F04D85B041F25C14C2F2000404F1040B8DF87D
:2064000007004FF0000A04F1740100910DF1060303AA02A80DF10A0100F0ECF80746032F77
:2064200002D09DF80700F0B994F8440048F684321346C0F20102C0F2010302EBC00203EB20
:20644000C0014E6811680E44E16B3031B14203D31421E164002556E0E16B3031E163FFF7C8
:20646000F8FD05464FE0042F03D11421E164002549E0BDF80800FFF74EF906464FF6FF71E3
:206480008E4223D0A16BBDF80A20891A039A8A421CD8E16B039A60318A4217D322685268DA
:2064A000C6EB860102EB4101BDF80A20498891420CD122685268C6EB860102EB41019DF8D5
:2064C00006200979914201D14FF0010ABAF1010F13D1C6EB86010BEB81018F60039AC6EB99
:2064E00086010BEB81010A60E26BC6EB86010BEB810110324A600399A163E16B3031E163B9
:20650000FFF7A7FD0546284605B0BDE8F08D2DE9F04F84B083468E4603928DF803300D9C35
:2065200004F1300CCDF804C0DDF80C800EEB0B0C08EB0C059DF803C0BCF1010F03D101350D
:2065400045F0004501E025F00045002607E0F7004BFA07F7A75506F1010C5FFA8CF6022E34
:20656000F5D3023400BF002709E04FEAC70C4EFA0CFC04F807C007F1010C5FFA8CF7022F1D
:20658000F3D3023400BF4FF0000C0BE0DDF80C804FEACC0A28FA0AFA04F80CA00CF1010AC4
:2065A0005FFA8AFCBCF1040FF0D3043400BF4FF0000A0DE04FEACA08CDF80880DDF8088097
:2065C00025FA08F804F80A800AF101085FFA88FABAF1040FEED3043400BF04E04FF0FF0897
:2065E00084F800800134DDF804804445F6D304B0BDE8F08F2DE9F04F88B004900591069298
:2066000007930325119C4FF0000C8DF801C04FF0000C8DF802C004F130012046FFF7D2FE96
:2066200008B90425D3E004F1100CCDF80CC0DDF810C04FF00009ACF80090002612E0DDF80D
:20664000108014F806C0F7000CFA07F71FFA87FCB8F8007047EA0C07A8F8007006F1010CC9
:206660005FFA8CF6022EEAD3023400BFDDF814C04FF00009ACF80090002713E0DDF81480B5
:2066800014F807A04FEAC70C0AFA0CFC1FFA8CFAB8F800C04CEA0A0CA8F800C007F1010C6F
:2066A0005FFA8CF7022FE9D3023400BFDDF818C04FF00009CCF800904FF0000A11E0DDF8C4
:2066C000188014F80AB04FEACA0C0BFA0CFBD8F800C04CEA0B0CC8F800C00AF1010C5FFA83
:2066E0008CFABAF1040FEAD3043400BF4FF0000CCDF804C04FF0000B0FE0DDF8048014F830
:206700000BE04FEACB0C0EFA0CFC48EA0C08CDF804800BF1010C5FFA8CFBBBF1040FECD378
:20672000043400BFDDF81880D8F800C0DDF81480B8F800E0DDF81080F444B8F800E00EEB46
:206740000C08CDF80880DDF804C01CF0004F06D1DDF81CC04FF000098CF800900BE0DDF840
:206760001C804FF0010C88F800C0DDF8088008F10108CDF80880DDF8048028F0004CDDF8B3
:20678000088028F0004EF44521D120460399FFF719FEE0B90DF10102AA210398FFF7D4FD0A
:2067A000A8B903990DF1020201F110005521FFF7CBFD60B99DF801C0BCF1010F06D19DF80C
:2067C00002C0BCF1000F01D1002500E0012500BF284608B0BDE8F08F2DE9704141F2DC65FA
:2067E000C2F2000505F18006002085F8E806012085F88000002405E028198230002101702D
:20680000601CC4B20A2CF7D3284680220021FEF79FFC00F00CF848F6CC40C0F2010041682B
:2068200040F2E030C2F200008847BDE8708110B541F25C74C2F200040020C4F8600600F04B
:20684000A7FF0020C4F864060020C4F874060020C4F870060020C4F86C0610BD30B541F271
:206860005C75C2F2000500242878012802D100F037FC04460320C5F86406002068702046B9
:2068800030BD70B5064641F25C74C2F2000400252178012903D100F023FC01460D46A66173
:2068A00094F8681602290CD25DB994F86816013184F86816A6610321C4F864160021617026
:2068C00002E0FFF7B4FF02252946084670BD2DE9F044044641F25C76C2F2000641F6E0575B
:2068E000C2F2000741F6B47AC2F2000A00259AF806108C4237D2C4EB84010AF10C0202EBEC
:20690000C1017A6D49888A4207D3C4EB84010AF10C0202EBC101498819BB07EBC4010022ED
:206920000A70002187F85010C4EB84010AF10C0303EBC101097807EBC402D17007EBC401BE
